0029029600999991901123106004+61183+022617FM-12+005199999V0201101N003119999999N0000001N9-00111+99999100221ADDGF108991999999999999999999
0029029600999991901010106004+61183+022617FM-12+005199999V0202501N002119999999N0000001N9-01781+99999102321ADDGF108991999999999999999999
0035029600999991901010113004+61183+022617FM-12+005199999V0202001N002119999999N0000001N9-01441+99999102261ADDGF108991999999999999999999MW1721
0035029600999991901010120004+61183+022617FM-12+005199999V0202001N003119999999N0000001N9-01171+99999102101ADDGF107991999999999999999999MW1721
0029029600999991901010206004+61183+022617FM-12+005199999V0201801N005119999999N0000001N9-00831+99999101841ADDGF108991999999999999999999
0029029600999991901010213004+61183+022617FM-12+005199999V0202001N005119999999N0000001N9-00561+99999101831ADDGF108991999999999999999999
0029029600999991901010220004+61183+022617FM-12+005199999V0202001N005119999999N0000001N9-00391+99999101761ADDGF108991999999999999999999
0029029600999991901010306004+61183+022617FM-12+005199999V0202301N006219999999N0000001N9-00331+99999101841ADDGF108991999999999999999999
0029029600999991901010313004+61183+022617FM-12+005199999V0202001N005119999999N0000001N9-00391+99999101801ADDGF108991999999999999999999
0029029600999991901010320004+61183+022617FM-12+005199999V0202001N005119999999N0000001N9-00391+99999101711ADDGF108991999999999999999999
0029029600999991901010406004+61183+022617FM-12+005199999V0201601N003119999999N0000001N9-00331+99999101791ADDGF108991999999999999999999
0029029600999991901010413004+61183+022617FM-12+005199999V0202001N001019999999N0000001N9-00171+99999102061ADDGF108991999999999999999999
0029029600999991901010420004+61183+022617FM-12+005199999V0201801N003119999999N0000001N9-00171+99999102281ADDGF108991999999999999999999
0029029600999991901010506004+61183+022617FM-12+005199999V0202301N005119999999N0000001N9-00171+99999102471ADDGF108991999999999999999999
0035029600999991901010513004+61183+022617FM-12+005199999V0202301N007219999999N0000001N9+00001+99999102511ADDGF108991999999999999999999MW1721
0029029600999991901010520004+61183+022617FM-12+005199999V0202301N003119999999N0000001N9+00061+99999102721ADDGF108991999999999999999999
0029029600999991901010606004+61183+022617FM-12+005199999V0202301N003119999999N0000001N9+00061+99999102781ADDGF108991999999999999999999
0029029600999991901010613004+61183+022617FM-12+005199999V0202301N004119999999N0000001N9+00061+99999102871ADDGF108991999999999999999999
0029029600999991901010620004+61183+022617FM-12+005199999V0202901N001019999999N0000001N9+00001+99999102911ADDGF108991999999999999999999
0035029600999991901010706004+61183+022617FM-12+005199999V0209991C000019999999N0000001N9-00331+99999103021ADDGF108991999999999999999999MW1721
0035029600999991901010713004+61183+022617FM-12+005199999V0209991C000019999999N0000001N9-00561+99999103121ADDGF108991999999999999999999MW1721
0035029600999991901010720004+61183+022617FM-12+005199999V0201401N001019999999N0000001N9-01061+99999103191ADDGF108991999999999999999999MW1721
0029029600999991901010806004+61183+022617FM-12+005199999V0209991C000019999999N0000001N9-00781+99999103271ADDGF108991999999999999999999
0029029600999991901010813004+61183+022617FM-12+005199999V0209991C000019999999N0000001N9-00501+99999103191ADDGF108991999999999999999999
0035029600999991901010820004+61183+022617FM-12+005199999V0202301N001019999999N0000001N9-00391+99999102911ADDGF108991999999999999999999MW1721
0029029600999991901010906004+61183+022617FM-12+005199999V0209991C000019999999N0000001N9-00441+99999102641ADDGF108991999999999999999999
0029029600999991901010913004+61183+022617FM-12+005199999V0209991C000019999999N0000001N9-00281+99999102471ADDGF108991999999999999999999
0029029600999991901010920004+61183+022617FM-12+005199999V0202301N002119999999N0000001N9-00171+99999102201ADDGF108991999999999999999999
0029029600999991901011006004+61183+022617FM-12+005199999V0201801N004119999999N0000001N9-00281+99999101921ADDGF108991999999999999999999
0029029600999991901011013004+61183+022617FM-12+005199999V0203201N003119999999N0000001N9-00281+99999101911ADDGF108991999999999999999999
0035029600999991901011020004+61183+022617FM-12+005199999V0203201N004119999999N0000001N9-00111+99999101671ADDGF108991999999999999999999MW1721
0029029600999991901011106004+61183+022617FM-12+005199999V0202901N001019999999N0000001N9-00111+99999101431ADDGF108991999999999999999999
0029029600999991901011113004+61183+022617FM-12+005199999V0202501N004119999999N0000001N9-00171+99999101471ADDGF108991999999999999999999
0029029600999991901011120004+61183+022617FM-12+005199999V0202501N002119999999N0000001N9-00171+99999101501ADDGF108991999999999999999999
0029029600999991901011206004+61183+022617FM-12+005199999V0202701N002119999999N0000001N9-00891+99999101391ADDGF102991999999999999999999
0029029600999991901011213004+61183+022617FM-12+005199999V0202301N005119999999N0000001N9-00111+99999101511ADDGF102991999999999999999999
0029029600999991901011220004+61183+022617FM-12+005199999V0202701N002119999999N0000001N9-00671+99999102081ADDGF100991999999999999999999
0029029600999991901011306004+61183+022617FM-12+005199999V0202701N006219999999N0000001N9-00831+99999102151ADDGF100991999999999999999999
0029029600999991901011313004+61183+022617FM-12+005199999V0202701N006219999999N0000001N9-00061+99999102311ADDGF102991999999999999999999
0029029600999991901011320004+61183+022617FM-12+005199999V0202501N002119999999N0000001N9-00561+99999102401ADDGF101991999999999999999999
0029029600999991901011406004+61183+022617FM-12+005199999V0209991C000019999999N0000001N9-01061+99999102701ADDGF108991999999999999999999
0029029600999991901011413004+61183+022617FM-12+005199999V0202501N001019999999N0000001N9-00501+99999102751ADDGF108991999999999999999999
0029029600999991901011420004+61183+022617FM-12+005199999V0202501N001019999999N0000001N9-00611+99999102631ADDGF108991999999999999999999
0029029600999991901011506004+61183+022617FM-12+005199999V0202501N003119999999N0000001N9-00441+99999102391ADDGF108991999999999999999999
0029029600999991901011513004+61183+022617FM-12+005199999V0202501N001019999999N0000001N9-00441+99999102151ADDGF108991999999999999999999
0029029600999991901011520004+61183+022617FM-12+005199999V0202001N002119999999N0000001N9-00331+99999101841ADDGF108991999999999999999999
0029029600999991901011606004+61183+022617FM-12+005199999V0202001N003119999999N0000001N9-00561+99999101341ADDGF105991999999999999999999
0029029600999991901011613004+61183+022617FM-12+005199999V0202701N002119999999N0000001N9-00281+99999101201ADDGF106991999999999999999999
0029029600999991901011620004+61183+022617FM-12+005199999V0202701N003119999999N0000001N9-00441+99999101191ADDGF108991999999999999999999
0029029600999991901011706004+61183+022617FM-12+005199999V0209991C000019999999N0000001N9-00941+99999101281ADDGF108991999999999999999999
0029029600999991901011713004+61183+022617FM-12+005199999V0201101N001019999999N0000001N9-00561+99999101361ADDGF108991999999999999999999
0029029600999991901011720004+61183+022617FM-12+005199999V0201101N001019999999N0000001N9-01331+99999101281ADDGF100991999999999999999999
0029029600999991901011806004+61183+022617FM-12+005199999V0201601N001019999999N0000001N9-01281+99999101101ADDGF102991999999999999999999
0029029600999991901011813004+61183+022617FM-12+005199999V0201601N001019999999N0000001N9-00671+99999101181ADDGF103991999999999999999999
0029029600999991901011820004+61183+022617FM-12+005199999V0201601N001019999999N0000001N9-00721+99999101221ADDGF101991999999999999999999
0029029600999991901011906004+61183+022617FM-12+005199999V0201801N001019999999N0000001N9-00441+99999100911ADDGF108991999999999999999999
0029029600999991901011913004+61183+022617FM-12+005199999V0202001N004119999999N0000001N9+00001+99999100591ADDGF108991999999999999999999
0029029600999991901011920004+61183+022617FM-12+005199999V0202001N006219999999N0000001N9+00001+99999100351ADDGF108991999999999999999999
0029029600999991901012006004+61183+022617FM-12+005199999V0202501N008219999999N0000001N9+00001+99999100121ADDGF108991999999999999999999
0029029600999991901012013004+61183+022617FM-12+005199999V0202701N002119999999N0000001N9+00001+99999099921ADDGF108991999999999999999999
0035029600999991901012020004+61183+022617FM-12+005199999V0201801N003119999999N0000001N9+00001+99999099141ADDGF108991999999999999999999MW1721
0029029600999991901012106004+61183+022617FM-12+005199999V0201101N005119999999N0000001N9-00281+99999098071ADDGF108991999999999999999999
0035029600999991901012113004+61183+022617FM-12+005199999V0201101N004119999999N0000001N9-00331+99999098381ADDGF108991999999999999999999MW1721
0029029600999991901012120004+61183+022617FM-12+005199999V0200501N003119999999N0000001N9-00331+99999099161ADDGF108991999999999999999999
0029029600999991901012206004+61183+022617FM-12+005199999V0203201N007219999999N0000001N9-00331+99999098841ADDGF108991999999999999999999
0035029600999991901012213004+61183+022617FM-12+005199999V0201801N008219999999N0000001N9+00171+99999097481ADDGF108991999999999999999999MW1721
0029029600999991901012220004+61183+022617FM-12+005199999V0202501N008219999999N0000001N9+00111+99999097561ADDGF100991999999999999999999
0029029600999991901012306004+61183+022617FM-12+005199999V0202501N014919999999N0000001N9+00171+99999097671ADDGF100991999999999999999999
0029029600999991901012313004+61183+022617FM-12+005199999V0202901N014919999999N0000001N9+00171+99999098501ADDGF101991999999999999999999
0029029600999991901012320004+61183+022617FM-12+005199999V0202901N012919999999N0000001N9+00001+99999099671ADDGF100991999999999999999999
0029029600999991901012406004+61183+022617FM-12+005199999V0202701N010819999999N0000001N9+00171+99999100501ADDGF105991999999999999999999
0029029600999991901012413004+61183+022617FM-12+005199999V0202501N002119999999N0000001N9+00331+99999100631ADDGF101991999999999999999999
0029029600999991901012420004+61183+022617FM-12+005199999V0202301N004119999999N0000001N9-00171+99999100501ADDGF102991999999999999999999
0029029600999991901012506004+61183+022617FM-12+005199999V0202301N006219999999N0000001N9+00061+99999099781ADDGF108991999999999999999999
0029029600999991901012513004+61183+022617FM-12+005199999V0202001N006219999999N0000001N9+00111+99999098991ADDGF108991999999999999999999
0029029600999991901012520004+61183+022617FM-12+005199999V0202001N006219999999N0000001N9+00111+99999098191ADDGF108991999999999999999999
0029029600999991901012606004+61183+022617FM-12+005199999V0202301N006219999999N0000001N9+00111+99999097991ADDGF108991999999999999999999
0029029600999991901012613004+61183+022617FM-12+005199999V0202001N004119999999N0000001N9+00061+99999098111ADDGF108991999999999999999999
0029029600999991901012620004+61183+022617FM-12+005199999V0201801N004119999999N0000001N9-00171+99999098071ADDGF108991999999999999999999
0029029600999991901012706004+61183+022617FM-12+005199999V0201801N003119999999N0000001N9-00391+99999097801ADDGF108991999999999999999999
0029029600999991901012713004+61183+022617FM-12+005199999V0201801N003119999999N0000001N9-00061+99999097361ADDGF108991999999999999999999
0035029600999991901012720004+61183+022617FM-12+005199999V0201401N006219999999N0000001N9-00281+99999097061ADDGF108991999999999999999999MW1721
0029029600999991901012806004+61183+022617FM-12+005199999V0200701N007219999999N0000001N9-00281+99999096781ADDGF108991999999999999999999
0035029600999991901012813004+61183+022617FM-12+005199999V0200501N007219999999N0000001N9-00331+99999096581ADDGF108991999999999999999999MW1721
0035029600999991901012820004+61183+022617FM-12+005199999V0200501N005119999999N0000001N9-00331+99999096461ADDGF108991999999999999999999MW1721
0035029600999991901012906004+61183+022617FM-12+005199999V0202701N004119999999N0000001N9-00441+99999096591ADDGF108991999999999999999999MW1721
0035029600999991901012913004+61183+022617FM-12+005199999V0202001N002119999999N0000001N9-00331+99999096881ADDGF108991999999999999999999MW1721
0035029600999991901012920004+61183+022617FM-12+005199999V0202301N004119999999N0000001N9-00391+99999097321ADDGF108991999999999999999999MW1721
0029029600999991901013006004+61183+022617FM-12+005199999V0202001N004119999999N0000001N9-00671+99999097991ADDGF108991999999999999999999
0029029600999991901013013004+61183+022617FM-12+005199999V0201401N001019999999N0000001N9-00831+99999098241ADDGF107991999999999999999999
0029029600999991901013020004+61183+022617FM-12+005199999V0201401N002119999999N0000001N9-00891+99999098391ADDGF102991999999999999999999
0035029600999991901013106004+61183+022617FM-12+005199999V0200501N006219999999N0000001N9-00501+99999098341ADDGF108991999999999999999999MW1721
0029029600999991901013113004+61183+022617FM-12+005199999V0200501N008219999999N0000001N9-00221+99999098021ADDGF108991999999999999999999
0029029600999991901013120004+61183+022617FM-12+005199999V0202501N007219999999N0000001N9-00671+99999098881ADDGF108991999999999999999999
0029029600999991901020106004+61183+022617FM-12+005199999V0200201N001019999999N0000001N9-00721+99999099591ADDGF108991999999999999999999
0029029600999991901020113004+61183+022617FM-12+005199999V0201401N004119999999N0000001N9-00441+99999099631ADDGF108991999999999999999999
0035029600999991901020120004+61183+022617FM-12+005199999V0201401N005119999999N0000001N9-00171+99999099461ADDGF108991999999999999999999MW1721
0035029600999991901020206004+61183+022617FM-12+005199999V0202501N005119999999N0000001N9-00331+99999099381ADDGF108991999999999999999999MW1721
0035029600999991901020213004+61183+022617FM-12+005199999V0202001N004119999999N0000001N9-00611+99999099791ADDGF108991999999999999999999MW1721
0029029600999991901020220004+61183+022617FM-12+005199999V0202001N004119999999N0000001N9-00611+99999100061ADDGF108991999999999999999999
0029029600999991901020306004+61183+022617FM-12+005199999V0201601N002119999999N0000001N9-00941+99999099751ADDGF107991999999999999999999
0029029600999991901020313004+61183+022617FM-12+005199999V0202301N002119999999N0000001N9-00611+99999099471ADDGF108991999999999999999999
0029029600999991901020320004+61183+022617FM-12+005199999V0202001N001019999999N0000001N9-00721+99999099351ADDGF108991999999999999999999
0029029600999991901020406004+61183+022617FM-12+005199999V0202301N003119999999N0000001N9-00441+99999099461ADDGF108991999999999999999999
0035029600999991901020413004+61183+022617FM-12+005199999V0202301N002119999999N0000001N9-00221+99999099761ADDGF108991999999999999999999MW1721
0029029600999991901020420004+61183+022617FM-12+005199999V0201601N003119999999N0000001N9-00501+99999999999ADDGF108991999999999999999999
0029029600999991901020506004+61183+022617FM-12+005199999V0201801N003119999999N0000001N9-00501+99999099951ADDGF108991999999999999999999
0035029600999991901020513004+61183+022617FM-12+005199999V0201401N003119999999N0000001N9-00221+99999099701ADDGF108991999999999999999999MW1721
0035029600999991901020520004+61183+022617FM-12+005199999V0200201N001019999999N0000001N9-00391+99999099661ADDGF108991999999999999999999MW1721
0029029600999991901020606004+61183+022617FM-12+005199999V0209991C000019999999N0000001N9-01501+99999099991ADDGF100991999999999999999999
0029029600999991901020613004+61183+022617FM-12+005199999V0202501N001019999999N0000001N9-00721+99999100081ADDGF108991999999999999999999
0029029600999991901020620004+61183+022617FM-12+005199999V0200201N001019999999N0000001N9-00721+99999100101ADDGF108991999999999999999999
0029029600999991901020706004+61183+022617FM-12+005199999V0202301N005119999999N0000001N9-00561+99999099661ADDGF108991999999999999999999
0029029600999991901020713004+61183+022617FM-12+005199999V0202301N003119999999N0000001N9-00441+99999999999ADDGF102991999999999999999999
0035029600999991901020720004+61183+022617FM-12+005199999V0201801N005119999999N0000001N9-00441+99999099621ADDGF108991999999999999999999MW1721
0029029600999991901020806004+61183+022617FM-12+005199999V0203201N008719999999N0000001N9-00501+99999099791ADDGF102991999999999999999999
0029029600999991901020813004+61183+022617FM-12+005199999V0202701N005119999999N0000001N9-00561+99999100681ADDGF101991999999999999999999
0029029600999991901020820004+61183+022617FM-12+005199999V0201601N003119999999N0000001N9-01331+99999100991ADDGF100991999999999999999999
0029029600999991901020906004+61183+022617FM-12+005199999V0202001N008219999999N0000001N9-00281+99999099751ADDGF108991999999999999999999
0035029600999991901020913004+61183+022617FM-12+005199999V0202501N009819999999N0000001N9-00061+99999098961ADDGF108991999999999999999999MW1721
0029029600999991901020920004+61183+022617FM-12+005199999V0202501N002119999999N0000001N9-01501+99999099321ADDGF100991999999999999999999
0029029600999991901021006004+61183+022617FM-12+005199999V0202301N001019999999N0000001N9-02281+99999099391ADDGF101991999999999999999999
0029029600999991901021013004+61183+022617FM-12+005199999V0203201N004119999999N0000001N9-01111+99999099151ADDGF104991999999999999999999
0029029600999991901021020004+61183+022617FM-12+005199999V0202701N004119999999N0000001N9-01721+99999099111ADDGF100991999999999999999999
0029029600999991901021106004+61183+022617FM-12+005199999V0203601N004119999999N0000001N9-01721+99999099341ADDGF107991999999999999999999
0029029600999991901021113004+61183+022617FM-12+005199999V0203201N003119999999N0000001N9-01671+99999099801ADDGF100991999999999999999999
0029029600999991901021120004+61183+022617FM-12+005199999V0202701N005119999999N0000001N9-01671+99999099921ADDGF108991999999999999999999
0029029600999991901021206004+61183+022617FM-12+005199999V0203201N003119999999N0000001N9-01941+99999100191ADDGF102991999999999999999999
0029029600999991901021213004+61183+022617FM-12+005199999V0203201N003119999999N0000001N9-01331+99999100581ADDGF108991999999999999999999
0029029600999991901021220004+61183+022617FM-12+005199999V0203401N003119999999N0000001N9-01831+99999101021ADDGF100991999999999999999999
0029029600999991901021306004+61183+022617FM-12+005199999V0202701N002119999999N0000001N9-02111+99999101351ADDGF101991999999999999999999
0029029600999991901021313004+61183+022617FM-12+005199999V0202701N004119999999N0000001N9-01331+99999101521ADDGF105991999999999999999999
0029029600999991901021320004+61183+022617FM-12+005199999V0200201N001019999999N0000001N9-02001+99999101701ADDGF100991999999999999999999
0029029600999991901021406004+61183+022617FM-12+005199999V0201101N001019999999N0000001N9-02221+99999102181ADDGF101991999999999999999999
0029029600999991901021413004+61183+022617FM-12+005199999V0203201N003119999999N0000001N9-01611+99999102501ADDGF102991999999999999999999
0029029600999991901021420004+61183+022617FM-12+005199999V0209991C000019999999N0000001N9-02221+99999102551ADDGF100991999999999999999999
0029029600999991901021506004+61183+022617FM-12+005199999V0209991C000019999999N0000001N9-02391+99999102231ADDGF102991999999999999999999
0029029600999991901021513004+61183+022617FM-12+005199999V0209991C000019999999N0000001N9-02061+99999101841ADDGF100991999999999999999999
0029029600999991901021520004+61183+022617FM-12+005199999V0201401N004119999999N0000001N9-02561+99999101391ADDGF100991999999999999999999
0029029600999991901021606004+61183+022617FM-12+005199999V0201601N006219999999N0000001N9-01281+99999100511ADDGF108991999999999999999999
0029029600999991901021613004+61183+022617FM-12+005199999V0201601N004119999999N0000001N9-00671+99999100501ADDGF108991999999999999999999
0029029600999991901021620004+61183+022617FM-12+005199999V0200701N004119999999N0000001N9-00941+99999100941ADDGF108991999999999999999999
0029029600999991901021706004+61183+022617FM-12+005199999V0200201N004119999999N0000001N9-00891+99999101341ADDGF108991999999999999999999
0029029600999991901021713004+61183+022617FM-12+005199999V0200201N006219999999N0000001N9-00941+99999101841ADDGF108991999999999999999999
0035029600999991901021720004+61183+022617FM-12+005199999V0200501N005119999999N0000001N9-01061+99999102281ADDGF108991999999999999999999MW1721
0029029600999991901021806004+61183+022617FM-12+005199999V0203601N001019999999N0000001N9-01721+99999102481ADDGF108991999999999999999999
0029029600999991901021813004+61183+022617FM-12+005199999V0203401N001019999999N0000001N9-01001+99999102581ADDGF108991999999999999999999
0029029600999991901021820004+61183+022617FM-12+005199999V0200901N001019999999N0000001N9-01171+99999102741ADDGF108991999999999999999999
0029029600999991901021906004+61183+022617FM-12+005199999V0201401N004119999999N0000001N9-01111+99999102741ADDGF108991999999999999999999
0029029600999991901021913004+61183+022617FM-12+005199999V02099999999999999999N0000001N9-01001+99999102701ADDGF108991999999999999999999
0029029600999991901021920004+61183+022617FM-12+005199999V0201601N002119999999N0000001N9-01111+99999102461ADDGF108991999999999999999999
0029029600999991901022006004+61183+022617FM-12+005199999V0201401N001019999999N0000001N9-01221+99999101961ADDGF108991999999999999999999
0035029600999991901022013004+61183+022617FM-12+005199999V0201401N002119999999N0000001N9-00781+99999101641ADDGF107991999999999999999999MW1721
0029029600999991901022020004+61183+022617FM-12+005199999V0201801N002119999999N0000001N9-00941+99999101481ADDGF108991999999999999999999
0029029600999991901022106004+61183+022617FM-12+005199999V0201801N004119999999N0000001N9-00891+99999101031ADDGF108991999999999999999999
0029029600999991901022113004+61183+022617FM-12+005199999V0201401N005119999999N0000001N9-00391+99999100721ADDGF108991999999999999999999
0029029600999991901022120004+61183+022617FM-12+005199999V0202301N006219999999N0000001N9-00561+99999100311ADDGF108991999999999999999999
0029029600999991901022206004+61183+022617FM-12+005199999V0203401N004119999999N0000001N9-01171+99999100301ADDGF106991999999999999999999
0029029600999991901022213004+61183+022617FM-12+005199999V0200201N003119999999N0000001N9-01061+99999100361ADDGF102991999999999999999999
0029029600999991901022220004+61183+022617FM-12+005199999V0202701N003119999999N0000001N9-01171+99999099671ADDGF108991999999999999999999
0035029600999991901022306004+61183+022617FM-12+005199999V0201401N002119999999N0000001N9-00441+99999098181ADDGF108991999999999999999999MW1721
0035029600999991901022313004+61183+022617FM-12+005199999V0201401N001019999999N0000001N9-00221+99999098031ADDGF108991999999999999999999MW1721
0035029600999991901022320004+61183+022617FM-12+005199999V0200201N007219999999N0000001N9-01171+99999097581ADDGF108991999999999999999999MW1721
0035029600999991901022406004+61183+022617FM-12+005199999V0203201N008719999999N0000001N9-01721+99999097511ADDGF108991999999999999999999MW1721
0035029600999991901022413004+61183+022617FM-12+005199999V0202701N010819999999N0000001N9-01501+99999097551ADDGF108991999999999999999999MW1721
0035029600999991901022420004+61183+022617FM-12+005199999V0202701N011819999999N0000001N9-01611+99999098041ADDGF108991999999999999999999MW1721
0029029600999991901022506004+61183+022617FM-12+005199999V0202501N001019999999N0000001N9-02221+99999098551ADDGF101991999999999999999999
0029029600999991901022513004+61183+022617FM-12+005199999V0202501N008219999999N0000001N9-00441+99999098361ADDGF105991999999999999999999
0035029600999991901022520004+61183+022617FM-12+005199999V0203201N011819999999N0000001N9-00611+99999098621ADDGF108991999999999999999999MW1721
0029029600999991901022606004+61183+022617FM-12+005199999V0203201N003119999999N0000001N9-01331+99999099881ADDGF100991999999999999999999
0029029600999991901022613004+61183+022617FM-12+005199999V0203201N001019999999N0000001N9-00781+99999100391ADDGF103991999999999999999999
0029029600999991901022620004+61183+022617FM-12+005199999V0201601N003119999999N0000001N9-01111+99999100221ADDGF108991999999999999999999
0035029600999991901022706004+61183+022617FM-12+005199999V0201401N004119999999N0000001N9-00441+99999099311ADDGF108991999999999999999999MW1721
0035029600999991901022713004+61183+022617FM-12+005199999V02099999999999999999N0000001N9-00171+99999098961ADDGF108991999999999999999999MW1721
0035029600999991901022720004+61183+022617FM-12+005199999V0201401N002119999999N0000001N9-00061+99999098621ADDGF108991999999999999999999MW1721
0029029600999991901022806004+61183+022617FM-12+005199999V0200201N002119999999N0000001N9-00441+99999098671ADDGF108991999999999999999999
0029029600999991901022813004+61183+022617FM-12+005199999V0200501N005119999999N0000001N9-00561+99999099221ADDGF108991999999999999999999
0029029600999991901022820004+61183+022617FM-12+005199999V0200501N004119999999N0000001N9-00891+99999099781ADDGF108991999999999999999999
0029029600999991901030106004+61183+022617FM-12+005199999V0200201N003119999999N0000001N9-01891+99999100521ADDGF100991999999999999999999
0029029600999991901030113004+61183+022617FM-12+005199999V0200501N004119999999N0000001N9-00891+99999100841ADDGF100991999999999999999999
0029029600999991901030120004+61183+022617FM-12+005199999V0200201N001019999999N0000001N9-01671+99999101141ADDGF100991999999999999999999
0029029600999991901030206004+61183+022617FM-12+005199999V0200201N001019999999N0000001N9-02721+99999101341ADDGF100991999999999999999999
0029029600999991901030213004+61183+022617FM-12+005199999V0203401N002119999999N0000001N9-01061+99999101351ADDGF100991999999999999999999
0029029600999991901030220004+61183+022617FM-12+005199999V0209991C000019999999N0000001N9-02221+99999101361ADDGF100991999999999999999999
0029029600999991901030306004+61183+022617FM-12+005199999V0200201N001019999999N0000001N9-02061+99999101181ADDGF103991999999999999999999
0035029600999991901030313004+61183+022617FM-12+005199999V0200701N005119999999N0000001N9-00831+99999100981ADDGF108991999999999999999999MW1721
0029029600999991901030320004+61183+022617FM-12+005199999V0200901N003119999999N0000001N9-00721+99999100951ADDGF108991999999999999999999
0035029600999991901030406004+61183+022617FM-12+005199999V0200901N003119999999N0000001N9-00611+99999101121ADDGF108991999999999999999999MW1721
0029029600999991901030413004+61183+022617FM-12+005199999V0200901N007219999999N0000001N9-00061+99999101221ADDGF108991999999999999999999
0029029600999991901030420004+61183+022617FM-12+005199999V0201401N004119999999N0000001N9-00331+99999101281ADDGF108991999999999999999999
0035029600999991901030506004+61183+022617FM-12+005199999V0201401N004119999999N0000001N9-00331+99999101081ADDGF108991999999999999999999MW1721
0035029600999991901030513004+61183+022617FM-12+005199999V0201601N008219999999N0000001N9+00001+99999100921ADDGF108991999999999999999999MW1721
0029029600999991901030520004+61183+022617FM-12+005199999V0201801N007219999999N0000001N9-00061+99999100661ADDGF108991999999999999999999
0029029600999991901030606004+61183+022617FM-12+005199999V0201401N005119999999N0000001N9+00061+99999100201ADDGF108991999999999999999999
0029029600999991901030613004+61183+022617FM-12+005199999V0201601N008219999999N0000001N9+00111+99999099911ADDGF108991999999999999999999
0029029600999991901030620004+61183+022617FM-12+005199999V0201401N007219999999N0000001N9-00111+99999099661ADDGF108991999999999999999999
0029029600999991901030706004+61183+022617FM-12+005199999V0200901N006219999999N0000001N9-00061+99999099901ADDGF108991999999999999999999
0029029600999991901030713004+61183+022617FM-12+005199999V0201401N003119999999N0000001N9+00221+99999100271ADDGF108991999999999999999999
0029029600999991901030720004+61183+022617FM-12+005199999V0201401N004119999999N0000001N9-00111+99999100591ADDGF108991999999999999999999
0029029600999991901030806004+61183+022617FM-12+005199999V0200501N002119999999N0000001N9-00441+99999100951ADDGF108991999999999999999999
0029029600999991901030813004+61183+022617FM-12+005199999V0200701N005119999999N0000001N9-00331+99999101261ADDGF102991999999999999999999
0029029600999991901030820004+61183+022617FM-12+005199999V0201101N001019999999N0000001N9-01331+99999101581ADDGF100991999999999999999999
0029029600999991901030906004+61183+022617FM-12+005199999V0201601N004119999999N0000001N9-00721+99999101421ADDGF108991999999999999999999
0029029600999991901030913004+61183+022617FM-12+005199999V0201801N006219999999N0000001N9-00171+99999101111ADDGF108991999999999999999999
0029029600999991901030920004+61183+022617FM-12+005199999V0202001N007219999999N0000001N9-00171+99999100511ADDGF108991999999999999999999
0029029600999991901031006004+61183+022617FM-12+005199999V0202301N006219999999N0000001N9+00001+99999099781ADDGF106991999999999999999999
0029029600999991901031013004+61183+022617FM-12+005199999V0202501N006219999999N0000001N9+00391+99999099841ADDGF104991999999999999999999
0029029600999991901031020004+61183+022617FM-12+005199999V0202501N007219999999N0000001N9-00061+99999100201ADDGF100991999999999999999999
0029029600999991901031106004+61183+022617FM-12+005199999V0202001N006219999999N0000001N9+00001+99999099881ADDGF108991999999999999999999
0029029600999991901031113004+61183+022617FM-12+005199999V0202001N006219999999N0000001N9+00111+99999099391ADDGF108991999999999999999999
0029029600999991901031120004+61183+022617FM-12+005199999V0202301N008719999999N0000001N9+00281+99999099271ADDGF100991999999999999999999
0029029600999991901031206004+61183+022617FM-12+005199999V0203201N004119999999N0000001N9-00501+99999100201ADDGF100991999999999999999999
0029029600999991901031213004+61183+022617FM-12+005199999V0202701N009819999999N0000001N9+00171+99999100231ADDGF100991999999999999999999
0029029600999991901031220004+61183+022617FM-12+005199999V0202701N004119999999N0000001N9-00391+99999100631ADDGF100991999999999999999999
0029029600999991901031306004+61183+022617FM-12+005199999V0201601N004119999999N0000001N9-01111+99999101191ADDGF102991999999999999999999
0029029600999991901031313004+61183+022617FM-12+005199999V0202301N007219999999N0000001N9+00391+99999100841ADDGF100991999999999999999999
0029029600999991901031320004+61183+022617FM-12+005199999V0202301N008219999999N0000001N9+00061+99999101021ADDGF100991999999999999999999
0029029600999991901031406004+61183+022617FM-12+005199999V0209991C000019999999N0000001N9-01061+99999102101ADDGF107991999999999999999999
0029029600999991901031413004+61183+022617FM-12+005199999V0200201N001019999999N0000001N9+00281+99999102501ADDGF100991999999999999999999
0029029600999991901031420004+61183+022617FM-12+005199999V0200901N001019999999N0000001N9-00721+99999102701ADDGF100991999999999999999999
0029029600999991901031506004+61183+022617FM-12+005199999V0201401N001019999999N0000001N9-01111+99999102761ADDGF100991999999999999999999
0029029600999991901031513004+61183+022617FM-12+005199999V0201801N005119999999N0000001N9+00171+99999102601ADDGF100991999999999999999999
0029029600999991901031520004+61183+022617FM-12+005199999V0201401N002119999999N0000001N9-00561+99999102271ADDGF100991999999999999999999
0029029600999991901031606004+61183+022617FM-12+005199999V0201401N004119999999N0000001N9-00781+99999101561ADDGF100991999999999999999999
0029029600999991901031613004+61183+022617FM-12+005199999V0201801N003119999999N0000001N9+00171+99999101061ADDGF108991999999999999999999
0035029600999991901031620004+61183+022617FM-12+005199999V0201801N004119999999N0000001N9-00111+99999100501ADDGF108991999999999999999999MW1721
0029029600999991901031706004+61183+022617FM-12+005199999V0201801N003119999999N0000001N9+00001+99999099841ADDGF108991999999999999999999
0029029600999991901031713004+61183+022617FM-12+005199999V0201801N001019999999N0000001N9+00221+99999099721ADDGF108991999999999999999999
0035029600999991901031720004+61183+022617FM-12+005199999V0200201N003119999999N0000001N9+00061+99999099741ADDGF108991999999999999999999MW1721
0029029600999991901031806004+61183+022617FM-12+005199999V0203201N002119999999N0000001N9-00941+99999100081ADDGF104991999999999999999999
0029029600999991901031813004+61183+022617FM-12+005199999V0203201N003119999999N0000001N9+00001+99999100261ADDGF101991999999999999999999
0029029600999991901031820004+61183+022617FM-12+005199999V0203201N001019999999N0000001N9-00891+99999100461ADDGF100991999999999999999999
0029029600999991901031906004+61183+022617FM-12+005199999V0209991C000019999999N0000001N9-01831+99999100541ADDGF100991999999999999999999
0029029600999991901031913004+61183+022617FM-12+005199999V0209991C000019999999N0000001N9-00221+99999100401ADDGF100991999999999999999999
0029029600999991901031920004+61183+022617FM-12+005199999V0202301N004119999999N0000001N9-00721+99999100191ADDGF108991999999999999999999
0029029600999991901032006004+61183+022617FM-12+005199999V0203201N005119999999N0000001N9-00441+99999100261ADDGF104991999999999999999999
0029029600999991901032013004+61183+022617FM-12+005199999V0203201N006219999999N0000001N9-00171+99999100601ADDGF106991999999999999999999
0029029600999991901032020004+61183+022617FM-12+005199999V0202701N003119999999N0000001N9-00671+99999100951ADDGF100991999999999999999999
0029029600999991901032106004+61183+022617FM-12+005199999V0203601N003119999999N0000001N9-01331+99999101261ADDGF100991999999999999999999
0029029600999991901032113004+61183+022617FM-12+005199999V0203601N004119999999N0000001N9-00331+99999101351ADDGF100991999999999999999999
0029029600999991901032120004+61183+022617FM-12+005199999V0200701N001019999999N0000001N9-01221+99999101401ADDGF100991999999999999999999
0029029600999991901032206004+61183+022617FM-12+005199999V0200701N001019999999N0000001N9-01561+99999101551ADDGF100991999999999999999999
0029029600999991901032213004+61183+022617FM-12+005199999V0202001N003119999999N0000001N9+00221+99999101671ADDGF100991999999999999999999
0029029600999991901032220004+61183+022617FM-12+005199999V0209991C000019999999N0000001N9-00721+99999101711ADDGF100991999999999999999999
0029029600999991901032306004+61183+022617FM-12+005199999V0209991C000019999999N0000001N9-01281+99999101501ADDGF102991999999999999999999
0029029600999991901032313004+61183+022617FM-12+005199999V0202301N007219999999N0000001N9+00331+99999101391ADDGF100991999999999999999999
0029029600999991901032320004+61183+022617FM-12+005199999V0201801N003119999999N0000001N9+00061+99999101191ADDGF108991999999999999999999
0029029600999991901032406004+61183+022617FM-12+005199999V0201801N004119999999N0000001N9-00221+99999100231ADDGF106991999999999999999999
0029029600999991901032413004+61183+022617FM-12+005199999V0201801N006219999999N0000001N9+00281+99999099401ADDGF108991999999999999999999
0035029600999991901032420004+61183+022617FM-12+005199999V0203201N005119999999N0000001N9-00391+99999099271ADDGF108991999999999999999999MW1721
0029029600999991901032506004+61183+022617FM-12+005199999V0203601N008719999999N0000001N9-01001+99999099431ADDGF108991999999999999999999
0029029600999991901032513004+61183+022617FM-12+005199999V0203401N006219999999N0000001N9-00891+99999099481ADDGF103991999999999999999999
0029029600999991901032520004+61183+022617FM-12+005199999V0200901N002119999999N0000001N9-01611+99999099631ADDGF100991999999999999999999
0029029600999991901032606004+61183+022617FM-12+005199999V0201801N006219999999N0000001N9-01331+99999099321ADDGF106991999999999999999999
0029029600999991901032613004+61183+022617FM-12+005199999V0202301N008719999999N0000001N9-00671+99999099441ADDGF105991999999999999999999
0029029600999991901032620004+61183+022617FM-12+005199999V0201801N005119999999N0000001N9-01221+99999099751ADDGF106991999999999999999999
0029029600999991901032706004+61183+022617FM-12+005199999V0202301N005119999999N0000001N9-01391+99999100281ADDGF100991999999999999999999
0029029600999991901032713004+61183+022617FM-12+005199999V0202001N006219999999N0000001N9-00671+99999100621ADDGF102991999999999999999999
0029029600999991901032720004+61183+022617FM-12+005199999V0202001N001019999999N0000001N9-01671+99999100871ADDGF100991999999999999999999
0029029600999991901032806004+61183+022617FM-12+005199999V0200501N003119999999N0000001N9-01061+99999100821ADDGF106991999999999999999999
0029029600999991901032813004+61183+022617FM-12+005199999V0200901N004119999999N0000001N9-00281+99999100751ADDGF103991999999999999999999
0029029600999991901032820004+61183+022617FM-12+005199999V0200701N001019999999N0000001N9-01221+99999100751ADDGF100991999999999999999999
0029029600999991901032906004+61183+022617FM-12+005199999V0209991C000019999999N0000001N9-02501+99999100861ADDGF100991999999999999999999
0029029600999991901032913004+61183+022617FM-12+005199999V0209991C000019999999N0000001N9-00281+99999100921ADDGF100991999999999999999999
0029029600999991901032920004+61183+022617FM-12+005199999V0201401N001019999999N0000001N9-01501+99999101161ADDGF100991999999999999999999
0029029600999991901033006004+61183+022617FM-12+005199999V0200701N001019999999N0000001N9-01941+99999101271ADDGF103991999999999999999999
0029029600999991901033013004+61183+022617FM-12+005199999V0200501N006219999999N0000001N9-00331+99999101191ADDGF107991999999999999999999
0029029600999991901033020004+61183+022617FM-12+005199999V0203601N001019999999N0000001N9-00941+99999101221ADDGF106991999999999999999999
0029029600999991901033106004+61183+022617FM-12+005199999V0209991C000019999999N0000001N9-01781+99999101341ADDGF100991999999999999999999
0029029600999991901033113004+61183+022617FM-12+005199999V0201601N008219999999N0000001N9-00171+99999101241ADDGF108991999999999999999999
0035029600999991901033120004+61183+022617FM-12+005199999V0201401N005119999999N0000001N9-00331+99999100631ADDGF108991999999999999999999MW1721
0029029600999991901040106004+61183+022617FM-12+005199999V0201401N009819999999N0000001N9+00111+99999099921ADDGF108991999999999999999999
0035029600999991901040113004+61183+022617FM-12+005199999V0201801N008219999999N0000001N9+00281+99999099621ADDGF108991999999999999999999MW1721
0035029600999991901040120004+61183+022617FM-12+005199999V0201801N007219999999N0000001N9+00221+99999099551ADDGF108991999999999999999999MW1721
0029029600999991901040206004+61183+022617FM-12+005199999V0202001N005119999999N0000001N9+00171+99999099961ADDGF108991999999999999999999
0029029600999991901040213004+61183+022617FM-12+005199999V0202301N006219999999N0000001N9+00441+99999100271ADDGF106991999999999999999999
0029029600999991901040220004+61183+022617FM-12+005199999V0201801N004119999999N0000001N9+00171+99999100581ADDGF108991999999999999999999
0029029600999991901040306004+61183+022617FM-12+005199999V0202301N002119999999N0000001N9+00001+99999101301ADDGF108991999999999999999999
0029029600999991901040313004+61183+022617FM-12+005199999V0202001N003119999999N0000001N9+00721+99999101541ADDGF103991999999999999999999
0029029600999991901040320004+61183+022617FM-12+005199999V0201801N007219999999N0000001N9+00111+99999101101ADDGF108991999999999999999999
0035029600999991901040406004+61183+022617FM-12+005199999V0202001N008219999999N0000001N9+00221+99999099441ADDGF108991999999999999999999MW1621
0035029600999991901040413004+61183+022617FM-12+005199999V0201601N007219999999N0000001N9+00391+99999098951ADDGF108991999999999999999999MW1621
0035029600999991901040420004+61183+022617FM-12+005199999V0201601N009819999999N0000001N9+00331+99999097321ADDGF108991999999999999999999MW1621
0029029600999991901040506004+61183+022617FM-12+005199999V0202001N003119999999N0000001N9+00111+99999097591ADDGF108991999999999999999999
0035029600999991901040513004+61183+022617FM-12+005199999V0201801N003119999999N0000001N9+00061+99999097921ADDGF108991999999999999999999MW1721
0029029600999991901040520004+61183+022617FM-12+005199999V0202501N006219999999N0000001N9+00111+99999098401ADDGF107991999999999999999999
0029029600999991901040606004+61183+022617FM-12+005199999V0202701N007219999999N0000001N9-00171+99999099081ADDGF100991999999999999999999
0029029600999991901040613004+61183+022617FM-12+005199999V0202301N002119999999N0000001N9+00331+99999099191ADDGF105991999999999999999999
0029029600999991901040620004+61183+022617FM-12+005199999V0202701N004119999999N0000001N9-00281+99999099431ADDGF100991999999999999999999
0029029600999991901040706004+61183+022617FM-12+005199999V0202301N001019999999N0000001N9-00221+99999099511ADDGF108991999999999999999999
0029029600999991901040713004+61183+022617FM-12+005199999V0202701N008219999999N0000001N9+00441+99999099841ADDGF107991999999999999999999
0029029600999991901040720004+61183+022617FM-12+005199999V0203601N004119999999N0000001N9-00111+99999100361ADDGF100991999999999999999999
0029029600999991901040806004+61183+022617FM-12+005199999V0201801N001019999999N0000001N9-00391+99999100901ADDGF100991999999999999999999
0029029600999991901040813004+61183+022617FM-12+005199999V0202001N004119999999N0000001N9+00611+99999100961ADDGF100991999999999999999999
0029029600999991901040820004+61183+022617FM-12+005199999V0201801N003119999999N0000001N9+00001+99999100741ADDGF102991999999999999999999
0035029600999991901040906004+61183+022617FM-12+005199999V0201801N006219999999N0000001N9+00111+99999100021ADDGF108991999999999999999999MW1721
0029029600999991901040913004+61183+022617FM-12+005199999V0201801N007219999999N0000001N9+00331+99999099871ADDGF108991999999999999999999
0035029600999991901040920004+61183+022617FM-12+005199999V0201401N004119999999N0000001N9+00171+99999099221ADDGF108991999999999999999999MW1721
0035029600999991901041006004+61183+022617FM-12+005199999V0202001N004119999999N0000001N9+00171+99999098561ADDGF108991999999999999999999MW1621
0029029600999991901041013004+61183+022617FM-12+005199999V0202501N006219999999N0000001N9+00391+99999098981ADDGF108991999999999999999999
0029029600999991901041020004+61183+022617FM-12+005199999V0202001N002119999999N0000001N9+00171+99999099281ADDGF100991999999999999999999
0029029600999991901041106004+61183+022617FM-12+005199999V0201601N004119999999N0000001N9+00061+99999099181ADDGF108991999999999999999999
0029029600999991901041113004+61183+022617FM-12+005199999V0201801N001019999999N0000001N9+00561+99999099201ADDGF108991999999999999999999
0029029600999991901041120004+61183+022617FM-12+005199999V0201801N003119999999N0000001N9+00061+99999099461ADDGF108991999999999999999999
0029029600999991901041206004+61183+022617FM-12+005199999V0201801N002119999999N0000001N9+00061+99999099711ADDGF108991999999999999999999
0029029600999991901041213004+61183+022617FM-12+005199999V0200201N002119999999N0000001N9+00281+99999100081ADDGF108991999999999999999999
0029029600999991901041220004+61183+022617FM-12+005199999V0203601N002119999999N0000001N9+00001+99999100341ADDGF108991999999999999999999
0029029600999991901041306004+61183+022617FM-12+005199999V0200201N004119999999N0000001N9-00061+99999100561ADDGF108991999999999999999999
0029029600999991901041313004+61183+022617FM-12+005199999V0200701N005119999999N0000001N9+00441+99999100521ADDGF105991999999999999999999
0029029600999991901041320004+61183+022617FM-12+005199999V0200501N003119999999N0000001N9+00111+99999100501ADDGF100991999999999999999999
0029029600999991901041406004+61183+022617FM-12+005199999V0200501N005119999999N0000001N9+00001+99999100221ADDGF102991999999999999999999
0029029600999991901041413004+61183+022617FM-12+005199999V0200501N008719999999N0000001N9+00221+99999099801ADDGF103991999999999999999999
0029029600999991901041420004+61183+022617FM-12+005199999V0200501N008219999999N0000001N9-00061+99999099561ADDGF103991999999999999999999
0035029600999991901041506004+61183+022617FM-12+005199999V0200501N005119999999N0000001N9-00331+99999099341ADDGF108991999999999999999999MW1721
0029029600999991901041513004+61183+022617FM-12+005199999V0200201N006219999999N0000001N9-00061+99999099271ADDGF108991999999999999999999
0029029600999991901041520004+61183+022617FM-12+005199999V0200201N003119999999N0000001N9-00281+99999099341ADDGF108991999999999999999999
0029029600999991901041606004+61183+022617FM-12+005199999V0200901N003119999999N0000001N9-00281+99999099601ADDGF108991999999999999999999
0035029600999991901041613004+61183+022617FM-12+005199999V0201801N003119999999N0000001N9+00221+99999099791ADDGF108991999999999999999999MW1721
0029029600999991901041620004+61183+022617FM-12+005199999V0200901N003119999999N0000001N9-00111+99999100141ADDGF106991999999999999999999
0029029600999991901041706004+61183+022617FM-12+005199999V0200501N005119999999N0000001N9+00111+99999100081ADDGF108991999999999999999999
0035029600999991901041713004+61183+022617FM-12+005199999V0200901N004119999999N0000001N9+00391+99999099861ADDGF108991999999999999999999MW1721
0029029600999991901041720004+61183+022617FM-12+005199999V0201801N006219999999N0000001N9+00111+99999100021ADDGF108991999999999999999999
0029029600999991901041806004+61183+022617FM-12+005199999V0202701N005119999999N0000001N9-00061+99999100391ADDGF108991999999999999999999
0029029600999991901041813004+61183+022617FM-12+005199999V0202701N005119999999N0000001N9+00171+99999100511ADDGF108991999999999999999999
0029029600999991901041820004+61183+022617FM-12+005199999V0202701N004119999999N0000001N9-00111+99999100551ADDGF102991999999999999999999
0029029600999991901041906004+61183+022617FM-12+005199999V0202501N005119999999N0000001N9+00001+99999100831ADDGF102991999999999999999999
0029029600999991901041913004+61183+022617FM-12+005199999V0202501N007219999999N0000001N9+00391+99999101281ADDGF108991999999999999999999
0029029600999991901041920004+61183+022617FM-12+005199999V0202001N001019999999N0000001N9+00001+99999101381ADDGF108991999999999999999999
0029029600999991901042006004+61183+022617FM-12+005199999V0202001N001019999999N0000001N9+00171+99999101351ADDGF101991999999999999999999
0029029600999991901042013004+61183+022617FM-12+005199999V0203201N004119999999N0000001N9+00561+99999101421ADDGF105991999999999999999999
0029029600999991901042020004+61183+022617FM-12+005199999V0202701N004119999999N0000001N9+00061+99999101481ADDGF108991999999999999999999
0029029600999991901042106004+61183+022617FM-12+005199999V0200501N003119999999N0000001N9+00221+99999101671ADDGF104991999999999999999999
0029029600999991901042113004+61183+022617FM-12+005199999V0200201N003119999999N0000001N9+00781+99999101711ADDGF108991999999999999999999
0029029600999991901042120004+61183+022617FM-12+005199999V0202301N002119999999N0000001N9+00281+99999101711ADDGF108991999999999999999999
0029029600999991901042206004+61183+022617FM-12+005199999V0202701N002119999999N0000001N9+00281+99999101821ADDGF101991999999999999999999
0029029600999991901042213004+61183+022617FM-12+005199999V0202501N004119999999N0000001N9+00721+99999101961ADDGF102991999999999999999999
0029029600999991901042220004+61183+022617FM-12+005199999V0202001N002119999999N0000001N9+00281+99999102041ADDGF108991999999999999999999
0029029600999991901042306004+61183+022617FM-12+005199999V0201801N003119999999N0000001N9+00221+99999102041ADDGF103991999999999999999999
0029029600999991901042313004+61183+022617FM-12+005199999V0201801N003119999999N0000001N9+01171+99999102001ADDGF101991999999999999999999
0029029600999991901042320004+61183+022617FM-12+005199999V0203201N002119999999N0000001N9+00561+99999102181ADDGF102991999999999999999999
0029029600999991901042406004+61183+022617FM-12+005199999V0200701N005119999999N0000001N9+00281+99999102631ADDGF100991999999999999999999
0029029600999991901042413004+61183+022617FM-12+005199999V0200701N005119999999N0000001N9+00831+99999102721ADDGF100991999999999999999999
0029029600999991901042420004+61183+022617FM-12+005199999V0203601N002119999999N0000001N9+00281+99999102761ADDGF100991999999999999999999
0029029600999991901042506004+61183+022617FM-12+005199999V0200701N001019999999N0000001N9+00281+99999102761ADDGF100991999999999999999999
0029029600999991901042513004+61183+022617FM-12+005199999V0200501N007219999999N0000001N9+01001+99999102431ADDGF100991999999999999999999
0029029600999991901042520004+61183+022617FM-12+005199999V0200701N003119999999N0000001N9+00561+99999102401ADDGF100991999999999999999999
0029029600999991901042606004+61183+022617FM-12+005199999V0200201N002119999999N0000001N9+00331+99999102561ADDGF101991999999999999999999
0029029600999991901042613004+61183+022617FM-12+005199999V0200901N007219999999N0000001N9+01281+99999102581ADDGF100991999999999999999999
0029029600999991901042620004+61183+022617FM-12+005199999V0200701N003119999999N0000001N9+00611+99999102591ADDGF100991999999999999999999
0029029600999991901042706004+61183+022617FM-12+005199999V0200701N008719999999N0000001N9+00671+99999102781ADDGF100991999999999999999999
0029029600999991901042713004+61183+022617FM-12+005199999V0200501N003119999999N0000001N9+01391+99999102711ADDGF100991999999999999999999
0029029600999991901042720004+61183+022617FM-12+005199999V0200901N001019999999N0000001N9+00501+99999102591ADDGF100991999999999999999999
0029029600999991901042806004+61183+022617FM-12+005199999V0201401N001019999999N0000001N9+00941+99999102641ADDGF100991999999999999999999
0029029600999991901042813004+61183+022617FM-12+005199999V0201401N002119999999N0000001N9+01671+99999102431ADDGF100991999999999999999999
0029029600999991901042820004+61183+022617FM-12+005199999V0202701N002119999999N0000001N9+00721+99999102221ADDGF100991999999999999999999
0029029600999991901042906004+61183+022617FM-12+005199999V0201401N001019999999N0000001N9+00671+99999102141ADDGF100991999999999999999999
0029029600999991901042913004+61183+022617FM-12+005199999V0202701N002119999999N0000001N9+01781+99999101941ADDGF100991999999999999999999
0029029600999991901042920004+61183+022617FM-12+005199999V0203401N001019999999N0000001N9+00941+99999101881ADDGF100991999999999999999999
0029029600999991901043006004+61183+022617FM-12+005199999V0203601N001019999999N0000001N9+00781+99999102041ADDGF100991999999999999999999
0029029600999991901043013004+61183+022617FM-12+005199999V0200501N004119999999N0000001N9+01721+99999102111ADDGF100991999999999999999999
0029029600999991901043020004+61183+022617FM-12+005199999V0201401N002119999999N0000001N9+00941+99999102181ADDGF100991999999999999999999
0029029600999991901050106004+61183+022617FM-12+005199999V0201401N002119999999N0000001N9+00831+99999102351ADDGF100991999999999999999999
0029029600999991901050113004+61183+022617FM-12+005199999V0200501N003119999999N0000001N9+01611+99999102191ADDGF100991999999999999999999
0029029600999991901050120004+61183+022617FM-12+005199999V0202701N002119999999N0000001N9+00831+99999102141ADDGF100991999999999999999999
0029029600999991901050206004+61183+022617FM-12+005199999V0201401N002119999999N0000001N9+00781+99999102111ADDGF100991999999999999999999
0029029600999991901050213004+61183+022617FM-12+005199999V0202301N002119999999N0000001N9+01721+99999101921ADDGF101991999999999999999999
0029029600999991901050220004+61183+022617FM-12+005199999V0202701N002119999999N0000001N9+00781+99999101751ADDGF100991999999999999999999
0029029600999991901050306004+61183+022617FM-12+005199999V0202701N005119999999N0000001N9+00671+99999101231ADDGF105991999999999999999999
0029029600999991901050313004+61183+022617FM-12+005199999V0202701N008719999999N0000001N9+01281+99999100881ADDGF103991999999999999999999
0029029600999991901050320004+61183+022617FM-12+005199999V0202701N005119999999N0000001N9+00501+99999100671ADDGF105991999999999999999999
0029029600999991901050406004+61183+022617FM-12+005199999V0200201N008219999999N0000001N9+00391+99999100541ADDGF108991999999999999999999
0029029600999991901050413004+61183+022617FM-12+005199999V0203601N009819999999N0000001N9+00331+99999100711ADDGF107991999999999999999999
0029029600999991901050420004+61183+022617FM-12+005199999V0200201N006219999999N0000001N9-00061+99999100781ADDGF102991999999999999999999
0029029600999991901050506004+61183+022617FM-12+005199999V0203201N008219999999N0000001N9-00171+99999100551ADDGF108991999999999999999999
0029029600999991901050513004+61183+022617FM-12+005199999V0203601N008719999999N0000001N9-00061+99999100341ADDGF108991999999999999999999
0029029600999991901050520004+61183+022617FM-12+005199999V0203601N003119999999N0000001N9-00221+99999100141ADDGF102991999999999999999999
0029029600999991901050606004+61183+022617FM-12+005199999V0203201N006219999999N0000001N9-00061+99999099881ADDGF102991999999999999999999
0029029600999991901050613004+61183+022617FM-12+005199999V0200201N008219999999N0000001N9+00111+99999099781ADDGF106991999999999999999999
0029029600999991901050620004+61183+022617FM-12+005199999V0203601N004119999999N0000001N9-00171+99999099801ADDGF108991999999999999999999
0029029600999991901050706004+61183+022617FM-12+005199999V0203201N005119999999N0000001N9-00111+99999100101ADDGF108991999999999999999999
0029029600999991901050713004+61183+022617FM-12+005199999V0203401N007219999999N0000001N9+00221+99999100471ADDGF108991999999999999999999
0029029600999991901050720004+61183+022617FM-12+005199999V0202701N004119999999N0000001N9-00171+99999100761ADDGF102991999999999999999999
0029029600999991901050806004+61183+022617FM-12+005199999V0200501N003119999999N0000001N9+00331+99999101781ADDGF100991999999999999999999
0029029600999991901050813004+61183+022617FM-12+005199999V0200901N004119999999N0000001N9+00831+99999102031ADDGF100991999999999999999999
0029029600999991901050820004+61183+022617FM-12+005199999V0200901N004119999999N0000001N9+00501+99999102241ADDGF100991999999999999999999
0029029600999991901050906004+61183+022617FM-12+005199999V0200901N002119999999N0000001N9+00561+99999102561ADDGF102991999999999999999999
0029029600999991901050913004+61183+022617FM-12+005199999V0200901N007219999999N0000001N9+01391+99999102441ADDGF106991999999999999999999
0029029600999991901050920004+61183+022617FM-12+005199999V0200901N004119999999N0000001N9+01001+99999102581ADDGF107991999999999999999999
0029029600999991901051006004+61183+022617FM-12+005199999V0200901N005119999999N0000001N9+00941+99999102591ADDGF105991999999999999999999
0029029600999991901051013004+61183+022617FM-12+005199999V0201401N005119999999N0000001N9+01891+99999102541ADDGF106991999999999999999999
0029029600999991901051020004+61183+022617FM-12+005199999V0200901N006219999999N0000001N9+01281+99999102631ADDGF107991999999999999999999
0029029600999991901051106004+61183+022617FM-12+005199999V0201401N004119999999N0000001N9+01501+99999102711ADDGF104991999999999999999999
0029029600999991901051113004+61183+022617FM-12+005199999V0201601N003119999999N0000001N9+02281+99999102761ADDGF108991999999999999999999
0029029600999991901051120004+61183+022617FM-12+005199999V0201601N002119999999N0000001N9+01331+99999102911ADDGF107991999999999999999999
0029029600999991901051206004+61183+022617FM-12+005199999V0201401N002119999999N0000001N9+01671+99999103121ADDGF101991999999999999999999
0029029600999991901051213004+61183+022617FM-12+005199999V0200701N006219999999N0000001N9+02171+99999102941ADDGF108991999999999999999999
0029029600999991901051220004+61183+022617FM-12+005199999V0202501N003119999999N0000001N9+01611+99999102831ADDGF106991999999999999999999
0029029600999991901051306004+61183+022617FM-12+005199999V0202301N001019999999N0000001N9+01441+99999102751ADDGF100991999999999999999999
0029029600999991901051313004+61183+022617FM-12+005199999V0202001N001019999999N0000001N9+02281+99999102541ADDGF105991999999999999999999
0029029600999991901051320004+61183+022617FM-12+005199999V0203201N002119999999N0000001N9+01331+99999102441ADDGF104991999999999999999999
0029029600999991901051406004+61183+022617FM-12+005199999V0200701N002119999999N0000001N9+01671+99999102421ADDGF102991999999999999999999
0029029600999991901051413004+61183+022617FM-12+005199999V0202301N002119999999N0000001N9+02391+99999102121ADDGF103991999999999999999999
0029029600999991901051420004+61183+022617FM-12+005199999V0202701N003119999999N0000001N9+01611+99999101861ADDGF107991999999999999999999
0029029600999991901051506004+61183+022617FM-12+005199999V0203601N001019999999N0000001N9+01331+99999101501ADDGF105991999999999999999999
0029029600999991901051513004+61183+022617FM-12+005199999V0203201N009819999999N0000001N9+01721+99999101181ADDGF108991999999999999999999
0029029600999991901051520004+61183+022617FM-12+005199999V0203201N003119999999N0000001N9+01331+99999101021ADDGF107991999999999999999999
0029029600999991901051606004+61183+022617FM-12+005199999V0203601N004119999999N0000001N9+01001+99999100701ADDGF102991999999999999999999
0029029600999991901051613004+61183+022617FM-12+005199999V0202701N008719999999N0000001N9+01281+99999100261ADDGF104991999999999999999999
0029029600999991901051620004+61183+022617FM-12+005199999V0202701N002119999999N0000001N9+00441+99999099801ADDGF106991999999999999999999
0035029600999991901051706004+61183+022617FM-12+005199999V0202301N004119999999N0000001N9+00721+99999098871ADDGF108991999999999999999999MW1621
0029029600999991901051713004+61183+022617FM-12+005199999V0202301N006219999999N0000001N9+00611+99999099241ADDGF108991999999999999999999
0029029600999991901051720004+61183+022617FM-12+005199999V0202001N004119999999N0000001N9+00331+99999099461ADDGF106991999999999999999999
0035029600999991901051806004+61183+022617FM-12+005199999V0200901N005119999999N0000001N9+00331+99999099301ADDGF108991999999999999999999MW1721
0029029600999991901051813004+61183+022617FM-12+005199999V0202501N007219999999N0000001N9+00671+99999099501ADDGF108991999999999999999999
0029029600999991901051820004+61183+022617FM-12+005199999V0202501N006219999999N0000001N9+00221+99999100041ADDGF108991999999999999999999
0029029600999991901051906004+61183+022617FM-12+005199999V0202001N004119999999N0000001N9+00611+99999100111ADDGF106991999999999999999999
0029029600999991901051913004+61183+022617FM-12+005199999V0202501N006219999999N0000001N9+01001+99999100301ADDGF108991999999999999999999
0029029600999991901051920004+61183+022617FM-12+005199999V0202701N003119999999N0000001N9+00061+99999100881ADDGF100991999999999999999999
0029029600999991901052006004+61183+022617FM-12+005199999V0203201N004119999999N0000001N9+00611+99999101351ADDGF100991999999999999999999
0029029600999991901052013004+61183+022617FM-12+005199999V0203601N007219999999N0000001N9+01001+99999101761ADDGF106991999999999999999999
0029029600999991901052020004+61183+022617FM-12+005199999V0203201N004119999999N0000001N9+00501+99999102321ADDGF100991999999999999999999
0029029600999991901052106004+61183+022617FM-12+005199999V0202701N001019999999N0000001N9+00831+99999102981ADDGF100991999999999999999999
0029029600999991901052113004+61183+022617FM-12+005199999V0203201N004119999999N0000001N9+01281+99999103041ADDGF101991999999999999999999
0029029600999991901052120004+61183+022617FM-12+005199999V0202001N001019999999N0000001N9+00671+99999103081ADDGF102991999999999999999999
0029029600999991901052206004+61183+022617FM-12+005199999V0202301N004119999999N0000001N9+01111+99999103261ADDGF106991999999999999999999
0029029600999991901052213004+61183+022617FM-12+005199999V0202501N005119999999N0000001N9+01671+99999103141ADDGF107991999999999999999999
0029029600999991901052220004+61183+022617FM-12+005199999V0201801N001019999999N0000001N9+01001+99999102951ADDGF108991999999999999999999
0029029600999991901052306004+61183+022617FM-12+005199999V0201601N002119999999N0000001N9+01281+99999102741ADDGF102991999999999999999999
0029029600999991901052313004+61183+022617FM-12+005199999V0203201N002119999999N0000001N9+02001+99999102481ADDGF105991999999999999999999
0029029600999991901052320004+61183+022617FM-12+005199999V0202701N004119999999N0000001N9+01061+99999102361ADDGF108991999999999999999999
0029029600999991901052406004+61183+022617FM-12+005199999V0203601N003119999999N0000001N9+01061+99999102341ADDGF106991999999999999999999
0029029600999991901052413004+61183+022617FM-12+005199999V0202701N006219999999N0000001N9+01331+99999102261ADDGF107991999999999999999999
0029029600999991901052420004+61183+022617FM-12+005199999V0202701N004119999999N0000001N9+00831+99999102141ADDGF101991999999999999999999
0029029600999991901052506004+61183+022617FM-12+005199999V0203201N005119999999N0000001N9+01281+99999101841ADDGF102991999999999999999999
0029029600999991901052513004+61183+022617FM-12+005199999V0203201N007219999999N0000001N9+01391+99999101751ADDGF106991999999999999999999
0029029600999991901052520004+61183+022617FM-12+005199999V0202701N005119999999N0000001N9+00941+99999101521ADDGF101991999999999999999999
0029029600999991901052606004+61183+022617FM-12+005199999V0202701N006219999999N0000001N9+01171+99999101281ADDGF100991999999999999999999
0029029600999991901052613004+61183+022617FM-12+005199999V0202701N009819999999N0000001N9+01331+99999101041ADDGF103991999999999999999999
0029029600999991901052620004+61183+022617FM-12+005199999V0202501N004119999999N0000001N9+01171+99999100791ADDGF102991999999999999999999
0029029600999991901052706004+61183+022617FM-12+005199999V0203201N004119999999N0000001N9+01111+99999100601ADDGF100991999999999999999999
0029029600999991901052713004+61183+022617FM-12+005199999V0202701N009819999999N0000001N9+01331+99999100671ADDGF101991999999999999999999
0029029600999991901052720004+61183+022617FM-12+005199999V0203401N001019999999N0000001N9+00941+99999100751ADDGF100991999999999999999999
0029029600999991901052806004+61183+022617FM-12+005199999V0202301N006219999999N0000001N9+01221+99999100541ADDGF100991999999999999999999
0029029600999991901052813004+61183+022617FM-12+005199999V0202701N008219999999N0000001N9+01781+99999100361ADDGF102991999999999999999999
0029029600999991901052820004+61183+022617FM-12+005199999V0201801N002119999999N0000001N9+01171+99999100081ADDGF100991999999999999999999
0029029600999991901052906004+61183+022617FM-12+005199999V0203601N003119999999N0000001N9+01061+99999099801ADDGF107991999999999999999999
0029029600999991901052913004+61183+022617FM-12+005199999V0203601N004119999999N0000001N9+01391+99999100111ADDGF101991999999999999999999
0029029600999991901052920004+61183+022617FM-12+005199999V0200201N002119999999N0000001N9+00941+99999100281ADDGF102991999999999999999999
0029029600999991901053006004+61183+022617FM-12+005199999V0200901N003119999999N0000001N9+01001+99999100781ADDGF101991999999999999999999
0029029600999991901053013004+61183+022617FM-12+005199999V0200501N004119999999N0000001N9+01331+99999100831ADDGF107991999999999999999999
0029029600999991901053020004+61183+022617FM-12+005199999V0203201N005119999999N0000001N9+01001+99999100921ADDGF108991999999999999999999
0029029600999991901053106004+61183+022617FM-12+005199999V0201401N002119999999N0000001N9+00721+99999101061ADDGF108991999999999999999999
0029029600999991901053113004+61183+022617FM-12+005199999V0202301N002119999999N0000001N9+01611+99999101021ADDGF106991999999999999999999
0029029600999991901053120004+61183+022617FM-12+005199999V0201601N003119999999N0000001N9+01111+99999100981ADDGF108991999999999999999999
0029029600999991901060106004+61183+022617FM-12+005199999V0201801N004119999999N0000001N9+01061+99999100621ADDGF108991999999999999999999
0029029600999991901060113004+61183+022617FM-12+005199999V0202001N004119999999N0000001N9+01611+99999100561ADDGF108991999999999999999999
0029029600999991901060120004+61183+022617FM-12+005199999V0201801N003119999999N0000001N9+01501+99999100471ADDGF106991999999999999999999
0029029600999991901060206004+61183+022617FM-12+005199999V0202301N003119999999N0000001N9+01561+99999100701ADDGF100991999999999999999999
0035029600999991901060213004+61183+022617FM-12+005199999V0202001N001019999999N0000001N9+01441+99999100681ADDGF108991999999999999999999MW1621
0035029600999991901060220004+61183+022617FM-12+005199999V0200901N001019999999N0000001N9+01061+99999100241ADDGF108991999999999999999999MW1621
0029029600999991901060306004+61183+022617FM-12+005199999V0202301N003119999999N0000001N9+01221+99999100661ADDGF106991999999999999999999
0029029600999991901060313004+61183+022617FM-12+005199999V0202301N008219999999N0000001N9+01781+99999100861ADDGF101991999999999999999999
0029029600999991901060320004+61183+022617FM-12+005199999V0201801N003119999999N0000001N9+01391+99999100821ADDGF101991999999999999999999
0029029600999991901060406004+61183+022617FM-12+005199999V0203201N005119999999N0000001N9+01391+99999101151ADDGF100991999999999999999999
0029029600999991901060413004+61183+022617FM-12+005199999V0203201N006219999999N0000001N9+01671+99999101321ADDGF101991999999999999999999
0029029600999991901060420004+61183+022617FM-12+005199999V0202701N004119999999N0000001N9+01331+99999101351ADDGF100991999999999999999999
0029029600999991901060506004+61183+022617FM-12+005199999V0200901N001019999999N0000001N9+01721+99999101551ADDGF100991999999999999999999
0029029600999991901060513004+61183+022617FM-12+005199999V0200901N003119999999N0000001N9+02171+99999101551ADDGF104991999999999999999999
0029029600999991901060520004+61183+022617FM-12+005199999V0201801N002119999999N0000001N9+01671+99999101551ADDGF108991999999999999999999
0029029600999991901060606004+61183+022617FM-12+005199999V0201401N001019999999N0000001N9+01781+99999101401ADDGF102991999999999999999999
0029029600999991901060613004+61183+022617FM-12+005199999V0202301N003119999999N0000001N9+02171+99999101241ADDGF106991999999999999999999
0029029600999991901060620004+61183+022617FM-12+005199999V0200901N002119999999N0000001N9+01331+99999101361ADDGF107991999999999999999999
0029029600999991901060706004+61183+022617FM-12+005199999V0200201N001019999999N0000001N9+01781+99999101471ADDGF100991999999999999999999
0029029600999991901060713004+61183+022617FM-12+005199999V0203601N002119999999N0000001N9+02391+99999101421ADDGF107991999999999999999999
0029029600999991901060720004+61183+022617FM-12+005199999V0200701N001019999999N0000001N9+02061+99999101461ADDGF102991999999999999999999
0029029600999991901060806004+61183+022617FM-12+005199999V0200701N002119999999N0000001N9+02061+99999101641ADDGF100991999999999999999999
0029029600999991901060813004+61183+022617FM-12+005199999V0200701N001019999999N0000001N9+02561+99999101511ADDGF106991999999999999999999
0029029600999991901060820004+61183+022617FM-12+005199999V0200701N001019999999N0000001N9+02111+99999101541ADDGF101991999999999999999999
0029029600999991901060906004+61183+022617FM-12+005199999V0200901N002119999999N0000001N9+02061+99999101521ADDGF102991999999999999999999
0029029600999991901060913004+61183+022617FM-12+005199999V0200901N004119999999N0000001N9+02671+99999101261ADDGF106991999999999999999999
0029029600999991901060920004+61183+022617FM-12+005199999V0201401N002119999999N0000001N9+02001+99999101071ADDGF101991999999999999999999
0029029600999991901061006004+61183+022617FM-12+005199999V0201601N002119999999N0000001N9+02171+99999100741ADDGF104991999999999999999999
0029029600999991901061013004+61183+022617FM-12+005199999V0201601N005119999999N0000001N9+02221+99999100631ADDGF105991999999999999999999
0029029600999991901061020004+61183+022617FM-12+005199999V0202001N001019999999N0000001N9+01441+99999100621ADDGF107991999999999999999999
0029029600999991901061106004+61183+022617FM-12+005199999V0201401N002119999999N0000001N9+01441+99999100241ADDGF108991999999999999999999
0029029600999991901061113004+61183+022617FM-12+005199999V0201601N004119999999N0000001N9+02171+99999099681ADDGF108991999999999999999999
0029029600999991901061120004+61183+022617FM-12+005199999V0201801N005119999999N0000001N9+01501+99999099121ADDGF102991999999999999999999
0029029600999991901061206004+61183+022617FM-12+005199999V0202001N007219999999N0000001N9+01001+99999098991ADDGF105991999999999999999999
0029029600999991901061213004+61183+022617FM-12+005199999V0202001N008219999999N0000001N9+01281+99999098921ADDGF107991999999999999999999
0029029600999991901061220004+61183+022617FM-12+005199999V0201801N007219999999N0000001N9+00941+99999098881ADDGF108991999999999999999999
0029029600999991901061306004+61183+022617FM-12+005199999V0201801N005119999999N0000001N9+01171+99999099161ADDGF104991999999999999999999
0029029600999991901061313004+61183+022617FM-12+005199999V0201801N005119999999N0000001N9+01441+99999099281ADDGF102991999999999999999999
0029029600999991901061320004+61183+022617FM-12+005199999V0201601N001019999999N0000001N9+01281+99999099191ADDGF105991999999999999999999
0035029600999991901061406004+61183+022617FM-12+005199999V0203601N005119999999N0000001N9+00721+99999098301ADDGF108991999999999999999999MW1621
0035029600999991901061413004+61183+022617FM-12+005199999V0203201N008219999999N0000001N9+01061+99999098861ADDGF108991999999999999999999MW1621
0029029600999991901061420004+61183+022617FM-12+005199999V0202301N004119999999N0000001N9+00891+99999099721ADDGF106991999999999999999999
0029029600999991901061506004+61183+022617FM-12+005199999V0202001N005119999999N0000001N9+01221+99999999999ADDGF101991999999999999999999
0029029600999991901061513004+61183+022617FM-12+005199999V0202001N006219999999N0000001N9+01831+99999100121ADDGF106991999999999999999999
0029029600999991901061520004+61183+022617FM-12+005199999V0202001N003119999999N0000001N9+01331+99999100161ADDGF102991999999999999999999
0029029600999991901061606004+61183+022617FM-12+005199999V0201801N002119999999N0000001N9+01561+99999099951ADDGF104991999999999999999999
0029029600999991901061613004+61183+022617FM-12+005199999V0201801N003119999999N0000001N9+01671+99999100101ADDGF103991999999999999999999
0029029600999991901061620004+61183+022617FM-12+005199999V0201401N001019999999N0000001N9+01221+99999100351ADDGF102991999999999999999999
0029029600999991901061706004+61183+022617FM-12+005199999V0200701N001019999999N0000001N9+01441+99999100661ADDGF108991999999999999999999
0035029600999991901061713004+61183+022617FM-12+005199999V0200501N004119999999N0000001N9+01611+99999100831ADDGF108991999999999999999999MW1621
0029029600999991901061720004+61183+022617FM-12+005199999V0200701N001019999999N0000001N9+01561+99999101071ADDGF106991999999999999999999
0029029600999991901061806004+61183+022617FM-12+005199999V0200701N004119999999N0000001N9+01611+99999101261ADDGF107991999999999999999999
0029029600999991901061813004+61183+022617FM-12+005199999V0200701N007219999999N0000001N9+02171+99999101191ADDGF106991999999999999999999
0029029600999991901061820004+61183+022617FM-12+005199999V0200501N005119999999N0000001N9+01611+99999101141ADDGF108991999999999999999999
0029029600999991901061906004+61183+022617FM-12+005199999V0200701N003119999999N0000001N9+01331+99999100831ADDGF108991999999999999999999
0029029600999991901061913004+61183+022617FM-12+005199999V0200201N005119999999N0000001N9+02061+99999100991ADDGF108991999999999999999999
0029029600999991901061920004+61183+022617FM-12+005199999V0201401N004119999999N0000001N9+01611+99999101221ADDGF108991999999999999999999
0029029600999991901062006004+61183+022617FM-12+005199999V0200501N005119999999N0000001N9+01441+99999101561ADDGF107991999999999999999999
0029029600999991901062013004+61183+022617FM-12+005199999V0200701N006219999999N0000001N9+01891+99999101741ADDGF106991999999999999999999
0029029600999991901062020004+61183+022617FM-12+005199999V0200901N003119999999N0000001N9+01671+99999101871ADDGF105991999999999999999999
0029029600999991901062106004+61183+022617FM-12+005199999V0200201N001019999999N0000001N9+01441+99999101981ADDGF107991999999999999999999
0029029600999991901062113004+61183+022617FM-12+005199999V0201601N002119999999N0000001N9+02281+99999101761ADDGF106991999999999999999999
0029029600999991901062120004+61183+022617FM-12+005199999V0200901N002119999999N0000001N9+01831+99999101621ADDGF107991999999999999999999
0029029600999991901062206004+61183+022617FM-12+005199999V0200501N001019999999N0000001N9+01721+99999101581ADDGF108991999999999999999999
0029029600999991901062213004+61183+022617FM-12+005199999V0200701N002119999999N0000001N9+02331+99999101601ADDGF108991999999999999999999
0029029600999991901062220004+61183+022617FM-12+005199999V0200701N001019999999N0000001N9+01941+99999101621ADDGF107991999999999999999999
0029029600999991901062306004+61183+022617FM-12+005199999V0200901N004119999999N0000001N9+02061+99999101721ADDGF102991999999999999999999
0029029600999991901062313004+61183+022617FM-12+005199999V0200901N002119999999N0000001N9+02671+99999101621ADDGF104991999999999999999999
0029029600999991901062320004+61183+022617FM-12+005199999V0200901N001019999999N0000001N9+02331+99999101591ADDGF100991999999999999999999
0029029600999991901062406004+61183+022617FM-12+005199999V0200901N003119999999N0000001N9+02221+99999101751ADDGF101991999999999999999999
0029029600999991901062413004+61183+022617FM-12+005199999V0201401N004119999999N0000001N9+02611+99999101661ADDGF106991999999999999999999
0029029600999991901062420004+61183+022617FM-12+005199999V0200901N002119999999N0000001N9+02331+99999101521ADDGF100991999999999999999999
0029029600999991901062506004+61183+022617FM-12+005199999V0200901N002119999999N0000001N9+02061+99999101381ADDGF102991999999999999999999
0029029600999991901062513004+61183+022617FM-12+005199999V0200901N002119999999N0000001N9+02391+99999101241ADDGF107991999999999999999999
0029029600999991901062520004+61183+022617FM-12+005199999V0201801N002119999999N0000001N9+02061+99999101101ADDGF106991999999999999999999
0029029600999991901062606004+61183+022617FM-12+005199999V0200901N001019999999N0000001N9+02171+99999100991ADDGF102991999999999999999999
0035029600999991901062613004+61183+022617FM-12+005199999V0202001N003119999999N0000001N9+02391+99999100711ADDGF108991999999999999999999MW1621
0029029600999991901062620004+61183+022617FM-12+005199999V0201801N004119999999N0000001N9+01611+99999100861ADDGF108991999999999999999999
0029029600999991901062706004+61183+022617FM-12+005199999V0201801N004119999999N0000001N9+01331+99999101031ADDGF108991999999999999999999
0029029600999991901062713004+61183+022617FM-12+005199999V0201801N005119999999N0000001N9+01781+99999101041ADDGF108991999999999999999999
0035029600999991901062720004+61183+022617FM-12+005199999V0200501N001019999999N0000001N9+01171+99999100801ADDGF108991999999999999999999MW1621
0029029600999991901062806004+61183+022617FM-12+005199999V0202301N004119999999N0000001N9+01281+99999100301ADDGF108991999999999999999999
0029029600999991901062813004+61183+022617FM-12+005199999V0202501N008719999999N0000001N9+01441+99999100681ADDGF107991999999999999999999
0029029600999991901062820004+61183+022617FM-12+005199999V0202501N003119999999N0000001N9+01281+99999100911ADDGF108991999999999999999999
0029029600999991901062906004+61183+022617FM-12+005199999V0203401N003119999999N0000001N9+01281+99999101201ADDGF108991999999999999999999
0029029600999991901062913004+61183+022617FM-12+005199999V0202701N004119999999N0000001N9+01781+99999101461ADDGF107991999999999999999999
0029029600999991901062920004+61183+022617FM-12+005199999V0203401N002119999999N0000001N9+01501+99999101631ADDGF107991999999999999999999
0029029600999991901063006004+61183+022617FM-12+005199999V0203601N003119999999N0000001N9+01391+99999101801ADDGF101991999999999999999999
0029029600999991901063013004+61183+022617FM-12+005199999V0203601N003119999999N0000001N9+01781+99999101631ADDGF105991999999999999999999
0029029600999991901063020004+61183+022617FM-12+005199999V0202701N004119999999N0000001N9+01391+99999101431ADDGF108991999999999999999999
0029029600999991901070106004+61183+022617FM-12+005199999V0203201N003119999999N0000001N9+01331+99999101141ADDGF108991999999999999999999
0029029600999991901070113004+61183+022617FM-12+005199999V0200201N003119999999N0000001N9+01671+99999100941ADDGF108991999999999999999999
0029029600999991901070120004+61183+022617FM-12+005199999V0203601N002119999999N0000001N9+01331+99999100761ADDGF108991999999999999999999
0029029600999991901070206004+61183+022617FM-12+005199999V0203401N003119999999N0000001N9+01391+99999100631ADDGF100991999999999999999999
0029029600999991901070213004+61183+022617FM-12+005199999V0203201N006219999999N0000001N9+01891+99999100401ADDGF105991999999999999999999
0029029600999991901070220004+61183+022617FM-12+005199999V0203401N002119999999N0000001N9+01441+99999100351ADDGF101991999999999999999999
0029029600999991901070306004+61183+022617FM-12+005199999V0200201N005119999999N0000001N9+01331+99999100391ADDGF104991999999999999999999
0029029600999991901070313004+61183+022617FM-12+005199999V0203601N006219999999N0000001N9+01671+99999100311ADDGF105991999999999999999999
0029029600999991901070320004+61183+022617FM-12+005199999V0203601N005119999999N0000001N9+01441+99999100241ADDGF107991999999999999999999
0029029600999991901070406004+61183+022617FM-12+005199999V0203601N006219999999N0000001N9+01221+99999099981ADDGF105991999999999999999999
0029029600999991901070413004+61183+022617FM-12+005199999V0200501N009819999999N0000001N9+01831+99999099861ADDGF105991999999999999999999
0029029600999991901070420004+61183+022617FM-12+005199999V0200201N003119999999N0000001N9+01561+99999100031ADDGF106991999999999999999999
0029029600999991901070506004+61183+022617FM-12+005199999V0203601N005119999999N0000001N9+01501+99999100181ADDGF102991999999999999999999
0029029600999991901070513004+61183+022617FM-12+005199999V0200501N006219999999N0000001N9+02061+99999100281ADDGF107991999999999999999999
0029029600999991901070520004+61183+022617FM-12+005199999V0200501N002119999999N0000001N9+01831+99999100341ADDGF104991999999999999999999
0029029600999991901070606004+61183+022617FM-12+005199999V0203401N002119999999N0000001N9+01611+99999100541ADDGF103991999999999999999999
0029029600999991901070613004+61183+022617FM-12+005199999V0203201N007219999999N0000001N9+02391+99999100481ADDGF101991999999999999999999
0029029600999991901070620004+61183+022617FM-12+005199999V0202701N004119999999N0000001N9+01611+99999100541ADDGF100991999999999999999999
0029029600999991901070706004+61183+022617FM-12+005199999V0200501N002119999999N0000001N9+01721+99999100481ADDGF102991999999999999999999
0029029600999991901070713004+61183+022617FM-12+005199999V0203401N004119999999N0000001N9+02561+99999100501ADDGF102991999999999999999999
0029029600999991901070720004+61183+022617FM-12+005199999V0202701N002119999999N0000001N9+01831+99999100581ADDGF104991999999999999999999
0029029600999991901070806004+61183+022617FM-12+005199999V0202701N005119999999N0000001N9+01561+99999100521ADDGF108991999999999999999999
0035029600999991901070813004+61183+022617FM-12+005199999V0202701N007219999999N0000001N9+01441+99999100441ADDGF108991999999999999999999MW1621
0029029600999991901070820004+61183+022617FM-12+005199999V0203401N004119999999N0000001N9+01501+99999100481ADDGF101991999999999999999999
0029029600999991901070906004+61183+022617FM-12+005199999V0200201N005119999999N0000001N9+01611+99999100901ADDGF106991999999999999999999
0029029600999991901070913004+61183+022617FM-12+005199999V0203601N004119999999N0000001N9+02331+99999101141ADDGF104991999999999999999999
0029029600999991901070920004+61183+022617FM-12+005199999V0202701N004119999999N0000001N9+01831+99999101201ADDGF102991999999999999999999
0029029600999991901071006004+61183+022617FM-12+005199999V0203601N002119999999N0000001N9+01831+99999101441ADDGF100991999999999999999999
0029029600999991901071013004+61183+022617FM-12+005199999V0200501N003119999999N0000001N9+02671+99999101301ADDGF101991999999999999999999
0029029600999991901071020004+61183+022617FM-12+005199999V0203201N002119999999N0000001N9+02061+99999101271ADDGF100991999999999999999999
0029029600999991901071106004+61183+022617FM-12+005199999V0201601N003119999999N0000001N9+02001+99999101231ADDGF100991999999999999999999
0029029600999991901071113004+61183+022617FM-12+005199999V0202301N007219999999N0000001N9+02831+99999101041ADDGF102991999999999999999999
0029029600999991901071120004+61183+022617FM-12+005199999V0202501N002119999999N0000001N9+01941+99999100961ADDGF105991999999999999999999
0029029600999991901071206004+61183+022617FM-12+005199999V0200701N002119999999N0000001N9+02001+99999100951ADDGF100991999999999999999999
0029029600999991901071213004+61183+022617FM-12+005199999V0200901N001019999999N0000001N9+02721+99999100881ADDGF101991999999999999999999
0029029600999991901071220004+61183+022617FM-12+005199999V0203601N001019999999N0000001N9+02061+99999100911ADDGF101991999999999999999999
0029029600999991901071306004+61183+022617FM-12+005199999V0203601N001019999999N0000001N9+01941+99999100861ADDGF100991999999999999999999
0029029600999991901071313004+61183+022617FM-12+005199999V0201601N006219999999N0000001N9+02671+99999100781ADDGF105991999999999999999999
0029029600999991901071320004+61183+022617FM-12+005199999V0202701N002119999999N0000001N9+01941+99999100721ADDGF102991999999999999999999
0029029600999991901071406004+61183+022617FM-12+005199999V0202001N003119999999N0000001N9+01831+99999100751ADDGF106991999999999999999999
0035029600999991901071413004+61183+022617FM-12+005199999V0202501N007219999999N0000001N9+02331+99999100561ADDGF107991999999999999999999MW1621
0029029600999991901071420004+61183+022617FM-12+005199999V0202701N004119999999N0000001N9+01941+99999100591ADDGF105991999999999999999999
0029029600999991901071506004+61183+022617FM-12+005199999V0200201N003119999999N0000001N9+01831+99999100951ADDGF100991999999999999999999
0029029600999991901071513004+61183+022617FM-12+005199999V0200201N002119999999N0000001N9+02441+99999100991ADDGF101991999999999999999999
0029029600999991901071520004+61183+022617FM-12+005199999V0200501N002119999999N0000001N9+01941+99999101021ADDGF102991999999999999999999
0029029600999991901071606004+61183+022617FM-12+005199999V0200901N004119999999N0000001N9+02111+99999100961ADDGF105991999999999999999999
0029029600999991901071613004+61183+022617FM-12+005199999V0202001N004119999999N0000001N9+03001+99999100911ADDGF107991999999999999999999
0035029600999991901071620004+61183+022617FM-12+005199999V0200701N004119999999N0000001N9+01891+99999101141ADDGF108991999999999999999999MW1621
0029029600999991901071706004+61183+022617FM-12+005199999V0201401N001019999999N0000001N9+02001+99999101281ADDGF106991999999999999999999
0029029600999991901071713004+61183+022617FM-12+005199999V0202701N006219999999N0000001N9+02281+99999101461ADDGF105991999999999999999999
0029029600999991901071720004+61183+022617FM-12+005199999V0202701N002119999999N0000001N9+01721+99999101701ADDGF100991999999999999999999
0029029600999991901071806004+61183+022617FM-12+005199999V02099999999999999999N0000001N9+01441+99999101921ADDGF108991999999999999999999
0029029600999991901071813004+61183+022617FM-12+005199999V0202701N006219999999N0000001N9+02611+99999101961ADDGF106991999999999999999999
0029029600999991901071820004+61183+022617FM-12+005199999V0202701N003119999999N0000001N9+01941+99999102141ADDGF102991999999999999999999
0029029600999991901071906004+61183+022617FM-12+005199999V0202701N001019999999N0000001N9+01941+99999102431ADDGF100991999999999999999999
0029029600999991901071913004+61183+022617FM-12+005199999V0203201N004119999999N0000001N9+02671+99999102271ADDGF101991999999999999999999
0029029600999991901071920004+61183+022617FM-12+005199999V0202701N004119999999N0000001N9+02061+99999102191ADDGF100991999999999999999999
0029029600999991901072006004+61183+022617FM-12+005199999V0200501N001019999999N0000001N9+02171+99999102261ADDGF100991999999999999999999
0029029600999991901072013004+61183+022617FM-12+005199999V0200501N002119999999N0000001N9+02891+99999102111ADDGF102991999999999999999999
0029029600999991901072020004+61183+022617FM-12+005199999V0202701N002119999999N0000001N9+02331+99999102031ADDGF102991999999999999999999
0029029600999991901072106004+61183+022617FM-12+005199999V0201601N001019999999N0000001N9+02171+99999102041ADDGF100991999999999999999999
0029029600999991901072113004+61183+022617FM-12+005199999V0203201N005119999999N0000001N9+03061+99999101871ADDGF102991999999999999999999
0029029600999991901072120004+61183+022617FM-12+005199999V0203201N002119999999N0000001N9+02331+99999101801ADDGF100991999999999999999999
0029029600999991901072206004+61183+022617FM-12+005199999V0202701N001019999999N0000001N9+02281+99999101721ADDGF100991999999999999999999
0029029600999991901072213004+61183+022617FM-12+005199999V0200501N004119999999N0000001N9+02941+99999101541ADDGF101991999999999999999999
0029029600999991901072220004+61183+022617FM-12+005199999V0200501N002119999999N0000001N9+02391+99999101311ADDGF100991999999999999999999
0029029600999991901072306004+61183+022617FM-12+005199999V0201801N004119999999N0000001N9+02171+99999101241ADDGF101991999999999999999999
0029029600999991901072313004+61183+022617FM-12+005199999V0201601N002119999999N0000001N9+02831+99999101071ADDGF105991999999999999999999
0029029600999991901072320004+61183+022617FM-12+005199999V0201601N003119999999N0000001N9+02111+99999101141ADDGF102991999999999999999999
0029029600999991901072406004+61183+022617FM-12+005199999V0201401N002119999999N0000001N9+02061+99999101301ADDGF100991999999999999999999
0029029600999991901072413004+61183+022617FM-12+005199999V0201801N004119999999N0000001N9+02781+99999101191ADDGF102991999999999999999999
0000029600999991901072420004+61183+022617FM-12+005199999V02099999999999999999N0000001N9+02061+99999101301
0029029600999991901072506004+61183+022617FM-12+005199999V0200701N001019999999N0000001N9+02061+99999101511ADDGF100991999999999999999999
0029029600999991901072513004+61183+022617FM-12+005199999V0201601N003119999999N0000001N9+02891+99999101381ADDGF103991999999999999999999
0029029600999991901072520004+61183+022617FM-12+005199999V0202001N001019999999N0000001N9+02001+99999101441ADDGF101991999999999999999999
0029029600999991901072606004+61183+022617FM-12+005199999V0201801N001019999999N0000001N9+01941+99999101561ADDGF100991999999999999999999
0029029600999991901072613004+61183+022617FM-12+005199999V0201601N002119999999N0000001N9+02891+99999101461ADDGF102991999999999999999999
0035029600999991901072620004+61183+022617FM-12+005199999V0203601N006219999999N0000001N9+01941+99999101341ADDGF108991999999999999999999MW1621
0029029600999991901072706004+61183+022617FM-12+005199999V0201401N001019999999N0000001N9+02001+99999101241ADDGF102991999999999999999999
0035029600999991901072713004+61183+022617FM-12+005199999V0201401N002119999999N0000001N9+02671+99999101081ADDGF108991999999999999999999MW1621
0029029600999991901072720004+61183+022617FM-12+005199999V0203201N001019999999N0000001N9+02061+99999101031ADDGF102991999999999999999999
0029029600999991901072806004+61183+022617FM-12+005199999V0201401N001019999999N0000001N9+02001+99999101111ADDGF100991999999999999999999
0029029600999991901072813004+61183+022617FM-12+005199999V0201801N002119999999N0000001N9+02891+99999101021ADDGF102991999999999999999999
0029029600999991901072820004+61183+022617FM-12+005199999V0202501N002119999999N0000001N9+02221+99999101061ADDGF100991999999999999999999
0029029600999991901072906004+61183+022617FM-12+005199999V0202001N002119999999N0000001N9+02061+99999101261ADDGF101991999999999999999999
0029029600999991901072913004+61183+022617FM-12+005199999V0202301N005119999999N0000001N9+02781+99999101201ADDGF106991999999999999999999
0029029600999991901072920004+61183+022617FM-12+005199999V0201801N003119999999N0000001N9+01941+99999101111ADDGF103991999999999999999999
0029029600999991901073006004+61183+022617FM-12+005199999V0202001N004119999999N0000001N9+02111+99999100881ADDGF108991999999999999999999
0029029600999991901073013004+61183+022617FM-12+005199999V0202501N008219999999N0000001N9+02441+99999100901ADDGF107991999999999999999999
0029029600999991901073020004+61183+022617FM-12+005199999V0202701N001019999999N0000001N9+01781+99999100901ADDGF102991999999999999999999
0029029600999991901073106004+61183+022617FM-12+005199999V0202301N004119999999N0000001N9+01941+99999100591ADDGF107991999999999999999999
0029029600999991901073113004+61183+022617FM-12+005199999V0202701N010819999999N0000001N9+02331+99999100591ADDGF105991999999999999999999
0029029600999991901073120004+61183+022617FM-12+005199999V0202701N003119999999N0000001N9+01611+99999100961ADDGF102991999999999999999999
0029029600999991901080106004+61183+022617FM-12+005199999V0203601N001019999999N0000001N9+01441+99999101241ADDGF102991999999999999999999
0029029600999991901080113004+61183+022617FM-12+005199999V0200201N003119999999N0000001N9+02331+99999101151ADDGF100991999999999999999999
0029029600999991901080120004+61183+022617FM-12+005199999V0202701N001019999999N0000001N9+01721+99999101081ADDGF101991999999999999999999
0029029600999991901080206004+61183+022617FM-12+005199999V0202001N003119999999N0000001N9+01781+99999101021ADDGF102991999999999999999999
0029029600999991901080213004+61183+022617FM-12+005199999V0201601N005119999999N0000001N9+02561+99999100601ADDGF102991999999999999999999
0029029600999991901080220004+61183+022617FM-12+005199999V0201801N003119999999N0000001N9+01891+99999100181ADDGF101991999999999999999999
0029029600999991901080306004+61183+022617FM-12+005199999V0202701N004119999999N0000001N9+01611+99999100221ADDGF104991999999999999999999
0029029600999991901080313004+61183+022617FM-12+005199999V0203201N007219999999N0000001N9+01831+99999100551ADDGF104991999999999999999999
0029029600999991901080320004+61183+022617FM-12+005199999V0202701N003119999999N0000001N9+01281+99999101101ADDGF106991999999999999999999
0029029600999991901080406004+61183+022617FM-12+005199999V0209991C000019999999N0000001N9+01391+99999101001ADDGF102991999999999999999999
0029029600999991901080413004+61183+022617FM-12+005199999V0201601N003119999999N0000001N9+02221+99999100841ADDGF104991999999999999999999
0029029600999991901080420004+61183+022617FM-12+005199999V0201601N003119999999N0000001N9+01441+99999100621ADDGF106991999999999999999999
0029029600999991901080506004+61183+022617FM-12+005199999V0201601N005119999999N0000001N9+01611+99999999999ADDGF107991999999999999999999
0029029600999991901080513004+61183+022617FM-12+005199999V0202301N006219999999N0000001N9+02111+99999099831ADDGF107991999999999999999999
0029029600999991901080520004+61183+022617FM-12+005199999V0201801N003119999999N0000001N9+01561+99999099901ADDGF107991999999999999999999
0029029600999991901080606004+61183+022617FM-12+005199999V0202501N005119999999N0000001N9+01831+99999099801ADDGF106991999999999999999999
0029029600999991901080613004+61183+022617FM-12+005199999V0202001N005119999999N0000001N9+02001+99999099801ADDGF107991999999999999999999
0029029600999991901080620004+61183+022617FM-12+005199999V0202301N001019999999N0000001N9+01441+99999100041ADDGF108991999999999999999999
0029029600999991901080706004+61183+022617FM-12+005199999V0200501N001019999999N0000001N9+01281+99999100151ADDGF107991999999999999999999
0029029600999991901080713004+61183+022617FM-12+005199999V0200501N003119999999N0000001N9+01831+99999100121ADDGF104991999999999999999999
0029029600999991901080720004+61183+022617FM-12+005199999V0201601N001019999999N0000001N9+01441+99999100301ADDGF108991999999999999999999
0029029600999991901080806004+61183+022617FM-12+005199999V0201601N001019999999N0000001N9+01331+99999100271ADDGF105991999999999999999999
0029029600999991901080813004+61183+022617FM-12+005199999V0203201N004119999999N0000001N9+02001+99999100261ADDGF106991999999999999999999
0029029600999991901080820004+61183+022617FM-12+005199999V0201601N001019999999N0000001N9+01281+99999100321ADDGF108991999999999999999999
0029029600999991901080906004+61183+022617FM-12+005199999V0209991C000019999999N0000001N9+01441+99999100441ADDGF102991999999999999999999
0029029600999991901080913004+61183+022617FM-12+005199999V0203401N005119999999N0000001N9+01941+99999100601ADDGF104991999999999999999999
0029029600999991901080920004+61183+022617FM-12+005199999V0202701N003119999999N0000001N9+01331+99999101021ADDGF102991999999999999999999
0029029600999991901081006004+61183+022617FM-12+005199999V0209991C000019999999N0000001N9+01281+99999101561ADDGF102991999999999999999999
0029029600999991901081013004+61183+022617FM-12+005199999V0202001N003119999999N0000001N9+02391+99999101621ADDGF106991999999999999999999
0029029600999991901081020004+61183+022617FM-12+005199999V0203201N001019999999N0000001N9+01561+99999101721ADDGF105991999999999999999999
0029029600999991901081106004+61183+022617FM-12+005199999V0201601N002119999999N0000001N9+01561+99999101791ADDGF102991999999999999999999
0029029600999991901081113004+61183+022617FM-12+005199999V0202301N006219999999N0000001N9+02561+99999101681ADDGF101991999999999999999999
0029029600999991901081120004+61183+022617FM-12+005199999V0202301N002119999999N0000001N9+01671+99999101681ADDGF101991999999999999999999
0029029600999991901081206004+61183+022617FM-12+005199999V0201801N004119999999N0000001N9+01561+99999101831ADDGF102991999999999999999999
0029029600999991901081213004+61183+022617FM-12+005199999V0202701N003119999999N0000001N9+02671+99999101821ADDGF101991999999999999999999
0029029600999991901081220004+61183+022617FM-12+005199999V0203201N002119999999N0000001N9+01671+99999101831ADDGF105991999999999999999999
0029029600999991901081306004+61183+022617FM-12+005199999V0200701N001019999999N0000001N9+01941+99999101831ADDGF102991999999999999999999
0029029600999991901081313004+61183+022617FM-12+005199999V0200501N004119999999N0000001N9+02781+99999101831ADDGF108991999999999999999999
0029029600999991901081320004+61183+022617FM-12+005199999V0200901N001019999999N0000001N9+01941+99999101911ADDGF105991999999999999999999
0029029600999991901081406004+61183+022617FM-12+005199999V0200701N001019999999N0000001N9+01831+99999102161ADDGF101991999999999999999999
0029029600999991901081413004+61183+022617FM-12+005199999V0200201N002119999999N0000001N9+02611+99999102101ADDGF105991999999999999999999
0029029600999991901081420004+61183+022617FM-12+005199999V0200901N001019999999N0000001N9+01941+99999101991ADDGF102991999999999999999999
0029029600999991901081506004+61183+022617FM-12+005199999V0200901N002119999999N0000001N9+01781+99999101871ADDGF100991999999999999999999
0029029600999991901081513004+61183+022617FM-12+005199999V0200901N004119999999N0000001N9+02721+99999101621ADDGF107991999999999999999999
0029029600999991901081520004+61183+022617FM-12+005199999V0200901N002119999999N0000001N9+02061+99999101391ADDGF108991999999999999999999
0029029600999991901081606004+61183+022617FM-12+005199999V0200901N001019999999N0000001N9+01941+99999101221ADDGF107991999999999999999999
0029029600999991901081613004+61183+022617FM-12+005199999V0201601N004119999999N0000001N9+02721+99999101111ADDGF107991999999999999999999
0029029600999991901081620004+61183+022617FM-12+005199999V0200201N001019999999N0000001N9+01831+99999101201ADDGF108991999999999999999999
0029029600999991901081706004+61183+022617FM-12+005199999V0200701N001019999999N0000001N9+01831+99999101261ADDGF101991999999999999999999
0029029600999991901081713004+61183+022617FM-12+005199999V0201801N004119999999N0000001N9+02831+99999101141ADDGF107991999999999999999999
0029029600999991901081720004+61183+022617FM-12+005199999V0201101N002119999999N0000001N9+01831+99999101321ADDGF108991999999999999999999
0035029600999991901081806004+61183+022617FM-12+005199999V0200701N001019999999N0000001N9+01561+99999101231ADDGF108991999999999999999999MW1621
0029029600999991901081813004+61183+022617FM-12+005199999V0203201N003119999999N0000001N9+02111+99999101281ADDGF102991999999999999999999
0029029600999991901081820004+61183+022617FM-12+005199999V0202701N005119999999N0000001N9+01501+99999101301ADDGF101991999999999999999999
0029029600999991901081906004+61183+022617FM-12+005199999V0200701N001019999999N0000001N9+01331+99999101201ADDGF100991999999999999999999
0029029600999991901081913004+61183+022617FM-12+005199999V0202301N007219999999N0000001N9+02171+99999100911ADDGF107991999999999999999999
0029029600999991901081920004+61183+022617FM-12+005199999V0202701N005119999999N0000001N9+01331+99999100921ADDGF102991999999999999999999
0029029600999991901082006004+61183+022617FM-12+005199999V0202001N004119999999N0000001N9+01331+99999100741ADDGF102991999999999999999999
0029029600999991901082013004+61183+022617FM-12+005199999V0202301N004119999999N0000001N9+01831+99999100751ADDGF108991999999999999999999
0029029600999991901082020004+61183+022617FM-12+005199999V0202701N002119999999N0000001N9+01061+99999100901ADDGF102991999999999999999999
0029029600999991901082106004+61183+022617FM-12+005199999V0203601N004119999999N0000001N9+01111+99999101161ADDGF101991999999999999999999
0029029600999991901082113004+61183+022617FM-12+005199999V0203601N003119999999N0000001N9+01831+99999101221ADDGF103991999999999999999999
0029029600999991901082120004+61183+022617FM-12+005199999V0203201N002119999999N0000001N9+01221+99999101361ADDGF101991999999999999999999
0029029600999991901082206004+61183+022617FM-12+005199999V0201601N001019999999N0000001N9+01111+99999101381ADDGF106991999999999999999999
0029029600999991901082213004+61183+022617FM-12+005199999V0202701N005119999999N0000001N9+01831+99999101221ADDGF107991999999999999999999
0029029600999991901082220004+61183+022617FM-12+005199999V0203601N001019999999N0000001N9+01171+99999100921ADDGF101991999999999999999999
0029029600999991901082306004+61183+022617FM-12+005199999V0201601N004119999999N0000001N9+01561+99999100061ADDGF107991999999999999999999
0029029600999991901082313004+61183+022617FM-12+005199999V0202701N006219999999N0000001N9+01781+99999099801ADDGF108991999999999999999999
0029029600999991901082320004+61183+022617FM-12+005199999V0203201N003119999999N0000001N9+00831+99999099841ADDGF108991999999999999999999
0035029600999991901082406004+61183+022617FM-12+005199999V0203401N005119999999N0000001N9+01281+99999099871ADDGF108991999999999999999999MW1621
0029029600999991901082413004+61183+022617FM-12+005199999V0203601N005119999999N0000001N9+01441+99999100041ADDGF108991999999999999999999
0029029600999991901082420004+61183+022617FM-12+005199999V0200501N005119999999N0000001N9+01221+99999100231ADDGF107991999999999999999999
0029029600999991901082506004+61183+022617FM-12+005199999V0203201N006219999999N0000001N9+01221+99999100351ADDGF100991999999999999999999
0029029600999991901082513004+61183+022617FM-12+005199999V0203201N005119999999N0000001N9+01441+99999100481ADDGF101991999999999999999999
0029029600999991901082520004+61183+022617FM-12+005199999V0202501N005119999999N0000001N9+00781+99999100381ADDGF102991999999999999999999
0029029600999991901082606004+61183+022617FM-12+005199999V0201401N003119999999N0000001N9+01061+99999100161ADDGF108991999999999999999999
0029029600999991901082613004+61183+022617FM-12+005199999V0202001N003119999999N0000001N9+01721+99999100151ADDGF108991999999999999999999
0029029600999991901082620004+61183+022617FM-12+005199999V0201801N002119999999N0000001N9+01281+99999100181ADDGF108991999999999999999999
0029029600999991901082706004+61183+022617FM-12+005199999V0201401N002119999999N0000001N9+01441+99999100161ADDGF107991999999999999999999
0029029600999991901082713004+61183+022617FM-12+005199999V0201401N006219999999N0000001N9+02221+99999099981ADDGF104991999999999999999999
0029029600999991901082720004+61183+022617FM-12+005199999V0200901N004119999999N0000001N9+01611+99999099711ADDGF108991999999999999999999
0035029600999991901082806004+61183+022617FM-12+005199999V0201601N001019999999N0000001N9+01331+99999099421ADDGF108991999999999999999999MW1621
0035029600999991901082813004+61183+022617FM-12+005199999V0209991C000019999999N0000001N9+01561+99999099551ADDGF108991999999999999999999MW1621
0029029600999991901082820004+61183+022617FM-12+005199999V0203201N001019999999N0000001N9+01281+99999099581ADDGF108991999999999999999999
0029029600999991901082906004+61183+022617FM-12+005199999V0203201N001019999999N0000001N9+01171+99999099481ADDGF108991999999999999999999
0035029600999991901082913004+61183+022617FM-12+005199999V0202701N006219999999N0000001N9+01171+99999099581ADDGF108991999999999999999999MW1621
0035029600999991901082920004+61183+022617FM-12+005199999V0200201N002119999999N0000001N9+01111+99999099551ADDGF108991999999999999999999MW1621
0035029600999991901083006004+61183+022617FM-12+005199999V0200701N004119999999N0000001N9+01171+99999099861ADDGF108991999999999999999999MW1621
0029029600999991901083013004+61183+022617FM-12+005199999V0200501N005119999999N0000001N9+01391+99999100191ADDGF108991999999999999999999
0029029600999991901083020004+61183+022617FM-12+005199999V0200501N001019999999N0000001N9+01061+99999100261ADDGF108991999999999999999999
0029029600999991901083106004+61183+022617FM-12+005199999V0203201N002119999999N0000001N9+00441+99999100151ADDGF108991999999999999999999
0029029600999991901083113004+61183+022617FM-12+005199999V0203401N004119999999N0000001N9+01501+99999099921ADDGF104991999999999999999999
0029029600999991901083120004+61183+022617FM-12+005199999V0200201N001019999999N0000001N9+00721+99999099871ADDGF103991999999999999999999
0029029600999991901090106004+61183+022617FM-12+005199999V0200501N004119999999N0000001N9+00831+99999099701ADDGF108991999999999999999999
0029029600999991901090113004+61183+022617FM-12+005199999V0200201N006219999999N0000001N9+01001+99999099751ADDGF108991999999999999999999
0029029600999991901090120004+61183+022617FM-12+005199999V0200501N004119999999N0000001N9+00721+99999099761ADDGF108991999999999999999999
0029029600999991901090206004+61183+022617FM-12+005199999V0203601N004119999999N0000001N9+00501+99999099951ADDGF101991999999999999999999
0029029600999991901090213004+61183+022617FM-12+005199999V0203601N006219999999N0000001N9+01111+99999100081ADDGF108991999999999999999999
0029029600999991901090220004+61183+022617FM-12+005199999V0203401N003119999999N0000001N9+00501+99999100231ADDGF103991999999999999999999
0029029600999991901090306004+61183+022617FM-12+005199999V0203601N004119999999N0000001N9+00391+99999100661ADDGF108991999999999999999999
