0029227070999991901010213004+62167+030650FM-12+010299999V0202301N002119999999N0000001N9-01561+99999101631ADDGF108991999999999999999999
0029227070999991901010220004+62167+030650FM-12+010299999V0202301N002119999999N0000001N9-01391+99999101621ADDGF108991999999999999999999
0029227070999991901010306004+62167+030650FM-12+010299999V0202501N002119999999N0000001N9-01061+99999101361ADDGF108991999999999999999999
0029227070999991901010320004+62167+030650FM-12+010299999V0201401N002119999999N0000001N9-00391+99999101151ADDGF108991999999999999999999
0029227070999991901010406004+62167+030650FM-12+010299999V0202301N001019999999N0000001N9-00501+99999101481ADDGF108991999999999999999999
0029227070999991901010413004+62167+030650FM-12+010299999V0209991C000019999999N0000001N9-00501+99999101761ADDGF108991999999999999999999
0029227070999991901010420004+62167+030650FM-12+010299999V0202301N002119999999N0000001N9-00501+99999101981ADDGF108991999999999999999999
0029227070999991901010506004+62167+030650FM-12+010299999V0201401N002119999999N0000001N9-00331+99999101821ADDGF108991999999999999999999
0029227070999991901010513004+62167+030650FM-12+010299999V0202301N004119999999N0000001N9-00061+99999101551ADDGF108991999999999999999999
0029227070999991901010520004+62167+030650FM-12+010299999V0202301N002119999999N0000001N9-00061+99999101761ADDGF108991999999999999999999
0029227070999991901010606004+62167+030650FM-12+010299999V0202001N003119999999N0000001N9+00061+99999101911ADDGF108991999999999999999999
0029227070999991901010613004+62167+030650FM-12+010299999V0202901N003119999999N0000001N9+00171+99999101801ADDGF108991999999999999999999
0029227070999991901010620004+62167+030650FM-12+010299999V0203201N004119999999N0000001N9+00111+99999101861ADDGF108991999999999999999999
0029227070999991901010706004+62167+030650FM-12+010299999V0202901N002119999999N0000001N9-00221+99999102261ADDGF107991999999999999999999
0029227070999991901010713004+62167+030650FM-12+010299999V0200501N002119999999N0000001N9-00501+99999102471ADDGF108991999999999999999999
0029227070999991901010720004+62167+030650FM-12+010299999V0203201N002119999999N0000001N9-00831+99999102541ADDGF100991999999999999999999
0029227070999991901010806004+62167+030650FM-12+010299999V0202901N003119999999N0000001N9-00671+99999102391ADDGF108991999999999999999999
0029227070999991901010813004+62167+030650FM-12+010299999V0203201N001019999999N0000001N9-00501+99999102311ADDGF108991999999999999999999
0029227070999991901010820004+62167+030650FM-12+010299999V0203201N002119999999N0000001N9-00721+99999102161ADDGF108991999999999999999999
0029227070999991901010906004+62167+030650FM-12+010299999V0203201N004119999999N0000001N9-00891+99999102001ADDGF108991999999999999999999
0029227070999991901010913004+62167+030650FM-12+010299999V0203201N004119999999N0000001N9-00721+99999101921ADDGF108991999999999999999999
0029227070999991901010920004+62167+030650FM-12+010299999V0203201N003119999999N0000001N9-00781+99999101961ADDGF108991999999999999999999
0029227070999991901011006004+62167+030650FM-12+010299999V0201401N002119999999N0000001N9-00781+99999101461ADDGF108991999999999999999999
0029227070999991901011013004+62167+030650FM-12+010299999V0201401N003119999999N0000001N9-00501+99999101231ADDGF108991999999999999999999
0029227070999991901011020004+62167+030650FM-12+010299999V0201401N002119999999N0000001N9-00331+99999101001ADDGF108991999999999999999999
0029227070999991901011106004+62167+030650FM-12+010299999V0202301N003119999999N0000001N9-00221+99999100561ADDGF108991999999999999999999
0029227070999991901011113004+62167+030650FM-12+010299999V0202501N002119999999N0000001N9-00171+99999100511ADDGF108991999999999999999999
0029227070999991901011120004+62167+030650FM-12+010299999V0202301N003119999999N0000001N9-00221+99999100421ADDGF108991999999999999999999
0029227070999991901011206004+62167+030650FM-12+010299999V0201401N002119999999N0000001N9-00331+99999100351ADDGF108991999999999999999999
0029227070999991901011213004+62167+030650FM-12+010299999V0202901N003119999999N0000001N9-00171+99999100381ADDGF108991999999999999999999
0029227070999991901011220004+62167+030650FM-12+010299999V0203201N002119999999N0000001N9-00561+99999100661ADDGF100991999999999999999999
0029227070999991901011306004+62167+030650FM-12+010299999V0203201N004119999999N0000001N9-00781+99999100671ADDGF108991999999999999999999
0029227070999991901011313004+62167+030650FM-12+010299999V0203201N002119999999N0000001N9-00111+99999100551ADDGF103991999999999999999999
0029227070999991901011320004+62167+030650FM-12+010299999V0203201N003119999999N0000001N9-00721+99999101241ADDGF102991999999999999999999
0029227070999991901011406004+62167+030650FM-12+010299999V0202901N002119999999N0000001N9-00281+99999101701ADDGF108991999999999999999999
0029227070999991901011413004+62167+030650FM-12+010299999V0202701N003119999999N0000001N9-00441+99999101861ADDGF102991999999999999999999
0029227070999991901011420004+62167+030650FM-12+010299999V0202701N002119999999N0000001N9-00891+99999101711ADDGF100991999999999999999999
0029227070999991901011506004+62167+030650FM-12+010299999V0202701N001019999999N0000001N9-00891+99999101241ADDGF103991999999999999999999
0029227070999991901011513004+62167+030650FM-12+010299999V0202501N002119999999N0000001N9-00501+99999100911ADDGF107991999999999999999999
0029227070999991901011520004+62167+030650FM-12+010299999V0202701N001019999999N0000001N9-00501+99999100511ADDGF100991999999999999999999
0029227070999991901011606004+62167+030650FM-12+010299999V0202901N002119999999N0000001N9-00441+99999100181ADDGF103991999999999999999999
0029227070999991901011613004+62167+030650FM-12+010299999V0202901N003119999999N0000001N9-00061+99999100081ADDGF108991999999999999999999
0029227070999991901011620004+62167+030650FM-12+010299999V0202701N002119999999N0000001N9-00061+99999100021ADDGF102991999999999999999999
0029227070999991901011706004+62167+030650FM-12+010299999V0202901N003119999999N0000001N9+00061+99999100471ADDGF108991999999999999999999
0029227070999991901011713004+62167+030650FM-12+010299999V0202901N002119999999N0000001N9-00111+99999100631ADDGF108991999999999999999999
0029227070999991901011720004+62167+030650FM-12+010299999V0202701N001019999999N0000001N9-00281+99999100751ADDGF108991999999999999999999
0029227070999991901011806004+62167+030650FM-12+010299999V0201401N002119999999N0000001N9-00561+99999100741ADDGF108991999999999999999999
0029227070999991901011813004+62167+030650FM-12+010299999V0201601N003119999999N0000001N9-00561+99999100471ADDGF108991999999999999999999
0029227070999991901011820004+62167+030650FM-12+010299999V0201401N002119999999N0000001N9-00831+99999100341ADDGF108991999999999999999999
0029227070999991901011906004+62167+030650FM-12+010299999V0203201N001019999999N0000001N9-00891+99999100441ADDGF108991999999999999999999
0029227070999991901011913004+62167+030650FM-12+010299999V0209991C000019999999N0000001N9-00781+99999100401ADDGF108991999999999999999999
0029227070999991901011920004+62167+030650FM-12+010299999V0200501N001019999999N0000001N9-00831+99999100231ADDGF108991999999999999999999
0029227070999991901012006004+62167+030650FM-12+010299999V0202301N002119999999N0000001N9-00111+99999099581ADDGF108991999999999999999999
0029227070999991901012013004+62167+030650FM-12+010299999V0202301N004119999999N0000001N9-00061+99999099461ADDGF108991999999999999999999
0029227070999991901012020004+62167+030650FM-12+010299999V0202301N002119999999N0000001N9-00111+99999099151ADDGF108991999999999999999999
0029227070999991901012106004+62167+030650FM-12+010299999V0201101N003119999999N0000001N9-00281+99999098421ADDGF108991999999999999999999
0029227070999991901012113004+62167+030650FM-12+010299999V0200701N005119999999N0000001N9-00391+99999098261ADDGF108991999999999999999999
0029227070999991901012120004+62167+030650FM-12+010299999V0200501N002119999999N0000001N9-00671+99999098561ADDGF100991999999999999999999
0029227070999991901012206004+62167+030650FM-12+010299999V0200701N002119999999N0000001N9-01611+99999098631ADDGF102991999999999999999999
0029227070999991901012213004+62167+030650FM-12+010299999V0201601N003119999999N0000001N9-00561+99999097751ADDGF108991999999999999999999
0029227070999991901012220004+62167+030650FM-12+010299999V0201401N002119999999N0000001N9-00221+99999096461ADDGF108991999999999999999999
0029227070999991901012306004+62167+030650FM-12+010299999V0202301N003119999999N0000001N9-00171+99999096221ADDGF108991999999999999999999
0029227070999991901012313004+62167+030650FM-12+010299999V0202901N005119999999N0000001N9-00061+99999096401ADDGF108991999999999999999999
0029227070999991901012320004+62167+030650FM-12+010299999V0203201N018019999999N0000001N9+00061+99999097021ADDGF108991999999999999999999
0029227070999991901012406004+62167+030650FM-12+010299999V0203201N008219999999N0000001N9-00281+99999098801ADDGF100991999999999999999999
0029227070999991901012413004+62167+030650FM-12+010299999V0203201N004119999999N0000001N9-00171+99999099621ADDGF102991999999999999999999
0029227070999991901012420004+62167+030650FM-12+010299999V0203201N003119999999N0000001N9-00171+99999099721ADDGF108991999999999999999999
0029227070999991901012506004+62167+030650FM-12+010299999V0201101N003119999999N0000001N9-00441+99999099561ADDGF108991999999999999999999
0029227070999991901012513004+62167+030650FM-12+010299999V0201601N005119999999N0000001N9-00221+99999099321ADDGF108991999999999999999999
0029227070999991901012520004+62167+030650FM-12+010299999V0201401N004119999999N0000001N9-00061+99999098711ADDGF108991999999999999999999
0029227070999991901012606004+62167+030650FM-12+010299999V0202001N004119999999N0000001N9+00061+99999098201ADDGF108991999999999999999999
0029227070999991901012613004+62167+030650FM-12+010299999V0201601N006219999999N0000001N9+00111+99999098201ADDGF108991999999999999999999
0029227070999991901012620004+62167+030650FM-12+010299999V0201401N003119999999N0000001N9+00061+99999098301ADDGF108991999999999999999999
0029227070999991901012706004+62167+030650FM-12+010299999V0201401N002119999999N0000001N9-00061+99999097981ADDGF108991999999999999999999
0029227070999991901012713004+62167+030650FM-12+010299999V0201101N004119999999N0000001N9-00061+99999097871ADDGF108991999999999999999999
0029227070999991901012720004+62167+030650FM-12+010299999V0201401N002119999999N0000001N9-00171+99999097471ADDGF108991999999999999999999
0029227070999991901012806004+62167+030650FM-12+010299999V0201101N005119999999N0000001N9-00281+99999097241ADDGF108991999999999999999999
0029227070999991901012813004+62167+030650FM-12+010299999V0200701N009819999999N0000001N9-00281+99999096881ADDGF108991999999999999999999
0029227070999991901012820004+62167+030650FM-12+010299999V0200701N005119999999N0000001N9-00171+99999096481ADDGF108991999999999999999999
0029227070999991901012906004+62167+030650FM-12+010299999V0200701N006219999999N0000001N9+00001+99999096581ADDGF108991999999999999999999
0029227070999991901012913004+62167+030650FM-12+010299999V0201401N008219999999N0000001N9-00111+99999097071ADDGF108991999999999999999999
0029227070999991901012920004+62167+030650FM-12+010299999V0201101N004119999999N0000001N9-00281+99999097751ADDGF102991999999999999999999
0029227070999991901013006004+62167+030650FM-12+010299999V0200701N004119999999N0000001N9-00721+99999098071ADDGF108991999999999999999999
0029227070999991901013013004+62167+030650FM-12+010299999V0200501N006219999999N0000001N9-00671+99999097991ADDGF108991999999999999999999
0029227070999991901013020004+62167+030650FM-12+010299999V0200501N002119999999N0000001N9-01001+99999098321ADDGF102991999999999999999999
0029227070999991901013106004+62167+030650FM-12+010299999V0201801N003119999999N0000001N9-00781+99999098791ADDGF108991999999999999999999
0029227070999991901013113004+62167+030650FM-12+010299999V0201401N004119999999N0000001N9-00331+99999098751ADDGF108991999999999999999999
0029227070999991901013120004+62167+030650FM-12+010299999V0201401N003119999999N0000001N9-00331+99999098761ADDGF108991999999999999999999
0029227070999991901020106004+62167+030650FM-12+010299999V0202301N005119999999N0000001N9-00391+99999099001ADDGF108991999999999999999999
0029227070999991901020113004+62167+030650FM-12+010299999V0202301N004119999999N0000001N9-00611+99999099701ADDGF108991999999999999999999
0029227070999991901020120004+62167+030650FM-12+010299999V0202301N003119999999N0000001N9-00831+99999099911ADDGF106991999999999999999999
0029227070999991901020206004+62167+030650FM-12+010299999V0201601N003119999999N0000001N9-00331+99999099551ADDGF108991999999999999999999
0029227070999991901020213004+62167+030650FM-12+010299999V0201601N002119999999N0000001N9-00331+99999099481ADDGF108991999999999999999999
0029227070999991901020220004+62167+030650FM-12+010299999V0202001N002119999999N0000001N9-00831+99999099551ADDGF102991999999999999999999
0029227070999991901020306004+62167+030650FM-12+010299999V0201801N002119999999N0000001N9-01001+99999099591ADDGF108991999999999999999999
0029227070999991901020313004+62167+030650FM-12+010299999V0201601N003119999999N0000001N9-00831+99999099311ADDGF108991999999999999999999
0029227070999991901020320004+62167+030650FM-12+010299999V0201601N002119999999N0000001N9-01221+99999098951ADDGF103991999999999999999999
0029227070999991901020406004+62167+030650FM-12+010299999V0202001N002119999999N0000001N9-00941+99999099231ADDGF108991999999999999999999
0029227070999991901020413004+62167+030650FM-12+010299999V0201401N003119999999N0000001N9-00721+99999099541ADDGF108991999999999999999999
0029227070999991901020420004+62167+030650FM-12+010299999V0201401N002119999999N0000001N9-00671+99999099841ADDGF108991999999999999999999
0029227070999991901020506004+62167+030650FM-12+010299999V0201601N003119999999N0000001N9-00501+99999100141ADDGF107991999999999999999999
0029227070999991901020513004+62167+030650FM-12+010299999V0201801N002119999999N0000001N9-00221+99999100111ADDGF108991999999999999999999
0029227070999991901020520004+62167+030650FM-12+010299999V0201601N008219999999N0000001N9-00441+99999099791ADDGF108991999999999999999999
0029227070999991901020606004+62167+030650FM-12+010299999V0201601N005119999999N0000001N9-00331+99999099461ADDGF108991999999999999999999
0029227070999991901020613004+62167+030650FM-12+010299999V0202001N003119999999N0000001N9-00221+99999099421ADDGF108991999999999999999999
0029227070999991901020620004+62167+030650FM-12+010299999V0202301N005119999999N0000001N9-00611+99999099431ADDGF108991999999999999999999
0029227070999991901020706004+62167+030650FM-12+010299999V0202501N003119999999N0000001N9-01061+99999098901ADDGF108991999999999999999999
0029227070999991901020713004+62167+030650FM-12+010299999V0202901N008219999999N0000001N9-00671+99999098801ADDGF104991999999999999999999
0029227070999991901020720004+62167+030650FM-12+010299999V0203201N003119999999N0000001N9-01611+99999099401ADDGF100991999999999999999999
0029227070999991901020806004+62167+030650FM-12+010299999V0200901N004119999999N0000001N9-01171+99999098871ADDGF108991999999999999999999
0029227070999991901020813004+62167+030650FM-12+010299999V0203201N005119999999N0000001N9-01001+99999099431ADDGF108991999999999999999999
0029227070999991901020820004+62167+030650FM-12+010299999V0203201N002119999999N0000001N9-01441+99999099951ADDGF102991999999999999999999
0029227070999991901020906004+62167+030650FM-12+010299999V0201101N002119999999N0000001N9-02001+99999099671ADDGF107991999999999999999999
0029227070999991901020913004+62167+030650FM-12+010299999V0202301N018019999999N0000001N9-00331+99999097861ADDGF108991999999999999999999
0029227070999991901020920004+62167+030650FM-12+010299999V0202901N013919999999N0000001N9-01061+99999098141ADDGF108991999999999999999999
0029227070999991901021006004+62167+030650FM-12+010299999V0200501N003119999999N0000001N9-02061+99999098591ADDGF108991999999999999999999
0029227070999991901021013004+62167+030650FM-12+010299999V0201401N002119999999N0000001N9-01331+99999098381ADDGF101991999999999999999999
0029227070999991901021020004+62167+030650FM-12+010299999V0201401N002119999999N0000001N9-02561+99999098271ADDGF102991999999999999999999
0029227070999991901021106004+62167+030650FM-12+010299999V0203201N002119999999N0000001N9-02331+99999098401ADDGF108991999999999999999999
0029227070999991901021113004+62167+030650FM-12+010299999V0202901N004119999999N0000001N9-01831+99999098541ADDGF108991999999999999999999
0029227070999991901021120004+62167+030650FM-12+010299999V0203201N003119999999N0000001N9-02061+99999098671ADDGF102991999999999999999999
0029227070999991901021206004+62167+030650FM-12+010299999V0203201N002119999999N0000001N9-02441+99999099301ADDGF108991999999999999999999
0029227070999991901021213004+62167+030650FM-12+010299999V0203201N003119999999N0000001N9-01671+99999099781ADDGF108991999999999999999999
0029227070999991901021220004+62167+030650FM-12+010299999V0202901N002119999999N0000001N9-02061+99999100061ADDGF102991999999999999999999
0029227070999991901021306004+62167+030650FM-12+010299999V0202701N001019999999N0000001N9-02061+99999100241ADDGF101991999999999999999999
0029227070999991901021313004+62167+030650FM-12+010299999V0202701N003119999999N0000001N9-01671+99999100481ADDGF102991999999999999999999
0029227070999991901021320004+62167+030650FM-12+010299999V0202901N002119999999N0000001N9-02501+99999100791ADDGF100991999999999999999999
0029227070999991901021406004+62167+030650FM-12+010299999V0202901N001019999999N0000001N9-03281+99999101501ADDGF102991999999999999999999
0029227070999991901021413004+62167+030650FM-12+010299999V0200901N002119999999N0000001N9-01831+99999102081ADDGF106991999999999999999999
0029227070999991901021420004+62167+030650FM-12+010299999V0201101N003119999999N0000001N9-01671+99999102321ADDGF108991999999999999999999
0029227070999991901021506004+62167+030650FM-12+010299999V0200201N002119999999N0000001N9-01671+99999101681ADDGF108991999999999999999999
0029227070999991901021513004+62167+030650FM-12+010299999V0200501N003119999999N0000001N9-01501+99999101041ADDGF108991999999999999999999
0029227070999991901021520004+62167+030650FM-12+010299999V0200501N002119999999N0000001N9-02671+99999101001ADDGF100991999999999999999999
0029227070999991901021606004+62167+030650FM-12+010299999V0200701N003119999999N0000001N9-03331+99999100841ADDGF100991999999999999999999
0029227070999991901021613004+62167+030650FM-12+010299999V0200701N002119999999N0000001N9-01611+99999100701ADDGF102991999999999999999999
0029227070999991901021620004+62167+030650FM-12+010299999V0200701N001019999999N0000001N9-01781+99999100381ADDGF102991999999999999999999
0029227070999991901021706004+62167+030650FM-12+010299999V0203201N002119999999N0000001N9-02281+99999100461ADDGF102991999999999999999999
0029227070999991901021713004+62167+030650FM-12+010299999V0200201N006219999999N0000001N9-01331+99999101021ADDGF108991999999999999999999
0029227070999991901021720004+62167+030650FM-12+010299999V0200501N002119999999N0000001N9-01171+99999101581ADDGF106991999999999999999999
0029227070999991901021806004+62167+030650FM-12+010299999V0203601N001019999999N0000001N9-01561+99999101991ADDGF108991999999999999999999
0029227070999991901021813004+62167+030650FM-12+010299999V0200201N002119999999N0000001N9-01171+99999102261ADDGF103991999999999999999999
0029227070999991901021820004+62167+030650FM-12+010299999V0200501N003119999999N0000001N9-02331+99999102511ADDGF102991999999999999999999
0029227070999991901021906004+62167+030650FM-12+010299999V0200901N002119999999N0000001N9-01671+99999102671ADDGF108991999999999999999999
0029227070999991901021913004+62167+030650FM-12+010299999V0201101N002119999999N0000001N9-01391+99999102541ADDGF108991999999999999999999
0029227070999991901021920004+62167+030650FM-12+010299999V0201101N004119999999N0000001N9-01391+99999102271ADDGF108991999999999999999999
0029227070999991901022006004+62167+030650FM-12+010299999V0203601N003119999999N0000001N9-01611+99999101551ADDGF108991999999999999999999
0029227070999991901022013004+62167+030650FM-12+010299999V0200201N004119999999N0000001N9-01391+99999101031ADDGF108991999999999999999999
0029227070999991901022020004+62167+030650FM-12+010299999V0200501N002119999999N0000001N9-01391+99999100791ADDGF108991999999999999999999
0029227070999991901022106004+62167+030650FM-12+010299999V0202901N002119999999N0000001N9-01171+99999100601ADDGF108991999999999999999999
0029227070999991901022113004+62167+030650FM-12+010299999V0201801N003119999999N0000001N9-00781+99999100361ADDGF108991999999999999999999
0029227070999991901022120004+62167+030650FM-12+010299999V0202001N004119999999N0000001N9-01061+99999099921ADDGF108991999999999999999999
0029227070999991901022206004+62167+030650FM-12+010299999V0202701N008219999999N0000001N9-00671+99999098581ADDGF108991999999999999999999
0029227070999991901022213004+62167+030650FM-12+010299999V0202901N013919999999N0000001N9-01001+99999098961ADDGF108991999999999999999999
0029227070999991901022220004+62167+030650FM-12+010299999V0202901N006219999999N0000001N9-01281+99999099181ADDGF108991999999999999999999
0029227070999991901022306004+62167+030650FM-12+010299999V0201101N005119999999N0000001N9-01611+99999099001ADDGF108991999999999999999999
0029227070999991901022313004+62167+030650FM-12+010299999V0200901N009819999999N0000001N9-01281+99999098391ADDGF108991999999999999999999
0029227070999991901022320004+62167+030650FM-12+010299999V0202901N008219999999N0000001N9-01391+99999097801ADDGF108991999999999999999999
0029227070999991901022406004+62167+030650FM-12+010299999V0200701N006219999999N0000001N9-01061+99999096271ADDGF108991999999999999999999
0029227070999991901022413004+62167+030650FM-12+010299999V0200501N011819999999N0000001N9-00721+99999095821ADDGF108991999999999999999999
0029227070999991901022420004+62167+030650FM-12+010299999V0200701N005119999999N0000001N9-01281+99999096191ADDGF108991999999999999999999
0029227070999991901022506004+62167+030650FM-12+010299999V0203201N004119999999N0000001N9-02111+99999096981ADDGF102991999999999999999999
0029227070999991901022513004+62167+030650FM-12+010299999V0202901N005119999999N0000001N9-01671+99999097501ADDGF100991999999999999999999
0029227070999991901022520004+62167+030650FM-12+010299999V0202901N003119999999N0000001N9-01781+99999097581ADDGF103991999999999999999999
0029227070999991901022606004+62167+030650FM-12+010299999V0203201N005119999999N0000001N9-01331+99999098181ADDGF108991999999999999999999
0029227070999991901022613004+62167+030650FM-12+010299999V0202901N006219999999N0000001N9-01171+99999099271ADDGF100991999999999999999999
0029227070999991901022620004+62167+030650FM-12+010299999V0202901N002119999999N0000001N9-01721+99999099781ADDGF100991999999999999999999
0029227070999991901022706004+62167+030650FM-12+010299999V0201101N004119999999N0000001N9-01331+99999099521ADDGF108991999999999999999999
0029227070999991901022713004+62167+030650FM-12+010299999V0203201N003119999999N0000001N9-00611+99999099191ADDGF108991999999999999999999
0029227070999991901022720004+62167+030650FM-12+010299999V0203201N003119999999N0000001N9-00721+99999099001ADDGF108991999999999999999999
0029227070999991901022806004+62167+030650FM-12+010299999V0200701N004119999999N0000001N9-00831+99999098641ADDGF108991999999999999999999
0029227070999991901022813004+62167+030650FM-12+010299999V0200501N007219999999N0000001N9-00611+99999098721ADDGF108991999999999999999999
0029227070999991901022820004+62167+030650FM-12+010299999V0200501N005119999999N0000001N9-01171+99999099201ADDGF103991999999999999999999
0029227070999991901030106004+62167+030650FM-12+010299999V0200501N003119999999N0000001N9-02001+99999099991ADDGF101991999999999999999999
0029227070999991901030113004+62167+030650FM-12+010299999V0200501N006219999999N0000001N9-00941+99999100271ADDGF100991999999999999999999
0029227070999991901030120004+62167+030650FM-12+010299999V0200501N003119999999N0000001N9-01331+99999100641ADDGF100991999999999999999999
0029227070999991901030206004+62167+030650FM-12+010299999V0200201N003119999999N0000001N9-01501+99999100751ADDGF102991999999999999999999
0029227070999991901030213004+62167+030650FM-12+010299999V0200201N004119999999N0000001N9-00781+99999100841ADDGF108991999999999999999999
0029227070999991901030220004+62167+030650FM-12+010299999V0200501N002119999999N0000001N9-01061+99999101001ADDGF108991999999999999999999
0029227070999991901030306004+62167+030650FM-12+010299999V0200501N004119999999N0000001N9-00671+99999100951ADDGF108991999999999999999999
0029227070999991901030313004+62167+030650FM-12+010299999V0200701N006219999999N0000001N9-00221+99999101071ADDGF108991999999999999999999
0029227070999991901030320004+62167+030650FM-12+010299999V0201401N003119999999N0000001N9-00281+99999101351ADDGF108991999999999999999999
0029227070999991901030406004+62167+030650FM-12+010299999V0201101N003119999999N0000001N9-00331+99999101511ADDGF108991999999999999999999
0029227070999991901030413004+62167+030650FM-12+010299999V0201401N004119999999N0000001N9-00221+99999101601ADDGF108991999999999999999999
0029227070999991901030420004+62167+030650FM-12+010299999V0201101N002119999999N0000001N9-00561+99999101581ADDGF108991999999999999999999
0029227070999991901030506004+62167+030650FM-12+010299999V0201601N004119999999N0000001N9-00721+99999101521ADDGF108991999999999999999999
0029227070999991901030513004+62167+030650FM-12+010299999V0201601N005119999999N0000001N9-00561+99999101281ADDGF108991999999999999999999
0029227070999991901030520004+62167+030650FM-12+010299999V0201401N006219999999N0000001N9-00441+99999100991ADDGF108991999999999999999999
0029227070999991901030606004+62167+030650FM-12+010299999V0201101N003119999999N0000001N9-00781+99999100741ADDGF108991999999999999999999
0029227070999991901030613004+62167+030650FM-12+010299999V0200901N004119999999N0000001N9-00441+99999100521ADDGF104991999999999999999999
0029227070999991901030620004+62167+030650FM-12+010299999V0200701N007219999999N0000001N9-00671+99999100441ADDGF100991999999999999999999
0029227070999991901030706004+62167+030650FM-12+010299999V0201101N004119999999N0000001N9-01281+99999100421ADDGF102991999999999999999999
0029227070999991901030713004+62167+030650FM-12+010299999V0201401N006219999999N0000001N9-00561+99999100421ADDGF102991999999999999999999
0029227070999991901030720004+62167+030650FM-12+010299999V0201101N003119999999N0000001N9-01331+99999100581ADDGF102991999999999999999999
0029227070999991901030806004+62167+030650FM-12+010299999V0200901N002119999999N0000001N9-01891+99999100921ADDGF103991999999999999999999
0029227070999991901030813004+62167+030650FM-12+010299999V0201101N003119999999N0000001N9-00671+99999101101ADDGF103991999999999999999999
0029227070999991901030820004+62167+030650FM-12+010299999V0201101N002119999999N0000001N9-01721+99999101241ADDGF100991999999999999999999
0029227070999991901030906004+62167+030650FM-12+010299999V0201101N003119999999N0000001N9-01941+99999101181ADDGF103991999999999999999999
0029227070999991901030913004+62167+030650FM-12+010299999V0201401N004119999999N0000001N9-00501+99999100841ADDGF104991999999999999999999
0029227070999991901030920004+62167+030650FM-12+010299999V0201101N003119999999N0000001N9-00891+99999100231ADDGF108991999999999999999999
0029227070999991901031006004+62167+030650FM-12+010299999V0202301N004119999999N0000001N9-00171+99999098981ADDGF108991999999999999999999
0029227070999991901031013004+62167+030650FM-12+010299999V0202301N003119999999N0000001N9+00221+99999098621ADDGF106991999999999999999999
0029227070999991901031020004+62167+030650FM-12+010299999V0202301N002119999999N0000001N9-00171+99999098921ADDGF101991999999999999999999
0029227070999991901031106004+62167+030650FM-12+010299999V0202001N002119999999N0000001N9-00671+99999099541ADDGF106991999999999999999999
0029227070999991901031113004+62167+030650FM-12+010299999V0202001N004119999999N0000001N9+00111+99999099071ADDGF108991999999999999999999
0029227070999991901031120004+62167+030650FM-12+010299999V0202301N003119999999N0000001N9+00111+99999098391ADDGF108991999999999999999999
0029227070999991901031206004+62167+030650FM-12+010299999V0202501N003119999999N0000001N9-00171+99999098821ADDGF100991999999999999999999
0029227070999991901031213004+62167+030650FM-12+010299999V0202701N006219999999N0000001N9+00001+99999099041ADDGF107991999999999999999999
0029227070999991901031220004+62167+030650FM-12+010299999V0202501N004119999999N0000001N9-00501+99999099471ADDGF100991999999999999999999
0029227070999991901031306004+62167+030650FM-12+010299999V0202701N002119999999N0000001N9-01001+99999100271ADDGF104991999999999999999999
0029227070999991901031313004+62167+030650FM-12+010299999V0201601N007219999999N0000001N9+00061+99999100181ADDGF104991999999999999999999
0029227070999991901031320004+62167+030650FM-12+010299999V0202301N013919999999N0000001N9+00331+99999099361ADDGF100991999999999999999999
0029227070999991901031406004+62167+030650FM-12+010299999V0202901N002119999999N0000001N9-00721+99999101151ADDGF102991999999999999999999
0029227070999991901031413004+62167+030650FM-12+010299999V0203401N006219999999N0000001N9+00061+99999101761ADDGF102991999999999999999999
0029227070999991901031420004+62167+030650FM-12+010299999V0203201N003119999999N0000001N9-00611+99999102201ADDGF100991999999999999999999
0029227070999991901031506004+62167+030650FM-12+010299999V0200201N002119999999N0000001N9-01831+99999102541ADDGF102991999999999999999999
0029227070999991901031513004+62167+030650FM-12+010299999V0201801N004119999999N0000001N9+00111+99999102511ADDGF105991999999999999999999
0029227070999991901031520004+62167+030650FM-12+010299999V0202501N002119999999N0000001N9-00611+99999102261ADDGF100991999999999999999999
0029227070999991901031606004+62167+030650FM-12+010299999V0201101N003119999999N0000001N9-01331+99999101601ADDGF100991999999999999999999
0029227070999991901031613004+62167+030650FM-12+010299999V0201401N007219999999N0000001N9+00061+99999100981ADDGF100991999999999999999999
0029227070999991901031620004+62167+030650FM-12+010299999V0201401N003119999999N0000001N9-00781+99999100481ADDGF100991999999999999999999
0029227070999991901031706004+62167+030650FM-12+010299999V0201601N004119999999N0000001N9-00561+99999099761ADDGF108991999999999999999999
0029227070999991901031713004+62167+030650FM-12+010299999V0201101N002119999999N0000001N9-00061+99999099311ADDGF108991999999999999999999
0029227070999991901031720004+62167+030650FM-12+010299999V0201601N002119999999N0000001N9-00111+99999099221ADDGF105991999999999999999999
0029227070999991901031806004+62167+030650FM-12+010299999V0203601N003119999999N0000001N9-00611+99999099351ADDGF102991999999999999999999
0029227070999991901031813004+62167+030650FM-12+010299999V0203401N002119999999N0000001N9+00061+99999099521ADDGF102991999999999999999999
0029227070999991901031820004+62167+030650FM-12+010299999V0203201N003119999999N0000001N9-01001+99999099781ADDGF100991999999999999999999
0029227070999991901031906004+62167+030650FM-12+010299999V0200201N002119999999N0000001N9-01671+99999099841ADDGF104991999999999999999999
0029227070999991901031913004+62167+030650FM-12+010299999V0200201N002119999999N0000001N9+00061+99999099641ADDGF102991999999999999999999
0029227070999991901031920004+62167+030650FM-12+010299999V0200201N002119999999N0000001N9-01061+99999099541ADDGF100991999999999999999999
0029227070999991901032006004+62167+030650FM-12+010299999V0201601N004119999999N0000001N9-01061+99999099201ADDGF108991999999999999999999
0029227070999991901032013004+62167+030650FM-12+010299999V0202901N003119999999N0000001N9-00061+99999099351ADDGF102991999999999999999999
0029227070999991901032020004+62167+030650FM-12+010299999V0202301N004119999999N0000001N9-00611+99999099541ADDGF100991999999999999999999
0029227070999991901032106004+62167+030650FM-12+010299999V0202901N003119999999N0000001N9-00891+99999099861ADDGF100991999999999999999999
0029227070999991901032113004+62167+030650FM-12+010299999V0202901N004119999999N0000001N9-00221+99999100271ADDGF100991999999999999999999
0029227070999991901032120004+62167+030650FM-12+010299999V0202901N002119999999N0000001N9-01061+99999100551ADDGF100991999999999999999999
0029227070999991901032206004+62167+030650FM-12+010299999V0203401N002119999999N0000001N9-01831+99999100711ADDGF102991999999999999999999
0029227070999991901032213004+62167+030650FM-12+010299999V0202901N003119999999N0000001N9+00001+99999101021ADDGF100991999999999999999999
0029227070999991901032220004+62167+030650FM-12+010299999V0202901N002119999999N0000001N9-00941+99999100941ADDGF100991999999999999999999
0029227070999991901032306004+62167+030650FM-12+010299999V0201101N003119999999N0000001N9-01441+99999100521ADDGF106991999999999999999999
0029227070999991901032313004+62167+030650FM-12+010299999V0202901N004119999999N0000001N9+00331+99999100391ADDGF103991999999999999999999
0029227070999991901032320004+62167+030650FM-12+010299999V0202501N001019999999N0000001N9-00221+99999100231ADDGF100991999999999999999999
0029227070999991901032406004+62167+030650FM-12+010299999V0202301N002119999999N0000001N9-00061+99999099511ADDGF103991999999999999999999
0029227070999991901032413004+62167+030650FM-12+010299999V0202301N008219999999N0000001N9+00501+99999098831ADDGF104991999999999999999999
0029227070999991901032420004+62167+030650FM-12+010299999V0202301N003119999999N0000001N9+00111+99999098351ADDGF108991999999999999999999
0029227070999991901032506004+62167+030650FM-12+010299999V0203601N006219999999N0000001N9-01001+99999098791ADDGF108991999999999999999999
0029227070999991901032513004+62167+030650FM-12+010299999V0203601N007219999999N0000001N9-00941+99999098671ADDGF108991999999999999999999
0029227070999991901032520004+62167+030650FM-12+010299999V0200501N005119999999N0000001N9-01061+99999098471ADDGF108991999999999999999999
0029227070999991901032606004+62167+030650FM-12+010299999V0201101N004119999999N0000001N9-01441+99999098881ADDGF104991999999999999999999
0029227070999991901032613004+62167+030650FM-12+010299999V0201401N005119999999N0000001N9-00671+99999099321ADDGF100991999999999999999999
0029227070999991901032620004+62167+030650FM-12+010299999V0201401N003119999999N0000001N9-01061+99999099551ADDGF103991999999999999999999
0029227070999991901032706004+62167+030650FM-12+010299999V0201101N004119999999N0000001N9-01111+99999099881ADDGF102991999999999999999999
0029227070999991901032713004+62167+030650FM-12+010299999V0202001N004119999999N0000001N9-00501+99999100141ADDGF102991999999999999999999
0029227070999991901032720004+62167+030650FM-12+010299999V0202301N003119999999N0000001N9-00941+99999100401ADDGF106991999999999999999999
0029227070999991901032806004+62167+030650FM-12+010299999V0201401N003119999999N0000001N9-01941+99999100861ADDGF100991999999999999999999
0029227070999991901032813004+62167+030650FM-12+010299999V0203401N003119999999N0000001N9-00331+99999100661ADDGF100991999999999999999999
0029227070999991901032820004+62167+030650FM-12+010299999V0203201N002119999999N0000001N9-01111+99999100381ADDGF100991999999999999999999
0029227070999991901032906004+62167+030650FM-12+010299999V0200201N001019999999N0000001N9-01671+99999100381ADDGF102991999999999999999999
0029227070999991901032913004+62167+030650FM-12+010299999V0202901N003119999999N0000001N9-00221+99999100551ADDGF101991999999999999999999
0029227070999991901032920004+62167+030650FM-12+010299999V0203201N003119999999N0000001N9-01441+99999100921ADDGF100991999999999999999999
0029227070999991901033006004+62167+030650FM-12+010299999V0200201N002119999999N0000001N9-01941+99999101301ADDGF101991999999999999999999
0029227070999991901033013004+62167+030650FM-12+010299999V0200501N004119999999N0000001N9-00061+99999101151ADDGF102991999999999999999999
0029227070999991901033020004+62167+030650FM-12+010299999V0200701N006219999999N0000001N9-00391+99999100881ADDGF107991999999999999999999
0029227070999991901033106004+62167+030650FM-12+010299999V0200201N005119999999N0000001N9-00561+99999100631ADDGF108991999999999999999999
0029227070999991901033113004+62167+030650FM-12+010299999V0203401N003119999999N0000001N9-00061+99999101001ADDGF100991999999999999999999
0029227070999991901033120004+62167+030650FM-12+010299999V0201101N003119999999N0000001N9-00671+99999101341ADDGF100991999999999999999999
0029227070999991901040106004+62167+030650FM-12+010299999V0201401N004119999999N0000001N9-00441+99999100581ADDGF108991999999999999999999
0029227070999991901040113004+62167+030650FM-12+010299999V0201101N006219999999N0000001N9+00061+99999100391ADDGF108991999999999999999999
0029227070999991901040120004+62167+030650FM-12+010299999V0201401N005119999999N0000001N9+00331+99999099981ADDGF108991999999999999999999
0029227070999991901040206004+62167+030650FM-12+010299999V0202001N004119999999N0000001N9+00281+99999100031ADDGF108991999999999999999999
0029227070999991901040213004+62167+030650FM-12+010299999V0202001N005119999999N0000001N9+00281+99999100081ADDGF108991999999999999999999
0029227070999991901040220004+62167+030650FM-12+010299999V0202001N003119999999N0000001N9+00221+99999100221ADDGF108991999999999999999999
0029227070999991901040306004+62167+030650FM-12+010299999V0202001N003119999999N0000001N9+00001+99999100761ADDGF105991999999999999999999
0029227070999991901040313004+62167+030650FM-12+010299999V0202301N005119999999N0000001N9+00281+99999101081ADDGF108991999999999999999999
0029227070999991901040320004+62167+030650FM-12+010299999V0202501N002119999999N0000001N9+00001+99999101191ADDGF104991999999999999999999
0029227070999991901040406004+62167+030650FM-12+010299999V0201101N007219999999N0000001N9+00001+99999100521ADDGF108991999999999999999999
0029227070999991901040413004+62167+030650FM-12+010299999V0202301N011819999999N0000001N9+00111+99999099721ADDGF108991999999999999999999
0029227070999991901040420004+62167+030650FM-12+010299999V0202501N008219999999N0000001N9+00111+99999098631ADDGF108991999999999999999999
0029227070999991901040506004+62167+030650FM-12+010299999V0201101N006219999999N0000001N9+00171+99999097841ADDGF108991999999999999999999
0029227070999991901040513004+62167+030650FM-12+010299999V0201401N005119999999N0000001N9+00171+99999097981ADDGF108991999999999999999999
0029227070999991901040520004+62167+030650FM-12+010299999V0201401N003119999999N0000001N9+00001+99999098111ADDGF106991999999999999999999
0029227070999991901040606004+62167+030650FM-12+010299999V0201401N002119999999N0000001N9+00001+99999098351ADDGF103991999999999999999999
0029227070999991901040613004+62167+030650FM-12+010299999V0201601N002119999999N0000001N9+00281+99999098521ADDGF107991999999999999999999
0029227070999991901040620004+62167+030650FM-12+010299999V0201401N002119999999N0000001N9+00111+99999098521ADDGF108991999999999999999999
0029227070999991901040706004+62167+030650FM-12+010299999V0202901N003119999999N0000001N9-00171+99999098831ADDGF100991999999999999999999
0029227070999991901040713004+62167+030650FM-12+010299999V0202901N005119999999N0000001N9+00331+99999099061ADDGF100991999999999999999999
0029227070999991901040720004+62167+030650FM-12+010299999V0202901N003119999999N0000001N9-00221+99999099421ADDGF100991999999999999999999
0029227070999991901040806004+62167+030650FM-12+010299999V0202901N002119999999N0000001N9-00171+99999100021ADDGF102991999999999999999999
0029227070999991901040813004+62167+030650FM-12+010299999V0202901N004119999999N0000001N9+00331+99999100351ADDGF108991999999999999999999
0029227070999991901040820004+62167+030650FM-12+010299999V0200501N002119999999N0000001N9-00281+99999100511ADDGF100991999999999999999999
0029227070999991901040906004+62167+030650FM-12+010299999V0201101N003119999999N0000001N9-00281+99999100541ADDGF103991999999999999999999
0029227070999991901040913004+62167+030650FM-12+010299999V0201101N005119999999N0000001N9+00331+99999100271ADDGF107991999999999999999999
0029227070999991901040920004+62167+030650FM-12+010299999V0201601N003119999999N0000001N9-00061+99999099861ADDGF102991999999999999999999
0029227070999991901041006004+62167+030650FM-12+010299999V0201401N004119999999N0000001N9+00001+99999098961ADDGF108991999999999999999999
0029227070999991901041013004+62167+030650FM-12+010299999V0201401N005119999999N0000001N9+00281+99999098641ADDGF108991999999999999999999
0029227070999991901041020004+62167+030650FM-12+010299999V0201401N002119999999N0000001N9+00221+99999098911ADDGF108991999999999999999999
0029227070999991901041106004+62167+030650FM-12+010299999V0201801N002119999999N0000001N9+00221+99999099121ADDGF108991999999999999999999
0029227070999991901041113004+62167+030650FM-12+010299999V0201401N005119999999N0000001N9+00391+99999099071ADDGF108991999999999999999999
0029227070999991901041120004+62167+030650FM-12+010299999V0201401N003119999999N0000001N9+00221+99999098991ADDGF108991999999999999999999
0029227070999991901041206004+62167+030650FM-12+010299999V0200201N003119999999N0000001N9+00171+99999098921ADDGF108991999999999999999999
0029227070999991901041213004+62167+030650FM-12+010299999V0203201N004119999999N0000001N9+00501+99999099041ADDGF104991999999999999999999
0029227070999991901041220004+62167+030650FM-12+010299999V0203201N002119999999N0000001N9+00111+99999099501ADDGF102991999999999999999999
0029227070999991901041306004+62167+030650FM-12+010299999V0203201N002119999999N0000001N9+00061+99999100111ADDGF108991999999999999999999
0029227070999991901041313004+62167+030650FM-12+010299999V0200501N003119999999N0000001N9+00331+99999100401ADDGF102991999999999999999999
0029227070999991901041320004+62167+030650FM-12+010299999V0200501N003119999999N0000001N9-00061+99999100551ADDGF100991999999999999999999
0029227070999991901041406004+62167+030650FM-12+010299999V0200201N006219999999N0000001N9-00331+99999100191ADDGF102991999999999999999999
0029227070999991901041413004+62167+030650FM-12+010299999V0200501N015919999999N0000001N9-00111+99999099681ADDGF108991999999999999999999
0029227070999991901041420004+62167+030650FM-12+010299999V0200501N013919999999N0000001N9-00331+99999099071ADDGF108991999999999999999999
0029227070999991901041506004+62167+030650FM-12+010299999V0200201N015919999999N0000001N9-00441+99999098801ADDGF108991999999999999999999
0029227070999991901041513004+62167+030650FM-12+010299999V0200201N009819999999N0000001N9-00331+99999098711ADDGF108991999999999999999999
0029227070999991901041520004+62167+030650FM-12+010299999V0200501N008219999999N0000001N9-00331+99999098581ADDGF108991999999999999999999
0029227070999991901041606004+62167+030650FM-12+010299999V0200201N004119999999N0000001N9-00331+99999099031ADDGF108991999999999999999999
0029227070999991901041613004+62167+030650FM-12+010299999V0202301N002119999999N0000001N9+00061+99999099821ADDGF108991999999999999999999
0029227070999991901041620004+62167+030650FM-12+010299999V0202501N003119999999N0000001N9-00111+99999100341ADDGF108991999999999999999999
0029227070999991901041706004+62167+030650FM-12+010299999V0201401N005119999999N0000001N9+00331+99999100241ADDGF107991999999999999999999
0029227070999991901041713004+62167+030650FM-12+010299999V0201101N006219999999N0000001N9+00781+99999100271ADDGF108991999999999999999999
0029227070999991901041720004+62167+030650FM-12+010299999V0201401N001019999999N0000001N9+00611+99999100161ADDGF101991999999999999999999
0029227070999991901041806004+62167+030650FM-12+010299999V0200201N001019999999N0000001N9+00281+99999099751ADDGF108991999999999999999999
0029227070999991901041813004+62167+030650FM-12+010299999V0201401N002119999999N0000001N9+01001+99999099921ADDGF102991999999999999999999
0029227070999991901041820004+62167+030650FM-12+010299999V0201401N003119999999N0000001N9+00391+99999099661ADDGF108991999999999999999999
0029227070999991901041906004+62167+030650FM-12+010299999V0202701N004119999999N0000001N9+00061+99999099961ADDGF108991999999999999999999
0029227070999991901041913004+62167+030650FM-12+010299999V0202501N006219999999N0000001N9+00501+99999100881ADDGF102991999999999999999999
0029227070999991901041920004+62167+030650FM-12+010299999V0202301N002119999999N0000001N9+00171+99999101021ADDGF101991999999999999999999
0029227070999991901042006004+62167+030650FM-12+010299999V0201401N001019999999N0000001N9-00061+99999101201ADDGF101991999999999999999999
0029227070999991901042013004+62167+030650FM-12+010299999V0202701N002119999999N0000001N9+00611+99999101191ADDGF102991999999999999999999
0029227070999991901042020004+62167+030650FM-12+010299999V0202501N001019999999N0000001N9+00111+99999101111ADDGF101991999999999999999999
0029227070999991901042106004+62167+030650FM-12+010299999V0200501N001019999999N0000001N9+00281+99999101161ADDGF102991999999999999999999
0029227070999991901042113004+62167+030650FM-12+010299999V0200201N003119999999N0000001N9+00671+99999101141ADDGF107991999999999999999999
0029227070999991901042120004+62167+030650FM-12+010299999V0200201N002119999999N0000001N9-00061+99999101201ADDGF101991999999999999999999
0029227070999991901042206004+62167+030650FM-12+010299999V0201101N001019999999N0000001N9+00061+99999101311ADDGF102991999999999999999999
0029227070999991901042213004+62167+030650FM-12+010299999V0202501N004119999999N0000001N9+00671+99999101421ADDGF103991999999999999999999
0029227070999991901042220004+62167+030650FM-12+010299999V0202901N002119999999N0000001N9+00331+99999101541ADDGF108991999999999999999999
0029227070999991901042306004+62167+030650FM-12+010299999V0202901N002119999999N0000001N9+00221+99999101521ADDGF108991999999999999999999
0029227070999991901042313004+62167+030650FM-12+010299999V0202701N002119999999N0000001N9+00391+99999101441ADDGF108991999999999999999999
0029227070999991901042320004+62167+030650FM-12+010299999V0202701N003119999999N0000001N9+00221+99999101661ADDGF104991999999999999999999
0029227070999991901042406004+62167+030650FM-12+010299999V0200201N008219999999N0000001N9+00061+99999102081ADDGF106991999999999999999999
0029227070999991901042413004+62167+030650FM-12+010299999V0200201N005119999999N0000001N9+00221+99999102381ADDGF104991999999999999999999
0029227070999991901042420004+62167+030650FM-12+010299999V0200501N002119999999N0000001N9-00221+99999102401ADDGF100991999999999999999999
0029227070999991901042506004+62167+030650FM-12+010299999V0200201N002119999999N0000001N9-00171+99999102301ADDGF100991999999999999999999
0029227070999991901042513004+62167+030650FM-12+010299999V0203601N004119999999N0000001N9+00721+99999102071ADDGF100991999999999999999999
0029227070999991901042520004+62167+030650FM-12+010299999V0203601N002119999999N0000001N9+00171+99999102071ADDGF100991999999999999999999
0029227070999991901042606004+62167+030650FM-12+010299999V0200501N003119999999N0000001N9+00331+99999102311ADDGF100991999999999999999999
0029227070999991901042613004+62167+030650FM-12+010299999V0200501N005119999999N0000001N9+01061+99999102351ADDGF100991999999999999999999
0029227070999991901042620004+62167+030650FM-12+010299999V0200201N002119999999N0000001N9+00281+99999102361ADDGF100991999999999999999999
0029227070999991901042706004+62167+030650FM-12+010299999V0200201N001019999999N0000001N9+00391+99999102501ADDGF100991999999999999999999
0029227070999991901042713004+62167+030650FM-12+010299999V0203401N002119999999N0000001N9+01441+99999102301ADDGF102991999999999999999999
0029227070999991901042720004+62167+030650FM-12+010299999V0203201N001019999999N0000001N9+00561+99999102121ADDGF100991999999999999999999
0029227070999991901042806004+62167+030650FM-12+010299999V0203201N002119999999N0000001N9+00391+99999102231ADDGF100991999999999999999999
0029227070999991901042813004+62167+030650FM-12+010299999V0202901N002119999999N0000001N9+01721+99999101981ADDGF100991999999999999999999
0029227070999991901042820004+62167+030650FM-12+010299999V0202701N001019999999N0000001N9+00611+99999101711ADDGF100991999999999999999999
0029227070999991901042906004+62167+030650FM-12+010299999V0202701N002119999999N0000001N9+00671+99999101541ADDGF100991999999999999999999
0029227070999991901042913004+62167+030650FM-12+010299999V0202901N004119999999N0000001N9+01611+99999101381ADDGF100991999999999999999999
0029227070999991901042920004+62167+030650FM-12+010299999V0200501N005119999999N0000001N9+00721+99999101621ADDGF100991999999999999999999
0029227070999991901043006004+62167+030650FM-12+010299999V0200701N006219999999N0000001N9+00061+99999102111ADDGF101991999999999999999999
0029227070999991901043013004+62167+030650FM-12+010299999V0200701N004119999999N0000001N9+00781+99999102121ADDGF102991999999999999999999
0029227070999991901043020004+62167+030650FM-12+010299999V0200901N002119999999N0000001N9+00111+99999102041ADDGF100991999999999999999999
0029227070999991901050106004+62167+030650FM-12+010299999V0200901N002119999999N0000001N9+00221+99999102111ADDGF100991999999999999999999
0029227070999991901050113004+62167+030650FM-12+010299999V0202901N002119999999N0000001N9+01171+99999102061ADDGF100991999999999999999999
0029227070999991901050120004+62167+030650FM-12+010299999V0202901N003119999999N0000001N9+00441+99999101751ADDGF100991999999999999999999
0029227070999991901050206004+62167+030650FM-12+010299999V0200201N002119999999N0000001N9+00501+99999101661ADDGF100991999999999999999999
0029227070999991901050213004+62167+030650FM-12+010299999V0201801N002119999999N0000001N9+01721+99999101381ADDGF101991999999999999999999
0029227070999991901050220004+62167+030650FM-12+010299999V0201401N002119999999N0000001N9+00831+99999101101ADDGF102991999999999999999999
0029227070999991901050306004+62167+030650FM-12+010299999V0202901N001019999999N0000001N9+00781+99999100591ADDGF102991999999999999999999
0029227070999991901050313004+62167+030650FM-12+010299999V0202701N004119999999N0000001N9+01331+99999100161ADDGF103991999999999999999999
0029227070999991901050320004+62167+030650FM-12+010299999V0202901N002119999999N0000001N9+00781+99999099801ADDGF107991999999999999999999
0029227070999991901050406004+62167+030650FM-12+010299999V0202901N005119999999N0000001N9+00331+99999099311ADDGF108991999999999999999999
0029227070999991901050413004+62167+030650FM-12+010299999V0203401N008219999999N0000001N9+00221+99999099441ADDGF108991999999999999999999
0029227070999991901050420004+62167+030650FM-12+010299999V0203401N006219999999N0000001N9+00001+99999099441ADDGF108991999999999999999999
0029227070999991901050506004+62167+030650FM-12+010299999V0203401N005119999999N0000001N9-00281+99999099071ADDGF108991999999999999999999
0029227070999991901050513004+62167+030650FM-12+010299999V0203401N006219999999N0000001N9-00061+99999098921ADDGF108991999999999999999999
0029227070999991901050520004+62167+030650FM-12+010299999V0203401N004119999999N0000001N9-00111+99999098631ADDGF108991999999999999999999
0029227070999991901050606004+62167+030650FM-12+010299999V0200201N002119999999N0000001N9-00331+99999098421ADDGF108991999999999999999999
0029227070999991901050613004+62167+030650FM-12+010299999V0200201N004119999999N0000001N9-00331+99999098541ADDGF108991999999999999999999
0029227070999991901050620004+62167+030650FM-12+010299999V0202701N002119999999N0000001N9-00281+99999098511ADDGF108991999999999999999999
0029227070999991901050706004+62167+030650FM-12+010299999V0202301N004119999999N0000001N9-00171+99999098901ADDGF108991999999999999999999
0029227070999991901050713004+62167+030650FM-12+010299999V0202701N003119999999N0000001N9-00111+99999099421ADDGF108991999999999999999999
0029227070999991901050720004+62167+030650FM-12+010299999V0202301N002119999999N0000001N9-00281+99999100081ADDGF102991999999999999999999
0029227070999991901050806004+62167+030650FM-12+010299999V0202301N002119999999N0000001N9-00061+99999101061ADDGF102991999999999999999999
0029227070999991901050813004+62167+030650FM-12+010299999V0202901N003119999999N0000001N9+00391+99999101801ADDGF104991999999999999999999
0029227070999991901050820004+62167+030650FM-12+010299999V0200701N003119999999N0000001N9+00061+99999102301ADDGF100991999999999999999999
0029227070999991901050906004+62167+030650FM-12+010299999V0201101N004119999999N0000001N9+00281+99999102831ADDGF100991999999999999999999
0029227070999991901050913004+62167+030650FM-12+010299999V0201601N004119999999N0000001N9+00891+99999102781ADDGF100991999999999999999999
0029227070999991901050920004+62167+030650FM-12+010299999V0201401N001019999999N0000001N9+00331+99999102821ADDGF102991999999999999999999
0029227070999991901051006004+62167+030650FM-12+010299999V0200901N002119999999N0000001N9+00781+99999102961ADDGF100991999999999999999999
0029227070999991901051013004+62167+030650FM-12+010299999V0201801N003119999999N0000001N9+01501+99999102871ADDGF100991999999999999999999
0029227070999991901051020004+62167+030650FM-12+010299999V0201601N002119999999N0000001N9+00671+99999102871ADDGF101991999999999999999999
0029227070999991901051106004+62167+030650FM-12+010299999V0201601N003119999999N0000001N9+00941+99999102981ADDGF100991999999999999999999
0029227070999991901051113004+62167+030650FM-12+010299999V0201801N005119999999N0000001N9+01781+99999102961ADDGF100991999999999999999999
0029227070999991901051120004+62167+030650FM-12+010299999V0201601N001019999999N0000001N9+00941+99999102921ADDGF101991999999999999999999
0029227070999991901051206004+62167+030650FM-12+010299999V0201401N002119999999N0000001N9+01331+99999102941ADDGF102991999999999999999999
0029227070999991901051213004+62167+030650FM-12+010299999V0201601N003119999999N0000001N9+02221+99999102631ADDGF102991999999999999999999
0029227070999991901051220004+62167+030650FM-12+010299999V0201601N001019999999N0000001N9+01331+99999102441ADDGF103991999999999999999999
0029227070999991901051306004+62167+030650FM-12+010299999V0200501N001019999999N0000001N9+01441+99999102341ADDGF100991999999999999999999
0029227070999991901051313004+62167+030650FM-12+010299999V0203601N002119999999N0000001N9+02221+99999102201ADDGF101991999999999999999999
0029227070999991901051320004+62167+030650FM-12+010299999V0200201N002119999999N0000001N9+01721+99999102061ADDGF101991999999999999999999
0029227070999991901051406004+62167+030650FM-12+010299999V0200201N002119999999N0000001N9+01501+99999102121ADDGF102991999999999999999999
0029227070999991901051413004+62167+030650FM-12+010299999V0200701N006219999999N0000001N9+02221+99999101881ADDGF103991999999999999999999
0029227070999991901051420004+62167+030650FM-12+010299999V0200201N001019999999N0000001N9+01721+99999101641ADDGF102991999999999999999999
0029227070999991901051506004+62167+030650FM-12+010299999V0200501N004119999999N0000001N9+01171+99999101361ADDGF102991999999999999999999
0029227070999991901051513004+62167+030650FM-12+010299999V0200201N004119999999N0000001N9+01671+99999100911ADDGF100991999999999999999999
0029227070999991901051520004+62167+030650FM-12+010299999V0201401N002119999999N0000001N9+01221+99999100681ADDGF100991999999999999999999
0029227070999991901051606004+62167+030650FM-12+010299999V0200701N004119999999N0000001N9+01331+99999100101ADDGF100991999999999999999999
0029227070999991901051613004+62167+030650FM-12+010299999V0201601N006219999999N0000001N9+01671+99999099581ADDGF107991999999999999999999
0029227070999991901051620004+62167+030650FM-12+010299999V0201101N004119999999N0000001N9+01171+99999099191ADDGF107991999999999999999999
0029227070999991901051706004+62167+030650FM-12+010299999V0201401N003119999999N0000001N9+00941+99999098871ADDGF108991999999999999999999
0029227070999991901051713004+62167+030650FM-12+010299999V0202001N004119999999N0000001N9+01441+99999099161ADDGF107991999999999999999999
0029227070999991901051720004+62167+030650FM-12+010299999V0200901N003119999999N0000001N9+00891+99999099361ADDGF106991999999999999999999
0029227070999991901051806004+62167+030650FM-12+010299999V0201401N004119999999N0000001N9+00671+99999099541ADDGF108991999999999999999999
0029227070999991901051813004+62167+030650FM-12+010299999V0201601N004119999999N0000001N9+00941+99999099671ADDGF104991999999999999999999
0029227070999991901051820004+62167+030650FM-12+010299999V0201601N005119999999N0000001N9+00561+99999099661ADDGF106991999999999999999999
0029227070999991901051906004+62167+030650FM-12+010299999V0202001N004119999999N0000001N9+00441+99999099751ADDGF108991999999999999999999
0029227070999991901051913004+62167+030650FM-12+010299999V0202001N005119999999N0000001N9+00831+99999099921ADDGF107991999999999999999999
0029227070999991901051920004+62167+030650FM-12+010299999V0201101N003119999999N0000001N9+00611+99999100201ADDGF106991999999999999999999
0029227070999991901052006004+62167+030650FM-12+010299999V0203401N002119999999N0000001N9+00671+99999100551ADDGF102991999999999999999999
0029227070999991901052013004+62167+030650FM-12+010299999V0202701N006219999999N0000001N9+01001+99999100911ADDGF103991999999999999999999
0029227070999991901052020004+62167+030650FM-12+010299999V0202901N004119999999N0000001N9+00441+99999101471ADDGF102991999999999999999999
0029227070999991901052106004+62167+030650FM-12+010299999V0203201N004119999999N0000001N9+00501+99999102221ADDGF101991999999999999999999
0029227070999991901052113004+62167+030650FM-12+010299999V0203401N008219999999N0000001N9+01061+99999102381ADDGF102991999999999999999999
0029227070999991901052120004+62167+030650FM-12+010299999V0202701N003119999999N0000001N9+00561+99999102501ADDGF102991999999999999999999
0029227070999991901052206004+62167+030650FM-12+010299999V0202001N002119999999N0000001N9+01061+99999102781ADDGF105991999999999999999999
0029227070999991901052213004+62167+030650FM-12+010299999V0202501N007219999999N0000001N9+01671+99999102631ADDGF106991999999999999999999
0029227070999991901052220004+62167+030650FM-12+010299999V0201401N002119999999N0000001N9+00891+99999102421ADDGF104991999999999999999999
0029227070999991901052306004+62167+030650FM-12+010299999V0201601N002119999999N0000001N9+01281+99999102281ADDGF102991999999999999999999
0029227070999991901052313004+62167+030650FM-12+010299999V0202501N004119999999N0000001N9+02111+99999101941ADDGF104991999999999999999999
0029227070999991901052320004+62167+030650FM-12+010299999V0201101N003119999999N0000001N9+01061+99999101641ADDGF103991999999999999999999
0029227070999991901052406004+62167+030650FM-12+010299999V0200201N001019999999N0000001N9+01281+99999101221ADDGF103991999999999999999999
0029227070999991901052413004+62167+030650FM-12+010299999V0203401N008219999999N0000001N9+01331+99999101391ADDGF102991999999999999999999
0029227070999991901052420004+62167+030650FM-12+010299999V0202901N002119999999N0000001N9+00781+99999101301ADDGF102991999999999999999999
0029227070999991901052506004+62167+030650FM-12+010299999V0202501N004119999999N0000001N9+00781+99999100831ADDGF108991999999999999999999
0029227070999991901052513004+62167+030650FM-12+010299999V0202901N011819999999N0000001N9+01281+99999100821ADDGF101991999999999999999999
0029227070999991901052520004+62167+030650FM-12+010299999V0203601N001019999999N0000001N9+00721+99999100951ADDGF102991999999999999999999
0029227070999991901052606004+62167+030650FM-12+010299999V0202301N006219999999N0000001N9+00941+99999100661ADDGF101991999999999999999999
0029227070999991901052613004+62167+030650FM-12+010299999V0202501N007219999999N0000001N9+01331+99999100141ADDGF107991999999999999999999
0029227070999991901052620004+62167+030650FM-12+010299999V0202901N002119999999N0000001N9+00941+99999099981ADDGF104991999999999999999999
0029227070999991901052706004+62167+030650FM-12+010299999V0200501N005119999999N0000001N9+00501+99999100161ADDGF108991999999999999999999
0029227070999991901052713004+62167+030650FM-12+010299999V0200701N004119999999N0000001N9+00501+99999100201ADDGF108991999999999999999999
0029227070999991901052720004+62167+030650FM-12+010299999V0200701N002119999999N0000001N9+00331+99999100271ADDGF102991999999999999999999
0029227070999991901052806004+62167+030650FM-12+010299999V0201601N003119999999N0000001N9+00781+99999100231ADDGF102991999999999999999999
0029227070999991901052813004+62167+030650FM-12+010299999V0201601N005119999999N0000001N9+01221+99999099941ADDGF107991999999999999999999
0029227070999991901052820004+62167+030650FM-12+010299999V0201401N002119999999N0000001N9+00941+99999099321ADDGF102991999999999999999999
0029227070999991901052906004+62167+030650FM-12+010299999V0201801N002119999999N0000001N9+01171+99999099101ADDGF106991999999999999999999
0029227070999991901052913004+62167+030650FM-12+010299999V0203401N005119999999N0000001N9+01001+99999099431ADDGF105991999999999999999999
0029227070999991901052920004+62167+030650FM-12+010299999V0200201N004119999999N0000001N9+00331+99999099861ADDGF102991999999999999999999
0029227070999991901053006004+62167+030650FM-12+010299999V0203401N003119999999N0000001N9+00611+99999100301ADDGF102991999999999999999999
0029227070999991901053013004+62167+030650FM-12+010299999V0202501N004119999999N0000001N9+00891+99999100461ADDGF107991999999999999999999
0029227070999991901053020004+62167+030650FM-12+010299999V0202501N003119999999N0000001N9+00611+99999100381ADDGF107991999999999999999999
0029227070999991901053106004+62167+030650FM-12+010299999V0201601N002119999999N0000001N9+00671+99999100631ADDGF108991999999999999999999
0029227070999991901053113004+62167+030650FM-12+010299999V0203201N005119999999N0000001N9+00721+99999100751ADDGF105991999999999999999999
0029227070999991901053120004+62167+030650FM-12+010299999V0201101N002119999999N0000001N9+00561+99999100981ADDGF100991999999999999999999
0029227070999991901060106004+62167+030650FM-12+010299999V0201601N004119999999N0000001N9+00781+99999101001ADDGF106991999999999999999999
0029227070999991901060113004+62167+030650FM-12+010299999V0201401N007219999999N0000001N9+00831+99999100471ADDGF108991999999999999999999
0029227070999991901060120004+62167+030650FM-12+010299999V0201401N003119999999N0000001N9+01061+99999100141ADDGF108991999999999999999999
0029227070999991901060206004+62167+030650FM-12+010299999V0202901N003119999999N0000001N9+01561+99999100261ADDGF103991999999999999999999
0029227070999991901060213004+62167+030650FM-12+010299999V0202301N004119999999N0000001N9+01831+99999100401ADDGF108991999999999999999999
0029227070999991901060220004+62167+030650FM-12+010299999V0202301N003119999999N0000001N9+01331+99999100201ADDGF108991999999999999999999
0029227070999991901060306004+62167+030650FM-12+010299999V0203601N004119999999N0000001N9+01171+99999099521ADDGF108991999999999999999999
0029227070999991901060313004+62167+030650FM-12+010299999V0202901N006219999999N0000001N9+01561+99999100201ADDGF106991999999999999999999
0029227070999991901060320004+62167+030650FM-12+010299999V0202301N002119999999N0000001N9+01281+99999100201ADDGF103991999999999999999999
0029227070999991901060406004+62167+030650FM-12+010299999V0203201N001019999999N0000001N9+01561+99999100301ADDGF100991999999999999999999
0029227070999991901060413004+62167+030650FM-12+010299999V0202701N011819999999N0000001N9+01941+99999100511ADDGF104991999999999999999999
0029227070999991901060420004+62167+030650FM-12+010299999V0203201N002119999999N0000001N9+01331+99999100701ADDGF106991999999999999999999
0029227070999991901060506004+62167+030650FM-12+010299999V0200701N006219999999N0000001N9+01501+99999101281ADDGF100991999999999999999999
0029227070999991901060513004+62167+030650FM-12+010299999V0200501N008219999999N0000001N9+02111+99999101341ADDGF104991999999999999999999
0029227070999991901060520004+62167+030650FM-12+010299999V0200701N002119999999N0000001N9+01561+99999101401ADDGF102991999999999999999999
0029227070999991901060606004+62167+030650FM-12+010299999V0201101N003119999999N0000001N9+01611+99999101541ADDGF104991999999999999999999
0029227070999991901060613004+62167+030650FM-12+010299999V0201101N004119999999N0000001N9+02061+99999101341ADDGF104991999999999999999999
0029227070999991901060620004+62167+030650FM-12+010299999V0201101N002119999999N0000001N9+01391+99999101191ADDGF102991999999999999999999
0029227070999991901060706004+62167+030650FM-12+010299999V0201601N002119999999N0000001N9+01721+99999101261ADDGF102991999999999999999999
0029227070999991901060713004+62167+030650FM-12+010299999V0202001N005119999999N0000001N9+02221+99999101151ADDGF106991999999999999999999
0029227070999991901060720004+62167+030650FM-12+010299999V0202001N003119999999N0000001N9+01781+99999101261ADDGF101991999999999999999999
0029227070999991901060806004+62167+030650FM-12+010299999V0200501N002119999999N0000001N9+01941+99999101361ADDGF103991999999999999999999
0029227070999991901060813004+62167+030650FM-12+010299999V0202701N004119999999N0000001N9+02561+99999101281ADDGF102991999999999999999999
0029227070999991901060820004+62167+030650FM-12+010299999V0202301N002119999999N0000001N9+01671+99999101341ADDGF101991999999999999999999
0029227070999991901060906004+62167+030650FM-12+010299999V0201401N002119999999N0000001N9+02171+99999101321ADDGF102991999999999999999999
0029227070999991901060913004+62167+030650FM-12+010299999V0200701N002119999999N0000001N9+02501+99999101161ADDGF103991999999999999999999
0029227070999991901060920004+62167+030650FM-12+010299999V0201601N001019999999N0000001N9+01561+99999101041ADDGF102991999999999999999999
0029227070999991901061006004+62167+030650FM-12+010299999V0201401N001019999999N0000001N9+02061+99999100881ADDGF100991999999999999999999
0029227070999991901061013004+62167+030650FM-12+010299999V0201601N004119999999N0000001N9+02671+99999100601ADDGF101991999999999999999999
0029227070999991901061020004+62167+030650FM-12+010299999V0201401N002119999999N0000001N9+01611+99999100391ADDGF102991999999999999999999
0029227070999991901061106004+62167+030650FM-12+010299999V0202701N003119999999N0000001N9+01441+99999100201ADDGF108991999999999999999999
0029227070999991901061113004+62167+030650FM-12+010299999V0201601N006219999999N0000001N9+02391+99999099831ADDGF102991999999999999999999
0029227070999991901061120004+62167+030650FM-12+010299999V0201401N002119999999N0000001N9+01721+99999099351ADDGF102991999999999999999999
0029227070999991901061206004+62167+030650FM-12+010299999V0202701N008219999999N0000001N9+01671+99999098921ADDGF102991999999999999999999
0029227070999991901061213004+62167+030650FM-12+010299999V0201601N011819999999N0000001N9+01831+99999098871ADDGF102991999999999999999999
0029227070999991901061220004+62167+030650FM-12+010299999V0201601N002119999999N0000001N9+01221+99999098801ADDGF102991999999999999999999
0029227070999991901061306004+62167+030650FM-12+010299999V0202001N006219999999N0000001N9+01111+99999099041ADDGF103991999999999999999999
0029227070999991901061313004+62167+030650FM-12+010299999V0201801N008219999999N0000001N9+01331+99999099181ADDGF108991999999999999999999
0029227070999991901061320004+62167+030650FM-12+010299999V0201601N004119999999N0000001N9+01001+99999099201ADDGF108991999999999999999999
0029227070999991901061406004+62167+030650FM-12+010299999V0201101N005119999999N0000001N9+01061+99999098221ADDGF108991999999999999999999
0029227070999991901061413004+62167+030650FM-12+010299999V0201601N009819999999N0000001N9+01281+99999098141ADDGF106991999999999999999999
0029227070999991901061420004+62167+030650FM-12+010299999V0202501N005119999999N0000001N9+00891+99999098801ADDGF103991999999999999999999
0029227070999991901061506004+62167+030650FM-12+010299999V0201601N004119999999N0000001N9+01171+99999099671ADDGF102991999999999999999999
0029227070999991901061513004+62167+030650FM-12+010299999V0201601N008219999999N0000001N9+01331+99999099831ADDGF102991999999999999999999
0029227070999991901061520004+62167+030650FM-12+010299999V0201601N003119999999N0000001N9+01001+99999099951ADDGF103991999999999999999999
0029227070999991901061606004+62167+030650FM-12+010299999V0201401N005119999999N0000001N9+01331+99999099831ADDGF106991999999999999999999
0029227070999991901061613004+62167+030650FM-12+010299999V0200501N004119999999N0000001N9+01501+99999099681ADDGF108991999999999999999999
0029227070999991901061620004+62167+030650FM-12+010299999V0203201N002119999999N0000001N9+01061+99999099911ADDGF101991999999999999999999
0029227070999991901061706004+62167+030650FM-12+010299999V0200501N002119999999N0000001N9+01501+99999100311ADDGF104991999999999999999999
0029227070999991901061713004+62167+030650FM-12+010299999V0200901N005119999999N0000001N9+02061+99999100431ADDGF104991999999999999999999
0029227070999991901061720004+62167+030650FM-12+010299999V0200901N002119999999N0000001N9+01441+99999100761ADDGF102991999999999999999999
0029227070999991901061806004+62167+030650FM-12+010299999V0201401N004119999999N0000001N9+01831+99999101191ADDGF102991999999999999999999
0029227070999991901061813004+62167+030650FM-12+010299999V0200701N008219999999N0000001N9+02171+99999101241ADDGF106991999999999999999999
0029227070999991901061820004+62167+030650FM-12+010299999V0200701N005119999999N0000001N9+01611+99999101201ADDGF108991999999999999999999
0029227070999991901061906004+62167+030650FM-12+010299999V0200701N005119999999N0000001N9+01501+99999100941ADDGF106991999999999999999999
0029227070999991901061913004+62167+030650FM-12+010299999V0201601N006219999999N0000001N9+02171+99999100941ADDGF105991999999999999999999
0029227070999991901061920004+62167+030650FM-12+010299999V0200901N004119999999N0000001N9+01831+99999100761ADDGF106991999999999999999999
0029227070999991901062006004+62167+030650FM-12+010299999V0201401N001019999999N0000001N9+01831+99999101081ADDGF108991999999999999999999
0029227070999991901062013004+62167+030650FM-12+010299999V0202301N008219999999N0000001N9+02221+99999101351ADDGF106991999999999999999999
0029227070999991901062020004+62167+030650FM-12+010299999V0202701N002119999999N0000001N9+01671+99999101521ADDGF101991999999999999999999
0029227070999991901062106004+62167+030650FM-12+010299999V0201801N001019999999N0000001N9+01721+99999101461ADDGF103991999999999999999999
0029227070999991901062113004+62167+030650FM-12+010299999V0202301N004119999999N0000001N9+02171+99999101361ADDGF108991999999999999999999
0029227070999991901062120004+62167+030650FM-12+010299999V0202501N002119999999N0000001N9+01781+99999101151ADDGF104991999999999999999999
0029227070999991901062206004+62167+030650FM-12+010299999V0200201N003119999999N0000001N9+01941+99999101151ADDGF101991999999999999999999
0029227070999991901062213004+62167+030650FM-12+010299999V0200201N005119999999N0000001N9+02331+99999101151ADDGF103991999999999999999999
0029227070999991901062220004+62167+030650FM-12+010299999V0203601N002119999999N0000001N9+01891+99999101101ADDGF102991999999999999999999
0029227070999991901062306004+62167+030650FM-12+010299999V0200501N004119999999N0000001N9+02061+99999101431ADDGF103991999999999999999999
0029227070999991901062313004+62167+030650FM-12+010299999V0200701N005119999999N0000001N9+02501+99999101461ADDGF104991999999999999999999
0029227070999991901062320004+62167+030650FM-12+010299999V0200901N003119999999N0000001N9+01831+99999101511ADDGF102991999999999999999999
0029227070999991901062406004+62167+030650FM-12+010299999V0201401N002119999999N0000001N9+02111+99999101681ADDGF101991999999999999999999
0029227070999991901062413004+62167+030650FM-12+010299999V0200901N003119999999N0000001N9+02561+99999101561ADDGF101991999999999999999999
0029227070999991901062420004+62167+030650FM-12+010299999V0201101N002119999999N0000001N9+01831+99999101441ADDGF101991999999999999999999
0029227070999991901062506004+62167+030650FM-12+010299999V0201101N005119999999N0000001N9+02001+99999101471ADDGF101991999999999999999999
0029227070999991901062513004+62167+030650FM-12+010299999V0201401N004119999999N0000001N9+02441+99999101341ADDGF102991999999999999999999
0029227070999991901062520004+62167+030650FM-12+010299999V0200901N003119999999N0000001N9+01831+99999100861ADDGF107991999999999999999999
0029227070999991901062606004+62167+030650FM-12+010299999V0202001N001019999999N0000001N9+02061+99999100781ADDGF102991999999999999999999
0029227070999991901062613004+62167+030650FM-12+010299999V0202501N006219999999N0000001N9+02781+99999100671ADDGF104991999999999999999999
0029227070999991901062620004+62167+030650FM-12+010299999V0202301N005119999999N0000001N9+02111+99999100511ADDGF108991999999999999999999
0029227070999991901062706004+62167+030650FM-12+010299999V0201601N002119999999N0000001N9+01781+99999100511ADDGF108991999999999999999999
0029227070999991901062713004+62167+030650FM-12+010299999V0202701N007219999999N0000001N9+01941+99999100581ADDGF105991999999999999999999
0029227070999991901062720004+62167+030650FM-12+010299999V0209991C000019999999N0000001N9+01611+99999100581ADDGF102991999999999999999999
0029227070999991901062806004+62167+030650FM-12+010299999V0201401N005119999999N0000001N9+01611+99999100391ADDGF108991999999999999999999
0029227070999991901062813004+62167+030650FM-12+010299999V0202001N008219999999N0000001N9+01671+99999100181ADDGF106991999999999999999999
0029227070999991901062820004+62167+030650FM-12+010299999V0201801N003119999999N0000001N9+01391+99999100201ADDGF102991999999999999999999
0029227070999991901062906004+62167+030650FM-12+010299999V0202501N005119999999N0000001N9+01441+99999100461ADDGF107991999999999999999999
0029227070999991901062913004+62167+030650FM-12+010299999V0202501N006219999999N0000001N9+01671+99999100631ADDGF107991999999999999999999
0029227070999991901062920004+62167+030650FM-12+010299999V0202701N002119999999N0000001N9+01391+99999100721ADDGF102991999999999999999999
0029227070999991901063006004+62167+030650FM-12+010299999V0200201N004119999999N0000001N9+01221+99999101081ADDGF108991999999999999999999
0029227070999991901063013004+62167+030650FM-12+010299999V0203601N005119999999N0000001N9+01441+99999101141ADDGF108991999999999999999999
0029227070999991901063020004+62167+030650FM-12+010299999V0203401N003119999999N0000001N9+01331+99999100871ADDGF103991999999999999999999
0029227070999991901070106004+62167+030650FM-12+010299999V0203401N004119999999N0000001N9+01441+99999100601ADDGF102991999999999999999999
0029227070999991901070113004+62167+030650FM-12+010299999V0201801N002119999999N0000001N9+01561+99999100421ADDGF107991999999999999999999
0029227070999991901070120004+62167+030650FM-12+010299999V0201601N003119999999N0000001N9+01331+99999100141ADDGF104991999999999999999999
0029227070999991901070206004+62167+030650FM-12+010299999V0203601N003119999999N0000001N9+01501+99999099881ADDGF102991999999999999999999
0029227070999991901070213004+62167+030650FM-12+010299999V0203601N006219999999N0000001N9+01501+99999099661ADDGF104991999999999999999999
0029227070999991901070220004+62167+030650FM-12+010299999V0200201N004119999999N0000001N9+01221+99999099591ADDGF103991999999999999999999
0029227070999991901070306004+62167+030650FM-12+010299999V0203401N009819999999N0000001N9+01001+99999099561ADDGF108991999999999999999999
0029227070999991901070313004+62167+030650FM-12+010299999V0200201N020119999999N0000001N9+01061+99999099421ADDGF108991999999999999999999
0029227070999991901070320004+62167+030650FM-12+010299999V0200201N018019999999N0000001N9+00831+99999099101ADDGF108991999999999999999999
0029227070999991901070406004+62167+030650FM-12+010299999V0200201N011819999999N0000001N9+00721+99999098821ADDGF108991999999999999999999
0029227070999991901070413004+62167+030650FM-12+010299999V0200201N015919999999N0000001N9+01001+99999099031ADDGF108991999999999999999999
0029227070999991901070420004+62167+030650FM-12+010299999V0200501N008719999999N0000001N9+00941+99999099221ADDGF108991999999999999999999
0029227070999991901070506004+62167+030650FM-12+010299999V0200201N005119999999N0000001N9+00941+99999099181ADDGF108991999999999999999999
0029227070999991901070513004+62167+030650FM-12+010299999V0200201N005119999999N0000001N9+01061+99999099561ADDGF108991999999999999999999
0029227070999991901070520004+62167+030650FM-12+010299999V0203601N004119999999N0000001N9+00941+99999099721ADDGF108991999999999999999999
0029227070999991901070606004+62167+030650FM-12+010299999V0200201N005119999999N0000001N9+01061+99999099791ADDGF107991999999999999999999
0029227070999991901070613004+62167+030650FM-12+010299999V0200201N006219999999N0000001N9+01561+99999099901ADDGF106991999999999999999999
0029227070999991901070620004+62167+030650FM-12+010299999V0200201N003119999999N0000001N9+01221+99999099961ADDGF102991999999999999999999
0029227070999991901070706004+62167+030650FM-12+010299999V0200501N005119999999N0000001N9+01111+99999100181ADDGF101991999999999999999999
0029227070999991901070713004+62167+030650FM-12+010299999V0203201N006219999999N0000001N9+01721+99999100221ADDGF102991999999999999999999
0029227070999991901070720004+62167+030650FM-12+010299999V0200201N002119999999N0000001N9+01171+99999100151ADDGF101991999999999999999999
0029227070999991901070806004+62167+030650FM-12+010299999V0200201N002119999999N0000001N9+01501+99999100071ADDGF101991999999999999999999
0029227070999991901070813004+62167+030650FM-12+010299999V0202901N006219999999N0000001N9+02221+99999099721ADDGF102991999999999999999999
0029227070999991901070820004+62167+030650FM-12+010299999V0202901N002119999999N0000001N9+01441+99999099801ADDGF102991999999999999999999
0029227070999991901070906004+62167+030650FM-12+010299999V0203601N004119999999N0000001N9+01671+99999100231ADDGF100991999999999999999999
0029227070999991901070913004+62167+030650FM-12+010299999V0203601N003119999999N0000001N9+02001+99999100401ADDGF106991999999999999999999
0029227070999991901070920004+62167+030650FM-12+010299999V0200901N002119999999N0000001N9+01561+99999100761ADDGF102991999999999999999999
0029227070999991901071006004+62167+030650FM-12+010299999V0203601N003119999999N0000001N9+01501+99999100961ADDGF102991999999999999999999
0029227070999991901071013004+62167+030650FM-12+010299999V0200701N005119999999N0000001N9+02171+99999100911ADDGF102991999999999999999999
0029227070999991901071020004+62167+030650FM-12+010299999V0200201N001019999999N0000001N9+01721+99999100881ADDGF102991999999999999999999
0029227070999991901071106004+62167+030650FM-12+010299999V0201401N003119999999N0000001N9+01891+99999100951ADDGF102991999999999999999999
0029227070999991901071113004+62167+030650FM-12+010299999V0201801N005119999999N0000001N9+02611+99999100701ADDGF102991999999999999999999
0029227070999991901071120004+62167+030650FM-12+010299999V0201401N003119999999N0000001N9+01891+99999100511ADDGF102991999999999999999999
0029227070999991901071206004+62167+030650FM-12+010299999V0203201N004119999999N0000001N9+01941+99999100381ADDGF102991999999999999999999
0029227070999991901071213004+62167+030650FM-12+010299999V0202901N006219999999N0000001N9+02391+99999100561ADDGF102991999999999999999999
0029227070999991901071220004+62167+030650FM-12+010299999V0203201N001019999999N0000001N9+01781+99999100701ADDGF101991999999999999999999
0029227070999991901071306004+62167+030650FM-12+010299999V0200701N003119999999N0000001N9+01561+99999100861ADDGF102991999999999999999999
0029227070999991901071313004+62167+030650FM-12+010299999V0201401N004119999999N0000001N9+02331+99999100791ADDGF102991999999999999999999
0029227070999991901071320004+62167+030650FM-12+010299999V0201601N002119999999N0000001N9+01721+99999100591ADDGF102991999999999999999999
0029227070999991901071406004+62167+030650FM-12+010299999V0201101N002119999999N0000001N9+01781+99999100441ADDGF100991999999999999999999
0029227070999991901071413004+62167+030650FM-12+010299999V0201401N004119999999N0000001N9+02611+99999100281ADDGF101991999999999999999999
0029227070999991901071420004+62167+030650FM-12+010299999V0201601N002119999999N0000001N9+01721+99999100281ADDGF102991999999999999999999
0029227070999991901071506004+62167+030650FM-12+010299999V0203201N003119999999N0000001N9+01941+99999100311ADDGF100991999999999999999999
0029227070999991901071513004+62167+030650FM-12+010299999V0202701N006219999999N0000001N9+02671+99999100361ADDGF102991999999999999999999
0029227070999991901071520004+62167+030650FM-12+010299999V0202901N002119999999N0000001N9+01781+99999100601ADDGF102991999999999999999999
0029227070999991901071606004+62167+030650FM-12+010299999V0200501N001019999999N0000001N9+01891+99999100951ADDGF102991999999999999999999
0029227070999991901071613004+62167+030650FM-12+010299999V0202301N003119999999N0000001N9+02561+99999101061ADDGF101991999999999999999999
0029227070999991901071620004+62167+030650FM-12+010299999V0201401N002119999999N0000001N9+01831+99999101121ADDGF102991999999999999999999
0029227070999991901071706004+62167+030650FM-12+010299999V0201401N004119999999N0000001N9+02061+99999101281ADDGF102991999999999999999999
0029227070999991901071713004+62167+030650FM-12+010299999V0201601N007219999999N0000001N9+02781+99999101261ADDGF103991999999999999999999
0029227070999991901071720004+62167+030650FM-12+010299999V0201101N002119999999N0000001N9+02111+99999101311ADDGF105991999999999999999999
0029227070999991901071806004+62167+030650FM-12+010299999V0201401N001019999999N0000001N9+02281+99999101281ADDGF101991999999999999999999
0029227070999991901071813004+62167+030650FM-12+010299999V0202901N008219999999N0000001N9+02441+99999101281ADDGF102991999999999999999999
0029227070999991901071820004+62167+030650FM-12+010299999V0202701N002119999999N0000001N9+02001+99999101261ADDGF103991999999999999999999
0029227070999991901071906004+62167+030650FM-12+010299999V0203201N006219999999N0000001N9+01831+99999101511ADDGF101991999999999999999999
0029227070999991901071913004+62167+030650FM-12+010299999V0203201N008219999999N0000001N9+02561+99999101441ADDGF102991999999999999999999
0029227070999991901071920004+62167+030650FM-12+010299999V0203201N003119999999N0000001N9+01891+99999101511ADDGF101991999999999999999999
0029227070999991901072006004+62167+030650FM-12+010299999V0203601N002119999999N0000001N9+01891+99999101781ADDGF100991999999999999999999
0029227070999991901072013004+62167+030650FM-12+010299999V0203201N006219999999N0000001N9+02501+99999101671ADDGF101991999999999999999999
0029227070999991901072020004+62167+030650FM-12+010299999V0201101N001019999999N0000001N9+01831+99999101781ADDGF101991999999999999999999
0029227070999991901072106004+62167+030650FM-12+010299999V0201401N002119999999N0000001N9+01831+99999101781ADDGF102991999999999999999999
0029227070999991901072113004+62167+030650FM-12+010299999V0202501N004119999999N0000001N9+02721+99999101511ADDGF104991999999999999999999
0029227070999991901072120004+62167+030650FM-12+010299999V0200901N002119999999N0000001N9+01781+99999101351ADDGF102991999999999999999999
0029227070999991901072206004+62167+030650FM-12+010299999V0200701N004119999999N0000001N9+01501+99999101541ADDGF108991999999999999999999
0029227070999991901072213004+62167+030650FM-12+010299999V0200201N005119999999N0000001N9+02221+99999101471ADDGF102991999999999999999999
0029227070999991901072220004+62167+030650FM-12+010299999V0200201N001019999999N0000001N9+01441+99999101201ADDGF100991999999999999999999
0029227070999991901072306004+62167+030650FM-12+010299999V0200701N002119999999N0000001N9+01831+99999101281ADDGF100991999999999999999999
0029227070999991901072313004+62167+030650FM-12+010299999V0202501N004119999999N0000001N9+02561+99999101021ADDGF100991999999999999999999
0029227070999991901072320004+62167+030650FM-12+010299999V0201601N001019999999N0000001N9+01561+99999100871ADDGF100991999999999999999999
0029227070999991901072406004+62167+030650FM-12+010299999V0201101N003119999999N0000001N9+01831+99999101141ADDGF101991999999999999999999
0029227070999991901072413004+62167+030650FM-12+010299999V0201601N003119999999N0000001N9+02721+99999101111ADDGF100991999999999999999999
0029227070999991901072420004+62167+030650FM-12+010299999V0202001N002119999999N0000001N9+01721+99999100991ADDGF100991999999999999999999
0029227070999991901072506004+62167+030650FM-12+010299999V0201601N002119999999N0000001N9+02001+99999101201ADDGF100991999999999999999999
0029227070999991901072513004+62167+030650FM-12+010299999V0203201N002119999999N0000001N9+02831+99999101101ADDGF100991999999999999999999
0029227070999991901072520004+62167+030650FM-12+010299999V0203201N001019999999N0000001N9+01781+99999100941ADDGF100991999999999999999999
0029227070999991901072606004+62167+030650FM-12+010299999V0200201N001019999999N0000001N9+02111+99999100991ADDGF100991999999999999999999
0029227070999991901072613004+62167+030650FM-12+010299999V0200501N003119999999N0000001N9+03061+99999100871ADDGF101991999999999999999999
0029227070999991901072620004+62167+030650FM-12+010299999V0200501N002119999999N0000001N9+01831+99999100871ADDGF100991999999999999999999
0029227070999991901072706004+62167+030650FM-12+010299999V0203601N001019999999N0000001N9+02171+99999100831ADDGF101991999999999999999999
0029227070999991901072713004+62167+030650FM-12+010299999V0202901N002119999999N0000001N9+03061+99999100741ADDGF102991999999999999999999
0029227070999991901072720004+62167+030650FM-12+010299999V0201801N001019999999N0000001N9+02061+99999100541ADDGF100991999999999999999999
0029227070999991901072806004+62167+030650FM-12+010299999V0200501N002119999999N0000001N9+02061+99999100641ADDGF102991999999999999999999
0029227070999991901072813004+62167+030650FM-12+010299999V0203401N004119999999N0000001N9+03061+99999100591ADDGF102991999999999999999999
0029227070999991901072820004+62167+030650FM-12+010299999V0202901N002119999999N0000001N9+02111+99999100821ADDGF102991999999999999999999
0029227070999991901072906004+62167+030650FM-12+010299999V0201401N004119999999N0000001N9+02061+99999101061ADDGF100991999999999999999999
0029227070999991901072913004+62167+030650FM-12+010299999V0201801N005119999999N0000001N9+02941+99999100961ADDGF102991999999999999999999
0029227070999991901072920004+62167+030650FM-12+010299999V0201401N003119999999N0000001N9+02221+99999100711ADDGF100991999999999999999999
0029227070999991901073006004+62167+030650FM-12+010299999V0201801N002119999999N0000001N9+02171+99999100711ADDGF100991999999999999999999
0029227070999991901073013004+62167+030650FM-12+010299999V0202301N009819999999N0000001N9+02671+99999100391ADDGF103991999999999999999999
0029227070999991901073020004+62167+030650FM-12+010299999V0201601N002119999999N0000001N9+01941+99999100321ADDGF103991999999999999999999
0029227070999991901073106004+62167+030650FM-12+010299999V0200701N003119999999N0000001N9+02061+99999100261ADDGF102991999999999999999999
0029227070999991901073113004+62167+030650FM-12+010299999V0202501N009819999999N0000001N9+02671+99999099951ADDGF102991999999999999999999
0029227070999991901073120004+62167+030650FM-12+010299999V0202701N002119999999N0000001N9+01721+99999100031ADDGF102991999999999999999999
0029227070999991901080106004+62167+030650FM-12+010299999V0203401N004119999999N0000001N9+01501+99999100541ADDGF106991999999999999999999
0029227070999991901080113004+62167+030650FM-12+010299999V0203401N008219999999N0000001N9+01941+99999100621ADDGF102991999999999999999999
0029227070999991901080120004+62167+030650FM-12+010299999V0203401N001019999999N0000001N9+01331+99999100861ADDGF101991999999999999999999
0029227070999991901080206004+62167+030650FM-12+010299999V0201601N002119999999N0000001N9+01671+99999100921ADDGF100991999999999999999999
0029227070999991901080213004+62167+030650FM-12+010299999V0201401N007219999999N0000001N9+02331+99999100711ADDGF101991999999999999999999
0029227070999991901080220004+62167+030650FM-12+010299999V0201401N004119999999N0000001N9+01721+99999100391ADDGF100991999999999999999999
0029227070999991901080306004+62167+030650FM-12+010299999V0201601N004119999999N0000001N9+01721+99999099951ADDGF108991999999999999999999
0029227070999991901080313004+62167+030650FM-12+010299999V0201801N008219999999N0000001N9+02331+99999099641ADDGF104991999999999999999999
0029227070999991901080320004+62167+030650FM-12+010299999V0202501N002119999999N0000001N9+01331+99999999999ADDGF101991999999999999999999
0029227070999991901080406004+62167+030650FM-12+010299999V0202901N003119999999N0000001N9+01111+99999100561ADDGF104991999999999999999999
0029227070999991901080413004+62167+030650FM-12+010299999V0200701N005119999999N0000001N9+02001+99999100561ADDGF102991999999999999999999
0029227070999991901080420004+62167+030650FM-12+010299999V0201601N003119999999N0000001N9+01331+99999100431ADDGF102991999999999999999999
0029227070999991901080506004+62167+030650FM-12+010299999V0201601N002119999999N0000001N9+01441+99999100301ADDGF108991999999999999999999
0029227070999991901080513004+62167+030650FM-12+010299999V0201601N006219999999N0000001N9+02171+99999099981ADDGF106991999999999999999999
0029227070999991901080520004+62167+030650FM-12+010299999V0201801N005119999999N0000001N9+01721+99999099821ADDGF103991999999999999999999
0029227070999991901080606004+62167+030650FM-12+010299999V0201601N004119999999N0000001N9+01671+99999099751ADDGF108991999999999999999999
0029227070999991901080613004+62167+030650FM-12+010299999V0201401N003119999999N0000001N9+01781+99999099631ADDGF108991999999999999999999
0029227070999991901080620004+62167+030650FM-12+010299999V0201401N002119999999N0000001N9+01671+99999099761ADDGF102991999999999999999999
0029227070999991901080706004+62167+030650FM-12+010299999V0201401N002119999999N0000001N9+01561+99999099841ADDGF107991999999999999999999
0029227070999991901080713004+62167+030650FM-12+010299999V0203601N004119999999N0000001N9+02061+99999099741ADDGF108991999999999999999999
0029227070999991901080720004+62167+030650FM-12+010299999V0200501N003119999999N0000001N9+01611+99999099521ADDGF108991999999999999999999
0029227070999991901080806004+62167+030650FM-12+010299999V0203601N001019999999N0000001N9+01501+99999099441ADDGF108991999999999999999999
0029227070999991901080813004+62167+030650FM-12+010299999V0202501N004119999999N0000001N9+01561+99999099741ADDGF108991999999999999999999
0029227070999991901080820004+62167+030650FM-12+010299999V0202901N002119999999N0000001N9+01331+99999099871ADDGF103991999999999999999999
0029227070999991901080906004+62167+030650FM-12+010299999V0203601N003119999999N0000001N9+01221+99999099991ADDGF108991999999999999999999
0029227070999991901080913004+62167+030650FM-12+010299999V0200201N003119999999N0000001N9+01781+99999100071ADDGF108991999999999999999999
0029227070999991901080920004+62167+030650FM-12+010299999V0200501N002119999999N0000001N9+01331+99999100481ADDGF104991999999999999999999
0029227070999991901081006004+62167+030650FM-12+010299999V0203601N003119999999N0000001N9+01111+99999100921ADDGF103991999999999999999999
0029227070999991901081013004+62167+030650FM-12+010299999V0203601N005119999999N0000001N9+01721+99999101201ADDGF102991999999999999999999
0029227070999991901081020004+62167+030650FM-12+010299999V0200501N002119999999N0000001N9+01331+99999101391ADDGF100991999999999999999999
0029227070999991901081106004+62167+030650FM-12+010299999V0200201N002119999999N0000001N9+01331+99999101631ADDGF100991999999999999999999
0029227070999991901081113004+62167+030650FM-12+010299999V0203401N003119999999N0000001N9+02061+99999101381ADDGF100991999999999999999999
0029227070999991901081120004+62167+030650FM-12+010299999V0202901N002119999999N0000001N9+01281+99999101351ADDGF102991999999999999999999
0029227070999991901081206004+62167+030650FM-12+010299999V0202901N002119999999N0000001N9+01611+99999101421ADDGF100991999999999999999999
0029227070999991901081213004+62167+030650FM-12+010299999V0202701N004119999999N0000001N9+02561+99999101401ADDGF102991999999999999999999
0029227070999991901081220004+62167+030650FM-12+010299999V0202701N002119999999N0000001N9+01891+99999101381ADDGF104991999999999999999999
0029227070999991901081306004+62167+030650FM-12+010299999V0201101N003119999999N0000001N9+01671+99999101621ADDGF102991999999999999999999
0029227070999991901081313004+62167+030650FM-12+010299999V0203601N003119999999N0000001N9+02221+99999101681ADDGF100991999999999999999999
0029227070999991901081320004+62167+030650FM-12+010299999V0209991C000019999999N0000001N9+01331+99999101801ADDGF100991999999999999999999
0029227070999991901081406004+62167+030650FM-12+010299999V0200201N002119999999N0000001N9+01501+99999102021ADDGF100991999999999999999999
0029227070999991901081413004+62167+030650FM-12+010299999V0202501N002119999999N0000001N9+02501+99999101831ADDGF100991999999999999999999
0029227070999991901081420004+62167+030650FM-12+010299999V0203201N001019999999N0000001N9+01501+99999101741ADDGF100991999999999999999999
0029227070999991901081506004+62167+030650FM-12+010299999V0203201N001019999999N0000001N9+01611+99999101781ADDGF100991999999999999999999
0029227070999991901081513004+62167+030650FM-12+010299999V0202501N003119999999N0000001N9+02721+99999101601ADDGF100991999999999999999999
0029227070999991901081520004+62167+030650FM-12+010299999V0202501N002119999999N0000001N9+01501+99999101481ADDGF100991999999999999999999
0029227070999991901081606004+62167+030650FM-12+010299999V0201401N002119999999N0000001N9+01501+99999101381ADDGF100991999999999999999999
0029227070999991901081613004+62167+030650FM-12+010299999V0201401N004119999999N0000001N9+02781+99999101151ADDGF103991999999999999999999
0029227070999991901081620004+62167+030650FM-12+010299999V0201401N002119999999N0000001N9+01611+99999101071ADDGF102991999999999999999999
0029227070999991901081706004+62167+030650FM-12+010299999V0200701N001019999999N0000001N9+01561+99999101111ADDGF105991999999999999999999
0029227070999991901081713004+62167+030650FM-12+010299999V0201401N005119999999N0000001N9+02611+99999101161ADDGF104991999999999999999999
0029227070999991901081720004+62167+030650FM-12+010299999V0201401N003119999999N0000001N9+01721+99999101031ADDGF108991999999999999999999
0029227070999991901081806004+62167+030650FM-12+010299999V0201601N002119999999N0000001N9+01941+99999100911ADDGF103991999999999999999999
0029227070999991901081813004+62167+030650FM-12+010299999V0202701N004119999999N0000001N9+02721+99999100841ADDGF102991999999999999999999
0029227070999991901081820004+62167+030650FM-12+010299999V0202701N002119999999N0000001N9+01781+99999100701ADDGF103991999999999999999999
0029227070999991901081906004+62167+030650FM-12+010299999V0200501N002119999999N0000001N9+01721+99999100431ADDGF100991999999999999999999
0029227070999991901081913004+62167+030650FM-12+010299999V0203201N006219999999N0000001N9+02501+99999100151ADDGF103991999999999999999999
0029227070999991901081920004+62167+030650FM-12+010299999V0202901N002119999999N0000001N9+01831+99999099921ADDGF106991999999999999999999
0029227070999991901082006004+62167+030650FM-12+010299999V0202901N002119999999N0000001N9+01611+99999100031ADDGF108991999999999999999999
0029227070999991901082013004+62167+030650FM-12+010299999V0203201N003119999999N0000001N9+01891+99999100181ADDGF104991999999999999999999
0029227070999991901082020004+62167+030650FM-12+010299999V0203201N002119999999N0000001N9+01501+99999100381ADDGF102991999999999999999999
0029227070999991901082106004+62167+030650FM-12+010299999V0200501N005119999999N0000001N9+01061+99999100511ADDGF102991999999999999999999
0029227070999991901082113004+62167+030650FM-12+010299999V0200201N006219999999N0000001N9+01671+99999100601ADDGF105991999999999999999999
0029227070999991901082120004+62167+030650FM-12+010299999V0203601N002119999999N0000001N9+01001+99999100801ADDGF101991999999999999999999
0029227070999991901082206004+62167+030650FM-12+010299999V0200201N001019999999N0000001N9+00941+99999100831ADDGF108991999999999999999999
0029227070999991901082213004+62167+030650FM-12+010299999V0202901N005119999999N0000001N9+01671+99999100541ADDGF108991999999999999999999
0029227070999991901082220004+62167+030650FM-12+010299999V0202701N002119999999N0000001N9+01221+99999100351ADDGF108991999999999999999999
0029227070999991901082306004+62167+030650FM-12+010299999V0200901N002119999999N0000001N9+01221+99999099981ADDGF108991999999999999999999
0029227070999991901082313004+62167+030650FM-12+010299999V0200901N002119999999N0000001N9+01781+99999099801ADDGF104991999999999999999999
0029227070999991901082320004+62167+030650FM-12+010299999V0200701N004119999999N0000001N9+01331+99999099681ADDGF102991999999999999999999
0029227070999991901082406004+62167+030650FM-12+010299999V0200701N006219999999N0000001N9+01221+99999099441ADDGF108991999999999999999999
0029227070999991901082413004+62167+030650FM-12+010299999V0200901N004119999999N0000001N9+01781+99999099391ADDGF106991999999999999999999
0029227070999991901082420004+62167+030650FM-12+010299999V0200701N002119999999N0000001N9+01171+99999099471ADDGF108991999999999999999999
0029227070999991901082506004+62167+030650FM-12+010299999V0200701N004119999999N0000001N9+01221+99999099401ADDGF108991999999999999999999
0029227070999991901082513004+62167+030650FM-12+010299999V0202901N003119999999N0000001N9+01831+99999099381ADDGF107991999999999999999999
0029227070999991901082520004+62167+030650FM-12+010299999V0202901N002119999999N0000001N9+01331+99999099431ADDGF107991999999999999999999
0029227070999991901082606004+62167+030650FM-12+010299999V0200201N002119999999N0000001N9+01061+99999099681ADDGF102991999999999999999999
0029227070999991901082613004+62167+030650FM-12+010299999V0202701N008219999999N0000001N9+01831+99999099721ADDGF104991999999999999999999
0029227070999991901082620004+62167+030650FM-12+010299999V0202901N002119999999N0000001N9+01331+99999099801ADDGF107991999999999999999999
0029227070999991901082706004+62167+030650FM-12+010299999V0202701N001019999999N0000001N9+01331+99999100071ADDGF108991999999999999999999
0029227070999991901082713004+62167+030650FM-12+010299999V0202001N003119999999N0000001N9+01721+99999100221ADDGF107991999999999999999999
0029227070999991901082720004+62167+030650FM-12+010299999V0202301N002119999999N0000001N9+01331+99999100241ADDGF108991999999999999999999
0029227070999991901082806004+62167+030650FM-12+010299999V0202301N004119999999N0000001N9+01441+99999099821ADDGF103991999999999999999999
0029227070999991901082813004+62167+030650FM-12+010299999V0201601N006219999999N0000001N9+01941+99999099481ADDGF108991999999999999999999
0029227070999991901082820004+62167+030650FM-12+010299999V0201401N004119999999N0000001N9+01441+99999099221ADDGF108991999999999999999999
0029227070999991901082906004+62167+030650FM-12+010299999V0200701N009819999999N0000001N9+01171+99999099161ADDGF108991999999999999999999
0029227070999991901082913004+62167+030650FM-12+010299999V0201101N014919999999N0000001N9+01331+99999099271ADDGF107991999999999999999999
0029227070999991901082920004+62167+030650FM-12+010299999V0200701N004119999999N0000001N9+00831+99999099521ADDGF100991999999999999999999
0029227070999991901083006004+62167+030650FM-12+010299999V0200201N004119999999N0000001N9+00671+99999099741ADDGF100991999999999999999999
0029227070999991901083013004+62167+030650FM-12+010299999V0200501N006219999999N0000001N9+01501+99999099801ADDGF102991999999999999999999
0029227070999991901083020004+62167+030650FM-12+010299999V0201401N003119999999N0000001N9+00831+99999099681ADDGF102991999999999999999999
0029227070999991901083106004+62167+030650FM-12+010299999V0203401N002119999999N0000001N9+00671+99999099441ADDGF101991999999999999999999
0029227070999991901083113004+62167+030650FM-12+010299999V0200201N013919999999N0000001N9+01391+99999099341ADDGF104991999999999999999999
0029227070999991901083120004+62167+030650FM-12+010299999V0200501N002119999999N0000001N9+00561+99999099461ADDGF102991999999999999999999
0029227070999991901090106004+62167+030650FM-12+010299999V0200201N003119999999N0000001N9+00441+99999099581ADDGF102991999999999999999999
0029227070999991901090113004+62167+030650FM-12+010299999V0200701N004119999999N0000001N9+01061+99999099511ADDGF103991999999999999999999
0029227070999991901090120004+62167+030650FM-12+010299999V0200701N003119999999N0000001N9+00501+99999099391ADDGF102991999999999999999999
0029227070999991901090206004+62167+030650FM-12+010299999V0200701N004119999999N0000001N9+00501+99999099221ADDGF105991999999999999999999
0029227070999991901090213004+62167+030650FM-12+010299999V0203401N013919999999N0000001N9+00941+99999099081ADDGF104991999999999999999999
0029227070999991901090220004+62167+030650FM-12+010299999V0202901N004119999999N0000001N9+00501+99999099281ADDGF101991999999999999999999
0029227070999991901090306004+62167+030650FM-12+010299999V0202901N006219999999N0000001N9+00671+99999099711ADDGF104991999999999999999999
0029227070999991901090313004+62167+030650FM-12+010299999V0200701N005119999999N0000001N9+00941+99999100121ADDGF104991999999999999999999
0029227070999991901090320004+62167+030650FM-12+010299999V0200701N002119999999N0000001N9+00561+99999100431ADDGF103991999999999999999999
0029227070999991901090406004+62167+030650FM-12+010299999V0203601N002119999999N0000001N9+00501+99999100641ADDGF108991999999999999999999
0029227070999991901090413004+62167+030650FM-12+010299999V0203201N006219999999N0000001N9+00941+99999100711ADDGF107991999999999999999999
0029227070999991901090420004+62167+030650FM-12+010299999V0203201N002119999999N0000001N9+00441+99999100751ADDGF102991999999999999999999
0029227070999991901090506004+62167+030650FM-12+010299999V0203401N003119999999N0000001N9+00611+99999100911ADDGF101991999999999999999999
0029227070999991901090513004+62167+030650FM-12+010299999V0200201N008219999999N0000001N9+01061+99999101081ADDGF105991999999999999999999
0029227070999991901090520004+62167+030650FM-12+010299999V0200501N003119999999N0000001N9+00721+99999101231ADDGF108991999999999999999999
0029227070999991901090606004+62167+030650FM-12+010299999V0203601N002119999999N0000001N9+00171+99999101321ADDGF106991999999999999999999
