0035029070999991902010120004+64333+023450FM-12+000599999V0201401N013919999999N0000001N9-01171+99999100121ADDGF108991999999999999999999MW1381
0035029070999991902010113004+64333+023450FM-12+000599999V0201401N011819999999N0000001N9-01001+99999100311ADDGF104991999999999999999999MW1381
0035029070999991902010106004+64333+023450FM-12+000599999V0201401N011819999999N0000001N9-00941+99999100551ADDGF104991999999999999999999MW1381
0029029070999991902123120004+64333+023450FM-12+000599999V0209991C000019999999N0000001N9-01061+99999100751ADDGF100991999999999999999999
0029029070999991902123113004+64333+023450FM-12+000599999V0209991C000019999999N0000001N9-00831+99999100521ADDGF108991999999999999999999
0035029070999991902123020004+64333+023450FM-12+000599999V0200501N006219999999N0000001N9-00781+99999099501ADDGF108991999999999999999999MW1721
0035029070999991902123013004+64333+023450FM-12+000599999V0200501N004119999999N0000001N9-01001+99999099191ADDGF108991999999999999999999MW1721
0029029070999991902122920004+64333+023450FM-12+000599999V0200501N006219999999N0000001N9-01281+99999098871ADDGF100991999999999999999999
0029029070999991902122913004+64333+023450FM-12+000599999V0200501N002119999999N0000001N9-01111+99999098841ADDGF100991999999999999999999
0029029070999991902122906004+64333+023450FM-12+000599999V0200701N004119999999N0000001N9-01111+99999098761ADDGF104991999999999999999999
0029029070999991902122820004+64333+023450FM-12+000599999V0200901N002119999999N0000001N9-01171+99999098671ADDGF108991999999999999999999
0029029070999991902122813004+64333+023450FM-12+000599999V0209991C000019999999N0000001N9-00611+99999098841ADDGF104991999999999999999999
0029029070999991902122720004+64333+023450FM-12+000599999V0200501N011819999999N0000001N9-00221+99999098601ADDGF108991999999999999999999
0029029070999991902122713004+64333+023450FM-12+000599999V0200201N011819999999N0000001N9-00721+99999097591ADDGF104991999999999999999999
0029029070999991902122706004+64333+023450FM-12+000599999V0203601N013919999999N0000001N9-00671+99999096801ADDGF106991999999999999999999
0029029070999991902122620004+64333+023450FM-12+000599999V0202701N011819999999N0000001N9-00391+99999096181ADDGF104991999999999999999999
0029029070999991902122613004+64333+023450FM-12+000599999V0202901N013919999999N0000001N9-00281+99999096341ADDGF100991999999999999999999
0029029070999991902122606004+64333+023450FM-12+000599999V0203201N013919999999N0000001N9-00281+99999096401ADDGF100991999999999999999999
0029029070999991902122520004+64333+023450FM-12+000599999V0202501N020119999999N0000001N9-00111+99999096281ADDGF108991999999999999999999
0029029070999991902122513004+64333+023450FM-12+000599999V0203201N011819999999N0000001N9+00001+99999096001ADDGF108991999999999999999999
0035029070999991902122506004+64333+023450FM-12+000599999V0202301N013919999999N0000001N9+00061+99999096581ADDGF108991999999999999999999MW1721
0029029070999991902122420004+64333+023450FM-12+000599999V0202301N020119999999N0000001N9+00001+99999098431ADDGF104991999999999999999999
0029029070999991902122413004+64333+023450FM-12+000599999V0202501N015919999999N0000001N9+00111+99999098871ADDGF104991999999999999999999
0029029070999991902122406004+64333+023450FM-12+000599999V0202501N015919999999N0000001N9+00111+99999099191ADDGF104991999999999999999999
0029029070999991902122320004+64333+023450FM-12+000599999V0202301N027819999999N0000001N9+00001+99999099261ADDGF107991999999999999999999
0029029070999991902122313004+64333+023450FM-12+000599999V0202301N013919999999N0000001N9+00111+99999100391ADDGF106991999999999999999999
0029029070999991902122306004+64333+023450FM-12+000599999V0202301N013919999999N0000001N9+00001+99999100621ADDGF108991999999999999999999
0029029070999991902122220004+64333+023450FM-12+000599999V0202301N027819999999N0000001N9-00221+99999101681ADDGF108991999999999999999999
0029029070999991902122213004+64333+023450FM-12+000599999V0203201N004119999999N0000001N9-00281+99999101871ADDGF100991999999999999999999
0029029070999991902122206004+64333+023450FM-12+000599999V0203401N006219999999N0000001N9-00281+99999102151ADDGF100991999999999999999999
0029029070999991902122120004+64333+023450FM-12+000599999V0203601N008219999999N0000001N9-00221+99999101201ADDGF108991999999999999999999
0029029070999991902122113004+64333+023450FM-12+000599999V0202001N011819999999N0000001N9-00501+99999100791ADDGF108991999999999999999999
0035029070999991902122106004+64333+023450FM-12+000599999V0202001N011819999999N0000001N9-00441+99999100721ADDGF108991999999999999999999MW1721
0029029070999991902122020004+64333+023450FM-12+000599999V0202001N011819999999N0000001N9-00281+99999100281ADDGF108991999999999999999999
0029029070999991902122013004+64333+023450FM-12+000599999V0202001N013919999999N0000001N9-00281+99999100191ADDGF108991999999999999999999
0035029070999991902122006004+64333+023450FM-12+000599999V0202001N015919999999N0000001N9-00331+99999100021ADDGF108991999999999999999999MW1721
0029029070999991902121920004+64333+023450FM-12+000599999V0202301N020119999999N0000001N9-00331+99999100161ADDGF108991999999999999999999
0029029070999991902121913004+64333+023450FM-12+000599999V0202001N011819999999N0000001N9-00171+99999100081ADDGF108991999999999999999999
0029029070999991902121906004+64333+023450FM-12+000599999V0202001N011819999999N0000001N9-00111+99999100081ADDGF108991999999999999999999
0029029070999991902121820004+64333+023450FM-12+000599999V0201801N009819999999N0000001N9-00221+99999099341ADDGF108991999999999999999999
0029029070999991902121813004+64333+023450FM-12+000599999V0201801N011819999999N0000001N9-00281+99999099241ADDGF108991999999999999999999
0029029070999991902121806004+64333+023450FM-12+000599999V0201801N013919999999N0000001N9-00331+99999099021ADDGF108991999999999999999999
0029029070999991902121720004+64333+023450FM-12+000599999V0201801N013919999999N0000001N9-00331+99999098821ADDGF108991999999999999999999
0035029070999991902121713004+64333+023450FM-12+000599999V0201601N020119999999N0000001N9-00221+99999099081ADDGF108991999999999999999999MW1721
0035029070999991902121620004+64333+023450FM-12+000599999V0202301N013919999999N0000001N9+00001+99999101121ADDGF108991999999999999999999MW1621
0035029070999991902121613004+64333+023450FM-12+000599999V0202301N015919999999N0000001N9+00061+99999101321ADDGF108991999999999999999999MW1621
0035029070999991902121606004+64333+023450FM-12+000599999V0202001N015919999999N0000001N9+00171+99999101391ADDGF108991999999999999999999MW1621
0035029070999991902121520004+64333+023450FM-12+000599999V0202001N020119999999N0000001N9+00171+99999101431ADDGF108991999999999999999999MW1601
0029029070999991902121513004+64333+023450FM-12+000599999V0202001N015919999999N0000001N9+00111+99999101341ADDGF108991999999999999999999
0029029070999991902121506004+64333+023450FM-12+000599999V0202001N015919999999N0000001N9+00111+99999101361ADDGF108991999999999999999999
0029029070999991902121420004+64333+023450FM-12+000599999V0202301N015919999999N0000001N9+00001+99999101821ADDGF108991999999999999999999
0029029070999991902121413004+64333+023450FM-12+000599999V0202001N015919999999N0000001N9+00001+99999101871ADDGF108991999999999999999999
0029029070999991902121406004+64333+023450FM-12+000599999V0202001N015919999999N0000001N9-00171+99999101941ADDGF108991999999999999999999
0029029070999991902121320004+64333+023450FM-12+000599999V0202301N013919999999N0000001N9-00331+99999102351ADDGF104991999999999999999999
0029029070999991902121313004+64333+023450FM-12+000599999V0202001N013919999999N0000001N9-00171+99999102391ADDGF108991999999999999999999
0029029070999991902121306004+64333+023450FM-12+000599999V0202301N013919999999N0000001N9-00281+99999102401ADDGF108991999999999999999999
0029029070999991902121220004+64333+023450FM-12+000599999V0202701N009819999999N0000001N9+00001+99999102321ADDGF100991999999999999999999
0029029070999991902121213004+64333+023450FM-12+000599999V0202701N009819999999N0000001N9+00061+99999102401ADDGF100991999999999999999999
0029029070999991902121206004+64333+023450FM-12+000599999V0202701N009819999999N0000001N9+00111+99999102201ADDGF100991999999999999999999
0029029070999991902121120004+64333+023450FM-12+000599999V0202701N013919999999N0000001N9+00171+99999102041ADDGF100991999999999999999999
0029029070999991902121113004+64333+023450FM-12+000599999V0202701N009819999999N0000001N9+00221+99999102061ADDGF100991999999999999999999
0029029070999991902121106004+64333+023450FM-12+000599999V0202701N011819999999N0000001N9+00061+99999102061ADDGF100991999999999999999999
0029029070999991902121020004+64333+023450FM-12+000599999V0202501N015919999999N0000001N9+00281+99999102001ADDGF100991999999999999999999
0029029070999991902121013004+64333+023450FM-12+000599999V0202501N015919999999N0000001N9+00281+99999102071ADDGF104991999999999999999999
0029029070999991902121006004+64333+023450FM-12+000599999V0202501N015919999999N0000001N9+00001+99999102151ADDGF103991999999999999999999
0029029070999991902120920004+64333+023450FM-12+000599999V0202901N009819999999N0000001N9-00061+99999102941ADDGF100991999999999999999999
0029029070999991902120913004+64333+023450FM-12+000599999V0203201N013919999999N0000001N9+00001+99999102801ADDGF100991999999999999999999
0029029070999991902120906004+64333+023450FM-12+000599999V0203401N020119999999N0000001N9+00001+99999102631ADDGF100991999999999999999999
0029029070999991902120820004+64333+023450FM-12+000599999V0202501N013919999999N0000001N9+00111+99999101821ADDGF100991999999999999999999
0029029070999991902120813004+64333+023450FM-12+000599999V0202301N011819999999N0000001N9-00061+99999101831ADDGF100991999999999999999999
0029029070999991902120806004+64333+023450FM-12+000599999V0202501N011819999999N0000001N9-00061+99999101861ADDGF100991999999999999999999
0029029070999991902120720004+64333+023450FM-12+000599999V0202701N009819999999N0000001N9-00061+99999102281ADDGF104991999999999999999999
0029029070999991902120713004+64333+023450FM-12+000599999V0202901N006219999999N0000001N9+00001+99999102461ADDGF100991999999999999999999
0029029070999991902120706004+64333+023450FM-12+000599999V0202901N004119999999N0000001N9+00001+99999102551ADDGF101991999999999999999999
0029029070999991902120620004+64333+023450FM-12+000599999V0202901N004119999999N0000001N9+00061+99999102791ADDGF105991999999999999999999
0029029070999991902120613004+64333+023450FM-12+000599999V0203201N008219999999N0000001N9+00111+99999102801ADDGF104991999999999999999999
0029029070999991902120606004+64333+023450FM-12+000599999V0202701N009819999999N0000001N9+00171+99999102801ADDGF104991999999999999999999
0029029070999991902120520004+64333+023450FM-12+000599999V0202301N015919999999N0000001N9+00061+99999102751ADDGF108991999999999999999999
0029029070999991902120513004+64333+023450FM-12+000599999V0202301N013919999999N0000001N9-00171+99999102991ADDGF106991999999999999999999
0029029070999991902120506004+64333+023450FM-12+000599999V0202301N013919999999N0000001N9-00221+99999103381ADDGF104991999999999999999999
0029029070999991902120420004+64333+023450FM-12+000599999V0202301N013919999999N0000001N9-00561+99999103941ADDGF108991999999999999999999
0029029070999991902120413004+64333+023450FM-12+000599999V0202501N004119999999N0000001N9-00611+99999103821ADDGF108991999999999999999999
0029029070999991902120406004+64333+023450FM-12+000599999V0209991C000019999999N0000001N9-00781+99999103741ADDGF108991999999999999999999
0029029070999991902120320004+64333+023450FM-12+000599999V0202301N011819999999N0000001N9-00671+99999103401ADDGF108991999999999999999999
0029029070999991902120313004+64333+023450FM-12+000599999V0201801N008219999999N0000001N9-00941+99999103141ADDGF108991999999999999999999
0029029070999991902120306004+64333+023450FM-12+000599999V0201801N008219999999N0000001N9-01171+99999103141ADDGF108991999999999999999999
0029029070999991902120220004+64333+023450FM-12+000599999V0200901N009819999999N0000001N9-01281+99999103071ADDGF108991999999999999999999
0029029070999991902120213004+64333+023450FM-12+000599999V0200701N009819999999N0000001N9-01221+99999102981ADDGF108991999999999999999999
0035029070999991902120206004+64333+023450FM-12+000599999V0200901N008219999999N0000001N9-01171+99999102821ADDGF108991999999999999999999MW1701
0029029070999991902120120004+64333+023450FM-12+000599999V0200901N009819999999N0000001N9-00941+99999102681ADDGF100991999999999999999999
0029029070999991902120113004+64333+023450FM-12+000599999V0200701N009819999999N0000001N9-00941+99999102541ADDGF104991999999999999999999
0029029070999991902120106004+64333+023450FM-12+000599999V0201601N011819999999N0000001N9-01001+99999102401ADDGF104991999999999999999999
0029029070999991902113020004+64333+023450FM-12+000599999V0201101N015919999999N0000001N9-00781+99999101821ADDGF103991999999999999999999
0029029070999991902113013004+64333+023450FM-12+000599999V0200701N011819999999N0000001N9-00831+99999101561ADDGF104991999999999999999999
0029029070999991902113006004+64333+023450FM-12+000599999V0200501N015919999999N0000001N9-00671+99999101541ADDGF104991999999999999999999
0029029070999991902112920004+64333+023450FM-12+000599999V0200501N015919999999N0000001N9-00281+99999100681ADDGF104991999999999999999999
0029029070999991902112913004+64333+023450FM-12+000599999V0200701N009819999999N0000001N9-00281+99999100701ADDGF104991999999999999999999
0029029070999991902112906004+64333+023450FM-12+000599999V0200501N011819999999N0000001N9-00441+99999100761ADDGF104991999999999999999999
0029029070999991902112820004+64333+023450FM-12+000599999V0200501N020119999999N0000001N9-00671+99999100821ADDGF105991999999999999999999
0029029070999991902112813004+64333+023450FM-12+000599999V0200501N020119999999N0000001N9-00561+99999100621ADDGF108991999999999999999999
0029029070999991902112806004+64333+023450FM-12+000599999V0200201N020119999999N0000001N9-00561+99999100341ADDGF108991999999999999999999
0029029070999991902112720004+64333+023450FM-12+000599999V0202701N015919999999N0000001N9-00441+99999099831ADDGF108991999999999999999999
0029029070999991902112713004+64333+023450FM-12+000599999V0202701N013919999999N0000001N9-00061+99999099741ADDGF108991999999999999999999
0035029070999991902112706004+64333+023450FM-12+000599999V0202301N015919999999N0000001N9+00061+99999099701ADDGF108991999999999999999999MW1721
0035029070999991902112620004+64333+023450FM-12+000599999V0202301N020119999999N0000001N9-00501+99999101071ADDGF108991999999999999999999MW1721
0029029070999991902112613004+64333+023450FM-12+000599999V0202301N015919999999N0000001N9-00501+99999101221ADDGF108991999999999999999999
0029029070999991902112606004+64333+023450FM-12+000599999V0202301N015919999999N0000001N9-00561+99999101521ADDGF108991999999999999999999
0029029070999991902112520004+64333+023450FM-12+000599999V0202001N013919999999N0000001N9-00611+99999101621ADDGF108991999999999999999999
0029029070999991902112513004+64333+023450FM-12+000599999V0202001N011819999999N0000001N9-00781+99999101671ADDGF108991999999999999999999
0029029070999991902112506004+64333+023450FM-12+000599999V0201801N011819999999N0000001N9-01061+99999101751ADDGF108991999999999999999999
0029029070999991902112420004+64333+023450FM-12+000599999V0201401N006219999999N0000001N9-01061+99999101881ADDGF100991999999999999999999
0029029070999991902112413004+64333+023450FM-12+000599999V0200701N009819999999N0000001N9-01001+99999101801ADDGF100991999999999999999999
0029029070999991902112406004+64333+023450FM-12+000599999V0200901N013919999999N0000001N9-01001+99999101671ADDGF100991999999999999999999
0029029070999991902112320004+64333+023450FM-12+000599999V0203201N011819999999N0000001N9+00171+99999100141ADDGF100991999999999999999999
0029029070999991902112313004+64333+023450FM-12+000599999V0203201N011819999999N0000001N9+00281+99999100021ADDGF100991999999999999999999
0029029070999991902112306004+64333+023450FM-12+000599999V0203201N015919999999N0000001N9+00281+99999099941ADDGF100991999999999999999999
0029029070999991902112220004+64333+023450FM-12+000599999V0202701N027819999999N0000001N9+00441+99999999999ADDGF108991999999999999999999
0029029070999991902112213004+64333+023450FM-12+000599999V0202701N020119999999N0000001N9+00331+99999100271ADDGF107991999999999999999999
0029029070999991902112206004+64333+023450FM-12+000599999V0202901N020119999999N0000001N9+00331+99999100751ADDGF102991999999999999999999
0029029070999991902112120004+64333+023450FM-12+000599999V0202001N009819999999N0000001N9-00281+99999102151ADDGF105991999999999999999999
0029029070999991902112113004+64333+023450FM-12+000599999V0200201N020119999999N0000001N9-00111+99999102271ADDGF104991999999999999999999
0029029070999991902112106004+64333+023450FM-12+000599999V0200201N020119999999N0000001N9-00061+99999101881ADDGF102991999999999999999999
0029029070999991902112020004+64333+023450FM-12+000599999V0202901N020119999999N0000001N9+00441+99999100871ADDGF105991999999999999999999
0029029070999991902112013004+64333+023450FM-12+000599999V0202901N015919999999N0000001N9+00331+99999101221ADDGF100991999999999999999999
0029029070999991902112006004+64333+023450FM-12+000599999V0202001N011819999999N0000001N9+00001+99999102001ADDGF108991999999999999999999
0029029070999991902111920004+64333+023450FM-12+000599999V0203201N015919999999N0000001N9+00331+99999102701ADDGF100991999999999999999999
0029029070999991902111913004+64333+023450FM-12+000599999V0203201N020119999999N0000001N9+00391+99999102561ADDGF100991999999999999999999
0029029070999991902111906004+64333+023450FM-12+000599999V0203201N020119999999N0000001N9+00331+99999102601ADDGF101991999999999999999999
0029029070999991902111820004+64333+023450FM-12+000599999V0203201N011819999999N0000001N9+00331+99999103221ADDGF100991999999999999999999
0029029070999991902111813004+64333+023450FM-12+000599999V0202301N011819999999N0000001N9+00281+99999103341ADDGF108991999999999999999999
0029029070999991902111806004+64333+023450FM-12+000599999V0202701N015919999999N0000001N9+00221+99999103431ADDGF100991999999999999999999
0029029070999991902111720004+64333+023450FM-12+000599999V0202501N027819999999N0000001N9+00111+99999103681ADDGF108991999999999999999999
0029029070999991902111713004+64333+023450FM-12+000599999V0202301N027819999999N0000001N9+00111+99999103751ADDGF108991999999999999999999
0029029070999991902111706004+64333+023450FM-12+000599999V0202301N020119999999N0000001N9+00221+99999103881ADDGF108991999999999999999999
0029029070999991902111620004+64333+023450FM-12+000599999V0202301N013919999999N0000001N9+00001+99999104061ADDGF108991999999999999999999
0035029070999991902111613004+64333+023450FM-12+000599999V0202301N011819999999N0000001N9-00171+99999104081ADDGF108991999999999999999999MW1701
0029029070999991902111606004+64333+023450FM-12+000599999V0202301N006219999999N0000001N9-00281+99999104221ADDGF108991999999999999999999
0029029070999991902111520004+64333+023450FM-12+000599999V0200501N009819999999N0000001N9+00281+99999104061ADDGF108991999999999999999999
0029029070999991902111513004+64333+023450FM-12+000599999V0200501N009819999999N0000001N9+00061+99999103671ADDGF108991999999999999999999
0029029070999991902111506004+64333+023450FM-12+000599999V0200901N002119999999N0000001N9+00061+99999103161ADDGF108991999999999999999999
0029029070999991902111420004+64333+023450FM-12+000599999V0201101N011819999999N0000001N9+00001+99999102501ADDGF108991999999999999999999
0029029070999991902111413004+64333+023450FM-12+000599999V0200701N009819999999N0000001N9+00221+99999102151ADDGF108991999999999999999999
0029029070999991902111406004+64333+023450FM-12+000599999V0200201N009819999999N0000001N9+00281+99999101921ADDGF108991999999999999999999
0029029070999991902111320004+64333+023450FM-12+000599999V0202701N011819999999N0000001N9+00331+99999101341ADDGF102991999999999999999999
0029029070999991902111313004+64333+023450FM-12+000599999V0202501N020119999999N0000001N9+00331+99999101191ADDGF108991999999999999999999
0029029070999991902111306004+64333+023450FM-12+000599999V0202301N027819999999N0000001N9+00331+99999101301ADDGF108991999999999999999999
0029029070999991902111220004+64333+023450FM-12+000599999V0202301N013919999999N0000001N9+00281+99999102101ADDGF100991999999999999999999
0029029070999991902111213004+64333+023450FM-12+000599999V0202301N009819999999N0000001N9+00331+99999102221ADDGF108991999999999999999999
0029029070999991902111206004+64333+023450FM-12+000599999V0202901N009819999999N0000001N9+00331+99999102001ADDGF100991999999999999999999
0029029070999991902111120004+64333+023450FM-12+000599999V0202701N013919999999N0000001N9+00441+99999101321ADDGF100991999999999999999999
0029029070999991902111113004+64333+023450FM-12+000599999V0202501N015919999999N0000001N9+00441+99999100801ADDGF102991999999999999999999
0029029070999991902111106004+64333+023450FM-12+000599999V0202301N020119999999N0000001N9+00391+99999100481ADDGF108991999999999999999999
0029029070999991902111020004+64333+023450FM-12+000599999V0201801N013919999999N0000001N9+00441+99999100401ADDGF108991999999999999999999
0035029070999991902111013004+64333+023450FM-12+000599999V0201801N013919999999N0000001N9+00441+99999100461ADDGF108991999999999999999999MW1621
0035029070999991902111006004+64333+023450FM-12+000599999V0201801N015919999999N0000001N9+00391+99999100941ADDGF108991999999999999999999MW1621
0029029070999991902110920004+64333+023450FM-12+000599999V0201601N011819999999N0000001N9+00221+99999101231ADDGF108991999999999999999999
0029029070999991902110913004+64333+023450FM-12+000599999V0201801N011819999999N0000001N9+00281+99999101351ADDGF108991999999999999999999
0029029070999991902110906004+64333+023450FM-12+000599999V0202001N011819999999N0000001N9+00281+99999101481ADDGF108991999999999999999999
0029029070999991902110820004+64333+023450FM-12+000599999V0202301N027819999999N0000001N9+00331+99999101301ADDGF108991999999999999999999
0029029070999991902110813004+64333+023450FM-12+000599999V0202301N027819999999N0000001N9+00281+99999101281ADDGF108991999999999999999999
0029029070999991902110806004+64333+023450FM-12+000599999V0202301N027819999999N0000001N9+00281+99999101351ADDGF108991999999999999999999
0029029070999991902110720004+64333+023450FM-12+000599999V0202701N008219999999N0000001N9+00061+99999101741ADDGF100991999999999999999999
0029029070999991902110713004+64333+023450FM-12+000599999V0202501N020119999999N0000001N9+00171+99999101751ADDGF108991999999999999999999
0029029070999991902110706004+64333+023450FM-12+000599999V0202301N027819999999N0000001N9+00171+99999102041ADDGF108991999999999999999999
0029029070999991902110620004+64333+023450FM-12+000599999V0202301N020119999999N0000001N9-00171+99999102911ADDGF108991999999999999999999
0029029070999991902110613004+64333+023450FM-12+000599999V0202901N011819999999N0000001N9-00221+99999103201ADDGF108991999999999999999999
0029029070999991902110606004+64333+023450FM-12+000599999V0203201N006219999999N0000001N9-00281+99999103231ADDGF108991999999999999999999
0029029070999991902110520004+64333+023450FM-12+000599999V0200201N015919999999N0000001N9-00441+99999102881ADDGF105991999999999999999999
0029029070999991902110513004+64333+023450FM-12+000599999V0200201N027819999999N0000001N9-00331+99999102351ADDGF108991999999999999999999
0035029070999991902110506004+64333+023450FM-12+000599999V0200201N020119999999N0000001N9-00281+99999101351ADDGF108991999999999999999999MW1721
0029029070999991902110420004+64333+023450FM-12+000599999V0203401N015919999999N0000001N9-00061+99999999999ADDGF108991999999999999999999
0029029070999991902110413004+64333+023450FM-12+000599999V0203401N015919999999N0000001N9+00171+99999099601ADDGF108991999999999999999999
0035029070999991902110406004+64333+023450FM-12+000599999V0203401N011819999999N0000001N9+00171+99999099121ADDGF108991999999999999999999MW1621
0029029070999991902110320004+64333+023450FM-12+000599999V0202301N015919999999N0000001N9+00281+99999099631ADDGF104991999999999999999999
0029029070999991902110313004+64333+023450FM-12+000599999V0202001N011819999999N0000001N9+00221+99999100111ADDGF108991999999999999999999
0029029070999991902110306004+64333+023450FM-12+000599999V0203201N011819999999N0000001N9+00111+99999100271ADDGF100991999999999999999999
0029029070999991902110220004+64333+023450FM-12+000599999V0203201N020119999999N0000001N9+00221+99999099741ADDGF104991999999999999999999
0029029070999991902110213004+64333+023450FM-12+000599999V0200201N027819999999N0000001N9+00171+99999098151ADDGF108991999999999999999999
0029029070999991902110206004+64333+023450FM-12+000599999V0200201N027819999999N0000001N9+00061+99999097351ADDGF108991999999999999999999
0029029070999991902110120004+64333+023450FM-12+000599999V0202701N015919999999N0000001N9+00221+99999096581ADDGF108991999999999999999999
0029029070999991902110113004+64333+023450FM-12+000599999V0202501N015919999999N0000001N9+00331+99999097321ADDGF108991999999999999999999
0035029070999991902110106004+64333+023450FM-12+000599999V0201601N020119999999N0000001N9+00111+99999097921ADDGF108991999999999999999999MW1721
0029029070999991902103120004+64333+023450FM-12+000599999V0203201N013919999999N0000001N9+00281+99999099191ADDGF102991999999999999999999
0029029070999991902103113004+64333+023450FM-12+000599999V0203201N013919999999N0000001N9+00331+99999099121ADDGF106991999999999999999999
0029029070999991902103106004+64333+023450FM-12+000599999V0202701N011819999999N0000001N9+00331+99999098821ADDGF101991999999999999999999
0029029070999991902103020004+64333+023450FM-12+000599999V0202301N013919999999N0000001N9+00501+99999099221ADDGF108991999999999999999999
0029029070999991902103013004+64333+023450FM-12+000599999V0202301N015919999999N0000001N9+00501+99999099341ADDGF108991999999999999999999
0029029070999991902103006004+64333+023450FM-12+000599999V0202301N020119999999N0000001N9+00501+99999099661ADDGF108991999999999999999999
0029029070999991902102920004+64333+023450FM-12+000599999V0202301N020119999999N0000001N9+00441+99999099951ADDGF108991999999999999999999
0029029070999991902102913004+64333+023450FM-12+000599999V0202301N015919999999N0000001N9+00441+99999100191ADDGF108991999999999999999999
0029029070999991902102906004+64333+023450FM-12+000599999V0202301N013919999999N0000001N9+00441+99999100671ADDGF106991999999999999999999
0029029070999991902102820004+64333+023450FM-12+000599999V0202301N013919999999N0000001N9+00441+99999100861ADDGF105991999999999999999999
0029029070999991902102813004+64333+023450FM-12+000599999V0202301N013919999999N0000001N9+00441+99999100941ADDGF108991999999999999999999
0029029070999991902102806004+64333+023450FM-12+000599999V0202301N009819999999N0000001N9+00441+99999100951ADDGF108991999999999999999999
0029029070999991902102720004+64333+023450FM-12+000599999V0202501N008219999999N0000001N9+00441+99999100951ADDGF102991999999999999999999
0029029070999991902102713004+64333+023450FM-12+000599999V0202501N008219999999N0000001N9+00441+99999100901ADDGF106991999999999999999999
0029029070999991902102706004+64333+023450FM-12+000599999V0202501N008219999999N0000001N9+00441+99999100801ADDGF106991999999999999999999
0029029070999991902102620004+64333+023450FM-12+000599999V0202301N008219999999N0000001N9+00441+99999101081ADDGF103991999999999999999999
0029029070999991902102613004+64333+023450FM-12+000599999V0202301N008219999999N0000001N9+00501+99999101121ADDGF100991999999999999999999
0029029070999991902102606004+64333+023450FM-12+000599999V0203201N013919999999N0000001N9+00441+99999101271ADDGF102991999999999999999999
0029029070999991902102520004+64333+023450FM-12+000599999V0202501N020119999999N0000001N9+00391+99999101201ADDGF100991999999999999999999
0029029070999991902102513004+64333+023450FM-12+000599999V0202901N020119999999N0000001N9+00501+99999100641ADDGF101991999999999999999999
0029029070999991902102506004+64333+023450FM-12+000599999V0202701N020119999999N0000001N9+00331+99999100681ADDGF101991999999999999999999
0029029070999991902102420004+64333+023450FM-12+000599999V0202701N015919999999N0000001N9+00501+99999999999ADDGF100991999999999999999999
0035029070999991902102413004+64333+023450FM-12+000599999V0202501N013919999999N0000001N9+00501+99999099761ADDGF108991999999999999999999MW1621
0035029070999991902102406004+64333+023450FM-12+000599999V0201601N015919999999N0000001N9+00111+99999100391ADDGF108991999999999999999999MW1621
0029029070999991902102320004+64333+023450FM-12+000599999V0201801N013919999999N0000001N9-00391+99999101981ADDGF108991999999999999999999
0029029070999991902102313004+64333+023450FM-12+000599999V0201801N009819999999N0000001N9-00501+99999102441ADDGF108991999999999999999999
0029029070999991902102306004+64333+023450FM-12+000599999V0201601N009819999999N0000001N9-00781+99999102341ADDGF106991999999999999999999
0029029070999991902102220004+64333+023450FM-12+000599999V0201401N009819999999N0000001N9-00561+99999101951ADDGF108991999999999999999999
0029029070999991902102213004+64333+023450FM-12+000599999V0201401N009819999999N0000001N9-00501+99999101871ADDGF100991999999999999999999
0029029070999991902102206004+64333+023450FM-12+000599999V0201401N011819999999N0000001N9-00501+99999101801ADDGF104991999999999999999999
0029029070999991902102120004+64333+023450FM-12+000599999V0201401N015919999999N0000001N9-00281+99999101501ADDGF108991999999999999999999
0029029070999991902102113004+64333+023450FM-12+000599999V0201401N013919999999N0000001N9-00281+99999101481ADDGF108991999999999999999999
0029029070999991902102106004+64333+023450FM-12+000599999V0201401N011819999999N0000001N9-00331+99999101481ADDGF108991999999999999999999
0029029070999991902102020004+64333+023450FM-12+000599999V0201401N006219999999N0000001N9-00281+99999101381ADDGF108991999999999999999999
0029029070999991902102013004+64333+023450FM-12+000599999V0201401N006219999999N0000001N9-00171+99999101341ADDGF108991999999999999999999
0029029070999991902102006004+64333+023450FM-12+000599999V0200701N004119999999N0000001N9-00061+99999101161ADDGF108991999999999999999999
0029029070999991902101920004+64333+023450FM-12+000599999V0200201N011819999999N0000001N9+00001+99999100621ADDGF108991999999999999999999
0035029070999991902101913004+64333+023450FM-12+000599999V0200201N011819999999N0000001N9+00001+99999100591ADDGF108991999999999999999999MW1721
0035029070999991902101906004+64333+023450FM-12+000599999V0200501N011819999999N0000001N9+00001+99999100551ADDGF108991999999999999999999MW1721
0029029070999991902101820004+64333+023450FM-12+000599999V0200501N013919999999N0000001N9+00001+99999100421ADDGF108991999999999999999999
0035029070999991902101813004+64333+023450FM-12+000599999V0200501N013919999999N0000001N9-00111+99999100351ADDGF108991999999999999999999MW1721
0035029070999991902101806004+64333+023450FM-12+000599999V0200701N013919999999N0000001N9-00221+99999100101ADDGF108991999999999999999999MW1721
0035029070999991902101720004+64333+023450FM-12+000599999V0200701N011819999999N0000001N9-00061+99999099701ADDGF108991999999999999999999MW1721
0029029070999991902101713004+64333+023450FM-12+000599999V0200701N011819999999N0000001N9-00061+99999099671ADDGF108991999999999999999999
0029029070999991902101706004+64333+023450FM-12+000599999V0200901N011819999999N0000001N9-00281+99999099681ADDGF108991999999999999999999
0029029070999991902101620004+64333+023450FM-12+000599999V0201401N013919999999N0000001N9-00331+99999100381ADDGF100991999999999999999999
0029029070999991902101613004+64333+023450FM-12+000599999V0201101N008219999999N0000001N9-00171+99999100741ADDGF100991999999999999999999
0029029070999991902101606004+64333+023450FM-12+000599999V0201401N006219999999N0000001N9-00441+99999101141ADDGF100991999999999999999999
0029029070999991902101520004+64333+023450FM-12+000599999V0200701N009819999999N0000001N9-00221+99999101081ADDGF100991999999999999999999
0029029070999991902101513004+64333+023450FM-12+000599999V0200701N011819999999N0000001N9-00171+99999101151ADDGF100991999999999999999999
0029029070999991902101506004+64333+023450FM-12+000599999V0200701N013919999999N0000001N9-00331+99999101141ADDGF100991999999999999999999
0029029070999991902101420004+64333+023450FM-12+000599999V0200701N013919999999N0000001N9-00111+99999100751ADDGF108991999999999999999999
0029029070999991902101413004+64333+023450FM-12+000599999V0200701N011819999999N0000001N9-00061+99999100751ADDGF108991999999999999999999
0029029070999991902101406004+64333+023450FM-12+000599999V0200701N009819999999N0000001N9-00061+99999100741ADDGF108991999999999999999999
0029029070999991902101320004+64333+023450FM-12+000599999V0203401N002119999999N0000001N9+00061+99999101381ADDGF101991999999999999999999
0029029070999991902101313004+64333+023450FM-12+000599999V0203201N008219999999N0000001N9+00111+99999101541ADDGF107991999999999999999999
0029029070999991902101306004+64333+023450FM-12+000599999V0203401N009819999999N0000001N9+00001+99999101591ADDGF108991999999999999999999
0035029070999991902101220004+64333+023450FM-12+000599999V0209991C000019999999N0000001N9+00111+99999101511ADDGF108991999999999999999999MW1701
0035029070999991902101213004+64333+023450FM-12+000599999V0200701N004119999999N0000001N9+00171+99999101481ADDGF108991999999999999999999MW1701
0029029070999991902101206004+64333+023450FM-12+000599999V0200701N011819999999N0000001N9+00111+99999100981ADDGF108991999999999999999999
0029029070999991902101120004+64333+023450FM-12+000599999V0200201N020119999999N0000001N9+00281+99999100231ADDGF108991999999999999999999
0035029070999991902101113004+64333+023450FM-12+000599999V0202001N006219999999N0000001N9+00281+99999099831ADDGF108991999999999999999999MW1621
0035029070999991902101106004+64333+023450FM-12+000599999V0201801N002119999999N0000001N9+00441+99999099981ADDGF108991999999999999999999MW1621
0029029070999991902101020004+64333+023450FM-12+000599999V0202301N011819999999N0000001N9+00561+99999100581ADDGF108991999999999999999999
0029029070999991902101013004+64333+023450FM-12+000599999V0202501N009819999999N0000001N9+00501+99999100721ADDGF100991999999999999999999
0029029070999991902101006004+64333+023450FM-12+000599999V0202701N009819999999N0000001N9+00441+99999100991ADDGF100991999999999999999999
0029029070999991902100920004+64333+023450FM-12+000599999V0202501N015919999999N0000001N9+00561+99999101401ADDGF104991999999999999999999
0029029070999991902100913004+64333+023450FM-12+000599999V0202001N011819999999N0000001N9+00391+99999101621ADDGF103991999999999999999999
0029029070999991902100906004+64333+023450FM-12+000599999V0200501N002119999999N0000001N9+00221+99999101881ADDGF106991999999999999999999
0029029070999991902100820004+64333+023450FM-12+000599999V0203601N015919999999N0000001N9+00391+99999101561ADDGF104991999999999999999999
0029029070999991902100813004+64333+023450FM-12+000599999V0203601N015919999999N0000001N9+00331+99999100521ADDGF102991999999999999999999
0029029070999991902100806004+64333+023450FM-12+000599999V0203601N015919999999N0000001N9+00441+99999100501ADDGF102991999999999999999999
0029029070999991902100720004+64333+023450FM-12+000599999V0202501N013919999999N0000001N9+00671+99999100201ADDGF104991999999999999999999
0029029070999991902100713004+64333+023450FM-12+000599999V0202701N009819999999N0000001N9+00671+99999100281ADDGF104991999999999999999999
0029029070999991902100706004+64333+023450FM-12+000599999V0202701N009819999999N0000001N9+00561+99999100951ADDGF104991999999999999999999
0029029070999991902100620004+64333+023450FM-12+000599999V0202501N011819999999N0000001N9+00721+99999101231ADDGF102991999999999999999999
0029029070999991902100613004+64333+023450FM-12+000599999V0202701N009819999999N0000001N9+00781+99999101381ADDGF104991999999999999999999
0029029070999991902100606004+64333+023450FM-12+000599999V0202901N008219999999N0000001N9+00671+99999101461ADDGF102991999999999999999999
0029029070999991902100520004+64333+023450FM-12+000599999V0209991C000019999999N0000001N9+00561+99999101621ADDGF101991999999999999999999
0029029070999991902100513004+64333+023450FM-12+000599999V0203201N009819999999N0000001N9+00671+99999101601ADDGF104991999999999999999999
0029029070999991902100506004+64333+023450FM-12+000599999V0202701N004119999999N0000001N9+00281+99999101591ADDGF104991999999999999999999
0029029070999991902100420004+64333+023450FM-12+000599999V0203401N011819999999N0000001N9+00281+99999101711ADDGF101991999999999999999999
0029029070999991902100413004+64333+023450FM-12+000599999V0203601N011819999999N0000001N9+00331+99999101681ADDGF104991999999999999999999
0029029070999991902100406004+64333+023450FM-12+000599999V0203601N013919999999N0000001N9+00221+99999101711ADDGF105991999999999999999999
0029029070999991902100320004+64333+023450FM-12+000599999V0203601N020119999999N0000001N9+00281+99999100991ADDGF105991999999999999999999
0035029070999991902100313004+64333+023450FM-12+000599999V0202501N027819999999N0000001N9+00281+99999100471ADDGF108991999999999999999999MW1901
0029029070999991902100306004+64333+023450FM-12+000599999V0202501N013919999999N0000001N9+00671+99999100141ADDGF108991999999999999999999
0029029070999991902100220004+64333+023450FM-12+000599999V0202501N013919999999N0000001N9+00331+99999101341ADDGF108991999999999999999999
0029029070999991902100213004+64333+023450FM-12+000599999V0202501N013919999999N0000001N9+00441+99999101841ADDGF105991999999999999999999
0029029070999991902100206004+64333+023450FM-12+000599999V0202701N013919999999N0000001N9+00281+99999102381ADDGF104991999999999999999999
0029029070999991902100120004+64333+023450FM-12+000599999V0203601N006219999999N0000001N9+00391+99999102631ADDGF108991999999999999999999
0029029070999991902100113004+64333+023450FM-12+000599999V0203601N011819999999N0000001N9+00281+99999102621ADDGF104991999999999999999999
0029029070999991902100106004+64333+023450FM-12+000599999V0203601N013919999999N0000001N9+00221+99999102471ADDGF104991999999999999999999
0029029070999991902093020004+64333+023450FM-12+000599999V0203601N013919999999N0000001N9+00331+99999102381ADDGF104991999999999999999999
0029029070999991902093013004+64333+023450FM-12+000599999V0203601N015919999999N0000001N9+00221+99999101951ADDGF104991999999999999999999
0029029070999991902093006004+64333+023450FM-12+000599999V0203601N020119999999N0000001N9+00221+99999101861ADDGF104991999999999999999999
0029029070999991902092920004+64333+023450FM-12+000599999V0203601N018019999999N0000001N9+00441+99999101481ADDGF108991999999999999999999
0029029070999991902092913004+64333+023450FM-12+000599999V0202901N013919999999N0000001N9+00671+99999101001ADDGF108991999999999999999999
0029029070999991902092906004+64333+023450FM-12+000599999V0202901N013919999999N0000001N9+00721+99999101161ADDGF106991999999999999999999
0029029070999991902092820004+64333+023450FM-12+000599999V0203201N011819999999N0000001N9+00781+99999101081ADDGF108991999999999999999999
0029029070999991902092813004+64333+023450FM-12+000599999V0203401N011819999999N0000001N9+00561+99999101941ADDGF108991999999999999999999
0029029070999991902092806004+64333+023450FM-12+000599999V0203401N013919999999N0000001N9+00391+99999101751ADDGF108991999999999999999999
0029029070999991902092720004+64333+023450FM-12+000599999V0203601N020119999999N0000001N9+00721+99999101401ADDGF108991999999999999999999
0029029070999991902092713004+64333+023450FM-12+000599999V0203201N008219999999N0000001N9+00721+99999101061ADDGF108991999999999999999999
0029029070999991902092706004+64333+023450FM-12+000599999V0202901N008219999999N0000001N9+00721+99999100951ADDGF102991999999999999999999
0029029070999991902092620004+64333+023450FM-12+000599999V0202501N011819999999N0000001N9+00831+99999101221ADDGF100991999999999999999999
0029029070999991902092613004+64333+023450FM-12+000599999V0202301N009819999999N0000001N9+00831+99999101671ADDGF104991999999999999999999
0029029070999991902092606004+64333+023450FM-12+000599999V0202701N008219999999N0000001N9+00831+99999101881ADDGF102991999999999999999999
0029029070999991902092520004+64333+023450FM-12+000599999V0202301N013919999999N0000001N9+00611+99999102021ADDGF108991999999999999999999
0029029070999991902092513004+64333+023450FM-12+000599999V0202001N009819999999N0000001N9+00781+99999102231ADDGF108991999999999999999999
0029029070999991902092506004+64333+023450FM-12+000599999V0202001N006219999999N0000001N9+00611+99999102281ADDGF108991999999999999999999
0029029070999991902092420004+64333+023450FM-12+000599999V0202001N002119999999N0000001N9+00611+99999102461ADDGF104991999999999999999999
0029029070999991902092413004+64333+023450FM-12+000599999V0202301N002119999999N0000001N9+01061+99999102471ADDGF104991999999999999999999
0029029070999991902092406004+64333+023450FM-12+000599999V0202301N008219999999N0000001N9+00831+99999102471ADDGF108991999999999999999999
0029029070999991902092320004+64333+023450FM-12+000599999V0202001N008219999999N0000001N9+00781+99999102711ADDGF105991999999999999999999
0029029070999991902092313004+64333+023450FM-12+000599999V0202301N004119999999N0000001N9+00831+99999102821ADDGF103991999999999999999999
0029029070999991902092306004+64333+023450FM-12+000599999V0209991C000019999999N0000001N9+00611+99999102841ADDGF101991999999999999999999
0029029070999991902092220004+64333+023450FM-12+000599999V0203401N013919999999N0000001N9+00781+99999102551ADDGF100991999999999999999999
0029029070999991902092213004+64333+023450FM-12+000599999V0203201N011819999999N0000001N9+00781+99999102421ADDGF104991999999999999999999
0029029070999991902092206004+64333+023450FM-12+000599999V0202901N011819999999N0000001N9+00611+99999102281ADDGF104991999999999999999999
0029029070999991902092120004+64333+023450FM-12+000599999V0202701N006219999999N0000001N9+00561+99999102631ADDGF100991999999999999999999
0029029070999991902092113004+64333+023450FM-12+000599999V0203201N015919999999N0000001N9+00441+99999102681ADDGF100991999999999999999999
0029029070999991902092106004+64333+023450FM-12+000599999V0203201N008219999999N0000001N9+00441+99999102621ADDGF100991999999999999999999
0029029070999991902092020004+64333+023450FM-12+000599999V0203401N013919999999N0000001N9+00501+99999102311ADDGF104991999999999999999999
0029029070999991902092013004+64333+023450FM-12+000599999V0203601N015919999999N0000001N9+00391+99999102181ADDGF104991999999999999999999
0029029070999991902092006004+64333+023450FM-12+000599999V0203601N020119999999N0000001N9+00391+99999101661ADDGF104991999999999999999999
0035029070999991902091920004+64333+023450FM-12+000599999V0203601N020119999999N0000001N9+00441+99999100951ADDGF108991999999999999999999MW1891
0029029070999991902091913004+64333+023450FM-12+000599999V0203601N020119999999N0000001N9+00441+99999100821ADDGF108991999999999999999999
0035029070999991902091906004+64333+023450FM-12+000599999V0203601N020119999999N0000001N9+00391+99999100111ADDGF108991999999999999999999MW1621
0029029070999991902091820004+64333+023450FM-12+000599999V0202501N008219999999N0000001N9+00561+99999099741ADDGF108991999999999999999999
0029029070999991902091813004+64333+023450FM-12+000599999V0202701N009819999999N0000001N9+00611+99999099661ADDGF108991999999999999999999
0029029070999991902091806004+64333+023450FM-12+000599999V0202701N008219999999N0000001N9+00671+99999099471ADDGF108991999999999999999999
0029029070999991902091720004+64333+023450FM-12+000599999V0200501N004119999999N0000001N9+00891+99999099481ADDGF108991999999999999999999
0035029070999991902091713004+64333+023450FM-12+000599999V0200701N011819999999N0000001N9+00891+99999099701ADDGF108991999999999999999999MW1621
0035029070999991902091706004+64333+023450FM-12+000599999V0200701N013919999999N0000001N9+00671+99999099631ADDGF108991999999999999999999MW1621
0029029070999991902091620004+64333+023450FM-12+000599999V0200501N006219999999N0000001N9+00721+99999100151ADDGF104991999999999999999999
0035029070999991902091613004+64333+023450FM-12+000599999V0202901N004119999999N0000001N9+00891+99999099831ADDGF108991999999999999999999MW1621
0029029070999991902091606004+64333+023450FM-12+000599999V0202901N013919999999N0000001N9+00611+99999099221ADDGF107991999999999999999999
0029029070999991902091520004+64333+023450FM-12+000599999V0203201N008219999999N0000001N9+00671+99999098581ADDGF104991999999999999999999
0035029070999991902091513004+64333+023450FM-12+000599999V0202301N015919999999N0000001N9+00721+99999098341ADDGF108991999999999999999999MW1621
0029029070999991902091506004+64333+023450FM-12+000599999V0202301N011819999999N0000001N9+00671+99999098151ADDGF108991999999999999999999
0029029070999991902091420004+64333+023450FM-12+000599999V0201801N009819999999N0000001N9+00721+99999097991ADDGF104991999999999999999999
0029029070999991902091413004+64333+023450FM-12+000599999V0209991C000019999999N0000001N9+00781+99999097881ADDGF106991999999999999999999
0029029070999991902091406004+64333+023450FM-12+000599999V0201801N011819999999N0000001N9+00721+99999097671ADDGF108991999999999999999999
0029029070999991902091320004+64333+023450FM-12+000599999V0201801N009819999999N0000001N9+00891+99999097431ADDGF108991999999999999999999
0035029070999991902091313004+64333+023450FM-12+000599999V0200701N020119999999N0000001N9+00781+99999097751ADDGF108991999999999999999999MW1641
0035029070999991902091306004+64333+023450FM-12+000599999V0200701N015919999999N0000001N9+00721+99999098981ADDGF108991999999999999999999MW1641
0029029070999991902091220004+64333+023450FM-12+000599999V0200701N008219999999N0000001N9+00721+99999999999ADDGF108991999999999999999999
0029029070999991902091213004+64333+023450FM-12+000599999V0202301N006219999999N0000001N9+00831+99999100161ADDGF106991999999999999999999
0029029070999991902091206004+64333+023450FM-12+000599999V0201801N009819999999N0000001N9+00611+99999100201ADDGF106991999999999999999999
0029029070999991902091120004+64333+023450FM-12+000599999V0202301N002119999999N0000001N9+00721+99999100861ADDGF106991999999999999999999
0029029070999991902091113004+64333+023450FM-12+000599999V0203401N011819999999N0000001N9+00781+99999100921ADDGF104991999999999999999999
0029029070999991902091106004+64333+023450FM-12+000599999V0203401N018019999999N0000001N9+00721+99999100821ADDGF101991999999999999999999
0029029070999991902091020004+64333+023450FM-12+000599999V0203601N015919999999N0000001N9+00941+99999100121ADDGF106991999999999999999999
0029029070999991902091013004+64333+023450FM-12+000599999V0202701N015919999999N0000001N9+00891+99999099861ADDGF103991999999999999999999
0029029070999991902091006004+64333+023450FM-12+000599999V0202901N020119999999N0000001N9+00831+99999099621ADDGF102991999999999999999999
0029029070999991902090920004+64333+023450FM-12+000599999V0202701N020119999999N0000001N9+01061+99999099511ADDGF101991999999999999999999
0029029070999991902090913004+64333+023450FM-12+000599999V0202501N018019999999N0000001N9+01111+99999099581ADDGF104991999999999999999999
0029029070999991902090906004+64333+023450FM-12+000599999V0202501N020119999999N0000001N9+01111+99999099581ADDGF101991999999999999999999
0029029070999991902090820004+64333+023450FM-12+000599999V0202501N020119999999N0000001N9+01171+99999100361ADDGF107991999999999999999999
0035029070999991902090813004+64333+023450FM-12+000599999V0202301N015919999999N0000001N9+01061+99999100791ADDGF108991999999999999999999MW1621
0029029070999991902090806004+64333+023450FM-12+000599999V0202301N013919999999N0000001N9+01001+99999101191ADDGF108991999999999999999999
0029029070999991902090720004+64333+023450FM-12+000599999V0202301N008219999999N0000001N9+01001+99999101681ADDGF108991999999999999999999
0029029070999991902090713004+64333+023450FM-12+000599999V0201801N006219999999N0000001N9+01111+99999101841ADDGF103991999999999999999999
0029029070999991902090706004+64333+023450FM-12+000599999V0202001N006219999999N0000001N9+01001+99999102021ADDGF108991999999999999999999
0029029070999991902090620004+64333+023450FM-12+000599999V0203601N009819999999N0000001N9+00891+99999101591ADDGF102991999999999999999999
0029029070999991902090613004+64333+023450FM-12+000599999V0209991C000019999999N0000001N9+01171+99999101261ADDGF108991999999999999999999
0029029070999991902090606004+64333+023450FM-12+000599999V0200901N008219999999N0000001N9+00941+99999100711ADDGF106991999999999999999999
0029029070999991902090520004+64333+023450FM-12+000599999V0209991C000019999999N0000001N9+00941+99999100431ADDGF104991999999999999999999
0029029070999991902090513004+64333+023450FM-12+000599999V0202501N009819999999N0000001N9+01111+99999100271ADDGF102991999999999999999999
0029029070999991902090506004+64333+023450FM-12+000599999V0202701N015919999999N0000001N9+01061+99999100031ADDGF102991999999999999999999
0029029070999991902090420004+64333+023450FM-12+000599999V0202001N020119999999N0000001N9+01171+99999099951ADDGF104991999999999999999999
0035029070999991902090413004+64333+023450FM-12+000599999V0202001N015919999999N0000001N9+01171+99999100431ADDGF108991999999999999999999MW1621
0035029070999991902090406004+64333+023450FM-12+000599999V0202001N008219999999N0000001N9+01061+99999100761ADDGF108991999999999999999999MW1621
0029029070999991902090320004+64333+023450FM-12+000599999V0201801N008219999999N0000001N9+01061+99999101381ADDGF106991999999999999999999
0029029070999991902090313004+64333+023450FM-12+000599999V0201601N008219999999N0000001N9+01281+99999101751ADDGF103991999999999999999999
0029029070999991902090306004+64333+023450FM-12+000599999V0201801N009819999999N0000001N9+00891+99999101921ADDGF108991999999999999999999
0029029070999991902090220004+64333+023450FM-12+000599999V0209991C000019999999N0000001N9+00891+99999101831ADDGF108991999999999999999999
0029029070999991902090213004+64333+023450FM-12+000599999V0200901N008219999999N0000001N9+01001+99999101631ADDGF108991999999999999999999
0029029070999991902090206004+64333+023450FM-12+000599999V0201101N009819999999N0000001N9+00781+99999101501ADDGF108991999999999999999999
0035029070999991902090120004+64333+023450FM-12+000599999V0201101N009819999999N0000001N9+00781+99999101481ADDGF108991999999999999999999MW1621
0029029070999991902090113004+64333+023450FM-12+000599999V0201601N011819999999N0000001N9+01001+99999101581ADDGF108991999999999999999999
0029029070999991902090106004+64333+023450FM-12+000599999V0201601N011819999999N0000001N9+00721+99999101781ADDGF106991999999999999999999
0029029070999991902083120004+64333+023450FM-12+000599999V0200901N008219999999N0000001N9+00941+99999101841ADDGF103991999999999999999999
0029029070999991902083113004+64333+023450FM-12+000599999V0200901N008219999999N0000001N9+01001+99999101881ADDGF102991999999999999999999
0029029070999991902083106004+64333+023450FM-12+000599999V0200901N008219999999N0000001N9+00941+99999102031ADDGF101991999999999999999999
0029029070999991902083020004+64333+023450FM-12+000599999V0200201N008219999999N0000001N9+00941+99999101951ADDGF102991999999999999999999
0029029070999991902083013004+64333+023450FM-12+000599999V0200201N008219999999N0000001N9+01001+99999101951ADDGF100991999999999999999999
0029029070999991902083006004+64333+023450FM-12+000599999V0200501N006219999999N0000001N9+01001+99999101941ADDGF106991999999999999999999
0029029070999991902082920004+64333+023450FM-12+000599999V0200201N009819999999N0000001N9+00941+99999101821ADDGF105991999999999999999999
0029029070999991902082913004+64333+023450FM-12+000599999V0200501N008219999999N0000001N9+00941+99999101881ADDGF106991999999999999999999
0029029070999991902082906004+64333+023450FM-12+000599999V0200501N002119999999N0000001N9+00941+99999102041ADDGF104991999999999999999999
0029029070999991902082820004+64333+023450FM-12+000599999V0200201N009819999999N0000001N9+01001+99999102101ADDGF101991999999999999999999
0029029070999991902082813004+64333+023450FM-12+000599999V0200201N009819999999N0000001N9+01061+99999102201ADDGF101991999999999999999999
0029029070999991902082806004+64333+023450FM-12+000599999V0209991C000019999999N0000001N9+01001+99999102341ADDGF101991999999999999999999
0029029070999991902082720004+64333+023450FM-12+000599999V0203601N002119999999N0000001N9+01001+99999102201ADDGF103991999999999999999999
0029029070999991902082713004+64333+023450FM-12+000599999V0203601N004119999999N0000001N9+01221+99999102071ADDGF102991999999999999999999
0029029070999991902082706004+64333+023450FM-12+000599999V0209991C000019999999N0000001N9+01001+99999101671ADDGF106991999999999999999999
0029029070999991902082620004+64333+023450FM-12+000599999V0209991C000019999999N0000001N9+01061+99999101141ADDGF108991999999999999999999
0029029070999991902082613004+64333+023450FM-12+000599999V0200701N006219999999N0000001N9+01061+99999100951ADDGF108991999999999999999999
0029029070999991902082606004+64333+023450FM-12+000599999V0201101N006219999999N0000001N9+01061+99999101021ADDGF108991999999999999999999
0035029070999991902082520004+64333+023450FM-12+000599999V0201801N006219999999N0000001N9+01001+99999101271ADDGF108991999999999999999999MW1621
0035029070999991902082513004+64333+023450FM-12+000599999V0202001N011819999999N0000001N9+01001+99999101481ADDGF108991999999999999999999MW1621
0029029070999991902082506004+64333+023450FM-12+000599999V0202001N009819999999N0000001N9+01001+99999101481ADDGF108991999999999999999999
0029029070999991902082420004+64333+023450FM-12+000599999V0202001N006219999999N0000001N9+01061+99999101541ADDGF104991999999999999999999
0029029070999991902082413004+64333+023450FM-12+000599999V0209991C000019999999N0000001N9+01441+99999101631ADDGF101991999999999999999999
0029029070999991902082406004+64333+023450FM-12+000599999V0202001N008219999999N0000001N9+00831+99999101601ADDGF101991999999999999999999
0029029070999991902082320004+64333+023450FM-12+000599999V0202301N009819999999N0000001N9+00891+99999101501ADDGF100991999999999999999999
0029029070999991902082313004+64333+023450FM-12+000599999V0202501N009819999999N0000001N9+01001+99999101281ADDGF100991999999999999999999
0029029070999991902082306004+64333+023450FM-12+000599999V0203201N015919999999N0000001N9+00891+99999101041ADDGF108991999999999999999999
0035029070999991902082220004+64333+023450FM-12+000599999V0202701N008219999999N0000001N9+00941+99999100021ADDGF108991999999999999999999MW1621
0029029070999991902082213004+64333+023450FM-12+000599999V0202501N004119999999N0000001N9+00941+99999099951ADDGF108991999999999999999999
0029029070999991902082206004+64333+023450FM-12+000599999V0202001N006219999999N0000001N9+00831+99999099881ADDGF108991999999999999999999
0029029070999991902082120004+64333+023450FM-12+000599999V0201801N008219999999N0000001N9+00891+99999099941ADDGF102991999999999999999999
0029029070999991902082113004+64333+023450FM-12+000599999V0202301N009819999999N0000001N9+01061+99999100031ADDGF108991999999999999999999
0029029070999991902082106004+64333+023450FM-12+000599999V0202001N011819999999N0000001N9+01001+99999099841ADDGF105991999999999999999999
0029029070999991902082020004+64333+023450FM-12+000599999V0201801N006219999999N0000001N9+01171+99999099751ADDGF108991999999999999999999
0035029070999991902082013004+64333+023450FM-12+000599999V0201101N008219999999N0000001N9+01111+99999099801ADDGF108991999999999999999999MW1621
0029029070999991902082006004+64333+023450FM-12+000599999V0200901N009819999999N0000001N9+01111+99999100511ADDGF106991999999999999999999
0029029070999991902081920004+64333+023450FM-12+000599999V0202001N008219999999N0000001N9+01001+99999101081ADDGF104991999999999999999999
0029029070999991902081913004+64333+023450FM-12+000599999V0202001N008219999999N0000001N9+01171+99999101261ADDGF103991999999999999999999
0029029070999991902081906004+64333+023450FM-12+000599999V0201601N008219999999N0000001N9+01001+99999101401ADDGF103991999999999999999999
0029029070999991902081820004+64333+023450FM-12+000599999V0202001N004119999999N0000001N9+01001+99999101281ADDGF101991999999999999999999
0029029070999991902081813004+64333+023450FM-12+000599999V0202301N006219999999N0000001N9+01111+99999101121ADDGF103991999999999999999999
0029029070999991902081806004+64333+023450FM-12+000599999V0202501N008219999999N0000001N9+01001+99999100671ADDGF108991999999999999999999
0035029070999991902081720004+64333+023450FM-12+000599999V0202001N013919999999N0000001N9+00891+99999100181ADDGF108991999999999999999999MW1621
0029029070999991902081713004+64333+023450FM-12+000599999V0202001N011819999999N0000001N9+01001+99999099881ADDGF105991999999999999999999
0029029070999991902081706004+64333+023450FM-12+000599999V0201801N011819999999N0000001N9+00941+99999099641ADDGF108991999999999999999999
0035029070999991902081620004+64333+023450FM-12+000599999V0201801N011819999999N0000001N9+00891+99999098981ADDGF108991999999999999999999MW1621
0035029070999991902081613004+64333+023450FM-12+000599999V0201601N009819999999N0000001N9+01001+99999098591ADDGF108991999999999999999999MW1621
0035029070999991902081606004+64333+023450FM-12+000599999V0201401N009819999999N0000001N9+00941+99999098581ADDGF108991999999999999999999MW1621
0029029070999991902081520004+64333+023450FM-12+000599999V0200201N020119999999N0000001N9+01001+99999098801ADDGF108991999999999999999999
0035029070999991902081513004+64333+023450FM-12+000599999V0200201N020119999999N0000001N9+01061+99999099521ADDGF108991999999999999999999MW1621
0029029070999991902081506004+64333+023450FM-12+000599999V0200201N009819999999N0000001N9+01111+99999099941ADDGF108991999999999999999999
0029029070999991902081420004+64333+023450FM-12+000599999V0209991C000019999999N0000001N9+01001+99999100201ADDGF102991999999999999999999
0029029070999991902081413004+64333+023450FM-12+000599999V0209991C000019999999N0000001N9+01331+99999099921ADDGF106991999999999999999999
0029029070999991902081406004+64333+023450FM-12+000599999V0200501N011819999999N0000001N9+01171+99999099921ADDGF108991999999999999999999
0029029070999991902081320004+64333+023450FM-12+000599999V0200701N006219999999N0000001N9+01171+99999100321ADDGF106991999999999999999999
0029029070999991902081313004+64333+023450FM-12+000599999V0200501N008219999999N0000001N9+01281+99999100501ADDGF104991999999999999999999
0029029070999991902081306004+64333+023450FM-12+000599999V0200901N008219999999N0000001N9+01171+99999100781ADDGF106991999999999999999999
0029029070999991902081220004+64333+023450FM-12+000599999V0201101N006219999999N0000001N9+01221+99999100721ADDGF104991999999999999999999
0029029070999991902081213004+64333+023450FM-12+000599999V0201101N006219999999N0000001N9+01441+99999100681ADDGF104991999999999999999999
0029029070999991902081206004+64333+023450FM-12+000599999V0201801N006219999999N0000001N9+01221+99999100681ADDGF106991999999999999999999
0035029070999991902081120004+64333+023450FM-12+000599999V0200901N006219999999N0000001N9+01111+99999100421ADDGF108991999999999999999999MW1621
0029029070999991902081113004+64333+023450FM-12+000599999V0202001N008219999999N0000001N9+01391+99999100201ADDGF102991999999999999999999
0029029070999991902081106004+64333+023450FM-12+000599999V0202001N011819999999N0000001N9+01061+99999100071ADDGF101991999999999999999999
0029029070999991902081020004+64333+023450FM-12+000599999V0209991C000019999999N0000001N9+01111+99999100141ADDGF108991999999999999999999
0035029070999991902081013004+64333+023450FM-12+000599999V0200901N011819999999N0000001N9+01221+99999100151ADDGF108991999999999999999999MW1621
0035029070999991902081006004+64333+023450FM-12+000599999V0200901N009819999999N0000001N9+01221+99999100321ADDGF108991999999999999999999MW1621
0029029070999991902080920004+64333+023450FM-12+000599999V0203601N006219999999N0000001N9+01281+99999100841ADDGF103991999999999999999999
0029029070999991902080913004+64333+023450FM-12+000599999V0203601N002119999999N0000001N9+01501+99999101111ADDGF101991999999999999999999
0029029070999991902080906004+64333+023450FM-12+000599999V0202001N002119999999N0000001N9+01221+99999101041ADDGF103991999999999999999999
0029029070999991902080820004+64333+023450FM-12+000599999V0209991C000019999999N0000001N9+01221+99999100841ADDGF108991999999999999999999
0029029070999991902080813004+64333+023450FM-12+000599999V0202301N004119999999N0000001N9+01441+99999100841ADDGF108991999999999999999999
0029029070999991902080806004+64333+023450FM-12+000599999V0202301N004119999999N0000001N9+01221+99999100841ADDGF108991999999999999999999
0029029070999991902080720004+64333+023450FM-12+000599999V0200501N004119999999N0000001N9+01111+99999100751ADDGF108991999999999999999999
0029029070999991902080713004+64333+023450FM-12+000599999V0200201N006219999999N0000001N9+01391+99999100821ADDGF104991999999999999999999
0029029070999991902080706004+64333+023450FM-12+000599999V0200701N004119999999N0000001N9+01221+99999100861ADDGF104991999999999999999999
0029029070999991902080620004+64333+023450FM-12+000599999V0200901N009819999999N0000001N9+01221+99999100841ADDGF108991999999999999999999
0029029070999991902080613004+64333+023450FM-12+000599999V0200501N006219999999N0000001N9+01281+99999100941ADDGF104991999999999999999999
0029029070999991902080606004+64333+023450FM-12+000599999V0200501N006219999999N0000001N9+01171+99999100951ADDGF103991999999999999999999
0029029070999991902080520004+64333+023450FM-12+000599999V0200901N008219999999N0000001N9+01221+99999100841ADDGF108991999999999999999999
0035029070999991902080513004+64333+023450FM-12+000599999V0200701N008219999999N0000001N9+01331+99999100841ADDGF108991999999999999999999MW1621
0035029070999991902080506004+64333+023450FM-12+000599999V0200701N011819999999N0000001N9+01061+99999100791ADDGF108991999999999999999999MW1621
0029029070999991902080420004+64333+023450FM-12+000599999V0200501N011819999999N0000001N9+01331+99999101031ADDGF108991999999999999999999
0029029070999991902080413004+64333+023450FM-12+000599999V0200201N006219999999N0000001N9+01441+99999101121ADDGF108991999999999999999999
0029029070999991902080406004+64333+023450FM-12+000599999V0209991C000019999999N0000001N9+01281+99999101191ADDGF104991999999999999999999
0029029070999991902080320004+64333+023450FM-12+000599999V0209991C000019999999N0000001N9+01171+99999101401ADDGF102991999999999999999999
0029029070999991902080313004+64333+023450FM-12+000599999V0203601N006219999999N0000001N9+01501+99999101341ADDGF100991999999999999999999
0029029070999991902080306004+64333+023450FM-12+000599999V0209991C000019999999N0000001N9+01281+99999101281ADDGF102991999999999999999999
0029029070999991902080220004+64333+023450FM-12+000599999V0202701N002119999999N0000001N9+01171+99999101191ADDGF101991999999999999999999
0029029070999991902080213004+64333+023450FM-12+000599999V0203201N002119999999N0000001N9+01441+99999101141ADDGF102991999999999999999999
0029029070999991902080206004+64333+023450FM-12+000599999V0203601N008219999999N0000001N9+01171+99999101041ADDGF104991999999999999999999
0029029070999991902080120004+64333+023450FM-12+000599999V0202701N002119999999N0000001N9+01221+99999101031ADDGF102991999999999999999999
0029029070999991902080113004+64333+023450FM-12+000599999V0202901N004119999999N0000001N9+01281+99999101061ADDGF100991999999999999999999
0029029070999991902080106004+64333+023450FM-12+000599999V0202901N006219999999N0000001N9+01171+99999100921ADDGF105991999999999999999999
0029029070999991902073120004+64333+023450FM-12+000599999V0202701N006219999999N0000001N9+01061+99999100721ADDGF106991999999999999999999
0029029070999991902073113004+64333+023450FM-12+000599999V0203601N002119999999N0000001N9+01221+99999100681ADDGF108991999999999999999999
0035029070999991902073106004+64333+023450FM-12+000599999V0200501N002119999999N0000001N9+01001+99999100661ADDGF108991999999999999999999MW1621
0029029070999991902073020004+64333+023450FM-12+000599999V0209991C000019999999N0000001N9+01001+99999100661ADDGF105991999999999999999999
0029029070999991902073013004+64333+023450FM-12+000599999V0200501N009819999999N0000001N9+01111+99999100481ADDGF106991999999999999999999
0029029070999991902073006004+64333+023450FM-12+000599999V0200701N009819999999N0000001N9+01061+99999100471ADDGF108991999999999999999999
0029029070999991902072920004+64333+023450FM-12+000599999V0209991C000019999999N0000001N9+01001+99999099951ADDGF108991999999999999999999
0029029070999991902072913004+64333+023450FM-12+000599999V0209991C000019999999N0000001N9+01171+99999099941ADDGF108991999999999999999999
0029029070999991902072906004+64333+023450FM-12+000599999V0202301N009819999999N0000001N9+01001+99999099681ADDGF108991999999999999999999
0029029070999991902072820004+64333+023450FM-12+000599999V0202301N002119999999N0000001N9+01001+99999099671ADDGF108991999999999999999999
0029029070999991902072813004+64333+023450FM-12+000599999V0200701N002119999999N0000001N9+01331+99999099601ADDGF105991999999999999999999
0029029070999991902072806004+64333+023450FM-12+000599999V0200901N011819999999N0000001N9+01061+99999099671ADDGF108991999999999999999999
0029029070999991902072720004+64333+023450FM-12+000599999V0200701N006219999999N0000001N9+01111+99999100541ADDGF101991999999999999999999
0029029070999991902072713004+64333+023450FM-12+000599999V0200501N004119999999N0000001N9+01281+99999100881ADDGF101991999999999999999999
0029029070999991902072706004+64333+023450FM-12+000599999V0202501N008219999999N0000001N9+00941+99999101031ADDGF101991999999999999999999
0029029070999991902072620004+64333+023450FM-12+000599999V0202301N011819999999N0000001N9+01001+99999100831ADDGF108991999999999999999999
0029029070999991902072613004+64333+023450FM-12+000599999V0201801N002119999999N0000001N9+01441+99999100921ADDGF105991999999999999999999
0029029070999991902072606004+64333+023450FM-12+000599999V0202301N004119999999N0000001N9+01111+99999101041ADDGF108991999999999999999999
0029029070999991902072520004+64333+023450FM-12+000599999V0202701N004119999999N0000001N9+01171+99999101201ADDGF108991999999999999999999
0029029070999991902072513004+64333+023450FM-12+000599999V0209991C000019999999N0000001N9+01561+99999101221ADDGF104991999999999999999999
0029029070999991902072506004+64333+023450FM-12+000599999V0209991C000019999999N0000001N9+01221+99999101261ADDGF102991999999999999999999
0035029070999991902072420004+64333+023450FM-12+000599999V0200901N002119999999N0000001N9+01221+99999101401ADDGF106991999999999999999999MW1621
0029029070999991902072413004+64333+023450FM-12+000599999V0209991C000019999999N0000001N9+01501+99999101121ADDGF100991999999999999999999
0029029070999991902072406004+64333+023450FM-12+000599999V0209991C000019999999N0000001N9+01061+99999101201ADDGF103991999999999999999999
0029029070999991902072320004+64333+023450FM-12+000599999V0209991C000019999999N0000001N9+00781+99999100871ADDGF103991999999999999999999
0029029070999991902072313004+64333+023450FM-12+000599999V0209991C000019999999N0000001N9+01331+99999100961ADDGF102991999999999999999999
0029029070999991902072306004+64333+023450FM-12+000599999V0209991C000019999999N0000001N9+00831+99999100881ADDGF101991999999999999999999
0029029070999991902072220004+64333+023450FM-12+000599999V0202301N006219999999N0000001N9+00831+99999100881ADDGF102991999999999999999999
0029029070999991902072213004+64333+023450FM-12+000599999V0202301N008219999999N0000001N9+01001+99999100841ADDGF103991999999999999999999
0029029070999991902072206004+64333+023450FM-12+000599999V0202001N009819999999N0000001N9+00831+99999100781ADDGF104991999999999999999999
0029029070999991902072120004+64333+023450FM-12+000599999V0202301N009819999999N0000001N9+00781+99999100551ADDGF108991999999999999999999
0029029070999991902072113004+64333+023450FM-12+000599999V0209991C000019999999N0000001N9+01111+99999100431ADDGF104991999999999999999999
0029029070999991902072106004+64333+023450FM-12+000599999V0201801N006219999999N0000001N9+00891+99999100311ADDGF108991999999999999999999
0035029070999991902072020004+64333+023450FM-12+000599999V0209991C000019999999N0000001N9+00831+99999099981ADDGF108991999999999999999999MW1621
0035029070999991902072013004+64333+023450FM-12+000599999V0203601N015919999999N0000001N9+00831+99999099801ADDGF108991999999999999999999MW1621
0035029070999991902072006004+64333+023450FM-12+000599999V0203601N015919999999N0000001N9+01221+99999099761ADDGF108991999999999999999999MW1621
0035029070999991902071920004+64333+023450FM-12+000599999V0209991C000019999999N0000001N9+01171+99999100541ADDGF108991999999999999999999MW1641
0029029070999991902071913004+64333+023450FM-12+000599999V0203601N009819999999N0000001N9+01221+99999100641ADDGF108991999999999999999999
0029029070999991902071906004+64333+023450FM-12+000599999V0203601N011819999999N0000001N9+01111+99999100641ADDGF108991999999999999999999
0029029070999991902071820004+64333+023450FM-12+000599999V0203601N004119999999N0000001N9+01221+99999100841ADDGF102991999999999999999999
0029029070999991902071813004+64333+023450FM-12+000599999V0209991C000019999999N0000001N9+01501+99999100801ADDGF102991999999999999999999
0029029070999991902071806004+64333+023450FM-12+000599999V0202301N004119999999N0000001N9+01221+99999100741ADDGF108991999999999999999999
0029029070999991902071720004+64333+023450FM-12+000599999V0202901N004119999999N0000001N9+01061+99999100791ADDGF108991999999999999999999
0029029070999991902071713004+64333+023450FM-12+000599999V0203601N009819999999N0000001N9+01111+99999100791ADDGF108991999999999999999999
0029029070999991902071706004+64333+023450FM-12+000599999V0203601N009819999999N0000001N9+01111+99999100741ADDGF108991999999999999999999
0035029070999991902071620004+64333+023450FM-12+000599999V0209991C000019999999N0000001N9+01111+99999100751ADDGF106991999999999999999999MW1621
0029029070999991902071613004+64333+023450FM-12+000599999V0203601N009819999999N0000001N9+01281+99999101031ADDGF104991999999999999999999
0029029070999991902071606004+64333+023450FM-12+000599999V0203601N008219999999N0000001N9+01171+99999101141ADDGF104991999999999999999999
0029029070999991902071520004+64333+023450FM-12+000599999V0209991C000019999999N0000001N9+01221+99999101541ADDGF100991999999999999999999
0029029070999991902071513004+64333+023450FM-12+000599999V0209991C000019999999N0000001N9+01171+99999101541ADDGF100991999999999999999999
0029029070999991902071506004+64333+023450FM-12+000599999V0202701N002119999999N0000001N9+00891+99999101391ADDGF100991999999999999999999
0035029070999991902071420004+64333+023450FM-12+000599999V0202901N006219999999N0000001N9+00941+99999100991ADDGF108991999999999999999999MW1621
0029029070999991902071413004+64333+023450FM-12+000599999V0203601N006219999999N0000001N9+01001+99999100941ADDGF108991999999999999999999
0029029070999991902071406004+64333+023450FM-12+000599999V0201601N004119999999N0000001N9+00891+99999100881ADDGF106991999999999999999999
0029029070999991902071320004+64333+023450FM-12+000599999V0202301N009819999999N0000001N9+00891+99999100751ADDGF102991999999999999999999
0029029070999991902071313004+64333+023450FM-12+000599999V0202301N004119999999N0000001N9+01061+99999100381ADDGF108991999999999999999999
0029029070999991902071306004+64333+023450FM-12+000599999V0203201N002119999999N0000001N9+00941+99999999999ADDGF108991999999999999999999
0035029070999991902071220004+64333+023450FM-12+000599999V0200201N013919999999N0000001N9+00941+99999099711ADDGF108991999999999999999999MW1621
0035029070999991902071213004+64333+023450FM-12+000599999V0200201N013919999999N0000001N9+00941+99999100071ADDGF108991999999999999999999MW1621
0029029070999991902071206004+64333+023450FM-12+000599999V0200201N011819999999N0000001N9+00941+99999100231ADDGF106991999999999999999999
0029029070999991902071120004+64333+023450FM-12+000599999V0200501N006219999999N0000001N9+00941+99999100321ADDGF101991999999999999999999
0029029070999991902071113004+64333+023450FM-12+000599999V0200201N008219999999N0000001N9+00941+99999100301ADDGF104991999999999999999999
0029029070999991902071106004+64333+023450FM-12+000599999V0200201N009819999999N0000001N9+00831+99999100281ADDGF104991999999999999999999
0029029070999991902071020004+64333+023450FM-12+000599999V0200501N009819999999N0000001N9+00781+99999100561ADDGF108991999999999999999999
0029029070999991902071013004+64333+023450FM-12+000599999V0200201N009819999999N0000001N9+00891+99999100681ADDGF108991999999999999999999
0029029070999991902071006004+64333+023450FM-12+000599999V0200201N009819999999N0000001N9+00941+99999100751ADDGF105991999999999999999999
0029029070999991902070920004+64333+023450FM-12+000599999V0200201N009819999999N0000001N9+00891+99999100711ADDGF105991999999999999999999
0029029070999991902070913004+64333+023450FM-12+000599999V0200201N009819999999N0000001N9+00941+99999100711ADDGF104991999999999999999999
0029029070999991902070906004+64333+023450FM-12+000599999V0200201N009819999999N0000001N9+00891+99999100641ADDGF104991999999999999999999
0029029070999991902070820004+64333+023450FM-12+000599999V0200201N011819999999N0000001N9+00891+99999100621ADDGF106991999999999999999999
0035029070999991902070813004+64333+023450FM-12+000599999V0200201N013919999999N0000001N9+00891+99999100551ADDGF108991999999999999999999MW1601
0035029070999991902070806004+64333+023450FM-12+000599999V0200201N006219999999N0000001N9+00941+99999100381ADDGF108991999999999999999999MW1601
0029029070999991902070720004+64333+023450FM-12+000599999V0203601N011819999999N0000001N9+00781+99999100631ADDGF105991999999999999999999
0029029070999991902070713004+64333+023450FM-12+000599999V0203601N011819999999N0000001N9+00891+99999100751ADDGF102991999999999999999999
0029029070999991902070706004+64333+023450FM-12+000599999V0203601N011819999999N0000001N9+00781+99999100781ADDGF108991999999999999999999
0029029070999991902070620004+64333+023450FM-12+000599999V0203601N011819999999N0000001N9+00831+99999100841ADDGF108991999999999999999999
0029029070999991902070613004+64333+023450FM-12+000599999V0203601N008219999999N0000001N9+01001+99999100831ADDGF108991999999999999999999
0029029070999991902070606004+64333+023450FM-12+000599999V0203401N004119999999N0000001N9+01001+99999100841ADDGF108991999999999999999999
0035029070999991902070520004+64333+023450FM-12+000599999V0209991C000019999999N0000001N9+00941+99999100281ADDGF108991999999999999999999MW1621
0029029070999991902070513004+64333+023450FM-12+000599999V0203601N009819999999N0000001N9+01001+99999100261ADDGF108991999999999999999999
0029029070999991902070506004+64333+023450FM-12+000599999V0201801N008219999999N0000001N9+01281+99999100421ADDGF105991999999999999999999
0029029070999991902070420004+64333+023450FM-12+000599999V0201801N002119999999N0000001N9+00941+99999100831ADDGF102991999999999999999999
0029029070999991902070413004+64333+023450FM-12+000599999V0202301N011819999999N0000001N9+01001+99999101221ADDGF101991999999999999999999
0029029070999991902070406004+64333+023450FM-12+000599999V0202901N008219999999N0000001N9+00891+99999101271ADDGF108991999999999999999999
0029029070999991902070320004+64333+023450FM-12+000599999V0203201N008219999999N0000001N9+00941+99999100981ADDGF104991999999999999999999
0029029070999991902070313004+64333+023450FM-12+000599999V0202501N009819999999N0000001N9+00891+99999100921ADDGF102991999999999999999999
0029029070999991902070306004+64333+023450FM-12+000599999V0202901N009819999999N0000001N9+00721+99999100701ADDGF108991999999999999999999
0029029070999991902070220004+64333+023450FM-12+000599999V0203201N009819999999N0000001N9+00671+99999100431ADDGF102991999999999999999999
0029029070999991902070213004+64333+023450FM-12+000599999V0203201N002119999999N0000001N9+00941+99999100141ADDGF101991999999999999999999
0029029070999991902070206004+64333+023450FM-12+000599999V0202901N002119999999N0000001N9+00831+99999099981ADDGF101991999999999999999999
0029029070999991902070120004+64333+023450FM-12+000599999V0202501N009819999999N0000001N9+00671+99999100061ADDGF108991999999999999999999
0029029070999991902070113004+64333+023450FM-12+000599999V0203401N011819999999N0000001N9+00891+99999099711ADDGF108991999999999999999999
0029029070999991902070106004+64333+023450FM-12+000599999V0201401N009819999999N0000001N9+00831+99999099981ADDGF108991999999999999999999
0029029070999991902063020004+64333+023450FM-12+000599999V0202501N008219999999N0000001N9+00781+99999101101ADDGF105991999999999999999999
0029029070999991902063013004+64333+023450FM-12+000599999V0202901N008219999999N0000001N9+00891+99999101241ADDGF101991999999999999999999
0029029070999991902063006004+64333+023450FM-12+000599999V0203201N009819999999N0000001N9+00721+99999101191ADDGF106991999999999999999999
0029029070999991902062920004+64333+023450FM-12+000599999V0203201N009819999999N0000001N9+00781+99999100831ADDGF105991999999999999999999
0029029070999991902062913004+64333+023450FM-12+000599999V0203201N011819999999N0000001N9+01001+99999100751ADDGF102991999999999999999999
0029029070999991902062906004+64333+023450FM-12+000599999V0203201N011819999999N0000001N9+00831+99999100621ADDGF101991999999999999999999
0029029070999991902062820004+64333+023450FM-12+000599999V0202701N008219999999N0000001N9+00891+99999100181ADDGF108991999999999999999999
0029029070999991902062813004+64333+023450FM-12+000599999V0202301N009819999999N0000001N9+00781+99999100361ADDGF108991999999999999999999
0029029070999991902062806004+64333+023450FM-12+000599999V0202301N009819999999N0000001N9+00831+99999101161ADDGF108991999999999999999999
0029029070999991902062720004+64333+023450FM-12+000599999V0202301N006219999999N0000001N9+00721+99999101721ADDGF102991999999999999999999
0029029070999991902062713004+64333+023450FM-12+000599999V0202301N006219999999N0000001N9+00941+99999101991ADDGF106991999999999999999999
0029029070999991902062706004+64333+023450FM-12+000599999V0202301N009819999999N0000001N9+00781+99999101991ADDGF108991999999999999999999
0029029070999991902062620004+64333+023450FM-12+000599999V0209991C000019999999N0000001N9+00941+99999102151ADDGF102991999999999999999999
0029029070999991902062613004+64333+023450FM-12+000599999V0209991C000019999999N0000001N9+01111+99999102321ADDGF108991999999999999999999
0029029070999991902062606004+64333+023450FM-12+000599999V0209991C000019999999N0000001N9+00781+99999102621ADDGF101991999999999999999999
0029029070999991902062520004+64333+023450FM-12+000599999V0200201N008219999999N0000001N9+00781+99999102361ADDGF101991999999999999999999
0029029070999991902062513004+64333+023450FM-12+000599999V0203401N006219999999N0000001N9+00831+99999102361ADDGF100991999999999999999999
0029029070999991902062506004+64333+023450FM-12+000599999V0209991C000019999999N0000001N9+00721+99999102361ADDGF101991999999999999999999
0029029070999991902062420004+64333+023450FM-12+000599999V0200201N004119999999N0000001N9+00611+99999102261ADDGF104991999999999999999999
0029029070999991902062413004+64333+023450FM-12+000599999V0200201N008219999999N0000001N9+00721+99999102261ADDGF102991999999999999999999
0029029070999991902062406004+64333+023450FM-12+000599999V0200201N009819999999N0000001N9+00721+99999102261ADDGF100991999999999999999999
0029029070999991902062320004+64333+023450FM-12+000599999V0200201N009819999999N0000001N9+00671+99999101991ADDGF102991999999999999999999
0029029070999991902062313004+64333+023450FM-12+000599999V0200201N013919999999N0000001N9+00781+99999101991ADDGF104991999999999999999999
0029029070999991902062306004+64333+023450FM-12+000599999V0200201N011819999999N0000001N9+00721+99999102141ADDGF102991999999999999999999
0029029070999991902062220004+64333+023450FM-12+000599999V0203601N011819999999N0000001N9+00781+99999101831ADDGF101991999999999999999999
0029029070999991902062213004+64333+023450FM-12+000599999V0203601N015919999999N0000001N9+00831+99999101871ADDGF103991999999999999999999
0029029070999991902062206004+64333+023450FM-12+000599999V0203601N020119999999N0000001N9+00611+99999101881ADDGF104991999999999999999999
0029029070999991902062120004+64333+023450FM-12+000599999V0203601N013919999999N0000001N9+00781+99999101831ADDGF101991999999999999999999
0029029070999991902062113004+64333+023450FM-12+000599999V0203601N011819999999N0000001N9+00831+99999101831ADDGF102991999999999999999999
0029029070999991902062106004+64333+023450FM-12+000599999V0203601N008219999999N0000001N9+00671+99999101861ADDGF100991999999999999999999
0029029070999991902062020004+64333+023450FM-12+000599999V0203601N008219999999N0000001N9+00501+99999101751ADDGF103991999999999999999999
0029029070999991902062013004+64333+023450FM-12+000599999V0203601N009819999999N0000001N9+00561+99999101761ADDGF105991999999999999999999
0029029070999991902062006004+64333+023450FM-12+000599999V0203601N004119999999N0000001N9+00611+99999101871ADDGF104991999999999999999999
0029029070999991902061920004+64333+023450FM-12+000599999V0202501N002119999999N0000001N9+00561+99999101671ADDGF105991999999999999999999
0029029070999991902061913004+64333+023450FM-12+000599999V0202501N009819999999N0000001N9+01001+99999101461ADDGF103991999999999999999999
0029029070999991902061906004+64333+023450FM-12+000599999V0202001N008219999999N0000001N9+00891+99999101621ADDGF105991999999999999999999
0029029070999991902061820004+64333+023450FM-12+000599999V0201801N004119999999N0000001N9+00611+99999101191ADDGF105991999999999999999999
0029029070999991902061813004+64333+023450FM-12+000599999V0209991C000019999999N0000001N9+01001+99999101341ADDGF102991999999999999999999
0029029070999991902061806004+64333+023450FM-12+000599999V0203201N006219999999N0000001N9+00561+99999101241ADDGF102991999999999999999999
0035029070999991902061720004+64333+023450FM-12+000599999V0203601N015919999999N0000001N9+00441+99999100951ADDGF108991999999999999999999MW1621
0029029070999991902061713004+64333+023450FM-12+000599999V0203601N020119999999N0000001N9+00501+99999100821ADDGF108991999999999999999999
0029029070999991902061706004+64333+023450FM-12+000599999V0200201N020119999999N0000001N9+00391+99999100741ADDGF108991999999999999999999
0029029070999991902061620004+64333+023450FM-12+000599999V0200201N015919999999N0000001N9+00501+99999100821ADDGF103991999999999999999999
0029029070999991902061613004+64333+023450FM-12+000599999V0200201N015919999999N0000001N9+00611+99999100621ADDGF106991999999999999999999
0029029070999991902061606004+64333+023450FM-12+000599999V0200201N015919999999N0000001N9+00611+99999100551ADDGF108991999999999999999999
0035029070999991902061520004+64333+023450FM-12+000599999V0200201N020119999999N0000001N9+00561+99999100321ADDGF108991999999999999999999MW1621
0035029070999991902061513004+64333+023450FM-12+000599999V0200501N011819999999N0000001N9+00671+99999100551ADDGF108991999999999999999999MW1621
0029029070999991902061506004+64333+023450FM-12+000599999V0200501N011819999999N0000001N9+00611+99999100761ADDGF108991999999999999999999
0029029070999991902061420004+64333+023450FM-12+000599999V0200201N011819999999N0000001N9+00671+99999101421ADDGF105991999999999999999999
0029029070999991902061413004+64333+023450FM-12+000599999V0203601N009819999999N0000001N9+00671+99999101671ADDGF100991999999999999999999
0029029070999991902061406004+64333+023450FM-12+000599999V0203601N004119999999N0000001N9+00611+99999101741ADDGF102991999999999999999999
0029029070999991902061320004+64333+023450FM-12+000599999V0201801N002119999999N0000001N9+00611+99999101671ADDGF100991999999999999999999
0029029070999991902061313004+64333+023450FM-12+000599999V0209991C000019999999N0000001N9+00891+99999101551ADDGF102991999999999999999999
0029029070999991902061306004+64333+023450FM-12+000599999V0201801N006219999999N0000001N9+00671+99999101421ADDGF103991999999999999999999
0029029070999991902061220004+64333+023450FM-12+000599999V0202301N009819999999N0000001N9+00281+99999101261ADDGF102991999999999999999999
0029029070999991902061213004+64333+023450FM-12+000599999V0202301N011819999999N0000001N9+00501+99999100921ADDGF102991999999999999999999
0029029070999991902061206004+64333+023450FM-12+000599999V0202501N006219999999N0000001N9+00441+99999100521ADDGF104991999999999999999999
0029029070999991902061120004+64333+023450FM-12+000599999V0203601N008219999999N0000001N9+00331+99999100181ADDGF105991999999999999999999
0029029070999991902061113004+64333+023450FM-12+000599999V0200501N004119999999N0000001N9+00441+99999100521ADDGF104991999999999999999999
0029029070999991902061106004+64333+023450FM-12+000599999V0202701N004119999999N0000001N9+00331+99999100541ADDGF100991999999999999999999
0035029070999991902061020004+64333+023450FM-12+000599999V0203201N013919999999N0000001N9+00221+99999099911ADDGF108991999999999999999999MW1621
0029029070999991902061013004+64333+023450FM-12+000599999V0200201N011819999999N0000001N9+00281+99999099441ADDGF108991999999999999999999
0035029070999991902061006004+64333+023450FM-12+000599999V0200501N015919999999N0000001N9+00331+99999099381ADDGF108991999999999999999999MW1621
0035029070999991902060920004+64333+023450FM-12+000599999V0200701N011819999999N0000001N9+00611+99999100021ADDGF108991999999999999999999MW1601
0029029070999991902060913004+64333+023450FM-12+000599999V0200201N011819999999N0000001N9+00561+99999100401ADDGF108991999999999999999999
0029029070999991902060906004+64333+023450FM-12+000599999V0200501N008219999999N0000001N9+00561+99999100471ADDGF108991999999999999999999
0029029070999991902060820004+64333+023450FM-12+000599999V0209991C000019999999N0000001N9+00441+99999100401ADDGF108991999999999999999999
0029029070999991902060813004+64333+023450FM-12+000599999V0209991C000019999999N0000001N9+00501+99999100321ADDGF104991999999999999999999
0029029070999991902060806004+64333+023450FM-12+000599999V0202001N004119999999N0000001N9+00441+99999100321ADDGF104991999999999999999999
0029029070999991902060720004+64333+023450FM-12+000599999V0209991C000019999999N0000001N9+00331+99999100511ADDGF104991999999999999999999
0029029070999991902060713004+64333+023450FM-12+000599999V0202701N004119999999N0000001N9+00501+99999100621ADDGF103991999999999999999999
0029029070999991902060706004+64333+023450FM-12+000599999V0203601N006219999999N0000001N9+00331+99999100621ADDGF106991999999999999999999
0029029070999991902060620004+64333+023450FM-12+000599999V0203401N005119999999N0000001N9+00171+99999100601ADDGF107991999999999999999999
0029029070999991902060613004+64333+023450FM-12+000599999V0200201N009819999999N0000001N9+00281+99999100781ADDGF105991999999999999999999
0029029070999991902060606004+64333+023450FM-12+000599999V0200201N013919999999N0000001N9+00171+99999100861ADDGF104991999999999999999999
0029029070999991902060520004+64333+023450FM-12+000599999V0200201N013919999999N0000001N9+00281+99999100861ADDGF108991999999999999999999
0029029070999991902060513004+64333+023450FM-12+000599999V0203401N011819999999N0000001N9+00331+99999100791ADDGF100991999999999999999999
0029029070999991902060506004+64333+023450FM-12+000599999V0203401N010819999999N0000001N9+00331+99999100631ADDGF106991999999999999999999
0029029070999991902060420004+64333+023450FM-12+000599999V0202301N009819999999N0000001N9+00391+99999100821ADDGF108991999999999999999999
0035029070999991902060413004+64333+023450FM-12+000599999V0202001N009819999999N0000001N9+00441+99999101941ADDGF108991999999999999999999MW1621
0029029070999991902060406004+64333+023450FM-12+000599999V0209991C000019999999N0000001N9+00441+99999102501ADDGF106991999999999999999999
0029029070999991902060320004+64333+023450FM-12+000599999V0209991C000019999999N0000001N9+00331+99999102461ADDGF102991999999999999999999
0029029070999991902060313004+64333+023450FM-12+000599999V0202701N008219999999N0000001N9+00611+99999101911ADDGF104991999999999999999999
0029029070999991902060306004+64333+023450FM-12+000599999V0202901N009819999999N0000001N9+00391+99999101741ADDGF100991999999999999999999
0029029070999991902060220004+64333+023450FM-12+000599999V0202301N013919999999N0000001N9+00281+99999102111ADDGF107991999999999999999999
0029029070999991902060213004+64333+023450FM-12+000599999V0202301N008219999999N0000001N9+00441+99999102551ADDGF104991999999999999999999
0029029070999991902060206004+64333+023450FM-12+000599999V0209991C000019999999N0000001N9+00391+99999102701ADDGF100991999999999999999999
0029029070999991902060120004+64333+023450FM-12+000599999V0203201N006219999999N0000001N9+00171+99999102391ADDGF104991999999999999999999
0029029070999991902060113004+64333+023450FM-12+000599999V0203201N006219999999N0000001N9+00391+99999102321ADDGF100991999999999999999999
0029029070999991902060106004+64333+023450FM-12+000599999V0203401N008219999999N0000001N9+00221+99999102201ADDGF100991999999999999999999
0035029070999991902053120004+64333+023450FM-12+000599999V0209991C000019999999N0000001N9+00281+99999102111ADDGF108991999999999999999999MW1601
0029029070999991902053113004+64333+023450FM-12+000599999V0209991C000019999999N0000001N9+00391+99999102461ADDGF108991999999999999999999
0029029070999991902053106004+64333+023450FM-12+000599999V0202701N004119999999N0000001N9+00281+99999102671ADDGF105991999999999999999999
0029029070999991902053020004+64333+023450FM-12+000599999V0202701N006219999999N0000001N9+00441+99999102341ADDGF100991999999999999999999
0029029070999991902053013004+64333+023450FM-12+000599999V0202501N004119999999N0000001N9+00611+99999101911ADDGF100991999999999999999999
0029029070999991902053006004+64333+023450FM-12+000599999V0202301N006219999999N0000001N9+00221+99999101151ADDGF101991999999999999999999
0029029070999991902052920004+64333+023450FM-12+000599999V0202001N009819999999N0000001N9+00501+99999100421ADDGF102991999999999999999999
0029029070999991902052913004+64333+023450FM-12+000599999V0202301N015919999999N0000001N9+00611+99999100121ADDGF103991999999999999999999
0029029070999991902052906004+64333+023450FM-12+000599999V0201801N011819999999N0000001N9+00611+99999999999ADDGF108991999999999999999999
0035029070999991902052820004+64333+023450FM-12+000599999V0209991C000019999999N0000001N9+00441+99999099911ADDGF108991999999999999999999MW1621
0029029070999991902052813004+64333+023450FM-12+000599999V0209991C000019999999N0000001N9+00441+99999099901ADDGF104991999999999999999999
0029029070999991902052806004+64333+023450FM-12+000599999V0209991C000019999999N0000001N9+00441+99999099911ADDGF102991999999999999999999
0029029070999991902052720004+64333+023450FM-12+000599999V0202301N006219999999N0000001N9+00221+99999099831ADDGF105991999999999999999999
0029029070999991902052713004+64333+023450FM-12+000599999V0202301N013919999999N0000001N9+00331+99999099791ADDGF102991999999999999999999
0029029070999991902052706004+64333+023450FM-12+000599999V0202501N011819999999N0000001N9+00221+99999099471ADDGF102991999999999999999999
0029029070999991902052620004+64333+023450FM-12+000599999V0202301N009819999999N0000001N9+00171+99999099241ADDGF108991999999999999999999
0029029070999991902052613004+64333+023450FM-12+000599999V0202301N009819999999N0000001N9+00281+99999099621ADDGF108991999999999999999999
0035029070999991902052606004+64333+023450FM-12+000599999V0202301N009819999999N0000001N9+00221+99999099581ADDGF108991999999999999999999MW1621
0029029070999991902052520004+64333+023450FM-12+000599999V0209991C000019999999N0000001N9+00501+99999100801ADDGF108991999999999999999999
0029029070999991902052513004+64333+023450FM-12+000599999V0209991C000019999999N0000001N9+00331+99999101241ADDGF103991999999999999999999
0029029070999991902052506004+64333+023450FM-12+000599999V0209991C000019999999N0000001N9+00171+99999101341ADDGF100991999999999999999999
0029029070999991902052420004+64333+023450FM-12+000599999V0209991C000019999999N0000001N9+00221+99999100361ADDGF108991999999999999999999
0035029070999991902052413004+64333+023450FM-12+000599999V0202301N009819999999N0000001N9+00331+99999100351ADDGF108991999999999999999999MW1621
0029029070999991902052406004+64333+023450FM-12+000599999V0202301N006219999999N0000001N9+00221+99999100741ADDGF106991999999999999999999
0029029070999991902052320004+64333+023450FM-12+000599999V0209991C000019999999N0000001N9+00061+99999101681ADDGF100991999999999999999999
0029029070999991902052313004+64333+023450FM-12+000599999V0203601N004119999999N0000001N9+00331+99999102271ADDGF100991999999999999999999
0029029070999991902052306004+64333+023450FM-12+000599999V0209991C000019999999N0000001N9-00061+99999102601ADDGF100991999999999999999999
0029029070999991902052220004+64333+023450FM-12+000599999V0209991C000019999999N0000001N9+00061+99999102471ADDGF100991999999999999999999
0029029070999991902052213004+64333+023450FM-12+000599999V0203201N006219999999N0000001N9+00331+99999102421ADDGF100991999999999999999999
0029029070999991902052206004+64333+023450FM-12+000599999V0209991C000019999999N0000001N9+00061+99999102081ADDGF100991999999999999999999
0029029070999991902052120004+64333+023450FM-12+000599999V0203601N008219999999N0000001N9+00221+99999101111ADDGF103991999999999999999999
0029029070999991902052113004+64333+023450FM-12+000599999V0202301N006219999999N0000001N9+00441+99999101071ADDGF100991999999999999999999
0029029070999991902052106004+64333+023450FM-12+000599999V0202301N006219999999N0000001N9+00221+99999100871ADDGF100991999999999999999999
0029029070999991902052020004+64333+023450FM-12+000599999V0209991C000019999999N0000001N9+00111+99999101021ADDGF100991999999999999999999
0029029070999991902052013004+64333+023450FM-12+000599999V0203401N002119999999N0000001N9+00331+99999100991ADDGF100991999999999999999999
0029029070999991902052006004+64333+023450FM-12+000599999V0200501N006219999999N0000001N9+00171+99999101061ADDGF100991999999999999999999
0029029070999991902051920004+64333+023450FM-12+000599999V0200501N004119999999N0000001N9+00281+99999101001ADDGF100991999999999999999999
0029029070999991902051913004+64333+023450FM-12+000599999V0200501N008219999999N0000001N9+00331+99999100991ADDGF100991999999999999999999
0029029070999991902051906004+64333+023450FM-12+000599999V0200901N006219999999N0000001N9+00441+99999101111ADDGF100991999999999999999999
0029029070999991902051820004+64333+023450FM-12+000599999V0200901N008219999999N0000001N9+00441+99999100921ADDGF103991999999999999999999
0029029070999991902051813004+64333+023450FM-12+000599999V0200901N004119999999N0000001N9+00721+99999100861ADDGF105991999999999999999999
0029029070999991902051806004+64333+023450FM-12+000599999V0200901N006219999999N0000001N9+00501+99999100901ADDGF103991999999999999999999
0029029070999991902051720004+64333+023450FM-12+000599999V0209991C000019999999N0000001N9+00281+99999100641ADDGF108991999999999999999999
0029029070999991902051713004+64333+023450FM-12+000599999V0201401N009819999999N0000001N9+00721+99999100321ADDGF106991999999999999999999
0035029070999991902051706004+64333+023450FM-12+000599999V0200201N004119999999N0000001N9+00111+99999100751ADDGF108991999999999999999999MW1621
0035029070999991902051620004+64333+023450FM-12+000599999V0202301N006219999999N0000001N9+00171+99999101041ADDGF108991999999999999999999MW1621
0029029070999991902051613004+64333+023450FM-12+000599999V0201401N008219999999N0000001N9+00671+99999100631ADDGF108991999999999999999999
0029029070999991902051606004+64333+023450FM-12+000599999V0200901N004119999999N0000001N9+00281+99999100781ADDGF108991999999999999999999
0035029070999991902051520004+64333+023450FM-12+000599999V0209991C000019999999N0000001N9+00391+99999101381ADDGF108991999999999999999999MW1621
0035029070999991902051513004+64333+023450FM-12+000599999V0201401N009819999999N0000001N9+00391+99999101381ADDGF108991999999999999999999MW1621
0029029070999991902051506004+64333+023450FM-12+000599999V0200901N006219999999N0000001N9+00061+99999101481ADDGF106991999999999999999999
0029029070999991902051420004+64333+023450FM-12+000599999V0200901N002119999999N0000001N9+00001+99999101551ADDGF103991999999999999999999
0029029070999991902051413004+64333+023450FM-12+000599999V0200501N002119999999N0000001N9+00331+99999101551ADDGF106991999999999999999999
0029029070999991902051406004+64333+023450FM-12+000599999V0209991C000019999999N0000001N9+00001+99999101501ADDGF103991999999999999999999
0029029070999991902051320004+64333+023450FM-12+000599999V0203601N006219999999N0000001N9-00061+99999101281ADDGF100991999999999999999999
0029029070999991902051313004+64333+023450FM-12+000599999V0203601N008219999999N0000001N9+00111+99999101281ADDGF100991999999999999999999
0029029070999991902051306004+64333+023450FM-12+000599999V0209991C000019999999N0000001N9-00061+99999101231ADDGF100991999999999999999999
0029029070999991902051220004+64333+023450FM-12+000599999V0200701N004119999999N0000001N9-00171+99999101061ADDGF102991999999999999999999
0029029070999991902051213004+64333+023450FM-12+000599999V0200201N006219999999N0000001N9+00171+99999101041ADDGF102991999999999999999999
0029029070999991902051206004+64333+023450FM-12+000599999V0200901N002119999999N0000001N9+00001+99999101061ADDGF104991999999999999999999
0029029070999991902051120004+64333+023450FM-12+000599999V0209991C000019999999N0000001N9+00001+99999101141ADDGF103991999999999999999999
0029029070999991902051113004+64333+023450FM-12+000599999V0200201N006219999999N0000001N9+00171+99999101191ADDGF100991999999999999999999
0029029070999991902051106004+64333+023450FM-12+000599999V0209991C000019999999N0000001N9+00001+99999101471ADDGF100991999999999999999999
0029029070999991902051020004+64333+023450FM-12+000599999V0200501N004119999999N0000001N9-00061+99999101751ADDGF101991999999999999999999
0029029070999991902051013004+64333+023450FM-12+000599999V0203601N008219999999N0000001N9+00061+99999101991ADDGF102991999999999999999999
0029029070999991902051006004+64333+023450FM-12+000599999V0200501N006219999999N0000001N9+00001+99999102241ADDGF104991999999999999999999
0029029070999991902050920004+64333+023450FM-12+000599999V0203601N006219999999N0000001N9-00061+99999102401ADDGF106991999999999999999999
0029029070999991902050913004+64333+023450FM-12+000599999V0200201N011819999999N0000001N9-00061+99999102431ADDGF102991999999999999999999
0029029070999991902050906004+64333+023450FM-12+000599999V0200501N015919999999N0000001N9-00281+99999102421ADDGF101991999999999999999999
0029029070999991902050820004+64333+023450FM-12+000599999V0200501N013919999999N0000001N9-00111+99999102001ADDGF105991999999999999999999
0029029070999991902050813004+64333+023450FM-12+000599999V0200501N020119999999N0000001N9+00111+99999101741ADDGF106991999999999999999999
0029029070999991902050806004+64333+023450FM-12+000599999V0200501N027819999999N0000001N9-00171+99999101621ADDGF108991999999999999999999
0029029070999991902050720004+64333+023450FM-12+000599999V0200201N020119999999N0000001N9+00001+99999101781ADDGF108991999999999999999999
0029029070999991902050713004+64333+023450FM-12+000599999V0200201N015919999999N0000001N9+00061+99999101951ADDGF108991999999999999999999
0029029070999991902050706004+64333+023450FM-12+000599999V0200201N011819999999N0000001N9-00221+99999102061ADDGF108991999999999999999999
0029029070999991902050620004+64333+023450FM-12+000599999V0200201N008219999999N0000001N9-00441+99999102061ADDGF100991999999999999999999
0029029070999991902050613004+64333+023450FM-12+000599999V0200201N011819999999N0000001N9-00111+99999101941ADDGF100991999999999999999999
0029029070999991902050606004+64333+023450FM-12+000599999V0200201N006219999999N0000001N9-00061+99999101661ADDGF108991999999999999999999
0029029070999991902050520004+64333+023450FM-12+000599999V0200201N006219999999N0000001N9+00061+99999101401ADDGF105991999999999999999999
0029029070999991902050513004+64333+023450FM-12+000599999V0200201N006219999999N0000001N9+00111+99999101381ADDGF103991999999999999999999
0029029070999991902050506004+64333+023450FM-12+000599999V0200201N008219999999N0000001N9-00111+99999101261ADDGF104991999999999999999999
0029029070999991902050420004+64333+023450FM-12+000599999V0203601N008219999999N0000001N9+00001+99999101241ADDGF100991999999999999999999
0029029070999991902050413004+64333+023450FM-12+000599999V0203601N008219999999N0000001N9+00171+99999101311ADDGF102991999999999999999999
0029029070999991902050406004+64333+023450FM-12+000599999V0203601N006219999999N0000001N9+00111+99999101201ADDGF108991999999999999999999
0029029070999991902050320004+64333+023450FM-12+000599999V0200501N006219999999N0000001N9+00061+99999101021ADDGF108991999999999999999999
0029029070999991902050313004+64333+023450FM-12+000599999V0200501N008219999999N0000001N9+00221+99999100871ADDGF103991999999999999999999
0029029070999991902050306004+64333+023450FM-12+000599999V0200501N004119999999N0000001N9+00061+99999100751ADDGF106991999999999999999999
0029029070999991902050220004+64333+023450FM-12+000599999V0200201N008219999999N0000001N9-00281+99999100671ADDGF105991999999999999999999
0029029070999991902050213004+64333+023450FM-12+000599999V0200501N002119999999N0000001N9+00281+99999100521ADDGF103991999999999999999999
0029029070999991902050206004+64333+023450FM-12+000599999V0200901N002119999999N0000001N9-00171+99999100341ADDGF105991999999999999999999
0029029070999991902050120004+64333+023450FM-12+000599999V0209991C000019999999N0000001N9-00391+99999100141ADDGF106991999999999999999999
0029029070999991902050113004+64333+023450FM-12+000599999V0203401N008219999999N0000001N9-00221+99999100261ADDGF103991999999999999999999
0029029070999991902050106004+64333+023450FM-12+000599999V0203601N006219999999N0000001N9-00781+99999100381ADDGF100991999999999999999999
0029029070999991902043020004+64333+023450FM-12+000599999V0209991C000019999999N0000001N9-00561+99999100761ADDGF100991999999999999999999
0029029070999991902043013004+64333+023450FM-12+000599999V0209991C000019999999N0000001N9-00171+99999100941ADDGF100991999999999999999999
