0029029720999991902010113004+60450+022267FM-12+001499999V0201401N012319999999N0000001N9-00061+99999099541ADDGF108991999999999999999999
0029029720999991902123120004+60450+022267FM-12+001499999V0200701N004619999999N0000001N9-01061+99999100321ADDGF108991999999999999999999
0029029720999991902123113004+60450+022267FM-12+001499999V0209991C000019999999N0000001N9-00831+99999100141ADDGF108991999999999999999999
0029029720999991902123106004+60450+022267FM-12+001499999V0203601N001019999999N0000001N9-01001+99999099561ADDGF108991999999999999999999
0029029720999991902123020004+60450+022267FM-12+001499999V0203601N004619999999N0000001N9-00781+99999098721ADDGF108991999999999999999999
0029029720999991902123013004+60450+022267FM-12+001499999V0203601N006719999999N0000001N9-00281+99999098361ADDGF108991999999999999999999
0029029720999991902123006004+60450+022267FM-12+001499999V02099999999999999999N0000001N9-00721+99999097991ADDGF108991999999999999999999
0029029720999991902122920004+60450+022267FM-12+001499999V0200501N006719999999N0000001N9-00781+99999097951ADDGF108991999999999999999999
0029029720999991902122913004+60450+022267FM-12+001499999V0200701N009319999999N0000001N9-00501+99999097561ADDGF108991999999999999999999
0029029720999991902122906004+60450+022267FM-12+001499999V0200901N015419999999N0000001N9-00331+99999097041ADDGF108991999999999999999999
0029029720999991902122820004+60450+022267FM-12+001499999V0200901N012319999999N0000001N9-00331+99999097661ADDGF108991999999999999999999
0029029720999991902122813004+60450+022267FM-12+001499999V0200701N006719999999N0000001N9-00331+99999098701ADDGF108991999999999999999999
0029029720999991902122806004+60450+022267FM-12+001499999V0209991C000019999999N0000001N9-00331+99999098961ADDGF108991999999999999999999
0029029720999991902122720004+60450+022267FM-12+001499999V0203201N004619999999N0000001N9-00671+99999098241ADDGF106991999999999999999999
0029029720999991902122713004+60450+022267FM-12+001499999V0203201N015419999999N0000001N9-00331+99999097261ADDGF108991999999999999999999
0029029720999991902122706004+60450+022267FM-12+001499999V0209991C000019999999N0000001N9-00331+99999096991ADDGF108991999999999999999999
0029029720999991902122620004+60450+022267FM-12+001499999V0202701N009319999999N0000001N9-00221+99999096951ADDGF108991999999999999999999
0029029720999991902122613004+60450+022267FM-12+001499999V0203201N004619999999N0000001N9-00501+99999096871ADDGF100991999999999999999999
0029029720999991902122606004+60450+022267FM-12+001499999V0203401N009319999999N0000001N9-00391+99999095821ADDGF108991999999999999999999
0029029720999991902122520004+60450+022267FM-12+001499999V0201601N009319999999N0000001N9+00001+99999097041ADDGF108991999999999999999999
0029029720999991902122513004+60450+022267FM-12+001499999V0202701N019019999999N0000001N9+00221+99999097901ADDGF102991999999999999999999
0029029720999991902122506004+60450+022267FM-12+001499999V0202501N019019999999N0000001N9+00281+99999097552ADDGF100991999999999999999999
0029029720999991902122420004+60450+022267FM-12+001499999V0201801N009319999999N0000001N9-00171+99999099791ADDGF108991999999999999999999
0029029720999991902122413004+60450+022267FM-12+001499999V0202501N006719999999N0000001N9+00001+99999100601ADDGF108991999999999999999999
0029029720999991902122406004+60450+022267FM-12+001499999V0202701N009319999999N0000001N9+00001+99999100551ADDGF108991999999999999999999
0029029720999991902122320004+60450+022267FM-12+001499999V0202301N015419999999N0000001N9-00061+99999100681ADDGF108991999999999999999999
0029029720999991902122313004+60450+022267FM-12+001499999V0202301N015419999999N0000001N9-00061+99999101561ADDGF108991999999999999999999
0029029720999991902122306004+60450+022267FM-12+001499999V0202301N012319999999N0000001N9-00061+99999101991ADDGF108991999999999999999999
0029029720999991902122220004+60450+022267FM-12+001499999V0201401N002619999999N0000001N9-01441+99999102441ADDGF100991999999999999999999
0029029720999991902122213004+60450+022267FM-12+001499999V0203401N002619999999N0000001N9-00891+99999102111ADDGF100991999999999999999999
0029029720999991902122206004+60450+022267FM-12+001499999V0203401N004619999999N0000001N9-00671+99999101591ADDGF108991999999999999999999
0029029720999991902122120004+60450+022267FM-12+001499999V0201401N002619999999N0000001N9-00891+99999101341ADDGF108991999999999999999999
0029029720999991902122113004+60450+022267FM-12+001499999V0201401N012319999999N0000001N9-00891+99999100991ADDGF108991999999999999999999
0029029720999991902122106004+60450+022267FM-12+001499999V0201401N012319999999N0000001N9-00831+99999100711ADDGF108991999999999999999999
0029029720999991902122020004+60450+022267FM-12+001499999V0201401N009319999999N0000001N9-00501+99999100421ADDGF108991999999999999999999
0029029720999991902122013004+60450+022267FM-12+001499999V0201401N012319999999N0000001N9-00331+99999100271ADDGF108991999999999999999999
0029029720999991902122006004+60450+022267FM-12+001499999V0201401N012319999999N0000001N9-00441+99999100261ADDGF108991999999999999999999
0029029720999991902121920004+60450+022267FM-12+001499999V0209991C000019999999N0000001N9-00721+99999100581ADDGF108991999999999999999999
0029029720999991902121913004+60450+022267FM-12+001499999V0201401N002619999999N0000001N9-00561+99999100281ADDGF108991999999999999999999
0029029720999991902121906004+60450+022267FM-12+001499999V0201401N002619999999N0000001N9-00561+99999099721ADDGF108991999999999999999999
0029029720999991902121820004+60450+022267FM-12+001499999V0201401N002619999999N0000001N9-00441+99999099281ADDGF108991999999999999999999
0029029720999991902121813004+60450+022267FM-12+001499999V0201401N001019999999N0000001N9-00441+99999099071ADDGF108991999999999999999999
0029029720999991902121806004+60450+022267FM-12+001499999V0201401N002619999999N0000001N9-00441+99999098761ADDGF108991999999999999999999
0029029720999991902121720004+60450+022267FM-12+001499999V0201401N012319999999N0000001N9-00281+99999098501ADDGF108991999999999999999999
0029029720999991902121713004+60450+022267FM-12+001499999V0201801N015419999999N0000001N9-00061+99999099061ADDGF108991999999999999999999
0029029720999991902121706004+60450+022267FM-12+001499999V0201601N015419999999N0000001N9+00001+99999099841ADDGF108991999999999999999999
0029029720999991902121620004+60450+022267FM-12+001499999V0201601N009319999999N0000001N9-00221+99999101021ADDGF108991999999999999999999
0029029720999991902121613004+60450+022267FM-12+001499999V0201601N009319999999N0000001N9-00111+99999101541ADDGF108991999999999999999999
0029029720999991902121606004+60450+022267FM-12+001499999V02099999999999999999N0000001N9+00001+99999101701ADDGF108991999999999999999999
0029029720999991902121520004+60450+022267FM-12+001499999V0201801N004619999999N0000001N9+00221+99999101921ADDGF108991999999999999999999
0029029720999991902121513004+60450+022267FM-12+001499999V0201801N004619999999N0000001N9+00221+99999102061ADDGF108991999999999999999999
0029029720999991902121506004+60450+022267FM-12+001499999V0201801N004619999999N0000001N9+00111+99999102161ADDGF108991999999999999999999
0029029720999991902121420004+60450+022267FM-12+001499999V0202301N009319999999N0000001N9+00001+99999102431ADDGF108991999999999999999999
0029029720999991902121413004+60450+022267FM-12+001499999V0201801N004619999999N0000001N9+00111+99999102501ADDGF108991999999999999999999
0029029720999991902121406004+60450+022267FM-12+001499999V0201601N004619999999N0000001N9+00061+99999102511ADDGF108991999999999999999999
0029029720999991902121320004+60450+022267FM-12+001499999V0201401N006719999999N0000001N9-00391+99999102681ADDGF108991999999999999999999
0029029720999991902121313004+60450+022267FM-12+001499999V0209991C000019999999N0000001N9-00561+99999102721ADDGF100991999999999999999999
0029029720999991902121306004+60450+022267FM-12+001499999V0209991C000019999999N0000001N9-00611+99999102581ADDGF108991999999999999999999
0029029720999991902121220004+60450+022267FM-12+001499999V0209991C000019999999N0000001N9-00281+99999102761ADDGF108991999999999999999999
0029029720999991902121213004+60450+022267FM-12+001499999V0202701N002619999999N0000001N9-00171+99999102751ADDGF108991999999999999999999
0029029720999991902121206004+60450+022267FM-12+001499999V0202701N001019999999N0000001N9-00331+99999102661ADDGF108991999999999999999999
0029029720999991902121120004+60450+022267FM-12+001499999V0202901N001019999999N0000001N9-00441+99999102671ADDGF100991999999999999999999
0029029720999991902121113004+60450+022267FM-12+001499999V0202901N002619999999N0000001N9-00111+99999102641ADDGF100991999999999999999999
0029029720999991902121106004+60450+022267FM-12+001499999V0202901N006719999999N0000001N9-00221+99999102681ADDGF102991999999999999999999
0029029720999991902121020004+60450+022267FM-12+001499999V0202701N004619999999N0000001N9-00281+99999102661ADDGF100991999999999999999999
0029029720999991902121013004+60450+022267FM-12+001499999V0202701N009319999999N0000001N9-00281+99999102841ADDGF107991999999999999999999
0029029720999991902121006004+60450+022267FM-12+001499999V0209991C000019999999N0000001N9-00831+99999103141ADDGF108991999999999999999999
0029029720999991902120920004+60450+022267FM-12+001499999V0209991C000019999999N0000001N9-00891+99999103141ADDGF100991999999999999999999
0029029720999991902120913004+60450+022267FM-12+001499999V0203601N002619999999N0000001N9-00501+99999102751ADDGF100991999999999999999999
0029029720999991902120906004+60450+022267FM-12+001499999V0209991C000019999999N0000001N9-00721+99999102241ADDGF108991999999999999999999
0029029720999991902120820004+60450+022267FM-12+001499999V0202901N001019999999N0000001N9-00391+99999102281ADDGF108991999999999999999999
0029029720999991902120813004+60450+022267FM-12+001499999V0209991C000019999999N0000001N9-00111+99999102391ADDGF108991999999999999999999
0029029720999991902120806004+60450+022267FM-12+001499999V0202901N002619999999N0000001N9-00061+99999102381ADDGF108991999999999999999999
0029029720999991902120720004+60450+022267FM-12+001499999V0209991C000019999999N0000001N9-00221+99999102561ADDGF108991999999999999999999
0029029720999991902120713004+60450+022267FM-12+001499999V0209991C000019999999N0000001N9-00391+99999102791ADDGF108991999999999999999999
0029029720999991902120706004+60450+022267FM-12+001499999V0209991C000019999999N0000001N9-00671+99999102831ADDGF108991999999999999999999
0029029720999991902120620004+60450+022267FM-12+001499999V0209991C000019999999N0000001N9-00501+99999102911ADDGF108991999999999999999999
0029029720999991902120613004+60450+022267FM-12+001499999V0209991C000019999999N0000001N9-00391+99999102901ADDGF108991999999999999999999
0029029720999991902120606004+60450+022267FM-12+001499999V0209991C000019999999N0000001N9-00671+99999103141ADDGF108991999999999999999999
0029029720999991902120520004+60450+022267FM-12+001499999V0202501N001019999999N0000001N9-00831+99999103581ADDGF100991999999999999999999
0029029720999991902120513004+60450+022267FM-12+001499999V0202501N004619999999N0000001N9-00671+99999103911ADDGF104991999999999999999999
0029029720999991902120506004+60450+022267FM-12+001499999V0209991C000019999999N0000001N9-01171+99999104071ADDGF108991999999999999999999
0029029720999991902120420004+60450+022267FM-12+001499999V0209991C000019999999N0000001N9-02171+99999104261ADDGF100991999999999999999999
0029029720999991902120413004+60450+022267FM-12+001499999V0200501N001019999999N0000001N9-01891+99999104001ADDGF100991999999999999999999
0029029720999991902120406004+60450+022267FM-12+001499999V0209991C000019999999N0000001N9-02281+99999103901ADDGF102991999999999999999999
0029029720999991902120320004+60450+022267FM-12+001499999V0200501N002619999999N0000001N9-02221+99999103401ADDGF100991999999999999999999
0029029720999991902120313004+60450+022267FM-12+001499999V0200501N002619999999N0000001N9-01831+99999103001ADDGF100991999999999999999999
0029029720999991902120306004+60450+022267FM-12+001499999V0209991C000019999999N0000001N9-02111+99999102721ADDGF100991999999999999999999
0029029720999991902120220004+60450+022267FM-12+001499999V0200501N004619999999N0000001N9-02061+99999102431ADDGF100991999999999999999999
0029029720999991902120213004+60450+022267FM-12+001499999V0200501N006719999999N0000001N9-01781+99999102121ADDGF100991999999999999999999
0029029720999991902120206004+60450+022267FM-12+001499999V0200501N004619999999N0000001N9-01831+99999102021ADDGF100991999999999999999999
0029029720999991902120120004+60450+022267FM-12+001499999V0200201N004619999999N0000001N9-01671+99999101841ADDGF100991999999999999999999
0029029720999991902120113004+60450+022267FM-12+001499999V0200201N009319999999N0000001N9-01671+99999101661ADDGF100991999999999999999999
0029029720999991902120106004+60450+022267FM-12+001499999V0200201N006719999999N0000001N9-01611+99999101471ADDGF100991999999999999999999
0029029720999991902113020004+60450+022267FM-12+001499999V0203601N004619999999N0000001N9-01611+99999101021ADDGF100991999999999999999999
0029029720999991902113013004+60450+022267FM-12+001499999V0200201N006719999999N0000001N9-01111+99999100701ADDGF101991999999999999999999
0029029720999991902113006004+60450+022267FM-12+001499999V0203401N001019999999N0000001N9-01331+99999100431ADDGF102991999999999999999999
0029029720999991902112920004+60450+022267FM-12+001499999V0203401N004619999999N0000001N9-01111+99999100591ADDGF108991999999999999999999
0029029720999991902112913004+60450+022267FM-12+001499999V0203601N006719999999N0000001N9-01061+99999100391ADDGF104991999999999999999999
0029029720999991902112906004+60450+022267FM-12+001499999V0200201N004619999999N0000001N9-00831+99999100231ADDGF108991999999999999999999
0029029720999991902112820004+60450+022267FM-12+001499999V0203601N004619999999N0000001N9-00671+99999100191ADDGF108991999999999999999999
0029029720999991902112813004+60450+022267FM-12+001499999V0203601N009319999999N0000001N9-00611+99999100101ADDGF108991999999999999999999
0029029720999991902112806004+60450+022267FM-12+001499999V0209991C000019999999N0000001N9-00171+99999099831ADDGF108991999999999999999999
0029029720999991902112720004+60450+022267FM-12+001499999V0202301N004619999999N0000001N9+00001+99999099901ADDGF108991999999999999999999
0029029720999991902112713004+60450+022267FM-12+001499999V0202301N009319999999N0000001N9+00111+99999100261ADDGF108991999999999999999999
0029029720999991902112706004+60450+022267FM-12+001499999V0201401N004619999999N0000001N9-00061+99999100521ADDGF108991999999999999999999
0029029720999991902112620004+60450+022267FM-12+001499999V0201401N004619999999N0000001N9-00831+99999101111ADDGF108991999999999999999999
0029029720999991902112613004+60450+022267FM-12+001499999V0200501N001019999999N0000001N9-01061+99999101381ADDGF107991999999999999999999
0029029720999991902112606004+60450+022267FM-12+001499999V0209991C000019999999N0000001N9-01561+99999101431ADDGF100991999999999999999999
0029029720999991902112520004+60450+022267FM-12+001499999V0200501N002619999999N0000001N9-01281+99999101471ADDGF100991999999999999999999
0029029720999991902112513004+60450+022267FM-12+001499999V0200501N004619999999N0000001N9-00941+99999101361ADDGF100991999999999999999999
0029029720999991902112506004+60450+022267FM-12+001499999V0200501N009319999999N0000001N9-01111+99999101221ADDGF108991999999999999999999
0029029720999991902112420004+60450+022267FM-12+001499999V0200701N009319999999N0000001N9-00441+99999100871ADDGF108991999999999999999999
0029029720999991902112413004+60450+022267FM-12+001499999V0209991C000019999999N0000001N9+00001+99999100521ADDGF108991999999999999999999
0029029720999991902112406004+60450+022267FM-12+001499999V0201401N002619999999N0000001N9-00061+99999100361ADDGF108991999999999999999999
0029029720999991902112320004+60450+022267FM-12+001499999V0209991C000019999999N0000001N9+00001+99999100401ADDGF107991999999999999999999
0029029720999991902112313004+60450+022267FM-12+001499999V0202701N004619999999N0000001N9+00281+99999100521ADDGF100991999999999999999999
0029029720999991902112306004+60450+022267FM-12+001499999V0202701N009319999999N0000001N9+00061+99999100471ADDGF100991999999999999999999
0029029720999991902112220004+60450+022267FM-12+001499999V0202701N009319999999N0000001N9+00111+99999100751ADDGF108991999999999999999999
0029029720999991902112213004+60450+022267FM-12+001499999V0202701N006719999999N0000001N9+00171+99999101161ADDGF108991999999999999999999
0029029720999991902112206004+60450+022267FM-12+001499999V0202301N004619999999N0000001N9+00061+99999101591ADDGF108991999999999999999999
0029029720999991902112120004+60450+022267FM-12+001499999V0209991C000019999999N0000001N9-00671+99999102181ADDGF100991999999999999999999
0029029720999991902112113004+60450+022267FM-12+001499999V0203601N009319999999N0000001N9-00061+99999101821ADDGF100991999999999999999999
0029029720999991902112106004+60450+022267FM-12+001499999V0203401N012319999999N0000001N9-00061+99999101311ADDGF100991999999999999999999
0029029720999991902112020004+60450+022267FM-12+001499999V0202901N009319999999N0000001N9+00111+99999101281ADDGF100991999999999999999999
0029029720999991902112013004+60450+022267FM-12+001499999V0202701N006719999999N0000001N9+00221+99999102001ADDGF108991999999999999999999
0029029720999991902112006004+60450+022267FM-12+001499999V0209991C000019999999N0000001N9-00441+99999102481ADDGF100991999999999999999999
0029029720999991902111920004+60450+022267FM-12+001499999V0203201N001019999999N0000001N9+00001+99999102631ADDGF100991999999999999999999
0029029720999991902111913004+60450+022267FM-12+001499999V0203201N002619999999N0000001N9+00221+99999102801ADDGF108991999999999999999999
0029029720999991902111906004+60450+022267FM-12+001499999V0202901N009319999999N0000001N9+00221+99999103111ADDGF108991999999999999999999
0029029720999991902111820004+60450+022267FM-12+001499999V0202701N004619999999N0000001N9+00001+99999103661ADDGF108991999999999999999999
0029029720999991902111813004+60450+022267FM-12+001499999V0202701N006719999999N0000001N9+00061+99999103861ADDGF107991999999999999999999
0029029720999991902111806004+60450+022267FM-12+001499999V0202501N006719999999N0000001N9-00061+99999104001ADDGF100991999999999999999999
0029029720999991902111720004+60450+022267FM-12+001499999V0202301N004619999999N0000001N9+00001+99999104321ADDGF100991999999999999999999
0029029720999991902111713004+60450+022267FM-12+001499999V0201801N009319999999N0000001N9+00111+99999104351ADDGF100991999999999999999999
0029029720999991902111706004+60450+022267FM-12+001499999V0200701N001019999999N0000001N9-00781+99999104241ADDGF100991999999999999999999
0029029720999991902111620004+60450+022267FM-12+001499999V0200701N001019999999N0000001N9-00671+99999104141ADDGF100991999999999999999999
0029029720999991902111613004+60450+022267FM-12+001499999V0200701N002619999999N0000001N9-00391+99999103991ADDGF108991999999999999999999
0029029720999991902111606004+60450+022267FM-12+001499999V0200701N002619999999N0000001N9-00781+99999104001ADDGF108991999999999999999999
0029029720999991902111520004+60450+022267FM-12+001499999V0200201N004619999999N0000001N9-00061+99999103481ADDGF107991999999999999999999
0029029720999991902111513004+60450+022267FM-12+001499999V0203601N009319999999N0000001N9+00391+99999102991ADDGF108991999999999999999999
0029029720999991902111506004+60450+022267FM-12+001499999V0203601N009319999999N0000001N9+00171+99999102541ADDGF108991999999999999999999
0029029720999991902111420004+60450+022267FM-12+001499999V0209991C000019999999N0000001N9+00441+99999101881ADDGF108991999999999999999999
0029029720999991902111413004+60450+022267FM-12+001499999V0202501N006719999999N0000001N9+00561+99999101801ADDGF108991999999999999999999
0029029720999991902111406004+60450+022267FM-12+001499999V0209991C000019999999N0000001N9+00501+99999101721ADDGF108991999999999999999999
0029029720999991902111320004+60450+022267FM-12+001499999V0202501N006719999999N0000001N9+00501+99999101831ADDGF108991999999999999999999
0029029720999991902111313004+60450+022267FM-12+001499999V0202301N012319999999N0000001N9+00501+99999101921ADDGF108991999999999999999999
0029029720999991902111306004+60450+022267FM-12+001499999V0202001N009319999999N0000001N9+00441+99999102151ADDGF108991999999999999999999
0029029720999991902111220004+60450+022267FM-12+001499999V0209991C000019999999N0000001N9+00221+99999102561ADDGF108991999999999999999999
0029029720999991902111213004+60450+022267FM-12+001499999V0209991C000019999999N0000001N9+00331+99999102421ADDGF108991999999999999999999
0029029720999991902111206004+60450+022267FM-12+001499999V0209991C000019999999N0000001N9-00171+99999102301ADDGF108991999999999999999999
0029029720999991902111120004+60450+022267FM-12+001499999V0209991C000019999999N0000001N9+00331+99999101711ADDGF100991999999999999999999
0029029720999991902111113004+60450+022267FM-12+001499999V0202301N004619999999N0000001N9+00561+99999101321ADDGF108991999999999999999999
0029029720999991902111106004+60450+022267FM-12+001499999V0201801N009319999999N0000001N9+00561+99999101111ADDGF108991999999999999999999
0029029720999991902111020004+60450+022267FM-12+001499999V0202301N002619999999N0000001N9+00561+99999101031ADDGF108991999999999999999999
0029029720999991902111013004+60450+022267FM-12+001499999V0201801N009319999999N0000001N9+00501+99999101021ADDGF108991999999999999999999
0029029720999991902111006004+60450+022267FM-12+001499999V0201601N012319999999N0000001N9+00441+99999101081ADDGF108991999999999999999999
0029029720999991902110920004+60450+022267FM-12+001499999V0201601N004619999999N0000001N9+00441+99999101391ADDGF108991999999999999999999
0029029720999991902110913004+60450+022267FM-12+001499999V0201401N006719999999N0000001N9+00331+99999101431ADDGF108991999999999999999999
0029029720999991902110906004+60450+022267FM-12+001499999V0201401N006719999999N0000001N9+00221+99999101391ADDGF108991999999999999999999
0029029720999991902110820004+60450+022267FM-12+001499999V0201601N002619999999N0000001N9+00221+99999101591ADDGF108991999999999999999999
0029029720999991902110813004+60450+022267FM-12+001499999V0201601N004619999999N0000001N9+00331+99999101751ADDGF108991999999999999999999
0029029720999991902110806004+60450+022267FM-12+001499999V0201801N004619999999N0000001N9+00331+99999101801ADDGF108991999999999999999999
0029029720999991902110720004+60450+022267FM-12+001499999V0202001N006719999999N0000001N9+00331+99999102141ADDGF108991999999999999999999
0029029720999991902110713004+60450+022267FM-12+001499999V0201801N012319999999N0000001N9+00281+99999102501ADDGF108991999999999999999999
0029029720999991902110706004+60450+022267FM-12+001499999V0201401N001019999999N0000001N9+00061+99999102671ADDGF108991999999999999999999
0029029720999991902110620004+60450+022267FM-12+001499999V0209991C000019999999N0000001N9-00671+99999103161ADDGF100991999999999999999999
0029029720999991902110613004+60450+022267FM-12+001499999V0200701N004619999999N0000001N9-00391+99999103121ADDGF100991999999999999999999
0029029720999991902110606004+60450+022267FM-12+001499999V0209991C000019999999N0000001N9-00331+99999103061ADDGF108991999999999999999999
0029029720999991902110520004+60450+022267FM-12+001499999V0203401N012319999999N0000001N9-00501+99999102321ADDGF108991999999999999999999
0029029720999991902110513004+60450+022267FM-12+001499999V0203201N012319999999N0000001N9-00111+99999101601ADDGF108991999999999999999999
0029029720999991902110506004+60450+022267FM-12+001499999V0203201N012319999999N0000001N9+00001+99999101161ADDGF101991999999999999999999
0029029720999991902110420004+60450+022267FM-12+001499999V0203201N015419999999N0000001N9+00171+99999100271ADDGF100991999999999999999999
0029029720999991902110413004+60450+022267FM-12+001499999V0203201N015419999999N0000001N9+00391+99999099831ADDGF106991999999999999999999
0029029720999991902110406004+60450+022267FM-12+001499999V0203201N019019999999N0000001N9+00221+99999099101ADDGF108991999999999999999999
0029029720999991902110320004+60450+022267FM-12+001499999V0202301N009319999999N0000001N9+00501+99999099801ADDGF108991999999999999999999
0029029720999991902110313004+60450+022267FM-12+001499999V0201801N004619999999N0000001N9+00441+99999100351ADDGF108991999999999999999999
0029029720999991902110306004+60450+022267FM-12+001499999V0202901N002619999999N0000001N9+00001+99999100551ADDGF101991999999999999999999
0029029720999991902110220004+60450+022267FM-12+001499999V0203201N012319999999N0000001N9+00331+99999099901ADDGF101991999999999999999999
0029029720999991902110213004+60450+022267FM-12+001499999V0203201N019019999999N0000001N9+00331+99999099001ADDGF107991999999999999999999
0029029720999991902110206004+60450+022267FM-12+001499999V0202901N022619999999N0000001N9+00331+99999097791ADDGF108991999999999999999999
0029029720999991902110120004+60450+022267FM-12+001499999V0202701N006719999999N0000001N9+00561+99999097441ADDGF101991999999999999999999
0029029720999991902110113004+60450+022267FM-12+001499999V0202001N012319999999N0000001N9+00831+99999097511ADDGF108991999999999999999999
0029029720999991902110106004+60450+022267FM-12+001499999V0202001N019019999999N0000001N9+00391+99999098471ADDGF108991999999999999999999
0029029720999991902103120004+60450+022267FM-12+001499999V0202701N002619999999N0000001N9+00281+99999099861ADDGF100991999999999999999999
0029029720999991902103113004+60450+022267FM-12+001499999V0202701N009319999999N0000001N9+00501+99999099711ADDGF102991999999999999999999
0029029720999991902103106004+60450+022267FM-12+001499999V0202501N004619999999N0000001N9+00561+99999099521ADDGF108991999999999999999999
0029029720999991902103020004+60450+022267FM-12+001499999V0202301N012319999999N0000001N9+00561+99999099621ADDGF108991999999999999999999
0029029720999991902103013004+60450+022267FM-12+001499999V0202001N012319999999N0000001N9+00611+99999100261ADDGF108991999999999999999999
0029029720999991902103006004+60450+022267FM-12+001499999V0202001N015419999999N0000001N9+00611+99999100581ADDGF108991999999999999999999
0029029720999991902102920004+60450+022267FM-12+001499999V0202301N015419999999N0000001N9+00721+99999101001ADDGF108991999999999999999999
0029029720999991902102913004+60450+022267FM-12+001499999V0202001N012319999999N0000001N9+00721+99999101341ADDGF108991999999999999999999
0029029720999991902102906004+60450+022267FM-12+001499999V0202301N006719999999N0000001N9+00611+99999101431ADDGF108991999999999999999999
0029029720999991902102820004+60450+022267FM-12+001499999V0202301N002619999999N0000001N9+00281+99999101591ADDGF100991999999999999999999
0029029720999991902102813004+60450+022267FM-12+001499999V0202301N002619999999N0000001N9+00441+99999101621ADDGF108991999999999999999999
0029029720999991902102806004+60450+022267FM-12+001499999V0209991C000019999999N0000001N9-00111+99999101401ADDGF108991999999999999999999
0029029720999991902102720004+60450+022267FM-12+001499999V0202301N001019999999N0000001N9+00441+99999101351ADDGF108991999999999999999999
0029029720999991902102713004+60450+022267FM-12+001499999V0202301N004619999999N0000001N9+00561+99999101381ADDGF108991999999999999999999
0029029720999991902102706004+60450+022267FM-12+001499999V0202501N001019999999N0000001N9+00331+99999101321ADDGF108991999999999999999999
0029029720999991902102620004+60450+022267FM-12+001499999V0202501N002619999999N0000001N9+00281+99999101551ADDGF100991999999999999999999
0029029720999991902102613004+60450+022267FM-12+001499999V0202701N006719999999N0000001N9+00671+99999101781ADDGF100991999999999999999999
0029029720999991902102606004+60450+022267FM-12+001499999V0202701N006719999999N0000001N9+00221+99999101871ADDGF101991999999999999999999
0029029720999991902102520004+60450+022267FM-12+001499999V0203201N009319999999N0000001N9+00391+99999101741ADDGF100991999999999999999999
0029029720999991902102513004+60450+022267FM-12+001499999V0203201N012319999999N0000001N9+00611+99999101381ADDGF106991999999999999999999
0029029720999991902102506004+60450+022267FM-12+001499999V0203201N002619999999N0000001N9+00281+99999101001ADDGF102991999999999999999999
0029029720999991902102420004+60450+022267FM-12+001499999V0202701N009319999999N0000001N9+00831+99999100461ADDGF108991999999999999999999
0029029720999991902102413004+60450+022267FM-12+001499999V0202001N012319999999N0000001N9+00781+99999100661ADDGF108991999999999999999999
0029029720999991902102406004+60450+022267FM-12+001499999V0201801N012319999999N0000001N9+00561+99999101161ADDGF108991999999999999999999
0029029720999991902102320004+60450+022267FM-12+001499999V0209991C000019999999N0000001N9-00391+99999102281ADDGF100991999999999999999999
0029029720999991902102313004+60450+022267FM-12+001499999V0200201N001019999999N0000001N9-00501+99999102281ADDGF100991999999999999999999
0029029720999991902102306004+60450+022267FM-12+001499999V0200201N002619999999N0000001N9-00611+99999102071ADDGF108991999999999999999999
0029029720999991902102220004+60450+022267FM-12+001499999V0200501N004619999999N0000001N9-00171+99999101471ADDGF107991999999999999999999
0029029720999991902102213004+60450+022267FM-12+001499999V0200501N009319999999N0000001N9+00001+99999101111ADDGF108991999999999999999999
0029029720999991902102206004+60450+022267FM-12+001499999V0200501N009319999999N0000001N9+00111+99999100801ADDGF108991999999999999999999
0029029720999991902102120004+60450+022267FM-12+001499999V0200901N006719999999N0000001N9+00221+99999100801ADDGF101991999999999999999999
0029029720999991902102113004+60450+022267FM-12+001499999V0201101N004619999999N0000001N9+00331+99999100951ADDGF108991999999999999999999
0029029720999991902102106004+60450+022267FM-12+001499999V0209991C000019999999N0000001N9+00111+99999101071ADDGF108991999999999999999999
0029029720999991902102020004+60450+022267FM-12+001499999V0203401N002619999999N0000001N9+00061+99999101081ADDGF108991999999999999999999
0029029720999991902102013004+60450+022267FM-12+001499999V0209991C000019999999N0000001N9+00171+99999100961ADDGF108991999999999999999999
0029029720999991902102006004+60450+022267FM-12+001499999V0203601N001019999999N0000001N9+00001+99999100761ADDGF108991999999999999999999
0029029720999991902101920004+60450+022267FM-12+001499999V0203401N004619999999N0000001N9+00061+99999100641ADDGF108991999999999999999999
0029029720999991902101913004+60450+022267FM-12+001499999V0203201N002619999999N0000001N9+00331+99999100351ADDGF108991999999999999999999
0029029720999991902101906004+60450+022267FM-12+001499999V0209991C000019999999N0000001N9+00331+99999099981ADDGF108991999999999999999999
0029029720999991902101820004+60450+022267FM-12+001499999V0209991C000019999999N0000001N9+00561+99999099761ADDGF108991999999999999999999
0029029720999991902101813004+60450+022267FM-12+001499999V0201801N002619999999N0000001N9+00831+99999099671ADDGF108991999999999999999999
0029029720999991902101806004+60450+022267FM-12+001499999V0201801N001019999999N0000001N9+00671+99999099471ADDGF108991999999999999999999
0029029720999991902101720004+60450+022267FM-12+001499999V0209991C000019999999N0000001N9+00671+99999099281ADDGF108991999999999999999999
0029029720999991902101713004+60450+022267FM-12+001499999V0201601N006719999999N0000001N9+00221+99999098981ADDGF108991999999999999999999
0029029720999991902101706004+60450+022267FM-12+001499999V0201101N006719999999N0000001N9+00331+99999098791ADDGF108991999999999999999999
0029029720999991902101620004+60450+022267FM-12+001499999V0201101N015419999999N0000001N9+00061+99999099561ADDGF108991999999999999999999
0029029720999991902101613004+60450+022267FM-12+001499999V0201101N009319999999N0000001N9-00171+99999100161ADDGF108991999999999999999999
0029029720999991902101606004+60450+022267FM-12+001499999V0200201N002619999999N0000001N9-00611+99999100391ADDGF102991999999999999999999
0029029720999991902101520004+60450+022267FM-12+001499999V0200201N009319999999N0000001N9-00281+99999100201ADDGF108991999999999999999999
0029029720999991902101513004+60450+022267FM-12+001499999V0200501N012319999999N0000001N9-00111+99999099751ADDGF108991999999999999999999
0029029720999991902101506004+60450+022267FM-12+001499999V0200701N015419999999N0000001N9+00111+99999099591ADDGF108991999999999999999999
0029029720999991902101420004+60450+022267FM-12+001499999V0202901N001019999999N0000001N9+00391+99999100041ADDGF108991999999999999999999
0029029720999991902101413004+60450+022267FM-12+001499999V0202301N009319999999N0000001N9+00561+99999100061ADDGF108991999999999999999999
0029029720999991902101406004+60450+022267FM-12+001499999V0202301N012319999999N0000001N9+00671+99999100081ADDGF108991999999999999999999
0029029720999991902101320004+60450+022267FM-12+001499999V0203201N001019999999N0000001N9+00001+99999101461ADDGF105991999999999999999999
0029029720999991902101313004+60450+022267FM-12+001499999V0203201N006719999999N0000001N9+00561+99999101431ADDGF106991999999999999999999
0029029720999991902101306004+60450+022267FM-12+001499999V0209991C000019999999N0000001N9+00061+99999101341ADDGF104991999999999999999999
0029029720999991902101220004+60450+022267FM-12+001499999V0203201N001019999999N0000001N9+00001+99999101161ADDGF106991999999999999999999
0029029720999991902101213004+60450+022267FM-12+001499999V0203201N002619999999N0000001N9+00561+99999101021ADDGF108991999999999999999999
0029029720999991902101206004+60450+022267FM-12+001499999V0209991C000019999999N0000001N9+00281+99999100751ADDGF108991999999999999999999
0029029720999991902101120004+60450+022267FM-12+001499999V0202901N006719999999N0000001N9+00391+99999100071ADDGF108991999999999999999999
0029029720999991902101113004+60450+022267FM-12+001499999V0202901N009319999999N0000001N9+00611+99999099591ADDGF108991999999999999999999
0029029720999991902101106004+60450+022267FM-12+001499999V0201401N009319999999N0000001N9+00331+99999099831ADDGF108991999999999999999999
0029029720999991902101020004+60450+022267FM-12+001499999V0202301N006719999999N0000001N9+00611+99999100921ADDGF108991999999999999999999
0029029720999991902101013004+60450+022267FM-12+001499999V0202301N006719999999N0000001N9+00671+99999101341ADDGF108991999999999999999999
0029029720999991902101006004+60450+022267FM-12+001499999V0201801N002619999999N0000001N9+00391+99999101521ADDGF108991999999999999999999
0029029720999991902100920004+60450+022267FM-12+001499999V0209991C000019999999N0000001N9-00171+99999101921ADDGF100991999999999999999999
0029029720999991902100913004+60450+022267FM-12+001499999V0202901N002619999999N0000001N9+00501+99999101911ADDGF100991999999999999999999
0029029720999991902100906004+60450+022267FM-12+001499999V0203601N001019999999N0000001N9-00111+99999101831ADDGF100991999999999999999999
0029029720999991902100820004+60450+022267FM-12+001499999V0203401N002619999999N0000001N9+00061+99999101141ADDGF100991999999999999999999
0029029720999991902100813004+60450+022267FM-12+001499999V0203401N004619999999N0000001N9+00721+99999100581ADDGF102991999999999999999999
0029029720999991902100806004+60450+022267FM-12+001499999V0202701N002619999999N0000001N9+00331+99999100321ADDGF108991999999999999999999
0029029720999991902100720004+60450+022267FM-12+001499999V0209991C000019999999N0000001N9+00281+99999100781ADDGF100991999999999999999999
0029029720999991902100713004+60450+022267FM-12+001499999V0202701N006719999999N0000001N9+00891+99999101181ADDGF107991999999999999999999
0029029720999991902100706004+60450+022267FM-12+001499999V0202501N002619999999N0000001N9+00561+99999101281ADDGF101991999999999999999999
0029029720999991902100620004+60450+022267FM-12+001499999V0209991C000019999999N0000001N9+00391+99999101631ADDGF100991999999999999999999
0029029720999991902100613004+60450+022267FM-12+001499999V0202701N006719999999N0000001N9+01001+99999101791ADDGF101991999999999999999999
0029029720999991902100606004+60450+022267FM-12+001499999V0202701N001019999999N0000001N9+00561+99999101901ADDGF108991999999999999999999
0029029720999991902100520004+60450+022267FM-12+001499999V0202701N002619999999N0000001N9+00561+99999101991ADDGF108991999999999999999999
0029029720999991902100513004+60450+022267FM-12+001499999V0202701N009319999999N0000001N9+00721+99999102041ADDGF108991999999999999999999
0029029720999991902100506004+60450+022267FM-12+001499999V0209991C000019999999N0000001N9+00061+99999102081ADDGF107991999999999999999999
0029029720999991902100420004+60450+022267FM-12+001499999V0203201N002619999999N0000001N9-00111+99999102121ADDGF100991999999999999999999
0029029720999991902100413004+60450+022267FM-12+001499999V0203201N006719999999N0000001N9+00281+99999101871ADDGF108991999999999999999999
0029029720999991902100406004+60450+022267FM-12+001499999V0203201N004619999999N0000001N9-00061+99999101481ADDGF100991999999999999999999
0029029720999991902100320004+60450+022267FM-12+001499999V0203201N004619999999N0000001N9+00441+99999100551ADDGF100991999999999999999999
0029029720999991902100313004+60450+022267FM-12+001499999V0202701N012319999999N0000001N9+00831+99999100781ADDGF107991999999999999999999
0029029720999991902100306004+60450+022267FM-12+001499999V0202501N004619999999N0000001N9+00611+99999101321ADDGF102991999999999999999999
0029029720999991902100220004+60450+022267FM-12+001499999V0202301N009319999999N0000001N9+00391+99999102111ADDGF104991999999999999999999
0029029720999991902100213004+60450+022267FM-12+001499999V0202001N004619999999N0000001N9+00501+99999102501ADDGF108991999999999999999999
0029029720999991902100206004+60450+022267FM-12+001499999V0209991C000019999999N0000001N9-00171+99999102711ADDGF100991999999999999999999
0029029720999991902100120004+60450+022267FM-12+001499999V0209991C000019999999N0000001N9-00061+99999102461ADDGF100991999999999999999999
0029029720999991902100113004+60450+022267FM-12+001499999V0203601N006719999999N0000001N9+00331+99999102301ADDGF108991999999999999999999
0029029720999991902100106004+60450+022267FM-12+001499999V0209991C000019999999N0000001N9-00061+99999102201ADDGF107991999999999999999999
0029029720999991902093020004+60450+022267FM-12+001499999V0203601N004619999999N0000001N9+00111+99999101861ADDGF108991999999999999999999
0029029720999991902093013004+60450+022267FM-12+001499999V0203401N004619999999N0000001N9+00441+99999101601ADDGF107991999999999999999999
0029029720999991902093006004+60450+022267FM-12+001499999V0200201N002619999999N0000001N9+00221+99999101431ADDGF108991999999999999999999
0029029720999991902092920004+60450+022267FM-12+001499999V0202901N002619999999N0000001N9+00721+99999100841ADDGF100991999999999999999999
0029029720999991902092913004+60450+022267FM-12+001499999V0202701N009319999999N0000001N9+01111+99999100821ADDGF107991999999999999999999
0029029720999991902092906004+60450+022267FM-12+001499999V0202701N004619999999N0000001N9+00721+99999101111ADDGF108991999999999999999999
0029029720999991902092820004+60450+022267FM-12+001499999V0203201N002619999999N0000001N9+00281+99999101581ADDGF100991999999999999999999
0029029720999991902092813004+60450+022267FM-12+001499999V0203201N009319999999N0000001N9+00781+99999101541ADDGF108991999999999999999999
0029029720999991902092806004+60450+022267FM-12+001499999V0203401N009319999999N0000001N9+00671+99999101031ADDGF103991999999999999999999
0029029720999991902092720004+60450+022267FM-12+001499999V0203401N015419999999N0000001N9+00501+99999100581ADDGF108991999999999999999999
0029029720999991902092713004+60450+022267FM-12+001499999V0203201N006719999999N0000001N9+01001+99999100341ADDGF108991999999999999999999
0029029720999991902092706004+60450+022267FM-12+001499999V0202001N004619999999N0000001N9+00941+99999100641ADDGF108991999999999999999999
0029029720999991902092620004+60450+022267FM-12+001499999V0202701N002619999999N0000001N9+00891+99999101681ADDGF106991999999999999999999
0029029720999991902092613004+60450+022267FM-12+001499999V0202301N009319999999N0000001N9+01111+99999102001ADDGF104991999999999999999999
0029029720999991902092606004+60450+022267FM-12+001499999V0202001N009319999999N0000001N9+00891+99999102181ADDGF108991999999999999999999
0029029720999991902092520004+60450+022267FM-12+001499999V0202301N002619999999N0000001N9+00721+99999102301ADDGF100991999999999999999999
0029029720999991902092513004+60450+022267FM-12+001499999V0202301N006719999999N0000001N9+01391+99999102381ADDGF100991999999999999999999
0029029720999991902092506004+60450+022267FM-12+001499999V0202501N002619999999N0000001N9+00561+99999102361ADDGF100991999999999999999999
0029029720999991902092420004+60450+022267FM-12+001499999V0202501N004619999999N0000001N9+00941+99999102361ADDGF108991999999999999999999
0029029720999991902092413004+60450+022267FM-12+001499999V0202301N006719999999N0000001N9+01221+99999102501ADDGF108991999999999999999999
0029029720999991902092406004+60450+022267FM-12+001499999V0200201N001019999999N0000001N9+00831+99999102591ADDGF108991999999999999999999
0029029720999991902092320004+60450+022267FM-12+001499999V0209991C000019999999N0000001N9+00831+99999102591ADDGF108991999999999999999999
0029029720999991902092313004+60450+022267FM-12+001499999V0203601N004619999999N0000001N9+01221+99999102511ADDGF102991999999999999999999
0029029720999991902092306004+60450+022267FM-12+001499999V0209991C000019999999N0000001N9+00781+99999102441ADDGF108991999999999999999999
0029029720999991902092220004+60450+022267FM-12+001499999V0202901N002619999999N0000001N9+00671+99999102401ADDGF108991999999999999999999
0029029720999991902092213004+60450+022267FM-12+001499999V0202901N006719999999N0000001N9+01001+99999102481ADDGF100991999999999999999999
0029029720999991902092206004+60450+022267FM-12+001499999V0209991C000019999999N0000001N9+00111+99999102551ADDGF100991999999999999999999
0029029720999991902092120004+60450+022267FM-12+001499999V0203201N001019999999N0000001N9+00111+99999102521ADDGF100991999999999999999999
0029029720999991902092113004+60450+022267FM-12+001499999V0203201N009319999999N0000001N9+00721+99999102421ADDGF108991999999999999999999
0029029720999991902092106004+60450+022267FM-12+001499999V0203201N002619999999N0000001N9+00221+99999102391ADDGF103991999999999999999999
0029029720999991902092020004+60450+022267FM-12+001499999V0203201N001019999999N0000001N9+00111+99999102161ADDGF100991999999999999999999
0029029720999991902092013004+60450+022267FM-12+001499999V0203201N006719999999N0000001N9+00501+99999101921ADDGF107991999999999999999999
0029029720999991902092006004+60450+022267FM-12+001499999V0203201N009319999999N0000001N9+00221+99999101721ADDGF107991999999999999999999
0029029720999991902091920004+60450+022267FM-12+001499999V0203201N006719999999N0000001N9+00501+99999101201ADDGF105991999999999999999999
0029029720999991902091913004+60450+022267FM-12+001499999V0203201N012319999999N0000001N9+00721+99999100701ADDGF108991999999999999999999
0029029720999991902091906004+60450+022267FM-12+001499999V0209991C000019999999N0000001N9+00671+99999100221ADDGF108991999999999999999999
0029029720999991902091820004+60450+022267FM-12+001499999V0202501N002619999999N0000001N9+00781+99999099681ADDGF108991999999999999999999
0029029720999991902091813004+60450+022267FM-12+001499999V0202301N006719999999N0000001N9+01001+99999099501ADDGF108991999999999999999999
0029029720999991902091806004+60450+022267FM-12+001499999V0201801N002619999999N0000001N9+01001+99999099341ADDGF108991999999999999999999
0029029720999991902091720004+60450+022267FM-12+001499999V0201801N002619999999N0000001N9+00941+99999099401ADDGF108991999999999999999999
0029029720999991902091713004+60450+022267FM-12+001499999V0201801N006719999999N0000001N9+01281+99999099391ADDGF108991999999999999999999
0029029720999991902091706004+60450+022267FM-12+001499999V0201601N004619999999N0000001N9+01111+99999099341ADDGF108991999999999999999999
0029029720999991902091620004+60450+022267FM-12+001499999V0201801N009319999999N0000001N9+01171+99999099481ADDGF108991999999999999999999
0029029720999991902091613004+60450+022267FM-12+001499999V0202301N009319999999N0000001N9+01111+99999099621ADDGF108991999999999999999999
0029029720999991902091606004+60450+022267FM-12+001499999V0202001N006719999999N0000001N9+00891+99999099581ADDGF108991999999999999999999
0029029720999991902091520004+60450+022267FM-12+001499999V0202501N015419999999N0000001N9+00941+99999099441ADDGF100991999999999999999999
0029029720999991902091513004+60450+022267FM-12+001499999V0202501N015419999999N0000001N9+01001+99999099191ADDGF108991999999999999999999
0029029720999991902091506004+60450+022267FM-12+001499999V0202501N019019999999N0000001N9+00721+99999098601ADDGF108991999999999999999999
0029029720999991902091420004+60450+022267FM-12+001499999V0202301N015419999999N0000001N9+00671+99999097681ADDGF108991999999999999999999
0029029720999991902091413004+60450+022267FM-12+001499999V0202001N015419999999N0000001N9+00671+99999097701ADDGF108991999999999999999999
0029029720999991902091406004+60450+022267FM-12+001499999V0202001N012319999999N0000001N9+00611+99999097561ADDGF108991999999999999999999
0029029720999991902091320004+60450+022267FM-12+001499999V0202501N009319999999N0000001N9+00721+99999097711ADDGF108991999999999999999999
0029029720999991902091313004+60450+022267FM-12+001499999V0202301N012319999999N0000001N9+01001+99999097661ADDGF108991999999999999999999
0029029720999991902091306004+60450+022267FM-12+001499999V0201401N012319999999N0000001N9+01111+99999097471ADDGF108991999999999999999999
0029029720999991902091220004+60450+022267FM-12+001499999V0201801N012319999999N0000001N9+01061+99999099041ADDGF108991999999999999999999
0000029720999991902091213004+60450+022267FM-12+001499999V02099999999999999999N0000001N9+01111+99999099461
0029029720999991902091206004+60450+022267FM-12+001499999V0200901N004619999999N0000001N9+01221+99999100111ADDGF101991999999999999999999
0029029720999991902091120004+60450+022267FM-12+001499999V0202701N001019999999N0000001N9+00501+99999100631ADDGF104991999999999999999999
0029029720999991902091113004+60450+022267FM-12+001499999V0202701N009319999999N0000001N9+01171+99999100801ADDGF104991999999999999999999
0029029720999991902091106004+60450+022267FM-12+001499999V0203201N009319999999N0000001N9+00831+99999100721ADDGF108991999999999999999999
0029029720999991902091020004+60450+022267FM-12+001499999V0202901N012319999999N0000001N9+00891+99999100391ADDGF102991999999999999999999
0029029720999991902091013004+60450+022267FM-12+001499999V0203201N015419999999N0000001N9+01001+99999100421ADDGF107991999999999999999999
0029029720999991902091006004+60450+022267FM-12+001499999V0202901N009319999999N0000001N9+01061+99999100321ADDGF101991999999999999999999
0029029720999991902090920004+60450+022267FM-12+001499999V0202501N002619999999N0000001N9+01171+99999100241ADDGF105991999999999999999999
0029029720999991902090913004+60450+022267FM-12+001499999V0203201N009319999999N0000001N9+01831+99999100271ADDGF103991999999999999999999
0029029720999991902090906004+60450+022267FM-12+001499999V0202001N012319999999N0000001N9+01331+99999100401ADDGF108991999999999999999999
0029029720999991902090820004+60450+022267FM-12+001499999V0202301N009319999999N0000001N9+01221+99999101021ADDGF108991999999999999999999
0029029720999991902090813004+60450+022267FM-12+001499999V0202301N006719999999N0000001N9+01561+99999101521ADDGF107991999999999999999999
0029029720999991902090806004+60450+022267FM-12+001499999V0202301N001019999999N0000001N9+01061+99999101641ADDGF108991999999999999999999
0029029720999991902090720004+60450+022267FM-12+001499999V0209991C000019999999N0000001N9+01001+99999101711ADDGF108991999999999999999999
0029029720999991902090713004+60450+022267FM-12+001499999V0202701N002619999999N0000001N9+01671+99999101661ADDGF101991999999999999999999
0029029720999991902090706004+60450+022267FM-12+001499999V0209991C000019999999N0000001N9+01061+99999101631ADDGF108991999999999999999999
0029029720999991902090620004+60450+022267FM-12+001499999V0203201N001019999999N0000001N9+01171+99999101321ADDGF108991999999999999999999
0029029720999991902090613004+60450+022267FM-12+001499999V0202701N004619999999N0000001N9+01831+99999100781ADDGF107991999999999999999999
0029029720999991902090606004+60450+022267FM-12+001499999V0202701N004619999999N0000001N9+01221+99999100351ADDGF108991999999999999999999
0029029720999991902090520004+60450+022267FM-12+001499999V0202301N006719999999N0000001N9+01391+99999100441ADDGF108991999999999999999999
0029029720999991902090513004+60450+022267FM-12+001499999V0202301N009319999999N0000001N9+01721+99999100661ADDGF108991999999999999999999
0029029720999991902090506004+60450+022267FM-12+001499999V0202301N009319999999N0000001N9+01561+99999100561ADDGF101991999999999999999999
0029029720999991902090420004+60450+022267FM-12+001499999V0202301N012319999999N0000001N9+01441+99999100671ADDGF108991999999999999999999
0029029720999991902090413004+60450+022267FM-12+001499999V0201801N009319999999N0000001N9+01501+99999101181ADDGF108991999999999999999999
0029029720999991902090406004+60450+022267FM-12+001499999V0201801N012319999999N0000001N9+01561+99999101281ADDGF108991999999999999999999
0029029720999991902090320004+60450+022267FM-12+001499999V0201401N012319999999N0000001N9+01331+99999101621ADDGF108991999999999999999999
0029029720999991902090313004+60450+022267FM-12+001499999V0201801N006719999999N0000001N9+01611+99999101831ADDGF103991999999999999999999
0029029720999991902090306004+60450+022267FM-12+001499999V0200501N001019999999N0000001N9+00721+99999101821ADDGF108991999999999999999999
0029029720999991902090220004+60450+022267FM-12+001499999V0203201N001019999999N0000001N9+00831+99999101541ADDGF100991999999999999999999
0029029720999991902090213004+60450+022267FM-12+001499999V0203201N006719999999N0000001N9+01611+99999101381ADDGF107991999999999999999999
0029029720999991902090206004+60450+022267FM-12+001499999V0209991C000019999999N0000001N9+01111+99999101151ADDGF108991999999999999999999
0029029720999991902090120004+60450+022267FM-12+001499999V0209991C000019999999N0000001N9+01111+99999100991ADDGF102991999999999999999999
0029029720999991902090113004+60450+022267FM-12+001499999V0201601N001019999999N0000001N9+01441+99999101061ADDGF108991999999999999999999
0029029720999991902090106004+60450+022267FM-12+001499999V0201401N009319999999N0000001N9+01061+99999101021ADDGF108991999999999999999999
0029029720999991902083120004+60450+022267FM-12+001499999V0201101N009319999999N0000001N9+01001+99999101191ADDGF108991999999999999999999
0029029720999991902083113004+60450+022267FM-12+001499999V0201401N009319999999N0000001N9+01501+99999101121ADDGF108991999999999999999999
0029029720999991902083106004+60450+022267FM-12+001499999V0200901N004619999999N0000001N9+01061+99999101231ADDGF108991999999999999999999
0029029720999991902083020004+60450+022267FM-12+001499999V02099999999999999999N0000001N9+00891+99999101321ADDGF100991999999999999999999
0029029720999991902083013004+60450+022267FM-12+001499999V0200701N006719999999N0000001N9+01281+99999101321ADDGF108991999999999999999999
0029029720999991902083006004+60450+022267FM-12+001499999V0200201N002619999999N0000001N9+00891+99999101261ADDGF108991999999999999999999
0029029720999991902082920004+60450+022267FM-12+001499999V0200501N001019999999N0000001N9+01061+99999101081ADDGF108991999999999999999999
0029029720999991902082913004+60450+022267FM-12+001499999V0200501N002619999999N0000001N9+01221+99999101081ADDGF108991999999999999999999
0029029720999991902082906004+60450+022267FM-12+001499999V0200501N009319999999N0000001N9+01281+99999101031ADDGF108991999999999999999999
0029029720999991902082820004+60450+022267FM-12+001499999V0200501N004619999999N0000001N9+01331+99999101271ADDGF108991999999999999999999
0029029720999991902082813004+60450+022267FM-12+001499999V0202301N006719999999N0000001N9+01721+99999101391ADDGF108991999999999999999999
0029029720999991902082806004+60450+022267FM-12+001499999V0200501N002619999999N0000001N9+01501+99999101551ADDGF106991999999999999999999
0029029720999991902082720004+60450+022267FM-12+001499999V0209991C000019999999N0000001N9+01281+99999101821ADDGF100991999999999999999999
0029029720999991902082713004+60450+022267FM-12+001499999V0200201N004619999999N0000001N9+01721+99999101601ADDGF102991999999999999999999
0029029720999991902082706004+60450+022267FM-12+001499999V0203201N002619999999N0000001N9+01331+99999101341ADDGF108991999999999999999999
0029029720999991902082620004+60450+022267FM-12+001499999V0202701N012319999999N0000001N9+01281+99999101041ADDGF108991999999999999999999
0029029720999991902082613004+60450+022267FM-12+001499999V0202301N012319999999N0000001N9+01281+99999100551ADDGF108991999999999999999999
0029029720999991902082606004+60450+022267FM-12+001499999V0209991C000019999999N0000001N9+01281+99999100321ADDGF108991999999999999999999
0029029720999991902082520004+60450+022267FM-12+001499999V0201401N009319999999N0000001N9+01331+99999101021ADDGF108991999999999999999999
0029029720999991902082513004+60450+022267FM-12+001499999V0201601N009319999999N0000001N9+01561+99999101351ADDGF108991999999999999999999
0029029720999991902082506004+60450+022267FM-12+001499999V0201801N002619999999N0000001N9+01281+99999101521ADDGF108991999999999999999999
0029029720999991902082420004+60450+022267FM-12+001499999V0201801N001019999999N0000001N9+01061+99999101601ADDGF100991999999999999999999
0029029720999991902082413004+60450+022267FM-12+001499999V0202301N012319999999N0000001N9+01721+99999101671ADDGF104991999999999999999999
0029029720999991902082406004+60450+022267FM-12+001499999V0202701N001019999999N0000001N9+01561+99999101591ADDGF100991999999999999999999
0029029720999991902082320004+60450+022267FM-12+001499999V0209991C000019999999N0000001N9+00781+99999101591ADDGF100991999999999999999999
0029029720999991902082313004+60450+022267FM-12+001499999V0202901N004619999999N0000001N9+01391+99999101521ADDGF108991999999999999999999
0029029720999991902082306004+60450+022267FM-12+001499999V0202701N006719999999N0000001N9+01061+99999101281ADDGF108991999999999999999999
0029029720999991902082220004+60450+022267FM-12+001499999V0202701N009319999999N0000001N9+01111+99999101001ADDGF108991999999999999999999
0029029720999991902082213004+60450+022267FM-12+001499999V0202701N012319999999N0000001N9+01221+99999100761ADDGF108991999999999999999999
0029029720999991902082206004+60450+022267FM-12+001499999V0202701N009319999999N0000001N9+01221+99999100481ADDGF108991999999999999999999
0029029720999991902082120004+60450+022267FM-12+001499999V0203201N004619999999N0000001N9+00891+99999100241ADDGF100991999999999999999999
0029029720999991902082113004+60450+022267FM-12+001499999V0203201N009319999999N0000001N9+01561+99999099841ADDGF106991999999999999999999
0029029720999991902082106004+60450+022267FM-12+001499999V0209991C000019999999N0000001N9+01331+99999099751ADDGF108991999999999999999999
0029029720999991902082020004+60450+022267FM-12+001499999V0201801N004619999999N0000001N9+01171+99999099821ADDGF100991999999999999999999
0029029720999991902082013004+60450+022267FM-12+001499999V0202301N012319999999N0000001N9+01561+99999099681ADDGF108991999999999999999999
0029029720999991902082006004+60450+022267FM-12+001499999V0201401N015419999999N0000001N9+01391+99999099421ADDGF108991999999999999999999
0029029720999991902081920004+60450+022267FM-12+001499999V0200901N004619999999N0000001N9+01441+99999100591ADDGF108991999999999999999999
0029029720999991902081913004+60450+022267FM-12+001499999V0201601N009319999999N0000001N9+01831+99999101031ADDGF108991999999999999999999
0029029720999991902081906004+60450+022267FM-12+001499999V0201401N006719999999N0000001N9+01561+99999101151ADDGF108991999999999999999999
0029029720999991902081820004+60450+022267FM-12+001499999V0202001N004619999999N0000001N9+01171+99999101121ADDGF100991999999999999999999
0029029720999991902081813004+60450+022267FM-12+001499999V0201801N009319999999N0000001N9+01611+99999100951ADDGF104991999999999999999999
0029029720999991902081806004+60450+022267FM-12+001499999V0200501N002619999999N0000001N9+01441+99999100741ADDGF101991999999999999999999
0029029720999991902081720004+60450+022267FM-12+001499999V0209991C000019999999N0000001N9+00891+99999100271ADDGF100991999999999999999999
0029029720999991902081713004+60450+022267FM-12+001499999V0202701N006719999999N0000001N9+01561+99999099951ADDGF100991999999999999999999
0029029720999991902081706004+60450+022267FM-12+001499999V0209991C000019999999N0000001N9+01391+99999099741ADDGF108991999999999999999999
0029029720999991902081620004+60450+022267FM-12+001499999V0202001N006719999999N0000001N9+01171+99999099581ADDGF108991999999999999999999
0029029720999991902081613004+60450+022267FM-12+001499999V0202301N012319999999N0000001N9+01331+99999099401ADDGF108991999999999999999999
0029029720999991902081606004+60450+022267FM-12+001499999V0202301N015419999999N0000001N9+01391+99999099041ADDGF108991999999999999999999
0029029720999991902081520004+60450+022267FM-12+001499999V0202701N009319999999N0000001N9+01221+99999099061ADDGF108991999999999999999999
0029029720999991902081513004+60450+022267FM-12+001499999V0203201N006719999999N0000001N9+01561+99999099221ADDGF108991999999999999999999
0029029720999991902081506004+60450+022267FM-12+001499999V0209991C000019999999N0000001N9+01061+99999099431ADDGF108991999999999999999999
0029029720999991902081420004+60450+022267FM-12+001499999V0201601N002619999999N0000001N9+01061+99999099791ADDGF100991999999999999999999
0029029720999991902081413004+60450+022267FM-12+001499999V0201801N009319999999N0000001N9+01611+99999099781ADDGF107991999999999999999999
0029029720999991902081406004+60450+022267FM-12+001499999V0201401N004619999999N0000001N9+01441+99999099621ADDGF108991999999999999999999
0029029720999991902081320004+60450+022267FM-12+001499999V0209991C000019999999N0000001N9+01061+99999099801ADDGF108991999999999999999999
0029029720999991902081313004+60450+022267FM-12+001499999V0209991C000019999999N0000001N9+01331+99999099961ADDGF108991999999999999999999
0029029720999991902081306004+60450+022267FM-12+001499999V0200901N004619999999N0000001N9+01331+99999100071ADDGF108991999999999999999999
0029029720999991902081220004+60450+022267FM-12+001499999V0201401N006719999999N0000001N9+01111+99999100201ADDGF102991999999999999999999
0029029720999991902081213004+60450+022267FM-12+001499999V0201801N015419999999N0000001N9+01441+99999100121ADDGF108991999999999999999999
0029029720999991902081206004+60450+022267FM-12+001499999V0201401N009319999999N0000001N9+01281+99999100021ADDGF108991999999999999999999
0029029720999991902081120004+60450+022267FM-12+001499999V0201801N009319999999N0000001N9+01171+99999099901ADDGF108991999999999999999999
0029029720999991902081113004+60450+022267FM-12+001499999V0201401N004619999999N0000001N9+01281+99999100021ADDGF108991999999999999999999
0029029720999991902081106004+60450+022267FM-12+001499999V0201601N012319999999N0000001N9+01391+99999100031ADDGF107991999999999999999999
0029029720999991902081020004+60450+022267FM-12+001499999V0201801N009319999999N0000001N9+01281+99999099951ADDGF108991999999999999999999
0029029720999991902081013004+60450+022267FM-12+001499999V0201801N012319999999N0000001N9+01441+99999099961ADDGF108991999999999999999999
0029029720999991902081006004+60450+022267FM-12+001499999V0201401N009319999999N0000001N9+01611+99999099941ADDGF100991999999999999999999
0029029720999991902080920004+60450+022267FM-12+001499999V0200901N009319999999N0000001N9+01331+99999099841ADDGF108991999999999999999999
0029029720999991902080913004+60450+022267FM-12+001499999V0201101N009319999999N0000001N9+01781+99999100441ADDGF108991999999999999999999
0029029720999991902080906004+60450+022267FM-12+001499999V0200901N002619999999N0000001N9+01721+99999100591ADDGF101991999999999999999999
0029029720999991902080820004+60450+022267FM-12+001499999V0209991C000019999999N0000001N9+01331+99999100591ADDGF101991999999999999999999
0029029720999991902080813004+60450+022267FM-12+001499999V0202301N006719999999N0000001N9+01941+99999100501ADDGF103991999999999999999999
0029029720999991902080806004+60450+022267FM-12+001499999V0209991C000019999999N0000001N9+01561+99999100551ADDGF101991999999999999999999
0029029720999991902080720004+60450+022267FM-12+001499999V0209991C000019999999N0000001N9+01221+99999100511ADDGF107991999999999999999999
0029029720999991902080713004+60450+022267FM-12+001499999V0202001N006719999999N0000001N9+01831+99999100551ADDGF106991999999999999999999
0029029720999991902080706004+60450+022267FM-12+001499999V0202301N004619999999N0000001N9+01391+99999100561ADDGF102991999999999999999999
0029029720999991902080620004+60450+022267FM-12+001499999V0201601N002619999999N0000001N9+01281+99999100511ADDGF102991999999999999999999
0029029720999991902080613004+60450+022267FM-12+001499999V0201601N009319999999N0000001N9+01781+99999100471ADDGF103991999999999999999999
0029029720999991902080606004+60450+022267FM-12+001499999V0201601N002619999999N0000001N9+01281+99999100441ADDGF108991999999999999999999
0029029720999991902080520004+60450+022267FM-12+001499999V0201601N004619999999N0000001N9+01171+99999100561ADDGF107991999999999999999999
0029029720999991902080513004+60450+022267FM-12+001499999V0201801N009319999999N0000001N9+01721+99999100501ADDGF102991999999999999999999
0029029720999991902080506004+60450+022267FM-12+001499999V0201801N004619999999N0000001N9+01611+99999100481ADDGF105991999999999999999999
0029029720999991902080420004+60450+022267FM-12+001499999V0203201N002619999999N0000001N9+01281+99999100561ADDGF108991999999999999999999
0029029720999991902080413004+60450+022267FM-12+001499999V0202001N004619999999N0000001N9+01781+99999100521ADDGF108991999999999999999999
0029029720999991902080406004+60450+022267FM-12+001499999V0209991C000019999999N0000001N9+01441+99999100661ADDGF108991999999999999999999
0029029720999991902080320004+60450+022267FM-12+001499999V0209991C000019999999N0000001N9+01611+99999100751ADDGF107991999999999999999999
0029029720999991902080313004+60450+022267FM-12+001499999V0200501N001019999999N0000001N9+02061+99999100791ADDGF105991999999999999999999
0029029720999991902080306004+60450+022267FM-12+001499999V0203601N004619999999N0000001N9+01721+99999100871ADDGF101991999999999999999999
0029029720999991902080220004+60450+022267FM-12+001499999V0203201N004619999999N0000001N9+01221+99999100871ADDGF100991999999999999999999
0029029720999991902080213004+60450+022267FM-12+001499999V0203201N009319999999N0000001N9+02001+99999100751ADDGF102991999999999999999999
0029029720999991902080206004+60450+022267FM-12+001499999V0203201N001019999999N0000001N9+01671+99999100741ADDGF100991999999999999999999
0029029720999991902080120004+60450+022267FM-12+001499999V0203201N006719999999N0000001N9+01281+99999100631ADDGF107991999999999999999999
0029029720999991902080113004+60450+022267FM-12+001499999V0203201N002619999999N0000001N9+01561+99999100601ADDGF108991999999999999999999
0029029720999991902080106004+60450+022267FM-12+001499999V0201801N002619999999N0000001N9+01391+99999100551ADDGF108991999999999999999999
0029029720999991902073120004+60450+022267FM-12+001499999V0209991C000019999999N0000001N9+01281+99999100671ADDGF108991999999999999999999
0029029720999991902073113004+60450+022267FM-12+001499999V0202301N012319999999N0000001N9+01671+99999100521ADDGF107991999999999999999999
0029029720999991902073106004+60450+022267FM-12+001499999V0209991C000019999999N0000001N9+01221+99999100461ADDGF108991999999999999999999
0029029720999991902073020004+60450+022267FM-12+001499999V0201601N002619999999N0000001N9+01171+99999100471ADDGF101991999999999999999999
0029029720999991902073013004+60450+022267FM-12+001499999V0201801N009319999999N0000001N9+01611+99999100431ADDGF108991999999999999999999
0029029720999991902073006004+60450+022267FM-12+001499999V0202301N006719999999N0000001N9+01611+99999100231ADDGF101991999999999999999999
0029029720999991902072920004+60450+022267FM-12+001499999V0202701N009319999999N0000001N9+01171+99999099951ADDGF108991999999999999999999
0029029720999991902072913004+60450+022267FM-12+001499999V0201801N012319999999N0000001N9+01441+99999099751ADDGF108991999999999999999999
0029029720999991902072906004+60450+022267FM-12+001499999V0202001N019019999999N0000001N9+01391+99999099541ADDGF108991999999999999999999
0029029720999991902072820004+60450+022267FM-12+001499999V0202001N009319999999N0000001N9+01281+99999099641ADDGF108991999999999999999999
0029029720999991902072813004+60450+022267FM-12+001499999V0202001N019019999999N0000001N9+01671+99999099601ADDGF107991999999999999999999
0029029720999991902072806004+60450+022267FM-12+001499999V0201801N009319999999N0000001N9+01561+99999099551ADDGF108991999999999999999999
0029029720999991902072720004+60450+022267FM-12+001499999V0201101N009319999999N0000001N9+01561+99999099601ADDGF108991999999999999999999
0029029720999991902072713004+60450+022267FM-12+001499999V0200901N012319999999N0000001N9+01501+99999100461ADDGF108991999999999999999999
0029029720999991902072706004+60450+022267FM-12+001499999V0201801N006719999999N0000001N9+01671+99999100881ADDGF101991999999999999999999
0029029720999991902072620004+60450+022267FM-12+001499999V0202001N002619999999N0000001N9+01281+99999101111ADDGF101991999999999999999999
0029029720999991902072613004+60450+022267FM-12+001499999V0202501N012319999999N0000001N9+01781+99999101061ADDGF100991999999999999999999
0029029720999991902072606004+60450+022267FM-12+001499999V0201801N006719999999N0000001N9+01831+99999101021ADDGF108991999999999999999999
0029029720999991902072520004+60450+022267FM-12+001499999V0201801N006719999999N0000001N9+01331+99999100951ADDGF100991999999999999999999
0029029720999991902072513004+60450+022267FM-12+001499999V0202501N006719999999N0000001N9+01831+99999100981ADDGF101991999999999999999999
0029029720999991902072506004+60450+022267FM-12+001499999V0209991C000019999999N0000001N9+01331+99999100951ADDGF108991999999999999999999
0029029720999991902072420004+60450+022267FM-12+001499999V0202001N001019999999N0000001N9+01221+99999101001ADDGF108991999999999999999999
0029029720999991902072413004+60450+022267FM-12+001499999V0202001N004619999999N0000001N9+01721+99999100941ADDGF108991999999999999999999
0029029720999991902072406004+60450+022267FM-12+001499999V0201401N002619999999N0000001N9+01331+99999100911ADDGF108991999999999999999999
0029029720999991902072320004+60450+022267FM-12+001499999V0202301N002619999999N0000001N9+01331+99999100781ADDGF100991999999999999999999
0029029720999991902072313004+60450+022267FM-12+001499999V0202301N006719999999N0000001N9+01831+99999100641ADDGF108991999999999999999999
0029029720999991902072306004+60450+022267FM-12+001499999V0203601N004619999999N0000001N9+01391+99999100581ADDGF108991999999999999999999
0029029720999991902072220004+60450+022267FM-12+001499999V0202701N002619999999N0000001N9+01441+99999100521ADDGF107991999999999999999999
0029029720999991902072213004+60450+022267FM-12+001499999V0202001N006719999999N0000001N9+01941+99999100591ADDGF104991999999999999999999
0029029720999991902072206004+60450+022267FM-12+001499999V0201801N006719999999N0000001N9+01441+99999100621ADDGF108991999999999999999999
0029029720999991902072120004+60450+022267FM-12+001499999V0201601N004619999999N0000001N9+01221+99999100551ADDGF100991999999999999999999
0029029720999991902072113004+60450+022267FM-12+001499999V0201801N012319999999N0000001N9+01561+99999100481ADDGF108991999999999999999999
0029029720999991902072106004+60450+022267FM-12+001499999V0201601N009319999999N0000001N9+01331+99999100311ADDGF108991999999999999999999
0029029720999991902072020004+60450+022267FM-12+001499999V0201801N004619999999N0000001N9+01281+99999100351ADDGF108991999999999999999999
0029029720999991902072013004+60450+022267FM-12+001499999V0202701N009319999999N0000001N9+01331+99999999999ADDGF108991999999999999999999
0029029720999991902072006004+60450+022267FM-12+001499999V0202501N006719999999N0000001N9+01671+99999099801ADDGF108991999999999999999999
0029029720999991902071920004+60450+022267FM-12+001499999V0202501N009319999999N0000001N9+01391+99999099991ADDGF106991999999999999999999
0000029720999991902071913004+60450+022267FM-12+001499999V0202301N006719999999N0000001N9+02171+99999100101
0029029720999991902071906004+60450+022267FM-12+001499999V0209991C000019999999N0000001N9+01671+99999100181ADDGF108991999999999999999999
0029029720999991902071820004+60450+022267FM-12+001499999V0209991C000019999999N0000001N9+01501+99999100301ADDGF104991999999999999999999
0029029720999991902071813004+60450+022267FM-12+001499999V0202701N009319999999N0000001N9+02171+99999100351ADDGF107991999999999999999999
0029029720999991902071806004+60450+022267FM-12+001499999V0209991C000019999999N0000001N9+01331+99999100471ADDGF108991999999999999999999
0029029720999991902071720004+60450+022267FM-12+001499999V0203201N002619999999N0000001N9+01331+99999100461ADDGF108991999999999999999999
0029029720999991902071713004+60450+022267FM-12+001499999V0203601N002619999999N0000001N9+01721+99999100541ADDGF108991999999999999999999
0029029720999991902071706004+60450+022267FM-12+001499999V0203201N004619999999N0000001N9+01221+99999100471ADDGF108991999999999999999999
0029029720999991902071620004+60450+022267FM-12+001499999V0200701N004619999999N0000001N9+01171+99999100501ADDGF108991999999999999999999
0029029720999991902071613004+60450+022267FM-12+001499999V0203401N012319999999N0000001N9+01941+99999100521ADDGF108991999999999999999999
0029029720999991902071606004+60450+022267FM-12+001499999V0203201N002619999999N0000001N9+01391+99999100761ADDGF100991999999999999999999
0029029720999991902071520004+60450+022267FM-12+001499999V0203201N006719999999N0000001N9+01221+99999101041ADDGF100991999999999999999999
0029029720999991902071513004+60450+022267FM-12+001499999V0203201N009319999999N0000001N9+01831+99999101001ADDGF103991999999999999999999
0029029720999991902071506004+60450+022267FM-12+001499999V0203201N006719999999N0000001N9+01221+99999101001ADDGF104991999999999999999999
0029029720999991902071420004+60450+022267FM-12+001499999V0203401N006719999999N0000001N9+01111+99999100551ADDGF108991999999999999999999
0029029720999991902071413004+60450+022267FM-12+001499999V0201801N002619999999N0000001N9+01221+99999100441ADDGF108991999999999999999999
0029029720999991902071406004+60450+022267FM-12+001499999V0201801N015419999999N0000001N9+01111+99999100421ADDGF108991999999999999999999
0029029720999991902071320004+60450+022267FM-12+001499999V0201601N009319999999N0000001N9+01171+99999100661ADDGF108991999999999999999999
0029029720999991902071313004+60450+022267FM-12+001499999V0202701N009319999999N0000001N9+01561+99999100661ADDGF105991999999999999999999
0029029720999991902071306004+60450+022267FM-12+001499999V0202701N006719999999N0000001N9+01221+99999100101ADDGF106991999999999999999999
0029029720999991902071220004+60450+022267FM-12+001499999V0202701N002619999999N0000001N9+01221+99999099321ADDGF108991999999999999999999
0029029720999991902071213004+60450+022267FM-12+001499999V0203201N002619999999N0000001N9+01331+99999099161ADDGF108991999999999999999999
0029029720999991902071206004+60450+022267FM-12+001499999V0200201N004619999999N0000001N9+01221+99999099191ADDGF108991999999999999999999
0029029720999991902071120004+60450+022267FM-12+001499999V0200501N002619999999N0000001N9+01221+99999099551ADDGF108991999999999999999999
0029029720999991902071113004+60450+022267FM-12+001499999V0200701N009319999999N0000001N9+01171+99999099511ADDGF108991999999999999999999
0029029720999991902071106004+60450+022267FM-12+001499999V0200501N012319999999N0000001N9+01221+99999099391ADDGF108991999999999999999999
0029029720999991902071020004+60450+022267FM-12+001499999V0209991C000019999999N0000001N9+01171+99999099841ADDGF107991999999999999999999
0029029720999991902071013004+60450+022267FM-12+001499999V0201801N004619999999N0000001N9+01441+99999099981ADDGF108991999999999999999999
0029029720999991902071006004+60450+022267FM-12+001499999V0200701N004619999999N0000001N9+01561+99999100111ADDGF106991999999999999999999
0029029720999991902070920004+60450+022267FM-12+001499999V0209991C000019999999N0000001N9+01111+99999100141ADDGF108991999999999999999999
0029029720999991902070913004+60450+022267FM-12+001499999V0200501N001019999999N0000001N9+01441+99999100031ADDGF108991999999999999999999
0029029720999991902070906004+60450+022267FM-12+001499999V0200701N004619999999N0000001N9+01061+99999099951ADDGF108991999999999999999999
0029029720999991902070820004+60450+022267FM-12+001499999V0203201N009319999999N0000001N9+00941+99999100041ADDGF103991999999999999999999
0029029720999991902070813004+60450+022267FM-12+001499999V0203201N012319999999N0000001N9+01831+99999099951ADDGF102991999999999999999999
0029029720999991902070806004+60450+022267FM-12+001499999V0202901N002619999999N0000001N9+01221+99999099951ADDGF108991999999999999999999
0029029720999991902070720004+60450+022267FM-12+001499999V0202901N004619999999N0000001N9+01171+99999100231ADDGF102991999999999999999999
0029029720999991902070713004+60450+022267FM-12+001499999V0202901N006719999999N0000001N9+01721+99999100391ADDGF107991999999999999999999
0029029720999991902070706004+60450+022267FM-12+001499999V0202701N006719999999N0000001N9+01391+99999100551ADDGF108991999999999999999999
0029029720999991902070620004+60450+022267FM-12+001499999V0203201N004619999999N0000001N9+01331+99999100701ADDGF102991999999999999999999
0029029720999991902070613004+60450+022267FM-12+001499999V0203601N006719999999N0000001N9+01781+99999100421ADDGF108991999999999999999999
0029029720999991902070606004+60450+022267FM-12+001499999V0200701N002619999999N0000001N9+01281+99999100161ADDGF108991999999999999999999
0029029720999991902070520004+60450+022267FM-12+001499999V0200901N004619999999N0000001N9+01111+99999099911ADDGF108991999999999999999999
0029029720999991902070513004+60450+022267FM-12+001499999V0201801N009319999999N0000001N9+01221+99999100071ADDGF108991999999999999999999
0029029720999991902070506004+60450+022267FM-12+001499999V0201401N012319999999N0000001N9+01221+99999100311ADDGF108991999999999999999999
0029029720999991902070420004+60450+022267FM-12+001499999V0201801N001019999999N0000001N9+01281+99999100961ADDGF100991999999999999999999
0029029720999991902070413004+60450+022267FM-12+001499999V0202301N009319999999N0000001N9+01891+99999101191ADDGF107991999999999999999999
0029029720999991902070406004+60450+022267FM-12+001499999V0203201N004619999999N0000001N9+01611+99999100981ADDGF101991999999999999999999
0029029720999991902070320004+60450+022267FM-12+001499999V0203201N009319999999N0000001N9+00941+99999101001ADDGF101991999999999999999999
0029029720999991902070313004+60450+022267FM-12+001499999V0203201N012319999999N0000001N9+01501+99999100631ADDGF100991999999999999999999
0029029720999991902070306004+60450+022267FM-12+001499999V0203601N015419999999N0000001N9+01501+99999100471ADDGF100991999999999999999999
0029029720999991902070220004+60450+022267FM-12+001499999V0203401N009319999999N0000001N9+01111+99999099991ADDGF108991999999999999999999
0029029720999991902070213004+60450+022267FM-12+001499999V0203601N006719999999N0000001N9+01611+99999099601ADDGF108991999999999999999999
0029029720999991902070206004+60450+022267FM-12+001499999V0203601N002619999999N0000001N9+00891+99999099431ADDGF108991999999999999999999
0029029720999991902070120004+60450+022267FM-12+001499999V0209991C000019999999N0000001N9+01281+99999099601ADDGF108991999999999999999999
0029029720999991902070113004+60450+022267FM-12+001499999V0201801N015419999999N0000001N9+01391+99999099901ADDGF108991999999999999999999
0029029720999991902070106004+60450+022267FM-12+001499999V0201401N012319999999N0000001N9+01611+99999100151ADDGF102991999999999999999999
0029029720999991902063020004+60450+022267FM-12+001499999V0202301N004619999999N0000001N9+01061+99999101001ADDGF101991999999999999999999
0029029720999991902063013004+60450+022267FM-12+001499999V0202701N015419999999N0000001N9+01501+99999101071ADDGF101991999999999999999999
0029029720999991902063006004+60450+022267FM-12+001499999V0203201N009319999999N0000001N9+01501+99999101031ADDGF100991999999999999999999
0029029720999991902062920004+60450+022267FM-12+001499999V0203201N009319999999N0000001N9+01221+99999100921ADDGF100991999999999999999999
0029029720999991902062913004+60450+022267FM-12+001499999V0203201N019019999999N0000001N9+01721+99999100601ADDGF100991999999999999999999
0029029720999991902062906004+60450+022267FM-12+001499999V0203201N009319999999N0000001N9+01501+99999100391ADDGF100991999999999999999999
0029029720999991902062820004+60450+022267FM-12+001499999V0202701N004619999999N0000001N9+01721+99999100501ADDGF108991999999999999999999
0029029720999991902062813004+60450+022267FM-12+001499999V0202301N009319999999N0000001N9+02281+99999100901ADDGF107991999999999999999999
0029029720999991902062806004+60450+022267FM-12+001499999V0201801N006719999999N0000001N9+01611+99999101281ADDGF100991999999999999999999
0029029720999991902062720004+60450+022267FM-12+001499999V0203201N001019999999N0000001N9+01331+99999101761ADDGF106991999999999999999999
0029029720999991902062713004+60450+022267FM-12+001499999V0202701N006719999999N0000001N9+01671+99999101871ADDGF108991999999999999999999
0029029720999991902062706004+60450+022267FM-12+001499999V0200201N006719999999N0000001N9+01281+99999101901ADDGF106991999999999999999999
0029029720999991902062620004+60450+022267FM-12+001499999V0203201N006719999999N0000001N9+01441+99999101841ADDGF108991999999999999999999
0029029720999991902062613004+60450+022267FM-12+001499999V0200201N006719999999N0000001N9+02001+99999101911ADDGF102991999999999999999999
0029029720999991902062606004+60450+022267FM-12+001499999V0203601N006719999999N0000001N9+01611+99999102061ADDGF100991999999999999999999
0029029720999991902062520004+60450+022267FM-12+001499999V0203201N006719999999N0000001N9+01331+99999101841ADDGF100991999999999999999999
0029029720999991902062513004+60450+022267FM-12+001499999V0202301N009319999999N0000001N9+01891+99999101821ADDGF100991999999999999999999
0029029720999991902062506004+60450+022267FM-12+001499999V0200201N002619999999N0000001N9+01721+99999101921ADDGF100991999999999999999999
0029029720999991902062420004+60450+022267FM-12+001499999V0209991C000019999999N0000001N9+01391+99999101621ADDGF100991999999999999999999
0029029720999991902062413004+60450+022267FM-12+001499999V0200501N012319999999N0000001N9+01721+99999101351ADDGF108991999999999999999999
0029029720999991902062406004+60450+022267FM-12+001499999V0200201N009319999999N0000001N9+01721+99999101261ADDGF106991999999999999999999
0029029720999991902062320004+60450+022267FM-12+001499999V0200201N004619999999N0000001N9+01391+99999101021ADDGF107991999999999999999999
0029029720999991902062313004+60450+022267FM-12+001499999V0200501N012319999999N0000001N9+01781+99999100711ADDGF108991999999999999999999
0029029720999991902062306004+60450+022267FM-12+001499999V0200201N009319999999N0000001N9+01001+99999100541ADDGF108991999999999999999999
0029029720999991902062220004+60450+022267FM-12+001499999V0200201N012319999999N0000001N9+01331+99999100681ADDGF108991999999999999999999
0029029720999991902062213004+60450+022267FM-12+001499999V0200701N006719999999N0000001N9+01831+99999100621ADDGF108991999999999999999999
0029029720999991902062206004+60450+022267FM-12+001499999V0200201N004619999999N0000001N9+01501+99999100481ADDGF108991999999999999999999
0029029720999991902062120004+60450+022267FM-12+001499999V0200501N006719999999N0000001N9+01391+99999100521ADDGF108991999999999999999999
0029029720999991902062113004+60450+022267FM-12+001499999V0200501N009319999999N0000001N9+01781+99999100541ADDGF108991999999999999999999
0029029720999991902062106004+60450+022267FM-12+001499999V0200201N012319999999N0000001N9+01721+99999100741ADDGF108991999999999999999999
0029029720999991902062020004+60450+022267FM-12+001499999V0201601N001019999999N0000001N9+01611+99999100991ADDGF108991999999999999999999
0029029720999991902062013004+60450+022267FM-12+001499999V0200701N006719999999N0000001N9+02061+99999101031ADDGF102991999999999999999999
0029029720999991902062006004+60450+022267FM-12+001499999V0200901N009319999999N0000001N9+01721+99999101261ADDGF108991999999999999999999
0029029720999991902061920004+60450+022267FM-12+001499999V0202701N001019999999N0000001N9+01331+99999101421ADDGF107991999999999999999999
0029029720999991902061913004+60450+022267FM-12+001499999V0202501N009319999999N0000001N9+01721+99999101501ADDGF101991999999999999999999
0029029720999991902061906004+60450+022267FM-12+001499999V0202001N006719999999N0000001N9+01561+99999101551ADDGF100991999999999999999999
0029029720999991902061820004+60450+022267FM-12+001499999V0202301N002619999999N0000001N9+01001+99999101341ADDGF101991999999999999999999
0029029720999991902061813004+60450+022267FM-12+001499999V0202501N012319999999N0000001N9+01501+99999101151ADDGF100991999999999999999999
0029029720999991902061806004+60450+022267FM-12+001499999V0203201N012319999999N0000001N9+01281+99999101021ADDGF108991999999999999999999
0029029720999991902061720004+60450+022267FM-12+001499999V0209991C000019999999N0000001N9+00891+99999100561ADDGF108991999999999999999999
0029029720999991902061713004+60450+022267FM-12+001499999V0203601N009319999999N0000001N9+00891+99999100191ADDGF108991999999999999999999
0029029720999991902061706004+60450+022267FM-12+001499999V0209991C000019999999N0000001N9+01061+99999099841ADDGF108991999999999999999999
0029029720999991902061620004+60450+022267FM-12+001499999V0209991C000019999999N0000001N9+01061+99999099991ADDGF108991999999999999999999
0029029720999991902061613004+60450+022267FM-12+001499999V0209991C000019999999N0000001N9+00891+99999099981ADDGF108991999999999999999999
0029029720999991902061606004+60450+022267FM-12+001499999V0201401N001019999999N0000001N9+01061+99999099801ADDGF108991999999999999999999
0029029720999991902061520004+60450+022267FM-12+001499999V0201401N004619999999N0000001N9+01061+99999099591ADDGF108991999999999999999999
0029029720999991902061513004+60450+022267FM-12+001499999V0201601N006719999999N0000001N9+01281+99999099461ADDGF108991999999999999999999
0029029720999991902061506004+60450+022267FM-12+001499999V0200201N012319999999N0000001N9+01391+99999099341ADDGF108991999999999999999999
0029029720999991902061420004+60450+022267FM-12+001499999V0200201N015419999999N0000001N9+01111+99999100361ADDGF108991999999999999999999
0029029720999991902061413004+60450+022267FM-12+001499999V0203601N006719999999N0000001N9+01331+99999100841ADDGF108991999999999999999999
0029029720999991902061406004+60450+022267FM-12+001499999V0200201N002619999999N0000001N9+01501+99999101041ADDGF108991999999999999999999
0000029720999991902061320004+60450+022267FM-12+001499999V0203601N015419999999N0000001N9+01281+99999101231
0029029720999991902061313004+60450+022267FM-12+001499999V0202501N006719999999N0000001N9+01721+99999101271ADDGF101991999999999999999999
0029029720999991902061306004+60450+022267FM-12+001499999V0201801N006719999999N0000001N9+01501+99999101301ADDGF100991999999999999999999
0029029720999991902061220004+60450+022267FM-12+001499999V0201801N001019999999N0000001N9+01001+99999101111ADDGF100991999999999999999999
0029029720999991902061213004+60450+022267FM-12+001499999V0202701N004619999999N0000001N9+01441+99999101021ADDGF100991999999999999999999
0029029720999991902061206004+60450+022267FM-12+001499999V0202501N001019999999N0000001N9+01111+99999100701ADDGF104991999999999999999999
0029029720999991902061120004+60450+022267FM-12+001499999V0202301N006719999999N0000001N9+00611+99999100121ADDGF108991999999999999999999
0029029720999991902061113004+60450+022267FM-12+001499999V0209991C000019999999N0000001N9+00831+99999999999ADDGF108991999999999999999999
0029029720999991902061106004+60450+022267FM-12+001499999V0200901N004619999999N0000001N9+00561+99999100081ADDGF108991999999999999999999
0029029720999991902061020004+60450+022267FM-12+001499999V0202301N004619999999N0000001N9+00671+99999100181ADDGF102991999999999999999999
0029029720999991902061013004+60450+022267FM-12+001499999V0202501N012319999999N0000001N9+00781+99999099831ADDGF108991999999999999999999
0029029720999991902061006004+60450+022267FM-12+001499999V0202501N015419999999N0000001N9+00721+99999099101ADDGF108991999999999999999999
0029029720999991902060920004+60450+022267FM-12+001499999V0201401N006719999999N0000001N9+00781+99999099111ADDGF108991999999999999999999
0029029720999991902060913004+60450+022267FM-12+001499999V0200501N012319999999N0000001N9+00671+99999099421ADDGF108991999999999999999999
0029029720999991902060906004+60450+022267FM-12+001499999V0200501N015419999999N0000001N9+01061+99999099601ADDGF108991999999999999999999
0029029720999991902060820004+60450+022267FM-12+001499999V0209991C000019999999N0000001N9+01111+99999100101ADDGF100991999999999999999999
0029029720999991902060813004+60450+022267FM-12+001499999V0202301N006719999999N0000001N9+01501+99999100101ADDGF107991999999999999999999
0029029720999991902060806004+60450+022267FM-12+001499999V0201101N009319999999N0000001N9+00941+99999100071ADDGF100991999999999999999999
0029029720999991902060720004+60450+022267FM-12+001499999V0209991C000019999999N0000001N9+00781+99999100241ADDGF108991999999999999999999
0029029720999991902060713004+60450+022267FM-12+001499999V0201801N012319999999N0000001N9+01061+99999100261ADDGF108991999999999999999999
0029029720999991902060706004+60450+022267FM-12+001499999V0200901N009319999999N0000001N9+00941+99999100111ADDGF100991999999999999999999
0029029720999991902060620004+60450+022267FM-12+001499999V0200201N006719999999N0000001N9+01001+99999099981ADDGF108991999999999999999999
0029029720999991902060613004+60450+022267FM-12+001499999V0203601N006719999999N0000001N9+01391+99999100181ADDGF108991999999999999999999
0029029720999991902060606004+60450+022267FM-12+001499999V0200201N006719999999N0000001N9+01501+99999100281ADDGF108991999999999999999999
0029029720999991902060520004+60450+022267FM-12+001499999V0203401N009319999999N0000001N9+01171+99999100391ADDGF100991999999999999999999
0029029720999991902060513004+60450+022267FM-12+001499999V0203201N012319999999N0000001N9+01611+99999100311ADDGF102991999999999999999999
0029029720999991902060506004+60450+022267FM-12+001499999V0203201N012319999999N0000001N9+01441+99999100471ADDGF107991999999999999999999
0029029720999991902060420004+60450+022267FM-12+001499999V0202301N009319999999N0000001N9+01331+99999101241ADDGF103991999999999999999999
0029029720999991902060413004+60450+022267FM-12+001499999V0203201N009319999999N0000001N9+01891+99999101871ADDGF100991999999999999999999
0029029720999991902060406004+60450+022267FM-12+001499999V0209991C000019999999N0000001N9+02001+99999102201ADDGF100991999999999999999999
0029029720999991902060320004+60450+022267FM-12+001499999V0203201N009319999999N0000001N9+01171+99999102141ADDGF100991999999999999999999
0029029720999991902060313004+60450+022267FM-12+001499999V0203201N015419999999N0000001N9+01831+99999101911ADDGF100991999999999999999999
0029029720999991902060306004+60450+022267FM-12+001499999V0202001N009319999999N0000001N9+01441+99999102101ADDGF100991999999999999999999
0029029720999991902060220004+60450+022267FM-12+001499999V0203201N001019999999N0000001N9+01001+99999102421ADDGF100991999999999999999999
0029029720999991902060213004+60450+022267FM-12+001499999V0203201N004619999999N0000001N9+01561+99999102381ADDGF100991999999999999999999
0029029720999991902060206004+60450+022267FM-12+001499999V0209991C000019999999N0000001N9+01111+99999102381ADDGF100991999999999999999999
0029029720999991902060120004+60450+022267FM-12+001499999V0209991C000019999999N0000001N9+00891+99999101941ADDGF108991999999999999999999
0029029720999991902060113004+60450+022267FM-12+001499999V0200201N012319999999N0000001N9+00721+99999101701ADDGF108991999999999999999999
0029029720999991902060106004+60450+022267FM-12+001499999V0203401N004619999999N0000001N9+01501+99999101511ADDGF101991999999999999999999
0029029720999991902053120004+60450+022267FM-12+001499999V0201401N006719999999N0000001N9+01391+99999101581ADDGF101991999999999999999999
0029029720999991902053113004+60450+022267FM-12+001499999V0201101N012319999999N0000001N9+02111+99999101761ADDGF106991999999999999999999
0029029720999991902053106004+60450+022267FM-12+001499999V0200201N009319999999N0000001N9+01111+99999102181ADDGF108991999999999999999999
0029029720999991902053020004+60450+022267FM-12+001499999V0209991C000019999999N0000001N9+01331+99999102111ADDGF108991999999999999999999
0029029720999991902053013004+60450+022267FM-12+001499999V0202701N009319999999N0000001N9+01671+99999101861ADDGF108991999999999999999999
0029029720999991902053006004+60450+022267FM-12+001499999V0202301N004619999999N0000001N9+01611+99999101381ADDGF103991999999999999999999
0029029720999991902052920004+60450+022267FM-12+001499999V0209991C000019999999N0000001N9+01061+99999100781ADDGF102991999999999999999999
0029029720999991902052913004+60450+022267FM-12+001499999V0201601N012319999999N0000001N9+01561+99999100671ADDGF103991999999999999999999
0029029720999991902052906004+60450+022267FM-12+001499999V0201801N006719999999N0000001N9+01061+99999100501ADDGF108991999999999999999999
0029029720999991902052820004+60450+022267FM-12+001499999V0201801N006719999999N0000001N9+00891+99999100391ADDGF108991999999999999999999
0029029720999991902052813004+60450+022267FM-12+001499999V0202301N009319999999N0000001N9+01221+99999100241ADDGF108991999999999999999999
0029029720999991902052806004+60450+022267FM-12+001499999V0202301N009319999999N0000001N9+01171+99999099961ADDGF108991999999999999999999
0029029720999991902052720004+60450+022267FM-12+001499999V0201601N002619999999N0000001N9+00721+99999100021ADDGF108991999999999999999999
0029029720999991902052713004+60450+022267FM-12+001499999V0202001N012319999999N0000001N9+01391+99999100201ADDGF106991999999999999999999
0029029720999991902052706004+60450+022267FM-12+001499999V0202501N006719999999N0000001N9+01221+99999100071ADDGF100991999999999999999999
0029029720999991902052620004+60450+022267FM-12+001499999V0201801N004619999999N0000001N9+00671+99999099921ADDGF101991999999999999999999
0029029720999991902052613004+60450+022267FM-12+001499999V0202301N019019999999N0000001N9+01221+99999099881ADDGF102991999999999999999999
0029029720999991902052606004+60450+022267FM-12+001499999V0201601N012319999999N0000001N9+00671+99999099841ADDGF108991999999999999999999
0029029720999991902052520004+60450+022267FM-12+001499999V0201601N012319999999N0000001N9+00831+99999100751ADDGF108991999999999999999999
0029029720999991902052513004+60450+022267FM-12+001499999V0202501N009319999999N0000001N9+01501+99999101101ADDGF103991999999999999999999
0029029720999991902052506004+60450+022267FM-12+001499999V0209991C000019999999N0000001N9+01441+99999101181ADDGF100991999999999999999999
0029029720999991902052420004+60450+022267FM-12+001499999V0209991C000019999999N0000001N9+00831+99999100871ADDGF108991999999999999999999
0029029720999991902052413004+60450+022267FM-12+001499999V0202301N015419999999N0000001N9+01171+99999100901ADDGF108991999999999999999999
0029029720999991902052406004+60450+022267FM-12+001499999V0202501N002619999999N0000001N9+01111+99999101021ADDGF105991999999999999999999
0029029720999991902052320004+60450+022267FM-12+001499999V0209991C000019999999N0000001N9+01001+99999101231ADDGF100991999999999999999999
0029029720999991902052313004+60450+022267FM-12+001499999V0203401N012319999999N0000001N9+01331+99999101501ADDGF103991999999999999999999
0029029720999991902052306004+60450+022267FM-12+001499999V0200201N004619999999N0000001N9+01221+99999101761ADDGF100991999999999999999999
0029029720999991902052220004+60450+022267FM-12+001499999V0203601N006719999999N0000001N9+00941+99999101801ADDGF100991999999999999999999
0029029720999991902052213004+60450+022267FM-12+001499999V0203601N004619999999N0000001N9+01561+99999101631ADDGF106991999999999999999999
0029029720999991902052206004+60450+022267FM-12+001499999V0203201N001019999999N0000001N9+01501+99999101511ADDGF100991999999999999999999
0029029720999991902052120004+60450+022267FM-12+001499999V0202901N004619999999N0000001N9+00891+99999101271ADDGF100991999999999999999999
0029029720999991902052113004+60450+022267FM-12+001499999V0202501N012319999999N0000001N9+01501+99999100951ADDGF102991999999999999999999
0029029720999991902052106004+60450+022267FM-12+001499999V0209991C000019999999N0000001N9+00611+99999100661ADDGF100991999999999999999999
0029029720999991902052020004+60450+022267FM-12+001499999V0202501N002619999999N0000001N9+00721+99999100471ADDGF108991999999999999999999
0029029720999991902052013004+60450+022267FM-12+001499999V0201801N009319999999N0000001N9+01061+99999100351ADDGF108991999999999999999999
0029029720999991902052006004+60450+022267FM-12+001499999V0200501N012319999999N0000001N9+00891+99999100181ADDGF108991999999999999999999
0029029720999991902051920004+60450+022267FM-12+001499999V0200901N002619999999N0000001N9+00781+99999099911ADDGF105991999999999999999999
0029029720999991902051913004+60450+022267FM-12+001499999V0200901N019019999999N0000001N9+01501+99999099761ADDGF105991999999999999999999
0029029720999991902051906004+60450+022267FM-12+001499999V0200501N009319999999N0000001N9+01221+99999099721ADDGF101991999999999999999999
0029029720999991902051820004+60450+022267FM-12+001499999V0200501N009319999999N0000001N9+01171+99999099761ADDGF108991999999999999999999
0029029720999991902051813004+60450+022267FM-12+001499999V0201401N019019999999N0000001N9+01171+99999999999ADDGF108991999999999999999999
0029029720999991902051806004+60450+022267FM-12+001499999V0200901N012319999999N0000001N9+01221+99999099861ADDGF108991999999999999999999
0029029720999991902051720004+60450+022267FM-12+001499999V0200901N004619999999N0000001N9+00831+99999099941ADDGF108991999999999999999999
0029029720999991902051713004+60450+022267FM-12+001499999V0201401N009319999999N0000001N9+00941+99999099961ADDGF106991999999999999999999
0029029720999991902051706004+60450+022267FM-12+001499999V0203601N001019999999N0000001N9+00501+99999100071ADDGF108991999999999999999999
0029029720999991902051620004+60450+022267FM-12+001499999V0209991C000019999999N0000001N9+00331+99999100581ADDGF108991999999999999999999
0029029720999991902051613004+60450+022267FM-12+001499999V0202001N002619999999N0000001N9+00721+99999100591ADDGF108991999999999999999999
0029029720999991902051606004+60450+022267FM-12+001499999V0202501N009319999999N0000001N9+00331+99999100351ADDGF108991999999999999999999
0029029720999991902051520004+60450+022267FM-12+001499999V0200201N001019999999N0000001N9+00781+99999100601ADDGF108991999999999999999999
0029029720999991902051513004+60450+022267FM-12+001499999V0202701N002619999999N0000001N9+00941+99999100861ADDGF108991999999999999999999
0029029720999991902051506004+60450+022267FM-12+001499999V0209991C000019999999N0000001N9+00561+99999100701ADDGF108991999999999999999999
0029029720999991902051420004+60450+022267FM-12+001499999V0200901N012319999999N0000001N9+00441+99999100741ADDGF108991999999999999999999
0029029720999991902051413004+60450+022267FM-12+001499999V0201401N019019999999N0000001N9+00941+99999100831ADDGF108991999999999999999999
0029029720999991902051406004+60450+022267FM-12+001499999V0201101N009319999999N0000001N9+00941+99999100881ADDGF105991999999999999999999
0029029720999991902051320004+60450+022267FM-12+001499999V0202301N004619999999N0000001N9+00331+99999100901ADDGF100991999999999999999999
0029029720999991902051313004+60450+022267FM-12+001499999V0202701N006719999999N0000001N9+00891+99999100791ADDGF100991999999999999999999
0029029720999991902051306004+60450+022267FM-12+001499999V0209991C000019999999N0000001N9+00441+99999100741ADDGF101991999999999999999999
0029029720999991902051220004+60450+022267FM-12+001499999V0203201N004619999999N0000001N9+00391+99999100701ADDGF108991999999999999999999
0029029720999991902051213004+60450+022267FM-12+001499999V0202301N004619999999N0000001N9+00671+99999100641ADDGF108991999999999999999999
0029029720999991902051206004+60450+022267FM-12+001499999V0209991C000019999999N0000001N9+00501+99999100661ADDGF108991999999999999999999
0029029720999991902051120004+60450+022267FM-12+001499999V0203601N002619999999N0000001N9+00391+99999100601ADDGF108991999999999999999999
0029029720999991902051113004+60450+022267FM-12+001499999V0203601N006719999999N0000001N9+00501+99999100631ADDGF108991999999999999999999
0029029720999991902051106004+60450+022267FM-12+001499999V0203601N009319999999N0000001N9+00721+99999100711ADDGF102991999999999999999999
0029029720999991902051020004+60450+022267FM-12+001499999V0200501N002619999999N0000001N9+00331+99999101041ADDGF108991999999999999999999
0029029720999991902051013004+60450+022267FM-12+001499999V0200501N009319999999N0000001N9+00561+99999101161ADDGF108991999999999999999999
0029029720999991902051006004+60450+022267FM-12+001499999V0200501N009319999999N0000001N9+00281+99999101111ADDGF108991999999999999999999
0029029720999991902050920004+60450+022267FM-12+001499999V0200201N012319999999N0000001N9+00111+99999101321ADDGF108991999999999999999999
0029029720999991902050913004+60450+022267FM-12+001499999V0200201N012319999999N0000001N9+00441+99999101271ADDGF108991999999999999999999
0029029720999991902050906004+60450+022267FM-12+001499999V0200201N015419999999N0000001N9+00331+99999101021ADDGF108991999999999999999999
0029029720999991902050820004+60450+022267FM-12+001499999V0203601N012319999999N0000001N9+00061+99999100741ADDGF108991999999999999999999
0029029720999991902050813004+60450+022267FM-12+001499999V0200201N012319999999N0000001N9+00221+99999100481ADDGF108991999999999999999999
0029029720999991902050806004+60450+022267FM-12+001499999V0203601N012319999999N0000001N9+00111+99999100361ADDGF108991999999999999999999
0029029720999991902050720004+60450+022267FM-12+001499999V0203601N015419999999N0000001N9+00221+99999100721ADDGF108991999999999999999999
0029029720999991902050713004+60450+022267FM-12+001499999V0200501N015419999999N0000001N9+00561+99999100961ADDGF108991999999999999999999
0029029720999991902050706004+60450+022267FM-12+001499999V0200201N006719999999N0000001N9+00331+99999101101ADDGF108991999999999999999999
0029029720999991902050620004+60450+022267FM-12+001499999V0209991C000019999999N0000001N9+00561+99999101151ADDGF100991999999999999999999
0029029720999991902050613004+60450+022267FM-12+001499999V0200501N002619999999N0000001N9+00721+99999101031ADDGF108991999999999999999999
0029029720999991902050606004+60450+022267FM-12+001499999V0209991C000019999999N0000001N9+00501+99999100901ADDGF108991999999999999999999
0029029720999991902050520004+60450+022267FM-12+001499999V0209991C000019999999N0000001N9+00501+99999100711ADDGF107991999999999999999999
0029029720999991902050513004+60450+022267FM-12+001499999V0200201N004619999999N0000001N9+01221+99999100481ADDGF108991999999999999999999
0029029720999991902050506004+60450+022267FM-12+001499999V0209991C000019999999N0000001N9+00501+99999100461ADDGF108991999999999999999999
0029029720999991902050420004+60450+022267FM-12+001499999V0209991C000019999999N0000001N9+00671+99999100401ADDGF101991999999999999999999
0029029720999991902050413004+60450+022267FM-12+001499999V0200701N009319999999N0000001N9+01221+99999100321ADDGF108991999999999999999999
0029029720999991902050406004+60450+022267FM-12+001499999V0200501N002619999999N0000001N9+00561+99999100351ADDGF108991999999999999999999
0029029720999991902050320004+60450+022267FM-12+001499999V0202701N002619999999N0000001N9+00171+99999100471ADDGF108991999999999999999999
0029029720999991902050313004+60450+022267FM-12+001499999V0201801N001019999999N0000001N9+00831+99999100401ADDGF107991999999999999999999
0029029720999991902050306004+60450+022267FM-12+001499999V0209991C000019999999N0000001N9+00391+99999100241ADDGF108991999999999999999999
0029029720999991902050220004+60450+022267FM-12+001499999V0209991C000019999999N0000001N9+00391+99999100041ADDGF108991999999999999999999
0029029720999991902050213004+60450+022267FM-12+001499999V0201401N006719999999N0000001N9+00721+99999099871ADDGF108991999999999999999999
0029029720999991902050206004+60450+022267FM-12+001499999V0200701N006719999999N0000001N9+00171+99999099661ADDGF108991999999999999999999
0029029720999991902050120004+60450+022267FM-12+001499999V0202701N001019999999N0000001N9+00111+99999099791ADDGF106991999999999999999999
0029029720999991902050113004+60450+022267FM-12+001499999V0200701N001019999999N0000001N9+00721+99999099831ADDGF100991999999999999999999
0029029720999991902050106004+60450+022267FM-12+001499999V0209991C000019999999N0000001N9+00501+99999099921ADDGF101991999999999999999999
0029029720999991902043020004+60450+022267FM-12+001499999V0202701N002619999999N0000001N9+00111+99999100181ADDGF107991999999999999999999
0029029720999991902043013004+60450+022267FM-12+001499999V0202501N006719999999N0000001N9+00561+99999100471ADDGF108991999999999999999999
0029029720999991902043006004+60450+022267FM-12+001499999V0200501N001019999999N0000001N9+00281+99999100671ADDGF100991999999999999999999
0029029720999991902042920004+60450+022267FM-12+001499999V0202701N004619999999N0000001N9-00061+99999101031ADDGF100991999999999999999999
0029029720999991902042913004+60450+022267FM-12+001499999V0202501N006719999999N0000001N9+00441+99999101301ADDGF102991999999999999999999
