0029227070999991902010106004+62167+030650FM-12+010299999V0200701N002119999999N0000001N9-01561+99999100161ADDGF108991999999999999999999
0029227070999991902010113004+62167+030650FM-12+010299999V0200701N003119999999N0000001N9-01831+99999100141ADDGF102991999999999999999999
0029227070999991902010120004+62167+030650FM-12+010299999V0200501N004119999999N0000001N9-01831+99999099991ADDGF108991999999999999999999
0029227070999991902010206004+62167+030650FM-12+010299999V0200501N005119999999N0000001N9-01891+99999099321ADDGF107991999999999999999999
0029227070999991902010213004+62167+030650FM-12+010299999V0200901N006219999999N0000001N9-02221+99999099301ADDGF102991999999999999999999
0029227070999991902010220004+62167+030650FM-12+010299999V0200501N003119999999N0000001N9-02501+99999099631ADDGF100991999999999999999999
0029227070999991902010306004+62167+030650FM-12+010299999V0200701N003119999999N0000001N9-02561+99999099921ADDGF101991999999999999999999
0029227070999991902010313004+62167+030650FM-12+010299999V0200501N002119999999N0000001N9-02501+99999100221ADDGF101991999999999999999999
0029227070999991902010320004+62167+030650FM-12+010299999V0200501N003119999999N0000001N9-02781+99999100221ADDGF100991999999999999999999
0029227070999991902010406004+62167+030650FM-12+010299999V0200501N002119999999N0000001N9-03111+99999099711ADDGF100991999999999999999999
0029227070999991902010413004+62167+030650FM-12+010299999V0201401N005119999999N0000001N9-02281+99999098831ADDGF108991999999999999999999
0035227070999991902010420004+62167+030650FM-12+010299999V0201401N007219999999N0000001N9-01831+99999097871ADDGF108991999999999999999999MW1381
0029227070999991902010506004+62167+030650FM-12+010299999V0200901N003119999999N0000001N9-01501+99999097421ADDGF108991999999999999999999
0029227070999991902010513004+62167+030650FM-12+010299999V0201101N004119999999N0000001N9-01171+99999097521ADDGF108991999999999999999999
0029227070999991902010520004+62167+030650FM-12+010299999V0201401N003119999999N0000001N9-01281+99999097631ADDGF108991999999999999999999
0029227070999991902010606004+62167+030650FM-12+010299999V0200201N002119999999N0000001N9-01671+99999097991ADDGF108991999999999999999999
0029227070999991902010613004+62167+030650FM-12+010299999V0200201N003119999999N0000001N9-01671+99999098151ADDGF103991999999999999999999
0029227070999991902010620004+62167+030650FM-12+010299999V0200501N002119999999N0000001N9-01501+99999098311ADDGF108991999999999999999999
0029227070999991902010706004+62167+030650FM-12+010299999V0200201N003119999999N0000001N9-01501+99999099631ADDGF108991999999999999999999
0029227070999991902010713004+62167+030650FM-12+010299999V0201401N004119999999N0000001N9-01391+99999099391ADDGF108991999999999999999999
0029227070999991902010720004+62167+030650FM-12+010299999V0201401N005119999999N0000001N9-00831+99999098781ADDGF108991999999999999999999
0029227070999991902010806004+62167+030650FM-12+010299999V0202301N002119999999N0000001N9-00331+99999098281ADDGF101991999999999999999999
0029227070999991902010813004+62167+030650FM-12+010299999V0202301N002119999999N0000001N9-00561+99999098501ADDGF101991999999999999999999
0029227070999991902010820004+62167+030650FM-12+010299999V0202301N003119999999N0000001N9-00831+99999098421ADDGF102991999999999999999999
0029227070999991902010906004+62167+030650FM-12+010299999V0202701N006219999999N0000001N9-00501+99999098121ADDGF100991999999999999999999
0035227070999991902010913004+62167+030650FM-12+010299999V0202901N003119999999N0000001N9-00671+99999098641ADDGF100991999999999999999999MW1721
0029227070999991902010920004+62167+030650FM-12+010299999V0203201N002119999999N0000001N9-01221+99999098831ADDGF100991999999999999999999
0029227070999991902011006004+62167+030650FM-12+010299999V0202901N002119999999N0000001N9-01671+99999098581ADDGF104991999999999999999999
0035227070999991902011013004+62167+030650FM-12+010299999V0201101N006219999999N0000001N9-00561+99999097471ADDGF108991999999999999999999MW1721
0035227070999991902011020004+62167+030650FM-12+010299999V0201401N003119999999N0000001N9-00611+99999096831ADDGF108991999999999999999999MW1721
0035227070999991902011106004+62167+030650FM-12+010299999V0200201N004119999999N0000001N9-00831+99999096631ADDGF108991999999999999999999MW1721
0035227070999991902011113004+62167+030650FM-12+010299999V0203601N004119999999N0000001N9-01001+99999097181ADDGF108991999999999999999999MW1721
0029227070999991902011120004+62167+030650FM-12+010299999V0200201N005119999999N0000001N9-01001+99999097881ADDGF102991999999999999999999
0029227070999991902011206004+62167+030650FM-12+010299999V0203601N003119999999N0000001N9-01891+99999099241ADDGF103991999999999999999999
0029227070999991902011213004+62167+030650FM-12+010299999V0203601N005119999999N0000001N9-02001+99999099561ADDGF103991999999999999999999
0029227070999991902011220004+62167+030650FM-12+010299999V0203601N002119999999N0000001N9-02671+99999099521ADDGF100991999999999999999999
0029227070999991902011306004+62167+030650FM-12+010299999V0202301N003119999999N0000001N9-01781+99999099281ADDGF108991999999999999999999
0029227070999991902011313004+62167+030650FM-12+010299999V0201601N005119999999N0000001N9-01391+99999099151ADDGF108991999999999999999999
0029227070999991902011320004+62167+030650FM-12+010299999V0201601N004119999999N0000001N9-01781+99999099381ADDGF108991999999999999999999
0029227070999991902011406004+62167+030650FM-12+010299999V0201401N002119999999N0000001N9-02221+99999099511ADDGF102991999999999999999999
0029227070999991902011413004+62167+030650FM-12+010299999V0201401N002119999999N0000001N9-02001+99999099781ADDGF103991999999999999999999
0029227070999991902011420004+62167+030650FM-12+010299999V0201401N003119999999N0000001N9-02331+99999100071ADDGF108991999999999999999999
0029227070999991902011506004+62167+030650FM-12+010299999V0201101N002119999999N0000001N9-02391+99999100681ADDGF100991999999999999999999
0029227070999991902011513004+62167+030650FM-12+010299999V0201401N001019999999N0000001N9-02441+99999100871ADDGF100991999999999999999999
0029227070999991902011520004+62167+030650FM-12+010299999V0201401N002119999999N0000001N9-02831+99999099471ADDGF100991999999999999999999
0035227070999991902011606004+62167+030650FM-12+010299999V0201401N008219999999N0000001N9-01441+99999097791ADDGF108991999999999999999999MW1721
0029227070999991902011613004+62167+030650FM-12+010299999V0201401N015919999999N0000001N9-01721+99999097711ADDGF108991999999999999999999
0029227070999991902011620004+62167+030650FM-12+010299999V0201401N008219999999N0000001N9-01441+99999098081ADDGF108991999999999999999999
0035227070999991902011706004+62167+030650FM-12+010299999V0201401N004119999999N0000001N9-01331+99999098561ADDGF108991999999999999999999MW1721
0029227070999991902011713004+62167+030650FM-12+010299999V0201401N005119999999N0000001N9-01171+99999098721ADDGF108991999999999999999999
0029227070999991902011720004+62167+030650FM-12+010299999V0201401N002119999999N0000001N9-01171+99999098781ADDGF108991999999999999999999
0029227070999991902011806004+62167+030650FM-12+010299999V0203201N003119999999N0000001N9-01331+99999098881ADDGF108991999999999999999999
0029227070999991902011813004+62167+030650FM-12+010299999V0203201N005119999999N0000001N9-01061+99999099151ADDGF102991999999999999999999
0029227070999991902011820004+62167+030650FM-12+010299999V0203201N004119999999N0000001N9-01331+99999099701ADDGF102991999999999999999999
0029227070999991902011906004+62167+030650FM-12+010299999V0209991C000019999999N0000001N9-02111+99999100361ADDGF100991999999999999999999
0029227070999991902011913004+62167+030650FM-12+010299999V0209991C000019999999N0000001N9-01941+99999100561ADDGF100991999999999999999999
0029227070999991902011920004+62167+030650FM-12+010299999V0209991C000019999999N0000001N9-02941+99999100551ADDGF100991999999999999999999
0035227070999991902012006004+62167+030650FM-12+010299999V0201401N004119999999N0000001N9-02111+99999099401ADDGF108991999999999999999999MW1721
0029227070999991902012013004+62167+030650FM-12+010299999V0202301N013919999999N0000001N9-01561+99999097941ADDGF108991999999999999999999
0029227070999991902012020004+62167+030650FM-12+010299999V0202301N006219999999N0000001N9-01501+99999096911ADDGF108991999999999999999999
0029227070999991902012106004+62167+030650FM-12+010299999V0200201N005119999999N0000001N9-01671+99999097021ADDGF107991999999999999999999
0029227070999991902012113004+62167+030650FM-12+010299999V0203601N004119999999N0000001N9-01941+99999097751ADDGF102991999999999999999999
0029227070999991902012120004+62167+030650FM-12+010299999V0200501N003119999999N0000001N9-02171+99999098521ADDGF100991999999999999999999
0029227070999991902012206004+62167+030650FM-12+010299999V0202901N003119999999N0000001N9-02331+99999099671ADDGF100991999999999999999999
0029227070999991902012213004+62167+030650FM-12+010299999V0203201N003119999999N0000001N9-02171+99999100191ADDGF102991999999999999999999
0029227070999991902012220004+62167+030650FM-12+010299999V0203201N002119999999N0000001N9-03111+99999100581ADDGF100991999999999999999999
0035227070999991902012306004+62167+030650FM-12+010299999V0201101N002119999999N0000001N9-02001+99999100201ADDGF108991999999999999999999MW1721
0029227070999991902012313004+62167+030650FM-12+010299999V0201401N003119999999N0000001N9-01221+99999099721ADDGF108991999999999999999999
0029227070999991902012320004+62167+030650FM-12+010299999V0202301N002119999999N0000001N9-00611+99999099641ADDGF108991999999999999999999
0029227070999991902012406004+62167+030650FM-12+010299999V0202301N002119999999N0000001N9-00611+99999099071ADDGF108991999999999999999999
0029227070999991902012413004+62167+030650FM-12+010299999V0202301N002119999999N0000001N9-00221+99999098921ADDGF108991999999999999999999
0029227070999991902012420004+62167+030650FM-12+010299999V0202301N001019999999N0000001N9-00281+99999099161ADDGF108991999999999999999999
0029227070999991902012506004+62167+030650FM-12+010299999V0201801N002119999999N0000001N9+00061+99999099001ADDGF108991999999999999999999
0029227070999991902012513004+62167+030650FM-12+010299999V0201601N003119999999N0000001N9+00111+99999098941ADDGF108991999999999999999999
0029227070999991902012520004+62167+030650FM-12+010299999V0201401N003119999999N0000001N9+00111+99999098781ADDGF108991999999999999999999
0035227070999991902012606004+62167+030650FM-12+010299999V0201601N003119999999N0000001N9+00061+99999098461ADDGF108991999999999999999999MW1721
0029227070999991902012613004+62167+030650FM-12+010299999V0201601N002119999999N0000001N9+00001+99999098631ADDGF108991999999999999999999
0029227070999991902012620004+62167+030650FM-12+010299999V0201601N008219999999N0000001N9+00001+99999098321ADDGF108991999999999999999999
0035227070999991902012706004+62167+030650FM-12+010299999V0201601N004119999999N0000001N9+00061+99999098341ADDGF108991999999999999999999MW1721
0029227070999991902012713004+62167+030650FM-12+010299999V0201601N005119999999N0000001N9+00001+99999098671ADDGF104991999999999999999999
0029227070999991902012720004+62167+030650FM-12+010299999V0201401N005119999999N0000001N9-00171+99999098871ADDGF108991999999999999999999
0029227070999991902012806004+62167+030650FM-12+010299999V0200901N003119999999N0000001N9-00281+99999098801ADDGF108991999999999999999999
0035227070999991902012813004+62167+030650FM-12+010299999V0201401N004119999999N0000001N9-00331+99999098741ADDGF108991999999999999999999MW1721
0029227070999991902012820004+62167+030650FM-12+010299999V0201601N003119999999N0000001N9-00111+99999099201ADDGF108991999999999999999999
0029227070999991902012906004+62167+030650FM-12+010299999V0201601N004119999999N0000001N9-00331+99999099941ADDGF108991999999999999999999
0029227070999991902012913004+62167+030650FM-12+010299999V0201401N006219999999N0000001N9-00501+99999100101ADDGF108991999999999999999999
0029227070999991902012920004+62167+030650FM-12+010299999V0201401N004119999999N0000001N9-00671+99999100641ADDGF108991999999999999999999
0029227070999991902013006004+62167+030650FM-12+010299999V0200501N003119999999N0000001N9-00781+99999101521ADDGF108991999999999999999999
0029227070999991902013013004+62167+030650FM-12+010299999V0200501N004119999999N0000001N9-00671+99999101711ADDGF108991999999999999999999
0029227070999991902013020004+62167+030650FM-12+010299999V0200501N003119999999N0000001N9-00781+99999101741ADDGF108991999999999999999999
0029227070999991902013106004+62167+030650FM-12+010299999V0203201N002119999999N0000001N9-01501+99999102081ADDGF102991999999999999999999
0029227070999991902013113004+62167+030650FM-12+010299999V0203201N004119999999N0000001N9-01391+99999102701ADDGF100991999999999999999999
0029227070999991902013120004+62167+030650FM-12+010299999V0203201N002119999999N0000001N9-02221+99999103121ADDGF100991999999999999999999
0029227070999991902020106004+62167+030650FM-12+010299999V0203201N002119999999N0000001N9-02501+99999103061ADDGF102991999999999999999999
0029227070999991902020113004+62167+030650FM-12+010299999V0202301N003119999999N0000001N9-00721+99999102661ADDGF108991999999999999999999
0029227070999991902020120004+62167+030650FM-12+010299999V0202301N002119999999N0000001N9-00501+99999102111ADDGF108991999999999999999999
0029227070999991902020206004+62167+030650FM-12+010299999V0202701N003119999999N0000001N9+00001+99999101381ADDGF108991999999999999999999
0029227070999991902020213004+62167+030650FM-12+010299999V0202701N004119999999N0000001N9+00171+99999101101ADDGF102991999999999999999999
0029227070999991902020220004+62167+030650FM-12+010299999V0202701N003119999999N0000001N9-00501+99999100751ADDGF102991999999999999999999
0029227070999991902020306004+62167+030650FM-12+010299999V0209991C000019999999N0000001N9-00671+99999100031ADDGF100991999999999999999999
0029227070999991902020313004+62167+030650FM-12+010299999V0202701N002119999999N0000001N9-00831+99999099831ADDGF100991999999999999999999
0029227070999991902020320004+62167+030650FM-12+010299999V0202701N001019999999N0000001N9-01721+99999099951ADDGF100991999999999999999999
0029227070999991902020406004+62167+030650FM-12+010299999V0203201N002119999999N0000001N9-02171+99999099351ADDGF100991999999999999999999
0029227070999991902020413004+62167+030650FM-12+010299999V0202701N002119999999N0000001N9-01561+99999099481ADDGF103991999999999999999999
0029227070999991902020420004+62167+030650FM-12+010299999V0202701N003119999999N0000001N9-01611+99999099501ADDGF108991999999999999999999
0029227070999991902020506004+62167+030650FM-12+010299999V0203201N003119999999N0000001N9-01941+99999099701ADDGF108991999999999999999999
0029227070999991902020513004+62167+030650FM-12+010299999V0203201N004119999999N0000001N9-01891+99999099941ADDGF104991999999999999999999
0029227070999991902020520004+62167+030650FM-12+010299999V0203201N002119999999N0000001N9-02561+99999100311ADDGF100991999999999999999999
0029227070999991902020606004+62167+030650FM-12+010299999V0203201N001019999999N0000001N9-03001+99999100711ADDGF100991999999999999999999
0029227070999991902020613004+62167+030650FM-12+010299999V0203201N002119999999N0000001N9-02331+99999100901ADDGF100991999999999999999999
0029227070999991902020620004+62167+030650FM-12+010299999V0203201N003119999999N0000001N9-02281+99999101031ADDGF108991999999999999999999
0035227070999991902020706004+62167+030650FM-12+010299999V0201401N004119999999N0000001N9-01831+99999100271ADDGF108991999999999999999999MW1721
0035227070999991902020713004+62167+030650FM-12+010299999V0201401N013919999999N0000001N9-01061+99999099621ADDGF108991999999999999999999MW1721
0029227070999991902020720004+62167+030650FM-12+010299999V0201401N008219999999N0000001N9-01061+99999099001ADDGF108991999999999999999999
0035227070999991902020806004+62167+030650FM-12+010299999V0201101N003119999999N0000001N9-00941+99999097991ADDGF108991999999999999999999MW1721
0035227070999991902020813004+62167+030650FM-12+010299999V0201401N003119999999N0000001N9-00781+99999097641ADDGF108991999999999999999999MW1721
0029227070999991902020820004+62167+030650FM-12+010299999V0201401N004119999999N0000001N9-01111+99999098231ADDGF108991999999999999999999
0029227070999991902020906004+62167+030650FM-12+010299999V0201801N001019999999N0000001N9-01281+99999098501ADDGF108991999999999999999999
0035227070999991902020913004+62167+030650FM-12+010299999V0201601N003119999999N0000001N9-00721+99999098261ADDGF108991999999999999999999MW1721
0029227070999991902020920004+62167+030650FM-12+010299999V0201601N004119999999N0000001N9-00671+99999097681ADDGF108991999999999999999999
0029227070999991902021006004+62167+030650FM-12+010299999V0202701N002119999999N0000001N9-01111+99999098191ADDGF108991999999999999999999
0029227070999991902021013004+62167+030650FM-12+010299999V0202301N002119999999N0000001N9-01501+99999099061ADDGF102991999999999999999999
0029227070999991902021020004+62167+030650FM-12+010299999V0202301N003119999999N0000001N9-01781+99999099361ADDGF102991999999999999999999
0029227070999991902021106004+62167+030650FM-12+010299999V0200901N003119999999N0000001N9-01671+99999099341ADDGF108991999999999999999999
0029227070999991902021113004+62167+030650FM-12+010299999V0201401N003119999999N0000001N9-01281+99999099341ADDGF104991999999999999999999
0035227070999991902021120004+62167+030650FM-12+010299999V0201401N002119999999N0000001N9-01561+99999099501ADDGF100991999999999999999999MW1721
0035227070999991902021206004+62167+030650FM-12+010299999V0200501N002119999999N0000001N9-01111+99999099901ADDGF108991999999999999999999MW1721
0035227070999991902021213004+62167+030650FM-12+010299999V0201401N003119999999N0000001N9-00781+99999099711ADDGF108991999999999999999999MW1721
0029227070999991902021220004+62167+030650FM-12+010299999V0201401N001019999999N0000001N9-01001+99999099591ADDGF108991999999999999999999
0035227070999991902021306004+62167+030650FM-12+010299999V0201401N003119999999N0000001N9-00611+99999098951ADDGF108991999999999999999999MW1721
0035227070999991902021313004+62167+030650FM-12+010299999V0202701N002119999999N0000001N9-00671+99999099121ADDGF102991999999999999999999MW1721
0029227070999991902021320004+62167+030650FM-12+010299999V0202501N003119999999N0000001N9-00941+99999098961ADDGF106991999999999999999999
0035227070999991902021406004+62167+030650FM-12+010299999V0202501N001019999999N0000001N9-01111+99999099481ADDGF108991999999999999999999MW1721
0035227070999991902021413004+62167+030650FM-12+010299999V0202301N004119999999N0000001N9-01061+99999099821ADDGF108991999999999999999999MW1721
0029227070999991902021420004+62167+030650FM-12+010299999V0202301N002119999999N0000001N9-01331+99999099961ADDGF102991999999999999999999
0029227070999991902021506004+62167+030650FM-12+010299999V0200501N002119999999N0000001N9-02221+99999100081ADDGF108991999999999999999999
0029227070999991902021513004+62167+030650FM-12+010299999V0202001N001019999999N0000001N9-01331+99999100191ADDGF103991999999999999999999
0029227070999991902021520004+62167+030650FM-12+010299999V0209991C000019999999N0000001N9-02281+99999100501ADDGF100991999999999999999999
0029227070999991902021606004+62167+030650FM-12+010299999V0202501N006219999999N0000001N9-01501+99999099901ADDGF108991999999999999999999
0035227070999991902021613004+62167+030650FM-12+010299999V0202701N004119999999N0000001N9-00111+99999099701ADDGF108991999999999999999999MW1721
0029227070999991902021620004+62167+030650FM-12+010299999V0202701N002119999999N0000001N9+00001+99999099441ADDGF108991999999999999999999
0029227070999991902021706004+62167+030650FM-12+010299999V0202501N008219999999N0000001N9+00171+99999098881ADDGF108991999999999999999999
0035227070999991902021713004+62167+030650FM-12+010299999V0203201N015919999999N0000001N9-00061+99999099561ADDGF102991999999999999999999MW1381
0029227070999991902021720004+62167+030650FM-12+010299999V0202901N002119999999N0000001N9-01171+99999101201ADDGF100991999999999999999999
0029227070999991902021806004+62167+030650FM-12+010299999V0202901N001019999999N0000001N9-02441+99999102521ADDGF100991999999999999999999
0029227070999991902021813004+62167+030650FM-12+010299999V0203601N003119999999N0000001N9-01001+99999102761ADDGF102991999999999999999999
0029227070999991902021820004+62167+030650FM-12+010299999V0200501N001019999999N0000001N9-01111+99999102631ADDGF108991999999999999999999
0029227070999991902021906004+62167+030650FM-12+010299999V0201401N005119999999N0000001N9+01171+99999102711ADDGF108991999999999999999999
0029227070999991902021913004+62167+030650FM-12+010299999V0201101N004119999999N0000001N9-01061+99999102901ADDGF108991999999999999999999
0029227070999991902021920004+62167+030650FM-12+010299999V0201401N002119999999N0000001N9-01611+99999102961ADDGF103991999999999999999999
0029227070999991902022006004+62167+030650FM-12+010299999V0201601N003119999999N0000001N9-01781+99999102551ADDGF104991999999999999999999
0029227070999991902022013004+62167+030650FM-12+010299999V0201401N004119999999N0000001N9-01221+99999101921ADDGF103991999999999999999999
0029227070999991902022020004+62167+030650FM-12+010299999V0201401N001019999999N0000001N9-01671+99999101401ADDGF102991999999999999999999
0029227070999991902022106004+62167+030650FM-12+010299999V0202301N002119999999N0000001N9-00671+99999100901ADDGF108991999999999999999999
0029227070999991902022113004+62167+030650FM-12+010299999V0202701N004119999999N0000001N9-00171+99999100601ADDGF102991999999999999999999
0029227070999991902022120004+62167+030650FM-12+010299999V0202301N001019999999N0000001N9-00831+99999100721ADDGF102991999999999999999999
0029227070999991902022206004+62167+030650FM-12+010299999V0202301N003119999999N0000001N9-00611+99999100161ADDGF108991999999999999999999
0029227070999991902022213004+62167+030650FM-12+010299999V0202701N003119999999N0000001N9-00441+99999100031ADDGF108991999999999999999999
0029227070999991902022220004+62167+030650FM-12+010299999V0202701N002119999999N0000001N9-00331+99999100281ADDGF104991999999999999999999
0035227070999991902022306004+62167+030650FM-12+010299999V0202701N002119999999N0000001N9-00281+99999100681ADDGF108991999999999999999999MW1721
0029227070999991902022313004+62167+030650FM-12+010299999V0202701N002119999999N0000001N9-00061+99999101191ADDGF108991999999999999999999
0029227070999991902022320004+62167+030650FM-12+010299999V0202701N002119999999N0000001N9-00441+99999101461ADDGF108991999999999999999999
0029227070999991902022406004+62167+030650FM-12+010299999V0202001N002119999999N0000001N9-00281+99999101101ADDGF108991999999999999999999
0029227070999991902022413004+62167+030650FM-12+010299999V0201801N004119999999N0000001N9-00171+99999100791ADDGF108991999999999999999999
0029227070999991902022420004+62167+030650FM-12+010299999V0201801N006219999999N0000001N9-00281+99999100741ADDGF108991999999999999999999
0029227070999991902022506004+62167+030650FM-12+010299999V0202001N005119999999N0000001N9-00331+99999100951ADDGF108991999999999999999999
0029227070999991902022513004+62167+030650FM-12+010299999V0202001N005119999999N0000001N9-00391+99999101021ADDGF108991999999999999999999
0029227070999991902022520004+62167+030650FM-12+010299999V0202301N004119999999N0000001N9-00441+99999101101ADDGF108991999999999999999999
0029227070999991902022606004+62167+030650FM-12+010299999V0202301N004119999999N0000001N9-00441+99999101261ADDGF108991999999999999999999
0029227070999991902022613004+62167+030650FM-12+010299999V0201601N002119999999N0000001N9-00171+99999101541ADDGF108991999999999999999999
0029227070999991902022620004+62167+030650FM-12+010299999V0201401N002119999999N0000001N9-00331+99999101761ADDGF108991999999999999999999
0029227070999991902022706004+62167+030650FM-12+010299999V0200901N001019999999N0000001N9-00781+99999101681ADDGF102991999999999999999999
0029227070999991902022713004+62167+030650FM-12+010299999V0201401N003119999999N0000001N9-00611+99999101751ADDGF103991999999999999999999
0029227070999991902022720004+62167+030650FM-12+010299999V0201401N002119999999N0000001N9-00781+99999101551ADDGF103991999999999999999999
0029227070999991902022806004+62167+030650FM-12+010299999V0201401N002119999999N0000001N9-01061+99999101191ADDGF102991999999999999999999
0035227070999991902022813004+62167+030650FM-12+010299999V0201401N005119999999N0000001N9-00781+99999101151ADDGF108991999999999999999999MW1721
0035227070999991902022820004+62167+030650FM-12+010299999V0201401N003119999999N0000001N9-00561+99999100841ADDGF108991999999999999999999MW1721
0035227070999991902030106004+62167+030650FM-12+010299999V0201401N003119999999N0000001N9-00331+99999100581ADDGF108991999999999999999999MW1721
0035227070999991902030113004+62167+030650FM-12+010299999V0201401N004119999999N0000001N9-00061+99999100551ADDGF108991999999999999999999MW1721
0029227070999991902030120004+62167+030650FM-12+010299999V0201401N003119999999N0000001N9-00221+99999100481ADDGF108991999999999999999999
0029227070999991902030206004+62167+030650FM-12+010299999V0201101N002119999999N0000001N9-00221+99999100391ADDGF108991999999999999999999
0035227070999991902030213004+62167+030650FM-12+010299999V0201401N003119999999N0000001N9+00001+99999100441ADDGF108991999999999999999999MW1721
0029227070999991902030220004+62167+030650FM-12+010299999V0201401N001019999999N0000001N9-00171+99999100511ADDGF106991999999999999999999
0029227070999991902030306004+62167+030650FM-12+010299999V0200201N006219999999N0000001N9-00671+99999100741ADDGF108991999999999999999999
0029227070999991902030313004+62167+030650FM-12+010299999V0200501N005119999999N0000001N9-00441+99999100991ADDGF108991999999999999999999
0029227070999991902030320004+62167+030650FM-12+010299999V0200501N003119999999N0000001N9-01171+99999101181ADDGF100991999999999999999999
0029227070999991902030406004+62167+030650FM-12+010299999V0200501N001019999999N0000001N9-01891+99999101391ADDGF102991999999999999999999
0029227070999991902030413004+62167+030650FM-12+010299999V0203201N004119999999N0000001N9-00671+99999101501ADDGF102991999999999999999999
0029227070999991902030420004+62167+030650FM-12+010299999V0203201N002119999999N0000001N9-00781+99999101741ADDGF100991999999999999999999
0029227070999991902030506004+62167+030650FM-12+010299999V0200501N001019999999N0000001N9-02611+99999101921ADDGF101991999999999999999999
0029227070999991902030513004+62167+030650FM-12+010299999V0201101N002119999999N0000001N9-00831+99999101861ADDGF100991999999999999999999
0029227070999991902030520004+62167+030650FM-12+010299999V0201401N003119999999N0000001N9-01721+99999101541ADDGF100991999999999999999999
0035227070999991902030606004+62167+030650FM-12+010299999V0201101N005119999999N0000001N9-01561+99999100351ADDGF108991999999999999999999MW1721
0029227070999991902030613004+62167+030650FM-12+010299999V0201401N006219999999N0000001N9-00831+99999099591ADDGF108991999999999999999999
0029227070999991902030620004+62167+030650FM-12+010299999V0201401N004119999999N0000001N9-00721+99999099101ADDGF108991999999999999999999
0029227070999991902030706004+62167+030650FM-12+010299999V0200501N003119999999N0000001N9-01001+99999099271ADDGF108991999999999999999999
0029227070999991902030713004+62167+030650FM-12+010299999V0200501N004119999999N0000001N9-00781+99999099541ADDGF102991999999999999999999
0029227070999991902030720004+62167+030650FM-12+010299999V0200501N006219999999N0000001N9-01501+99999099761ADDGF100991999999999999999999
0029227070999991902030806004+62167+030650FM-12+010299999V0200501N002119999999N0000001N9-02281+99999099961ADDGF102991999999999999999999
0029227070999991902030813004+62167+030650FM-12+010299999V0200501N003119999999N0000001N9-01221+99999099951ADDGF101991999999999999999999
0029227070999991902030820004+62167+030650FM-12+010299999V0200501N003119999999N0000001N9-01781+99999099871ADDGF100991999999999999999999
0029227070999991902030906004+62167+030650FM-12+010299999V0200501N001019999999N0000001N9-02171+99999099511ADDGF105991999999999999999999
0029227070999991902030913004+62167+030650FM-12+010299999V0200501N003119999999N0000001N9-01111+99999099241ADDGF102991999999999999999999
0029227070999991902030920004+62167+030650FM-12+010299999V0200501N002119999999N0000001N9-01891+99999099161ADDGF102991999999999999999999
0029227070999991902031006004+62167+030650FM-12+010299999V0209991C000019999999N0000001N9-02721+99999099021ADDGF102991999999999999999999
0029227070999991902031013004+62167+030650FM-12+010299999V0202701N002119999999N0000001N9-01281+99999099021ADDGF103991999999999999999999
0029227070999991902031020004+62167+030650FM-12+010299999V0202701N003119999999N0000001N9-01561+99999098861ADDGF102991999999999999999999
0029227070999991902031106004+62167+030650FM-12+010299999V0203201N001019999999N0000001N9-01941+99999099261ADDGF100991999999999999999999
0029227070999991902031113004+62167+030650FM-12+010299999V0203201N008219999999N0000001N9-01441+99999099751ADDGF100991999999999999999999
0029227070999991902031120004+62167+030650FM-12+010299999V0203201N004119999999N0000001N9-02221+99999100241ADDGF100991999999999999999999
0029227070999991902031206004+62167+030650FM-12+010299999V0200501N002119999999N0000001N9-03221+99999100591ADDGF102991999999999999999999
0029227070999991902031213004+62167+030650FM-12+010299999V0202501N003119999999N0000001N9-01281+99999100701ADDGF102991999999999999999999
0029227070999991902031220004+62167+030650FM-12+010299999V0202501N002119999999N0000001N9-02221+99999100621ADDGF100991999999999999999999
0029227070999991902031306004+62167+030650FM-12+010299999V0202301N002119999999N0000001N9-01501+99999100271ADDGF108991999999999999999999
0029227070999991902031313004+62167+030650FM-12+010299999V0200501N004119999999N0000001N9-01281+99999100911ADDGF100991999999999999999999
0029227070999991902031320004+62167+030650FM-12+010299999V0200501N002119999999N0000001N9-02221+99999101181ADDGF100991999999999999999999
0029227070999991902031406004+62167+030650FM-12+010299999V0201401N003119999999N0000001N9-01391+99999100791ADDGF104991999999999999999999
0029227070999991902031413004+62167+030650FM-12+010299999V0201801N005119999999N0000001N9-00501+99999100311ADDGF108991999999999999999999
0029227070999991902031420004+62167+030650FM-12+010299999V0201601N003119999999N0000001N9-00221+99999099841ADDGF108991999999999999999999
0029227070999991902031506004+62167+030650FM-12+010299999V0202301N004119999999N0000001N9-00221+99999099391ADDGF108991999999999999999999
0029227070999991902031513004+62167+030650FM-12+010299999V0202301N002119999999N0000001N9-00111+99999099341ADDGF108991999999999999999999
0029227070999991902031520004+62167+030650FM-12+010299999V0202301N003119999999N0000001N9-00061+99999099221ADDGF108991999999999999999999
0029227070999991902031606004+62167+030650FM-12+010299999V0202501N002119999999N0000001N9+00001+99999099181ADDGF108991999999999999999999
0029227070999991902031613004+62167+030650FM-12+010299999V0202301N003119999999N0000001N9+00061+99999099281ADDGF108991999999999999999999
0029227070999991902031620004+62167+030650FM-12+010299999V0202301N002119999999N0000001N9-00061+99999099161ADDGF108991999999999999999999
0035227070999991902031706004+62167+030650FM-12+010299999V0201601N003119999999N0000001N9-00281+99999098721ADDGF108991999999999999999999MW1721
0035227070999991902031713004+62167+030650FM-12+010299999V0201401N002119999999N0000001N9+00061+99999098511ADDGF108991999999999999999999MW1721
0029227070999991902031720004+62167+030650FM-12+010299999V0201401N002119999999N0000001N9-00331+99999098501ADDGF102991999999999999999999
0029227070999991902031806004+62167+030650FM-12+010299999V0202301N002119999999N0000001N9-01221+99999099041ADDGF108991999999999999999999
0029227070999991902031813004+62167+030650FM-12+010299999V0202301N006219999999N0000001N9-00671+99999099461ADDGF101991999999999999999999
0029227070999991902031820004+62167+030650FM-12+010299999V0202301N003119999999N0000001N9-01391+99999099951ADDGF101991999999999999999999
0029227070999991902031906004+62167+030650FM-12+010299999V0200201N001019999999N0000001N9-02221+99999100221ADDGF102991999999999999999999
0029227070999991902031913004+62167+030650FM-12+010299999V0201401N006219999999N0000001N9-01221+99999099871ADDGF108991999999999999999999
0029227070999991902031920004+62167+030650FM-12+010299999V0201401N009819999999N0000001N9-01281+99999098801ADDGF108991999999999999999999
0035227070999991902032006004+62167+030650FM-12+010299999V0201401N006219999999N0000001N9-01391+99999098421ADDGF108991999999999999999999MW1721
0029227070999991902032013004+62167+030650FM-12+010299999V0200501N005119999999N0000001N9-01221+99999099001ADDGF102991999999999999999999
0029227070999991902032020004+62167+030650FM-12+010299999V0200501N004119999999N0000001N9-02001+99999099261ADDGF108991999999999999999999
0035227070999991902032106004+62167+030650FM-12+010299999V0200701N005119999999N0000001N9-01891+99999098751ADDGF108991999999999999999999MW1721
0029227070999991902032113004+62167+030650FM-12+010299999V0200501N008219999999N0000001N9-01441+99999098981ADDGF108991999999999999999999
0029227070999991902032120004+62167+030650FM-12+010299999V0200501N003119999999N0000001N9-01611+99999099221ADDGF108991999999999999999999
0029227070999991902032206004+62167+030650FM-12+010299999V0200501N003119999999N0000001N9-01671+99999099911ADDGF108991999999999999999999
0029227070999991902032213004+62167+030650FM-12+010299999V0201401N005119999999N0000001N9-01001+99999099981ADDGF108991999999999999999999
0029227070999991902032220004+62167+030650FM-12+010299999V0201401N002119999999N0000001N9-01111+99999099711ADDGF108991999999999999999999
0035227070999991902032306004+62167+030650FM-12+010299999V0200501N004119999999N0000001N9-00891+99999099581ADDGF108991999999999999999999MW1721
0029227070999991902032313004+62167+030650FM-12+010299999V0203201N002119999999N0000001N9-00221+99999100161ADDGF108991999999999999999999
0029227070999991902032320004+62167+030650FM-12+010299999V0200501N002119999999N0000001N9-01111+99999100711ADDGF108991999999999999999999
0029227070999991902032406004+62167+030650FM-12+010299999V0200501N002119999999N0000001N9-01061+99999101071ADDGF108991999999999999999999
0029227070999991902032413004+62167+030650FM-12+010299999V0201401N005119999999N0000001N9+00441+99999100861ADDGF100991999999999999999999
0029227070999991902032420004+62167+030650FM-12+010299999V0201401N003119999999N0000001N9-00061+99999100631ADDGF102991999999999999999999
0029227070999991902032506004+62167+030650FM-12+010299999V0201401N003119999999N0000001N9+00061+99999100431ADDGF102991999999999999999999
0029227070999991902032513004+62167+030650FM-12+010299999V0201401N003119999999N0000001N9+00331+99999100241ADDGF103991999999999999999999
0029227070999991902032520004+62167+030650FM-12+010299999V0201401N002119999999N0000001N9+00221+99999100151ADDGF108991999999999999999999
0035227070999991902032606004+62167+030650FM-12+010299999V0201401N004119999999N0000001N9+00061+99999099751ADDGF108991999999999999999999MW1721
0029227070999991902032613004+62167+030650FM-12+010299999V0201401N003119999999N0000001N9+00221+99999099921ADDGF108991999999999999999999
0029227070999991902032620004+62167+030650FM-12+010299999V0201401N002119999999N0000001N9+00061+99999100031ADDGF108991999999999999999999
0035227070999991902032706004+62167+030650FM-12+010299999V0201101N003119999999N0000001N9+00111+99999099461ADDGF108991999999999999999999MW1721
0035227070999991902032713004+62167+030650FM-12+010299999V0201401N002119999999N0000001N9+00171+99999099471ADDGF108991999999999999999999MW1721
0029227070999991902032720004+62167+030650FM-12+010299999V0201401N003119999999N0000001N9+00171+99999099461ADDGF108991999999999999999999
0029227070999991902032806004+62167+030650FM-12+010299999V0202301N001019999999N0000001N9+00001+99999099951ADDGF108991999999999999999999
0029227070999991902032813004+62167+030650FM-12+010299999V0202301N002119999999N0000001N9+00281+99999100301ADDGF108991999999999999999999
0029227070999991902032820004+62167+030650FM-12+010299999V0202301N002119999999N0000001N9-00171+99999100161ADDGF108991999999999999999999
0029227070999991902032906004+62167+030650FM-12+010299999V0200501N004119999999N0000001N9+00061+99999099311ADDGF108991999999999999999999
0035227070999991902032913004+62167+030650FM-12+010299999V0201401N005119999999N0000001N9+00171+99999099031ADDGF108991999999999999999999MW1721
0029227070999991902032920004+62167+030650FM-12+010299999V0201401N004119999999N0000001N9+00061+99999099001ADDGF108991999999999999999999
0035227070999991902033006004+62167+030650FM-12+010299999V0201601N003119999999N0000001N9-00331+99999099621ADDGF108991999999999999999999MW1721
0029227070999991902033013004+62167+030650FM-12+010299999V0202701N002119999999N0000001N9+00001+99999099761ADDGF106991999999999999999999
0029227070999991902033020004+62167+030650FM-12+010299999V0209991C000019999999N0000001N9-00831+99999099881ADDGF100991999999999999999999
0029227070999991902033106004+62167+030650FM-12+010299999V0203601N002119999999N0000001N9-00721+99999099821ADDGF106991999999999999999999
0029227070999991902033113004+62167+030650FM-12+010299999V0200201N004119999999N0000001N9-00171+99999099641ADDGF108991999999999999999999
0029227070999991902033120004+62167+030650FM-12+010299999V0200501N005119999999N0000001N9-00331+99999099661ADDGF108991999999999999999999
0029227070999991902040106004+62167+030650FM-12+010299999V0200201N003119999999N0000001N9-00221+99999099561ADDGF108991999999999999999999
0029227070999991902040113004+62167+030650FM-12+010299999V0201401N002119999999N0000001N9+00171+99999099581ADDGF108991999999999999999999
0029227070999991902040120004+62167+030650FM-12+010299999V0201401N001019999999N0000001N9-00061+99999098941ADDGF108991999999999999999999
0029227070999991902040206004+62167+030650FM-12+010299999V0201401N002119999999N0000001N9-00061+99999099221ADDGF108991999999999999999999
0029227070999991902040213004+62167+030650FM-12+010299999V0203201N005119999999N0000001N9+00111+99999098831ADDGF108991999999999999999999
0029227070999991902040220004+62167+030650FM-12+010299999V0203201N004119999999N0000001N9-00281+99999098761ADDGF108991999999999999999999
0029227070999991902040306004+62167+030650FM-12+010299999V0202501N003119999999N0000001N9-00331+99999099081ADDGF108991999999999999999999
0029227070999991902040313004+62167+030650FM-12+010299999V0203201N004119999999N0000001N9+00111+99999099311ADDGF106991999999999999999999
0029227070999991902040320004+62167+030650FM-12+010299999V0203201N002119999999N0000001N9-00331+99999099591ADDGF102991999999999999999999
0029227070999991902040406004+62167+030650FM-12+010299999V0203201N002119999999N0000001N9-01001+99999100041ADDGF100991999999999999999999
0029227070999991902040413004+62167+030650FM-12+010299999V0202901N003119999999N0000001N9-00061+99999100181ADDGF100991999999999999999999
0029227070999991902040420004+62167+030650FM-12+010299999V0203201N001019999999N0000001N9-01001+99999100301ADDGF100991999999999999999999
0029227070999991902040506004+62167+030650FM-12+010299999V0203201N002119999999N0000001N9-00891+99999100231ADDGF105991999999999999999999
0029227070999991902040513004+62167+030650FM-12+010299999V0200501N006219999999N0000001N9-00221+99999099861ADDGF108991999999999999999999
0029227070999991902040520004+62167+030650FM-12+010299999V0200501N005119999999N0000001N9-00561+99999099661ADDGF107991999999999999999999
0029227070999991902040606004+62167+030650FM-12+010299999V0200501N003119999999N0000001N9-00891+99999099111ADDGF104991999999999999999999
0029227070999991902040613004+62167+030650FM-12+010299999V0202901N004119999999N0000001N9-00171+99999099191ADDGF102991999999999999999999
0029227070999991902040620004+62167+030650FM-12+010299999V0203201N003119999999N0000001N9-00721+99999099301ADDGF102991999999999999999999
0029227070999991902040706004+62167+030650FM-12+010299999V0202901N002119999999N0000001N9-00781+99999099551ADDGF108991999999999999999999
0035227070999991902040713004+62167+030650FM-12+010299999V0202501N006219999999N0000001N9-00221+99999099841ADDGF108991999999999999999999MW1721
0029227070999991902040720004+62167+030650FM-12+010299999V0202501N003119999999N0000001N9-00671+99999100181ADDGF100991999999999999999999
0029227070999991902040806004+62167+030650FM-12+010299999V0202901N002119999999N0000001N9-01111+99999100431ADDGF100991999999999999999999
0029227070999991902040813004+62167+030650FM-12+010299999V0200701N004119999999N0000001N9-00171+99999100271ADDGF102991999999999999999999
0029227070999991902040820004+62167+030650FM-12+010299999V0200501N002119999999N0000001N9-00281+99999100081ADDGF108991999999999999999999
0029227070999991902040906004+62167+030650FM-12+010299999V0200501N003119999999N0000001N9-00441+99999100191ADDGF108991999999999999999999
0029227070999991902040913004+62167+030650FM-12+010299999V0200501N005119999999N0000001N9-00111+99999100601ADDGF107991999999999999999999
0029227070999991902040920004+62167+030650FM-12+010299999V0200501N002119999999N0000001N9-00331+99999101071ADDGF107991999999999999999999
0029227070999991902041006004+62167+030650FM-12+010299999V0200201N001019999999N0000001N9-00441+99999101671ADDGF108991999999999999999999
0029227070999991902041013004+62167+030650FM-12+010299999V0202701N002119999999N0000001N9-00171+99999101991ADDGF108991999999999999999999
0029227070999991902041020004+62167+030650FM-12+010299999V0202901N002119999999N0000001N9-00441+99999102191ADDGF108991999999999999999999
0029227070999991902041106004+62167+030650FM-12+010299999V0202701N002119999999N0000001N9-00831+99999102481ADDGF100991999999999999999999
0029227070999991902041113004+62167+030650FM-12+010299999V0202901N004119999999N0000001N9+00111+99999102341ADDGF102991999999999999999999
0029227070999991902041120004+62167+030650FM-12+010299999V0202901N002119999999N0000001N9-00441+99999101981ADDGF102991999999999999999999
0029227070999991902041206004+62167+030650FM-12+010299999V0202901N005119999999N0000001N9-00331+99999101741ADDGF102991999999999999999999
0029227070999991902041213004+62167+030650FM-12+010299999V0202901N003119999999N0000001N9+00221+99999101761ADDGF102991999999999999999999
0029227070999991902041220004+62167+030650FM-12+010299999V0202701N003119999999N0000001N9-00221+99999101791ADDGF100991999999999999999999
0029227070999991902041306004+62167+030650FM-12+010299999V0200201N003119999999N0000001N9-00671+99999101961ADDGF100991999999999999999999
0029227070999991902041313004+62167+030650FM-12+010299999V0202901N005119999999N0000001N9+00221+99999101901ADDGF101991999999999999999999
0029227070999991902041320004+62167+030650FM-12+010299999V0202901N002119999999N0000001N9-00281+99999101821ADDGF102991999999999999999999
0029227070999991902041406004+62167+030650FM-12+010299999V0200501N001019999999N0000001N9-00721+99999102181ADDGF100991999999999999999999
0029227070999991902041413004+62167+030650FM-12+010299999V0202901N003119999999N0000001N9+00331+99999102241ADDGF100991999999999999999999
0029227070999991902041420004+62167+030650FM-12+010299999V0203201N002119999999N0000001N9-00391+99999102271ADDGF100991999999999999999999
0029227070999991902041506004+62167+030650FM-12+010299999V0200501N002119999999N0000001N9-00501+99999102461ADDGF108991999999999999999999
0029227070999991902041513004+62167+030650FM-12+010299999V0202301N004119999999N0000001N9+00671+99999102311ADDGF100991999999999999999999
0029227070999991902041520004+62167+030650FM-12+010299999V0202301N001019999999N0000001N9-00171+99999102191ADDGF100991999999999999999999
0029227070999991902041606004+62167+030650FM-12+010299999V0202301N002119999999N0000001N9+00001+99999102121ADDGF102991999999999999999999
0029227070999991902041613004+62167+030650FM-12+010299999V0202301N003119999999N0000001N9+00721+99999101921ADDGF103991999999999999999999
0029227070999991902041620004+62167+030650FM-12+010299999V0202301N002119999999N0000001N9+00171+99999101751ADDGF103991999999999999999999
0029227070999991902041706004+62167+030650FM-12+010299999V0202301N002119999999N0000001N9+00061+99999101761ADDGF102991999999999999999999
0029227070999991902041713004+62167+030650FM-12+010299999V0202301N003119999999N0000001N9+00831+99999101641ADDGF100991999999999999999999
0029227070999991902041720004+62167+030650FM-12+010299999V0202301N001019999999N0000001N9+00061+99999101601ADDGF100991999999999999999999
0029227070999991902041806004+62167+030650FM-12+010299999V0201801N001019999999N0000001N9-00111+99999101681ADDGF102991999999999999999999
0029227070999991902041813004+62167+030650FM-12+010299999V0201601N004119999999N0000001N9+00831+99999101541ADDGF100991999999999999999999
0029227070999991902041820004+62167+030650FM-12+010299999V0201801N002119999999N0000001N9+00171+99999101401ADDGF100991999999999999999999
0029227070999991902041906004+62167+030650FM-12+010299999V0201401N002119999999N0000001N9+00221+99999100841ADDGF108991999999999999999999
0029227070999991902041913004+62167+030650FM-12+010299999V0202301N003119999999N0000001N9+00501+99999100801ADDGF104991999999999999999999
0029227070999991902041920004+62167+030650FM-12+010299999V0202301N003119999999N0000001N9+00221+99999100951ADDGF108991999999999999999999
0029227070999991902042006004+62167+030650FM-12+010299999V0202501N001019999999N0000001N9+00221+99999100981ADDGF108991999999999999999999
0029227070999991902042013004+62167+030650FM-12+010299999V0200201N002119999999N0000001N9+00561+99999101151ADDGF104991999999999999999999
0029227070999991902042020004+62167+030650FM-12+010299999V0200201N001019999999N0000001N9+00441+99999101461ADDGF108991999999999999999999
0029227070999991902042106004+62167+030650FM-12+010299999V0200201N008719999999N0000001N9+00281+99999101801ADDGF108991999999999999999999
0029227070999991902042113004+62167+030650FM-12+010299999V0200201N006219999999N0000001N9+00331+99999101941ADDGF101991999999999999999999
0029227070999991902042120004+62167+030650FM-12+010299999V0200501N005119999999N0000001N9-00331+99999102201ADDGF100991999999999999999999
0029227070999991902042206004+62167+030650FM-12+010299999V0203601N004119999999N0000001N9-00561+99999102081ADDGF102991999999999999999999
0029227070999991902042213004+62167+030650FM-12+010299999V0203601N005119999999N0000001N9+00111+99999101941ADDGF100991999999999999999999
0029227070999991902042220004+62167+030650FM-12+010299999V0203601N004119999999N0000001N9-00221+99999101881ADDGF100991999999999999999999
0029227070999991902042306004+62167+030650FM-12+010299999V0200701N003119999999N0000001N9-00441+99999101981ADDGF105991999999999999999999
0029227070999991902042313004+62167+030650FM-12+010299999V0203201N003119999999N0000001N9+00331+99999101831ADDGF107991999999999999999999
0029227070999991902042320004+62167+030650FM-12+010299999V0203201N002119999999N0000001N9-00221+99999101681ADDGF106991999999999999999999
0029227070999991902042406004+62167+030650FM-12+010299999V0201101N002119999999N0000001N9-00111+99999101521ADDGF100991999999999999999999
0029227070999991902042413004+62167+030650FM-12+010299999V0201401N004119999999N0000001N9+00561+99999101421ADDGF102991999999999999999999
0029227070999991902042420004+62167+030650FM-12+010299999V0200501N002119999999N0000001N9+00001+99999101561ADDGF102991999999999999999999
0029227070999991902042506004+62167+030650FM-12+010299999V0203601N004119999999N0000001N9-00501+99999101471ADDGF100991999999999999999999
0029227070999991902042513004+62167+030650FM-12+010299999V0203601N005119999999N0000001N9+00061+99999101301ADDGF102991999999999999999999
0029227070999991902042520004+62167+030650FM-12+010299999V0200201N003119999999N0000001N9-00391+99999101151ADDGF101991999999999999999999
0029227070999991902042606004+62167+030650FM-12+010299999V0200201N004119999999N0000001N9-00671+99999101111ADDGF102991999999999999999999
0029227070999991902042613004+62167+030650FM-12+010299999V0200501N006219999999N0000001N9+00061+99999101111ADDGF101991999999999999999999
0029227070999991902042620004+62167+030650FM-12+010299999V0200501N003119999999N0000001N9-00331+99999101241ADDGF100991999999999999999999
0029227070999991902042706004+62167+030650FM-12+010299999V0200501N008219999999N0000001N9-00781+99999101311ADDGF100991999999999999999999
0029227070999991902042713004+62167+030650FM-12+010299999V0200501N006219999999N0000001N9-00171+99999101301ADDGF100991999999999999999999
0029227070999991902042720004+62167+030650FM-12+010299999V0200501N004119999999N0000001N9-00671+99999101241ADDGF100991999999999999999999
0029227070999991902042806004+62167+030650FM-12+010299999V0200201N006219999999N0000001N9-00941+99999101201ADDGF100991999999999999999999
0029227070999991902042813004+62167+030650FM-12+010299999V0200201N007219999999N0000001N9-00221+99999101041ADDGF100991999999999999999999
0029227070999991902042820004+62167+030650FM-12+010299999V0200501N003119999999N0000001N9-00561+99999100901ADDGF100991999999999999999999
0029227070999991902042906004+62167+030650FM-12+010299999V0203201N004119999999N0000001N9-01001+99999100781ADDGF100991999999999999999999
0029227070999991902042913004+62167+030650FM-12+010299999V0203201N005119999999N0000001N9-00221+99999100461ADDGF100991999999999999999999
0029227070999991902042920004+62167+030650FM-12+010299999V0200501N002119999999N0000001N9-00501+99999100151ADDGF102991999999999999999999
0029227070999991902043006004+62167+030650FM-12+010299999V0200201N003119999999N0000001N9-00671+99999099911ADDGF108991999999999999999999
0029227070999991902043013004+62167+030650FM-12+010299999V0200201N004119999999N0000001N9-00281+99999099751ADDGF106991999999999999999999
0029227070999991902043020004+62167+030650FM-12+010299999V0200201N001019999999N0000001N9-00281+99999099381ADDGF108991999999999999999999
0029227070999991902050106004+62167+030650FM-12+010299999V0203201N001019999999N0000001N9-00441+99999099031ADDGF103991999999999999999999
0029227070999991902050113004+62167+030650FM-12+010299999V0203201N004119999999N0000001N9+00111+99999099101ADDGF107991999999999999999999
0029227070999991902050120004+62167+030650FM-12+010299999V0203601N002119999999N0000001N9+00001+99999099111ADDGF102991999999999999999999
0029227070999991902050206004+62167+030650FM-12+010299999V0201401N002119999999N0000001N9+00061+99999099641ADDGF102991999999999999999999
0035227070999991902050213004+62167+030650FM-12+010299999V0201401N004119999999N0000001N9+00441+99999099941ADDGF108991999999999999999999MW1721
0029227070999991902050220004+62167+030650FM-12+010299999V0201401N003119999999N0000001N9+00221+99999099951ADDGF108991999999999999999999
0029227070999991902050306004+62167+030650FM-12+010299999V0201401N003119999999N0000001N9+00391+99999999999ADDGF107991999999999999999999
0029227070999991902050313004+62167+030650FM-12+010299999V0201401N003119999999N0000001N9+00891+99999100061ADDGF102991999999999999999999
0029227070999991902050320004+62167+030650FM-12+010299999V0201401N002119999999N0000001N9+00501+99999100181ADDGF104991999999999999999999
0029227070999991902050406004+62167+030650FM-12+010299999V0201101N001019999999N0000001N9+00721+99999100151ADDGF102991999999999999999999
0029227070999991902050413004+62167+030650FM-12+010299999V0201401N004119999999N0000001N9+01221+99999100121ADDGF103991999999999999999999
0029227070999991902050420004+62167+030650FM-12+010299999V0201101N003119999999N0000001N9+00501+99999100101ADDGF104991999999999999999999
0029227070999991902050506004+62167+030650FM-12+010299999V0200501N003119999999N0000001N9+00331+99999099911ADDGF108991999999999999999999
0035227070999991902050513004+62167+030650FM-12+010299999V0200501N004119999999N0000001N9+00441+99999099911ADDGF108991999999999999999999MW1621
0029227070999991902050520004+62167+030650FM-12+010299999V0200501N003119999999N0000001N9+00221+99999100081ADDGF108991999999999999999999
0029227070999991902050606004+62167+030650FM-12+010299999V0200501N002119999999N0000001N9+00221+99999100381ADDGF108991999999999999999999
0029227070999991902050613004+62167+030650FM-12+010299999V0203201N003119999999N0000001N9+00611+99999100511ADDGF108991999999999999999999
0029227070999991902050620004+62167+030650FM-12+010299999V0203201N002119999999N0000001N9+00221+99999100601ADDGF106991999999999999999999
0029227070999991902050706004+62167+030650FM-12+010299999V0200501N008219999999N0000001N9+00281+99999100421ADDGF108991999999999999999999
0029227070999991902050713004+62167+030650FM-12+010299999V0200501N008719999999N0000001N9+00441+99999099941ADDGF108991999999999999999999
0035227070999991902050720004+62167+030650FM-12+010299999V0200501N011819999999N0000001N9+00281+99999099551ADDGF108991999999999999999999MW1621
0035227070999991902050806004+62167+030650FM-12+010299999V0200501N007219999999N0000001N9+00281+99999099621ADDGF108991999999999999999999MW1621
0029227070999991902050813004+62167+030650FM-12+010299999V0200501N006219999999N0000001N9+00391+99999100111ADDGF108991999999999999999999
0029227070999991902050820004+62167+030650FM-12+010299999V0200501N003119999999N0000001N9+00111+99999100501ADDGF108991999999999999999999
0029227070999991902050906004+62167+030650FM-12+010299999V0200201N006219999999N0000001N9+00001+99999100711ADDGF108991999999999999999999
0029227070999991902050913004+62167+030650FM-12+010299999V0200501N008219999999N0000001N9+00561+99999100991ADDGF106991999999999999999999
0029227070999991902050920004+62167+030650FM-12+010299999V0200501N002119999999N0000001N9+00001+99999101191ADDGF108991999999999999999999
0029227070999991902051006004+62167+030650FM-12+010299999V0200501N005119999999N0000001N9+00061+99999101021ADDGF102991999999999999999999
0029227070999991902051013004+62167+030650FM-12+010299999V0200501N008219999999N0000001N9+00391+99999100821ADDGF108991999999999999999999
0029227070999991902051020004+62167+030650FM-12+010299999V0200501N005119999999N0000001N9+00221+99999100621ADDGF105991999999999999999999
0029227070999991902051106004+62167+030650FM-12+010299999V0200501N006219999999N0000001N9+00061+99999100281ADDGF102991999999999999999999
0029227070999991902051113004+62167+030650FM-12+010299999V0200501N008719999999N0000001N9+00611+99999100101ADDGF102991999999999999999999
0029227070999991902051120004+62167+030650FM-12+010299999V0200501N004119999999N0000001N9+00061+99999100081ADDGF102991999999999999999999
0029227070999991902051206004+62167+030650FM-12+010299999V0200201N002119999999N0000001N9+00001+99999100071ADDGF102991999999999999999999
0029227070999991902051213004+62167+030650FM-12+010299999V0200501N004119999999N0000001N9+00721+99999099881ADDGF106991999999999999999999
0029227070999991902051220004+62167+030650FM-12+010299999V0200501N003119999999N0000001N9+00281+99999099901ADDGF106991999999999999999999
0029227070999991902051306004+62167+030650FM-12+010299999V0200501N002119999999N0000001N9+00391+99999099871ADDGF108991999999999999999999
0029227070999991902051313004+62167+030650FM-12+010299999V0200501N004119999999N0000001N9+00781+99999100061ADDGF108991999999999999999999
0029227070999991902051320004+62167+030650FM-12+010299999V0200501N002119999999N0000001N9+00561+99999100101ADDGF102991999999999999999999
0029227070999991902051406004+62167+030650FM-12+010299999V0200501N003119999999N0000001N9+00391+99999100671ADDGF104991999999999999999999
0029227070999991902051413004+62167+030650FM-12+010299999V0203201N004119999999N0000001N9+00891+99999100661ADDGF102991999999999999999999
0029227070999991902051420004+62167+030650FM-12+010299999V0203601N003119999999N0000001N9+00281+99999100861ADDGF100991999999999999999999
0029227070999991902051506004+62167+030650FM-12+010299999V0201401N002119999999N0000001N9+00671+99999100951ADDGF102991999999999999999999
0029227070999991902051513004+62167+030650FM-12+010299999V0201401N006219999999N0000001N9+01331+99999100941ADDGF100991999999999999999999
0029227070999991902051520004+62167+030650FM-12+010299999V0201401N002119999999N0000001N9+00441+99999100921ADDGF100991999999999999999999
0029227070999991902051606004+62167+030650FM-12+010299999V0201401N006219999999N0000001N9+01001+99999100711ADDGF100991999999999999999999
0029227070999991902051613004+62167+030650FM-12+010299999V0201601N008219999999N0000001N9+01281+99999100641ADDGF102991999999999999999999
0029227070999991902051620004+62167+030650FM-12+010299999V0201101N003119999999N0000001N9+00941+99999100461ADDGF102991999999999999999999
0029227070999991902051706004+62167+030650FM-12+010299999V0201401N006219999999N0000001N9+01111+99999100381ADDGF100991999999999999999999
0029227070999991902051713004+62167+030650FM-12+010299999V0201401N009819999999N0000001N9+01781+99999100321ADDGF101991999999999999999999
0029227070999991902051720004+62167+030650FM-12+010299999V0201401N004119999999N0000001N9+01171+99999100351ADDGF100991999999999999999999
0029227070999991902051806004+62167+030650FM-12+010299999V0201101N004119999999N0000001N9+01171+99999100441ADDGF100991999999999999999999
0029227070999991902051813004+62167+030650FM-12+010299999V0201401N005119999999N0000001N9+01781+99999100221ADDGF100991999999999999999999
0029227070999991902051820004+62167+030650FM-12+010299999V0201401N003119999999N0000001N9+00941+99999100141ADDGF100991999999999999999999
0029227070999991902051906004+62167+030650FM-12+010299999V0200501N007219999999N0000001N9+00831+99999100071ADDGF100991999999999999999999
0029227070999991902051913004+62167+030650FM-12+010299999V0200501N009819999999N0000001N9+01061+99999099921ADDGF103991999999999999999999
0029227070999991902051920004+62167+030650FM-12+010299999V0200501N003119999999N0000001N9+00221+99999099711ADDGF103991999999999999999999
0029227070999991902052006004+62167+030650FM-12+010299999V0200501N004119999999N0000001N9+00561+99999099591ADDGF100991999999999999999999
0029227070999991902052013004+62167+030650FM-12+010299999V0200501N006219999999N0000001N9+01281+99999099681ADDGF102991999999999999999999
0029227070999991902052020004+62167+030650FM-12+010299999V0200501N002119999999N0000001N9+00671+99999099781ADDGF100991999999999999999999
0029227070999991902052106004+62167+030650FM-12+010299999V0200501N003119999999N0000001N9+00721+99999099791ADDGF102991999999999999999999
0029227070999991902052113004+62167+030650FM-12+010299999V0203201N007219999999N0000001N9+01331+99999100191ADDGF102991999999999999999999
0029227070999991902052120004+62167+030650FM-12+010299999V0202301N002119999999N0000001N9+00671+99999100621ADDGF101991999999999999999999
0029227070999991902052206004+62167+030650FM-12+010299999V0201401N002119999999N0000001N9+00831+99999100821ADDGF102991999999999999999999
0029227070999991902052213004+62167+030650FM-12+010299999V0202301N005119999999N0000001N9+01611+99999100861ADDGF102991999999999999999999
0029227070999991902052220004+62167+030650FM-12+010299999V0202301N004119999999N0000001N9+00831+99999101221ADDGF100991999999999999999999
0029227070999991902052306004+62167+030650FM-12+010299999V0200501N008219999999N0000001N9+00611+99999101261ADDGF108991999999999999999999
0029227070999991902052313004+62167+030650FM-12+010299999V0201401N009819999999N0000001N9+00671+99999100981ADDGF108991999999999999999999
0029227070999991902052320004+62167+030650FM-12+010299999V0201601N004119999999N0000001N9+00721+99999100511ADDGF108991999999999999999999
0035227070999991902052406004+62167+030650FM-12+010299999V0201801N003119999999N0000001N9+00501+99999100151ADDGF108991999999999999999999MW1621
0035227070999991902052413004+62167+030650FM-12+010299999V0202301N005119999999N0000001N9+00611+99999100271ADDGF108991999999999999999999MW1621
0029227070999991902052420004+62167+030650FM-12+010299999V0201601N004119999999N0000001N9+00611+99999100081ADDGF106991999999999999999999
0029227070999991902052506004+62167+030650FM-12+010299999V0202501N005119999999N0000001N9+00941+99999099961ADDGF102991999999999999999999
0029227070999991902052513004+62167+030650FM-12+010299999V0202501N006219999999N0000001N9+01281+99999100461ADDGF102991999999999999999999
0029227070999991902052520004+62167+030650FM-12+010299999V0202301N003119999999N0000001N9+00941+99999100361ADDGF102991999999999999999999
0029227070999991902052606004+62167+030650FM-12+010299999V0202501N003119999999N0000001N9+00891+99999099841ADDGF106991999999999999999999
0035227070999991902052613004+62167+030650FM-12+010299999V0201801N006219999999N0000001N9+01111+99999099361ADDGF108991999999999999999999MW1621
0029227070999991902052620004+62167+030650FM-12+010299999V0202001N004119999999N0000001N9+01001+99999099061ADDGF102991999999999999999999
0029227070999991902052706004+62167+030650FM-12+010299999V0202001N006219999999N0000001N9+00941+99999099141ADDGF105991999999999999999999
0029227070999991902052713004+62167+030650FM-12+010299999V0201801N007219999999N0000001N9+01561+99999099261ADDGF102991999999999999999999
0029227070999991902052720004+62167+030650FM-12+010299999V0201801N004119999999N0000001N9+01001+99999099391ADDGF102991999999999999999999
0029227070999991902052806004+62167+030650FM-12+010299999V0201601N003119999999N0000001N9+00941+99999099391ADDGF108991999999999999999999
0035227070999991902052813004+62167+030650FM-12+010299999V0202001N003119999999N0000001N9+00831+99999099521ADDGF108991999999999999999999MW1621
0029227070999991902052820004+62167+030650FM-12+010299999V0202701N002119999999N0000001N9+00891+99999099881ADDGF102991999999999999999999
0029227070999991902052906004+62167+030650FM-12+010299999V0201401N004119999999N0000001N9+00671+99999100221ADDGF108991999999999999999999
0029227070999991902052913004+62167+030650FM-12+010299999V0201401N006219999999N0000001N9+01831+99999100241ADDGF102991999999999999999999
0029227070999991902052920004+62167+030650FM-12+010299999V0201401N003119999999N0000001N9+01441+99999100281ADDGF103991999999999999999999
0029227070999991902053006004+62167+030650FM-12+010299999V0202301N005119999999N0000001N9+01671+99999100501ADDGF104991999999999999999999
0029227070999991902053013004+62167+030650FM-12+010299999V0202301N008219999999N0000001N9+02001+99999100841ADDGF101991999999999999999999
0029227070999991902053020004+62167+030650FM-12+010299999V0202301N002119999999N0000001N9+01561+99999101141ADDGF102991999999999999999999
0029227070999991902053106004+62167+030650FM-12+010299999V0203601N002119999999N0000001N9+01111+99999101741ADDGF102991999999999999999999
0035227070999991902053113004+62167+030650FM-12+010299999V0203201N003119999999N0000001N9+01061+99999101661ADDGF108991999999999999999999MW1621
0029227070999991902053120004+62167+030650FM-12+010299999V0203201N002119999999N0000001N9+00941+99999101381ADDGF107991999999999999999999
0035227070999991902060106004+62167+030650FM-12+010299999V0200501N004119999999N0000001N9+00781+99999100591ADDGF108991999999999999999999MW1621
0035227070999991902060113004+62167+030650FM-12+010299999V0200201N004119999999N0000001N9+00671+99999100951ADDGF108991999999999999999999MW1621
0029227070999991902060120004+62167+030650FM-12+010299999V0200501N003119999999N0000001N9+00501+99999101161ADDGF101991999999999999999999
0029227070999991902060206004+62167+030650FM-12+010299999V0203601N002119999999N0000001N9+00671+99999101121ADDGF102991999999999999999999
0029227070999991902060213004+62167+030650FM-12+010299999V0203601N005119999999N0000001N9+01001+99999101621ADDGF106991999999999999999999
0029227070999991902060220004+62167+030650FM-12+010299999V0203601N002119999999N0000001N9+00501+99999101501ADDGF101991999999999999999999
0029227070999991902060306004+62167+030650FM-12+010299999V0202301N004119999999N0000001N9+01061+99999100741ADDGF108991999999999999999999
0029227070999991902060313004+62167+030650FM-12+010299999V0203201N009819999999N0000001N9+01501+99999100481ADDGF104991999999999999999999
0029227070999991902060320004+62167+030650FM-12+010299999V0203601N005119999999N0000001N9+01061+99999100821ADDGF105991999999999999999999
0029227070999991902060406004+62167+030650FM-12+010299999V0203601N006219999999N0000001N9+00831+99999101281ADDGF102991999999999999999999
0029227070999991902060413004+62167+030650FM-12+010299999V0202901N008219999999N0000001N9+01441+99999101061ADDGF102991999999999999999999
0029227070999991902060420004+62167+030650FM-12+010299999V0202701N003119999999N0000001N9+01001+99999100521ADDGF108991999999999999999999
0029227070999991902060506004+62167+030650FM-12+010299999V0202901N007219999999N0000001N9+01001+99999098721ADDGF108991999999999999999999
0029227070999991902060513004+62167+030650FM-12+010299999V0203201N013919999999N0000001N9+01001+99999098951ADDGF104991999999999999999999
0029227070999991902060520004+62167+030650FM-12+010299999V0203601N002119999999N0000001N9+00721+99999099031ADDGF104991999999999999999999
0029227070999991902060606004+62167+030650FM-12+010299999V0200201N005119999999N0000001N9+00441+99999099351ADDGF103991999999999999999999
0029227070999991902060613004+62167+030650FM-12+010299999V0200201N008219999999N0000001N9+00501+99999099401ADDGF108991999999999999999999
0029227070999991902060620004+62167+030650FM-12+010299999V0203201N003119999999N0000001N9+00331+99999099421ADDGF108991999999999999999999
0029227070999991902060706004+62167+030650FM-12+010299999V0203201N002119999999N0000001N9+00561+99999099501ADDGF102991999999999999999999
0029227070999991902060713004+62167+030650FM-12+010299999V0202701N004119999999N0000001N9+00831+99999099711ADDGF108991999999999999999999
0029227070999991902060720004+62167+030650FM-12+010299999V0202701N002119999999N0000001N9+00561+99999099661ADDGF106991999999999999999999
0029227070999991902060806004+62167+030650FM-12+010299999V0201401N003119999999N0000001N9+00891+99999099621ADDGF100991999999999999999999
0029227070999991902060813004+62167+030650FM-12+010299999V0201801N006219999999N0000001N9+01001+99999099661ADDGF104991999999999999999999
0029227070999991902060820004+62167+030650FM-12+010299999V0203601N002119999999N0000001N9+00281+99999099711ADDGF101991999999999999999999
0029227070999991902060906004+62167+030650FM-12+010299999V0200501N004119999999N0000001N9+01001+99999099621ADDGF100991999999999999999999
0035227070999991902060913004+62167+030650FM-12+010299999V0200501N008219999999N0000001N9+01221+99999099351ADDGF108991999999999999999999MW1621
0035227070999991902060920004+62167+030650FM-12+010299999V0200501N006219999999N0000001N9+01001+99999098781ADDGF108991999999999999999999MW1621
0029227070999991902061006004+62167+030650FM-12+010299999V0201801N003119999999N0000001N9+01061+99999098911ADDGF108991999999999999999999
0029227070999991902061013004+62167+030650FM-12+010299999V0202001N009819999999N0000001N9+01391+99999099061ADDGF103991999999999999999999
0029227070999991902061020004+62167+030650FM-12+010299999V0202301N004119999999N0000001N9+00941+99999099391ADDGF107991999999999999999999
0029227070999991902061106004+62167+030650FM-12+010299999V0202301N004119999999N0000001N9+00831+99999099901ADDGF105991999999999999999999
0029227070999991902061113004+62167+030650FM-12+010299999V0202301N005119999999N0000001N9+01441+99999099661ADDGF103991999999999999999999
0035227070999991902061120004+62167+030650FM-12+010299999V0202301N004119999999N0000001N9+01171+99999099061ADDGF108991999999999999999999MW1621
0029227070999991902061206004+62167+030650FM-12+010299999V0202301N003119999999N0000001N9+00831+99999099901ADDGF102991999999999999999999
0029227070999991902061213004+62167+030650FM-12+010299999V0202501N004119999999N0000001N9+01441+99999100301ADDGF103991999999999999999999
0029227070999991902061220004+62167+030650FM-12+010299999V0202701N002119999999N0000001N9+01001+99999100711ADDGF100991999999999999999999
0029227070999991902061306004+62167+030650FM-12+010299999V0202701N002119999999N0000001N9+01221+99999100941ADDGF102991999999999999999999
0029227070999991902061313004+62167+030650FM-12+010299999V0201401N004119999999N0000001N9+01941+99999100921ADDGF102991999999999999999999
0029227070999991902061320004+62167+030650FM-12+010299999V0203601N002119999999N0000001N9+01221+99999100881ADDGF102991999999999999999999
0029227070999991902061406004+62167+030650FM-12+010299999V0202001N002119999999N0000001N9+01611+99999100801ADDGF102991999999999999999999
0029227070999991902061413004+62167+030650FM-12+010299999V0201401N005119999999N0000001N9+02061+99999100521ADDGF108991999999999999999999
0035227070999991902061420004+62167+030650FM-12+010299999V0200501N005119999999N0000001N9+01441+99999100261ADDGF108991999999999999999999MW1621
0029227070999991902061506004+62167+030650FM-12+010299999V0200701N003119999999N0000001N9+01441+99999098831ADDGF108991999999999999999999
0029227070999991902061513004+62167+030650FM-12+010299999V0200701N004119999999N0000001N9+02061+99999099361ADDGF102991999999999999999999
0029227070999991902061520004+62167+030650FM-12+010299999V0200501N003119999999N0000001N9+01831+99999099441ADDGF103991999999999999999999
0029227070999991902061606004+62167+030650FM-12+010299999V0201101N003119999999N0000001N9+01721+99999099401ADDGF103991999999999999999999
0029227070999991902061613004+62167+030650FM-12+010299999V0201101N005119999999N0000001N9+02391+99999099301ADDGF102991999999999999999999
0029227070999991902061620004+62167+030650FM-12+010299999V0201801N002119999999N0000001N9+01891+99999099341ADDGF108991999999999999999999
0029227070999991902061706004+62167+030650FM-12+010299999V0200501N003119999999N0000001N9+01671+99999099201ADDGF108991999999999999999999
0029227070999991902061713004+62167+030650FM-12+010299999V0200201N004119999999N0000001N9+01111+99999099181ADDGF108991999999999999999999
0029227070999991902061720004+62167+030650FM-12+010299999V0200501N002119999999N0000001N9+01611+99999099481ADDGF108991999999999999999999
0029227070999991902061806004+62167+030650FM-12+010299999V0200201N003119999999N0000001N9+00721+99999099721ADDGF108991999999999999999999
0035227070999991902061813004+62167+030650FM-12+010299999V0203601N003119999999N0000001N9+00941+99999100201ADDGF108991999999999999999999MW1621
0029227070999991902061820004+62167+030650FM-12+010299999V0203201N002119999999N0000001N9+00831+99999100551ADDGF108991999999999999999999
0029227070999991902061906004+62167+030650FM-12+010299999V0200501N003119999999N0000001N9+00781+99999101241ADDGF108991999999999999999999
0029227070999991902061913004+62167+030650FM-12+010299999V0202301N004119999999N0000001N9+01611+99999101161ADDGF102991999999999999999999
0029227070999991902061920004+62167+030650FM-12+010299999V0201801N002119999999N0000001N9+01441+99999101151ADDGF100991999999999999999999
0029227070999991902062006004+62167+030650FM-12+010299999V0200501N002119999999N0000001N9+01221+99999101151ADDGF103991999999999999999999
0029227070999991902062013004+62167+030650FM-12+010299999V0203601N004119999999N0000001N9+02001+99999100861ADDGF100991999999999999999999
0029227070999991902062020004+62167+030650FM-12+010299999V0203601N001019999999N0000001N9+01611+99999100671ADDGF102991999999999999999999
0029227070999991902062106004+62167+030650FM-12+010299999V0200201N003119999999N0000001N9+01441+99999100561ADDGF103991999999999999999999
0029227070999991902062113004+62167+030650FM-12+010299999V0200501N003119999999N0000001N9+02221+99999100301ADDGF106991999999999999999999
0029227070999991902062120004+62167+030650FM-12+010299999V0200901N002119999999N0000001N9+01671+99999100111ADDGF108991999999999999999999
0029227070999991902062206004+62167+030650FM-12+010299999V0200701N008219999999N0000001N9+01721+99999100341ADDGF107991999999999999999999
0029227070999991902062213004+62167+030650FM-12+010299999V0200501N009819999999N0000001N9+01671+99999100401ADDGF105991999999999999999999
0029227070999991902062220004+62167+030650FM-12+010299999V0200501N008219999999N0000001N9+01001+99999100501ADDGF106991999999999999999999
0029227070999991902062306004+62167+030650FM-12+010299999V0200501N009819999999N0000001N9+01111+99999100481ADDGF101991999999999999999999
0029227070999991902062313004+62167+030650FM-12+010299999V0200501N015919999999N0000001N9+01671+99999100521ADDGF100991999999999999999999
0029227070999991902062320004+62167+030650FM-12+010299999V0200501N004119999999N0000001N9+01171+99999100711ADDGF100991999999999999999999
0029227070999991902062406004+62167+030650FM-12+010299999V0200501N008219999999N0000001N9+01001+99999100861ADDGF108991999999999999999999
0029227070999991902062413004+62167+030650FM-12+010299999V0200501N009819999999N0000001N9+01391+99999100881ADDGF108991999999999999999999
0029227070999991902062420004+62167+030650FM-12+010299999V0200501N001019999999N0000001N9+00941+99999101111ADDGF101991999999999999999999
0029227070999991902062506004+62167+030650FM-12+010299999V0200501N008219999999N0000001N9+00781+99999101311ADDGF104991999999999999999999
0029227070999991902062513004+62167+030650FM-12+010299999V0203601N006219999999N0000001N9+01111+99999101201ADDGF108991999999999999999999
0029227070999991902062520004+62167+030650FM-12+010299999V0203601N002119999999N0000001N9+00941+99999101061ADDGF108991999999999999999999
0029227070999991902062606004+62167+030650FM-12+010299999V0200501N006219999999N0000001N9+00721+99999101241ADDGF106991999999999999999999
0029227070999991902062613004+62167+030650FM-12+010299999V0203201N006219999999N0000001N9+01221+99999101111ADDGF106991999999999999999999
0029227070999991902062620004+62167+030650FM-12+010299999V0200501N002119999999N0000001N9+00941+99999100991ADDGF108991999999999999999999
0029227070999991902062706004+62167+030650FM-12+010299999V0200501N008219999999N0000001N9+00941+99999100991ADDGF100991999999999999999999
0029227070999991902062713004+62167+030650FM-12+010299999V0203601N006219999999N0000001N9+01561+99999100721ADDGF106991999999999999999999
0029227070999991902062720004+62167+030650FM-12+010299999V0203201N002119999999N0000001N9+01281+99999100561ADDGF107991999999999999999999
0029227070999991902062806004+62167+030650FM-12+010299999V0201401N002119999999N0000001N9+01281+99999100471ADDGF105991999999999999999999
0035227070999991902062813004+62167+030650FM-12+010299999V0201401N002119999999N0000001N9+01221+99999100021ADDGF108991999999999999999999MW1621
0035227070999991902062820004+62167+030650FM-12+010299999V0201401N004119999999N0000001N9+01061+99999099281ADDGF108991999999999999999999MW1621
0029227070999991902062906004+62167+030650FM-12+010299999V0202701N006219999999N0000001N9+01171+99999098871ADDGF108991999999999999999999
0029227070999991902062913004+62167+030650FM-12+010299999V0203201N008219999999N0000001N9+01221+99999098991ADDGF108991999999999999999999
0029227070999991902062920004+62167+030650FM-12+010299999V0203201N006219999999N0000001N9+01061+99999099181ADDGF102991999999999999999999
0029227070999991902063006004+62167+030650FM-12+010299999V0203201N009819999999N0000001N9+00941+99999099481ADDGF105991999999999999999999
0029227070999991902063013004+62167+030650FM-12+010299999V0203201N009819999999N0000001N9+01061+99999099761ADDGF108991999999999999999999
0029227070999991902063020004+62167+030650FM-12+010299999V0203201N004119999999N0000001N9+00721+99999100021ADDGF101991999999999999999999
0029227070999991902070106004+62167+030650FM-12+010299999V0203201N002119999999N0000001N9+00941+99999100241ADDGF103991999999999999999999
0029227070999991902070113004+62167+030650FM-12+010299999V0201401N009819999999N0000001N9+01561+99999099871ADDGF107991999999999999999999
0029227070999991902070120004+62167+030650FM-12+010299999V0200901N015919999999N0000001N9+01221+99999099361ADDGF108991999999999999999999
0035227070999991902070206004+62167+030650FM-12+010299999V0201101N004119999999N0000001N9+01221+99999098821ADDGF108991999999999999999999MW1621
0035227070999991902070213004+62167+030650FM-12+010299999V0201401N004119999999N0000001N9+01331+99999098591ADDGF108991999999999999999999MW1621
0029227070999991902070220004+62167+030650FM-12+010299999V0203201N006219999999N0000001N9+01061+99999098831ADDGF108991999999999999999999
0029227070999991902070306004+62167+030650FM-12+010299999V0203601N004119999999N0000001N9+01281+99999099281ADDGF104991999999999999999999
0029227070999991902070313004+62167+030650FM-12+010299999V0200501N006219999999N0000001N9+01611+99999099501ADDGF107991999999999999999999
0029227070999991902070320004+62167+030650FM-12+010299999V0203201N004119999999N0000001N9+01611+99999099741ADDGF103991999999999999999999
0029227070999991902070406004+62167+030650FM-12+010299999V0203201N002119999999N0000001N9+01281+99999100281ADDGF100991999999999999999999
0029227070999991902070413004+62167+030650FM-12+010299999V0203601N002119999999N0000001N9+01831+99999100321ADDGF106991999999999999999999
0029227070999991902070420004+62167+030650FM-12+010299999V0209991C000019999999N0000001N9+01611+99999100141ADDGF106991999999999999999999
0029227070999991902070506004+62167+030650FM-12+010299999V0209991C000019999999N0000001N9+01221+99999099871ADDGF108991999999999999999999
0029227070999991902070513004+62167+030650FM-12+010299999V0201401N005119999999N0000001N9+01561+99999099681ADDGF107991999999999999999999
0029227070999991902070520004+62167+030650FM-12+010299999V0201401N002119999999N0000001N9+01221+99999099551ADDGF102991999999999999999999
0029227070999991902070606004+62167+030650FM-12+010299999V0200501N002119999999N0000001N9+01501+99999099581ADDGF105991999999999999999999
0029227070999991902070613004+62167+030650FM-12+010299999V0203601N009819999999N0000001N9+01941+99999099431ADDGF106991999999999999999999
0029227070999991902070620004+62167+030650FM-12+010299999V0200501N004119999999N0000001N9+01611+99999099341ADDGF108991999999999999999999
0029227070999991902070706004+62167+030650FM-12+010299999V0203201N002119999999N0000001N9+01391+99999099241ADDGF108991999999999999999999
0029227070999991902070713004+62167+030650FM-12+010299999V0203201N008219999999N0000001N9+01501+99999099341ADDGF108991999999999999999999
0029227070999991902070720004+62167+030650FM-12+010299999V0203601N004119999999N0000001N9+01281+99999099261ADDGF107991999999999999999999
0035227070999991902070806004+62167+030650FM-12+010299999V0200501N004119999999N0000001N9+00941+99999099241ADDGF108991999999999999999999MW1621
0035227070999991902070813004+62167+030650FM-12+010299999V0203201N006219999999N0000001N9+00891+99999099281ADDGF108991999999999999999999MW1621
0029227070999991902070820004+62167+030650FM-12+010299999V0203601N006219999999N0000001N9+00561+99999099271ADDGF108991999999999999999999
0029227070999991902070906004+62167+030650FM-12+010299999V0203601N005119999999N0000001N9+00561+99999099141ADDGF108991999999999999999999
0035227070999991902070913004+62167+030650FM-12+010299999V0203201N007219999999N0000001N9+00671+99999099201ADDGF108991999999999999999999MW1621
0029227070999991902070920004+62167+030650FM-12+010299999V0203601N005119999999N0000001N9+00721+99999099311ADDGF108991999999999999999999
0029227070999991902071006004+62167+030650FM-12+010299999V0203601N004119999999N0000001N9+00721+99999099381ADDGF108991999999999999999999
0035227070999991902071013004+62167+030650FM-12+010299999V0203601N006219999999N0000001N9+01221+99999099321ADDGF108991999999999999999999MW1621
0029227070999991902071020004+62167+030650FM-12+010299999V0203601N004119999999N0000001N9+01061+99999099231ADDGF108991999999999999999999
0029227070999991902071106004+62167+030650FM-12+010299999V0200201N001019999999N0000001N9+01001+99999099221ADDGF108991999999999999999999
0029227070999991902071113004+62167+030650FM-12+010299999V0201401N002119999999N0000001N9+01441+99999099311ADDGF108991999999999999999999
0029227070999991902071120004+62167+030650FM-12+010299999V0201401N001019999999N0000001N9+01061+99999099421ADDGF105991999999999999999999
0029227070999991902071206004+62167+030650FM-12+010299999V0200901N003119999999N0000001N9+01281+99999099141ADDGF108991999999999999999999
0035227070999991902071213004+62167+030650FM-12+010299999V0200501N004119999999N0000001N9+01501+99999098601ADDGF108991999999999999999999MW1621
0029227070999991902071220004+62167+030650FM-12+010299999V0201401N002119999999N0000001N9+01281+99999099161ADDGF108991999999999999999999
0029227070999991902071306004+62167+030650FM-12+010299999V0201401N008219999999N0000001N9+01221+99999099511ADDGF108991999999999999999999
0029227070999991902071313004+62167+030650FM-12+010299999V0201401N008219999999N0000001N9+01501+99999099921ADDGF108991999999999999999999
0029227070999991902071320004+62167+030650FM-12+010299999V0201401N002119999999N0000001N9+01281+99999099871ADDGF106991999999999999999999
0029227070999991902071406004+62167+030650FM-12+010299999V0201401N001019999999N0000001N9+01331+99999100361ADDGF101991999999999999999999
0029227070999991902071413004+62167+030650FM-12+010299999V0201801N006219999999N0000001N9+02001+99999100261ADDGF103991999999999999999999
0029227070999991902071420004+62167+030650FM-12+010299999V0201401N002119999999N0000001N9+01331+99999100111ADDGF102991999999999999999999
0029227070999991902071506004+62167+030650FM-12+010299999V0203201N004119999999N0000001N9+01501+99999099941ADDGF106991999999999999999999
0029227070999991902071513004+62167+030650FM-12+010299999V0203201N002119999999N0000001N9+01781+99999099801ADDGF108991999999999999999999
0029227070999991902071520004+62167+030650FM-12+010299999V0203601N006219999999N0000001N9+01721+99999099711ADDGF108991999999999999999999
0029227070999991902071606004+62167+030650FM-12+010299999V0203201N006219999999N0000001N9+01501+99999099511ADDGF108991999999999999999999
0029227070999991902071613004+62167+030650FM-12+010299999V0209991C000019999999N0000001N9+02171+99999099481ADDGF107991999999999999999999
0029227070999991902071620004+62167+030650FM-12+010299999V0201401N001019999999N0000001N9+01611+99999099741ADDGF106991999999999999999999
0029227070999991902071706004+62167+030650FM-12+010299999V0209991C000019999999N0000001N9+01611+99999099801ADDGF106991999999999999999999
0035227070999991902071713004+62167+030650FM-12+010299999V0203201N002119999999N0000001N9+02171+99999099711ADDGF105991999999999999999999MW1621
0029227070999991902071720004+62167+030650FM-12+010299999V0200501N001019999999N0000001N9+01501+99999099761ADDGF101991999999999999999999
0029227070999991902071806004+62167+030650FM-12+010299999V0200901N003119999999N0000001N9+01831+99999099781ADDGF101991999999999999999999
0029227070999991902071813004+62167+030650FM-12+010299999V0201801N003119999999N0000001N9+02441+99999099671ADDGF105991999999999999999999
0029227070999991902071820004+62167+030650FM-12+010299999V0203201N001019999999N0000001N9+01561+99999099621ADDGF105991999999999999999999
0035227070999991902071906004+62167+030650FM-12+010299999V0203201N006219999999N0000001N9+01441+99999098951ADDGF108991999999999999999999MW1621
0035227070999991902071913004+62167+030650FM-12+010299999V0203201N006219999999N0000001N9+01561+99999098601ADDGF108991999999999999999999MW1621
0035227070999991902071920004+62167+030650FM-12+010299999V0200901N004119999999N0000001N9+01501+99999098781ADDGF108991999999999999999999MW1621
0029227070999991902072006004+62167+030650FM-12+010299999V0201801N002119999999N0000001N9+01331+99999098881ADDGF108991999999999999999999
0029227070999991902072013004+62167+030650FM-12+010299999V0201801N006219999999N0000001N9+01721+99999099431ADDGF108991999999999999999999
0029227070999991902072020004+62167+030650FM-12+010299999V0201401N005119999999N0000001N9+01221+99999099681ADDGF108991999999999999999999
0029227070999991902072106004+62167+030650FM-12+010299999V0201801N005119999999N0000001N9+01281+99999100151ADDGF108991999999999999999999
0029227070999991902072113004+62167+030650FM-12+010299999V0201801N006219999999N0000001N9+01721+99999100231ADDGF106991999999999999999999
0029227070999991902072120004+62167+030650FM-12+010299999V0201401N002119999999N0000001N9+01331+99999100181ADDGF106991999999999999999999
0035227070999991902072206004+62167+030650FM-12+010299999V0200501N002119999999N0000001N9+01331+99999100141ADDGF108991999999999999999999MW1621
0035227070999991902072213004+62167+030650FM-12+010299999V0203201N003119999999N0000001N9+01671+99999100061ADDGF108991999999999999999999MW1621
0029227070999991902072220004+62167+030650FM-12+010299999V0200501N002119999999N0000001N9+01501+99999099881ADDGF106991999999999999999999
0029227070999991902072306004+62167+030650FM-12+010299999V0203601N005119999999N0000001N9+01281+99999099421ADDGF108991999999999999999999
0029227070999991902072313004+62167+030650FM-12+010299999V0203201N003119999999N0000001N9+01441+99999099561ADDGF108991999999999999999999
0029227070999991902072320004+62167+030650FM-12+010299999V0202701N003119999999N0000001N9+01281+99999099911ADDGF108991999999999999999999
0035227070999991902072406004+62167+030650FM-12+010299999V0201401N002119999999N0000001N9+01331+99999100361ADDGF108991999999999999999999MW1621
0035227070999991902072413004+62167+030650FM-12+010299999V0201801N001019999999N0000001N9+01941+99999100461ADDGF106991999999999999999999MW1621
0029227070999991902072420004+62167+030650FM-12+010299999V0202301N001019999999N0000001N9+01561+99999100391ADDGF108991999999999999999999
0029227070999991902072506004+62167+030650FM-12+010299999V0203601N004119999999N0000001N9+01391+99999099841ADDGF108991999999999999999999
0035227070999991902072513004+62167+030650FM-12+010299999V0202701N004119999999N0000001N9+01391+99999099721ADDGF108991999999999999999999MW1621
0029227070999991902072520004+62167+030650FM-12+010299999V0202301N002119999999N0000001N9+01221+99999099981ADDGF107991999999999999999999
0029227070999991902072606004+62167+030650FM-12+010299999V0209991C000019999999N0000001N9+01391+99999100401ADDGF100991999999999999999999
0029227070999991902072613004+62167+030650FM-12+010299999V0202301N001019999999N0000001N9+02001+99999100341ADDGF105991999999999999999999
0029227070999991902072620004+62167+030650FM-12+010299999V0201801N001019999999N0000001N9+01391+99999100241ADDGF102991999999999999999999
0029227070999991902072706004+62167+030650FM-12+010299999V0201801N001019999999N0000001N9+01391+99999100431ADDGF103991999999999999999999
0029227070999991902072713004+62167+030650FM-12+010299999V0202301N004119999999N0000001N9+01941+99999100231ADDGF105991999999999999999999
0029227070999991902072720004+62167+030650FM-12+010299999V0200501N002119999999N0000001N9+01281+99999099951ADDGF106991999999999999999999
0029227070999991902072806004+62167+030650FM-12+010299999V0201401N004119999999N0000001N9+01331+99999099161ADDGF108991999999999999999999
0029227070999991902072813004+62167+030650FM-12+010299999V0201801N005119999999N0000001N9+02001+99999099151ADDGF106991999999999999999999
0029227070999991902072820004+62167+030650FM-12+010299999V0201801N003119999999N0000001N9+01561+99999099191ADDGF108991999999999999999999
0029227070999991902072906004+62167+030650FM-12+010299999V0201801N003119999999N0000001N9+01331+99999099311ADDGF108991999999999999999999
0035227070999991902072913004+62167+030650FM-12+010299999V0202301N004119999999N0000001N9+01721+99999099441ADDGF104991999999999999999999MW1621
0029227070999991902072920004+62167+030650FM-12+010299999V0201801N006219999999N0000001N9+01111+99999099641ADDGF102991999999999999999999
0029227070999991902073006004+62167+030650FM-12+010299999V0201801N003119999999N0000001N9+01221+99999099601ADDGF107991999999999999999999
0035227070999991902073013004+62167+030650FM-12+010299999V0202301N003119999999N0000001N9+01501+99999099911ADDGF107991999999999999999999MW1621
0029227070999991902073020004+62167+030650FM-12+010299999V0201401N002119999999N0000001N9+01221+99999100141ADDGF103991999999999999999999
0029227070999991902073106004+62167+030650FM-12+010299999V0201801N003119999999N0000001N9+01221+99999100151ADDGF108991999999999999999999
0035227070999991902073113004+62167+030650FM-12+010299999V0201801N008219999999N0000001N9+01221+99999100161ADDGF108991999999999999999999MW1621
0029227070999991902073120004+62167+030650FM-12+010299999V0201801N002119999999N0000001N9+01111+99999100141ADDGF108991999999999999999999
0029227070999991902080106004+62167+030650FM-12+010299999V0201801N002119999999N0000001N9+01111+99999100151ADDGF108991999999999999999999
0029227070999991902080113004+62167+030650FM-12+010299999V0200901N002119999999N0000001N9+01721+99999100041ADDGF106991999999999999999999
0029227070999991902080120004+62167+030650FM-12+010299999V0201801N004119999999N0000001N9+01281+99999099801ADDGF103991999999999999999999
0035227070999991902080206004+62167+030650FM-12+010299999V0203601N002119999999N0000001N9+01171+99999099581ADDGF108991999999999999999999MW1621
0035227070999991902080213004+62167+030650FM-12+010299999V0203601N001019999999N0000001N9+01501+99999099561ADDGF108991999999999999999999MW1621
0029227070999991902080220004+62167+030650FM-12+010299999V0203201N004119999999N0000001N9+01441+99999099481ADDGF108991999999999999999999
0029227070999991902080306004+62167+030650FM-12+010299999V0203601N004119999999N0000001N9+01501+99999099781ADDGF108991999999999999999999
0035227070999991902080313004+62167+030650FM-12+010299999V0203201N006219999999N0000001N9+01781+99999099881ADDGF106991999999999999999999MW1621
0029227070999991902080320004+62167+030650FM-12+010299999V0209991C000019999999N0000001N9+01391+99999099991ADDGF108991999999999999999999
0029227070999991902080406004+62167+030650FM-12+010299999V0203601N003119999999N0000001N9+01281+99999100071ADDGF108991999999999999999999
0035227070999991902080413004+62167+030650FM-12+010299999V0203201N002119999999N0000001N9+01501+99999100031ADDGF108991999999999999999999MW1621
0029227070999991902080420004+62167+030650FM-12+010299999V0200501N002119999999N0000001N9+01281+99999100021ADDGF108991999999999999999999
0029227070999991902080506004+62167+030650FM-12+010299999V0201401N004119999999N0000001N9+01331+99999100041ADDGF108991999999999999999999
0029227070999991902080513004+62167+030650FM-12+010299999V0201601N003119999999N0000001N9+01671+99999100061ADDGF107991999999999999999999
0029227070999991902080520004+62167+030650FM-12+010299999V0201401N002119999999N0000001N9+01331+99999100181ADDGF102991999999999999999999
0029227070999991902080606004+62167+030650FM-12+010299999V0201401N002119999999N0000001N9+01331+99999100261ADDGF105991999999999999999999
0029227070999991902080613004+62167+030650FM-12+010299999V0201401N002119999999N0000001N9+01891+99999100181ADDGF104991999999999999999999
0029227070999991902080620004+62167+030650FM-12+010299999V0203601N002119999999N0000001N9+01331+99999999999ADDGF108991999999999999999999
0029227070999991902080706004+62167+030650FM-12+010299999V0209991C000019999999N0000001N9+01501+99999099841ADDGF105991999999999999999999
0029227070999991902080713004+62167+030650FM-12+010299999V0209991C000019999999N0000001N9+01501+99999099821ADDGF108991999999999999999999
0029227070999991902080720004+62167+030650FM-12+010299999V0200901N001019999999N0000001N9+01331+99999099911ADDGF106991999999999999999999
0029227070999991902080806004+62167+030650FM-12+010299999V0200901N002119999999N0000001N9+01281+99999099941ADDGF108991999999999999999999
0029227070999991902080813004+62167+030650FM-12+010299999V0201401N004119999999N0000001N9+01721+99999099901ADDGF107991999999999999999999
0029227070999991902080820004+62167+030650FM-12+010299999V0203201N004119999999N0000001N9+01281+99999099901ADDGF108991999999999999999999
0029227070999991902080906004+62167+030650FM-12+010299999V0202901N003119999999N0000001N9+01221+99999100101ADDGF101991999999999999999999
0029227070999991902080913004+62167+030650FM-12+010299999V0209991C000019999999N0000001N9+02001+99999100101ADDGF104991999999999999999999
0029227070999991902080920004+62167+030650FM-12+010299999V0202301N001019999999N0000001N9+01331+99999100111ADDGF107991999999999999999999
0029227070999991902081006004+62167+030650FM-12+010299999V0201401N002119999999N0000001N9+01391+99999099861ADDGF108991999999999999999999
0035227070999991902081013004+62167+030650FM-12+010299999V0200501N008219999999N0000001N9+01561+99999099081ADDGF108991999999999999999999MW1621
0029227070999991902081020004+62167+030650FM-12+010299999V0201801N002119999999N0000001N9+01391+99999099381ADDGF102991999999999999999999
0029227070999991902081106004+62167+030650FM-12+010299999V0201801N002119999999N0000001N9+01441+99999099791ADDGF102991999999999999999999
0029227070999991902081113004+62167+030650FM-12+010299999V0202301N002119999999N0000001N9+01671+99999099981ADDGF103991999999999999999999
0029227070999991902081120004+62167+030650FM-12+010299999V0201401N002119999999N0000001N9+01111+99999100021ADDGF101991999999999999999999
0029227070999991902081206004+62167+030650FM-12+010299999V0201401N005119999999N0000001N9+01331+99999099961ADDGF105991999999999999999999
0029227070999991902081213004+62167+030650FM-12+010299999V0201801N006219999999N0000001N9+01721+99999100101ADDGF106991999999999999999999
0029227070999991902081220004+62167+030650FM-12+010299999V0201401N003119999999N0000001N9+01331+99999100231ADDGF108991999999999999999999
0029227070999991902081306004+62167+030650FM-12+010299999V0200501N001019999999N0000001N9+01391+99999099911ADDGF108991999999999999999999
0035227070999991902081313004+62167+030650FM-12+010299999V0200501N002119999999N0000001N9+01501+99999099631ADDGF108991999999999999999999MW1621
0029227070999991902081320004+62167+030650FM-12+010299999V0200501N005119999999N0000001N9+01331+99999099181ADDGF108991999999999999999999
0029227070999991902081406004+62167+030650FM-12+010299999V0201601N003119999999N0000001N9+01331+99999099101ADDGF108991999999999999999999
0029227070999991902081413004+62167+030650FM-12+010299999V0201401N003119999999N0000001N9+01671+99999099271ADDGF103991999999999999999999
0035227070999991902081420004+62167+030650FM-12+010299999V0209991C000019999999N0000001N9+01501+99999099321ADDGF108991999999999999999999MW1621
0029227070999991902081506004+62167+030650FM-12+010299999V0200501N005119999999N0000001N9+01501+99999098461ADDGF108991999999999999999999
0035227070999991902081513004+62167+030650FM-12+010299999V0201401N006219999999N0000001N9+01561+99999098001ADDGF108991999999999999999999MW1621
0029227070999991902081520004+62167+030650FM-12+010299999V0201401N009819999999N0000001N9+01331+99999097941ADDGF108991999999999999999999
0029227070999991902081606004+62167+030650FM-12+010299999V0201601N009819999999N0000001N9+01111+99999098921ADDGF108991999999999999999999
0029227070999991902081613004+62167+030650FM-12+010299999V0201401N009819999999N0000001N9+01391+99999099161ADDGF108991999999999999999999
0035227070999991902081620004+62167+030650FM-12+010299999V0201401N003119999999N0000001N9+01171+99999099321ADDGF106991999999999999999999MW1621
0029227070999991902081706004+62167+030650FM-12+010299999V0201601N003119999999N0000001N9+01171+99999099581ADDGF108991999999999999999999
0029227070999991902081713004+62167+030650FM-12+010299999V0201401N006219999999N0000001N9+01391+99999099951ADDGF105991999999999999999999
0029227070999991902081720004+62167+030650FM-12+010299999V0201401N002119999999N0000001N9+01061+99999099741ADDGF102991999999999999999999
0029227070999991902081806004+62167+030650FM-12+010299999V0201401N001019999999N0000001N9+01111+99999099921ADDGF106991999999999999999999
0029227070999991902081813004+62167+030650FM-12+010299999V0202701N005119999999N0000001N9+01781+99999100101ADDGF106991999999999999999999
0029227070999991902081820004+62167+030650FM-12+010299999V0202901N002119999999N0000001N9+01001+99999100381ADDGF101991999999999999999999
0029227070999991902081906004+62167+030650FM-12+010299999V0209991C000019999999N0000001N9+00831+99999100801ADDGF100991999999999999999999
0029227070999991902081913004+62167+030650FM-12+010299999V0209991C000019999999N0000001N9+01891+99999100841ADDGF104991999999999999999999
0029227070999991902081920004+62167+030650FM-12+010299999V0201401N002119999999N0000001N9+01061+99999100721ADDGF105991999999999999999999
0029227070999991902082006004+62167+030650FM-12+010299999V0200901N002119999999N0000001N9+01221+99999100381ADDGF106991999999999999999999
0035227070999991902082013004+62167+030650FM-12+010299999V0201401N006219999999N0000001N9+01501+99999100071ADDGF108991999999999999999999MW1621
0035227070999991902082020004+62167+030650FM-12+010299999V0201401N004119999999N0000001N9+01221+99999099791ADDGF108991999999999999999999MW1621
0029227070999991902082106004+62167+030650FM-12+010299999V0201601N002119999999N0000001N9+01391+99999099561ADDGF108991999999999999999999
0029227070999991902082113004+62167+030650FM-12+010299999V0200901N003119999999N0000001N9+01501+99999099321ADDGF108991999999999999999999
0035227070999991902082120004+62167+030650FM-12+010299999V0201401N001019999999N0000001N9+01391+99999098821ADDGF108991999999999999999999MW1621
0029227070999991902082206004+62167+030650FM-12+010299999V0202701N005119999999N0000001N9+01001+99999099471ADDGF102991999999999999999999
0035227070999991902082213004+62167+030650FM-12+010299999V0202301N002119999999N0000001N9+01061+99999099761ADDGF108991999999999999999999MW1621
0035227070999991902082220004+62167+030650FM-12+010299999V0201801N002119999999N0000001N9+01001+99999099911ADDGF108991999999999999999999MW1621
0029227070999991902082306004+62167+030650FM-12+010299999V0201801N004119999999N0000001N9+00891+99999099761ADDGF108991999999999999999999
0029227070999991902082313004+62167+030650FM-12+010299999V0202301N008219999999N0000001N9+01001+99999100081ADDGF108991999999999999999999
0035227070999991902082320004+62167+030650FM-12+010299999V0202301N004119999999N0000001N9+01001+99999100511ADDGF106991999999999999999999MW1621
0029227070999991902082406004+62167+030650FM-12+010299999V0202301N004119999999N0000001N9+01111+99999100871ADDGF108991999999999999999999
0029227070999991902082413004+62167+030650FM-12+010299999V0202301N004119999999N0000001N9+01331+99999101031ADDGF108991999999999999999999
0029227070999991902082420004+62167+030650FM-12+010299999V0202301N001019999999N0000001N9+01221+99999100961ADDGF106991999999999999999999
0029227070999991902082506004+62167+030650FM-12+010299999V0202301N001019999999N0000001N9+00781+99999101031ADDGF100991999999999999999999
0035227070999991902082513004+62167+030650FM-12+010299999V0202301N003119999999N0000001N9+01831+99999100911ADDGF106991999999999999999999MW1621
0029227070999991902082520004+62167+030650FM-12+010299999V0202701N003119999999N0000001N9+01061+99999100661ADDGF103991999999999999999999
0029227070999991902082606004+62167+030650FM-12+010299999V0201401N002119999999N0000001N9+01061+99999100711ADDGF108991999999999999999999
0029227070999991902082613004+62167+030650FM-12+010299999V0201801N003119999999N0000001N9+01441+99999100281ADDGF108991999999999999999999
0029227070999991902082620004+62167+030650FM-12+010299999V0200501N004119999999N0000001N9+01171+99999099881ADDGF108991999999999999999999
0029227070999991902082706004+62167+030650FM-12+010299999V0200501N003119999999N0000001N9+01171+99999100271ADDGF108991999999999999999999
0029227070999991902082713004+62167+030650FM-12+010299999V0203601N004119999999N0000001N9+01501+99999100661ADDGF108991999999999999999999
0029227070999991902082720004+62167+030650FM-12+010299999V0203201N002119999999N0000001N9+01061+99999100881ADDGF101991999999999999999999
0029227070999991902082806004+62167+030650FM-12+010299999V0209991C000019999999N0000001N9+00941+99999101041ADDGF100991999999999999999999
0029227070999991902082813004+62167+030650FM-12+010299999V0203401N003119999999N0000001N9+01501+99999100981ADDGF105991999999999999999999
0029227070999991902082820004+62167+030650FM-12+010299999V0200501N003119999999N0000001N9+00941+99999100941ADDGF105991999999999999999999
0029227070999991902082906004+62167+030650FM-12+010299999V0203201N002119999999N0000001N9+00831+99999101161ADDGF108991999999999999999999
0029227070999991902082913004+62167+030650FM-12+010299999V0203201N002119999999N0000001N9+01061+99999100841ADDGF108991999999999999999999
0029227070999991902082920004+62167+030650FM-12+010299999V0203601N002119999999N0000001N9+00891+99999100431ADDGF106991999999999999999999
0029227070999991902083006004+62167+030650FM-12+010299999V0203201N003119999999N0000001N9+00831+99999100551ADDGF108991999999999999999999
0029227070999991902083013004+62167+030650FM-12+010299999V0203201N006219999999N0000001N9+01171+99999100591ADDGF103991999999999999999999
0029227070999991902083020004+62167+030650FM-12+010299999V0200501N004119999999N0000001N9+00781+99999100751ADDGF108991999999999999999999
0029227070999991902083106004+62167+030650FM-12+010299999V0200501N006219999999N0000001N9+00501+99999101241ADDGF108991999999999999999999
0029227070999991902083113004+62167+030650FM-12+010299999V0200501N004119999999N0000001N9+00941+99999101071ADDGF108991999999999999999999
0029227070999991902083120004+62167+030650FM-12+010299999V0200901N002119999999N0000001N9+00671+99999101181ADDGF108991999999999999999999
0029227070999991902090106004+62167+030650FM-12+010299999V0200901N002119999999N0000001N9+00611+99999101361ADDGF108991999999999999999999
0029227070999991902090113004+62167+030650FM-12+010299999V0201801N005119999999N0000001N9+00941+99999101401ADDGF108991999999999999999999
0029227070999991902090120004+62167+030650FM-12+010299999V0201401N003119999999N0000001N9+00671+99999101031ADDGF108991999999999999999999
0029227070999991902090206004+62167+030650FM-12+010299999V0201401N003119999999N0000001N9+00671+99999100821ADDGF108991999999999999999999
0029227070999991902090213004+62167+030650FM-12+010299999V0200501N004119999999N0000001N9+01001+99999100821ADDGF108991999999999999999999
0029227070999991902090220004+62167+030650FM-12+010299999V0200901N002119999999N0000001N9+00781+99999100961ADDGF108991999999999999999999
0029227070999991902090306004+62167+030650FM-12+010299999V0200901N001019999999N0000001N9+00721+99999101261ADDGF108991999999999999999999
