0029029500999991901010106004+61483+021350FM-12+000699999V0201401N004119999999N0000001N9-01441+99999102711ADDGF108991999999999999999999
0029029500999991901010113004+61483+021350FM-12+000699999V0202001N013919999999N0000001N9-01001+99999102591ADDGF108991999999999999999999
0029029500999991901010120004+61483+021350FM-12+000699999V0202001N015919999999N0000001N9-00671+99999102391ADDGF105991999999999999999999
0029029500999991901010206004+61483+021350FM-12+000699999V0202501N013919999999N0000001N9-00391+99999102191ADDGF108991999999999999999999
0029029500999991901010213004+61483+021350FM-12+000699999V0202501N015919999999N0000001N9-00221+99999102261ADDGF108991999999999999999999
0029029500999991901010220004+61483+021350FM-12+000699999V0202501N015919999999N0000001N9-00171+99999102191ADDGF108991999999999999999999
0029029500999991901010306004+61483+021350FM-12+000699999V0202501N013919999999N0000001N9-00221+99999102271ADDGF108991999999999999999999
0029029500999991901010313004+61483+021350FM-12+000699999V0202301N013919999999N0000001N9-00221+99999102101ADDGF108991999999999999999999
0029029500999991901010320004+61483+021350FM-12+000699999V0202301N011819999999N0000001N9-00111+99999102121ADDGF108991999999999999999999
0029029500999991901010406004+61483+021350FM-12+000699999V0202901N006219999999N0000001N9-00061+99999102301ADDGF108991999999999999999999
0029029500999991901010413004+61483+021350FM-12+000699999V0202701N002119999999N0000001N9-00111+99999102431ADDGF108991999999999999999999
0029029500999991901010420004+61483+021350FM-12+000699999V0202001N006219999999N0000001N9-00061+99999102721ADDGF108991999999999999999999
0029029500999991901010506004+61483+021350FM-12+000699999V0202301N011819999999N0000001N9+00001+99999102831ADDGF108991999999999999999999
0029029500999991901010513004+61483+021350FM-12+000699999V0202501N008219999999N0000001N9+00061+99999102861ADDGF106991999999999999999999
0029029500999991901010520004+61483+021350FM-12+000699999V0202501N006219999999N0000001N9+00001+99999103041ADDGF106991999999999999999999
0029029500999991901010606004+61483+021350FM-12+000699999V0202301N002119999999N0000001N9+00001+99999103081ADDGF103991999999999999999999
0029029500999991901010613004+61483+021350FM-12+000699999V0202701N004119999999N0000001N9+00061+99999103161ADDGF102991999999999999999999
0029029500999991901010620004+61483+021350FM-12+000699999V0202701N002119999999N0000001N9+00001+99999103311ADDGF102991999999999999999999
0029029500999991901010706004+61483+021350FM-12+000699999V0201401N002119999999N0000001N9-00391+99999103351ADDGF108991999999999999999999
0029029500999991901010713004+61483+021350FM-12+000699999V0209991C000019999999N0000001N9-00441+99999103481ADDGF108991999999999999999999
0029029500999991901010720004+61483+021350FM-12+000699999V0201401N002119999999N0000001N9-00391+99999103551ADDGF108991999999999999999999
0029029500999991901010806004+61483+021350FM-12+000699999V0202301N004119999999N0000001N9-00221+99999103601ADDGF108991999999999999999999
0029029500999991901010813004+61483+021350FM-12+000699999V0202301N006219999999N0000001N9-00111+99999103481ADDGF108991999999999999999999
0029029500999991901010820004+61483+021350FM-12+000699999V0202301N006219999999N0000001N9-00171+99999103311ADDGF108991999999999999999999
0029029500999991901010906004+61483+021350FM-12+000699999V0202301N004119999999N0000001N9-00221+99999102951ADDGF108991999999999999999999
0029029500999991901010913004+61483+021350FM-12+000699999V0201601N004119999999N0000001N9-00171+99999102831ADDGF108991999999999999999999
0029029500999991901010920004+61483+021350FM-12+000699999V0202301N006219999999N0000001N9-00111+99999102641ADDGF108991999999999999999999
0029029500999991901011006004+61483+021350FM-12+000699999V0202301N009819999999N0000001N9-00111+99999102311ADDGF108991999999999999999999
0029029500999991901011013004+61483+021350FM-12+000699999V0202501N008219999999N0000001N9-00061+99999102221ADDGF108991999999999999999999
0029029500999991901011020004+61483+021350FM-12+000699999V0202501N009819999999N0000001N9+00001+99999102151ADDGF108991999999999999999999
0029029500999991901011106004+61483+021350FM-12+000699999V0202501N006219999999N0000001N9-00061+99999102041ADDGF108991999999999999999999
0029029500999991901011113004+61483+021350FM-12+000699999V0202501N006219999999N0000001N9+00001+99999102021ADDGF100991999999999999999999
0029029500999991901011120004+61483+021350FM-12+000699999V0202501N006219999999N0000001N9+00001+99999102021ADDGF100991999999999999999999
0029029500999991901011206004+61483+021350FM-12+000699999V0202701N009819999999N0000001N9+00061+99999102001ADDGF100991999999999999999999
0029029500999991901011213004+61483+021350FM-12+000699999V0203401N015919999999N0000001N9+00111+99999102181ADDGF100991999999999999999999
0029029500999991901011220004+61483+021350FM-12+000699999V0203401N009819999999N0000001N9+00001+99999102641ADDGF100991999999999999999999
0029029500999991901011306004+61483+021350FM-12+000699999V0203201N013919999999N0000001N9+00111+99999102701ADDGF100991999999999999999999
0029029500999991901011313004+61483+021350FM-12+000699999V0203201N009819999999N0000001N9+00111+99999102701ADDGF102991999999999999999999
0029029500999991901011320004+61483+021350FM-12+000699999V0203401N008219999999N0000001N9+00061+99999102911ADDGF100991999999999999999999
0029029500999991901011406004+61483+021350FM-12+000699999V0209991C000019999999N0000001N9-00061+99999103081ADDGF100991999999999999999999
0029029500999991901011413004+61483+021350FM-12+000699999V0202301N002119999999N0000001N9-00061+99999103081ADDGF100991999999999999999999
0029029500999991901011420004+61483+021350FM-12+000699999V0202001N004119999999N0000001N9-00111+99999102981ADDGF106991999999999999999999
0029029500999991901011506004+61483+021350FM-12+000699999V0202301N006219999999N0000001N9-00221+99999102681ADDGF101991999999999999999999
0029029500999991901011513004+61483+021350FM-12+000699999V0202501N008219999999N0000001N9-00061+99999102561ADDGF102991999999999999999999
0029029500999991901011520004+61483+021350FM-12+000699999V0202501N008219999999N0000001N9-00111+99999102281ADDGF100991999999999999999999
0029029500999991901011606004+61483+021350FM-12+000699999V0202701N006219999999N0000001N9+00111+99999102001ADDGF104991999999999999999999
0029029500999991901011613004+61483+021350FM-12+000699999V0203201N009819999999N0000001N9+00221+99999101881ADDGF103991999999999999999999
0029029500999991901011620004+61483+021350FM-12+000699999V0203601N006219999999N0000001N9+00111+99999101821ADDGF100991999999999999999999
0029029500999991901011706004+61483+021350FM-12+000699999V0209991C000019999999N0000001N9+00001+99999101881ADDGF100991999999999999999999
0029029500999991901011713004+61483+021350FM-12+000699999V0209991C000019999999N0000001N9-00221+99999101831ADDGF100991999999999999999999
0029029500999991901011720004+61483+021350FM-12+000699999V0201801N002119999999N0000001N9-00391+99999101781ADDGF100991999999999999999999
0029029500999991901011806004+61483+021350FM-12+000699999V0202501N008219999999N0000001N9-00061+99999101561ADDGF102991999999999999999999
0029029500999991901011813004+61483+021350FM-12+000699999V0202501N004119999999N0000001N9+00001+99999101631ADDGF103991999999999999999999
0029029500999991901011820004+61483+021350FM-12+000699999V0201401N002119999999N0000001N9-00391+99999101711ADDGF102991999999999999999999
0029029500999991901011906004+61483+021350FM-12+000699999V0201801N004119999999N0000001N9-00331+99999101351ADDGF108991999999999999999999
0029029500999991901011913004+61483+021350FM-12+000699999V0202001N008219999999N0000001N9+00001+99999101061ADDGF108991999999999999999999
0029029500999991901011920004+61483+021350FM-12+000699999V0202301N009819999999N0000001N9+00001+99999100791ADDGF108991999999999999999999
0029029500999991901012006004+61483+021350FM-12+000699999V0202501N006219999999N0000001N9-00061+99999100641ADDGF102991999999999999999999
0029029500999991901012013004+61483+021350FM-12+000699999V0202301N004119999999N0000001N9+00061+99999100421ADDGF108991999999999999999999
0029029500999991901012020004+61483+021350FM-12+000699999V0201401N006219999999N0000001N9-00061+99999099631ADDGF108991999999999999999999
0029029500999991901012106004+61483+021350FM-12+000699999V0201101N006219999999N0000001N9-00171+99999098681ADDGF108991999999999999999999
0029029500999991901012113004+61483+021350FM-12+000699999V0200501N006219999999N0000001N9-00221+99999099061ADDGF108991999999999999999999
0029029500999991901012120004+61483+021350FM-12+000699999V0200201N008219999999N0000001N9-00171+99999099841ADDGF108991999999999999999999
0029029500999991901012206004+61483+021350FM-12+000699999V0202001N015919999999N0000001N9-00171+99999098941ADDGF108991999999999999999999
0029029500999991901012213004+61483+021350FM-12+000699999V0202501N018019999999N0000001N9+00171+99999098041ADDGF108991999999999999999999
0029029500999991901012220004+61483+021350FM-12+000699999V0202701N013919999999N0000001N9+00171+99999098081ADDGF104991999999999999999999
0029029500999991901012306004+61483+021350FM-12+000699999V0202901N024219999999N0000001N9+00221+99999098311ADDGF100991999999999999999999
0029029500999991901012313004+61483+021350FM-12+000699999V0202901N027819999999N0000001N9+00221+99999099261ADDGF100991999999999999999999
0029029500999991901012320004+61483+021350FM-12+000699999V0203201N027819999999N0000001N9+00171+99999100381ADDGF100991999999999999999999
0029029500999991901012406004+61483+021350FM-12+000699999V0202701N020119999999N0000001N9+00221+99999101111ADDGF105991999999999999999999
0029029500999991901012413004+61483+021350FM-12+000699999V0202701N013919999999N0000001N9+00221+99999101191ADDGF102991999999999999999999
0029029500999991901012420004+61483+021350FM-12+000699999V0202301N008219999999N0000001N9+00061+99999100961ADDGF102991999999999999999999
0029029500999991901012506004+61483+021350FM-12+000699999V0202301N011819999999N0000001N9+00061+99999100101ADDGF108991999999999999999999
0029029500999991901012513004+61483+021350FM-12+000699999V0202001N013919999999N0000001N9+00111+99999099351ADDGF108991999999999999999999
0029029500999991901012520004+61483+021350FM-12+000699999V0202001N015919999999N0000001N9+00171+99999098471ADDGF107991999999999999999999
0029029500999991901012606004+61483+021350FM-12+000699999V0202301N015919999999N0000001N9+00111+99999098361ADDGF108991999999999999999999
0029029500999991901012613004+61483+021350FM-12+000699999V0202301N011819999999N0000001N9+00061+99999098501ADDGF108991999999999999999999
0029029500999991901012620004+61483+021350FM-12+000699999V0202301N004119999999N0000001N9+00001+99999098541ADDGF108991999999999999999999
0029029500999991901012706004+61483+021350FM-12+000699999V0201601N006219999999N0000001N9-00171+99999098281ADDGF108991999999999999999999
0029029500999991901012713004+61483+021350FM-12+000699999V0200901N004119999999N0000001N9-00171+99999097951ADDGF108991999999999999999999
0029029500999991901012720004+61483+021350FM-12+000699999V0201101N006219999999N0000001N9-00281+99999097631ADDGF108991999999999999999999
0029029500999991901012806004+61483+021350FM-12+000699999V0200701N006219999999N0000001N9-00281+99999097391ADDGF108991999999999999999999
0029029500999991901012813004+61483+021350FM-12+000699999V0200701N013919999999N0000001N9-00221+99999097381ADDGF108991999999999999999999
0029029500999991901012820004+61483+021350FM-12+000699999V0200201N015919999999N0000001N9-00221+99999097261ADDGF108991999999999999999999
0029029500999991901012906004+61483+021350FM-12+000699999V0200201N009819999999N0000001N9-00331+99999097261ADDGF108991999999999999999999
0029029500999991901012913004+61483+021350FM-12+000699999V0200501N008219999999N0000001N9-00281+99999097431ADDGF108991999999999999999999
0029029500999991901012920004+61483+021350FM-12+000699999V0203201N009819999999N0000001N9-00171+99999097921ADDGF108991999999999999999999
0029029500999991901013006004+61483+021350FM-12+000699999V0202301N008219999999N0000001N9-00331+99999098391ADDGF108991999999999999999999
0029029500999991901013013004+61483+021350FM-12+000699999V0201601N006219999999N0000001N9-00441+99999098641ADDGF108991999999999999999999
0029029500999991901013020004+61483+021350FM-12+000699999V0201601N006219999999N0000001N9-00501+99999098761ADDGF104991999999999999999999
0029029500999991901013106004+61483+021350FM-12+000699999V0201101N008219999999N0000001N9-00501+99999098831ADDGF108991999999999999999999
0029029500999991901013113004+61483+021350FM-12+000699999V0200501N011819999999N0000001N9-00391+99999098861ADDGF106991999999999999999999
0029029500999991901013120004+61483+021350FM-12+000699999V0203401N013919999999N0000001N9-00501+99999099431ADDGF108991999999999999999999
0029029500999991901020106004+61483+021350FM-12+000699999V0201601N004119999999N0000001N9-00721+99999100021ADDGF107991999999999999999999
0029029500999991901020113004+61483+021350FM-12+000699999V0201401N008219999999N0000001N9-00331+99999100031ADDGF108991999999999999999999
0029029500999991901020120004+61483+021350FM-12+000699999V0201401N008219999999N0000001N9-00171+99999099831ADDGF108991999999999999999999
0029029500999991901020206004+61483+021350FM-12+000699999V0202301N004119999999N0000001N9-00501+99999099991ADDGF108991999999999999999999
0029029500999991901020213004+61483+021350FM-12+000699999V0202001N004119999999N0000001N9-00391+99999100241ADDGF106991999999999999999999
0029029500999991901020220004+61483+021350FM-12+000699999V0202301N011819999999N0000001N9-00281+99999100471ADDGF108991999999999999999999
0029029500999991901020306004+61483+021350FM-12+000699999V0201601N006219999999N0000001N9-00891+99999100181ADDGF108991999999999999999999
0029029500999991901020313004+61483+021350FM-12+000699999V0202301N006219999999N0000001N9-00441+99999099911ADDGF108991999999999999999999
0029029500999991901020320004+61483+021350FM-12+000699999V0202301N008219999999N0000001N9-00331+99999099831ADDGF108991999999999999999999
0029029500999991901020406004+61483+021350FM-12+000699999V0202301N004119999999N0000001N9-00331+99999099901ADDGF108991999999999999999999
0029029500999991901020413004+61483+021350FM-12+000699999V0202301N009819999999N0000001N9-00111+99999100041ADDGF108991999999999999999999
0029029500999991901020420004+61483+021350FM-12+000699999V0201601N008219999999N0000001N9-00331+99999100401ADDGF108991999999999999999999
0029029500999991901020506004+61483+021350FM-12+000699999V0201401N004119999999N0000001N9-00441+99999100441ADDGF108991999999999999999999
0029029500999991901020513004+61483+021350FM-12+000699999V0201101N004119999999N0000001N9-00281+99999100441ADDGF108991999999999999999999
0029029500999991901020520004+61483+021350FM-12+000699999V0200901N004119999999N0000001N9-00331+99999100281ADDGF108991999999999999999999
0029029500999991901020606004+61483+021350FM-12+000699999V0200501N006219999999N0000001N9-00501+99999100661ADDGF102991999999999999999999
0029029500999991901020613004+61483+021350FM-12+000699999V0203601N008219999999N0000001N9-00391+99999100711ADDGF108991999999999999999999
0029029500999991901020620004+61483+021350FM-12+000699999V0202701N004119999999N0000001N9-00331+99999100661ADDGF107991999999999999999999
0029029500999991901020706004+61483+021350FM-12+000699999V0203201N011819999999N0000001N9-00061+99999100311ADDGF102991999999999999999999
0029029500999991901020713004+61483+021350FM-12+000699999V0200501N002119999999N0000001N9-00221+99999100481ADDGF106991999999999999999999
0029029500999991901020720004+61483+021350FM-12+000699999V0202001N013919999999N0000001N9-00221+99999999999ADDGF108991999999999999999999
0029029500999991901020806004+61483+021350FM-12+000699999V0203401N015919999999N0000001N9-00221+99999100541ADDGF105991999999999999999999
0029029500999991901020813004+61483+021350FM-12+000699999V0203201N018019999999N0000001N9-00221+99999101241ADDGF103991999999999999999999
0029029500999991901020820004+61483+021350FM-12+000699999V0203201N011819999999N0000001N9-00171+99999101421ADDGF106991999999999999999999
0029029500999991901020906004+61483+021350FM-12+000699999V0202301N020119999999N0000001N9-00111+99999100041ADDGF108991999999999999999999
0029029500999991901020913004+61483+021350FM-12+000699999V0203601N018019999999N0000001N9-00111+99999099661ADDGF102991999999999999999999
0029029500999991901020920004+61483+021350FM-12+000699999V0200701N006219999999N0000001N9-00561+99999099871ADDGF108991999999999999999999
0029029500999991901021006004+61483+021350FM-12+000699999V0203201N015919999999N0000001N9-00501+99999099941ADDGF108991999999999999999999
0029029500999991901021013004+61483+021350FM-12+000699999V0200201N018019999999N0000001N9-00831+99999099791ADDGF108991999999999999999999
0029029500999991901021020004+61483+021350FM-12+000699999V0200501N008219999999N0000001N9-01001+99999099911ADDGF106991999999999999999999
0029029500999991901021106004+61483+021350FM-12+000699999V0200501N015919999999N0000001N9-01611+99999100081ADDGF104991999999999999999999
0029029500999991901021113004+61483+021350FM-12+000699999V0200701N002119999999N0000001N9-01171+99999100311ADDGF102991999999999999999999
0029029500999991901021120004+61483+021350FM-12+000699999V0200501N011819999999N0000001N9-00781+99999100561ADDGF103991999999999999999999
0029029500999991901021206004+61483+021350FM-12+000699999V0200501N013919999999N0000001N9-01001+99999100741ADDGF108991999999999999999999
0029029500999991901021213004+61483+021350FM-12+000699999V0200501N011819999999N0000001N9-01001+99999101231ADDGF102991999999999999999999
0029029500999991901021220004+61483+021350FM-12+000699999V0200501N009819999999N0000001N9-01111+99999101671ADDGF100991999999999999999999
0029029500999991901021306004+61483+021350FM-12+000699999V0200501N008219999999N0000001N9-01221+99999101981ADDGF102991999999999999999999
0029029500999991901021313004+61483+021350FM-12+000699999V0209991C000019999999N0000001N9-00831+99999102081ADDGF102991999999999999999999
0029029500999991901021320004+61483+021350FM-12+000699999V0201401N002119999999N0000001N9-01001+99999102111ADDGF103991999999999999999999
0029029500999991901021406004+61483+021350FM-12+000699999V0201401N002119999999N0000001N9-01221+99999102581ADDGF108991999999999999999999
0029029500999991901021413004+61483+021350FM-12+000699999V0200901N002119999999N0000001N9-00891+99999102911ADDGF102991999999999999999999
0029029500999991901021420004+61483+021350FM-12+000699999V0200901N002119999999N0000001N9-01501+99999102961ADDGF100991999999999999999999
0029029500999991901021506004+61483+021350FM-12+000699999V0200701N002119999999N0000001N9-02221+99999102741ADDGF100991999999999999999999
0029029500999991901021513004+61483+021350FM-12+000699999V0201601N002119999999N0000001N9-02221+99999102381ADDGF100991999999999999999999
0029029500999991901021520004+61483+021350FM-12+000699999V0201601N008219999999N0000001N9-01831+99999101741ADDGF100991999999999999999999
0029029500999991901021606004+61483+021350FM-12+000699999V0202001N011819999999N0000001N9-00561+99999100831ADDGF108991999999999999999999
0029029500999991901021613004+61483+021350FM-12+000699999V0201601N002119999999N0000001N9-00331+99999100841ADDGF108991999999999999999999
0029029500999991901021620004+61483+021350FM-12+000699999V0201401N004119999999N0000001N9-00781+99999101441ADDGF108991999999999999999999
0029029500999991901021706004+61483+021350FM-12+000699999V0200501N009819999999N0000001N9-00831+99999102041ADDGF108991999999999999999999
0029029500999991901021713004+61483+021350FM-12+000699999V0200501N008219999999N0000001N9-00831+99999102381ADDGF107991999999999999999999
0029029500999991901021720004+61483+021350FM-12+000699999V0200901N002119999999N0000001N9-01501+99999102831ADDGF100991999999999999999999
0029029500999991901021806004+61483+021350FM-12+000699999V0209991C000019999999N0000001N9-01891+99999102981ADDGF100991999999999999999999
0029029500999991901021813004+61483+021350FM-12+000699999V0200901N002119999999N0000001N9-00891+99999102981ADDGF106991999999999999999999
0029029500999991901021820004+61483+021350FM-12+000699999V0201101N002119999999N0000001N9-01171+99999103061ADDGF108991999999999999999999
0029029500999991901021906004+61483+021350FM-12+000699999V0201601N006219999999N0000001N9-01001+99999103081ADDGF108991999999999999999999
0029029500999991901021913004+61483+021350FM-12+000699999V0201401N006219999999N0000001N9-00891+99999103041ADDGF108991999999999999999999
0029029500999991901021920004+61483+021350FM-12+000699999V0201401N004119999999N0000001N9-01001+99999102791ADDGF108991999999999999999999
0029029500999991901022006004+61483+021350FM-12+000699999V0201401N004119999999N0000001N9-01061+99999102431ADDGF108991999999999999999999
0029029500999991901022013004+61483+021350FM-12+000699999V0201601N002119999999N0000001N9-00561+99999102101ADDGF106991999999999999999999
0029029500999991901022020004+61483+021350FM-12+000699999V0201601N004119999999N0000001N9-01001+99999101981ADDGF108991999999999999999999
0029029500999991901022106004+61483+021350FM-12+000699999V0201801N006219999999N0000001N9-00721+99999101501ADDGF108991999999999999999999
0029029500999991901022113004+61483+021350FM-12+000699999V0202301N009819999999N0000001N9-00221+99999101231ADDGF108991999999999999999999
0029029500999991901022120004+61483+021350FM-12+000699999V0202301N011819999999N0000001N9-00441+99999100791ADDGF108991999999999999999999
0029029500999991901022206004+61483+021350FM-12+000699999V0200501N015919999999N0000001N9-01061+99999101001ADDGF106991999999999999999999
0000029500999991901022213004+61483+021350FM-12+000699999V02099999999999999999N0000001N9-00781+99999100871
0029029500999991901022220004+61483+021350FM-12+000699999V0202001N011819999999N0000001N9-00891+99999100021ADDGF108991999999999999999999
0029029500999991901022306004+61483+021350FM-12+000699999V0202001N004119999999N0000001N9-00281+99999098621ADDGF108991999999999999999999
0029029500999991901022313004+61483+021350FM-12+000699999V0203401N013919999999N0000001N9-00671+99999098271ADDGF108991999999999999999999
0029029500999991901022320004+61483+021350FM-12+000699999V0203601N020119999999N0000001N9-00891+99999098521ADDGF108991999999999999999999
0029029500999991901022406004+61483+021350FM-12+000699999V0203601N015919999999N0000001N9-01501+99999098471ADDGF106991999999999999999999
0029029500999991901022413004+61483+021350FM-12+000699999V0203401N026219999999N0000001N9-01331+99999098921ADDGF108991999999999999999999
0029029500999991901022420004+61483+021350FM-12+000699999V0203601N027819999999N0000001N9-01331+99999098841ADDGF100991999999999999999999
0029029500999991901022506004+61483+021350FM-12+000699999V0203201N006219999999N0000001N9-00781+99999099071ADDGF106991999999999999999999
0029029500999991901022513004+61483+021350FM-12+000699999V0203201N013919999999N0000001N9-00221+99999099031ADDGF101991999999999999999999
0029029500999991901022520004+61483+021350FM-12+000699999V0203601N026219999999N0000001N9-00501+99999099311ADDGF108991999999999999999999
0029029500999991901022606004+61483+021350FM-12+000699999V0203401N006219999999N0000001N9-00781+99999100421ADDGF101991999999999999999999
0029029500999991901022613004+61483+021350FM-12+000699999V0201801N002119999999N0000001N9-00611+99999100861ADDGF102991999999999999999999
0029029500999991901022620004+61483+021350FM-12+000699999V0201601N004119999999N0000001N9-00891+99999100631ADDGF108991999999999999999999
0029029500999991901022706004+61483+021350FM-12+000699999V0201401N006219999999N0000001N9-00441+99999099751ADDGF108991999999999999999999
0029029500999991901022713004+61483+021350FM-12+000699999V0201601N002119999999N0000001N9-00171+99999099471ADDGF108991999999999999999999
0029029500999991901022720004+61483+021350FM-12+000699999V0201401N004119999999N0000001N9-00171+99999099181ADDGF108991999999999999999999
0029029500999991901022806004+61483+021350FM-12+000699999V0200501N008219999999N0000001N9-00561+99999099311ADDGF108991999999999999999999
0029029500999991901022813004+61483+021350FM-12+000699999V0200501N009819999999N0000001N9-00671+99999099801ADDGF106991999999999999999999
0029029500999991901022820004+61483+021350FM-12+000699999V0200501N006219999999N0000001N9-01441+99999100431ADDGF100991999999999999999999
0029029500999991901030106004+61483+021350FM-12+000699999V0200501N004119999999N0000001N9-01941+99999101191ADDGF100991999999999999999999
0029029500999991901030113004+61483+021350FM-12+000699999V0200501N006219999999N0000001N9-01001+99999101361ADDGF100991999999999999999999
0029029500999991901030120004+61483+021350FM-12+000699999V0200701N002119999999N0000001N9-01781+99999101711ADDGF100991999999999999999999
0029029500999991901030206004+61483+021350FM-12+000699999V0200901N002119999999N0000001N9-02111+99999101901ADDGF100991999999999999999999
0029029500999991901030213004+61483+021350FM-12+000699999V0200501N006219999999N0000001N9-01221+99999101941ADDGF100991999999999999999999
0029029500999991901030220004+61483+021350FM-12+000699999V0200901N006219999999N0000001N9-01501+99999101991ADDGF100991999999999999999999
0029029500999991901030306004+61483+021350FM-12+000699999V0200701N004119999999N0000001N9-01441+99999101841ADDGF108991999999999999999999
0029029500999991901030313004+61483+021350FM-12+000699999V0200501N002119999999N0000001N9-01061+99999101631ADDGF102991999999999999999999
0029029500999991901030320004+61483+021350FM-12+000699999V0200701N002119999999N0000001N9-01001+99999101551ADDGF108991999999999999999999
0029029500999991901030406004+61483+021350FM-12+000699999V0200901N004119999999N0000001N9-00671+99999101581ADDGF108991999999999999999999
0029029500999991901030413004+61483+021350FM-12+000699999V0201401N006219999999N0000001N9+00001+99999101631ADDGF108991999999999999999999
0029029500999991901030420004+61483+021350FM-12+000699999V0201401N006219999999N0000001N9-00281+99999101711ADDGF108991999999999999999999
0029029500999991901030506004+61483+021350FM-12+000699999V0201401N006219999999N0000001N9-00281+99999101551ADDGF108991999999999999999999
0029029500999991901030513004+61483+021350FM-12+000699999V0201601N006219999999N0000001N9+00061+99999101381ADDGF108991999999999999999999
0029029500999991901030520004+61483+021350FM-12+000699999V0201601N008219999999N0000001N9+00001+99999101081ADDGF108991999999999999999999
0029029500999991901030606004+61483+021350FM-12+000699999V0201801N013919999999N0000001N9+00061+99999100581ADDGF108991999999999999999999
0029029500999991901030613004+61483+021350FM-12+000699999V0201601N009819999999N0000001N9+00171+99999100221ADDGF108991999999999999999999
0029029500999991901030620004+61483+021350FM-12+000699999V0201601N008219999999N0000001N9-00061+99999100071ADDGF108991999999999999999999
0029029500999991901030706004+61483+021350FM-12+000699999V0201601N008219999999N0000001N9+00061+99999100281ADDGF108991999999999999999999
0029029500999991901030713004+61483+021350FM-12+000699999V0201601N006219999999N0000001N9+00171+99999100601ADDGF108991999999999999999999
0029029500999991901030720004+61483+021350FM-12+000699999V0201601N004119999999N0000001N9-00111+99999100991ADDGF106991999999999999999999
0029029500999991901030806004+61483+021350FM-12+000699999V0201101N002119999999N0000001N9-00281+99999101351ADDGF108991999999999999999999
0029029500999991901030813004+61483+021350FM-12+000699999V0200501N002119999999N0000001N9+00001+99999101801ADDGF107991999999999999999999
0029029500999991901030820004+61483+021350FM-12+000699999V0201401N002119999999N0000001N9-00331+99999102061ADDGF107991999999999999999999
0029029500999991901030906004+61483+021350FM-12+000699999V0201601N008219999999N0000001N9-00941+99999101901ADDGF103991999999999999999999
0029029500999991901030913004+61483+021350FM-12+000699999V0202301N015919999999N0000001N9-00061+99999101511ADDGF108991999999999999999999
0029029500999991901030920004+61483+021350FM-12+000699999V0202301N015919999999N0000001N9-00061+99999100821ADDGF108991999999999999999999
0029029500999991901031006004+61483+021350FM-12+000699999V0202501N009819999999N0000001N9+00061+99999100271ADDGF107991999999999999999999
0029029500999991901031013004+61483+021350FM-12+000699999V0202501N008219999999N0000001N9+00171+99999100311ADDGF103991999999999999999999
0029029500999991901031020004+61483+021350FM-12+000699999V0203201N002119999999N0000001N9-00111+99999100741ADDGF100991999999999999999999
0029029500999991901031106004+61483+021350FM-12+000699999V0202301N009819999999N0000001N9+00001+99999100301ADDGF108991999999999999999999
0029029500999991901031113004+61483+021350FM-12+000699999V0202301N011819999999N0000001N9+00171+99999099861ADDGF108991999999999999999999
0029029500999991901031120004+61483+021350FM-12+000699999V0202701N011819999999N0000001N9+00221+99999099911ADDGF102991999999999999999999
0029029500999991901031206004+61483+021350FM-12+000699999V0203201N006219999999N0000001N9-00391+99999100701ADDGF101991999999999999999999
0029029500999991901031213004+61483+021350FM-12+000699999V0202501N009819999999N0000001N9-00111+99999100751ADDGF106991999999999999999999
0029029500999991901031220004+61483+021350FM-12+000699999V0202901N004119999999N0000001N9-00501+99999101201ADDGF100991999999999999999999
0029029500999991901031306004+61483+021350FM-12+000699999V0202001N006219999999N0000001N9-00781+99999101561ADDGF104991999999999999999999
0029029500999991901031313004+61483+021350FM-12+000699999V0202301N013919999999N0000001N9+00171+99999101381ADDGF104991999999999999999999
0029029500999991901031320004+61483+021350FM-12+000699999V0202701N009819999999N0000001N9+00111+99999101541ADDGF101991999999999999999999
0029029500999991901031406004+61483+021350FM-12+000699999V0200501N002119999999N0000001N9-00561+99999102561ADDGF102991999999999999999999
0029029500999991901031413004+61483+021350FM-12+000699999V0201401N004119999999N0000001N9+00391+99999102921ADDGF101991999999999999999999
0029029500999991901031420004+61483+021350FM-12+000699999V0201401N004119999999N0000001N9-00281+99999103061ADDGF102991999999999999999999
0029029500999991901031506004+61483+021350FM-12+000699999V0201401N002119999999N0000001N9-00671+99999103061ADDGF102991999999999999999999
0029029500999991901031513004+61483+021350FM-12+000699999V0201601N002119999999N0000001N9+00501+99999102961ADDGF100991999999999999999999
0029029500999991901031520004+61483+021350FM-12+000699999V0201401N004119999999N0000001N9-00331+99999102561ADDGF100991999999999999999999
0029029500999991901031606004+61483+021350FM-12+000699999V0201601N008219999999N0000001N9-00671+99999101991ADDGF102991999999999999999999
0029029500999991901031613004+61483+021350FM-12+000699999V0201601N006219999999N0000001N9+00061+99999101501ADDGF108991999999999999999999
0029029500999991901031620004+61483+021350FM-12+000699999V0201601N008219999999N0000001N9-00111+99999101021ADDGF108991999999999999999999
0029029500999991901031706004+61483+021350FM-12+000699999V0202001N004119999999N0000001N9+00001+99999100521ADDGF108991999999999999999999
0029029500999991901031713004+61483+021350FM-12+000699999V0209991C000019999999N0000001N9+00171+99999100271ADDGF108991999999999999999999
0029029500999991901031720004+61483+021350FM-12+000699999V0200501N004119999999N0000001N9-00501+99999100141ADDGF100991999999999999999999
0029029500999991901031806004+61483+021350FM-12+000699999V0200201N002119999999N0000001N9-00941+99999100661ADDGF102991999999999999999999
0029029500999991901031813004+61483+021350FM-12+000699999V0203601N002119999999N0000001N9-00221+99999100841ADDGF101991999999999999999999
0029029500999991901031820004+61483+021350FM-12+000699999V0200501N004119999999N0000001N9-01001+99999101061ADDGF100991999999999999999999
0029029500999991901031906004+61483+021350FM-12+000699999V0200901N002119999999N0000001N9-01221+99999101101ADDGF104991999999999999999999
0029029500999991901031913004+61483+021350FM-12+000699999V0202301N002119999999N0000001N9-00171+99999101001ADDGF100991999999999999999999
0029029500999991901031920004+61483+021350FM-12+000699999V0202301N004119999999N0000001N9-00611+99999100701ADDGF102991999999999999999999
0029029500999991901032006004+61483+021350FM-12+000699999V0203601N006219999999N0000001N9-00501+99999100751ADDGF100991999999999999999999
0029029500999991901032013004+61483+021350FM-12+000699999V0203401N008219999999N0000001N9-00281+99999101241ADDGF101991999999999999999999
0029029500999991901032020004+61483+021350FM-12+000699999V0200501N002119999999N0000001N9-00611+99999101521ADDGF102991999999999999999999
0029029500999991901032106004+61483+021350FM-12+000699999V0200501N004119999999N0000001N9-01061+99999101901ADDGF101991999999999999999999
0029029500999991901032113004+61483+021350FM-12+000699999V0203201N004119999999N0000001N9-00501+99999102031ADDGF101991999999999999999999
0029029500999991901032120004+61483+021350FM-12+000699999V0202301N002119999999N0000001N9-00941+99999101961ADDGF101991999999999999999999
0029029500999991901032206004+61483+021350FM-12+000699999V0201801N002119999999N0000001N9-01001+99999102021ADDGF100991999999999999999999
0029029500999991901032213004+61483+021350FM-12+000699999V0201801N002119999999N0000001N9-00171+99999102201ADDGF100991999999999999999999
0029029500999991901032220004+61483+021350FM-12+000699999V0202001N004119999999N0000001N9-00501+99999102221ADDGF100991999999999999999999
0029029500999991901032306004+61483+021350FM-12+000699999V0202901N004119999999N0000001N9-00391+99999102041ADDGF103991999999999999999999
0029029500999991901032313004+61483+021350FM-12+000699999V0203201N004119999999N0000001N9+00111+99999102001ADDGF102991999999999999999999
0029029500999991901032320004+61483+021350FM-12+000699999V0202701N006219999999N0000001N9-00061+99999101681ADDGF102991999999999999999999
0029029500999991901032406004+61483+021350FM-12+000699999V0202301N006219999999N0000001N9-00221+99999100701ADDGF105991999999999999999999
0029029500999991901032413004+61483+021350FM-12+000699999V0203201N006219999999N0000001N9+00221+99999999999ADDGF108991999999999999999999
0029029500999991901032420004+61483+021350FM-12+000699999V0200501N011819999999N0000001N9-00501+99999999999ADDGF108991999999999999999999
0029029500999991901032506004+61483+021350FM-12+000699999V0200501N008219999999N0000001N9-01171+99999100101ADDGF105991999999999999999999
0029029500999991901032513004+61483+021350FM-12+000699999V0200201N009819999999N0000001N9-00891+99999100221ADDGF102991999999999999999999
0029029500999991901032520004+61483+021350FM-12+000699999V0201401N002119999999N0000001N9-01221+99999100201ADDGF102991999999999999999999
0029029500999991901032606004+61483+021350FM-12+000699999V0201601N006219999999N0000001N9-01111+99999099821ADDGF103991999999999999999999
0029029500999991901032613004+61483+021350FM-12+000699999V0203201N011819999999N0000001N9-00831+99999099901ADDGF105991999999999999999999
0029029500999991901032620004+61483+021350FM-12+000699999V0203201N006219999999N0000001N9-01171+99999100381ADDGF100991999999999999999999
0029029500999991901032706004+61483+021350FM-12+000699999V0202501N004119999999N0000001N9-01111+99999100721ADDGF103991999999999999999999
0029029500999991901032713004+61483+021350FM-12+000699999V0202501N006219999999N0000001N9-00671+99999101161ADDGF101991999999999999999999
0029029500999991901032720004+61483+021350FM-12+000699999V0209991C000019999999N0000001N9-01281+99999101421ADDGF100991999999999999999999
0029029500999991901032806004+61483+021350FM-12+000699999V0200901N006219999999N0000001N9-01001+99999101391ADDGF108991999999999999999999
0029029500999991901032813004+61483+021350FM-12+000699999V0201601N004119999999N0000001N9-00061+99999101301ADDGF106991999999999999999999
0029029500999991901032820004+61483+021350FM-12+000699999V0201101N002119999999N0000001N9-00941+99999101311ADDGF100991999999999999999999
0029029500999991901032906004+61483+021350FM-12+000699999V0201401N004119999999N0000001N9-01561+99999101311ADDGF102991999999999999999999
0029029500999991901032913004+61483+021350FM-12+000699999V0202001N002119999999N0000001N9-00391+99999101481ADDGF101991999999999999999999
0029029500999991901032920004+61483+021350FM-12+000699999V0201401N002119999999N0000001N9-01061+99999101701ADDGF100991999999999999999999
0029029500999991901033006004+61483+021350FM-12+000699999V0201101N006219999999N0000001N9-01501+99999101781ADDGF100991999999999999999999
0029029500999991901033013004+61483+021350FM-12+000699999V0201101N008219999999N0000001N9-00171+99999101781ADDGF103991999999999999999999
0029029500999991901033020004+61483+021350FM-12+000699999V0200901N002119999999N0000001N9-00831+99999101781ADDGF101991999999999999999999
0029029500999991901033106004+61483+021350FM-12+000699999V0201101N004119999999N0000001N9-01221+99999101801ADDGF102991999999999999999999
0029029500999991901033113004+61483+021350FM-12+000699999V0201601N004119999999N0000001N9-00111+99999101631ADDGF108991999999999999999999
0029029500999991901033120004+61483+021350FM-12+000699999V0201401N015919999999N0000001N9-00391+99999100961ADDGF108991999999999999999999
0029029500999991901040106004+61483+021350FM-12+000699999V0201601N013919999999N0000001N9+00061+99999100191ADDGF108991999999999999999999
0029029500999991901040113004+61483+021350FM-12+000699999V0201801N015919999999N0000001N9+00221+99999099921ADDGF108991999999999999999999
0029029500999991901040120004+61483+021350FM-12+000699999V0201801N011819999999N0000001N9+00111+99999099901ADDGF108991999999999999999999
0029029500999991901040206004+61483+021350FM-12+000699999V0201801N009819999999N0000001N9+00061+99999100311ADDGF108991999999999999999999
0029029500999991901040213004+61483+021350FM-12+000699999V0202301N009819999999N0000001N9+00391+99999100661ADDGF106991999999999999999999
0029029500999991901040220004+61483+021350FM-12+000699999V0202001N008219999999N0000001N9+00111+99999101001ADDGF108991999999999999999999
0029029500999991901040306004+61483+021350FM-12+000699999V0202301N002119999999N0000001N9-00061+99999101791ADDGF102991999999999999999999
0029029500999991901040313004+61483+021350FM-12+000699999V0201601N004119999999N0000001N9+00391+99999101991ADDGF105991999999999999999999
0029029500999991901040320004+61483+021350FM-12+000699999V0201601N013919999999N0000001N9+00111+99999101321ADDGF108991999999999999999999
0029029500999991901040406004+61483+021350FM-12+000699999V0202301N015919999999N0000001N9+00171+99999099721ADDGF108991999999999999999999
0029029500999991901040413004+61483+021350FM-12+000699999V0201801N011819999999N0000001N9+00391+99999099351ADDGF108991999999999999999999
0029029500999991901040420004+61483+021350FM-12+000699999V0201601N008219999999N0000001N9+00221+99999097741ADDGF108991999999999999999999
0029029500999991901040506004+61483+021350FM-12+000699999V0202301N006219999999N0000001N9+00061+99999098031ADDGF108991999999999999999999
0029029500999991901040513004+61483+021350FM-12+000699999V0202501N004119999999N0000001N9+00171+99999098401ADDGF108991999999999999999999
0029029500999991901040520004+61483+021350FM-12+000699999V0203201N009819999999N0000001N9+00111+99999098951ADDGF103991999999999999999999
0029029500999991901040606004+61483+021350FM-12+000699999V0202901N011819999999N0000001N9-00111+99999099631ADDGF100991999999999999999999
0029029500999991901040613004+61483+021350FM-12+000699999V0202701N002119999999N0000001N9+00171+99999099841ADDGF108991999999999999999999
0029029500999991901040620004+61483+021350FM-12+000699999V0202701N006219999999N0000001N9-00171+99999099921ADDGF102991999999999999999999
0029029500999991901040706004+61483+021350FM-12+000699999V0202501N004119999999N0000001N9+00001+99999100031ADDGF106991999999999999999999
0029029500999991901040713004+61483+021350FM-12+000699999V0203201N004119999999N0000001N9+00111+99999100501ADDGF100991999999999999999999
0029029500999991901040720004+61483+021350FM-12+000699999V0202701N001019999999N0000001N9-00281+99999100961ADDGF101991999999999999999999
0029029500999991901040806004+61483+021350FM-12+000699999V0201601N004119999999N0000001N9-00281+99999101311ADDGF101991999999999999999999
0029029500999991901040813004+61483+021350FM-12+000699999V0201801N004119999999N0000001N9+00391+99999101361ADDGF102991999999999999999999
0029029500999991901040820004+61483+021350FM-12+000699999V0201601N008219999999N0000001N9+00001+99999101141ADDGF105991999999999999999999
0029029500999991901040906004+61483+021350FM-12+000699999V0201801N008219999999N0000001N9+00061+99999100431ADDGF108991999999999999999999
0029029500999991901040913004+61483+021350FM-12+000699999V0201601N009819999999N0000001N9+00391+99999100271ADDGF108991999999999999999999
0029029500999991901040920004+61483+021350FM-12+000699999V0201601N009819999999N0000001N9+00171+99999099631ADDGF108991999999999999999999
0029029500999991901041006004+61483+021350FM-12+000699999V0202301N009819999999N0000001N9+00111+99999099061ADDGF108991999999999999999999
0029029500999991901041013004+61483+021350FM-12+000699999V0202701N006219999999N0000001N9+00221+99999099481ADDGF102991999999999999999999
0029029500999991901041020004+61483+021350FM-12+000699999V0201601N002119999999N0000001N9+00001+99999099751ADDGF102991999999999999999999
0029029500999991901041106004+61483+021350FM-12+000699999V0201601N008219999999N0000001N9+00061+99999099671ADDGF108991999999999999999999
0029029500999991901041113004+61483+021350FM-12+000699999V0201801N002119999999N0000001N9+00501+99999099761ADDGF108991999999999999999999
0029029500999991901041120004+61483+021350FM-12+000699999V0201801N002119999999N0000001N9-00111+99999099961ADDGF108991999999999999999999
0029029500999991901041206004+61483+021350FM-12+000699999V0209991C000019999999N0000001N9+00001+99999100181ADDGF108991999999999999999999
0029029500999991901041213004+61483+021350FM-12+000699999V0200701N002119999999N0000001N9+00111+99999100641ADDGF108991999999999999999999
0029029500999991901041220004+61483+021350FM-12+000699999V0200701N004119999999N0000001N9+00061+99999100941ADDGF108991999999999999999999
0029029500999991901041306004+61483+021350FM-12+000699999V0200901N006219999999N0000001N9-00061+99999101071ADDGF108991999999999999999999
0029029500999991901041313004+61483+021350FM-12+000699999V0200701N006219999999N0000001N9+00441+99999101121ADDGF108991999999999999999999
0029029500999991901041320004+61483+021350FM-12+000699999V0200701N004119999999N0000001N9+00001+99999101081ADDGF102991999999999999999999
0029029500999991901041406004+61483+021350FM-12+000699999V0200701N006219999999N0000001N9-00061+99999100901ADDGF100991999999999999999999
0029029500999991901041413004+61483+021350FM-12+000699999V0200501N009819999999N0000001N9+00281+99999100481ADDGF100991999999999999999999
0029029500999991901041420004+61483+021350FM-12+000699999V0200501N008219999999N0000001N9+00001+99999100281ADDGF106991999999999999999999
0029029500999991901041506004+61483+021350FM-12+000699999V0200501N009819999999N0000001N9-00331+99999100041ADDGF108991999999999999999999
0029029500999991901041513004+61483+021350FM-12+000699999V0200501N008219999999N0000001N9+00001+99999099941ADDGF108991999999999999999999
0029029500999991901041520004+61483+021350FM-12+000699999V0200501N006219999999N0000001N9-00281+99999099941ADDGF108991999999999999999999
0029029500999991901041606004+61483+021350FM-12+000699999V0200501N004119999999N0000001N9-00281+99999100241ADDGF102991999999999999999999
0029029500999991901041613004+61483+021350FM-12+000699999V0200501N002119999999N0000001N9+00111+99999100311ADDGF108991999999999999999999
0029029500999991901041620004+61483+021350FM-12+000699999V0200701N004119999999N0000001N9+00001+99999100551ADDGF108991999999999999999999
0029029500999991901041706004+61483+021350FM-12+000699999V0200901N006219999999N0000001N9+00061+99999100671ADDGF108991999999999999999999
0029029500999991901041713004+61483+021350FM-12+000699999V0200501N008219999999N0000001N9+00061+99999100361ADDGF108991999999999999999999
0029029500999991901041720004+61483+021350FM-12+000699999V0201601N004119999999N0000001N9+00061+99999100421ADDGF108991999999999999999999
0029029500999991901041806004+61483+021350FM-12+000699999V0203201N006219999999N0000001N9-00061+99999100901ADDGF106991999999999999999999
0029029500999991901041813004+61483+021350FM-12+000699999V0202901N004119999999N0000001N9+00061+99999101041ADDGF100991999999999999999999
0029029500999991901041820004+61483+021350FM-12+000699999V0200901N002119999999N0000001N9-00221+99999101151ADDGF102991999999999999999999
0029029500999991901041906004+61483+021350FM-12+000699999V0202901N008219999999N0000001N9+00001+99999101341ADDGF100991999999999999999999
0029029500999991901041913004+61483+021350FM-12+000699999V0202501N008219999999N0000001N9+00281+99999101751ADDGF102991999999999999999999
0029029500999991901041920004+61483+021350FM-12+000699999V0201601N004119999999N0000001N9+00001+99999101831ADDGF108991999999999999999999
0029029500999991901042006004+61483+021350FM-12+000699999V0203601N004119999999N0000001N9-00061+99999101901ADDGF108991999999999999999999
0029029500999991901042013004+61483+021350FM-12+000699999V0203401N004119999999N0000001N9+00061+99999102031ADDGF108991999999999999999999
0029029500999991901042020004+61483+021350FM-12+000699999V0203201N008219999999N0000001N9+00001+99999102121ADDGF108991999999999999999999
0029029500999991901042106004+61483+021350FM-12+000699999V0200201N004119999999N0000001N9-00111+99999102161ADDGF105991999999999999999999
0029029500999991901042113004+61483+021350FM-12+000699999V0203601N006219999999N0000001N9+00171+99999102311ADDGF102991999999999999999999
0029029500999991901042120004+61483+021350FM-12+000699999V0203601N002119999999N0000001N9+00001+99999102301ADDGF102991999999999999999999
0029029500999991901042206004+61483+021350FM-12+000699999V0203201N004119999999N0000001N9+00001+99999102301ADDGF101991999999999999999999
0029029500999991901042213004+61483+021350FM-12+000699999V0202301N006219999999N0000001N9+00391+99999102431ADDGF106991999999999999999999
0029029500999991901042220004+61483+021350FM-12+000699999V0201601N008219999999N0000001N9+00061+99999102421ADDGF102991999999999999999999
0029029500999991901042306004+61483+021350FM-12+000699999V0201801N006219999999N0000001N9+00171+99999102341ADDGF100991999999999999999999
0029029500999991901042313004+61483+021350FM-12+000699999V0202301N004119999999N0000001N9+00501+99999102441ADDGF100991999999999999999999
0029029500999991901042320004+61483+021350FM-12+000699999V0200501N004119999999N0000001N9+00111+99999102741ADDGF101991999999999999999999
0029029500999991901042406004+61483+021350FM-12+000699999V0203201N002119999999N0000001N9+00221+99999103031ADDGF100991999999999999999999
0029029500999991901042413004+61483+021350FM-12+000699999V0200201N006219999999N0000001N9+00331+99999103151ADDGF100991999999999999999999
0029029500999991901042420004+61483+021350FM-12+000699999V0200501N004119999999N0000001N9+00221+99999103221ADDGF100991999999999999999999
0029029500999991901042506004+61483+021350FM-12+000699999V0200901N004119999999N0000001N9+00281+99999103111ADDGF100991999999999999999999
0029029500999991901042513004+61483+021350FM-12+000699999V0203601N006219999999N0000001N9+00331+99999102921ADDGF102991999999999999999999
0029029500999991901042520004+61483+021350FM-12+000699999V0200501N006219999999N0000001N9+00281+99999102791ADDGF102991999999999999999999
0029029500999991901042606004+61483+021350FM-12+000699999V0200501N002119999999N0000001N9+00281+99999102951ADDGF100991999999999999999999
0029029500999991901042613004+61483+021350FM-12+000699999V0200501N004119999999N0000001N9+00611+99999102961ADDGF100991999999999999999999
0029029500999991901042620004+61483+021350FM-12+000699999V0200901N002119999999N0000001N9+00611+99999102961ADDGF100991999999999999999999
0029029500999991901042706004+61483+021350FM-12+000699999V0201401N002119999999N0000001N9+00441+99999103081ADDGF102991999999999999999999
0029029500999991901042713004+61483+021350FM-12+000699999V0203601N002119999999N0000001N9+00721+99999103081ADDGF100991999999999999999999
0029029500999991901042720004+61483+021350FM-12+000699999V0200201N002119999999N0000001N9+00391+99999103031ADDGF101991999999999999999999
0029029500999991901042806004+61483+021350FM-12+000699999V0209991C000019999999N0000001N9+00391+99999103021ADDGF100991999999999999999999
0029029500999991901042813004+61483+021350FM-12+000699999V0202301N002119999999N0000001N9+00671+99999102871ADDGF100991999999999999999999
0029029500999991901042820004+61483+021350FM-12+000699999V0209991C000019999999N0000001N9+00441+99999102681ADDGF101991999999999999999999
0029029500999991901042906004+61483+021350FM-12+000699999V0200501N002119999999N0000001N9+00391+99999102621ADDGF100991999999999999999999
0029029500999991901042913004+61483+021350FM-12+000699999V0203601N006219999999N0000001N9+00891+99999102561ADDGF100991999999999999999999
0029029500999991901042920004+61483+021350FM-12+000699999V0200501N006219999999N0000001N9+00501+99999102481ADDGF101991999999999999999999
0029029500999991901043006004+61483+021350FM-12+000699999V0209991C000019999999N0000001N9+00561+99999102431ADDGF100991999999999999999999
0029029500999991901043013004+61483+021350FM-12+000699999V0200201N006219999999N0000001N9+00831+99999102541ADDGF100991999999999999999999
0029029500999991901043020004+61483+021350FM-12+000699999V0200901N002119999999N0000001N9+00781+99999102581ADDGF100991999999999999999999
0029029500999991901050106004+61483+021350FM-12+000699999V0201601N006219999999N0000001N9+00391+99999102701ADDGF100991999999999999999999
0029029500999991901050113004+61483+021350FM-12+000699999V0202301N004119999999N0000001N9+00611+99999102761ADDGF100991999999999999999999
0029029500999991901050120004+61483+021350FM-12+000699999V0209991C000019999999N0000001N9+00391+99999102681ADDGF100991999999999999999999
0029029500999991901050206004+61483+021350FM-12+000699999V0201401N002119999999N0000001N9+00501+99999102621ADDGF101991999999999999999999
0029029500999991901050213004+61483+021350FM-12+000699999V0202501N002119999999N0000001N9+00831+99999102561ADDGF100991999999999999999999
0029029500999991901050220004+61483+021350FM-12+000699999V0202301N002119999999N0000001N9+00501+99999102391ADDGF102991999999999999999999
0029029500999991901050306004+61483+021350FM-12+000699999V0203601N013919999999N0000001N9+00391+99999101941ADDGF102991999999999999999999
0029029500999991901050313004+61483+021350FM-12+000699999V0203401N009819999999N0000001N9+00501+99999101761ADDGF104991999999999999999999
0029029500999991901050320004+61483+021350FM-12+000699999V0203401N009819999999N0000001N9+00391+99999101361ADDGF102991999999999999999999
0029029500999991901050406004+61483+021350FM-12+000699999V0200201N013919999999N0000001N9+00281+99999101381ADDGF102991999999999999999999
0029029500999991901050413004+61483+021350FM-12+000699999V0203601N015919999999N0000001N9+00221+99999101521ADDGF102991999999999999999999
0029029500999991901050420004+61483+021350FM-12+000699999V0200201N018019999999N0000001N9+00001+99999101561ADDGF102991999999999999999999
0029029500999991901050506004+61483+021350FM-12+000699999V0200501N015919999999N0000001N9-00171+99999101321ADDGF104991999999999999999999
0029029500999991901050513004+61483+021350FM-12+000699999V0200201N018019999999N0000001N9-00111+99999101101ADDGF108991999999999999999999
0029029500999991901050520004+61483+021350FM-12+000699999V0203601N015919999999N0000001N9-00061+99999100871ADDGF102991999999999999999999
0029029500999991901050606004+61483+021350FM-12+000699999V0203601N013919999999N0000001N9-00061+99999100641ADDGF102991999999999999999999
0029029500999991901050613004+61483+021350FM-12+000699999V0203601N015919999999N0000001N9+00001+99999100521ADDGF107991999999999999999999
0029029500999991901050620004+61483+021350FM-12+000699999V0200501N008219999999N0000001N9-00171+99999100501ADDGF103991999999999999999999
0029029500999991901050706004+61483+021350FM-12+000699999V0203201N008219999999N0000001N9+00061+99999100741ADDGF107991999999999999999999
0029029500999991901050713004+61483+021350FM-12+000699999V0203401N006219999999N0000001N9+00171+99999101231ADDGF105991999999999999999999
0029029500999991901050720004+61483+021350FM-12+000699999V0203601N004119999999N0000001N9+00001+99999101631ADDGF100991999999999999999999
0029029500999991901050806004+61483+021350FM-12+000699999V0200901N006219999999N0000001N9+00171+99999102301ADDGF100991999999999999999999
0029029500999991901050813004+61483+021350FM-12+000699999V0203601N009819999999N0000001N9+00281+99999102541ADDGF102991999999999999999999
0029029500999991901050820004+61483+021350FM-12+000699999V0200501N002119999999N0000001N9+00281+99999102631ADDGF100991999999999999999999
0029029500999991901050906004+61483+021350FM-12+000699999V0201401N009819999999N0000001N9+00441+99999102901ADDGF103991999999999999999999
0029029500999991901050913004+61483+021350FM-12+000699999V0200901N004119999999N0000001N9+01221+99999102791ADDGF104991999999999999999999
0029029500999991901050920004+61483+021350FM-12+000699999V0201101N006219999999N0000001N9+00941+99999102881ADDGF108991999999999999999999
0029029500999991901051006004+61483+021350FM-12+000699999V0201401N006219999999N0000001N9+00781+99999102901ADDGF103991999999999999999999
0029029500999991901051013004+61483+021350FM-12+000699999V0201401N004119999999N0000001N9+01781+99999102911ADDGF106991999999999999999999
0029029500999991901051020004+61483+021350FM-12+000699999V0201401N008219999999N0000001N9+01171+99999102941ADDGF108991999999999999999999
0029029500999991901051106004+61483+021350FM-12+000699999V0201401N004119999999N0000001N9+01221+99999102951ADDGF102991999999999999999999
0029029500999991901051113004+61483+021350FM-12+000699999V0209991C000019999999N0000001N9+01441+99999103081ADDGF106991999999999999999999
0029029500999991901051120004+61483+021350FM-12+000699999V0200501N002119999999N0000001N9+00781+99999103201ADDGF103991999999999999999999
0029029500999991901051206004+61483+021350FM-12+000699999V0201401N004119999999N0000001N9+01221+99999103361ADDGF100991999999999999999999
0029029500999991901051213004+61483+021350FM-12+000699999V0203601N002119999999N0000001N9+01441+99999103381ADDGF102991999999999999999999
0029029500999991901051220004+61483+021350FM-12+000699999V0200901N002119999999N0000001N9+01001+99999103231ADDGF102991999999999999999999
0029029500999991901051306004+61483+021350FM-12+000699999V0203201N002119999999N0000001N9+00891+99999103191ADDGF100991999999999999999999
0029029500999991901051313004+61483+021350FM-12+000699999V0200201N004119999999N0000001N9+01001+99999103061ADDGF102991999999999999999999
0029029500999991901051320004+61483+021350FM-12+000699999V0200501N002119999999N0000001N9+01001+99999103201ADDGF106991999999999999999999
0029029500999991901051406004+61483+021350FM-12+000699999V0200501N002119999999N0000001N9+01331+99999102831ADDGF102991999999999999999999
0029029500999991901051413004+61483+021350FM-12+000699999V0203201N004119999999N0000001N9+01331+99999102701ADDGF104991999999999999999999
0029029500999991901051420004+61483+021350FM-12+000699999V0209991C000019999999N0000001N9+01221+99999102381ADDGF102991999999999999999999
0029029500999991901051506004+61483+021350FM-12+000699999V0203601N004119999999N0000001N9+01061+99999102121ADDGF102991999999999999999999
0029029500999991901051513004+61483+021350FM-12+000699999V0203601N009819999999N0000001N9+01111+99999101901ADDGF103991999999999999999999
0029029500999991901051520004+61483+021350FM-12+000699999V0203601N008219999999N0000001N9+00891+99999101741ADDGF102991999999999999999999
0029029500999991901051606004+61483+021350FM-12+000699999V0203601N009819999999N0000001N9+00561+99999101461ADDGF105991999999999999999999
0029029500999991901051613004+61483+021350FM-12+000699999V0203401N008219999999N0000001N9+00501+99999101081ADDGF102991999999999999999999
0029029500999991901051620004+61483+021350FM-12+000699999V0201601N002119999999N0000001N9+00281+99999100421ADDGF107991999999999999999999
0029029500999991901051706004+61483+021350FM-12+000699999V0202301N004119999999N0000001N9+00441+99999099701ADDGF108991999999999999999999
0029029500999991901051713004+61483+021350FM-12+000699999V0202501N008219999999N0000001N9+00391+99999099761ADDGF108991999999999999999999
0029029500999991901051720004+61483+021350FM-12+000699999V0202001N009819999999N0000001N9+00221+99999099881ADDGF108991999999999999999999
0029029500999991901051806004+61483+021350FM-12+000699999V0200701N004119999999N0000001N9+00331+99999099911ADDGF108991999999999999999999
0029029500999991901051813004+61483+021350FM-12+000699999V0203401N013919999999N0000001N9+00281+99999100471ADDGF108991999999999999999999
0029029500999991901051820004+61483+021350FM-12+000699999V0202701N009819999999N0000001N9+00281+99999100581ADDGF108991999999999999999999
0029029500999991901051906004+61483+021350FM-12+000699999V0201801N004119999999N0000001N9+00561+99999100641ADDGF102991999999999999999999
0029029500999991901051913004+61483+021350FM-12+000699999V0202901N004119999999N0000001N9+00501+99999100951ADDGF102991999999999999999999
0029029500999991901051920004+61483+021350FM-12+000699999V0203201N006219999999N0000001N9+00331+99999101421ADDGF102991999999999999999999
0029029500999991901052006004+61483+021350FM-12+000699999V0203601N006219999999N0000001N9+00441+99999101921ADDGF100991999999999999999999
0029029500999991901052013004+61483+021350FM-12+000699999V0203401N015919999999N0000001N9+00501+99999102461ADDGF102991999999999999999999
0029029500999991901052020004+61483+021350FM-12+000699999V0203401N004119999999N0000001N9+00441+99999102921ADDGF102991999999999999999999
0029029500999991901052106004+61483+021350FM-12+000699999V0202301N002119999999N0000001N9+00561+99999103311ADDGF100991999999999999999999
0029029500999991901052113004+61483+021350FM-12+000699999V0202301N006219999999N0000001N9+00781+99999103471ADDGF100991999999999999999999
0029029500999991901052120004+61483+021350FM-12+000699999V0202301N006219999999N0000001N9+00611+99999103351ADDGF102991999999999999999999
0029029500999991901052206004+61483+021350FM-12+000699999V0202301N008219999999N0000001N9+00721+99999103421ADDGF103991999999999999999999
0029029500999991901052213004+61483+021350FM-12+000699999V0202301N009819999999N0000001N9+01061+99999103511ADDGF104991999999999999999999
0029029500999991901052220004+61483+021350FM-12+000699999V0202001N006219999999N0000001N9+00721+99999103241ADDGF107991999999999999999999
0029029500999991901052306004+61483+021350FM-12+000699999V0202001N004119999999N0000001N9+00831+99999103111ADDGF102991999999999999999999
0029029500999991901052313004+61483+021350FM-12+000699999V0202301N004119999999N0000001N9+00941+99999103001ADDGF102991999999999999999999
0029029500999991901052320004+61483+021350FM-12+000699999V0203201N002119999999N0000001N9+00561+99999102921ADDGF102991999999999999999999
0029029500999991901052406004+61483+021350FM-12+000699999V0203601N004119999999N0000001N9+00611+99999102981ADDGF103991999999999999999999
0029029500999991901052413004+61483+021350FM-12+000699999V0203201N006219999999N0000001N9+00671+99999102901ADDGF103991999999999999999999
0029029500999991901052420004+61483+021350FM-12+000699999V0202501N004119999999N0000001N9+00561+99999102641ADDGF107991999999999999999999
0029029500999991901052506004+61483+021350FM-12+000699999V0203201N004119999999N0000001N9+00721+99999102441ADDGF107991999999999999999999
0029029500999991901052513004+61483+021350FM-12+000699999V0202901N006219999999N0000001N9+00781+99999102391ADDGF106991999999999999999999
0029029500999991901052520004+61483+021350FM-12+000699999V0203201N002119999999N0000001N9+00721+99999102281ADDGF105991999999999999999999
0029029500999991901052606004+61483+021350FM-12+000699999V0203201N006219999999N0000001N9+00671+99999101961ADDGF100991999999999999999999
0029029500999991901052613004+61483+021350FM-12+000699999V0202301N004119999999N0000001N9+01001+99999101831ADDGF100991999999999999999999
0029029500999991901052620004+61483+021350FM-12+000699999V0209991C000019999999N0000001N9+00721+99999101431ADDGF100991999999999999999999
0029029500999991901052706004+61483+021350FM-12+000699999V0203401N006219999999N0000001N9+00671+99999101341ADDGF102991999999999999999999
0029029500999991901052713004+61483+021350FM-12+000699999V0203401N006219999999N0000001N9+00721+99999101481ADDGF101991999999999999999999
0029029500999991901052720004+61483+021350FM-12+000699999V0202301N002119999999N0000001N9+00671+99999101461ADDGF100991999999999999999999
0029029500999991901052806004+61483+021350FM-12+000699999V0202501N004119999999N0000001N9+00671+99999101181ADDGF100991999999999999999999
0029029500999991901052813004+61483+021350FM-12+000699999V0202501N004119999999N0000001N9+00891+99999101101ADDGF101991999999999999999999
0029029500999991901052820004+61483+021350FM-12+000699999V0201801N004119999999N0000001N9+01001+99999100631ADDGF102991999999999999999999
0029029500999991901052906004+61483+021350FM-12+000699999V0203601N004119999999N0000001N9+00831+99999100521ADDGF106991999999999999999999
0029029500999991901052913004+61483+021350FM-12+000699999V0203601N015919999999N0000001N9+01061+99999100881ADDGF100991999999999999999999
0029029500999991901052920004+61483+021350FM-12+000699999V0200501N008219999999N0000001N9+00831+99999100981ADDGF100991999999999999999999
0029029500999991901053006004+61483+021350FM-12+000699999V0203601N004119999999N0000001N9+00561+99999101361ADDGF100991999999999999999999
0029029500999991901053013004+61483+021350FM-12+000699999V0203401N006219999999N0000001N9+00781+99999101381ADDGF102991999999999999999999
0029029500999991901053020004+61483+021350FM-12+000699999V0200701N004119999999N0000001N9+00611+99999101381ADDGF108991999999999999999999
0029029500999991901053106004+61483+021350FM-12+000699999V0201801N006219999999N0000001N9+00941+99999101511ADDGF108991999999999999999999
0029029500999991901053113004+61483+021350FM-12+000699999V0202001N004119999999N0000001N9+01281+99999101621ADDGF106991999999999999999999
0029029500999991901053120004+61483+021350FM-12+000699999V0202001N006219999999N0000001N9+00941+99999101501ADDGF106991999999999999999999
0029029500999991901060106004+61483+021350FM-12+000699999V0201801N008219999999N0000001N9+00941+99999101081ADDGF108991999999999999999999
0029029500999991901060113004+61483+021350FM-12+000699999V0202001N009819999999N0000001N9+01171+99999101101ADDGF102991999999999999999999
0029029500999991901060120004+61483+021350FM-12+000699999V0201801N006219999999N0000001N9+01111+99999100991ADDGF102991999999999999999999
0029029500999991901060206004+61483+021350FM-12+000699999V0201801N006219999999N0000001N9+01171+99999101101ADDGF102991999999999999999999
0029029500999991901060213004+61483+021350FM-12+000699999V0201601N004119999999N0000001N9+01171+99999101121ADDGF108991999999999999999999
0029029500999991901060220004+61483+021350FM-12+000699999V0209991C000019999999N0000001N9+00941+99999100831ADDGF108991999999999999999999
0029029500999991901060306004+61483+021350FM-12+000699999V0202301N006219999999N0000001N9+00891+99999101151ADDGF100991999999999999999999
0029029500999991901060313004+61483+021350FM-12+000699999V0202001N011819999999N0000001N9+01111+99999101281ADDGF102991999999999999999999
0029029500999991901060320004+61483+021350FM-12+000699999V0202301N008219999999N0000001N9+00831+99999101311ADDGF102991999999999999999999
0029029500999991901060406004+61483+021350FM-12+000699999V0203201N006219999999N0000001N9+00831+99999101821ADDGF100991999999999999999999
0029029500999991901060413004+61483+021350FM-12+000699999V0203201N004119999999N0000001N9+00831+99999102031ADDGF100991999999999999999999
0029029500999991901060420004+61483+021350FM-12+000699999V0203401N004119999999N0000001N9+00831+99999102071ADDGF101991999999999999999999
0029029500999991901060506004+61483+021350FM-12+000699999V0200901N002119999999N0000001N9+01561+99999102061ADDGF102991999999999999999999
0029029500999991901060513004+61483+021350FM-12+000699999V0200201N004119999999N0000001N9+01441+99999102121ADDGF106991999999999999999999
0000029500999991901060520004+61483+021350FM-12+000699999V02099999999999999999N0000001N9+01111+99999102161
0029029500999991901060606004+61483+021350FM-12+000699999V0209991C000019999999N0000001N9+01501+99999102041ADDGF103991999999999999999999
0029029500999991901060613004+61483+021350FM-12+000699999V0202501N002119999999N0000001N9+01501+99999101841ADDGF101991999999999999999999
0029029500999991901060620004+61483+021350FM-12+000699999V0209991C000019999999N0000001N9+01391+99999101911ADDGF105991999999999999999999
0029029500999991901060706004+61483+021350FM-12+000699999V0203601N002119999999N0000001N9+01331+99999101961ADDGF102991999999999999999999
0029029500999991901060713004+61483+021350FM-12+000699999V0203401N008219999999N0000001N9+01441+99999102101ADDGF102991999999999999999999
0029029500999991901060720004+61483+021350FM-12+000699999V0200201N006219999999N0000001N9+01331+99999102031ADDGF101991999999999999999999
0029029500999991901060806004+61483+021350FM-12+000699999V0200701N004119999999N0000001N9+01721+99999102101ADDGF103991999999999999999999
0029029500999991901060813004+61483+021350FM-12+000699999V0200201N006219999999N0000001N9+01561+99999102101ADDGF106991999999999999999999
0029029500999991901060820004+61483+021350FM-12+000699999V0200501N004119999999N0000001N9+01561+99999102041ADDGF103991999999999999999999
0029029500999991901060906004+61483+021350FM-12+000699999V0201101N002119999999N0000001N9+01891+99999102101ADDGF100991999999999999999999
0029029500999991901060913004+61483+021350FM-12+000699999V0209991C000019999999N0000001N9+01831+99999101911ADDGF106991999999999999999999
0029029500999991901060920004+61483+021350FM-12+000699999V0209991C000019999999N0000001N9+01891+99999101661ADDGF104991999999999999999999
0029029500999991901061006004+61483+021350FM-12+000699999V0201601N004119999999N0000001N9+01501+99999101471ADDGF108991999999999999999999
0029029500999991901061013004+61483+021350FM-12+000699999V0202001N009819999999N0000001N9+01561+99999101181ADDGF108991999999999999999999
0029029500999991901061020004+61483+021350FM-12+000699999V0201801N004119999999N0000001N9+01221+99999101161ADDGF103991999999999999999999
0029029500999991901061106004+61483+021350FM-12+000699999V0201601N006219999999N0000001N9+01221+99999100761ADDGF108991999999999999999999
0029029500999991901061113004+61483+021350FM-12+000699999V0201801N004119999999N0000001N9+01331+99999100221ADDGF108991999999999999999999
0029029500999991901061120004+61483+021350FM-12+000699999V0201801N008219999999N0000001N9+01221+99999099521ADDGF106991999999999999999999
0029029500999991901061206004+61483+021350FM-12+000699999V0202301N015919999999N0000001N9+01001+99999099341ADDGF106991999999999999999999
0029029500999991901061213004+61483+021350FM-12+000699999V0202001N018019999999N0000001N9+01221+99999099391ADDGF107991999999999999999999
0029029500999991901061220004+61483+021350FM-12+000699999V0202301N011819999999N0000001N9+00941+99999099201ADDGF108991999999999999999999
0029029500999991901061306004+61483+021350FM-12+000699999V0202301N011819999999N0000001N9+00941+99999099621ADDGF100991999999999999999999
0029029500999991901061313004+61483+021350FM-12+000699999V0202301N009819999999N0000001N9+01281+99999099831ADDGF102991999999999999999999
0029029500999991901061320004+61483+021350FM-12+000699999V0202001N004119999999N0000001N9+01171+99999099741ADDGF103991999999999999999999
0029029500999991901061406004+61483+021350FM-12+000699999V0200501N011819999999N0000001N9+00891+99999099041ADDGF108991999999999999999999
0029029500999991901061413004+61483+021350FM-12+000699999V0203401N013919999999N0000001N9+00721+99999099721ADDGF103991999999999999999999
0029029500999991901061420004+61483+021350FM-12+000699999V0202001N009819999999N0000001N9+00941+99999100161ADDGF104991999999999999999999
0029029500999991901061506004+61483+021350FM-12+000699999V0203201N004119999999N0000001N9+00941+99999100551ADDGF107991999999999999999999
0000029500999991901061513004+61483+021350FM-12+000699999V02099999999999999999N0000001N9+01561+99999100701
0029029500999991901061520004+61483+021350FM-12+000699999V0202001N008219999999N0000001N9+01221+99999100751ADDGF102991999999999999999999
0029029500999991901061606004+61483+021350FM-12+000699999V0201401N004119999999N0000001N9+01281+99999100521ADDGF102991999999999999999999
0029029500999991901061613004+61483+021350FM-12+000699999V0200201N002119999999N0000001N9+01221+99999100681ADDGF107991999999999999999999
0029029500999991901061620004+61483+021350FM-12+000699999V0200501N002119999999N0000001N9+01221+99999100871ADDGF103991999999999999999999
0029029500999991901061706004+61483+021350FM-12+000699999V0200901N002119999999N0000001N9+01501+99999101191ADDGF108991999999999999999999
0000029500999991901061713004+61483+021350FM-12+000699999V02099999999999999999N0000001N9+01891+99999101401
0029029500999991901061720004+61483+021350FM-12+000699999V0200501N002119999999N0000001N9+01331+99999101671ADDGF106991999999999999999999
0029029500999991901061806004+61483+021350FM-12+000699999V0200901N004119999999N0000001N9+01561+99999101781ADDGF108991999999999999999999
0029029500999991901061813004+61483+021350FM-12+000699999V0200901N006219999999N0000001N9+02221+99999101801ADDGF106991999999999999999999
0029029500999991901061820004+61483+021350FM-12+000699999V0200901N006219999999N0000001N9+01671+99999101711ADDGF108991999999999999999999
0029029500999991901061906004+61483+021350FM-12+000699999V0200701N008219999999N0000001N9+01281+99999101461ADDGF108991999999999999999999
0029029500999991901061913004+61483+021350FM-12+000699999V0200701N002119999999N0000001N9+01611+99999101561ADDGF108991999999999999999999
0029029500999991901061920004+61483+021350FM-12+000699999V0202001N008219999999N0000001N9+01281+99999101721ADDGF108991999999999999999999
0029029500999991901062006004+61483+021350FM-12+000699999V0201601N009819999999N0000001N9+01281+99999101861ADDGF108991999999999999999999
0029029500999991901062013004+61483+021350FM-12+000699999V0202001N009819999999N0000001N9+01721+99999102031ADDGF102991999999999999999999
0029029500999991901062020004+61483+021350FM-12+000699999V0202001N006219999999N0000001N9+01391+99999102231ADDGF102991999999999999999999
0029029500999991901062106004+61483+021350FM-12+000699999V0202001N006219999999N0000001N9+01331+99999102351ADDGF101991999999999999999999
0029029500999991901062113004+61483+021350FM-12+000699999V0202701N002119999999N0000001N9+01221+99999102391ADDGF103991999999999999999999
0029029500999991901062120004+61483+021350FM-12+000699999V0209991C000019999999N0000001N9+01561+99999102201ADDGF102991999999999999999999
0029029500999991901062206004+61483+021350FM-12+000699999V0203401N004119999999N0000001N9+01391+99999102101ADDGF108991999999999999999999
0029029500999991901062213004+61483+021350FM-12+000699999V0203401N004119999999N0000001N9+01501+99999102111ADDGF102991999999999999999999
0029029500999991901062220004+61483+021350FM-12+000699999V0203401N002119999999N0000001N9+01671+99999102071ADDGF102991999999999999999999
0029029500999991901062306004+61483+021350FM-12+000699999V0209991C000019999999N0000001N9+01501+99999102151ADDGF102991999999999999999999
0029029500999991901062313004+61483+021350FM-12+000699999V0203601N004119999999N0000001N9+01831+99999102191ADDGF102991999999999999999999
0029029500999991901062320004+61483+021350FM-12+000699999V0200501N002119999999N0000001N9+01671+99999102141ADDGF101991999999999999999999
0029029500999991901062406004+61483+021350FM-12+000699999V0201401N004119999999N0000001N9+02001+99999102111ADDGF100991999999999999999999
0029029500999991901062413004+61483+021350FM-12+000699999V0201401N006219999999N0000001N9+02781+99999102141ADDGF103991999999999999999999
0029029500999991901062420004+61483+021350FM-12+000699999V0209991C000019999999N0000001N9+02281+99999102031ADDGF100991999999999999999999
0029029500999991901062506004+61483+021350FM-12+000699999V0200901N004119999999N0000001N9+02001+99999101911ADDGF100991999999999999999999
0029029500999991901062513004+61483+021350FM-12+000699999V0201401N004119999999N0000001N9+02441+99999101761ADDGF105991999999999999999999
0029029500999991901062520004+61483+021350FM-12+000699999V0201801N004119999999N0000001N9+02111+99999101711ADDGF101991999999999999999999
0029029500999991901062606004+61483+021350FM-12+000699999V0200701N002119999999N0000001N9+01941+99999101501ADDGF102991999999999999999999
0029029500999991901062613004+61483+021350FM-12+000699999V0203601N006219999999N0000001N9+02001+99999101281ADDGF106991999999999999999999
0029029500999991901062620004+61483+021350FM-12+000699999V0201801N009819999999N0000001N9+01561+99999101381ADDGF108991999999999999999999
0029029500999991901062706004+61483+021350FM-12+000699999V0202001N009819999999N0000001N9+01391+99999101471ADDGF108991999999999999999999
0029029500999991901062713004+61483+021350FM-12+000699999V0202001N004119999999N0000001N9+01501+99999101561ADDGF108991999999999999999999
0029029500999991901062720004+61483+021350FM-12+000699999V0201401N004119999999N0000001N9+01221+99999101431ADDGF108991999999999999999999
0029029500999991901062806004+61483+021350FM-12+000699999V0203201N006219999999N0000001N9+01061+99999100981ADDGF108991999999999999999999
0029029500999991901062813004+61483+021350FM-12+000699999V0202501N008219999999N0000001N9+01281+99999101281ADDGF106991999999999999999999
0029029500999991901062820004+61483+021350FM-12+000699999V0202501N008219999999N0000001N9+01221+99999101461ADDGF108991999999999999999999
0029029500999991901062906004+61483+021350FM-12+000699999V0203401N004119999999N0000001N9+01331+99999101781ADDGF108991999999999999999999
0029029500999991901062913004+61483+021350FM-12+000699999V0203201N008219999999N0000001N9+01391+99999102081ADDGF103991999999999999999999
0029029500999991901062920004+61483+021350FM-12+000699999V0203401N008219999999N0000001N9+01441+99999102231ADDGF102991999999999999999999
0029029500999991901063006004+61483+021350FM-12+000699999V0200701N002119999999N0000001N9+01501+99999102361ADDGF103991999999999999999999
0029029500999991901063013004+61483+021350FM-12+000699999V0202701N004119999999N0000001N9+01501+99999102241ADDGF103991999999999999999999
0029029500999991901063020004+61483+021350FM-12+000699999V0203201N004119999999N0000001N9+01221+99999102081ADDGF108991999999999999999999
0029029500999991901070106004+61483+021350FM-12+000699999V0203601N008219999999N0000001N9+01331+99999101791ADDGF107991999999999999999999
0029029500999991901070113004+61483+021350FM-12+000699999V0203401N009819999999N0000001N9+01391+99999101631ADDGF106991999999999999999999
0029029500999991901070120004+61483+021350FM-12+000699999V0200201N006219999999N0000001N9+01331+99999101481ADDGF103991999999999999999999
0029029500999991901070206004+61483+021350FM-12+000699999V0200501N004119999999N0000001N9+01331+99999101381ADDGF102991999999999999999999
0029029500999991901070213004+61483+021350FM-12+000699999V0203601N008219999999N0000001N9+01391+99999101061ADDGF103991999999999999999999
0029029500999991901070220004+61483+021350FM-12+000699999V0203601N009819999999N0000001N9+01221+99999101041ADDGF101991999999999999999999
0029029500999991901070306004+61483+021350FM-12+000699999V0200201N009819999999N0000001N9+01171+99999101161ADDGF101991999999999999999999
0029029500999991901070313004+61483+021350FM-12+000699999V0203601N011819999999N0000001N9+01281+99999101021ADDGF106991999999999999999999
0029029500999991901070320004+61483+021350FM-12+000699999V0203601N011819999999N0000001N9+01171+99999101031ADDGF106991999999999999999999
0029029500999991901070406004+61483+021350FM-12+000699999V0203601N011819999999N0000001N9+01061+99999100821ADDGF106991999999999999999999
0029029500999991901070413004+61483+021350FM-12+000699999V0203401N011819999999N0000001N9+01171+99999100681ADDGF103991999999999999999999
0029029500999991901070420004+61483+021350FM-12+000699999V0200201N006219999999N0000001N9+00941+99999100741ADDGF100991999999999999999999
0029029500999991901070506004+61483+021350FM-12+000699999V0203601N006219999999N0000001N9+01001+99999100831ADDGF106991999999999999999999
0029029500999991901070513004+61483+021350FM-12+000699999V0203401N009819999999N0000001N9+01281+99999100821ADDGF102991999999999999999999
0029029500999991901070520004+61483+021350FM-12+000699999V0200501N006219999999N0000001N9+01001+99999101041ADDGF100991999999999999999999
0029029500999991901070606004+61483+021350FM-12+000699999V0200201N004119999999N0000001N9+01061+99999101081ADDGF101991999999999999999999
0029029500999991901070613004+61483+021350FM-12+000699999V0203201N004119999999N0000001N9+01501+99999101191ADDGF100991999999999999999999
0029029500999991901070620004+61483+021350FM-12+000699999V0202301N002119999999N0000001N9+01331+99999101181ADDGF101991999999999999999999
0029029500999991901070706004+61483+021350FM-12+000699999V0209991C000019999999N0000001N9+01391+99999101121ADDGF101991999999999999999999
0029029500999991901070713004+61483+021350FM-12+000699999V0203401N006219999999N0000001N9+01441+99999101221ADDGF106991999999999999999999
0029029500999991901070720004+61483+021350FM-12+000699999V0203401N006219999999N0000001N9+01221+99999101231ADDGF106991999999999999999999
0029029500999991901070806004+61483+021350FM-12+000699999V0203401N003119999999N0000001N9+01221+99999101191ADDGF108991999999999999999999
0029029500999991901070813004+61483+021350FM-12+000699999V0203201N006219999999N0000001N9+01441+99999101241ADDGF106991999999999999999999
0029029500999991901070820004+61483+021350FM-12+000699999V0203201N004119999999N0000001N9+01331+99999101221ADDGF106991999999999999999999
0029029500999991901070906004+61483+021350FM-12+000699999V0200201N006219999999N0000001N9+01281+99999101521ADDGF100991999999999999999999
0029029500999991901070913004+61483+021350FM-12+000699999V0203401N006219999999N0000001N9+01391+99999101791ADDGF101991999999999999999999
0029029500999991901070920004+61483+021350FM-12+000699999V0200201N002119999999N0000001N9+01171+99999101841ADDGF100991999999999999999999
0029029500999991901071006004+61483+021350FM-12+000699999V0209991C000019999999N0000001N9+01781+99999101901ADDGF102991999999999999999999
0029029500999991901071013004+61483+021350FM-12+000699999V0202901N002119999999N0000001N9+01721+99999101941ADDGF101991999999999999999999
0029029500999991901071020004+61483+021350FM-12+000699999V0209991C000019999999N0000001N9+01781+99999101861ADDGF101991999999999999999999
0029029500999991901071106004+61483+021350FM-12+000699999V0201601N004119999999N0000001N9+01831+99999101701ADDGF102991999999999999999999
0029029500999991901071113004+61483+021350FM-12+000699999V0202001N006219999999N0000001N9+01781+99999101591ADDGF102991999999999999999999
0029029500999991901071120004+61483+021350FM-12+000699999V0201801N002119999999N0000001N9+01501+99999101601ADDGF108991999999999999999999
0029029500999991901071206004+61483+021350FM-12+000699999V0202901N002119999999N0000001N9+01501+99999101561ADDGF103991999999999999999999
0029029500999991901071213004+61483+021350FM-12+000699999V0203601N006219999999N0000001N9+01611+99999101551ADDGF100991999999999999999999
0029029500999991901071220004+61483+021350FM-12+000699999V0200201N002119999999N0000001N9+01501+99999101551ADDGF100991999999999999999999
0029029500999991901071306004+61483+021350FM-12+000699999V0202701N002119999999N0000001N9+01501+99999101551ADDGF102991999999999999999999
0029029500999991901071313004+61483+021350FM-12+000699999V0202901N002119999999N0000001N9+01781+99999101421ADDGF101991999999999999999999
0029029500999991901071320004+61483+021350FM-12+000699999V0209991C000019999999N0000001N9+01671+99999101391ADDGF102991999999999999999999
0029029500999991901071406004+61483+021350FM-12+000699999V0201801N006219999999N0000001N9+01671+99999101121ADDGF108991999999999999999999
0029029500999991901071413004+61483+021350FM-12+000699999V0202001N004119999999N0000001N9+01941+99999101141ADDGF101991999999999999999999
0029029500999991901071420004+61483+021350FM-12+000699999V0203201N002119999999N0000001N9+01501+99999101151ADDGF102991999999999999999999
0029029500999991901071506004+61483+021350FM-12+000699999V0200501N006219999999N0000001N9+01671+99999101551ADDGF101991999999999999999999
0029029500999991901071513004+61483+021350FM-12+000699999V0203401N008219999999N0000001N9+01721+99999101701ADDGF102991999999999999999999
0029029500999991901071520004+61483+021350FM-12+000699999V0200701N006219999999N0000001N9+01671+99999101551ADDGF106991999999999999999999
0029029500999991901071606004+61483+021350FM-12+000699999V0201101N006219999999N0000001N9+01831+99999101511ADDGF108991999999999999999999
0029029500999991901071613004+61483+021350FM-12+000699999V0209991C000019999999N0000001N9+02111+99999101521ADDGF106991999999999999999999
0029029500999991901071620004+61483+021350FM-12+000699999V0209991C000019999999N0000001N9+01561+99999101671ADDGF105991999999999999999999
0029029500999991901071706004+61483+021350FM-12+000699999V0202701N002119999999N0000001N9+01561+99999101801ADDGF102991999999999999999999
0029029500999991901071713004+61483+021350FM-12+000699999V0203201N004119999999N0000001N9+01611+99999102111ADDGF108991999999999999999999
0029029500999991901071720004+61483+021350FM-12+000699999V0209991C000019999999N0000001N9+01441+99999102141ADDGF102991999999999999999999
0029029500999991901071806004+61483+021350FM-12+000699999V0201801N004119999999N0000001N9+01721+99999102231ADDGF102991999999999999999999
0029029500999991901071813004+61483+021350FM-12+000699999V0202701N002119999999N0000001N9+02061+99999102391ADDGF103991999999999999999999
0029029500999991901071820004+61483+021350FM-12+000699999V0203401N002119999999N0000001N9+01671+99999102601ADDGF103991999999999999999999
0029029500999991901071906004+61483+021350FM-12+000699999V0200901N002119999999N0000001N9+01831+99999102741ADDGF101991999999999999999999
0029029500999991901071913004+61483+021350FM-12+000699999V0202901N002119999999N0000001N9+02061+99999102791ADDGF101991999999999999999999
0029029500999991901071920004+61483+021350FM-12+000699999V0200501N002119999999N0000001N9+02001+99999102711ADDGF100991999999999999999999
0029029500999991901072006004+61483+021350FM-12+000699999V0200901N004119999999N0000001N9+02061+99999102701ADDGF100991999999999999999999
0029029500999991901072013004+61483+021350FM-12+000699999V0203201N004119999999N0000001N9+02221+99999102561ADDGF100991999999999999999999
0029029500999991901072020004+61483+021350FM-12+000699999V0209991C000019999999N0000001N9+02171+99999102701ADDGF102991999999999999999999
0029029500999991901072106004+61483+021350FM-12+000699999V0201601N002119999999N0000001N9+02171+99999102441ADDGF102991999999999999999999
0029029500999991901072113004+61483+021350FM-12+000699999V0203601N002119999999N0000001N9+02331+99999102481ADDGF102991999999999999999999
0029029500999991901072120004+61483+021350FM-12+000699999V0200501N002119999999N0000001N9+02171+99999102301ADDGF102991999999999999999999
0029029500999991901072206004+61483+021350FM-12+000699999V0200701N004119999999N0000001N9+02111+99999102241ADDGF100991999999999999999999
0029029500999991901072213004+61483+021350FM-12+000699999V0200201N006219999999N0000001N9+02331+99999102101ADDGF100991999999999999999999
0029029500999991901072220004+61483+021350FM-12+000699999V0200701N002119999999N0000001N9+02001+99999101881ADDGF102991999999999999999999
0029029500999991901072306004+61483+021350FM-12+000699999V0201601N002119999999N0000001N9+02001+99999101721ADDGF100991999999999999999999
0029029500999991901072313004+61483+021350FM-12+000699999V0202501N004119999999N0000001N9+02441+99999101711ADDGF101991999999999999999999
0029029500999991901072320004+61483+021350FM-12+000699999V0201801N002119999999N0000001N9+02331+99999101701ADDGF106991999999999999999999
0029029500999991901072406004+61483+021350FM-12+000699999V0201401N004119999999N0000001N9+01941+99999101741ADDGF100991999999999999999999
0029029500999991901072413004+61483+021350FM-12+000699999V0203201N004119999999N0000001N9+02671+99999101751ADDGF100991999999999999999999
0029029500999991901072420004+61483+021350FM-12+000699999V0200901N002119999999N0000001N9+02111+99999101831ADDGF102991999999999999999999
0029029500999991901072506004+61483+021350FM-12+000699999V0201601N004119999999N0000001N9+02001+99999101951ADDGF100991999999999999999999
0029029500999991901072513004+61483+021350FM-12+000699999V0203401N004119999999N0000001N9+02331+99999101941ADDGF101991999999999999999999
0029029500999991901072520004+61483+021350FM-12+000699999V0209991C000019999999N0000001N9+02111+99999101961ADDGF102991999999999999999999
0029029500999991901072606004+61483+021350FM-12+000699999V0201401N002119999999N0000001N9+02061+99999102021ADDGF100991999999999999999999
0029029500999991901072613004+61483+021350FM-12+000699999V0203601N004119999999N0000001N9+02441+99999102021ADDGF100991999999999999999999
0029029500999991901072620004+61483+021350FM-12+000699999V0203401N004119999999N0000001N9+02171+99999101961ADDGF102991999999999999999999
0029029500999991901072706004+61483+021350FM-12+000699999V0200901N004119999999N0000001N9+02111+99999101821ADDGF106991999999999999999999
0029029500999991901072713004+61483+021350FM-12+000699999V0203401N006219999999N0000001N9+02331+99999101711ADDGF102991999999999999999999
0029029500999991901072720004+61483+021350FM-12+000699999V0202301N002119999999N0000001N9+02061+99999101621ADDGF102991999999999999999999
0029029500999991901072806004+61483+021350FM-12+000699999V0203201N002119999999N0000001N9+02171+99999101621ADDGF102991999999999999999999
0029029500999991901072813004+61483+021350FM-12+000699999V0203201N006219999999N0000001N9+02441+99999101601ADDGF102991999999999999999999
0029029500999991901072820004+61483+021350FM-12+000699999V0203601N001019999999N0000001N9+02171+99999101631ADDGF102991999999999999999999
0029029500999991901072906004+61483+021350FM-12+000699999V0201801N004119999999N0000001N9+02221+99999101671ADDGF106991999999999999999999
0029029500999991901072913004+61483+021350FM-12+000699999V0202301N008219999999N0000001N9+02441+99999101721ADDGF102991999999999999999999
0029029500999991901072920004+61483+021350FM-12+000699999V0202001N009819999999N0000001N9+02111+99999101601ADDGF102991999999999999999999
0029029500999991901073006004+61483+021350FM-12+000699999V0202301N009819999999N0000001N9+02221+99999101441ADDGF106991999999999999999999
0029029500999991901073013004+61483+021350FM-12+000699999V0202701N006219999999N0000001N9+02171+99999101481ADDGF108991999999999999999999
0029029500999991901073020004+61483+021350FM-12+000699999V0202301N004119999999N0000001N9+01941+99999101461ADDGF103991999999999999999999
0029029500999991901073106004+61483+021350FM-12+000699999V0202301N009819999999N0000001N9+02061+99999101101ADDGF108991999999999999999999
0029029500999991901073113004+61483+021350FM-12+000699999V0203401N013919999999N0000001N9+02001+99999101301ADDGF102991999999999999999999
0029029500999991901073120004+61483+021350FM-12+000699999V0203401N013919999999N0000001N9+01891+99999101661ADDGF102991999999999999999999
0029029500999991901080106004+61483+021350FM-12+000699999V0203201N002119999999N0000001N9+01781+99999101801ADDGF102991999999999999999999
0029029500999991901080113004+61483+021350FM-12+000699999V0202701N004119999999N0000001N9+01891+99999101791ADDGF101991999999999999999999
0029029500999991901080120004+61483+021350FM-12+000699999V0201801N004119999999N0000001N9+01781+99999101671ADDGF101991999999999999999999
0029029500999991901080206004+61483+021350FM-12+000699999V0201801N006219999999N0000001N9+01941+99999101521ADDGF101991999999999999999999
0029029500999991901080213004+61483+021350FM-12+000699999V0202001N004119999999N0000001N9+02391+99999101101ADDGF101991999999999999999999
0029029500999991901080220004+61483+021350FM-12+000699999V0202001N015919999999N0000001N9+02001+99999100761ADDGF102991999999999999999999
0029029500999991901080306004+61483+021350FM-12+000699999V0203201N006219999999N0000001N9+01501+99999100761ADDGF105991999999999999999999
0029029500999991901080313004+61483+021350FM-12+000699999V0202901N008219999999N0000001N9+01561+99999101121ADDGF106991999999999999999999
0029029500999991901080320004+61483+021350FM-12+000699999V0203201N008219999999N0000001N9+01501+99999101281ADDGF106991999999999999999999
0029029500999991901080406004+61483+021350FM-12+000699999V0202001N004119999999N0000001N9+01781+99999101521ADDGF103991999999999999999999
0029029500999991901080413004+61483+021350FM-12+000699999V0202301N008219999999N0000001N9+02061+99999101421ADDGF108991999999999999999999
0000029500999991901080420004+61483+021350FM-12+000699999V02099999999999999999N0000001N9+01721+99999101031
0029029500999991901080506004+61483+021350FM-12+000699999V0202001N015919999999N0000001N9+01671+99999100351ADDGF108991999999999999999999
0029029500999991901080513004+61483+021350FM-12+000699999V0202301N011819999999N0000001N9+02001+99999100341ADDGF104991999999999999999999
0029029500999991901080520004+61483+021350FM-12+000699999V0202001N009819999999N0000001N9+01781+99999100351ADDGF106991999999999999999999
0029029500999991901080606004+61483+021350FM-12+000699999V0202301N011819999999N0000001N9+01781+99999100271ADDGF106991999999999999999999
0029029500999991901080613004+61483+021350FM-12+000699999V0202501N009819999999N0000001N9+01941+99999100351ADDGF105991999999999999999999
0029029500999991901080620004+61483+021350FM-12+000699999V0201801N002119999999N0000001N9+01501+99999100481ADDGF102991999999999999999999
0029029500999991901080706004+61483+021350FM-12+000699999V0200901N004119999999N0000001N9+01561+99999100621ADDGF106991999999999999999999
0029029500999991901080713004+61483+021350FM-12+000699999V0201401N004119999999N0000001N9+01831+99999100661ADDGF108991999999999999999999
0029029500999991901080720004+61483+021350FM-12+000699999V0200701N004119999999N0000001N9+01501+99999100711ADDGF104991999999999999999999
0029029500999991901080806004+61483+021350FM-12+000699999V0202501N002119999999N0000001N9+01611+99999100761ADDGF104991999999999999999999
0029029500999991901080813004+61483+021350FM-12+000699999V0202501N004119999999N0000001N9+01781+99999100881ADDGF102991999999999999999999
0029029500999991901080820004+61483+021350FM-12+000699999V0209991C000019999999N0000001N9+01441+99999100761ADDGF106991999999999999999999
0029029500999991901080906004+61483+021350FM-12+000699999V0200901N002119999999N0000001N9+01611+99999100901ADDGF104991999999999999999999
0029029500999991901080913004+61483+021350FM-12+000699999V0203401N008219999999N0000001N9+01721+99999101231ADDGF101991999999999999999999
0029029500999991901080920004+61483+021350FM-12+000699999V0203401N008219999999N0000001N9+01671+99999101661ADDGF100991999999999999999999
0029029500999991901081006004+61483+021350FM-12+000699999V0202701N002119999999N0000001N9+01781+99999101991ADDGF102991999999999999999999
0029029500999991901081013004+61483+021350FM-12+000699999V0202301N006219999999N0000001N9+02171+99999102141ADDGF102991999999999999999999
0029029500999991901081020004+61483+021350FM-12+000699999V0202001N006219999999N0000001N9+01781+99999102161ADDGF102991999999999999999999
0029029500999991901081106004+61483+021350FM-12+000699999V0201801N008219999999N0000001N9+01891+99999102161ADDGF100991999999999999999999
0029029500999991901081113004+61483+021350FM-12+000699999V0202001N009819999999N0000001N9+02171+99999102111ADDGF101991999999999999999999
0029029500999991901081120004+61483+021350FM-12+000699999V0202001N008219999999N0000001N9+01831+99999102161ADDGF101991999999999999999999
0029029500999991901081206004+61483+021350FM-12+000699999V0202001N006219999999N0000001N9+01941+99999102191ADDGF103991999999999999999999
0029029500999991901081213004+61483+021350FM-12+000699999V0202301N006219999999N0000001N9+02221+99999102311ADDGF102991999999999999999999
0029029500999991901081220004+61483+021350FM-12+000699999V0209991C000019999999N0000001N9+01781+99999102321ADDGF106991999999999999999999
0029029500999991901081306004+61483+021350FM-12+000699999V0200901N002119999999N0000001N9+01891+99999102281ADDGF104991999999999999999999
0029029500999991901081313004+61483+021350FM-12+000699999V0203401N006219999999N0000001N9+02171+99999102361ADDGF107991999999999999999999
0029029500999991901081320004+61483+021350FM-12+000699999V0200701N004119999999N0000001N9+02061+99999102321ADDGF102991999999999999999999
0029029500999991901081406004+61483+021350FM-12+000699999V0201101N004119999999N0000001N9+02001+99999102541ADDGF102991999999999999999999
0029029500999991901081413004+61483+021350FM-12+000699999V0203601N004119999999N0000001N9+02281+99999102551ADDGF102991999999999999999999
0029029500999991901081420004+61483+021350FM-12+000699999V0200201N004119999999N0000001N9+02061+99999102471ADDGF102991999999999999999999
0029029500999991901081506004+61483+021350FM-12+000699999V0201101N006219999999N0000001N9+01891+99999102321ADDGF100991999999999999999999
0029029500999991901081513004+61483+021350FM-12+000699999V0201101N006219999999N0000001N9+02781+99999102141ADDGF106991999999999999999999
0029029500999991901081520004+61483+021350FM-12+000699999V0201101N004119999999N0000001N9+02171+99999101881ADDGF108991999999999999999999
0029029500999991901081606004+61483+021350FM-12+000699999V0201401N004119999999N0000001N9+02061+99999101761ADDGF108991999999999999999999
0029029500999991901081613004+61483+021350FM-12+000699999V0203401N002119999999N0000001N9+02501+99999101721ADDGF106991999999999999999999
0029029500999991901081620004+61483+021350FM-12+000699999V0202001N004119999999N0000001N9+02171+99999101781ADDGF103991999999999999999999
0029029500999991901081706004+61483+021350FM-12+000699999V0201401N004119999999N0000001N9+01941+99999101741ADDGF102991999999999999999999
0029029500999991901081713004+61483+021350FM-12+000699999V0209991C000019999999N0000001N9+02781+99999101711ADDGF108991999999999999999999
0029029500999991901081720004+61483+021350FM-12+000699999V0202301N004119999999N0000001N9+02061+99999101781ADDGF108991999999999999999999
0029029500999991901081806004+61483+021350FM-12+000699999V0202301N002119999999N0000001N9+01831+99999101751ADDGF108991999999999999999999
0029029500999991901081813004+61483+021350FM-12+000699999V0202901N008219999999N0000001N9+01831+99999101921ADDGF104991999999999999999999
0029029500999991901081820004+61483+021350FM-12+000699999V0203201N004119999999N0000001N9+01721+99999101951ADDGF101991999999999999999999
0029029500999991901081906004+61483+021350FM-12+000699999V0202501N006219999999N0000001N9+01831+99999101761ADDGF102991999999999999999999
0029029500999991901081913004+61483+021350FM-12+000699999V0202701N008219999999N0000001N9+01891+99999101601ADDGF108991999999999999999999
0029029500999991901081920004+61483+021350FM-12+000699999V0203201N009819999999N0000001N9+01561+99999101621ADDGF103991999999999999999999
0029029500999991901082006004+61483+021350FM-12+000699999V0202501N008219999999N0000001N9+01611+99999101301ADDGF103991999999999999999999
0029029500999991901082013004+61483+021350FM-12+000699999V0202501N002119999999N0000001N9+01831+99999101311ADDGF106991999999999999999999
0029029500999991901082020004+61483+021350FM-12+000699999V0200501N004119999999N0000001N9+01561+99999101481ADDGF104991999999999999999999
0029029500999991901082106004+61483+021350FM-12+000699999V0200501N009819999999N0000001N9+01391+99999101831ADDGF102991999999999999999999
0029029500999991901082113004+61483+021350FM-12+000699999V0203401N008219999999N0000001N9+01671+99999101861ADDGF107991999999999999999999
0029029500999991901082120004+61483+021350FM-12+000699999V0203601N006219999999N0000001N9+01611+99999101991ADDGF102991999999999999999999
0029029500999991901082206004+61483+021350FM-12+000699999V0203201N006219999999N0000001N9+01671+99999101921ADDGF108991999999999999999999
0029029500999991901082213004+61483+021350FM-12+000699999V0202701N006219999999N0000001N9+01781+99999101841ADDGF103991999999999999999999
0029029500999991901082220004+61483+021350FM-12+000699999V0201601N004119999999N0000001N9+01501+99999101471ADDGF105991999999999999999999
0029029500999991901082306004+61483+021350FM-12+000699999V0202301N008219999999N0000001N9+01831+99999100621ADDGF106991999999999999999999
0029029500999991901082313004+61483+021350FM-12+000699999V0200501N004119999999N0000001N9+01831+99999100421ADDGF108991999999999999999999
0029029500999991901082320004+61483+021350FM-12+000699999V0200201N013919999999N0000001N9+01501+99999100521ADDGF108991999999999999999999
0029029500999991901082406004+61483+021350FM-12+000699999V0200201N015919999999N0000001N9+01501+99999100551ADDGF104991999999999999999999
0029029500999991901082413004+61483+021350FM-12+000699999V0203601N015919999999N0000001N9+01441+99999100781ADDGF102991999999999999999999
0029029500999991901082420004+61483+021350FM-12+000699999V0203601N009819999999N0000001N9+01391+99999100911ADDGF102991999999999999999999
0029029500999991901082506004+61483+021350FM-12+000699999V0203401N009819999999N0000001N9+01281+99999100961ADDGF103991999999999999999999
0029029500999991901082513004+61483+021350FM-12+000699999V0203201N008219999999N0000001N9+01331+99999101031ADDGF105991999999999999999999
0029029500999991901082520004+61483+021350FM-12+000699999V0201801N002119999999N0000001N9+01001+99999100961ADDGF107991999999999999999999
0029029500999991901082606004+61483+021350FM-12+000699999V0201601N006219999999N0000001N9+01281+99999100661ADDGF108991999999999999999999
0029029500999991901082613004+61483+021350FM-12+000699999V0201801N006219999999N0000001N9+01611+99999100681ADDGF108991999999999999999999
0029029500999991901082620004+61483+021350FM-12+000699999V0201601N004119999999N0000001N9+01391+99999100671ADDGF108991999999999999999999
0029029500999991901082706004+61483+021350FM-12+000699999V0201401N006219999999N0000001N9+01441+99999100631ADDGF104991999999999999999999
0029029500999991901082713004+61483+021350FM-12+000699999V0201601N006219999999N0000001N9+02221+99999100471ADDGF103991999999999999999999
0029029500999991901082720004+61483+021350FM-12+000699999V0201101N009819999999N0000001N9+01721+99999100121ADDGF108991999999999999999999
0029029500999991901082806004+61483+021350FM-12+000699999V0201601N002119999999N0000001N9+01441+99999099961ADDGF108991999999999999999999
0029029500999991901082813004+61483+021350FM-12+000699999V0202301N004119999999N0000001N9+01831+99999100101ADDGF108991999999999999999999
0029029500999991901082820004+61483+021350FM-12+000699999V0201401N002119999999N0000001N9+01331+99999100111ADDGF106991999999999999999999
0029029500999991901082906004+61483+021350FM-12+000699999V0201401N002119999999N0000001N9+01281+99999100121ADDGF108991999999999999999999
0029029500999991901082913004+61483+021350FM-12+000699999V0200201N004119999999N0000001N9+01171+99999100161ADDGF108991999999999999999999
0029029500999991901082920004+61483+021350FM-12+000699999V0200701N004119999999N0000001N9+01221+99999100201ADDGF108991999999999999999999
0029029500999991901083006004+61483+021350FM-12+000699999V0200701N008219999999N0000001N9+01221+99999100361ADDGF108991999999999999999999
0029029500999991901083013004+61483+021350FM-12+000699999V0200701N006219999999N0000001N9+01561+99999100661ADDGF107991999999999999999999
0029029500999991901083020004+61483+021350FM-12+000699999V0209991C000019999999N0000001N9+01331+99999100821ADDGF108991999999999999999999
0029029500999991901083106004+61483+021350FM-12+000699999V0200201N006219999999N0000001N9+01061+99999100751ADDGF107991999999999999999999
0029029500999991901083113004+61483+021350FM-12+000699999V0203601N006219999999N0000001N9+01391+99999100701ADDGF104991999999999999999999
0029029500999991901083120004+61483+021350FM-12+000699999V0200501N008219999999N0000001N9+01221+99999100561ADDGF108991999999999999999999
0029029500999991901090106004+61483+021350FM-12+000699999V0200501N008219999999N0000001N9+00781+99999100381ADDGF108991999999999999999999
0029029500999991901090113004+61483+021350FM-12+000699999V0200701N008219999999N0000001N9+01111+99999100361ADDGF107991999999999999999999
0029029500999991901090120004+61483+021350FM-12+000699999V0200501N009819999999N0000001N9+00941+99999100441ADDGF108991999999999999999999
0029029500999991901090206004+61483+021350FM-12+000699999V0200501N008219999999N0000001N9+00721+99999100551ADDGF108991999999999999999999
0029029500999991901090213004+61483+021350FM-12+000699999V0200201N013919999999N0000001N9+00941+99999100781ADDGF108991999999999999999999
0029029500999991901090220004+61483+021350FM-12+000699999V0200501N009819999999N0000001N9+00611+99999100921ADDGF108991999999999999999999
0029029500999991901090306004+61483+021350FM-12+000699999V0200501N006219999999N0000001N9+00671+99999101261ADDGF108991999999999999999999
0029029500999991901090313004+61483+021350FM-12+000699999V0203601N009819999999N0000001N9+00831+99999101641ADDGF105991999999999999999999
0029029500999991901090320004+61483+021350FM-12+000699999V0200501N008219999999N0000001N9+00671+99999101961ADDGF107991999999999999999999
0029029500999991901090406004+61483+021350FM-12+000699999V0200501N002119999999N0000001N9+00671+99999102191ADDGF108991999999999999999999
0029029500999991901090413004+61483+021350FM-12+000699999V0203201N006219999999N0000001N9+00941+99999102311ADDGF102991999999999999999999
0029029500999991901090420004+61483+021350FM-12+000699999V0200701N006219999999N0000001N9+00721+99999102271ADDGF106991999999999999999999
