0029029720999991902010113004+60450+022267FM-12+001499999V0201401N012319999999N0000001N9-00061+99999099541ADDGF108991999999999999999999
0029029720999991902010106004+60450+022267FM-12+001499999V0201101N012319999999N0000001N9-00111+99999099711ADDGF108991999999999999999999
0029029720999991902010120004+60450+022267FM-12+001499999V0201101N006719999999N0000001N9-00171+99999098951ADDGF108991999999999999999999
0029029720999991902010206004+60450+022267FM-12+001499999V0209991C000019999999N0000001N9-00671+99999099031ADDGF108991999999999999999999
0029029720999991902010213004+60450+022267FM-12+001499999V0201401N002619999999N0000001N9-00781+99999099421ADDGF108991999999999999999999
0029029720999991902010220004+60450+022267FM-12+001499999V0201401N006719999999N0000001N9-01061+99999099721ADDGF108991999999999999999999
0029029720999991902010306004+60450+022267FM-12+001499999V0201401N006719999999N0000001N9-01391+99999100271ADDGF108991999999999999999999
0029029720999991902010313004+60450+022267FM-12+001499999V0201401N006719999999N0000001N9-01831+99999100461ADDGF101991999999999999999999
0029029720999991902010320004+60450+022267FM-12+001499999V0200201N004619999999N0000001N9-02111+99999100831ADDGF100991999999999999999999
0029029720999991902010406004+60450+022267FM-12+001499999V0201801N015419999999N0000001N9-00671+99999099321ADDGF108991999999999999999999
0029029720999991902010413004+60450+022267FM-12+001499999V0202501N015419999999N0000001N9+00061+99999098241ADDGF108991999999999999999999
0029029720999991902010420004+60450+022267FM-12+001499999V0202301N004619999999N0000001N9-00111+99999098281ADDGF100991999999999999999999
0029029720999991902010506004+60450+022267FM-12+001499999V0202001N002619999999N0000001N9+00111+99999097581ADDGF108991999999999999999999
0029029720999991902010513004+60450+022267FM-12+001499999V0202701N002619999999N0000001N9-00061+99999097841ADDGF108991999999999999999999
0029029720999991902010520004+60450+022267FM-12+001499999V0202701N002619999999N0000001N9-00331+99999098061ADDGF108991999999999999999999
0029029720999991902010606004+60450+022267FM-12+001499999V0202701N002619999999N0000001N9-01111+99999098941ADDGF108991999999999999999999
0029029720999991902010613004+60450+022267FM-12+001499999V0202701N004619999999N0000001N9-00941+99999099001ADDGF107991999999999999999999
0029029720999991902010620004+60450+022267FM-12+001499999V0200701N002619999999N0000001N9-01061+99999099241ADDGF100991999999999999999999
0029029720999991902010706004+60450+022267FM-12+001499999V0209991C000019999999N0000001N9-00721+99999100341ADDGF108991999999999999999999
0029029720999991902010713004+60450+022267FM-12+001499999V0201801N012319999999N0000001N9-00111+99999099741ADDGF108991999999999999999999
0029029720999991902010720004+60450+022267FM-12+001499999V0202301N006719999999N0000001N9-00331+99999099561ADDGF100991999999999999999999
0029029720999991902010806004+60450+022267FM-12+001499999V0209991C000019999999N0000001N9-00171+99999099911ADDGF108991999999999999999999
0029029720999991902010813004+60450+022267FM-12+001499999V0202501N009319999999N0000001N9+00001+99999099801ADDGF108991999999999999999999
0029029720999991902010820004+60450+022267FM-12+001499999V0202701N004619999999N0000001N9-00171+99999099901ADDGF100991999999999999999999
0029029720999991902010906004+60450+022267FM-12+001499999V0202701N009319999999N0000001N9-00111+99999100031ADDGF108991999999999999999999
0029029720999991902010913004+60450+022267FM-12+001499999V0202701N006719999999N0000001N9-00111+99999099881ADDGF108991999999999999999999
0029029720999991902010920004+60450+022267FM-12+001499999V0202701N002619999999N0000001N9-00501+99999099911ADDGF108991999999999999999999
0029029720999991902011006004+60450+022267FM-12+001499999V0202301N015419999999N0000001N9+00111+99999098271ADDGF108991999999999999999999
0029029720999991902011013004+60450+022267FM-12+001499999V0202701N012319999999N0000001N9+00171+99999098201ADDGF102991999999999999999999
0029029720999991902011020004+60450+022267FM-12+001499999V0202501N012319999999N0000001N9-00061+99999098221ADDGF100991999999999999999999
0029029720999991902011106004+60450+022267FM-12+001499999V0202701N012319999999N0000001N9-00721+99999097941ADDGF108991999999999999999999
0029029720999991902011113004+60450+022267FM-12+001499999V0203601N012319999999N0000001N9-00501+99999098381ADDGF108991999999999999999999
0029029720999991902011120004+60450+022267FM-12+001499999V0203601N002619999999N0000001N9-00941+99999099441ADDGF100991999999999999999999
0029029720999991902011206004+60450+022267FM-12+001499999V0201101N002619999999N0000001N9-01111+99999100261ADDGF108991999999999999999999
0029029720999991902011213004+60450+022267FM-12+001499999V0209991C000019999999N0000001N9-00831+99999100441ADDGF102991999999999999999999
0029029720999991902011220004+60450+022267FM-12+001499999V0201101N004619999999N0000001N9-01061+99999100111ADDGF102991999999999999999999
0029029720999991902011306004+60450+022267FM-12+001499999V0201101N012319999999N0000001N9-00501+99999098841ADDGF108991999999999999999999
0029029720999991902011313004+60450+022267FM-12+001499999V0201401N009319999999N0000001N9-00501+99999098881ADDGF108991999999999999999999
0029029720999991902011320004+60450+022267FM-12+001499999V0201401N006719999999N0000001N9-00501+99999099221ADDGF108991999999999999999999
0029029720999991902011406004+60450+022267FM-12+001499999V0203201N004619999999N0000001N9-00721+99999099921ADDGF108991999999999999999999
0029029720999991902011413004+60450+022267FM-12+001499999V0203601N012319999999N0000001N9-00941+99999100551ADDGF108991999999999999999999
0029029720999991902011420004+60450+022267FM-12+001499999V0203401N012319999999N0000001N9-01501+99999101431ADDGF100991999999999999999999
0029029720999991902011506004+60450+022267FM-12+001499999V0209991C000019999999N0000001N9-02281+99999101991ADDGF108991999999999999999999
0029029720999991902011513004+60450+022267FM-12+001499999V0201401N006719999999N0000001N9-01391+99999101671ADDGF108991999999999999999999
0029029720999991902011520004+60450+022267FM-12+001499999V0202001N019019999999N0000001N9-00331+99999100071ADDGF108991999999999999999999
0029029720999991902011606004+60450+022267FM-12+001499999V0202901N012319999999N0000001N9+00061+99999097462ADDGF108991999999999999999999
0029029720999991902011613004+60450+022267FM-12+001499999V0203201N022619999999N0000001N9+00171+99999097761ADDGF108991999999999999999999
0029029720999991902011620004+60450+022267FM-12+001499999V0203201N019019999999N0000001N9-00171+99999099001ADDGF100991999999999999999999
0029029720999991902011706004+60450+022267FM-12+001499999V0203201N009319999999N0000001N9-00171+99999099861ADDGF108991999999999999999999
0029029720999991902011713004+60450+022267FM-12+001499999V0203201N006719999999N0000001N9-00331+99999100061ADDGF108991999999999999999999
0029029720999991902011720004+60450+022267FM-12+001499999V0209991C000019999999N0000001N9-01061+99999100261ADDGF100991999999999999999999
0029029720999991902011806004+60450+022267FM-12+001499999V0203201N002619999999N0000001N9-01111+99999100501ADDGF108991999999999999999999
0029029720999991902011813004+60450+022267FM-12+001499999V0203201N012319999999N0000001N9-01331+99999101001ADDGF100991999999999999999999
0029029720999991902011820004+60450+022267FM-12+001499999V0203401N006719999999N0000001N9-01441+99999101621ADDGF100991999999999999999999
0029029720999991902011906004+60450+022267FM-12+001499999V0209991C000019999999N0000001N9-02061+99999102061ADDGF108991999999999999999999
0029029720999991902011913004+60450+022267FM-12+001499999V0201401N006719999999N0000001N9-01331+99999101621ADDGF108991999999999999999999
0029029720999991902011920004+60450+022267FM-12+001499999V0201401N015419999999N0000001N9-00721+99999100621ADDGF108991999999999999999999
0029029720999991902012006004+60450+022267FM-12+001499999V0209991C000019999999N0000001N9+00111+99999098671ADDGF108991999999999999999999
0029029720999991902012013004+60450+022267FM-12+001499999V0202701N012319999999N0000001N9+00221+99999097671ADDGF108991999999999999999999
0029029720999991902012020004+60450+022267FM-12+001499999V0202901N012319999999N0000001N9+00111+99999097671ADDGF108991999999999999999999
0029029720999991902012106004+60450+022267FM-12+001499999V0202701N015419999999N0000001N9-00111+99999098031ADDGF108991999999999999999999
0029029720999991902012113004+60450+022267FM-12+001499999V0203601N012319999999N0000001N9-00391+99999098661ADDGF108991999999999999999999
0029029720999991902012120004+60450+022267FM-12+001499999V0203201N006719999999N0000001N9-01281+99999100101ADDGF102991999999999999999999
0029029720999991902012206004+60450+022267FM-12+001499999V0203201N006719999999N0000001N9-01221+99999100991ADDGF108991999999999999999999
0029029720999991902012213004+60450+022267FM-12+001499999V0200701N001019999999N0000001N9-01721+99999101391ADDGF101991999999999999999999
0029029720999991902012220004+60450+022267FM-12+001499999V0201401N004619999999N0000001N9-01331+99999101111ADDGF108991999999999999999999
0029029720999991902012306004+60450+022267FM-12+001499999V0202501N004619999999N0000001N9-00171+99999100761ADDGF108991999999999999999999
0029029720999991902012313004+60450+022267FM-12+001499999V0202701N004619999999N0000001N9-00331+99999100801ADDGF108991999999999999999999
0029029720999991902012320004+60450+022267FM-12+001499999V0209991C000019999999N0000001N9-00111+99999100461ADDGF108991999999999999999999
0029029720999991902012406004+60450+022267FM-12+001499999V0202301N009319999999N0000001N9+00171+99999099831ADDGF108991999999999999999999
0029029720999991902012413004+60450+022267FM-12+001499999V0202001N004619999999N0000001N9+00281+99999099841ADDGF108991999999999999999999
0029029720999991902012420004+60450+022267FM-12+001499999V0202001N006719999999N0000001N9+00221+99999099821ADDGF108991999999999999999999
0029029720999991902012506004+60450+022267FM-12+001499999V0201401N015419999999N0000001N9+00171+99999099191ADDGF108991999999999999999999
0029029720999991902012513004+60450+022267FM-12+001499999V0201801N012319999999N0000001N9+00171+99999098941ADDGF108991999999999999999999
0029029720999991902012520004+60450+022267FM-12+001499999V0201801N009319999999N0000001N9+00061+99999098751ADDGF108991999999999999999999
0029029720999991902012606004+60450+022267FM-12+001499999V0201601N019019999999N0000001N9+00171+99999098421ADDGF108991999999999999999999
0029029720999991902012613004+60450+022267FM-12+001499999V0201401N004619999999N0000001N9+00061+99999098361ADDGF108991999999999999999999
0029029720999991902012620004+60450+022267FM-12+001499999V0201401N006719999999N0000001N9+00061+99999098511ADDGF108991999999999999999999
0029029720999991902012706004+60450+022267FM-12+001499999V0201601N015419999999N0000001N9+00001+99999098461ADDGF108991999999999999999999
0029029720999991902012713004+60450+022267FM-12+001499999V0202501N009319999999N0000001N9-00111+99999098711ADDGF100991999999999999999999
0029029720999991902012720004+60450+022267FM-12+001499999V0202301N006719999999N0000001N9-00111+99999099101ADDGF108991999999999999999999
0029029720999991902012806004+60450+022267FM-12+001499999V0202301N012319999999N0000001N9-00111+99999098861ADDGF108991999999999999999999
0029029720999991902012813004+60450+022267FM-12+001499999V0202501N006719999999N0000001N9-00391+99999099261ADDGF106991999999999999999999
0029029720999991902012820004+60450+022267FM-12+001499999V0202701N002619999999N0000001N9-00611+99999099681ADDGF105991999999999999999999
0029029720999991902012906004+60450+022267FM-12+001499999V0202501N006719999999N0000001N9-00281+99999099961ADDGF108991999999999999999999
0029029720999991902012913004+60450+022267FM-12+001499999V0202501N004619999999N0000001N9-00331+99999100311ADDGF108991999999999999999999
0029029720999991902012920004+60450+022267FM-12+001499999V0202701N002619999999N0000001N9-00441+99999100981ADDGF108991999999999999999999
0029029720999991902013006004+60450+022267FM-12+001499999V0200201N009319999999N0000001N9-00671+99999101841ADDGF108991999999999999999999
0029029720999991902013013004+60450+022267FM-12+001499999V0200201N004619999999N0000001N9-00671+99999102351ADDGF105991999999999999999999
0029029720999991902013020004+60450+022267FM-12+001499999V0203601N001019999999N0000001N9-01111+99999102921ADDGF100991999999999999999999
0029029720999991902013106004+60450+022267FM-12+001499999V0203201N004619999999N0000001N9-01501+99999103401ADDGF100991999999999999999999
0029029720999991902013113004+60450+022267FM-12+001499999V0203201N002619999999N0000001N9-00781+99999103941ADDGF100991999999999999999999
0029029720999991902013120004+60450+022267FM-12+001499999V0209991C000019999999N0000001N9-01611+99999104231ADDGF100991999999999999999999
0029029720999991902020106004+60450+022267FM-12+001499999V0202301N004619999999N0000001N9-00831+99999103981ADDGF108991999999999999999999
0029029720999991902020113004+60450+022267FM-12+001499999V0202501N006719999999N0000001N9-00061+99999103751ADDGF108991999999999999999999
0029029720999991902020120004+60450+022267FM-12+001499999V0202701N004619999999N0000001N9-00281+99999103481ADDGF100991999999999999999999
0029029720999991902020206004+60450+022267FM-12+001499999V0209991C000019999999N0000001N9-00441+99999102921ADDGF100991999999999999999999
0029029720999991902020213004+60450+022267FM-12+001499999V0202901N002619999999N0000001N9+00001+99999102591ADDGF108991999999999999999999
0029029720999991902020220004+60450+022267FM-12+001499999V0209991C000019999999N0000001N9-00501+99999102191ADDGF100991999999999999999999
0029029720999991902020306004+60450+022267FM-12+001499999V0203201N012319999999N0000001N9-00111+99999101101ADDGF108991999999999999999999
0029029720999991902020313004+60450+022267FM-12+001499999V0203601N012319999999N0000001N9-00331+99999101301ADDGF108991999999999999999999
0029029720999991902020320004+60450+022267FM-12+001499999V0203201N002619999999N0000001N9-01001+99999101381ADDGF100991999999999999999999
0029029720999991902020406004+60450+022267FM-12+001499999V0203201N001019999999N0000001N9-00671+99999100401ADDGF108991999999999999999999
0029029720999991902020413004+60450+022267FM-12+001499999V0200201N006719999999N0000001N9-00721+99999100311ADDGF108991999999999999999999
0029029720999991902020420004+60450+022267FM-12+001499999V0203601N009319999999N0000001N9-01611+99999100551ADDGF100991999999999999999999
0029029720999991902020506004+60450+022267FM-12+001499999V0209991C000019999999N0000001N9-02611+99999100881ADDGF108991999999999999999999
0029029720999991902020513004+60450+022267FM-12+001499999V0203201N002619999999N0000001N9-01281+99999101221ADDGF105991999999999999999999
0029029720999991902020520004+60450+022267FM-12+001499999V0209991C000019999999N0000001N9-01501+99999101181ADDGF100991999999999999999999
0029029720999991902020606004+60450+022267FM-12+001499999V0209991C000019999999N0000001N9-01221+99999101071ADDGF108991999999999999999999
0029029720999991902020613004+60450+022267FM-12+001499999V0201401N009319999999N0000001N9-00441+99999100961ADDGF108991999999999999999999
0029029720999991902020620004+60450+022267FM-12+001499999V0201801N015419999999N0000001N9-00561+99999100601ADDGF108991999999999999999999
0029029720999991902020706004+60450+022267FM-12+001499999V0201101N019019999999N0000001N9-00831+99999099561ADDGF108991999999999999999999
0029029720999991902020713004+60450+022267FM-12+001499999V0201601N012319999999N0000001N9-00721+99999099021ADDGF108991999999999999999999
0029029720999991902020720004+60450+022267FM-12+001499999V0200901N001019999999N0000001N9-00391+99999098661ADDGF108991999999999999999999
0029029720999991902020806004+60450+022267FM-12+001499999V0209991C000019999999N0000001N9-00501+99999098461ADDGF108991999999999999999999
0029029720999991902020813004+60450+022267FM-12+001499999V0202001N001019999999N0000001N9-00221+99999098661ADDGF108991999999999999999999
0029029720999991902020820004+60450+022267FM-12+001499999V0201401N002619999999N0000001N9-00391+99999098721ADDGF108991999999999999999999
0029029720999991902020906004+60450+022267FM-12+001499999V0209991C000019999999N0000001N9-00561+99999098861ADDGF108991999999999999999999
0029029720999991902020913004+60450+022267FM-12+001499999V0203201N006719999999N0000001N9-00561+99999098791ADDGF108991999999999999999999
0029029720999991902020920004+60450+022267FM-12+001499999V0202701N006719999999N0000001N9-01391+99999099021ADDGF108991999999999999999999
0029029720999991902021006004+60450+022267FM-12+001499999V0201101N002619999999N0000001N9-01441+99999099511ADDGF108991999999999999999999
0029029720999991902021013004+60450+022267FM-12+001499999V0201401N004619999999N0000001N9-01111+99999099561ADDGF108991999999999999999999
0029029720999991902021020004+60450+022267FM-12+001499999V0200501N001019999999N0000001N9-01501+99999099511ADDGF100991999999999999999999
0029029720999991902021106004+60450+022267FM-12+001499999V0200501N002619999999N0000001N9-01281+99999099501ADDGF108991999999999999999999
0029029720999991902021113004+60450+022267FM-12+001499999V0201401N004619999999N0000001N9-00721+99999099631ADDGF108991999999999999999999
0029029720999991902021120004+60450+022267FM-12+001499999V0202701N004619999999N0000001N9-01331+99999100221ADDGF100991999999999999999999
0029029720999991902021206004+60450+022267FM-12+001499999V0201401N009319999999N0000001N9-00941+99999100061ADDGF108991999999999999999999
0029029720999991902021213004+60450+022267FM-12+001499999V0201801N012319999999N0000001N9-00391+99999099711ADDGF108991999999999999999999
0029029720999991902021220004+60450+022267FM-12+001499999V0202301N006719999999N0000001N9-00671+99999099581ADDGF108991999999999999999999
0029029720999991902021306004+60450+022267FM-12+001499999V0201401N001019999999N0000001N9-01001+99999099681ADDGF108991999999999999999999
0029029720999991902021313004+60450+022267FM-12+001499999V0203201N012319999999N0000001N9-00391+99999099681ADDGF108991999999999999999999
0029029720999991902021320004+60450+022267FM-12+001499999V0202701N006719999999N0000001N9-00831+99999100111ADDGF108991999999999999999999
0029029720999991902021406004+60450+022267FM-12+001499999V0202301N001019999999N0000001N9-01501+99999100601ADDGF100991999999999999999999
0029029720999991902021413004+60450+022267FM-12+001499999V0202301N009319999999N0000001N9-01281+99999100711ADDGF100991999999999999999999
0029029720999991902021420004+60450+022267FM-12+001499999V0202301N004619999999N0000001N9-01111+99999100901ADDGF100991999999999999999999
0029029720999991902021506004+60450+022267FM-12+001499999V0209991C000019999999N0000001N9-01111+99999101111ADDGF100991999999999999999999
0029029720999991902021513004+60450+022267FM-12+001499999V0201801N006719999999N0000001N9-00611+99999101321ADDGF100991999999999999999999
0029029720999991902021520004+60450+022267FM-12+001499999V0202301N009319999999N0000001N9-00441+99999101141ADDGF108991999999999999999999
0029029720999991902021606004+60450+022267FM-12+001499999V0202701N012319999999N0000001N9-00111+99999100921ADDGF100991999999999999999999
0029029720999991902021613004+60450+022267FM-12+001499999V0202501N015419999999N0000001N9+00061+99999101101ADDGF106991999999999999999999
0029029720999991902021620004+60450+022267FM-12+001499999V0202301N019019999999N0000001N9-00111+99999101031ADDGF108991999999999999999999
0029029720999991902021706004+60450+022267FM-12+001499999V0202701N015419999999N0000001N9-00111+99999101231ADDGF108991999999999999999999
0029029720999991902021713004+60450+022267FM-12+001499999V0202701N009319999999N0000001N9+00111+99999101551ADDGF108991999999999999999999
0029029720999991902021720004+60450+022267FM-12+001499999V0209991C000019999999N0000001N9+00061+99999102341ADDGF108991999999999999999999
0029029720999991902021806004+60450+022267FM-12+001499999V0200901N009319999999N0000001N9-00891+99999103021ADDGF101991999999999999999999
0029029720999991902021813004+60450+022267FM-12+001499999V0202301N004619999999N0000001N9-00331+99999103111ADDGF106991999999999999999999
0029029720999991902021820004+60450+022267FM-12+001499999V0201101N004619999999N0000001N9-00561+99999102951ADDGF108991999999999999999999
0029029720999991902021906004+60450+022267FM-12+001499999V0200901N001019999999N0000001N9-00611+99999102871ADDGF108991999999999999999999
0029029720999991902021913004+60450+022267FM-12+001499999V0200501N004619999999N0000001N9-00561+99999103061ADDGF108991999999999999999999
0029029720999991902021920004+60450+022267FM-12+001499999V0209991C000019999999N0000001N9-00561+99999103201ADDGF108991999999999999999999
0029029720999991902022006004+60450+022267FM-12+001499999V0209991C000019999999N0000001N9-01331+99999103041ADDGF108991999999999999999999
0029029720999991902022013004+60450+022267FM-12+001499999V0202001N006719999999N0000001N9-00391+99999102791ADDGF108991999999999999999999
0029029720999991902022020004+60450+022267FM-12+001499999V0202301N009319999999N0000001N9-00501+99999102541ADDGF108991999999999999999999
0029029720999991902022106004+60450+022267FM-12+001499999V0202301N009319999999N0000001N9-00111+99999102101ADDGF100991999999999999999999
0029029720999991902022113004+60450+022267FM-12+001499999V0202301N009319999999N0000001N9-00111+99999102041ADDGF100991999999999999999999
0029029720999991902022120004+60450+022267FM-12+001499999V0202301N004619999999N0000001N9-00501+99999101831ADDGF100991999999999999999999
0029029720999991902022206004+60450+022267FM-12+001499999V0202301N012319999999N0000001N9-00611+99999101561ADDGF108991999999999999999999
0029029720999991902022213004+60450+022267FM-12+001499999V0202501N012319999999N0000001N9-00221+99999101631ADDGF108991999999999999999999
0029029720999991902022220004+60450+022267FM-12+001499999V0202501N006719999999N0000001N9-00221+99999101641ADDGF108991999999999999999999
0029029720999991902022306004+60450+022267FM-12+001499999V0202501N004619999999N0000001N9-00611+99999101941ADDGF108991999999999999999999
0029029720999991902022313004+60450+022267FM-12+001499999V0202001N004619999999N0000001N9-00111+99999102061ADDGF108991999999999999999999
0029029720999991902022320004+60450+022267FM-12+001499999V0209991C000019999999N0000001N9-00221+99999102121ADDGF108991999999999999999999
0029029720999991902022406004+60450+022267FM-12+001499999V0202001N012319999999N0000001N9-00331+99999101921ADDGF108991999999999999999999
0029029720999991902022413004+60450+022267FM-12+001499999V0201801N006719999999N0000001N9-00171+99999101801ADDGF108991999999999999999999
0029029720999991902022420004+60450+022267FM-12+001499999V02099999999999999999N0000001N9-00391+99999101701ADDGF108991999999999999999999
0029029720999991902022506004+60450+022267FM-12+001499999V0209991C000019999999N0000001N9-00281+99999101631ADDGF108991999999999999999999
0029029720999991902022513004+60450+022267FM-12+001499999V0202301N004619999999N0000001N9+00001+99999101791ADDGF108991999999999999999999
0029029720999991902022520004+60450+022267FM-12+001499999V0201801N002619999999N0000001N9-00391+99999101761ADDGF100991999999999999999999
0029029720999991902022606004+60450+022267FM-12+001499999V0200501N004619999999N0000001N9-01111+99999101861ADDGF100991999999999999999999
0029029720999991902022613004+60450+022267FM-12+001499999V0200201N004619999999N0000001N9+00061+99999101831ADDGF100991999999999999999999
0029029720999991902022620004+60450+022267FM-12+001499999V0200201N002619999999N0000001N9-00441+99999101721ADDGF100991999999999999999999
0029029720999991902022706004+60450+022267FM-12+001499999V0200901N006719999999N0000001N9-00611+99999101761ADDGF108991999999999999999999
0029029720999991902022713004+60450+022267FM-12+001499999V0201401N012319999999N0000001N9-00281+99999101711ADDGF108991999999999999999999
0029029720999991902022720004+60450+022267FM-12+001499999V0201101N006719999999N0000001N9-00331+99999101431ADDGF108991999999999999999999
0029029720999991902022806004+60450+022267FM-12+001499999V0201601N012319999999N0000001N9-00221+99999101071ADDGF108991999999999999999999
0029029720999991902022813004+60450+022267FM-12+001499999V0201601N012319999999N0000001N9-00111+99999100921ADDGF108991999999999999999999
0029029720999991902022820004+60450+022267FM-12+001499999V0201601N009319999999N0000001N9-00111+99999100831ADDGF108991999999999999999999
0029029720999991902030106004+60450+022267FM-12+001499999V0209991C000019999999N0000001N9+00001+99999100781ADDGF108991999999999999999999
0029029720999991902030113004+60450+022267FM-12+001499999V0201601N004619999999N0000001N9+00061+99999100921ADDGF108991999999999999999999
0029029720999991902030120004+60450+022267FM-12+001499999V0201601N002619999999N0000001N9+00001+99999100951ADDGF108991999999999999999999
0029029720999991902030206004+60450+022267FM-12+001499999V0209991C000019999999N0000001N9+00061+99999100881ADDGF108991999999999999999999
0029029720999991902030213004+60450+022267FM-12+001499999V0209991C000019999999N0000001N9+00111+99999101001ADDGF108991999999999999999999
0029029720999991902030220004+60450+022267FM-12+001499999V0209991C000019999999N0000001N9+00061+99999101141ADDGF108991999999999999999999
0029029720999991902030306004+60450+022267FM-12+001499999V0200501N004619999999N0000001N9-00281+99999101341ADDGF108991999999999999999999
0029029720999991902030313004+60450+022267FM-12+001499999V0200501N009319999999N0000001N9-00281+99999101561ADDGF108991999999999999999999
0029029720999991902030320004+60450+022267FM-12+001499999V0200501N006719999999N0000001N9-00611+99999101921ADDGF108991999999999999999999
0029029720999991902030406004+60450+022267FM-12+001499999V0209991C000019999999N0000001N9-00781+99999102221ADDGF108991999999999999999999
0029029720999991902030413004+60450+022267FM-12+001499999V0209991C000019999999N0000001N9-00671+99999102261ADDGF108991999999999999999999
0029029720999991902030420004+60450+022267FM-12+001499999V0209991C000019999999N0000001N9-00671+99999102421ADDGF108991999999999999999999
0029029720999991902030506004+60450+022267FM-12+001499999V0200201N006719999999N0000001N9-00611+99999102191ADDGF108991999999999999999999
0029029720999991902030513004+60450+022267FM-12+001499999V0202001N015419999999N0000001N9-00391+99999101881ADDGF108991999999999999999999
0029029720999991902030520004+60450+022267FM-12+001499999V0201401N019019999999N0000001N9-00331+99999101231ADDGF108991999999999999999999
0029029720999991902030606004+60450+022267FM-12+001499999V0202301N006719999999N0000001N9+00061+99999100431ADDGF108991999999999999999999
0029029720999991902030613004+60450+022267FM-12+001499999V0202501N012319999999N0000001N9+00111+99999100191ADDGF108991999999999999999999
0029029720999991902030620004+60450+022267FM-12+001499999V0202701N006719999999N0000001N9+00061+99999100061ADDGF108991999999999999999999
0029029720999991902030706004+60450+022267FM-12+001499999V0201801N002619999999N0000001N9+00061+99999099601ADDGF108991999999999999999999
0029029720999991902030713004+60450+022267FM-12+001499999V0201801N004619999999N0000001N9+00111+99999099471ADDGF108991999999999999999999
0029029720999991902030720004+60450+022267FM-12+001499999V0209991C000019999999N0000001N9+00001+99999099301ADDGF108991999999999999999999
0029029720999991902030806004+60450+022267FM-12+001499999V0200501N009319999999N0000001N9-00891+99999099481ADDGF108991999999999999999999
0029029720999991902030813004+60450+022267FM-12+001499999V0200501N009319999999N0000001N9-00781+99999099671ADDGF108991999999999999999999
0029029720999991902030820004+60450+022267FM-12+001499999V0200501N006719999999N0000001N9-01111+99999099751ADDGF108991999999999999999999
0029029720999991902030906004+60450+022267FM-12+001499999V0200501N002619999999N0000001N9-01501+99999099541ADDGF108991999999999999999999
0029029720999991902030913004+60450+022267FM-12+001499999V0200501N006719999999N0000001N9-01171+99999099511ADDGF108991999999999999999999
0029029720999991902030920004+60450+022267FM-12+001499999V0203601N006719999999N0000001N9-01331+99999099761ADDGF108991999999999999999999
0029029720999991902031006004+60450+022267FM-12+001499999V0209991C000019999999N0000001N9-02001+99999100101ADDGF100991999999999999999999
0029029720999991902031013004+60450+022267FM-12+001499999V0202901N006719999999N0000001N9-00831+99999100101ADDGF100991999999999999999999
0029029720999991902031020004+60450+022267FM-12+001499999V0202901N006719999999N0000001N9-01221+99999999999ADDGF100991999999999999999999
0029029720999991902031106004+60450+022267FM-12+001499999V0200501N004619999999N0000001N9-00891+99999100071ADDGF108991999999999999999999
0029029720999991902031113004+60450+022267FM-12+001499999V0203601N004619999999N0000001N9-00781+99999100561ADDGF100991999999999999999999
0029029720999991902031120004+60450+022267FM-12+001499999V0209991C000019999999N0000001N9-01391+99999101041ADDGF100991999999999999999999
0029029720999991902031206004+60450+022267FM-12+001499999V0200501N002619999999N0000001N9-02111+99999101781ADDGF100991999999999999999999
0029029720999991902031213004+60450+022267FM-12+001499999V0202701N006719999999N0000001N9-01111+99999101961ADDGF106991999999999999999999
0029029720999991902031220004+60450+022267FM-12+001499999V0202501N004619999999N0000001N9-01611+99999101821ADDGF100991999999999999999999
0029029720999991902031306004+60450+022267FM-12+001499999V0202701N001019999999N0000001N9-00831+99999101591ADDGF108991999999999999999999
0029029720999991902031313004+60450+022267FM-12+001499999V0202701N001019999999N0000001N9-00281+99999101831ADDGF107991999999999999999999
0029029720999991902031320004+60450+022267FM-12+001499999V0200901N001019999999N0000001N9-00891+99999101981ADDGF100991999999999999999999
0029029720999991902031406004+60450+022267FM-12+001499999V0202301N015419999999N0000001N9-00221+99999101561ADDGF108991999999999999999999
0029029720999991902031413004+60450+022267FM-12+001499999V0202301N019019999999N0000001N9-00111+99999101381ADDGF108991999999999999999999
0029029720999991902031420004+60450+022267FM-12+001499999V0202301N015419999999N0000001N9-00171+99999100951ADDGF108991999999999999999999
0029029720999991902031506004+60450+022267FM-12+001499999V0202301N012319999999N0000001N9-00061+99999100391ADDGF108991999999999999999999
0029029720999991902031513004+60450+022267FM-12+001499999V0202301N004619999999N0000001N9+00061+99999100271ADDGF108991999999999999999999
0029029720999991902031520004+60450+022267FM-12+001499999V0202301N004619999999N0000001N9+00001+99999100081ADDGF108991999999999999999999
0029029720999991902031606004+60450+022267FM-12+001499999V0201801N002619999999N0000001N9-00111+99999099921ADDGF108991999999999999999999
0029029720999991902031613004+60450+022267FM-12+001499999V0201801N004619999999N0000001N9+00061+99999100041ADDGF108991999999999999999999
0029029720999991902031620004+60450+022267FM-12+001499999V0202301N002619999999N0000001N9+00001+99999999999ADDGF108991999999999999999999
0029029720999991902031706004+60450+022267FM-12+001499999V0200701N006719999999N0000001N9-00391+99999099881ADDGF102991999999999999999999
0029029720999991902031713004+60450+022267FM-12+001499999V0203601N012319999999N0000001N9-00171+99999099901ADDGF100991999999999999999999
0029029720999991902031720004+60450+022267FM-12+001499999V0203201N006719999999N0000001N9-00391+99999099761ADDGF108991999999999999999999
0029029720999991902031806004+60450+022267FM-12+001499999V0203201N004619999999N0000001N9-00281+99999100071ADDGF108991999999999999999999
0029029720999991902031813004+60450+022267FM-12+001499999V0203401N009319999999N0000001N9+00001+99999100401ADDGF100991999999999999999999
0029029720999991902031820004+60450+022267FM-12+001499999V0202901N004619999999N0000001N9-00721+99999100751ADDGF108991999999999999999999
0029029720999991902031906004+60450+022267FM-12+001499999V0202001N012319999999N0000001N9-00281+99999100031ADDGF108991999999999999999999
0029029720999991902031913004+60450+022267FM-12+001499999V0202001N012319999999N0000001N9+00111+99999099321ADDGF108991999999999999999999
0029029720999991902031920004+60450+022267FM-12+001499999V0202501N006719999999N0000001N9+00111+99999098961ADDGF108991999999999999999999
0029029720999991902032006004+60450+022267FM-12+001499999V0202501N002619999999N0000001N9+00111+99999099071ADDGF108991999999999999999999
0029029720999991902032013004+60450+022267FM-12+001499999V0201601N004619999999N0000001N9+00111+99999098961ADDGF108991999999999999999999
0029029720999991902032020004+60450+022267FM-12+001499999V0202001N006719999999N0000001N9+00111+99999098351ADDGF108991999999999999999999
0000029720999991902032106004+60450+022267FM-12+001499999V02099999999999999999N0000001N9+00001+99999098791
0029029720999991902032113004+60450+022267FM-12+001499999V0200201N004619999999N0000001N9-00221+99999099181ADDGF108991999999999999999999
0029029720999991902032120004+60450+022267FM-12+001499999V0203601N002619999999N0000001N9-00671+99999099671ADDGF108991999999999999999999
0029029720999991902032206004+60450+022267FM-12+001499999V0202901N001019999999N0000001N9-00501+99999099861ADDGF108991999999999999999999
0029029720999991902032213004+60450+022267FM-12+001499999V0200201N004619999999N0000001N9-00331+99999099621ADDGF108991999999999999999999
0029029720999991902032220004+60450+022267FM-12+001499999V0200501N002619999999N0000001N9-00441+99999099721ADDGF108991999999999999999999
0029029720999991902032306004+60450+022267FM-12+001499999V0209991C000019999999N0000001N9-00501+99999100321ADDGF108991999999999999999999
0029029720999991902032313004+60450+022267FM-12+001499999V0209991C000019999999N0000001N9+00111+99999100841ADDGF108991999999999999999999
0029029720999991902032320004+60450+022267FM-12+001499999V0200501N006719999999N0000001N9-00171+99999101001ADDGF108991999999999999999999
0029029720999991902032406004+60450+022267FM-12+001499999V0200901N012319999999N0000001N9-00171+99999100391ADDGF108991999999999999999999
0029029720999991902032413004+60450+022267FM-12+001499999V0201401N015419999999N0000001N9+00221+99999100271ADDGF108991999999999999999999
0029029720999991902032420004+60450+022267FM-12+001499999V0201401N004619999999N0000001N9+00331+99999100321ADDGF108991999999999999999999
0029029720999991902032506004+60450+022267FM-12+001499999V0209991C000019999999N0000001N9+00221+99999100161ADDGF108991999999999999999999
0029029720999991902032513004+60450+022267FM-12+001499999V0201401N006719999999N0000001N9+00281+99999099951ADDGF108991999999999999999999
0029029720999991902032520004+60450+022267FM-12+001499999V0201401N009319999999N0000001N9+00221+99999099791ADDGF108991999999999999999999
0029029720999991902032606004+60450+022267FM-12+001499999V0201801N012319999999N0000001N9-00061+99999099721ADDGF108991999999999999999999
0029029720999991902032613004+60450+022267FM-12+001499999V0201801N015419999999N0000001N9+00001+99999100081ADDGF108991999999999999999999
0029029720999991902032620004+60450+022267FM-12+001499999V0201101N002619999999N0000001N9-00111+99999100111ADDGF108991999999999999999999
0029029720999991902032706004+60450+022267FM-12+001499999V0203201N009319999999N0000001N9-00171+99999099761ADDGF108991999999999999999999
0029029720999991902032713004+60450+022267FM-12+001499999V0202901N006719999999N0000001N9+00221+99999099801ADDGF108991999999999999999999
0029029720999991902032720004+60450+022267FM-12+001499999V0202901N004619999999N0000001N9-00061+99999100231ADDGF108991999999999999999999
0029029720999991902032806004+60450+022267FM-12+001499999V0209991C000019999999N0000001N9-00171+99999100621ADDGF108991999999999999999999
0029029720999991902032813004+60450+022267FM-12+001499999V0203601N004619999999N0000001N9+00001+99999100701ADDGF108991999999999999999999
0029029720999991902032820004+60450+022267FM-12+001499999V0203201N004619999999N0000001N9-00391+99999100661ADDGF108991999999999999999999
0029029720999991902032906004+60450+022267FM-12+001499999V0203201N004619999999N0000001N9-00391+99999100301ADDGF108991999999999999999999
0029029720999991902032913004+60450+022267FM-12+001499999V0202701N009319999999N0000001N9-00111+99999100201ADDGF108991999999999999999999
0029029720999991902032920004+60450+022267FM-12+001499999V0202701N004619999999N0000001N9-00721+99999100201ADDGF100991999999999999999999
0029029720999991902033006004+60450+022267FM-12+001499999V0201101N006719999999N0000001N9-00331+99999100061ADDGF108991999999999999999999
0029029720999991902033013004+60450+022267FM-12+001499999V0201101N009319999999N0000001N9+00171+99999100201ADDGF103991999999999999999999
0029029720999991902033020004+60450+022267FM-12+001499999V0200701N004619999999N0000001N9-00441+99999100381ADDGF100991999999999999999999
0029029720999991902033106004+60450+022267FM-12+001499999V0200501N002619999999N0000001N9-00501+99999100471ADDGF102991999999999999999999
0029029720999991902033113004+60450+022267FM-12+001499999V0203601N009319999999N0000001N9+00111+99999100401ADDGF100991999999999999999999
0029029720999991902033120004+60450+022267FM-12+001499999V0203601N002619999999N0000001N9-00331+99999100431ADDGF100991999999999999999999
0029029720999991902040106004+60450+022267FM-12+001499999V0200201N002619999999N0000001N9-00611+99999100311ADDGF108991999999999999999999
0029029720999991902040113004+60450+022267FM-12+001499999V0203601N002619999999N0000001N9+00221+99999100231ADDGF108991999999999999999999
0029029720999991902040120004+60450+022267FM-12+001499999V0202701N001019999999N0000001N9-00221+99999100161ADDGF108991999999999999999999
0029029720999991902040206004+60450+022267FM-12+001499999V0209991C000019999999N0000001N9-00111+99999099791ADDGF108991999999999999999999
0029029720999991902040213004+60450+022267FM-12+001499999V0200201N001019999999N0000001N9+00281+99999099661ADDGF108991999999999999999999
0029029720999991902040220004+60450+022267FM-12+001499999V0209991C000019999999N0000001N9-00171+99999099701ADDGF108991999999999999999999
0029029720999991902040306004+60450+022267FM-12+001499999V0202901N006719999999N0000001N9-00171+99999100111ADDGF108991999999999999999999
0029029720999991902040313004+60450+022267FM-12+001499999V0202701N009319999999N0000001N9-00111+99999100461ADDGF108991999999999999999999
0029029720999991902040320004+60450+022267FM-12+001499999V0202701N002619999999N0000001N9-00611+99999100761ADDGF100991999999999999999999
0029029720999991902040406004+60450+022267FM-12+001499999V0201601N006719999999N0000001N9-00221+99999100751ADDGF108991999999999999999999
0029029720999991902040413004+60450+022267FM-12+001499999V0201101N004619999999N0000001N9+00221+99999100661ADDGF108991999999999999999999
0029029720999991902040420004+60450+022267FM-12+001499999V0202501N002619999999N0000001N9-00331+99999100511ADDGF100991999999999999999999
0029029720999991902040506004+60450+022267FM-12+001499999V0200501N015419999999N0000001N9-00671+99999100271ADDGF102991999999999999999999
0029029720999991902040513004+60450+022267FM-12+001499999V0203601N012319999999N0000001N9-00111+99999100301ADDGF107991999999999999999999
0029029720999991902040520004+60450+022267FM-12+001499999V0209991C000019999999N0000001N9-00331+99999100421ADDGF100991999999999999999999
0029029720999991902040606004+60450+022267FM-12+001499999V0203201N002619999999N0000001N9-00171+99999100501ADDGF108991999999999999999999
0029029720999991902040613004+60450+022267FM-12+001499999V0202701N012319999999N0000001N9+00171+99999100481ADDGF101991999999999999999999
0029029720999991902040620004+60450+022267FM-12+001499999V0202701N002619999999N0000001N9-00221+99999100591ADDGF108991999999999999999999
0029029720999991902040706004+60450+022267FM-12+001499999V0209991C000019999999N0000001N9-00171+99999100841ADDGF100991999999999999999999
0029029720999991902040713004+60450+022267FM-12+001499999V0203401N009319999999N0000001N9+00061+99999101081ADDGF102991999999999999999999
0029029720999991902040720004+60450+022267FM-12+001499999V0209991C000019999999N0000001N9-00561+99999101341ADDGF100991999999999999999999
0029029720999991902040806004+60450+022267FM-12+001499999V0200201N001019999999N0000001N9-00501+99999101431ADDGF100991999999999999999999
0029029720999991902040813004+60450+022267FM-12+001499999V0203201N009319999999N0000001N9-00171+99999101321ADDGF102991999999999999999999
0029029720999991902040820004+60450+022267FM-12+001499999V0203201N006719999999N0000001N9-00721+99999101261ADDGF100991999999999999999999
0029029720999991902040906004+60450+022267FM-12+001499999V0203201N002619999999N0000001N9-00831+99999101401ADDGF106991999999999999999999
0029029720999991902040913004+60450+022267FM-12+001499999V0202301N002619999999N0000001N9-00171+99999101701ADDGF100991999999999999999999
0029029720999991902040920004+60450+022267FM-12+001499999V0209991C000019999999N0000001N9-00671+99999102041ADDGF100991999999999999999999
0029029720999991902041006004+60450+022267FM-12+001499999V0209991C000019999999N0000001N9-00611+99999102521ADDGF100991999999999999999999
0029029720999991902041013004+60450+022267FM-12+001499999V0202301N004619999999N0000001N9+00001+99999102801ADDGF100991999999999999999999
0029029720999991902041020004+60450+022267FM-12+001499999V0209991C000019999999N0000001N9-00561+99999103061ADDGF100991999999999999999999
0029029720999991902041106004+60450+022267FM-12+001499999V0200901N001019999999N0000001N9-00281+99999103301ADDGF106991999999999999999999
0029029720999991902041113004+60450+022267FM-12+001499999V0202301N009319999999N0000001N9+00221+99999103301ADDGF101991999999999999999999
0029029720999991902041120004+60450+022267FM-12+001499999V0209991C000019999999N0000001N9-00441+99999103161ADDGF100991999999999999999999
0029029720999991902041206004+60450+022267FM-12+001499999V0202701N004619999999N0000001N9-00281+99999102951ADDGF100991999999999999999999
0029029720999991902041213004+60450+022267FM-12+001499999V0202701N004619999999N0000001N9+00331+99999102881ADDGF100991999999999999999999
0029029720999991902041220004+60450+022267FM-12+001499999V0203201N002619999999N0000001N9-00111+99999102721ADDGF108991999999999999999999
0029029720999991902041306004+60450+022267FM-12+001499999V0209991C000019999999N0000001N9-00171+99999102711ADDGF101991999999999999999999
0029029720999991902041313004+60450+022267FM-12+001499999V0200201N004619999999N0000001N9+00671+99999102681ADDGF100991999999999999999999
0029029720999991902041320004+60450+022267FM-12+001499999V0203601N002619999999N0000001N9+00171+99999102681ADDGF108991999999999999999999
0029029720999991902041406004+60450+022267FM-12+001499999V0209991C000019999999N0000001N9+00611+99999102841ADDGF108991999999999999999999
0029029720999991902041413004+60450+022267FM-12+001499999V0200501N002619999999N0000001N9+00671+99999102951ADDGF102991999999999999999999
0029029720999991902041420004+60450+022267FM-12+001499999V0201801N001019999999N0000001N9-00061+99999103081ADDGF100991999999999999999999
0029029720999991902041506004+60450+022267FM-12+001499999V0209991C000019999999N0000001N9+00281+99999103271ADDGF100991999999999999999999
0029029720999991902041513004+60450+022267FM-12+001499999V0202301N004619999999N0000001N9+00331+99999103271ADDGF100991999999999999999999
0029029720999991902041520004+60450+022267FM-12+001499999V0209991C000019999999N0000001N9-00171+99999103181ADDGF100991999999999999999999
0029029720999991902041606004+60450+022267FM-12+001499999V0201801N002619999999N0000001N9+00281+99999103121ADDGF101991999999999999999999
0029029720999991902041613004+60450+022267FM-12+001499999V0202301N004619999999N0000001N9+00561+99999103031ADDGF100991999999999999999999
0029029720999991902041620004+60450+022267FM-12+001499999V0201801N004619999999N0000001N9+00001+99999102791ADDGF100991999999999999999999
0029029720999991902041706004+60450+022267FM-12+001499999V0209991C000019999999N0000001N9+00331+99999102521ADDGF100991999999999999999999
0029029720999991902041713004+60450+022267FM-12+001499999V0201601N009319999999N0000001N9+00721+99999102441ADDGF100991999999999999999999
0029029720999991902041720004+60450+022267FM-12+001499999V0201101N004619999999N0000001N9+00281+99999102181ADDGF100991999999999999999999
0029029720999991902041806004+60450+022267FM-12+001499999V0201101N006719999999N0000001N9+00611+99999101781ADDGF100991999999999999999999
0029029720999991902041813004+60450+022267FM-12+001499999V0201401N006719999999N0000001N9+00831+99999101541ADDGF101991999999999999999999
0029029720999991902041820004+60450+022267FM-12+001499999V0201601N002619999999N0000001N9+00671+99999101321ADDGF108991999999999999999999
0029029720999991902041906004+60450+022267FM-12+001499999V0209991C000019999999N0000001N9+00221+99999101281ADDGF108991999999999999999999
0029029720999991902041913004+60450+022267FM-12+001499999V0202901N006719999999N0000001N9+00331+99999101551ADDGF108991999999999999999999
0029029720999991902041920004+60450+022267FM-12+001499999V0209991C000019999999N0000001N9+00061+99999101881ADDGF100991999999999999999999
0029029720999991902042006004+60450+022267FM-12+001499999V0203601N006719999999N0000001N9+00281+99999102061ADDGF100991999999999999999999
0029029720999991902042013004+60450+022267FM-12+001499999V0202701N012319999999N0000001N9+00721+99999102201ADDGF100991999999999999999999
0029029720999991902042020004+60450+022267FM-12+001499999V0203601N006719999999N0000001N9+00281+99999102431ADDGF100991999999999999999999
0029029720999991902042106004+60450+022267FM-12+001499999V0200201N009319999999N0000001N9+00501+99999102581ADDGF100991999999999999999999
0029029720999991902042113004+60450+022267FM-12+001499999V0203601N009319999999N0000001N9+00831+99999102511ADDGF100991999999999999999999
0029029720999991902042120004+60450+022267FM-12+001499999V0203601N002619999999N0000001N9+00331+99999102621ADDGF100991999999999999999999
0029029720999991902042206004+60450+022267FM-12+001499999V0200501N004619999999N0000001N9+00221+99999102741ADDGF100991999999999999999999
0029029720999991902042213004+60450+022267FM-12+001499999V0203601N009319999999N0000001N9+00391+99999102581ADDGF100991999999999999999999
0029029720999991902042220004+60450+022267FM-12+001499999V0200501N002619999999N0000001N9+00061+99999102461ADDGF100991999999999999999999
0029029720999991902042306004+60450+022267FM-12+001499999V0209991C000019999999N0000001N9+00281+99999102541ADDGF100991999999999999999999
0029029720999991902042313004+60450+022267FM-12+001499999V0202301N004619999999N0000001N9+00671+99999102421ADDGF100991999999999999999999
0029029720999991902042320004+60450+022267FM-12+001499999V0202501N002619999999N0000001N9+00061+99999102311ADDGF100991999999999999999999
0029029720999991902042406004+60450+022267FM-12+001499999V0201801N002619999999N0000001N9+00111+99999102281ADDGF108991999999999999999999
0029029720999991902042413004+60450+022267FM-12+001499999V0202301N006719999999N0000001N9+00611+99999101881ADDGF100991999999999999999999
0029029720999991902042420004+60450+022267FM-12+001499999V0203401N001019999999N0000001N9+00171+99999101941ADDGF100991999999999999999999
0029029720999991902042506004+60450+022267FM-12+001499999V0200501N004619999999N0000001N9+00501+99999102071ADDGF100991999999999999999999
0029029720999991902042513004+60450+022267FM-12+001499999V0203601N006719999999N0000001N9+00721+99999102021ADDGF100991999999999999999999
0029029720999991902042520004+60450+022267FM-12+001499999V0203601N002619999999N0000001N9+00111+99999101831ADDGF100991999999999999999999
0029029720999991902042606004+60450+022267FM-12+001499999V0200201N006719999999N0000001N9+00061+99999101601ADDGF101991999999999999999999
0029029720999991902042613004+60450+022267FM-12+001499999V0200201N012319999999N0000001N9+00281+99999101631ADDGF100991999999999999999999
0029029720999991902042620004+60450+022267FM-12+001499999V0200501N006719999999N0000001N9-00111+99999101921ADDGF100991999999999999999999
0029029720999991902042706004+60450+022267FM-12+001499999V0200201N012319999999N0000001N9-00171+99999102041ADDGF100991999999999999999999
0029029720999991902042713004+60450+022267FM-12+001499999V0200501N012319999999N0000001N9+00171+99999101981ADDGF100991999999999999999999
0029029720999991902042720004+60450+022267FM-12+001499999V0203601N002619999999N0000001N9-00171+99999101961ADDGF100991999999999999999999
0029029720999991902042806004+60450+022267FM-12+001499999V0209991C000019999999N0000001N9+00111+99999101991ADDGF100991999999999999999999
0029029720999991902042813004+60450+022267FM-12+001499999V0203601N006719999999N0000001N9+00331+99999101831ADDGF100991999999999999999999
0029029720999991902042820004+60450+022267FM-12+001499999V0202901N004619999999N0000001N9-00171+99999101751ADDGF100991999999999999999999
0029029720999991902042906004+60450+022267FM-12+001499999V0209991C000019999999N0000001N9+00281+99999101511ADDGF101991999999999999999999
0029029720999991902042913004+60450+022267FM-12+001499999V0202501N006719999999N0000001N9+00441+99999101301ADDGF102991999999999999999999
0029029720999991902042920004+60450+022267FM-12+001499999V0202701N004619999999N0000001N9-00061+99999101031ADDGF100991999999999999999999
0029029720999991902043006004+60450+022267FM-12+001499999V0200501N001019999999N0000001N9+00281+99999100671ADDGF100991999999999999999999
0029029720999991902043013004+60450+022267FM-12+001499999V0202501N006719999999N0000001N9+00561+99999100471ADDGF108991999999999999999999
0029029720999991902043020004+60450+022267FM-12+001499999V0202701N002619999999N0000001N9+00111+99999100181ADDGF107991999999999999999999
0029029720999991902050106004+60450+022267FM-12+001499999V0209991C000019999999N0000001N9+00501+99999099921ADDGF101991999999999999999999
0029029720999991902050113004+60450+022267FM-12+001499999V0200701N001019999999N0000001N9+00721+99999099831ADDGF100991999999999999999999
0029029720999991902050120004+60450+022267FM-12+001499999V0202701N001019999999N0000001N9+00111+99999099791ADDGF106991999999999999999999
0029029720999991902050206004+60450+022267FM-12+001499999V0200701N006719999999N0000001N9+00171+99999099661ADDGF108991999999999999999999
0029029720999991902050213004+60450+022267FM-12+001499999V0201401N006719999999N0000001N9+00721+99999099871ADDGF108991999999999999999999
0029029720999991902050220004+60450+022267FM-12+001499999V0209991C000019999999N0000001N9+00391+99999100041ADDGF108991999999999999999999
0029029720999991902050306004+60450+022267FM-12+001499999V0209991C000019999999N0000001N9+00391+99999100241ADDGF108991999999999999999999
0029029720999991902050313004+60450+022267FM-12+001499999V0201801N001019999999N0000001N9+00831+99999100401ADDGF107991999999999999999999
0029029720999991902050320004+60450+022267FM-12+001499999V0202701N002619999999N0000001N9+00171+99999100471ADDGF108991999999999999999999
0029029720999991902050406004+60450+022267FM-12+001499999V0200501N002619999999N0000001N9+00561+99999100351ADDGF108991999999999999999999
0029029720999991902050413004+60450+022267FM-12+001499999V0200701N009319999999N0000001N9+01221+99999100321ADDGF108991999999999999999999
0029029720999991902050420004+60450+022267FM-12+001499999V0209991C000019999999N0000001N9+00671+99999100401ADDGF101991999999999999999999
0029029720999991902050506004+60450+022267FM-12+001499999V0209991C000019999999N0000001N9+00501+99999100461ADDGF108991999999999999999999
0029029720999991902050513004+60450+022267FM-12+001499999V0200201N004619999999N0000001N9+01221+99999100481ADDGF108991999999999999999999
0029029720999991902050520004+60450+022267FM-12+001499999V0209991C000019999999N0000001N9+00501+99999100711ADDGF107991999999999999999999
0029029720999991902050606004+60450+022267FM-12+001499999V0209991C000019999999N0000001N9+00501+99999100901ADDGF108991999999999999999999
0029029720999991902050613004+60450+022267FM-12+001499999V0200501N002619999999N0000001N9+00721+99999101031ADDGF108991999999999999999999
0029029720999991902050620004+60450+022267FM-12+001499999V0209991C000019999999N0000001N9+00561+99999101151ADDGF100991999999999999999999
0029029720999991902050706004+60450+022267FM-12+001499999V0200201N006719999999N0000001N9+00331+99999101101ADDGF108991999999999999999999
0029029720999991902050713004+60450+022267FM-12+001499999V0200501N015419999999N0000001N9+00561+99999100961ADDGF108991999999999999999999
0029029720999991902050720004+60450+022267FM-12+001499999V0203601N015419999999N0000001N9+00221+99999100721ADDGF108991999999999999999999
0029029720999991902050806004+60450+022267FM-12+001499999V0203601N012319999999N0000001N9+00111+99999100361ADDGF108991999999999999999999
0029029720999991902050813004+60450+022267FM-12+001499999V0200201N012319999999N0000001N9+00221+99999100481ADDGF108991999999999999999999
0029029720999991902050820004+60450+022267FM-12+001499999V0203601N012319999999N0000001N9+00061+99999100741ADDGF108991999999999999999999
0029029720999991902050906004+60450+022267FM-12+001499999V0200201N015419999999N0000001N9+00331+99999101021ADDGF108991999999999999999999
0029029720999991902050913004+60450+022267FM-12+001499999V0200201N012319999999N0000001N9+00441+99999101271ADDGF108991999999999999999999
0029029720999991902050920004+60450+022267FM-12+001499999V0200201N012319999999N0000001N9+00111+99999101321ADDGF108991999999999999999999
0029029720999991902051006004+60450+022267FM-12+001499999V0200501N009319999999N0000001N9+00281+99999101111ADDGF108991999999999999999999
0029029720999991902051013004+60450+022267FM-12+001499999V0200501N009319999999N0000001N9+00561+99999101161ADDGF108991999999999999999999
0029029720999991902051020004+60450+022267FM-12+001499999V0200501N002619999999N0000001N9+00331+99999101041ADDGF108991999999999999999999
0029029720999991902051106004+60450+022267FM-12+001499999V0203601N009319999999N0000001N9+00721+99999100711ADDGF102991999999999999999999
0029029720999991902051113004+60450+022267FM-12+001499999V0203601N006719999999N0000001N9+00501+99999100631ADDGF108991999999999999999999
0029029720999991902051120004+60450+022267FM-12+001499999V0203601N002619999999N0000001N9+00391+99999100601ADDGF108991999999999999999999
0029029720999991902051206004+60450+022267FM-12+001499999V0209991C000019999999N0000001N9+00501+99999100661ADDGF108991999999999999999999
0029029720999991902051213004+60450+022267FM-12+001499999V0202301N004619999999N0000001N9+00671+99999100641ADDGF108991999999999999999999
0029029720999991902051220004+60450+022267FM-12+001499999V0203201N004619999999N0000001N9+00391+99999100701ADDGF108991999999999999999999
0029029720999991902051306004+60450+022267FM-12+001499999V0209991C000019999999N0000001N9+00441+99999100741ADDGF101991999999999999999999
0029029720999991902051313004+60450+022267FM-12+001499999V0202701N006719999999N0000001N9+00891+99999100791ADDGF100991999999999999999999
0029029720999991902051320004+60450+022267FM-12+001499999V0202301N004619999999N0000001N9+00331+99999100901ADDGF100991999999999999999999
0029029720999991902051406004+60450+022267FM-12+001499999V0201101N009319999999N0000001N9+00941+99999100881ADDGF105991999999999999999999
0029029720999991902051413004+60450+022267FM-12+001499999V0201401N019019999999N0000001N9+00941+99999100831ADDGF108991999999999999999999
0029029720999991902051420004+60450+022267FM-12+001499999V0200901N012319999999N0000001N9+00441+99999100741ADDGF108991999999999999999999
0029029720999991902051506004+60450+022267FM-12+001499999V0209991C000019999999N0000001N9+00561+99999100701ADDGF108991999999999999999999
0029029720999991902051513004+60450+022267FM-12+001499999V0202701N002619999999N0000001N9+00941+99999100861ADDGF108991999999999999999999
0029029720999991902051520004+60450+022267FM-12+001499999V0200201N001019999999N0000001N9+00781+99999100601ADDGF108991999999999999999999
0029029720999991902051606004+60450+022267FM-12+001499999V0202501N009319999999N0000001N9+00331+99999100351ADDGF108991999999999999999999
0029029720999991902051613004+60450+022267FM-12+001499999V0202001N002619999999N0000001N9+00721+99999100591ADDGF108991999999999999999999
0029029720999991902051620004+60450+022267FM-12+001499999V0209991C000019999999N0000001N9+00331+99999100581ADDGF108991999999999999999999
0029029720999991902051706004+60450+022267FM-12+001499999V0203601N001019999999N0000001N9+00501+99999100071ADDGF108991999999999999999999
0029029720999991902051713004+60450+022267FM-12+001499999V0201401N009319999999N0000001N9+00941+99999099961ADDGF106991999999999999999999
0029029720999991902051720004+60450+022267FM-12+001499999V0200901N004619999999N0000001N9+00831+99999099941ADDGF108991999999999999999999
0029029720999991902051806004+60450+022267FM-12+001499999V0200901N012319999999N0000001N9+01221+99999099861ADDGF108991999999999999999999
0029029720999991902051813004+60450+022267FM-12+001499999V0201401N019019999999N0000001N9+01171+99999999999ADDGF108991999999999999999999
0029029720999991902051820004+60450+022267FM-12+001499999V0200501N009319999999N0000001N9+01171+99999099761ADDGF108991999999999999999999
0029029720999991902051906004+60450+022267FM-12+001499999V0200501N009319999999N0000001N9+01221+99999099721ADDGF101991999999999999999999
0029029720999991902051913004+60450+022267FM-12+001499999V0200901N019019999999N0000001N9+01501+99999099761ADDGF105991999999999999999999
0029029720999991902051920004+60450+022267FM-12+001499999V0200901N002619999999N0000001N9+00781+99999099911ADDGF105991999999999999999999
0029029720999991902052006004+60450+022267FM-12+001499999V0200501N012319999999N0000001N9+00891+99999100181ADDGF108991999999999999999999
0029029720999991902052013004+60450+022267FM-12+001499999V0201801N009319999999N0000001N9+01061+99999100351ADDGF108991999999999999999999
0029029720999991902052020004+60450+022267FM-12+001499999V0202501N002619999999N0000001N9+00721+99999100471ADDGF108991999999999999999999
0029029720999991902052106004+60450+022267FM-12+001499999V0209991C000019999999N0000001N9+00611+99999100661ADDGF100991999999999999999999
0029029720999991902052113004+60450+022267FM-12+001499999V0202501N012319999999N0000001N9+01501+99999100951ADDGF102991999999999999999999
0029029720999991902052120004+60450+022267FM-12+001499999V0202901N004619999999N0000001N9+00891+99999101271ADDGF100991999999999999999999
0029029720999991902052206004+60450+022267FM-12+001499999V0203201N001019999999N0000001N9+01501+99999101511ADDGF100991999999999999999999
0029029720999991902052213004+60450+022267FM-12+001499999V0203601N004619999999N0000001N9+01561+99999101631ADDGF106991999999999999999999
0029029720999991902052220004+60450+022267FM-12+001499999V0203601N006719999999N0000001N9+00941+99999101801ADDGF100991999999999999999999
0029029720999991902052306004+60450+022267FM-12+001499999V0200201N004619999999N0000001N9+01221+99999101761ADDGF100991999999999999999999
0029029720999991902052313004+60450+022267FM-12+001499999V0203401N012319999999N0000001N9+01331+99999101501ADDGF103991999999999999999999
0029029720999991902052320004+60450+022267FM-12+001499999V0209991C000019999999N0000001N9+01001+99999101231ADDGF100991999999999999999999
0029029720999991902052406004+60450+022267FM-12+001499999V0202501N002619999999N0000001N9+01111+99999101021ADDGF105991999999999999999999
0029029720999991902052413004+60450+022267FM-12+001499999V0202301N015419999999N0000001N9+01171+99999100901ADDGF108991999999999999999999
0029029720999991902052420004+60450+022267FM-12+001499999V0209991C000019999999N0000001N9+00831+99999100871ADDGF108991999999999999999999
0029029720999991902052506004+60450+022267FM-12+001499999V0209991C000019999999N0000001N9+01441+99999101181ADDGF100991999999999999999999
0029029720999991902052513004+60450+022267FM-12+001499999V0202501N009319999999N0000001N9+01501+99999101101ADDGF103991999999999999999999
0029029720999991902052520004+60450+022267FM-12+001499999V0201601N012319999999N0000001N9+00831+99999100751ADDGF108991999999999999999999
0029029720999991902052606004+60450+022267FM-12+001499999V0201601N012319999999N0000001N9+00671+99999099841ADDGF108991999999999999999999
0029029720999991902052613004+60450+022267FM-12+001499999V0202301N019019999999N0000001N9+01221+99999099881ADDGF102991999999999999999999
0029029720999991902052620004+60450+022267FM-12+001499999V0201801N004619999999N0000001N9+00671+99999099921ADDGF101991999999999999999999
0029029720999991902052706004+60450+022267FM-12+001499999V0202501N006719999999N0000001N9+01221+99999100071ADDGF100991999999999999999999
0029029720999991902052713004+60450+022267FM-12+001499999V0202001N012319999999N0000001N9+01391+99999100201ADDGF106991999999999999999999
0029029720999991902052720004+60450+022267FM-12+001499999V0201601N002619999999N0000001N9+00721+99999100021ADDGF108991999999999999999999
0029029720999991902052806004+60450+022267FM-12+001499999V0202301N009319999999N0000001N9+01171+99999099961ADDGF108991999999999999999999
0029029720999991902052813004+60450+022267FM-12+001499999V0202301N009319999999N0000001N9+01221+99999100241ADDGF108991999999999999999999
0029029720999991902052820004+60450+022267FM-12+001499999V0201801N006719999999N0000001N9+00891+99999100391ADDGF108991999999999999999999
0029029720999991902052906004+60450+022267FM-12+001499999V0201801N006719999999N0000001N9+01061+99999100501ADDGF108991999999999999999999
0029029720999991902052913004+60450+022267FM-12+001499999V0201601N012319999999N0000001N9+01561+99999100671ADDGF103991999999999999999999
0029029720999991902052920004+60450+022267FM-12+001499999V0209991C000019999999N0000001N9+01061+99999100781ADDGF102991999999999999999999
0029029720999991902053006004+60450+022267FM-12+001499999V0202301N004619999999N0000001N9+01611+99999101381ADDGF103991999999999999999999
0029029720999991902053013004+60450+022267FM-12+001499999V0202701N009319999999N0000001N9+01671+99999101861ADDGF108991999999999999999999
0029029720999991902053020004+60450+022267FM-12+001499999V0209991C000019999999N0000001N9+01331+99999102111ADDGF108991999999999999999999
0029029720999991902053106004+60450+022267FM-12+001499999V0200201N009319999999N0000001N9+01111+99999102181ADDGF108991999999999999999999
0029029720999991902053113004+60450+022267FM-12+001499999V0201101N012319999999N0000001N9+02111+99999101761ADDGF106991999999999999999999
0029029720999991902053120004+60450+022267FM-12+001499999V0201401N006719999999N0000001N9+01391+99999101581ADDGF101991999999999999999999
0029029720999991902060106004+60450+022267FM-12+001499999V0203401N004619999999N0000001N9+01501+99999101511ADDGF101991999999999999999999
0029029720999991902060113004+60450+022267FM-12+001499999V0200201N012319999999N0000001N9+00721+99999101701ADDGF108991999999999999999999
0029029720999991902060120004+60450+022267FM-12+001499999V0209991C000019999999N0000001N9+00891+99999101941ADDGF108991999999999999999999
0029029720999991902060206004+60450+022267FM-12+001499999V0209991C000019999999N0000001N9+01111+99999102381ADDGF100991999999999999999999
0029029720999991902060213004+60450+022267FM-12+001499999V0203201N004619999999N0000001N9+01561+99999102381ADDGF100991999999999999999999
0029029720999991902060220004+60450+022267FM-12+001499999V0203201N001019999999N0000001N9+01001+99999102421ADDGF100991999999999999999999
0029029720999991902060306004+60450+022267FM-12+001499999V0202001N009319999999N0000001N9+01441+99999102101ADDGF100991999999999999999999
0029029720999991902060313004+60450+022267FM-12+001499999V0203201N015419999999N0000001N9+01831+99999101911ADDGF100991999999999999999999
0029029720999991902060320004+60450+022267FM-12+001499999V0203201N009319999999N0000001N9+01171+99999102141ADDGF100991999999999999999999
0029029720999991902060406004+60450+022267FM-12+001499999V0209991C000019999999N0000001N9+02001+99999102201ADDGF100991999999999999999999
0029029720999991902060413004+60450+022267FM-12+001499999V0203201N009319999999N0000001N9+01891+99999101871ADDGF100991999999999999999999
0029029720999991902060420004+60450+022267FM-12+001499999V0202301N009319999999N0000001N9+01331+99999101241ADDGF103991999999999999999999
0029029720999991902060506004+60450+022267FM-12+001499999V0203201N012319999999N0000001N9+01441+99999100471ADDGF107991999999999999999999
0029029720999991902060513004+60450+022267FM-12+001499999V0203201N012319999999N0000001N9+01611+99999100311ADDGF102991999999999999999999
0029029720999991902060520004+60450+022267FM-12+001499999V0203401N009319999999N0000001N9+01171+99999100391ADDGF100991999999999999999999
0029029720999991902060606004+60450+022267FM-12+001499999V0200201N006719999999N0000001N9+01501+99999100281ADDGF108991999999999999999999
0029029720999991902060613004+60450+022267FM-12+001499999V0203601N006719999999N0000001N9+01391+99999100181ADDGF108991999999999999999999
0029029720999991902060620004+60450+022267FM-12+001499999V0200201N006719999999N0000001N9+01001+99999099981ADDGF108991999999999999999999
0029029720999991902060706004+60450+022267FM-12+001499999V0200901N009319999999N0000001N9+00941+99999100111ADDGF100991999999999999999999
0029029720999991902060713004+60450+022267FM-12+001499999V0201801N012319999999N0000001N9+01061+99999100261ADDGF108991999999999999999999
0029029720999991902060720004+60450+022267FM-12+001499999V0209991C000019999999N0000001N9+00781+99999100241ADDGF108991999999999999999999
0029029720999991902060806004+60450+022267FM-12+001499999V0201101N009319999999N0000001N9+00941+99999100071ADDGF100991999999999999999999
0029029720999991902060813004+60450+022267FM-12+001499999V0202301N006719999999N0000001N9+01501+99999100101ADDGF107991999999999999999999
0029029720999991902060820004+60450+022267FM-12+001499999V0209991C000019999999N0000001N9+01111+99999100101ADDGF100991999999999999999999
0029029720999991902060906004+60450+022267FM-12+001499999V0200501N015419999999N0000001N9+01061+99999099601ADDGF108991999999999999999999
0029029720999991902060913004+60450+022267FM-12+001499999V0200501N012319999999N0000001N9+00671+99999099421ADDGF108991999999999999999999
0029029720999991902060920004+60450+022267FM-12+001499999V0201401N006719999999N0000001N9+00781+99999099111ADDGF108991999999999999999999
0029029720999991902061006004+60450+022267FM-12+001499999V0202501N015419999999N0000001N9+00721+99999099101ADDGF108991999999999999999999
0029029720999991902061013004+60450+022267FM-12+001499999V0202501N012319999999N0000001N9+00781+99999099831ADDGF108991999999999999999999
0029029720999991902061020004+60450+022267FM-12+001499999V0202301N004619999999N0000001N9+00671+99999100181ADDGF102991999999999999999999
0029029720999991902061106004+60450+022267FM-12+001499999V0200901N004619999999N0000001N9+00561+99999100081ADDGF108991999999999999999999
0029029720999991902061113004+60450+022267FM-12+001499999V0209991C000019999999N0000001N9+00831+99999999999ADDGF108991999999999999999999
0029029720999991902061120004+60450+022267FM-12+001499999V0202301N006719999999N0000001N9+00611+99999100121ADDGF108991999999999999999999
0029029720999991902061206004+60450+022267FM-12+001499999V0202501N001019999999N0000001N9+01111+99999100701ADDGF104991999999999999999999
0029029720999991902061213004+60450+022267FM-12+001499999V0202701N004619999999N0000001N9+01441+99999101021ADDGF100991999999999999999999
0029029720999991902061220004+60450+022267FM-12+001499999V0201801N001019999999N0000001N9+01001+99999101111ADDGF100991999999999999999999
0029029720999991902061306004+60450+022267FM-12+001499999V0201801N006719999999N0000001N9+01501+99999101301ADDGF100991999999999999999999
0029029720999991902061313004+60450+022267FM-12+001499999V0202501N006719999999N0000001N9+01721+99999101271ADDGF101991999999999999999999
0000029720999991902061320004+60450+022267FM-12+001499999V0203601N015419999999N0000001N9+01281+99999101231
0029029720999991902061406004+60450+022267FM-12+001499999V0200201N002619999999N0000001N9+01501+99999101041ADDGF108991999999999999999999
0029029720999991902061413004+60450+022267FM-12+001499999V0203601N006719999999N0000001N9+01331+99999100841ADDGF108991999999999999999999
0029029720999991902061420004+60450+022267FM-12+001499999V0200201N015419999999N0000001N9+01111+99999100361ADDGF108991999999999999999999
0029029720999991902061506004+60450+022267FM-12+001499999V0200201N012319999999N0000001N9+01391+99999099341ADDGF108991999999999999999999
0029029720999991902061513004+60450+022267FM-12+001499999V0201601N006719999999N0000001N9+01281+99999099461ADDGF108991999999999999999999
0029029720999991902061520004+60450+022267FM-12+001499999V0201401N004619999999N0000001N9+01061+99999099591ADDGF108991999999999999999999
0029029720999991902061606004+60450+022267FM-12+001499999V0201401N001019999999N0000001N9+01061+99999099801ADDGF108991999999999999999999
0029029720999991902061613004+60450+022267FM-12+001499999V0209991C000019999999N0000001N9+00891+99999099981ADDGF108991999999999999999999
0029029720999991902061620004+60450+022267FM-12+001499999V0209991C000019999999N0000001N9+01061+99999099991ADDGF108991999999999999999999
0029029720999991902061706004+60450+022267FM-12+001499999V0209991C000019999999N0000001N9+01061+99999099841ADDGF108991999999999999999999
0029029720999991902061713004+60450+022267FM-12+001499999V0203601N009319999999N0000001N9+00891+99999100191ADDGF108991999999999999999999
0029029720999991902061720004+60450+022267FM-12+001499999V0209991C000019999999N0000001N9+00891+99999100561ADDGF108991999999999999999999
0029029720999991902061806004+60450+022267FM-12+001499999V0203201N012319999999N0000001N9+01281+99999101021ADDGF108991999999999999999999
0029029720999991902061813004+60450+022267FM-12+001499999V0202501N012319999999N0000001N9+01501+99999101151ADDGF100991999999999999999999
0029029720999991902061820004+60450+022267FM-12+001499999V0202301N002619999999N0000001N9+01001+99999101341ADDGF101991999999999999999999
0029029720999991902061906004+60450+022267FM-12+001499999V0202001N006719999999N0000001N9+01561+99999101551ADDGF100991999999999999999999
0029029720999991902061913004+60450+022267FM-12+001499999V0202501N009319999999N0000001N9+01721+99999101501ADDGF101991999999999999999999
0029029720999991902061920004+60450+022267FM-12+001499999V0202701N001019999999N0000001N9+01331+99999101421ADDGF107991999999999999999999
0029029720999991902062006004+60450+022267FM-12+001499999V0200901N009319999999N0000001N9+01721+99999101261ADDGF108991999999999999999999
0029029720999991902062013004+60450+022267FM-12+001499999V0200701N006719999999N0000001N9+02061+99999101031ADDGF102991999999999999999999
0029029720999991902062020004+60450+022267FM-12+001499999V0201601N001019999999N0000001N9+01611+99999100991ADDGF108991999999999999999999
0029029720999991902062106004+60450+022267FM-12+001499999V0200201N012319999999N0000001N9+01721+99999100741ADDGF108991999999999999999999
0029029720999991902062113004+60450+022267FM-12+001499999V0200501N009319999999N0000001N9+01781+99999100541ADDGF108991999999999999999999
0029029720999991902062120004+60450+022267FM-12+001499999V0200501N006719999999N0000001N9+01391+99999100521ADDGF108991999999999999999999
0029029720999991902062206004+60450+022267FM-12+001499999V0200201N004619999999N0000001N9+01501+99999100481ADDGF108991999999999999999999
0029029720999991902062213004+60450+022267FM-12+001499999V0200701N006719999999N0000001N9+01831+99999100621ADDGF108991999999999999999999
0029029720999991902062220004+60450+022267FM-12+001499999V0200201N012319999999N0000001N9+01331+99999100681ADDGF108991999999999999999999
0029029720999991902062306004+60450+022267FM-12+001499999V0200201N009319999999N0000001N9+01001+99999100541ADDGF108991999999999999999999
0029029720999991902062313004+60450+022267FM-12+001499999V0200501N012319999999N0000001N9+01781+99999100711ADDGF108991999999999999999999
0029029720999991902062320004+60450+022267FM-12+001499999V0200201N004619999999N0000001N9+01391+99999101021ADDGF107991999999999999999999
0029029720999991902062406004+60450+022267FM-12+001499999V0200201N009319999999N0000001N9+01721+99999101261ADDGF106991999999999999999999
0029029720999991902062413004+60450+022267FM-12+001499999V0200501N012319999999N0000001N9+01721+99999101351ADDGF108991999999999999999999
0029029720999991902062420004+60450+022267FM-12+001499999V0209991C000019999999N0000001N9+01391+99999101621ADDGF100991999999999999999999
0029029720999991902062506004+60450+022267FM-12+001499999V0200201N002619999999N0000001N9+01721+99999101921ADDGF100991999999999999999999
0029029720999991902062513004+60450+022267FM-12+001499999V0202301N009319999999N0000001N9+01891+99999101821ADDGF100991999999999999999999
0029029720999991902062520004+60450+022267FM-12+001499999V0203201N006719999999N0000001N9+01331+99999101841ADDGF100991999999999999999999
0029029720999991902062606004+60450+022267FM-12+001499999V0203601N006719999999N0000001N9+01611+99999102061ADDGF100991999999999999999999
0029029720999991902062613004+60450+022267FM-12+001499999V0200201N006719999999N0000001N9+02001+99999101911ADDGF102991999999999999999999
0029029720999991902062620004+60450+022267FM-12+001499999V0203201N006719999999N0000001N9+01441+99999101841ADDGF108991999999999999999999
0029029720999991902062706004+60450+022267FM-12+001499999V0200201N006719999999N0000001N9+01281+99999101901ADDGF106991999999999999999999
0029029720999991902062713004+60450+022267FM-12+001499999V0202701N006719999999N0000001N9+01671+99999101871ADDGF108991999999999999999999
0029029720999991902062720004+60450+022267FM-12+001499999V0203201N001019999999N0000001N9+01331+99999101761ADDGF106991999999999999999999
0029029720999991902062806004+60450+022267FM-12+001499999V0201801N006719999999N0000001N9+01611+99999101281ADDGF100991999999999999999999
0029029720999991902062813004+60450+022267FM-12+001499999V0202301N009319999999N0000001N9+02281+99999100901ADDGF107991999999999999999999
0029029720999991902062820004+60450+022267FM-12+001499999V0202701N004619999999N0000001N9+01721+99999100501ADDGF108991999999999999999999
0029029720999991902062906004+60450+022267FM-12+001499999V0203201N009319999999N0000001N9+01501+99999100391ADDGF100991999999999999999999
0029029720999991902062913004+60450+022267FM-12+001499999V0203201N019019999999N0000001N9+01721+99999100601ADDGF100991999999999999999999
0029029720999991902062920004+60450+022267FM-12+001499999V0203201N009319999999N0000001N9+01221+99999100921ADDGF100991999999999999999999
0029029720999991902063006004+60450+022267FM-12+001499999V0203201N009319999999N0000001N9+01501+99999101031ADDGF100991999999999999999999
0029029720999991902063013004+60450+022267FM-12+001499999V0202701N015419999999N0000001N9+01501+99999101071ADDGF101991999999999999999999
0029029720999991902063020004+60450+022267FM-12+001499999V0202301N004619999999N0000001N9+01061+99999101001ADDGF101991999999999999999999
0029029720999991902070106004+60450+022267FM-12+001499999V0201401N012319999999N0000001N9+01611+99999100151ADDGF102991999999999999999999
0029029720999991902070113004+60450+022267FM-12+001499999V0201801N015419999999N0000001N9+01391+99999099901ADDGF108991999999999999999999
0029029720999991902070120004+60450+022267FM-12+001499999V0209991C000019999999N0000001N9+01281+99999099601ADDGF108991999999999999999999
0029029720999991902070206004+60450+022267FM-12+001499999V0203601N002619999999N0000001N9+00891+99999099431ADDGF108991999999999999999999
0029029720999991902070213004+60450+022267FM-12+001499999V0203601N006719999999N0000001N9+01611+99999099601ADDGF108991999999999999999999
0029029720999991902070220004+60450+022267FM-12+001499999V0203401N009319999999N0000001N9+01111+99999099991ADDGF108991999999999999999999
0029029720999991902070306004+60450+022267FM-12+001499999V0203601N015419999999N0000001N9+01501+99999100471ADDGF100991999999999999999999
0029029720999991902070313004+60450+022267FM-12+001499999V0203201N012319999999N0000001N9+01501+99999100631ADDGF100991999999999999999999
0029029720999991902070320004+60450+022267FM-12+001499999V0203201N009319999999N0000001N9+00941+99999101001ADDGF101991999999999999999999
0029029720999991902070406004+60450+022267FM-12+001499999V0203201N004619999999N0000001N9+01611+99999100981ADDGF101991999999999999999999
0029029720999991902070413004+60450+022267FM-12+001499999V0202301N009319999999N0000001N9+01891+99999101191ADDGF107991999999999999999999
0029029720999991902070420004+60450+022267FM-12+001499999V0201801N001019999999N0000001N9+01281+99999100961ADDGF100991999999999999999999
0029029720999991902070506004+60450+022267FM-12+001499999V0201401N012319999999N0000001N9+01221+99999100311ADDGF108991999999999999999999
0029029720999991902070513004+60450+022267FM-12+001499999V0201801N009319999999N0000001N9+01221+99999100071ADDGF108991999999999999999999
0029029720999991902070520004+60450+022267FM-12+001499999V0200901N004619999999N0000001N9+01111+99999099911ADDGF108991999999999999999999
0029029720999991902070606004+60450+022267FM-12+001499999V0200701N002619999999N0000001N9+01281+99999100161ADDGF108991999999999999999999
0029029720999991902070613004+60450+022267FM-12+001499999V0203601N006719999999N0000001N9+01781+99999100421ADDGF108991999999999999999999
0029029720999991902070620004+60450+022267FM-12+001499999V0203201N004619999999N0000001N9+01331+99999100701ADDGF102991999999999999999999
0029029720999991902070706004+60450+022267FM-12+001499999V0202701N006719999999N0000001N9+01391+99999100551ADDGF108991999999999999999999
0029029720999991902070713004+60450+022267FM-12+001499999V0202901N006719999999N0000001N9+01721+99999100391ADDGF107991999999999999999999
0029029720999991902070720004+60450+022267FM-12+001499999V0202901N004619999999N0000001N9+01171+99999100231ADDGF102991999999999999999999
0029029720999991902070806004+60450+022267FM-12+001499999V0202901N002619999999N0000001N9+01221+99999099951ADDGF108991999999999999999999
0029029720999991902070813004+60450+022267FM-12+001499999V0203201N012319999999N0000001N9+01831+99999099951ADDGF102991999999999999999999
0029029720999991902070820004+60450+022267FM-12+001499999V0203201N009319999999N0000001N9+00941+99999100041ADDGF103991999999999999999999
0029029720999991902070906004+60450+022267FM-12+001499999V0200701N004619999999N0000001N9+01061+99999099951ADDGF108991999999999999999999
0029029720999991902070913004+60450+022267FM-12+001499999V0200501N001019999999N0000001N9+01441+99999100031ADDGF108991999999999999999999
0029029720999991902070920004+60450+022267FM-12+001499999V0209991C000019999999N0000001N9+01111+99999100141ADDGF108991999999999999999999
0029029720999991902071006004+60450+022267FM-12+001499999V0200701N004619999999N0000001N9+01561+99999100111ADDGF106991999999999999999999
0029029720999991902071013004+60450+022267FM-12+001499999V0201801N004619999999N0000001N9+01441+99999099981ADDGF108991999999999999999999
0029029720999991902071020004+60450+022267FM-12+001499999V0209991C000019999999N0000001N9+01171+99999099841ADDGF107991999999999999999999
0029029720999991902071106004+60450+022267FM-12+001499999V0200501N012319999999N0000001N9+01221+99999099391ADDGF108991999999999999999999
0029029720999991902071113004+60450+022267FM-12+001499999V0200701N009319999999N0000001N9+01171+99999099511ADDGF108991999999999999999999
0029029720999991902071120004+60450+022267FM-12+001499999V0200501N002619999999N0000001N9+01221+99999099551ADDGF108991999999999999999999
0029029720999991902071206004+60450+022267FM-12+001499999V0200201N004619999999N0000001N9+01221+99999099191ADDGF108991999999999999999999
0029029720999991902071213004+60450+022267FM-12+001499999V0203201N002619999999N0000001N9+01331+99999099161ADDGF108991999999999999999999
0029029720999991902071220004+60450+022267FM-12+001499999V0202701N002619999999N0000001N9+01221+99999099321ADDGF108991999999999999999999
0029029720999991902071306004+60450+022267FM-12+001499999V0202701N006719999999N0000001N9+01221+99999100101ADDGF106991999999999999999999
0029029720999991902071313004+60450+022267FM-12+001499999V0202701N009319999999N0000001N9+01561+99999100661ADDGF105991999999999999999999
0029029720999991902071320004+60450+022267FM-12+001499999V0201601N009319999999N0000001N9+01171+99999100661ADDGF108991999999999999999999
0029029720999991902071406004+60450+022267FM-12+001499999V0201801N015419999999N0000001N9+01111+99999100421ADDGF108991999999999999999999
0029029720999991902071413004+60450+022267FM-12+001499999V0201801N002619999999N0000001N9+01221+99999100441ADDGF108991999999999999999999
0029029720999991902071420004+60450+022267FM-12+001499999V0203401N006719999999N0000001N9+01111+99999100551ADDGF108991999999999999999999
0029029720999991902071506004+60450+022267FM-12+001499999V0203201N006719999999N0000001N9+01221+99999101001ADDGF104991999999999999999999
0029029720999991902071513004+60450+022267FM-12+001499999V0203201N009319999999N0000001N9+01831+99999101001ADDGF103991999999999999999999
0029029720999991902071520004+60450+022267FM-12+001499999V0203201N006719999999N0000001N9+01221+99999101041ADDGF100991999999999999999999
0029029720999991902071606004+60450+022267FM-12+001499999V0203201N002619999999N0000001N9+01391+99999100761ADDGF100991999999999999999999
0029029720999991902071613004+60450+022267FM-12+001499999V0203401N012319999999N0000001N9+01941+99999100521ADDGF108991999999999999999999
0029029720999991902071620004+60450+022267FM-12+001499999V0200701N004619999999N0000001N9+01171+99999100501ADDGF108991999999999999999999
0029029720999991902071706004+60450+022267FM-12+001499999V0203201N004619999999N0000001N9+01221+99999100471ADDGF108991999999999999999999
0029029720999991902071713004+60450+022267FM-12+001499999V0203601N002619999999N0000001N9+01721+99999100541ADDGF108991999999999999999999
0029029720999991902071720004+60450+022267FM-12+001499999V0203201N002619999999N0000001N9+01331+99999100461ADDGF108991999999999999999999
0029029720999991902071806004+60450+022267FM-12+001499999V0209991C000019999999N0000001N9+01331+99999100471ADDGF108991999999999999999999
0029029720999991902071813004+60450+022267FM-12+001499999V0202701N009319999999N0000001N9+02171+99999100351ADDGF107991999999999999999999
0029029720999991902071820004+60450+022267FM-12+001499999V0209991C000019999999N0000001N9+01501+99999100301ADDGF104991999999999999999999
0029029720999991902071906004+60450+022267FM-12+001499999V0209991C000019999999N0000001N9+01671+99999100181ADDGF108991999999999999999999
0000029720999991902071913004+60450+022267FM-12+001499999V0202301N006719999999N0000001N9+02171+99999100101
0029029720999991902071920004+60450+022267FM-12+001499999V0202501N009319999999N0000001N9+01391+99999099991ADDGF106991999999999999999999
0029029720999991902072006004+60450+022267FM-12+001499999V0202501N006719999999N0000001N9+01671+99999099801ADDGF108991999999999999999999
0029029720999991902072013004+60450+022267FM-12+001499999V0202701N009319999999N0000001N9+01331+99999999999ADDGF108991999999999999999999
0029029720999991902072020004+60450+022267FM-12+001499999V0201801N004619999999N0000001N9+01281+99999100351ADDGF108991999999999999999999
0029029720999991902072106004+60450+022267FM-12+001499999V0201601N009319999999N0000001N9+01331+99999100311ADDGF108991999999999999999999
0029029720999991902072113004+60450+022267FM-12+001499999V0201801N012319999999N0000001N9+01561+99999100481ADDGF108991999999999999999999
0029029720999991902072120004+60450+022267FM-12+001499999V0201601N004619999999N0000001N9+01221+99999100551ADDGF100991999999999999999999
0029029720999991902072206004+60450+022267FM-12+001499999V0201801N006719999999N0000001N9+01441+99999100621ADDGF108991999999999999999999
0029029720999991902072213004+60450+022267FM-12+001499999V0202001N006719999999N0000001N9+01941+99999100591ADDGF104991999999999999999999
0029029720999991902072220004+60450+022267FM-12+001499999V0202701N002619999999N0000001N9+01441+99999100521ADDGF107991999999999999999999
0029029720999991902072306004+60450+022267FM-12+001499999V0203601N004619999999N0000001N9+01391+99999100581ADDGF108991999999999999999999
0029029720999991902072313004+60450+022267FM-12+001499999V0202301N006719999999N0000001N9+01831+99999100641ADDGF108991999999999999999999
0029029720999991902072320004+60450+022267FM-12+001499999V0202301N002619999999N0000001N9+01331+99999100781ADDGF100991999999999999999999
0029029720999991902072406004+60450+022267FM-12+001499999V0201401N002619999999N0000001N9+01331+99999100911ADDGF108991999999999999999999
0029029720999991902072413004+60450+022267FM-12+001499999V0202001N004619999999N0000001N9+01721+99999100941ADDGF108991999999999999999999
0029029720999991902072420004+60450+022267FM-12+001499999V0202001N001019999999N0000001N9+01221+99999101001ADDGF108991999999999999999999
0029029720999991902072506004+60450+022267FM-12+001499999V0209991C000019999999N0000001N9+01331+99999100951ADDGF108991999999999999999999
0029029720999991902072513004+60450+022267FM-12+001499999V0202501N006719999999N0000001N9+01831+99999100981ADDGF101991999999999999999999
0029029720999991902072520004+60450+022267FM-12+001499999V0201801N006719999999N0000001N9+01331+99999100951ADDGF100991999999999999999999
0029029720999991902072606004+60450+022267FM-12+001499999V0201801N006719999999N0000001N9+01831+99999101021ADDGF108991999999999999999999
0029029720999991902072613004+60450+022267FM-12+001499999V0202501N012319999999N0000001N9+01781+99999101061ADDGF100991999999999999999999
0029029720999991902072620004+60450+022267FM-12+001499999V0202001N002619999999N0000001N9+01281+99999101111ADDGF101991999999999999999999
0029029720999991902072706004+60450+022267FM-12+001499999V0201801N006719999999N0000001N9+01671+99999100881ADDGF101991999999999999999999
0029029720999991902072713004+60450+022267FM-12+001499999V0200901N012319999999N0000001N9+01501+99999100461ADDGF108991999999999999999999
0029029720999991902072720004+60450+022267FM-12+001499999V0201101N009319999999N0000001N9+01561+99999099601ADDGF108991999999999999999999
0029029720999991902072806004+60450+022267FM-12+001499999V0201801N009319999999N0000001N9+01561+99999099551ADDGF108991999999999999999999
0029029720999991902072813004+60450+022267FM-12+001499999V0202001N019019999999N0000001N9+01671+99999099601ADDGF107991999999999999999999
0029029720999991902072820004+60450+022267FM-12+001499999V0202001N009319999999N0000001N9+01281+99999099641ADDGF108991999999999999999999
0029029720999991902072906004+60450+022267FM-12+001499999V0202001N019019999999N0000001N9+01391+99999099541ADDGF108991999999999999999999
0029029720999991902072913004+60450+022267FM-12+001499999V0201801N012319999999N0000001N9+01441+99999099751ADDGF108991999999999999999999
0029029720999991902072920004+60450+022267FM-12+001499999V0202701N009319999999N0000001N9+01171+99999099951ADDGF108991999999999999999999
0029029720999991902073006004+60450+022267FM-12+001499999V0202301N006719999999N0000001N9+01611+99999100231ADDGF101991999999999999999999
0029029720999991902073013004+60450+022267FM-12+001499999V0201801N009319999999N0000001N9+01611+99999100431ADDGF108991999999999999999999
0029029720999991902073020004+60450+022267FM-12+001499999V0201601N002619999999N0000001N9+01171+99999100471ADDGF101991999999999999999999
0029029720999991902073106004+60450+022267FM-12+001499999V0209991C000019999999N0000001N9+01221+99999100461ADDGF108991999999999999999999
0029029720999991902073113004+60450+022267FM-12+001499999V0202301N012319999999N0000001N9+01671+99999100521ADDGF107991999999999999999999
0029029720999991902073120004+60450+022267FM-12+001499999V0209991C000019999999N0000001N9+01281+99999100671ADDGF108991999999999999999999
0029029720999991902080106004+60450+022267FM-12+001499999V0201801N002619999999N0000001N9+01391+99999100551ADDGF108991999999999999999999
0029029720999991902080113004+60450+022267FM-12+001499999V0203201N002619999999N0000001N9+01561+99999100601ADDGF108991999999999999999999
0029029720999991902080120004+60450+022267FM-12+001499999V0203201N006719999999N0000001N9+01281+99999100631ADDGF107991999999999999999999
0029029720999991902080206004+60450+022267FM-12+001499999V0203201N001019999999N0000001N9+01671+99999100741ADDGF100991999999999999999999
0029029720999991902080213004+60450+022267FM-12+001499999V0203201N009319999999N0000001N9+02001+99999100751ADDGF102991999999999999999999
0029029720999991902080220004+60450+022267FM-12+001499999V0203201N004619999999N0000001N9+01221+99999100871ADDGF100991999999999999999999
0029029720999991902080306004+60450+022267FM-12+001499999V0203601N004619999999N0000001N9+01721+99999100871ADDGF101991999999999999999999
0029029720999991902080313004+60450+022267FM-12+001499999V0200501N001019999999N0000001N9+02061+99999100791ADDGF105991999999999999999999
0029029720999991902080320004+60450+022267FM-12+001499999V0209991C000019999999N0000001N9+01611+99999100751ADDGF107991999999999999999999
0029029720999991902080406004+60450+022267FM-12+001499999V0209991C000019999999N0000001N9+01441+99999100661ADDGF108991999999999999999999
0029029720999991902080413004+60450+022267FM-12+001499999V0202001N004619999999N0000001N9+01781+99999100521ADDGF108991999999999999999999
0029029720999991902080420004+60450+022267FM-12+001499999V0203201N002619999999N0000001N9+01281+99999100561ADDGF108991999999999999999999
0029029720999991902080506004+60450+022267FM-12+001499999V0201801N004619999999N0000001N9+01611+99999100481ADDGF105991999999999999999999
0029029720999991902080513004+60450+022267FM-12+001499999V0201801N009319999999N0000001N9+01721+99999100501ADDGF102991999999999999999999
0029029720999991902080520004+60450+022267FM-12+001499999V0201601N004619999999N0000001N9+01171+99999100561ADDGF107991999999999999999999
0029029720999991902080606004+60450+022267FM-12+001499999V0201601N002619999999N0000001N9+01281+99999100441ADDGF108991999999999999999999
0029029720999991902080613004+60450+022267FM-12+001499999V0201601N009319999999N0000001N9+01781+99999100471ADDGF103991999999999999999999
0029029720999991902080620004+60450+022267FM-12+001499999V0201601N002619999999N0000001N9+01281+99999100511ADDGF102991999999999999999999
0029029720999991902080706004+60450+022267FM-12+001499999V0202301N004619999999N0000001N9+01391+99999100561ADDGF102991999999999999999999
0029029720999991902080713004+60450+022267FM-12+001499999V0202001N006719999999N0000001N9+01831+99999100551ADDGF106991999999999999999999
0029029720999991902080720004+60450+022267FM-12+001499999V0209991C000019999999N0000001N9+01221+99999100511ADDGF107991999999999999999999
0029029720999991902080806004+60450+022267FM-12+001499999V0209991C000019999999N0000001N9+01561+99999100551ADDGF101991999999999999999999
0029029720999991902080813004+60450+022267FM-12+001499999V0202301N006719999999N0000001N9+01941+99999100501ADDGF103991999999999999999999
0029029720999991902080820004+60450+022267FM-12+001499999V0209991C000019999999N0000001N9+01331+99999100591ADDGF101991999999999999999999
0029029720999991902080906004+60450+022267FM-12+001499999V0200901N002619999999N0000001N9+01721+99999100591ADDGF101991999999999999999999
0029029720999991902080913004+60450+022267FM-12+001499999V0201101N009319999999N0000001N9+01781+99999100441ADDGF108991999999999999999999
0029029720999991902080920004+60450+022267FM-12+001499999V0200901N009319999999N0000001N9+01331+99999099841ADDGF108991999999999999999999
0029029720999991902081006004+60450+022267FM-12+001499999V0201401N009319999999N0000001N9+01611+99999099941ADDGF100991999999999999999999
0029029720999991902081013004+60450+022267FM-12+001499999V0201801N012319999999N0000001N9+01441+99999099961ADDGF108991999999999999999999
0029029720999991902081020004+60450+022267FM-12+001499999V0201801N009319999999N0000001N9+01281+99999099951ADDGF108991999999999999999999
0029029720999991902081106004+60450+022267FM-12+001499999V0201601N012319999999N0000001N9+01391+99999100031ADDGF107991999999999999999999
0029029720999991902081113004+60450+022267FM-12+001499999V0201401N004619999999N0000001N9+01281+99999100021ADDGF108991999999999999999999
0029029720999991902081120004+60450+022267FM-12+001499999V0201801N009319999999N0000001N9+01171+99999099901ADDGF108991999999999999999999
0029029720999991902081206004+60450+022267FM-12+001499999V0201401N009319999999N0000001N9+01281+99999100021ADDGF108991999999999999999999
0029029720999991902081213004+60450+022267FM-12+001499999V0201801N015419999999N0000001N9+01441+99999100121ADDGF108991999999999999999999
0029029720999991902081220004+60450+022267FM-12+001499999V0201401N006719999999N0000001N9+01111+99999100201ADDGF102991999999999999999999
0029029720999991902081306004+60450+022267FM-12+001499999V0200901N004619999999N0000001N9+01331+99999100071ADDGF108991999999999999999999
0029029720999991902081313004+60450+022267FM-12+001499999V0209991C000019999999N0000001N9+01331+99999099961ADDGF108991999999999999999999
0029029720999991902081320004+60450+022267FM-12+001499999V0209991C000019999999N0000001N9+01061+99999099801ADDGF108991999999999999999999
0029029720999991902081406004+60450+022267FM-12+001499999V0201401N004619999999N0000001N9+01441+99999099621ADDGF108991999999999999999999
0029029720999991902081413004+60450+022267FM-12+001499999V0201801N009319999999N0000001N9+01611+99999099781ADDGF107991999999999999999999
0029029720999991902081420004+60450+022267FM-12+001499999V0201601N002619999999N0000001N9+01061+99999099791ADDGF100991999999999999999999
0029029720999991902081506004+60450+022267FM-12+001499999V0209991C000019999999N0000001N9+01061+99999099431ADDGF108991999999999999999999
0029029720999991902081513004+60450+022267FM-12+001499999V0203201N006719999999N0000001N9+01561+99999099221ADDGF108991999999999999999999
0029029720999991902081520004+60450+022267FM-12+001499999V0202701N009319999999N0000001N9+01221+99999099061ADDGF108991999999999999999999
0029029720999991902081606004+60450+022267FM-12+001499999V0202301N015419999999N0000001N9+01391+99999099041ADDGF108991999999999999999999
0029029720999991902081613004+60450+022267FM-12+001499999V0202301N012319999999N0000001N9+01331+99999099401ADDGF108991999999999999999999
0029029720999991902081620004+60450+022267FM-12+001499999V0202001N006719999999N0000001N9+01171+99999099581ADDGF108991999999999999999999
0029029720999991902081706004+60450+022267FM-12+001499999V0209991C000019999999N0000001N9+01391+99999099741ADDGF108991999999999999999999
0029029720999991902081713004+60450+022267FM-12+001499999V0202701N006719999999N0000001N9+01561+99999099951ADDGF100991999999999999999999
0029029720999991902081720004+60450+022267FM-12+001499999V0209991C000019999999N0000001N9+00891+99999100271ADDGF100991999999999999999999
0029029720999991902081806004+60450+022267FM-12+001499999V0200501N002619999999N0000001N9+01441+99999100741ADDGF101991999999999999999999
0029029720999991902081813004+60450+022267FM-12+001499999V0201801N009319999999N0000001N9+01611+99999100951ADDGF104991999999999999999999
0029029720999991902081820004+60450+022267FM-12+001499999V0202001N004619999999N0000001N9+01171+99999101121ADDGF100991999999999999999999
0029029720999991902081906004+60450+022267FM-12+001499999V0201401N006719999999N0000001N9+01561+99999101151ADDGF108991999999999999999999
0029029720999991902081913004+60450+022267FM-12+001499999V0201601N009319999999N0000001N9+01831+99999101031ADDGF108991999999999999999999
0029029720999991902081920004+60450+022267FM-12+001499999V0200901N004619999999N0000001N9+01441+99999100591ADDGF108991999999999999999999
0029029720999991902082006004+60450+022267FM-12+001499999V0201401N015419999999N0000001N9+01391+99999099421ADDGF108991999999999999999999
0029029720999991902082013004+60450+022267FM-12+001499999V0202301N012319999999N0000001N9+01561+99999099681ADDGF108991999999999999999999
0029029720999991902082020004+60450+022267FM-12+001499999V0201801N004619999999N0000001N9+01171+99999099821ADDGF100991999999999999999999
0029029720999991902082106004+60450+022267FM-12+001499999V0209991C000019999999N0000001N9+01331+99999099751ADDGF108991999999999999999999
0029029720999991902082113004+60450+022267FM-12+001499999V0203201N009319999999N0000001N9+01561+99999099841ADDGF106991999999999999999999
0029029720999991902082120004+60450+022267FM-12+001499999V0203201N004619999999N0000001N9+00891+99999100241ADDGF100991999999999999999999
0029029720999991902082206004+60450+022267FM-12+001499999V0202701N009319999999N0000001N9+01221+99999100481ADDGF108991999999999999999999
0029029720999991902082213004+60450+022267FM-12+001499999V0202701N012319999999N0000001N9+01221+99999100761ADDGF108991999999999999999999
0029029720999991902082220004+60450+022267FM-12+001499999V0202701N009319999999N0000001N9+01111+99999101001ADDGF108991999999999999999999
0029029720999991902082306004+60450+022267FM-12+001499999V0202701N006719999999N0000001N9+01061+99999101281ADDGF108991999999999999999999
0029029720999991902082313004+60450+022267FM-12+001499999V0202901N004619999999N0000001N9+01391+99999101521ADDGF108991999999999999999999
0029029720999991902082320004+60450+022267FM-12+001499999V0209991C000019999999N0000001N9+00781+99999101591ADDGF100991999999999999999999
0029029720999991902082406004+60450+022267FM-12+001499999V0202701N001019999999N0000001N9+01561+99999101591ADDGF100991999999999999999999
0029029720999991902082413004+60450+022267FM-12+001499999V0202301N012319999999N0000001N9+01721+99999101671ADDGF104991999999999999999999
0029029720999991902082420004+60450+022267FM-12+001499999V0201801N001019999999N0000001N9+01061+99999101601ADDGF100991999999999999999999
0029029720999991902082506004+60450+022267FM-12+001499999V0201801N002619999999N0000001N9+01281+99999101521ADDGF108991999999999999999999
0029029720999991902082513004+60450+022267FM-12+001499999V0201601N009319999999N0000001N9+01561+99999101351ADDGF108991999999999999999999
0029029720999991902082520004+60450+022267FM-12+001499999V0201401N009319999999N0000001N9+01331+99999101021ADDGF108991999999999999999999
0029029720999991902082606004+60450+022267FM-12+001499999V0209991C000019999999N0000001N9+01281+99999100321ADDGF108991999999999999999999
0029029720999991902082613004+60450+022267FM-12+001499999V0202301N012319999999N0000001N9+01281+99999100551ADDGF108991999999999999999999
0029029720999991902082620004+60450+022267FM-12+001499999V0202701N012319999999N0000001N9+01281+99999101041ADDGF108991999999999999999999
0029029720999991902082706004+60450+022267FM-12+001499999V0203201N002619999999N0000001N9+01331+99999101341ADDGF108991999999999999999999
0029029720999991902082713004+60450+022267FM-12+001499999V0200201N004619999999N0000001N9+01721+99999101601ADDGF102991999999999999999999
0029029720999991902082720004+60450+022267FM-12+001499999V0209991C000019999999N0000001N9+01281+99999101821ADDGF100991999999999999999999
0029029720999991902082806004+60450+022267FM-12+001499999V0200501N002619999999N0000001N9+01501+99999101551ADDGF106991999999999999999999
0029029720999991902082813004+60450+022267FM-12+001499999V0202301N006719999999N0000001N9+01721+99999101391ADDGF108991999999999999999999
0029029720999991902082820004+60450+022267FM-12+001499999V0200501N004619999999N0000001N9+01331+99999101271ADDGF108991999999999999999999
0029029720999991902082906004+60450+022267FM-12+001499999V0200501N009319999999N0000001N9+01281+99999101031ADDGF108991999999999999999999
0029029720999991902082913004+60450+022267FM-12+001499999V0200501N002619999999N0000001N9+01221+99999101081ADDGF108991999999999999999999
0029029720999991902082920004+60450+022267FM-12+001499999V0200501N001019999999N0000001N9+01061+99999101081ADDGF108991999999999999999999
0029029720999991902083006004+60450+022267FM-12+001499999V0200201N002619999999N0000001N9+00891+99999101261ADDGF108991999999999999999999
0029029720999991902083013004+60450+022267FM-12+001499999V0200701N006719999999N0000001N9+01281+99999101321ADDGF108991999999999999999999
0029029720999991902083020004+60450+022267FM-12+001499999V02099999999999999999N0000001N9+00891+99999101321ADDGF100991999999999999999999
0029029720999991902083106004+60450+022267FM-12+001499999V0200901N004619999999N0000001N9+01061+99999101231ADDGF108991999999999999999999
0029029720999991902083113004+60450+022267FM-12+001499999V0201401N009319999999N0000001N9+01501+99999101121ADDGF108991999999999999999999
0029029720999991902083120004+60450+022267FM-12+001499999V0201101N009319999999N0000001N9+01001+99999101191ADDGF108991999999999999999999
0029029720999991902090106004+60450+022267FM-12+001499999V0201401N009319999999N0000001N9+01061+99999101021ADDGF108991999999999999999999
0029029720999991902090113004+60450+022267FM-12+001499999V0201601N001019999999N0000001N9+01441+99999101061ADDGF108991999999999999999999
0029029720999991902090120004+60450+022267FM-12+001499999V0209991C000019999999N0000001N9+01111+99999100991ADDGF102991999999999999999999
0029029720999991902090206004+60450+022267FM-12+001499999V0209991C000019999999N0000001N9+01111+99999101151ADDGF108991999999999999999999
0029029720999991902090213004+60450+022267FM-12+001499999V0203201N006719999999N0000001N9+01611+99999101381ADDGF107991999999999999999999
0029029720999991902090220004+60450+022267FM-12+001499999V0203201N001019999999N0000001N9+00831+99999101541ADDGF100991999999999999999999
0029029720999991902090306004+60450+022267FM-12+001499999V0200501N001019999999N0000001N9+00721+99999101821ADDGF108991999999999999999999
0029029720999991902090313004+60450+022267FM-12+001499999V0201801N006719999999N0000001N9+01611+99999101831ADDGF103991999999999999999999
0029029720999991902090320004+60450+022267FM-12+001499999V0201401N012319999999N0000001N9+01331+99999101621ADDGF108991999999999999999999
0029029720999991902090406004+60450+022267FM-12+001499999V0201801N012319999999N0000001N9+01561+99999101281ADDGF108991999999999999999999
0029029720999991902090413004+60450+022267FM-12+001499999V0201801N009319999999N0000001N9+01501+99999101181ADDGF108991999999999999999999
0029029720999991902090420004+60450+022267FM-12+001499999V0202301N012319999999N0000001N9+01441+99999100671ADDGF108991999999999999999999
