0035029600999991902010106004+61183+022617FM-12+005199999V0200901N006219999999N0000001N9-00281+99999099621ADDGF108991999999999999999999MW1721
0035029600999991902010113004+61183+022617FM-12+005199999V0201101N006219999999N0000001N9-00331+99999099431ADDGF108991999999999999999999MW1721
0035029600999991902010213004+61183+022617FM-12+005199999V0200701N004119999999N0000001N9-01061+99999099281ADDGF108991999999999999999999MW1721
0029029600999991902010206004+61183+022617FM-12+005199999V0200701N005119999999N0000001N9-00891+99999098821ADDGF108991999999999999999999
0035029600999991902010120004+61183+022617FM-12+005199999V0201101N005119999999N0000001N9-00561+99999098991ADDGF108991999999999999999999MW1721
0035029600999991902010220004+61183+022617FM-12+005199999V0200701N005119999999N0000001N9-01281+99999099641ADDGF108991999999999999999999MW1721
0029029600999991902010306004+61183+022617FM-12+005199999V0200701N004119999999N0000001N9-01671+99999099991ADDGF108991999999999999999999
0029029600999991902010313004+61183+022617FM-12+005199999V0200501N003119999999N0000001N9-02001+99999100381ADDGF108991999999999999999999
0029029600999991902010320004+61183+022617FM-12+005199999V0200901N001019999999N0000001N9-02671+99999100631ADDGF100991999999999999999999
0029029600999991902010406004+61183+022617FM-12+005199999V0201401N005119999999N0000001N9-01561+99999099431ADDGF108991999999999999999999
0035029600999991902010413004+61183+022617FM-12+005199999V0201801N005119999999N0000001N9-00441+99999097881ADDGF108991999999999999999999MW1721
0029029600999991902010420004+61183+022617FM-12+005199999V0202301N005119999999N0000001N9-00061+99999097881ADDGF108991999999999999999999
0029029600999991902010506004+61183+022617FM-12+005199999V0202301N003119999999N0000001N9+00061+99999097301ADDGF108991999999999999999999
0029029600999991902010513004+61183+022617FM-12+005199999V0202501N004119999999N0000001N9+00001+99999097401ADDGF108991999999999999999999
0029029600999991902010520004+61183+022617FM-12+005199999V0202501N004119999999N0000001N9-00111+99999097881ADDGF108991999999999999999999
0029029600999991902010606004+61183+022617FM-12+005199999V0202701N005119999999N0000001N9-01331+99999098661ADDGF102991999999999999999999
0029029600999991902010613004+61183+022617FM-12+005199999V0201101N001019999999N0000001N9-01501+99999098551ADDGF108991999999999999999999
0029029600999991902010620004+61183+022617FM-12+005199999V0209991C000019999999N0000001N9-01671+99999099381ADDGF108991999999999999999999
0029029600999991902010706004+61183+022617FM-12+005199999V0202001N004119999999N0000001N9-00781+99999100021ADDGF108991999999999999999999
0029029600999991902010713004+61183+022617FM-12+005199999V0202001N006219999999N0000001N9-00171+99999099391ADDGF108991999999999999999999
0029029600999991902010720004+61183+022617FM-12+005199999V0202301N005119999999N0000001N9-00171+99999099111ADDGF100991999999999999999999
0029029600999991902010806004+61183+022617FM-12+005199999V0202501N007219999999N0000001N9-00171+99999099501ADDGF100991999999999999999999
0029029600999991902010813004+61183+022617FM-12+005199999V0202301N004119999999N0000001N9-00061+99999099361ADDGF108991999999999999999999
0029029600999991902010820004+61183+022617FM-12+005199999V0202501N007219999999N0000001N9-00061+99999099471ADDGF100991999999999999999999
0029029600999991902010906004+61183+022617FM-12+005199999V0202901N006219999999N0000001N9+00061+99999099631ADDGF102991999999999999999999
0029029600999991902010913004+61183+022617FM-12+005199999V0202501N005119999999N0000001N9+00001+99999099601ADDGF107991999999999999999999
0029029600999991902010920004+61183+022617FM-12+005199999V0201101N001019999999N0000001N9-01171+99999099661ADDGF100991999999999999999999
0035029600999991902011006004+61183+022617FM-12+005199999V0202001N006219999999N0000001N9+00061+99999097841ADDGF108991999999999999999999MW1721
0035029600999991902011013004+61183+022617FM-12+005199999V0202701N009819999999N0000001N9+00171+99999097641ADDGF108991999999999999999999MW1721
0029029600999991902011020004+61183+022617FM-12+005199999V0202501N009819999999N0000001N9+00111+99999097741ADDGF108991999999999999999999
0029029600999991902011106004+61183+022617FM-12+005199999V0202701N005119999999N0000001N9-00331+99999097551ADDGF108991999999999999999999
0029029600999991902011113004+61183+022617FM-12+005199999V0203201N004119999999N0000001N9-00941+99999098121ADDGF108991999999999999999999
0029029600999991902011120004+61183+022617FM-12+005199999V0203601N003119999999N0000001N9-01331+99999099201ADDGF100991999999999999999999
0029029600999991902011206004+61183+022617FM-12+005199999V0201101N001019999999N0000001N9-01391+99999099961ADDGF108991999999999999999999
0029029600999991902011213004+61183+022617FM-12+005199999V0201401N001019999999N0000001N9-01111+99999100181ADDGF101991999999999999999999
0029029600999991902011220004+61183+022617FM-12+005199999V0201601N002119999999N0000001N9-01501+99999099751ADDGF104991999999999999999999
0029029600999991902011306004+61183+022617FM-12+005199999V0200901N004119999999N0000001N9-00721+99999098821ADDGF108991999999999999999999
0035029600999991902011313004+61183+022617FM-12+005199999V0201101N004119999999N0000001N9-00611+99999098701ADDGF108991999999999999999999MW1721
0029029600999991902011320004+61183+022617FM-12+005199999V0201101N005119999999N0000001N9-00781+99999099021ADDGF108991999999999999999999
0035029600999991902011406004+61183+022617FM-12+005199999V0203601N003119999999N0000001N9-01061+99999099641ADDGF108991999999999999999999MW1721
0029029600999991902011413004+61183+022617FM-12+005199999V0203601N007219999999N0000001N9-01111+99999100401ADDGF108991999999999999999999
0029029600999991902011420004+61183+022617FM-12+005199999V0203201N003119999999N0000001N9-01941+99999101201ADDGF100991999999999999999999
0029029600999991902011506004+61183+022617FM-12+005199999V0203401N001019999999N0000001N9-03001+99999101751ADDGF100991999999999999999999
0029029600999991902011513004+61183+022617FM-12+005199999V0201401N004119999999N0000001N9-01891+99999101381ADDGF106991999999999999999999
0035029600999991902011520004+61183+022617FM-12+005199999V0202001N010819999999N0000001N9-00611+99999099621ADDGF108991999999999999999999MW1721
0029029600999991902011606004+61183+022617FM-12+005199999V0202301N004119999999N0000001N9-00061+99999096942ADDGF108991999999999999999999
0029029600999991902011613004+61183+022617FM-12+005199999V0203201N009819999999N0000001N9+00171+99999097341ADDGF108991999999999999999999
0029029600999991902011620004+61183+022617FM-12+005199999V0203201N007219999999N0000001N9-00331+99999098681ADDGF102991999999999999999999
0029029600999991902011706004+61183+022617FM-12+005199999V0202901N009819999999N0000001N9-00281+99999099401ADDGF108991999999999999999999
0029029600999991902011713004+61183+022617FM-12+005199999V0202701N005119999999N0000001N9-00501+99999099751ADDGF101991999999999999999999
0029029600999991902011720004+61183+022617FM-12+005199999V0202901N001019999999N0000001N9-01501+99999999999ADDGF100991999999999999999999
0029029600999991902011806004+61183+022617FM-12+005199999V0203201N002119999999N0000001N9-01561+99999100281ADDGF106991999999999999999999
0029029600999991902011813004+61183+022617FM-12+005199999V0203201N006219999999N0000001N9-01441+99999100741ADDGF100991999999999999999999
0029029600999991902011820004+61183+022617FM-12+005199999V0203201N005119999999N0000001N9-01501+99999101391ADDGF100991999999999999999999
0029029600999991902011906004+61183+022617FM-12+005199999V0201401N001019999999N0000001N9-02891+99999101741ADDGF101991999999999999999999
0029029600999991902011913004+61183+022617FM-12+005199999V0201801N003119999999N0000001N9-01561+99999101381ADDGF108991999999999999999999
0035029600999991902011920004+61183+022617FM-12+005199999V0201601N008719999999N0000001N9-01061+99999100341ADDGF108991999999999999999999MW1721
0035029600999991902012006004+61183+022617FM-12+005199999V0201801N007219999999N0000001N9-00441+99999098381ADDGF108991999999999999999999MW1721
0035029600999991902012013004+61183+022617FM-12+005199999V0202301N004119999999N0000001N9+00171+99999097301ADDGF108991999999999999999999MW1621
0035029600999991902012020004+61183+022617FM-12+005199999V0202901N008719999999N0000001N9+00001+99999097311ADDGF108991999999999999999999MW1721
0029029600999991902012106004+61183+022617FM-12+005199999V0202701N009819999999N0000001N9-00111+99999097631ADDGF108991999999999999999999
0035029600999991902012113004+61183+022617FM-12+005199999V0203601N008719999999N0000001N9-00781+99999098661ADDGF108991999999999999999999MW1721
0029029600999991902012120004+61183+022617FM-12+005199999V0203201N006219999999N0000001N9-01331+99999099801ADDGF106991999999999999999999
0029029600999991902012206004+61183+022617FM-12+005199999V0203601N004119999999N0000001N9-01781+99999100791ADDGF100991999999999999999999
0029029600999991902012213004+61183+022617FM-12+005199999V0203201N001019999999N0000001N9-01941+99999101191ADDGF100991999999999999999999
0029029600999991902012220004+61183+022617FM-12+005199999V0201601N008219999999N0000001N9-01391+99999100751ADDGF108991999999999999999999
0029029600999991902012306004+61183+022617FM-12+005199999V0202301N004119999999N0000001N9-00331+99999100381ADDGF104991999999999999999999
0029029600999991902012313004+61183+022617FM-12+005199999V0202001N003119999999N0000001N9-00281+99999100431ADDGF108991999999999999999999
0029029600999991902012320004+61183+022617FM-12+005199999V0201801N007219999999N0000001N9-00171+99999099991ADDGF108991999999999999999999
0029029600999991902012406004+61183+022617FM-12+005199999V0202301N004119999999N0000001N9+00171+99999099391ADDGF108991999999999999999999
0035029600999991902012413004+61183+022617FM-12+005199999V0202301N004119999999N0000001N9+00221+99999099391ADDGF108991999999999999999999MW1621
0029029600999991902012420004+61183+022617FM-12+005199999V0202001N006219999999N0000001N9+00221+99999099341ADDGF108991999999999999999999
0035029600999991902012506004+61183+022617FM-12+005199999V0201801N006219999999N0000001N9+00111+99999099021ADDGF108991999999999999999999MW1621
0035029600999991902012513004+61183+022617FM-12+005199999V0201801N006219999999N0000001N9+00111+99999098631ADDGF108991999999999999999999MW1621
0035029600999991902012520004+61183+022617FM-12+005199999V0201801N008219999999N0000001N9+00111+99999098461ADDGF108991999999999999999999MW1621
0035029600999991902012606004+61183+022617FM-12+005199999V0201801N007219999999N0000001N9+00061+99999098111ADDGF108991999999999999999999MW1721
0035029600999991902012613004+61183+022617FM-12+005199999V0201801N005119999999N0000001N9+00111+99999098081ADDGF108991999999999999999999MW1721
0035029600999991902012620004+61183+022617FM-12+005199999V0202001N004119999999N0000001N9+00061+99999098101ADDGF108991999999999999999999MW1721
0029029600999991902012706004+61183+022617FM-12+005199999V0201801N006219999999N0000001N9-00061+99999098161ADDGF108991999999999999999999
0035029600999991902012713004+61183+022617FM-12+005199999V0201601N004119999999N0000001N9+00061+99999098341ADDGF106991999999999999999999MW1721
0035029600999991902012720004+61183+022617FM-12+005199999V0202001N005119999999N0000001N9-00111+99999098801ADDGF108991999999999999999999MW1721
0035029600999991902012806004+61183+022617FM-12+005199999V0201601N008219999999N0000001N9-00111+99999098471ADDGF108991999999999999999999MW1721
0029029600999991902012813004+61183+022617FM-12+005199999V0201601N006219999999N0000001N9-00331+99999098871ADDGF102991999999999999999999
0029029600999991902012820004+61183+022617FM-12+005199999V0201801N004119999999N0000001N9-01001+99999099471ADDGF101991999999999999999999
0029029600999991902012906004+61183+022617FM-12+005199999V0202001N003119999999N0000001N9-00331+99999099711ADDGF104991999999999999999999
0029029600999991902012913004+61183+022617FM-12+005199999V0201101N001019999999N0000001N9-00611+99999100191ADDGF101991999999999999999999
0029029600999991902012920004+61183+022617FM-12+005199999V0201101N006219999999N0000001N9-00561+99999100961ADDGF108991999999999999999999
0029029600999991902013006004+61183+022617FM-12+005199999V0201101N004119999999N0000001N9-00671+99999101751ADDGF105991999999999999999999
0029029600999991902013013004+61183+022617FM-12+005199999V0203401N003119999999N0000001N9-00941+99999102221ADDGF101991999999999999999999
0029029600999991902013020004+61183+022617FM-12+005199999V0203201N003119999999N0000001N9-01561+99999102751ADDGF100991999999999999999999
0029029600999991902013106004+61183+022617FM-12+005199999V0202901N002119999999N0000001N9-01781+99999103261ADDGF100991999999999999999999
0029029600999991902013113004+61183+022617FM-12+005199999V0202901N003119999999N0000001N9-01391+99999103721ADDGF100991999999999999999999
0029029600999991902013120004+61183+022617FM-12+005199999V0201101N001019999999N0000001N9-02281+99999104021ADDGF100991999999999999999999
0029029600999991902020106004+61183+022617FM-12+005199999V0201801N003119999999N0000001N9-00781+99999103621ADDGF108991999999999999999999
0029029600999991902020113004+61183+022617FM-12+005199999V0202301N005119999999N0000001N9-00111+99999103321ADDGF108991999999999999999999
0029029600999991902020120004+61183+022617FM-12+005199999V0202301N004119999999N0000001N9-00171+99999103071ADDGF101991999999999999999999
0029029600999991902020206004+61183+022617FM-12+005199999V0202701N004119999999N0000001N9-00281+99999102621ADDGF102991999999999999999999
0029029600999991902020213004+61183+022617FM-12+005199999V0202501N004119999999N0000001N9-00111+99999102271ADDGF105991999999999999999999
0029029600999991902020220004+61183+022617FM-12+005199999V0202501N001019999999N0000001N9-00891+99999101781ADDGF101991999999999999999999
0029029600999991902020306004+61183+022617FM-12+005199999V0203401N005119999999N0000001N9-00111+99999100841ADDGF108991999999999999999999
0029029600999991902020313004+61183+022617FM-12+005199999V0203401N005119999999N0000001N9-00501+99999101081ADDGF101991999999999999999999
0029029600999991902020320004+61183+022617FM-12+005199999V0202701N004119999999N0000001N9-01221+99999100961ADDGF100991999999999999999999
0029029600999991902020406004+61183+022617FM-12+005199999V0200901N001019999999N0000001N9-01331+99999100221ADDGF108991999999999999999999
0029029600999991902020413004+61183+022617FM-12+005199999V0200901N001019999999N0000001N9-01331+99999100181ADDGF101991999999999999999999
0029029600999991902020420004+61183+022617FM-12+005199999V0203201N003119999999N0000001N9-01941+99999100401ADDGF100991999999999999999999
0029029600999991902020506004+61183+022617FM-12+005199999V0201401N002119999999N0000001N9-03001+99999100601ADDGF101991999999999999999999
0029029600999991902020513004+61183+022617FM-12+005199999V0200701N001019999999N0000001N9-01891+99999100681ADDGF102991999999999999999999
0029029600999991902020520004+61183+022617FM-12+005199999V0201401N002119999999N0000001N9-02171+99999100781ADDGF100991999999999999999999
0035029600999991902020606004+61183+022617FM-12+005199999V0201401N002119999999N0000001N9-01281+99999100761ADDGF108991999999999999999999MW1721
0029029600999991902020613004+61183+022617FM-12+005199999V0201601N005119999999N0000001N9-01001+99999100681ADDGF108991999999999999999999
0035029600999991902020620004+61183+022617FM-12+005199999V0201601N010819999999N0000001N9-00671+99999100281ADDGF108991999999999999999999MW1721
0029029600999991902020706004+61183+022617FM-12+005199999V0201101N007219999999N0000001N9-01001+99999099511ADDGF108991999999999999999999
0035029600999991902020713004+61183+022617FM-12+005199999V0201101N005119999999N0000001N9-00891+99999098941ADDGF108991999999999999999999MW1721
0029029600999991902020720004+61183+022617FM-12+005199999V0201401N003119999999N0000001N9-00781+99999098481ADDGF108991999999999999999999
0029029600999991902020806004+61183+022617FM-12+005199999V0203601N002119999999N0000001N9-00891+99999098241ADDGF108991999999999999999999
0029029600999991902020813004+61183+022617FM-12+005199999V0200501N001019999999N0000001N9-00721+99999098431ADDGF108991999999999999999999
0035029600999991902020820004+61183+022617FM-12+005199999V0201101N002119999999N0000001N9-00781+99999098501ADDGF108991999999999999999999MW1721
0029029600999991902020906004+61183+022617FM-12+005199999V0202301N003119999999N0000001N9-00561+99999098591ADDGF108991999999999999999999
0029029600999991902020913004+61183+022617FM-12+005199999V0201101N002119999999N0000001N9-00441+99999098511ADDGF108991999999999999999999
0029029600999991902020920004+61183+022617FM-12+005199999V0202701N006219999999N0000001N9-01781+99999098671ADDGF100991999999999999999999
0029029600999991902021006004+61183+022617FM-12+005199999V0202701N001019999999N0000001N9-01561+99999099261ADDGF108991999999999999999999
0035029600999991902021013004+61183+022617FM-12+005199999V0201401N002119999999N0000001N9-01171+99999099341ADDGF108991999999999999999999MW1721
0029029600999991902021020004+61183+022617FM-12+005199999V0200701N002119999999N0000001N9-01331+99999099381ADDGF108991999999999999999999
0035029600999991902021106004+61183+022617FM-12+005199999V0200701N003119999999N0000001N9-01331+99999099381ADDGF108991999999999999999999MW1721
0029029600999991902021113004+61183+022617FM-12+005199999V0200701N001019999999N0000001N9-00891+99999099391ADDGF108991999999999999999999
0029029600999991902021120004+61183+022617FM-12+005199999V0209991C000019999999N0000001N9-01061+99999099901ADDGF108991999999999999999999
0029029600999991902021206004+61183+022617FM-12+005199999V0201101N002119999999N0000001N9-01221+99999099941ADDGF108991999999999999999999
0035029600999991902021213004+61183+022617FM-12+005199999V0201601N008219999999N0000001N9-00561+99999099401ADDGF108991999999999999999999MW1721
0029029600999991902021220004+61183+022617FM-12+005199999V0202001N005119999999N0000001N9-00831+99999099261ADDGF108991999999999999999999
0029029600999991902021306004+61183+022617FM-12+005199999V0201801N002119999999N0000001N9-01561+99999099431ADDGF106991999999999999999999
0029029600999991902021313004+61183+022617FM-12+005199999V0202501N003119999999N0000001N9-00671+99999099381ADDGF108991999999999999999999
0029029600999991902021320004+61183+022617FM-12+005199999V0202901N003119999999N0000001N9-01061+99999099761ADDGF108991999999999999999999
0029029600999991902021406004+61183+022617FM-12+005199999V0201801N002119999999N0000001N9-01671+99999100191ADDGF100991999999999999999999
0029029600999991902021413004+61183+022617FM-12+005199999V0202301N004119999999N0000001N9-00941+99999100381ADDGF100991999999999999999999
0029029600999991902021420004+61183+022617FM-12+005199999V0201801N003119999999N0000001N9-01441+99999100501ADDGF100991999999999999999999
0029029600999991902021506004+61183+022617FM-12+005199999V0202301N006219999999N0000001N9-01221+99999100561ADDGF101991999999999999999999
0029029600999991902021513004+61183+022617FM-12+005199999V0202301N003119999999N0000001N9-00561+99999100951ADDGF100991999999999999999999
0029029600999991902021520004+61183+022617FM-12+005199999V0202001N005119999999N0000001N9-00891+99999100791ADDGF108991999999999999999999
0029029600999991902021606004+61183+022617FM-12+005199999V0202301N008219999999N0000001N9-00221+99999100431ADDGF103991999999999999999999
0029029600999991902021613004+61183+022617FM-12+005199999V0202301N007219999999N0000001N9+00111+99999100581ADDGF108991999999999999999999
0029029600999991902021620004+61183+022617FM-12+005199999V0202501N014919999999N0000001N9+00061+99999100351ADDGF108991999999999999999999
0029029600999991902021706004+61183+022617FM-12+005199999V0202501N011819999999N0000001N9+00111+99999100581ADDGF108991999999999999999999
0029029600999991902021713004+61183+022617FM-12+005199999V0202701N008219999999N0000001N9+00221+99999101181ADDGF108991999999999999999999
0029029600999991902021720004+61183+022617FM-12+005199999V0203601N003119999999N0000001N9-00391+99999102181ADDGF108991999999999999999999
0029029600999991902021806004+61183+022617FM-12+005199999V0201101N004119999999N0000001N9-01001+99999102881ADDGF108991999999999999999999
0029029600999991902021813004+61183+022617FM-12+005199999V0201801N002119999999N0000001N9-00441+99999102921ADDGF100991999999999999999999
0029029600999991902021820004+61183+022617FM-12+005199999V0201801N004119999999N0000001N9-00671+99999102741ADDGF108991999999999999999999
0029029600999991902021906004+61183+022617FM-12+005199999V0200901N002119999999N0000001N9-00561+99999102671ADDGF108991999999999999999999
0029029600999991902021913004+61183+022617FM-12+005199999V0200901N004119999999N0000001N9-00561+99999102841ADDGF108991999999999999999999
0029029600999991902021920004+61183+022617FM-12+005199999V0200901N001019999999N0000001N9-01061+99999102991ADDGF106991999999999999999999
0029029600999991902022006004+61183+022617FM-12+005199999V0201401N003119999999N0000001N9-01441+99999102821ADDGF108991999999999999999999
0029029600999991902022013004+61183+022617FM-12+005199999V0202001N005119999999N0000001N9-00561+99999102441ADDGF108991999999999999999999
0029029600999991902022020004+61183+022617FM-12+005199999V0202301N004119999999N0000001N9-00671+99999102191ADDGF108991999999999999999999
0029029600999991902022106004+61183+022617FM-12+005199999V0202301N005119999999N0000001N9-00611+99999101761ADDGF108991999999999999999999
0029029600999991902022113004+61183+022617FM-12+005199999V0202301N004119999999N0000001N9-00221+99999101621ADDGF108991999999999999999999
0029029600999991902022120004+61183+022617FM-12+005199999V0201801N004119999999N0000001N9-00781+99999101461ADDGF100991999999999999999999
0029029600999991902022206004+61183+022617FM-12+005199999V0202301N007219999999N0000001N9-00501+99999101001ADDGF108991999999999999999999
0029029600999991902022213004+61183+022617FM-12+005199999V0202301N010819999999N0000001N9-00061+99999101121ADDGF108991999999999999999999
0029029600999991902022220004+61183+022617FM-12+005199999V0202301N006219999999N0000001N9-00221+99999101271ADDGF106991999999999999999999
0029029600999991902022306004+61183+022617FM-12+005199999V0202301N005119999999N0000001N9-00221+99999101551ADDGF108991999999999999999999
0029029600999991902022313004+61183+022617FM-12+005199999V0202301N004119999999N0000001N9+00001+99999101781ADDGF108991999999999999999999
0029029600999991902022320004+61183+022617FM-12+005199999V0202001N005119999999N0000001N9-00281+99999101801ADDGF108991999999999999999999
0029029600999991902022406004+61183+022617FM-12+005199999V0202001N005119999999N0000001N9-00441+99999101581ADDGF108991999999999999999999
0029029600999991902022413004+61183+022617FM-12+005199999V0202001N005119999999N0000001N9-00111+99999101381ADDGF108991999999999999999999
0029029600999991902022420004+61183+022617FM-12+005199999V0202001N004119999999N0000001N9-00281+99999101281ADDGF108991999999999999999999
0029029600999991902022506004+61183+022617FM-12+005199999V0201801N004119999999N0000001N9-00441+99999101381ADDGF108991999999999999999999
0029029600999991902022513004+61183+022617FM-12+005199999V0202001N003119999999N0000001N9-00061+99999101461ADDGF108991999999999999999999
0029029600999991902022520004+61183+022617FM-12+005199999V0202001N002119999999N0000001N9-00221+99999101521ADDGF108991999999999999999999
0029029600999991902022606004+61183+022617FM-12+005199999V0201401N001019999999N0000001N9-00561+99999101641ADDGF108991999999999999999999
0029029600999991902022613004+61183+022617FM-12+005199999V0200701N003119999999N0000001N9-00331+99999101661ADDGF100991999999999999999999
0029029600999991902022620004+61183+022617FM-12+005199999V0200501N002119999999N0000001N9-00831+99999101641ADDGF100991999999999999999999
0029029600999991902022706004+61183+022617FM-12+005199999V0201401N005119999999N0000001N9-00781+99999101521ADDGF108991999999999999999999
0035029600999991902022713004+61183+022617FM-12+005199999V0201401N005119999999N0000001N9-00281+99999101441ADDGF108991999999999999999999MW1721
0035029600999991902022720004+61183+022617FM-12+005199999V0201401N004119999999N0000001N9-00391+99999101221ADDGF108991999999999999999999MW1721
0029029600999991902022806004+61183+022617FM-12+005199999V0201401N003119999999N0000001N9-00331+99999100881ADDGF108991999999999999999999
0035029600999991902022813004+61183+022617FM-12+005199999V0201401N005119999999N0000001N9-00221+99999100721ADDGF108991999999999999999999MW1721
0035029600999991902022820004+61183+022617FM-12+005199999V0201401N004119999999N0000001N9-00221+99999100591ADDGF108991999999999999999999MW1721
0029029600999991902030106004+61183+022617FM-12+005199999V0201601N005119999999N0000001N9-00061+99999100601ADDGF108991999999999999999999
0029029600999991902030113004+61183+022617FM-12+005199999V0201601N003119999999N0000001N9+00171+99999100661ADDGF108991999999999999999999
0035029600999991902030120004+61183+022617FM-12+005199999V0201801N003119999999N0000001N9+00061+99999100681ADDGF108991999999999999999999MW1721
0029029600999991902030206004+61183+022617FM-12+005199999V0201401N001019999999N0000001N9+00061+99999100681ADDGF108991999999999999999999
0029029600999991902030213004+61183+022617FM-12+005199999V0200901N002119999999N0000001N9+00221+99999100761ADDGF108991999999999999999999
0035029600999991902030220004+61183+022617FM-12+005199999V0200501N005119999999N0000001N9-00061+99999100961ADDGF108991999999999999999999MW1721
0029029600999991902030306004+61183+022617FM-12+005199999V0200501N007219999999N0000001N9-00441+99999101241ADDGF108991999999999999999999
0029029600999991902030313004+61183+022617FM-12+005199999V0200501N005119999999N0000001N9-00331+99999101461ADDGF108991999999999999999999
0029029600999991902030320004+61183+022617FM-12+005199999V0200501N004119999999N0000001N9-00671+99999101711ADDGF108991999999999999999999
0029029600999991902030406004+61183+022617FM-12+005199999V0203601N003119999999N0000001N9-00781+99999101901ADDGF108991999999999999999999
0035029600999991902030413004+61183+022617FM-12+005199999V0203601N001019999999N0000001N9-00561+99999102071ADDGF108991999999999999999999MW1721
0029029600999991902030420004+61183+022617FM-12+005199999V0200701N002119999999N0000001N9-00671+99999102181ADDGF108991999999999999999999
0029029600999991902030506004+61183+022617FM-12+005199999V0200901N004119999999N0000001N9-00891+99999101961ADDGF108991999999999999999999
0035029600999991902030513004+61183+022617FM-12+005199999V0201601N010819999999N0000001N9-00441+99999101591ADDGF108991999999999999999999MW1721
0035029600999991902030520004+61183+022617FM-12+005199999V0201601N008219999999N0000001N9-00441+99999100981ADDGF108991999999999999999999MW1721
0035029600999991902030606004+61183+022617FM-12+005199999V0202001N005119999999N0000001N9+00001+99999100111ADDGF108991999999999999999999MW1621
0035029600999991902030613004+61183+022617FM-12+005199999V0202501N004119999999N0000001N9+00171+99999099821ADDGF108991999999999999999999MW1621
0029029600999991902030620004+61183+022617FM-12+005199999V0202501N003119999999N0000001N9-00061+99999099761ADDGF108991999999999999999999
0029029600999991902030706004+61183+022617FM-12+005199999V0202301N001019999999N0000001N9+00061+99999099401ADDGF108991999999999999999999
0035029600999991902030713004+61183+022617FM-12+005199999V0201801N002119999999N0000001N9+00221+99999099201ADDGF108991999999999999999999MW1721
0035029600999991902030720004+61183+022617FM-12+005199999V0200501N006219999999N0000001N9-00171+99999099151ADDGF108991999999999999999999MW1721
0035029600999991902030806004+61183+022617FM-12+005199999V0200701N008219999999N0000001N9-01001+99999099481ADDGF108991999999999999999999MW1721
0035029600999991902030813004+61183+022617FM-12+005199999V0200501N008219999999N0000001N9-01111+99999099621ADDGF108991999999999999999999MW1721
0029029600999991902030820004+61183+022617FM-12+005199999V0200701N006219999999N0000001N9-01391+99999099741ADDGF108991999999999999999999
0035029600999991902030906004+61183+022617FM-12+005199999V0200501N008219999999N0000001N9-01561+99999099431ADDGF108991999999999999999999MW1721
0029029600999991902030913004+61183+022617FM-12+005199999V0200501N004119999999N0000001N9-01061+99999099311ADDGF104991999999999999999999
0029029600999991902030920004+61183+022617FM-12+005199999V0203601N003119999999N0000001N9-01611+99999099661ADDGF100991999999999999999999
0029029600999991902031006004+61183+022617FM-12+005199999V0209991C000019999999N0000001N9-02781+99999099831ADDGF100991999999999999999999
0029029600999991902031013004+61183+022617FM-12+005199999V0202501N005119999999N0000001N9-00721+99999099711ADDGF102991999999999999999999
0029029600999991902031020004+61183+022617FM-12+005199999V0202501N002119999999N0000001N9-01501+99999099661ADDGF100991999999999999999999
0029029600999991902031106004+61183+022617FM-12+005199999V0200501N005119999999N0000001N9-01061+99999099951ADDGF107991999999999999999999
0029029600999991902031113004+61183+022617FM-12+005199999V0200201N004119999999N0000001N9-00831+99999100421ADDGF104991999999999999999999
0029029600999991902031120004+61183+022617FM-12+005199999V0200201N005119999999N0000001N9-01721+99999100881ADDGF100991999999999999999999
0029029600999991902031206004+61183+022617FM-12+005199999V0201401N001019999999N0000001N9-03281+99999101561ADDGF100991999999999999999999
0029029600999991902031213004+61183+022617FM-12+005199999V0202701N003119999999N0000001N9-01001+99999101271ADDGF108991999999999999999999
0029029600999991902031220004+61183+022617FM-12+005199999V0202301N004119999999N0000001N9-01561+99999101471ADDGF100991999999999999999999
0029029600999991902031306004+61183+022617FM-12+005199999V0202301N002119999999N0000001N9-01061+99999101261ADDGF108991999999999999999999
0029029600999991902031313004+61183+022617FM-12+005199999V0201401N001019999999N0000001N9-00221+99999101551ADDGF102991999999999999999999
0029029600999991902031320004+61183+022617FM-12+005199999V0201801N005119999999N0000001N9-00941+99999101601ADDGF100991999999999999999999
0029029600999991902031406004+61183+022617FM-12+005199999V0201801N005119999999N0000001N9-00561+99999101061ADDGF108991999999999999999999
0035029600999991902031413004+61183+022617FM-12+005199999V0202301N008219999999N0000001N9-00171+99999100801ADDGF108991999999999999999999MW1721
0029029600999991902031420004+61183+022617FM-12+005199999V0202001N007219999999N0000001N9-00221+99999100461ADDGF108991999999999999999999
0029029600999991902031506004+61183+022617FM-12+005199999V0202001N005119999999N0000001N9-00171+99999100041ADDGF108991999999999999999999
0029029600999991902031513004+61183+022617FM-12+005199999V0202301N006219999999N0000001N9+00111+99999099821ADDGF108991999999999999999999
0029029600999991902031520004+61183+022617FM-12+005199999V0202001N003119999999N0000001N9-00061+99999099781ADDGF108991999999999999999999
0029029600999991902031606004+61183+022617FM-12+005199999V0201801N005119999999N0000001N9-00111+99999099661ADDGF108991999999999999999999
0029029600999991902031613004+61183+022617FM-12+005199999V0202301N004119999999N0000001N9+00111+99999099761ADDGF108991999999999999999999
0035029600999991902031620004+61183+022617FM-12+005199999V0202501N004119999999N0000001N9+00001+99999099681ADDGF108991999999999999999999MW1721
0029029600999991902031706004+61183+022617FM-12+005199999V0202701N006219999999N0000001N9-00561+99999099641ADDGF107991999999999999999999
0029029600999991902031713004+61183+022617FM-12+005199999V0202701N009819999999N0000001N9-00331+99999099501ADDGF100991999999999999999999
0029029600999991902031720004+61183+022617FM-12+005199999V0203601N005119999999N0000001N9-00671+99999099511ADDGF100991999999999999999999
0029029600999991902031806004+61183+022617FM-12+005199999V0203601N008219999999N0000001N9-00391+99999099841ADDGF108991999999999999999999
0029029600999991902031813004+61183+022617FM-12+005199999V0203601N003119999999N0000001N9-00281+99999100261ADDGF100991999999999999999999
0029029600999991902031820004+61183+022617FM-12+005199999V0202501N001019999999N0000001N9-00721+99999100481ADDGF108991999999999999999999
0035029600999991902031906004+61183+022617FM-12+005199999V0201601N005119999999N0000001N9-00561+99999099871ADDGF108991999999999999999999MW1721
0035029600999991902031913004+61183+022617FM-12+005199999V0202001N007219999999N0000001N9+00171+99999098861ADDGF108991999999999999999999MW1721
0029029600999991902031920004+61183+022617FM-12+005199999V0202501N005119999999N0000001N9+00171+99999098601ADDGF108991999999999999999999
0035029600999991902032006004+61183+022617FM-12+005199999V0203601N002119999999N0000001N9-00221+99999098801ADDGF108991999999999999999999MW1721
0035029600999991902032013004+61183+022617FM-12+005199999V0200501N005119999999N0000001N9-00061+99999098761ADDGF108991999999999999999999MW1721
0035029600999991902032020004+61183+022617FM-12+005199999V0200701N009819999999N0000001N9-00671+99999098241ADDGF108991999999999999999999MW1721
0029029600999991902032106004+61183+022617FM-12+005199999V0200901N004119999999N0000001N9-00941+99999098541ADDGF108991999999999999999999
0029029600999991902032113004+61183+022617FM-12+005199999V0203601N004119999999N0000001N9-01111+99999099101ADDGF108991999999999999999999
0029029600999991902032120004+61183+022617FM-12+005199999V0200901N003119999999N0000001N9-01281+99999099521ADDGF108991999999999999999999
0029029600999991902032206004+61183+022617FM-12+005199999V0200701N004119999999N0000001N9-01111+99999099761ADDGF108991999999999999999999
0035029600999991902032213004+61183+022617FM-12+005199999V0200701N006219999999N0000001N9-00611+99999099671ADDGF108991999999999999999999MW1721
0035029600999991902032220004+61183+022617FM-12+005199999V0200501N005119999999N0000001N9-00721+99999099681ADDGF108991999999999999999999MW1721
0035029600999991902032306004+61183+022617FM-12+005199999V0200701N001019999999N0000001N9-00671+99999100071ADDGF108991999999999999999999MW1721
0029029600999991902032313004+61183+022617FM-12+005199999V0200201N001019999999N0000001N9-00061+99999100621ADDGF106991999999999999999999
0029029600999991902032320004+61183+022617FM-12+005199999V0200701N001019999999N0000001N9-00501+99999100921ADDGF106991999999999999999999
0029029600999991902032406004+61183+022617FM-12+005199999V0200701N006219999999N0000001N9-00441+99999100511ADDGF108991999999999999999999
0029029600999991902032413004+61183+022617FM-12+005199999V0201401N007219999999N0000001N9+00221+99999100121ADDGF108991999999999999999999
0029029600999991902032420004+61183+022617FM-12+005199999V0201401N003119999999N0000001N9+00171+99999100061ADDGF108991999999999999999999
0035029600999991902032506004+61183+022617FM-12+005199999V0201401N003119999999N0000001N9+00171+99999099951ADDGF108991999999999999999999MW1621
0029029600999991902032513004+61183+022617FM-12+005199999V0201401N006219999999N0000001N9+00221+99999099841ADDGF108991999999999999999999
0029029600999991902032520004+61183+022617FM-12+005199999V0201401N004119999999N0000001N9+00171+99999099661ADDGF108991999999999999999999
0035029600999991902032606004+61183+022617FM-12+005199999V0201601N008719999999N0000001N9-00061+99999099401ADDGF108991999999999999999999MW1721
0035029600999991902032613004+61183+022617FM-12+005199999V0202001N007219999999N0000001N9+00001+99999099761ADDGF108991999999999999999999MW1721
0029029600999991902032620004+61183+022617FM-12+005199999V0202001N001019999999N0000001N9-00111+99999099961ADDGF108991999999999999999999
0035029600999991902032706004+61183+022617FM-12+005199999V0203401N005119999999N0000001N9-00171+99999099511ADDGF108991999999999999999999MW1721
0029029600999991902032713004+61183+022617FM-12+005199999V0203401N004119999999N0000001N9+00171+99999099621ADDGF108991999999999999999999
0029029600999991902032720004+61183+022617FM-12+005199999V0203601N004119999999N0000001N9-00221+99999999999ADDGF108991999999999999999999
0035029600999991902032806004+61183+022617FM-12+005199999V0203601N002119999999N0000001N9-00281+99999100341ADDGF108991999999999999999999MW1721
0029029600999991902032813004+61183+022617FM-12+005199999V0203201N003119999999N0000001N9-00171+99999100521ADDGF108991999999999999999999
0029029600999991902032820004+61183+022617FM-12+005199999V0203201N003119999999N0000001N9-00391+99999100471ADDGF108991999999999999999999
0029029600999991902032906004+61183+022617FM-12+005199999V0203201N005119999999N0000001N9-00441+99999100021ADDGF108991999999999999999999
0035029600999991902032913004+61183+022617FM-12+005199999V0202501N008219999999N0000001N9-00111+99999099801ADDGF108991999999999999999999MW1721
0029029600999991902032920004+61183+022617FM-12+005199999V0202301N002119999999N0000001N9-00441+99999099791ADDGF108991999999999999999999
0029029600999991902033006004+61183+022617FM-12+005199999V0202501N001019999999N0000001N9-01061+99999099871ADDGF105991999999999999999999
0029029600999991902033013004+61183+022617FM-12+005199999V0201601N004119999999N0000001N9+00281+99999999999ADDGF106991999999999999999999
0029029600999991902033020004+61183+022617FM-12+005199999V0201401N001019999999N0000001N9-00891+99999100241ADDGF100991999999999999999999
0029029600999991902033106004+61183+022617FM-12+005199999V02099999999999999999N0000001N9-01611+99999100361ADDGF100991999999999999999999
0029029600999991902033113004+61183+022617FM-12+005199999V0200501N005119999999N0000001N9+00061+99999100241ADDGF100991999999999999999999
0029029600999991902033120004+61183+022617FM-12+005199999V0203401N002119999999N0000001N9-00721+99999100221ADDGF100991999999999999999999
0029029600999991902040106004+61183+022617FM-12+005199999V0203601N001019999999N0000001N9-01281+99999100161ADDGF100991999999999999999999
0029029600999991902040113004+61183+022617FM-12+005199999V0203401N002119999999N0000001N9+00111+99999099991ADDGF103991999999999999999999
0029029600999991902040120004+61183+022617FM-12+005199999V0202301N002119999999N0000001N9-00831+99999099841ADDGF100991999999999999999999
0029029600999991902040206004+61183+022617FM-12+005199999V0200701N001019999999N0000001N9-00561+99999099541ADDGF108991999999999999999999
0029029600999991902040213004+61183+022617FM-12+005199999V0203601N002119999999N0000001N9+00111+99999099441ADDGF108991999999999999999999
0029029600999991902040220004+61183+022617FM-12+005199999V0203201N004119999999N0000001N9-00281+99999099511ADDGF108991999999999999999999
0029029600999991902040306004+61183+022617FM-12+005199999V0202701N005119999999N0000001N9-00441+99999099871ADDGF108991999999999999999999
0029029600999991902040313004+61183+022617FM-12+005199999V0203201N005119999999N0000001N9-00111+99999100221ADDGF108991999999999999999999
0029029600999991902040320004+61183+022617FM-12+005199999V0202701N001019999999N0000001N9-00941+99999100441ADDGF100991999999999999999999
0029029600999991902040406004+61183+022617FM-12+005199999V0201401N003119999999N0000001N9-00391+99999100501ADDGF108991999999999999999999
0029029600999991902040413004+61183+022617FM-12+005199999V0201601N001019999999N0000001N9+00331+99999100461ADDGF108991999999999999999999
0029029600999991902040420004+61183+022617FM-12+005199999V0200701N005119999999N0000001N9-00111+99999100441ADDGF108991999999999999999999
0029029600999991902040506004+61183+022617FM-12+005199999V0200501N006219999999N0000001N9-00721+99999100271ADDGF106991999999999999999999
0029029600999991902040513004+61183+022617FM-12+005199999V0200501N008719999999N0000001N9-00111+99999100201ADDGF106991999999999999999999
0029029600999991902040520004+61183+022617FM-12+005199999V0203401N004119999999N0000001N9-00671+99999100261ADDGF100991999999999999999999
0029029600999991902040606004+61183+022617FM-12+005199999V0202501N002119999999N0000001N9-00441+99999100181ADDGF108991999999999999999999
0029029600999991902040613004+61183+022617FM-12+005199999V0202701N008719999999N0000001N9+00171+99999100141ADDGF106991999999999999999999
0029029600999991902040620004+61183+022617FM-12+005199999V0202701N004119999999N0000001N9-00441+99999100281ADDGF100991999999999999999999
0029029600999991902040706004+61183+022617FM-12+005199999V0209991C000019999999N0000001N9-01111+99999100641ADDGF101991999999999999999999
0029029600999991902040713004+61183+022617FM-12+005199999V0203401N007219999999N0000001N9-00171+99999100901ADDGF102991999999999999999999
0029029600999991902040720004+61183+022617FM-12+005199999V0203601N001019999999N0000001N9-00781+99999101151ADDGF100991999999999999999999
0029029600999991902040806004+61183+022617FM-12+005199999V0209991C000019999999N0000001N9-01721+99999101341ADDGF100991999999999999999999
0029029600999991902040813004+61183+022617FM-12+005199999V0203601N005119999999N0000001N9-00281+99999101161ADDGF100991999999999999999999
0029029600999991902040820004+61183+022617FM-12+005199999V0202701N004119999999N0000001N9-00891+99999101041ADDGF100991999999999999999999
0029029600999991902040906004+61183+022617FM-12+005199999V0209991C000019999999N0000001N9-01831+99999101161ADDGF102991999999999999999999
0029029600999991902040913004+61183+022617FM-12+005199999V0203401N002119999999N0000001N9-00281+99999101471ADDGF101991999999999999999999
0029029600999991902040920004+61183+022617FM-12+005199999V0203401N001019999999N0000001N9-01171+99999101841ADDGF100991999999999999999999
0029029600999991902041006004+61183+022617FM-12+005199999V0209991C000019999999N0000001N9-01831+99999102361ADDGF100991999999999999999999
0029029600999991902041013004+61183+022617FM-12+005199999V0203601N002119999999N0000001N9-00171+99999102601ADDGF100991999999999999999999
0029029600999991902041020004+61183+022617FM-12+005199999V0202501N001019999999N0000001N9-00941+99999102781ADDGF100991999999999999999999
0029029600999991902041106004+61183+022617FM-12+005199999V0201101N001019999999N0000001N9-01501+99999103061ADDGF103991999999999999999999
0029029600999991902041113004+61183+022617FM-12+005199999V0202501N007219999999N0000001N9+00281+99999103021ADDGF106991999999999999999999
0029029600999991902041120004+61183+022617FM-12+005199999V0202301N002119999999N0000001N9-00671+99999102861ADDGF104991999999999999999999
0029029600999991902041206004+61183+022617FM-12+005199999V0201601N001019999999N0000001N9-00831+99999102661ADDGF100991999999999999999999
0029029600999991902041213004+61183+022617FM-12+005199999V0202501N006219999999N0000001N9+00501+99999102521ADDGF100991999999999999999999
0029029600999991902041220004+61183+022617FM-12+005199999V0202501N002119999999N0000001N9-00331+99999102461ADDGF100991999999999999999999
0029029600999991902041306004+61183+022617FM-12+005199999V0209991C000019999999N0000001N9-00941+99999102541ADDGF102991999999999999999999
0029029600999991902041313004+61183+022617FM-12+005199999V0203201N003119999999N0000001N9+00831+99999102421ADDGF103991999999999999999999
0029029600999991902041320004+61183+022617FM-12+005199999V0203201N004119999999N0000001N9+00001+99999102431ADDGF106991999999999999999999
0029029600999991902041406004+61183+022617FM-12+005199999V0203401N001019999999N0000001N9+00111+99999102631ADDGF108991999999999999999999
0029029600999991902041413004+61183+022617FM-12+005199999V0203201N001019999999N0000001N9+00721+99999102721ADDGF107991999999999999999999
0029029600999991902041420004+61183+022617FM-12+005199999V0202501N002119999999N0000001N9+00061+99999102791ADDGF100991999999999999999999
0029029600999991902041506004+61183+022617FM-12+005199999V0201401N002119999999N0000001N9-00441+99999103021ADDGF100991999999999999999999
0029029600999991902041513004+61183+022617FM-12+005199999V0202301N005119999999N0000001N9+00671+99999102981ADDGF100991999999999999999999
0029029600999991902041520004+61183+022617FM-12+005199999V0202001N003119999999N0000001N9-00111+99999102871ADDGF101991999999999999999999
0029029600999991902041606004+61183+022617FM-12+005199999V0202301N005119999999N0000001N9-00061+99999102821ADDGF105991999999999999999999
0029029600999991902041613004+61183+022617FM-12+005199999V0202301N005119999999N0000001N9+00611+99999102711ADDGF103991999999999999999999
0029029600999991902041620004+61183+022617FM-12+005199999V0201801N004119999999N0000001N9+00061+99999102421ADDGF105991999999999999999999
0029029600999991902041706004+61183+022617FM-12+005199999V0201601N005119999999N0000001N9-00111+99999102231ADDGF101991999999999999999999
0029029600999991902041713004+61183+022617FM-12+005199999V0201801N004119999999N0000001N9+00721+99999102111ADDGF100991999999999999999999
0029029600999991902041720004+61183+022617FM-12+005199999V0201401N002119999999N0000001N9-00061+99999101921ADDGF100991999999999999999999
0029029600999991902041806004+61183+022617FM-12+005199999V0201401N004119999999N0000001N9+00221+99999101581ADDGF100991999999999999999999
0029029600999991902041813004+61183+022617FM-12+005199999V0201401N005119999999N0000001N9+00671+99999101321ADDGF100991999999999999999999
0029029600999991902041820004+61183+022617FM-12+005199999V0201401N001019999999N0000001N9+00281+99999101081ADDGF105991999999999999999999
0029029600999991902041906004+61183+022617FM-12+005199999V0201801N001019999999N0000001N9+00331+99999101001ADDGF108991999999999999999999
0029029600999991902041913004+61183+022617FM-12+005199999V0202701N005119999999N0000001N9+00391+99999101271ADDGF108991999999999999999999
0029029600999991902041920004+61183+022617FM-12+005199999V0202701N005119999999N0000001N9+00171+99999101591ADDGF108991999999999999999999
0029029600999991902042006004+61183+022617FM-12+005199999V0203201N005119999999N0000001N9-00061+99999101791ADDGF101991999999999999999999
0029029600999991902042013004+61183+022617FM-12+005199999V0203601N004119999999N0000001N9+00561+99999101991ADDGF103991999999999999999999
0029029600999991902042020004+61183+022617FM-12+005199999V0200201N004119999999N0000001N9+00221+99999102311ADDGF104991999999999999999999
0029029600999991902042106004+61183+022617FM-12+005199999V0203401N002119999999N0000001N9+00111+99999102471ADDGF100991999999999999999999
0029029600999991902042113004+61183+022617FM-12+005199999V0200201N005119999999N0000001N9+00671+99999102431ADDGF100991999999999999999999
0029029600999991902042120004+61183+022617FM-12+005199999V0200701N004119999999N0000001N9+00281+99999102441ADDGF100991999999999999999999
0029029600999991902042206004+61183+022617FM-12+005199999V0200501N005119999999N0000001N9-00111+99999102621ADDGF100991999999999999999999
0029029600999991902042213004+61183+022617FM-12+005199999V0200201N002119999999N0000001N9+00331+99999102441ADDGF100991999999999999999999
0029029600999991902042220004+61183+022617FM-12+005199999V0200201N001019999999N0000001N9-00111+99999102261ADDGF103991999999999999999999
0029029600999991902042306004+61183+022617FM-12+005199999V0209991C000019999999N0000001N9-00221+99999102311ADDGF100991999999999999999999
0029029600999991902042313004+61183+022617FM-12+005199999V0201401N001019999999N0000001N9+00671+99999102151ADDGF100991999999999999999999
0029029600999991902042320004+61183+022617FM-12+005199999V0202301N002119999999N0000001N9-00061+99999101961ADDGF106991999999999999999999
0029029600999991902042406004+61183+022617FM-12+005199999V0201601N002119999999N0000001N9+00111+99999101631ADDGF107991999999999999999999
0029029600999991902042413004+61183+022617FM-12+005199999V0202001N002119999999N0000001N9+00671+99999101601ADDGF106991999999999999999999
0029029600999991902042420004+61183+022617FM-12+005199999V0209991C000019999999N0000001N9-00061+99999101591ADDGF107991999999999999999999
0029029600999991902042506004+61183+022617FM-12+005199999V0200501N001019999999N0000001N9+00281+99999101911ADDGF100991999999999999999999
0029029600999991902042513004+61183+022617FM-12+005199999V0200201N004119999999N0000001N9+00561+99999101751ADDGF100991999999999999999999
0029029600999991902042520004+61183+022617FM-12+005199999V0203601N001019999999N0000001N9-00061+99999101631ADDGF107991999999999999999999
0000029600999991902042606004+61183+022617FM-12+005199999V02099999999999999999N0000001N9-00061+99999101401
0029029600999991902042613004+61183+022617FM-12+005199999V02099999999999999999N0000001N9+00171+99999101481ADDGF101991999999999999999999
0029029600999991902042620004+61183+022617FM-12+005199999V0200501N002119999999N0000001N9-00281+99999101751ADDGF100991999999999999999999
0029029600999991902042706004+61183+022617FM-12+005199999V0200501N004119999999N0000001N9-00331+99999101881ADDGF100991999999999999999999
0029029600999991902042713004+61183+022617FM-12+005199999V0200501N007219999999N0000001N9+00061+99999101841ADDGF100991999999999999999999
0029029600999991902042720004+61183+022617FM-12+005199999V0203601N002119999999N0000001N9-00281+99999101791ADDGF100991999999999999999999
0029029600999991902042806004+61183+022617FM-12+005199999V0203601N001019999999N0000001N9-00221+99999101801ADDGF100991999999999999999999
0029029600999991902042813004+61183+022617FM-12+005199999V0202701N003119999999N0000001N9+00221+99999101591ADDGF100991999999999999999999
0029029600999991902042820004+61183+022617FM-12+005199999V0202701N003119999999N0000001N9-00221+99999101441ADDGF101991999999999999999999
0029029600999991902042906004+61183+022617FM-12+005199999V0202701N001019999999N0000001N9-00221+99999101241ADDGF101991999999999999999999
0029029600999991902042913004+61183+022617FM-12+005199999V0202301N001019999999N0000001N9+00441+99999100991ADDGF102991999999999999999999
0029029600999991902042920004+61183+022617FM-12+005199999V0203401N002119999999N0000001N9-00061+99999100741ADDGF101991999999999999999999
0029029600999991902043006004+61183+022617FM-12+005199999V0200501N001019999999N0000001N9+00061+99999100471ADDGF101991999999999999999999
0029029600999991902043013004+61183+022617FM-12+005199999V0203401N003119999999N0000001N9+00561+99999100181ADDGF105991999999999999999999
0029029600999991902043020004+61183+022617FM-12+005199999V0200201N003119999999N0000001N9+00111+99999099951ADDGF106991999999999999999999
0029029600999991902050106004+61183+022617FM-12+005199999V0200201N001019999999N0000001N9+00171+99999099721ADDGF100991999999999999999999
0029029600999991902050113004+61183+022617FM-12+005199999V0200501N002119999999N0000001N9+00611+99999099561ADDGF102991999999999999999999
0029029600999991902050120004+61183+022617FM-12+005199999V0200501N001019999999N0000001N9+00061+99999099591ADDGF101991999999999999999999
0035029600999991902050206004+61183+022617FM-12+005199999V0200501N004119999999N0000001N9+00001+99999099581ADDGF108991999999999999999999MW1721
0029029600999991902050213004+61183+022617FM-12+005199999V0200901N004119999999N0000001N9+00281+99999099701ADDGF108991999999999999999999
0029029600999991902050220004+61183+022617FM-12+005199999V0200701N001019999999N0000001N9+00221+99999099881ADDGF108991999999999999999999
0029029600999991902050306004+61183+022617FM-12+005199999V0203601N002119999999N0000001N9+00281+99999100031ADDGF108991999999999999999999
0029029600999991902050313004+61183+022617FM-12+005199999V0200701N001019999999N0000001N9+00781+99999100231ADDGF108991999999999999999999
0029029600999991902050320004+61183+022617FM-12+005199999V0200501N002119999999N0000001N9+00331+99999100281ADDGF102991999999999999999999
0029029600999991902050406004+61183+022617FM-12+005199999V0200501N003119999999N0000001N9+00391+99999100221ADDGF108991999999999999999999
0029029600999991902050413004+61183+022617FM-12+005199999V0200701N004119999999N0000001N9+01171+99999100181ADDGF106991999999999999999999
0029029600999991902050420004+61183+022617FM-12+005199999V0200701N004119999999N0000001N9+00671+99999100241ADDGF108991999999999999999999
0029029600999991902050506004+61183+022617FM-12+005199999V0200701N004119999999N0000001N9+00721+99999100261ADDGF102991999999999999999999
0029029600999991902050513004+61183+022617FM-12+005199999V0200501N001019999999N0000001N9+01221+99999100311ADDGF107991999999999999999999
0029029600999991902050520004+61183+022617FM-12+005199999V0200501N002119999999N0000001N9+00561+99999100511ADDGF108991999999999999999999
0029029600999991902050606004+61183+022617FM-12+005199999V0203601N001019999999N0000001N9+00501+99999100711ADDGF107991999999999999999999
0029029600999991902050613004+61183+022617FM-12+005199999V0200501N004119999999N0000001N9+01171+99999100801ADDGF106991999999999999999999
0029029600999991902050620004+61183+022617FM-12+005199999V0200701N005119999999N0000001N9+00501+99999101031ADDGF103991999999999999999999
0029029600999991902050706004+61183+022617FM-12+005199999V0200201N008219999999N0000001N9+00441+99999100961ADDGF103991999999999999999999
0029029600999991902050713004+61183+022617FM-12+005199999V0200201N008719999999N0000001N9+00331+99999100741ADDGF108991999999999999999999
0029029600999991902050720004+61183+022617FM-12+005199999V0203601N008219999999N0000001N9+00171+99999100561ADDGF108991999999999999999999
0035029600999991902050806004+61183+022617FM-12+005199999V0203601N007219999999N0000001N9+00111+99999100191ADDGF108991999999999999999999MW1721
0035029600999991902050813004+61183+022617FM-12+005199999V0200501N008219999999N0000001N9+00171+99999100381ADDGF108991999999999999999999MW1721
0029029600999991902050820004+61183+022617FM-12+005199999V0200201N008219999999N0000001N9+00061+99999100671ADDGF108991999999999999999999
0029029600999991902050906004+61183+022617FM-12+005199999V0200501N008219999999N0000001N9+00001+99999101031ADDGF108991999999999999999999
0029029600999991902050913004+61183+022617FM-12+005199999V0200201N007219999999N0000001N9+00331+99999101241ADDGF108991999999999999999999
0029029600999991902050920004+61183+022617FM-12+005199999V0200501N006219999999N0000001N9+00111+99999101271ADDGF108991999999999999999999
0029029600999991902051006004+61183+022617FM-12+005199999V0200501N007219999999N0000001N9+00221+99999101081ADDGF108991999999999999999999
0029029600999991902051013004+61183+022617FM-12+005199999V0200501N007219999999N0000001N9+00441+99999101001ADDGF108991999999999999999999
0029029600999991902051020004+61183+022617FM-12+005199999V0200501N003119999999N0000001N9+00171+99999100901ADDGF108991999999999999999999
0029029600999991902051106004+61183+022617FM-12+005199999V0200201N005119999999N0000001N9+00221+99999100481ADDGF108991999999999999999999
0029029600999991902051113004+61183+022617FM-12+005199999V0200501N001019999999N0000001N9+00671+99999100381ADDGF108991999999999999999999
0029029600999991902051120004+61183+022617FM-12+005199999V0202701N002119999999N0000001N9+00331+99999100361ADDGF108991999999999999999999
0029029600999991902051206004+61183+022617FM-12+005199999V0202301N003119999999N0000001N9+00331+99999100351ADDGF108991999999999999999999
0029029600999991902051213004+61183+022617FM-12+005199999V0202501N002119999999N0000001N9+00781+99999100321ADDGF108991999999999999999999
0029029600999991902051220004+61183+022617FM-12+005199999V0202701N004119999999N0000001N9+00331+99999100421ADDGF107991999999999999999999
0029029600999991902051306004+61183+022617FM-12+005199999V0202701N002119999999N0000001N9-00171+99999100541ADDGF108991999999999999999999
0029029600999991902051313004+61183+022617FM-12+005199999V0203401N002119999999N0000001N9+00781+99999100541ADDGF105991999999999999999999
0029029600999991902051320004+61183+022617FM-12+005199999V0202701N003119999999N0000001N9+00441+99999100591ADDGF106991999999999999999999
0029029600999991902051406004+61183+022617FM-12+005199999V0201401N004119999999N0000001N9+00831+99999100721ADDGF100991999999999999999999
0029029600999991902051413004+61183+022617FM-12+005199999V0201801N006219999999N0000001N9+01111+99999100681ADDGF108991999999999999999999
0029029600999991902051420004+61183+022617FM-12+005199999V0200901N005119999999N0000001N9+00671+99999100641ADDGF108991999999999999999999
0029029600999991902051506004+61183+022617FM-12+005199999V0201401N004119999999N0000001N9+00611+99999100441ADDGF108991999999999999999999
0029029600999991902051513004+61183+022617FM-12+005199999V0200901N005119999999N0000001N9+01061+99999100631ADDGF108991999999999999999999
0029029600999991902051520004+61183+022617FM-12+005199999V0200501N004119999999N0000001N9+00671+99999100481ADDGF108991999999999999999999
0035029600999991902051606004+61183+022617FM-12+005199999V0201401N006219999999N0000001N9+00831+99999099801ADDGF108991999999999999999999MW1621
0029029600999991902051613004+61183+022617FM-12+005199999V0202301N003119999999N0000001N9+00781+99999100351ADDGF108991999999999999999999
0029029600999991902051620004+61183+022617FM-12+005199999V0200901N003119999999N0000001N9+00441+99999100381ADDGF108991999999999999999999
0035029600999991902051706004+61183+022617FM-12+005199999V0200201N003119999999N0000001N9+00281+99999099841ADDGF108991999999999999999999MW1621
0029029600999991902051713004+61183+022617FM-12+005199999V0201601N006219999999N0000001N9+00781+99999099721ADDGF108991999999999999999999
0029029600999991902051720004+61183+022617FM-12+005199999V0200901N005119999999N0000001N9+00611+99999099841ADDGF108991999999999999999999
0035029600999991902051806004+61183+022617FM-12+005199999V0200901N008219999999N0000001N9+00891+99999099791ADDGF108991999999999999999999MW1621
0029029600999991902051813004+61183+022617FM-12+005199999V0200901N007219999999N0000001N9+01111+99999099901ADDGF108991999999999999999999
0029029600999991902051820004+61183+022617FM-12+005199999V0200701N004119999999N0000001N9+01001+99999099791ADDGF108991999999999999999999
0029029600999991902051906004+61183+022617FM-12+005199999V0200701N008219999999N0000001N9+01001+99999099751ADDGF100991999999999999999999
0029029600999991902051913004+61183+022617FM-12+005199999V0200701N008719999999N0000001N9+01171+99999099751ADDGF102991999999999999999999
0029029600999991902051920004+61183+022617FM-12+005199999V0200701N006219999999N0000001N9+00721+99999099901ADDGF102991999999999999999999
0029029600999991902052006004+61183+022617FM-12+005199999V0200501N005119999999N0000001N9+00781+99999100151ADDGF102991999999999999999999
0029029600999991902052013004+61183+022617FM-12+005199999V0200701N004119999999N0000001N9+01171+99999100141ADDGF102991999999999999999999
0029029600999991902052020004+61183+022617FM-12+005199999V0200901N001019999999N0000001N9+00781+99999100261ADDGF102991999999999999999999
0029029600999991902052106004+61183+022617FM-12+005199999V0209991C000019999999N0000001N9+01221+99999100441ADDGF100991999999999999999999
0029029600999991902052113004+61183+022617FM-12+005199999V0202701N006219999999N0000001N9+01441+99999100671ADDGF102991999999999999999999
0029029600999991902052120004+61183+022617FM-12+005199999V0202701N003119999999N0000001N9+00671+99999101021ADDGF100991999999999999999999
0029029600999991902052206004+61183+022617FM-12+005199999V0203401N001019999999N0000001N9+00831+99999101401ADDGF100991999999999999999999
0029029600999991902052213004+61183+022617FM-12+005199999V0200501N003119999999N0000001N9+01441+99999101481ADDGF104991999999999999999999
0029029600999991902052220004+61183+022617FM-12+005199999V0200501N002119999999N0000001N9+00941+99999101581ADDGF100991999999999999999999
0029029600999991902052306004+61183+022617FM-12+005199999V0200501N006219999999N0000001N9+01001+99999101711ADDGF102991999999999999999999
0029029600999991902052313004+61183+022617FM-12+005199999V0200201N006219999999N0000001N9+01221+99999101351ADDGF106991999999999999999999
0029029600999991902052320004+61183+022617FM-12+005199999V0200701N001019999999N0000001N9+00831+99999100981ADDGF100991999999999999999999
0029029600999991902052406004+61183+022617FM-12+005199999V0202001N003119999999N0000001N9+01111+99999100661ADDGF100991999999999999999999
0029029600999991902052413004+61183+022617FM-12+005199999V0202301N008719999999N0000001N9+01221+99999100401ADDGF108991999999999999999999
0029029600999991902052420004+61183+022617FM-12+005199999V0202301N006219999999N0000001N9+00891+99999100461ADDGF108991999999999999999999
0029029600999991902052506004+61183+022617FM-12+005199999V0202701N003119999999N0000001N9+01061+99999100871ADDGF100991999999999999999999
0029029600999991902052513004+61183+022617FM-12+005199999V0202301N004119999999N0000001N9+01721+99999100781ADDGF103991999999999999999999
0029029600999991902052520004+61183+022617FM-12+005199999V0201801N007219999999N0000001N9+01111+99999100381ADDGF108991999999999999999999
0029029600999991902052606004+61183+022617FM-12+005199999V0202001N004119999999N0000001N9+00721+99999099551ADDGF108991999999999999999999
0029029600999991902052613004+61183+022617FM-12+005199999V0202301N008719999999N0000001N9+01331+99999099471ADDGF105991999999999999999999
0029029600999991902052620004+61183+022617FM-12+005199999V0202301N003119999999N0000001N9+00781+99999099521ADDGF102991999999999999999999
0029029600999991902052706004+61183+022617FM-12+005199999V0202501N005119999999N0000001N9+01001+99999099781ADDGF101991999999999999999999
0029029600999991902052713004+61183+022617FM-12+005199999V0202301N007219999999N0000001N9+01281+99999099861ADDGF102991999999999999999999
0029029600999991902052720004+61183+022617FM-12+005199999V0202001N006219999999N0000001N9+00831+99999099661ADDGF107991999999999999999999
0035029600999991902052806004+61183+022617FM-12+005199999V0202001N004119999999N0000001N9+00831+99999099581ADDGF108991999999999999999999MW1621
0029029600999991902052813004+61183+022617FM-12+005199999V0202301N005119999999N0000001N9+01501+99999099901ADDGF104991999999999999999999
0029029600999991902052820004+61183+022617FM-12+005199999V0201801N005119999999N0000001N9+01001+99999100081ADDGF108991999999999999999999
0029029600999991902052906004+61183+022617FM-12+005199999V0201801N004119999999N0000001N9+01221+99999100191ADDGF102991999999999999999999
0029029600999991902052913004+61183+022617FM-12+005199999V0201801N005119999999N0000001N9+01671+99999100281ADDGF105991999999999999999999
0029029600999991902052920004+61183+022617FM-12+005199999V0202001N004119999999N0000001N9+01331+99999100381ADDGF108991999999999999999999
0029029600999991902053006004+61183+022617FM-12+005199999V0202701N005119999999N0000001N9+01441+99999101121ADDGF101991999999999999999999
0029029600999991902053013004+61183+022617FM-12+005199999V0202501N007219999999N0000001N9+01671+99999101551ADDGF102991999999999999999999
0029029600999991902053020004+61183+022617FM-12+005199999V0202701N003119999999N0000001N9+01001+99999101841ADDGF107991999999999999999999
0029029600999991902053106004+61183+022617FM-12+005199999V0200701N004119999999N0000001N9+01061+99999101911ADDGF108991999999999999999999
0029029600999991902053113004+61183+022617FM-12+005199999V0200501N004119999999N0000001N9+01331+99999101831ADDGF108991999999999999999999
0029029600999991902053120004+61183+022617FM-12+005199999V0200901N001019999999N0000001N9+01221+99999101281ADDGF108991999999999999999999
0029029600999991902060106004+61183+022617FM-12+005199999V0200201N004119999999N0000001N9+00781+99999101421ADDGF108991999999999999999999
0029029600999991902060113004+61183+022617FM-12+005199999V0200201N006219999999N0000001N9+00831+99999101621ADDGF106991999999999999999999
0029029600999991902060120004+61183+022617FM-12+005199999V0200501N001019999999N0000001N9+01001+99999101721ADDGF102991999999999999999999
0029029600999991902060206004+61183+022617FM-12+005199999V0200501N006219999999N0000001N9+00891+99999102191ADDGF100991999999999999999999
0029029600999991902060213004+61183+022617FM-12+005199999V0200201N003119999999N0000001N9+01331+99999102221ADDGF100991999999999999999999
0029029600999991902060220004+61183+022617FM-12+005199999V0202701N002119999999N0000001N9+00941+99999102141ADDGF100991999999999999999999
0029029600999991902060306004+61183+022617FM-12+005199999V0202301N007219999999N0000001N9+01331+99999101831ADDGF100991999999999999999999
0029029600999991902060313004+61183+022617FM-12+005199999V0202701N009819999999N0000001N9+01561+99999101591ADDGF101991999999999999999999
0029029600999991902060320004+61183+022617FM-12+005199999V0202701N005119999999N0000001N9+01171+99999101741ADDGF100991999999999999999999
0029029600999991902060406004+61183+022617FM-12+005199999V0201401N001019999999N0000001N9+01331+99999102041ADDGF100991999999999999999999
0029029600999991902060413004+61183+022617FM-12+005199999V0202701N005119999999N0000001N9+02001+99999101591ADDGF107991999999999999999999
0029029600999991902060420004+61183+022617FM-12+005199999V0201801N004119999999N0000001N9+01501+99999100861ADDGF108991999999999999999999
0029029600999991902060506004+61183+022617FM-12+005199999V0203201N008219999999N0000001N9+01281+99999100161ADDGF105991999999999999999999
0029029600999991902060513004+61183+022617FM-12+005199999V0203601N006219999999N0000001N9+01391+99999100071ADDGF107991999999999999999999
0029029600999991902060520004+61183+022617FM-12+005199999V0203601N005119999999N0000001N9+00831+99999100161ADDGF100991999999999999999999
0029029600999991902060606004+61183+022617FM-12+005199999V0200201N005119999999N0000001N9+00781+99999100121ADDGF100991999999999999999999
0029029600999991902060613004+61183+022617FM-12+005199999V0203601N004119999999N0000001N9+01111+99999099901ADDGF103991999999999999999999
0029029600999991902060620004+61183+022617FM-12+005199999V0200201N004119999999N0000001N9+00671+99999099841ADDGF102991999999999999999999
0029029600999991902060706004+61183+022617FM-12+005199999V0200501N005119999999N0000001N9+00671+99999099991ADDGF107991999999999999999999
0029029600999991902060713004+61183+022617FM-12+005199999V0200501N003119999999N0000001N9+01061+99999099991ADDGF106991999999999999999999
0029029600999991902060720004+61183+022617FM-12+005199999V0202501N003119999999N0000001N9+00721+99999099911ADDGF104991999999999999999999
0029029600999991902060806004+61183+022617FM-12+005199999V0202001N002119999999N0000001N9+00831+99999099881ADDGF107991999999999999999999
0029029600999991902060813004+61183+022617FM-12+005199999V0201801N003119999999N0000001N9+01331+99999099871ADDGF107991999999999999999999
0029029600999991902060820004+61183+022617FM-12+005199999V0203201N002119999999N0000001N9+00831+99999099841ADDGF102991999999999999999999
0029029600999991902060906004+61183+022617FM-12+005199999V0200701N006219999999N0000001N9+01061+99999099641ADDGF106991999999999999999999
0035029600999991902060913004+61183+022617FM-12+005199999V0200501N007219999999N0000001N9+00721+99999099391ADDGF108991999999999999999999MW1621
0035029600999991902060920004+61183+022617FM-12+005199999V0200701N004119999999N0000001N9+00671+99999098901ADDGF108991999999999999999999MW1621
0035029600999991902061006004+61183+022617FM-12+005199999V0201601N002119999999N0000001N9+00781+99999098741ADDGF108991999999999999999999MW1621
0029029600999991902061013004+61183+022617FM-12+005199999V0202301N007219999999N0000001N9+00891+99999099361ADDGF108991999999999999999999
0029029600999991902061020004+61183+022617FM-12+005199999V0202501N003119999999N0000001N9+00561+99999099911ADDGF108991999999999999999999
0029029600999991902061106004+61183+022617FM-12+005199999V0200901N003119999999N0000001N9+00611+99999099981ADDGF108991999999999999999999
0029029600999991902061113004+61183+022617FM-12+005199999V0200201N004119999999N0000001N9+00671+99999099781ADDGF108991999999999999999999
0029029600999991902061120004+61183+022617FM-12+005199999V0202501N003119999999N0000001N9+00671+99999099861ADDGF108991999999999999999999
0029029600999991902061206004+61183+022617FM-12+005199999V0202301N003119999999N0000001N9+00891+99999100501ADDGF108991999999999999999999
0029029600999991902061213004+61183+022617FM-12+005199999V0202301N003119999999N0000001N9+01501+99999100701ADDGF106991999999999999999999
0029029600999991902061220004+61183+022617FM-12+005199999V0201401N002119999999N0000001N9+01061+99999100831ADDGF102991999999999999999999
0029029600999991902061306004+61183+022617FM-12+005199999V0202001N003119999999N0000001N9+01281+99999101121ADDGF102991999999999999999999
0029029600999991902061313004+61183+022617FM-12+005199999V0202301N003119999999N0000001N9+01781+99999101021ADDGF103991999999999999999999
0029029600999991902061320004+61183+022617FM-12+005199999V0203401N003119999999N0000001N9+01441+99999101041ADDGF103991999999999999999999
0029029600999991902061406004+61183+022617FM-12+005199999V0200701N004119999999N0000001N9+01561+99999100951ADDGF104991999999999999999999
0035029600999991902061413004+61183+022617FM-12+005199999V0200201N005119999999N0000001N9+01441+99999100631ADDGF108991999999999999999999MW1621
0035029600999991902061420004+61183+022617FM-12+005199999V0200201N005119999999N0000001N9+01171+99999100321ADDGF108991999999999999999999MW1621
0035029600999991902061506004+61183+022617FM-12+005199999V0200501N007219999999N0000001N9+01061+99999099391ADDGF108991999999999999999999MW1621
0035029600999991902061513004+61183+022617FM-12+005199999V0200501N004119999999N0000001N9+01501+99999099231ADDGF108991999999999999999999MW1621
0029029600999991902061520004+61183+022617FM-12+005199999V0201401N004119999999N0000001N9+01221+99999099431ADDGF108991999999999999999999
0029029600999991902061606004+61183+022617FM-12+005199999V0202001N002119999999N0000001N9+01171+99999099581ADDGF108991999999999999999999
0029029600999991902061613004+61183+022617FM-12+005199999V0202001N001019999999N0000001N9+01331+99999099821ADDGF108991999999999999999999
0035029600999991902061620004+61183+022617FM-12+005199999V0200501N003119999999N0000001N9+01171+99999099761ADDGF108991999999999999999999MW1621
0035029600999991902061706004+61183+022617FM-12+005199999V0203601N005119999999N0000001N9+00941+99999099671ADDGF108991999999999999999999MW1621
0035029600999991902061713004+61183+022617FM-12+005199999V0203601N005119999999N0000001N9+00891+99999999999ADDGF108991999999999999999999MW1621
0029029600999991902061720004+61183+022617FM-12+005199999V0203601N004119999999N0000001N9+00941+99999100321ADDGF102991999999999999999999
0029029600999991902061806004+61183+022617FM-12+005199999V0203201N006219999999N0000001N9+00891+99999100741ADDGF102991999999999999999999
0029029600999991902061813004+61183+022617FM-12+005199999V0202701N006219999999N0000001N9+01501+99999100871ADDGF103991999999999999999999
0029029600999991902061820004+61183+022617FM-12+005199999V0202701N002119999999N0000001N9+01391+99999101061ADDGF100991999999999999999999
0029029600999991902061906004+61183+022617FM-12+005199999V0201801N005119999999N0000001N9+01221+99999101311ADDGF101991999999999999999999
0029029600999991902061913004+61183+022617FM-12+005199999V0202001N003119999999N0000001N9+01891+99999101191ADDGF102991999999999999999999
0029029600999991902061920004+61183+022617FM-12+005199999V0202501N004119999999N0000001N9+01721+99999101201ADDGF102991999999999999999999
0029029600999991902062006004+61183+022617FM-12+005199999V0200501N003119999999N0000001N9+01501+99999101181ADDGF106991999999999999999999
0029029600999991902062013004+61183+022617FM-12+005199999V0200901N005119999999N0000001N9+01891+99999100951ADDGF104991999999999999999999
0029029600999991902062020004+61183+022617FM-12+005199999V0200501N003119999999N0000001N9+01671+99999100821ADDGF102991999999999999999999
0029029600999991902062106004+61183+022617FM-12+005199999V0200201N005119999999N0000001N9+01501+99999100661ADDGF106991999999999999999999
0029029600999991902062113004+61183+022617FM-12+005199999V0200501N008719999999N0000001N9+01671+99999100501ADDGF107991999999999999999999
0035029600999991902062120004+61183+022617FM-12+005199999V0200501N007219999999N0000001N9+01281+99999100471ADDGF108991999999999999999999MW1621
0029029600999991902062206004+61183+022617FM-12+005199999V0200501N004119999999N0000001N9+01441+99999100401ADDGF108991999999999999999999
0029029600999991902062213004+61183+022617FM-12+005199999V0200501N005119999999N0000001N9+01391+99999100581ADDGF108991999999999999999999
0029029600999991902062220004+61183+022617FM-12+005199999V0200501N005119999999N0000001N9+01171+99999100631ADDGF108991999999999999999999
0029029600999991902062306004+61183+022617FM-12+005199999V0200501N007219999999N0000001N9+01171+99999100581ADDGF107991999999999999999999
0029029600999991902062313004+61183+022617FM-12+005199999V0200501N008719999999N0000001N9+01671+99999100681ADDGF106991999999999999999999
0029029600999991902062320004+61183+022617FM-12+005199999V0200501N003119999999N0000001N9+01281+99999100911ADDGF103991999999999999999999
0029029600999991902062406004+61183+022617FM-12+005199999V0200501N005119999999N0000001N9+01221+99999101191ADDGF106991999999999999999999
0029029600999991902062413004+61183+022617FM-12+005199999V0200501N008219999999N0000001N9+01611+99999101271ADDGF103991999999999999999999
0029029600999991902062420004+61183+022617FM-12+005199999V0200501N002119999999N0000001N9+01561+99999101481ADDGF100991999999999999999999
0029029600999991902062506004+61183+022617FM-12+005199999V0200201N001019999999N0000001N9+01331+99999101751ADDGF100991999999999999999999
0029029600999991902062513004+61183+022617FM-12+005199999V0203401N001019999999N0000001N9+02061+99999101591ADDGF104991999999999999999999
0029029600999991902062520004+61183+022617FM-12+005199999V0202701N004119999999N0000001N9+01441+99999101591ADDGF102991999999999999999999
0029029600999991902062606004+61183+022617FM-12+005199999V0203401N003119999999N0000001N9+01171+99999101881ADDGF102991999999999999999999
0029029600999991902062613004+61183+022617FM-12+005199999V0203601N004119999999N0000001N9+01831+99999101751ADDGF102991999999999999999999
0035029600999991902062620004+61183+022617FM-12+005199999V0203401N003119999999N0000001N9+01111+99999101631ADDGF108991999999999999999999MW1621
0029029600999991902062706004+61183+022617FM-12+005199999V0200201N003119999999N0000001N9+01221+99999101761ADDGF102991999999999999999999
0029029600999991902062713004+61183+022617FM-12+005199999V0202701N003119999999N0000001N9+01441+99999101671ADDGF108991999999999999999999
0029029600999991902062720004+61183+022617FM-12+005199999V0202501N001019999999N0000001N9+01111+99999101501ADDGF108991999999999999999999
0029029600999991902062806004+61183+022617FM-12+005199999V0201801N002119999999N0000001N9+01391+99999101031ADDGF106991999999999999999999
0029029600999991902062813004+61183+022617FM-12+005199999V0202701N008719999999N0000001N9+02001+99999100441ADDGF102991999999999999999999
0029029600999991902062820004+61183+022617FM-12+005199999V0202701N005119999999N0000001N9+01611+99999100151ADDGF104991999999999999999999
0029029600999991902062906004+61183+022617FM-12+005199999V0203201N007219999999N0000001N9+01281+99999100081ADDGF107991999999999999999999
0029029600999991902062913004+61183+022617FM-12+005199999V0203201N006219999999N0000001N9+01671+99999100271ADDGF106991999999999999999999
0029029600999991902062920004+61183+022617FM-12+005199999V0202701N006219999999N0000001N9+01061+99999100521ADDGF102991999999999999999999
0029029600999991902063006004+61183+022617FM-12+005199999V0203201N003119999999N0000001N9+01061+99999100761ADDGF101991999999999999999999
0029029600999991902063013004+61183+022617FM-12+005199999V0203201N007219999999N0000001N9+01281+99999100801ADDGF101991999999999999999999
0029029600999991902063020004+61183+022617FM-12+005199999V0202701N001019999999N0000001N9+00941+99999100711ADDGF102991999999999999999999
0029029600999991902070106004+61183+022617FM-12+005199999V0201801N008219999999N0000001N9+01441+99999099791ADDGF106991999999999999999999
0029029600999991902070113004+61183+022617FM-12+005199999V0202001N007219999999N0000001N9+01831+99999099431ADDGF107991999999999999999999
0035029600999991902070120004+61183+022617FM-12+005199999V0202701N003119999999N0000001N9+00941+99999099381ADDGF108991999999999999999999MW1621
0035029600999991902070206004+61183+022617FM-12+005199999V0200201N003119999999N0000001N9+00891+99999099311ADDGF108991999999999999999999MW1621
0029029600999991902070213004+61183+022617FM-12+005199999V0200201N005119999999N0000001N9+01501+99999099401ADDGF107991999999999999999999
0029029600999991902070220004+61183+022617FM-12+005199999V0202301N001019999999N0000001N9+01111+99999099741ADDGF106991999999999999999999
0029029600999991902070306004+61183+022617FM-12+005199999V0203601N006219999999N0000001N9+01111+99999100241ADDGF101991999999999999999999
0029029600999991902070313004+61183+022617FM-12+005199999V0203201N007219999999N0000001N9+01561+99999100431ADDGF104991999999999999999999
0029029600999991902070320004+61183+022617FM-12+005199999V0202701N005119999999N0000001N9+00941+99999100781ADDGF102991999999999999999999
0029029600999991902070406004+61183+022617FM-12+005199999V0202701N002119999999N0000001N9+01221+99999101021ADDGF101991999999999999999999
0029029600999991902070413004+61183+022617FM-12+005199999V0202701N003119999999N0000001N9+01721+99999100921ADDGF102991999999999999999999
0029029600999991902070420004+61183+022617FM-12+005199999V0203201N002119999999N0000001N9+01391+99999100681ADDGF102991999999999999999999
0029029600999991902070506004+61183+022617FM-12+005199999V0201801N005119999999N0000001N9+01281+99999100031ADDGF106991999999999999999999
0035029600999991902070513004+61183+022617FM-12+005199999V0201601N005119999999N0000001N9+01331+99999099741ADDGF108991999999999999999999MW1621
0035029600999991902070520004+61183+022617FM-12+005199999V0201601N003119999999N0000001N9+01061+99999099741ADDGF108991999999999999999999MW1621
0029029600999991902070606004+61183+022617FM-12+005199999V0200201N001019999999N0000001N9+01171+99999100061ADDGF108991999999999999999999
0029029600999991902070613004+61183+022617FM-12+005199999V0203201N003119999999N0000001N9+01721+99999100221ADDGF107991999999999999999999
0029029600999991902070620004+61183+022617FM-12+005199999V0203201N003119999999N0000001N9+01391+99999100281ADDGF107991999999999999999999
0029029600999991902070706004+61183+022617FM-12+005199999V0203401N004119999999N0000001N9+01171+99999100221ADDGF108991999999999999999999
0029029600999991902070713004+61183+022617FM-12+005199999V0203201N005119999999N0000001N9+01611+99999100101ADDGF108991999999999999999999
0029029600999991902070720004+61183+022617FM-12+005199999V0202701N004119999999N0000001N9+01171+99999099911ADDGF108991999999999999999999
0029029600999991902070806004+61183+022617FM-12+005199999V0203601N004119999999N0000001N9+01001+99999099761ADDGF108991999999999999999999
0029029600999991902070813004+61183+022617FM-12+005199999V0203601N006219999999N0000001N9+01561+99999099751ADDGF105991999999999999999999
0029029600999991902070820004+61183+022617FM-12+005199999V0202701N005119999999N0000001N9+01111+99999099761ADDGF108991999999999999999999
0035029600999991902070906004+61183+022617FM-12+005199999V0200701N002119999999N0000001N9+01111+99999099831ADDGF108991999999999999999999MW1621
0029029600999991902070913004+61183+022617FM-12+005199999V0200701N003119999999N0000001N9+01281+99999099881ADDGF108991999999999999999999
0029029600999991902070920004+61183+022617FM-12+005199999V0200501N001019999999N0000001N9+01111+99999099991ADDGF106991999999999999999999
0029029600999991902071006004+61183+022617FM-12+005199999V0200501N001019999999N0000001N9+01171+99999100081ADDGF107991999999999999999999
0029029600999991902071013004+61183+022617FM-12+005199999V0200901N001019999999N0000001N9+01671+99999099751ADDGF106991999999999999999999
0029029600999991902071020004+61183+022617FM-12+005199999V0200701N002119999999N0000001N9+01111+99999099641ADDGF105991999999999999999999
0029029600999991902071106004+61183+022617FM-12+005199999V0200501N004119999999N0000001N9+01221+99999099431ADDGF108991999999999999999999
0029029600999991902071113004+61183+022617FM-12+005199999V0200701N003119999999N0000001N9+01441+99999099351ADDGF108991999999999999999999
0035029600999991902071120004+61183+022617FM-12+005199999V0200701N004119999999N0000001N9+01111+99999099391ADDGF108991999999999999999999MW1621
0035029600999991902071206004+61183+022617FM-12+005199999V0200501N003119999999N0000001N9+01171+99999099071ADDGF108991999999999999999999MW1621
0035029600999991902071213004+61183+022617FM-12+005199999V0200201N003119999999N0000001N9+01441+99999098941ADDGF108991999999999999999999MW1621
0035029600999991902071220004+61183+022617FM-12+005199999V0203201N001019999999N0000001N9+01281+99999099071ADDGF108991999999999999999999MW1621
0035029600999991902071306004+61183+022617FM-12+005199999V02099999999999999999N0000001N9+01061+99999099791ADDGF108991999999999999999999MW1621
0035029600999991902071313004+61183+022617FM-12+005199999V0202701N007219999999N0000001N9+01611+99999100281ADDGF104991999999999999999999MW1621
0035029600999991902071320004+61183+022617FM-12+005199999V0202701N002119999999N0000001N9+01171+99999100401ADDGF107991999999999999999999MW1621
0035029600999991902071406004+61183+022617FM-12+005199999V0201601N002119999999N0000001N9+01111+99999100141ADDGF108991999999999999999999MW1621
0035029600999991902071413004+61183+022617FM-12+005199999V0209991C000019999999N0000001N9+01331+99999100161ADDGF108991999999999999999999MW1621
0029029600999991902071420004+61183+022617FM-12+005199999V0203401N002119999999N0000001N9+01171+99999100401ADDGF105991999999999999999999
0029029600999991902071506004+61183+022617FM-12+005199999V0203201N003119999999N0000001N9+01061+99999100781ADDGF106991999999999999999999
0029029600999991902071513004+61183+022617FM-12+005199999V0203201N005119999999N0000001N9+01781+99999100781ADDGF102991999999999999999999
0029029600999991902071520004+61183+022617FM-12+005199999V0203201N004119999999N0000001N9+01331+99999100821ADDGF100991999999999999999999
0029029600999991902071606004+61183+022617FM-12+005199999V0200201N002119999999N0000001N9+01001+99999100631ADDGF107991999999999999999999
0029029600999991902071613004+61183+022617FM-12+005199999V0203601N003119999999N0000001N9+01781+99999100281ADDGF107991999999999999999999
0035029600999991902071620004+61183+022617FM-12+005199999V0202701N002119999999N0000001N9+01111+99999100281ADDGF108991999999999999999999MW1621
0029029600999991902071706004+61183+022617FM-12+005199999V0200501N003119999999N0000001N9+01221+99999100311ADDGF108991999999999999999999
0029029600999991902071713004+61183+022617FM-12+005199999V0203401N004119999999N0000001N9+01501+99999100361ADDGF108991999999999999999999
0029029600999991902071720004+61183+022617FM-12+005199999V0203401N001019999999N0000001N9+01391+99999100271ADDGF107991999999999999999999
0029029600999991902071806004+61183+022617FM-12+005199999V0202701N001019999999N0000001N9+01441+99999100301ADDGF104991999999999999999999
0029029600999991902071813004+61183+022617FM-12+005199999V0202701N001019999999N0000001N9+01941+99999100121ADDGF106991999999999999999999
0029029600999991902071820004+61183+022617FM-12+005199999V0202701N001019999999N0000001N9+01611+99999100061ADDGF103991999999999999999999
0029029600999991902071906004+61183+022617FM-12+005199999V0202701N001019999999N0000001N9+01721+99999099921ADDGF101991999999999999999999
0029029600999991902071913004+61183+022617FM-12+005199999V0203201N007219999999N0000001N9+02001+99999099701ADDGF106991999999999999999999
0029029600999991902071920004+61183+022617FM-12+005199999V0203201N001019999999N0000001N9+01501+99999099711ADDGF102991999999999999999999
0029029600999991902072006004+61183+022617FM-12+005199999V0202501N003119999999N0000001N9+01221+99999099521ADDGF108991999999999999999999
0035029600999991902072013004+61183+022617FM-12+005199999V0202001N002119999999N0000001N9+01671+99999099661ADDGF107991999999999999999999MW1621
0035029600999991902072020004+61183+022617FM-12+005199999V0202501N001019999999N0000001N9+01221+99999100021ADDGF106991999999999999999999MW1621
0035029600999991902072106004+61183+022617FM-12+005199999V0202001N001019999999N0000001N9+01391+99999100061ADDGF107991999999999999999999MW1621
0029029600999991902072113004+61183+022617FM-12+005199999V0202501N005119999999N0000001N9+01721+99999100181ADDGF105991999999999999999999
0029029600999991902072120004+61183+022617FM-12+005199999V0202001N003119999999N0000001N9+01281+99999100341ADDGF108991999999999999999999
0029029600999991902072206004+61183+022617FM-12+005199999V0201801N002119999999N0000001N9+01391+99999100381ADDGF108991999999999999999999
0029029600999991902072213004+61183+022617FM-12+005199999V0203201N003119999999N0000001N9+01561+99999100391ADDGF108991999999999999999999
0029029600999991902072220004+61183+022617FM-12+005199999V0202501N002119999999N0000001N9+01281+99999100341ADDGF102991999999999999999999
0029029600999991902072306004+61183+022617FM-12+005199999V0203201N002119999999N0000001N9+01111+99999100301ADDGF105991999999999999999999
0029029600999991902072313004+61183+022617FM-12+005199999V0203401N002119999999N0000001N9+01941+99999100361ADDGF107991999999999999999999
0029029600999991902072320004+61183+022617FM-12+005199999V0202001N001019999999N0000001N9+01331+99999100481ADDGF104991999999999999999999
0029029600999991902072406004+61183+022617FM-12+005199999V0201801N002119999999N0000001N9+01111+99999100741ADDGF107991999999999999999999
0029029600999991902072413004+61183+022617FM-12+005199999V0202501N002119999999N0000001N9+01941+99999100721ADDGF102991999999999999999999
0029029600999991902072420004+61183+022617FM-12+005199999V0203201N002119999999N0000001N9+01281+99999100751ADDGF107991999999999999999999
0029029600999991902072506004+61183+022617FM-12+005199999V0209991C000019999999N0000001N9+01281+99999100741ADDGF108991999999999999999999
0029029600999991902072513004+61183+022617FM-12+005199999V0200201N003119999999N0000001N9+01781+99999100661ADDGF103991999999999999999999
0029029600999991902072520004+61183+022617FM-12+005199999V0202001N001019999999N0000001N9+01281+99999100681ADDGF102991999999999999999999
0029029600999991902072606004+61183+022617FM-12+005199999V0201801N001019999999N0000001N9+01391+99999100721ADDGF108991999999999999999999
0029029600999991902072613004+61183+022617FM-12+005199999V0202501N007219999999N0000001N9+01781+99999100761ADDGF102991999999999999999999
0029029600999991902072620004+61183+022617FM-12+005199999V0202301N001019999999N0000001N9+01061+99999100871ADDGF101991999999999999999999
0029029600999991902072706004+61183+022617FM-12+005199999V02099999999999999999N0000001N9+01281+99999100741ADDGF103991999999999999999999
0029029600999991902072713004+61183+022617FM-12+005199999V02099999999999999999N0000001N9+01831+99999100231ADDGF105991999999999999999999
0029029600999991902072720004+61183+022617FM-12+005199999V02099999999999999999N0000001N9+01391+99999099501ADDGF108991999999999999999999
0029029600999991902072806004+61183+022617FM-12+005199999V02099999999999999999N0000001N9+01561+99999099231ADDGF108991999999999999999999
0029029600999991902072813004+61183+022617FM-12+005199999V0202001N006219999999N0000001N9+01671+99999099301ADDGF108991999999999999999999
0029029600999991902072820004+61183+022617FM-12+005199999V0202001N001019999999N0000001N9+01281+99999099441ADDGF108991999999999999999999
0035029600999991902072906004+61183+022617FM-12+005199999V0201801N004119999999N0000001N9+01171+99999099301ADDGF108991999999999999999999MW1621
0035029600999991902072913004+61183+022617FM-12+005199999V0202001N004119999999N0000001N9+01441+99999099481ADDGF108991999999999999999999MW1621
0035029600999991902072920004+61183+022617FM-12+005199999V0201801N002119999999N0000001N9+01171+99999099601ADDGF108991999999999999999999MW1621
0029029600999991902073006004+61183+022617FM-12+005199999V0202501N005119999999N0000001N9+01221+99999099951ADDGF107991999999999999999999
0029029600999991902073013004+61183+022617FM-12+005199999V0202301N003119999999N0000001N9+01721+99999100181ADDGF105991999999999999999999
0029029600999991902073020004+61183+022617FM-12+005199999V0202001N002119999999N0000001N9+01221+99999100241ADDGF107991999999999999999999
0029029600999991902073106004+61183+022617FM-12+005199999V0201801N004119999999N0000001N9+01171+99999100201ADDGF106991999999999999999999
0029029600999991902073113004+61183+022617FM-12+005199999V0202701N007219999999N0000001N9+01391+99999100301ADDGF107991999999999999999999
0029029600999991902073120004+61183+022617FM-12+005199999V0202501N001019999999N0000001N9+01111+99999100401ADDGF106991999999999999999999
0029029600999991902080106004+61183+022617FM-12+005199999V02099999999999999999N0000001N9+01221+99999100421ADDGF108991999999999999999999
0029029600999991902080113004+61183+022617FM-12+005199999V0200501N002119999999N0000001N9+01561+99999100401ADDGF106991999999999999999999
0035029600999991902080120004+61183+022617FM-12+005199999V0203201N002119999999N0000001N9+01171+99999100401ADDGF102991999999999999999999MW1621
0029029600999991902080206004+61183+022617FM-12+005199999V0203201N003119999999N0000001N9+01221+99999100481ADDGF101991999999999999999999
0029029600999991902080213004+61183+022617FM-12+005199999V0202701N003119999999N0000001N9+01721+99999100511ADDGF104991999999999999999999
0000029600999991902080220004+61183+022617FM-12+005199999V02099999999999999999N0000001N9+01171+99999100601
0029029600999991902080306004+61183+022617FM-12+005199999V02099999999999999999N0000001N9+01221+99999100751ADDGF101991999999999999999999
0029029600999991902080313004+61183+022617FM-12+005199999V0200201N003119999999N0000001N9+01891+99999100631ADDGF103991999999999999999999
0029029600999991902080320004+61183+022617FM-12+005199999V0202701N001019999999N0000001N9+01391+99999100561ADDGF102991999999999999999999
0029029600999991902080406004+61183+022617FM-12+005199999V0209991C000019999999N0000001N9+01441+99999100581ADDGF108991999999999999999999
0029029600999991902080413004+61183+022617FM-12+005199999V0200901N001019999999N0000001N9+02001+99999100351ADDGF108991999999999999999999
0035029600999991902080420004+61183+022617FM-12+005199999V0209991C000019999999N0000001N9+01221+99999100341ADDGF108991999999999999999999MW1621
0029029600999991902080506004+61183+022617FM-12+005199999V02099999999999999999N0000001N9+01331+99999100271ADDGF108991999999999999999999
0029029600999991902080513004+61183+022617FM-12+005199999V02099999999999999999N0000001N9+01501+99999100241ADDGF107991999999999999999999
0029029600999991902080520004+61183+022617FM-12+005199999V02099999999999999999N0000001N9+01171+99999100281ADDGF107991999999999999999999
0029029600999991902080606004+61183+022617FM-12+005199999V02099999999999999999N0000001N9+01171+99999100271ADDGF108991999999999999999999
0035029600999991902080613004+61183+022617FM-12+005199999V0203601N001019999999N0000001N9+01561+99999100231ADDGF108991999999999999999999MW1621
0029029600999991902080620004+61183+022617FM-12+005199999V0202001N001019999999N0000001N9+01171+99999100271ADDGF107991999999999999999999
0029029600999991902080706004+61183+022617FM-12+005199999V0201601N001019999999N0000001N9+01171+99999100261ADDGF108991999999999999999999
0029029600999991902080713004+61183+022617FM-12+005199999V0202001N004119999999N0000001N9+01781+99999100231ADDGF106991999999999999999999
0029029600999991902080720004+61183+022617FM-12+005199999V0209991C000019999999N0000001N9+01111+99999100281ADDGF101991999999999999999999
0029029600999991902080806004+61183+022617FM-12+005199999V0201401N001019999999N0000001N9+01221+99999100321ADDGF102991999999999999999999
0029029600999991902080813004+61183+022617FM-12+005199999V0203201N003119999999N0000001N9+01721+99999100321ADDGF106991999999999999999999
0029029600999991902080820004+61183+022617FM-12+005199999V0201401N001019999999N0000001N9+01171+99999100381ADDGF101991999999999999999999
0029029600999991902080906004+61183+022617FM-12+005199999V0203201N001019999999N0000001N9+01171+99999100391ADDGF102991999999999999999999
0029029600999991902080913004+61183+022617FM-12+005199999V0203201N003119999999N0000001N9+01831+99999100231ADDGF106991999999999999999999
0035029600999991902080920004+61183+022617FM-12+005199999V0202501N006219999999N0000001N9+01221+99999099831ADDGF108991999999999999999999MW1621
0029029600999991902081006004+61183+022617FM-12+005199999V0203201N002119999999N0000001N9+01331+99999099591ADDGF106991999999999999999999
0029029600999991902081013004+61183+022617FM-12+005199999V0201601N005119999999N0000001N9+01671+99999099661ADDGF105991999999999999999999
0029029600999991902081020004+61183+022617FM-12+005199999V0201801N004119999999N0000001N9+01061+99999099741ADDGF107991999999999999999999
0029029600999991902081106004+61183+022617FM-12+005199999V0201601N004119999999N0000001N9+01221+99999099791ADDGF102991999999999999999999
0035029600999991902081113004+61183+022617FM-12+005199999V0202001N003119999999N0000001N9+01281+99999099861ADDGF108991999999999999999999MW1621
0029029600999991902081120004+61183+022617FM-12+005199999V0201101N002119999999N0000001N9+00891+99999099721ADDGF102991999999999999999999
0029029600999991902081206004+61183+022617FM-12+005199999V0201601N005119999999N0000001N9+01221+99999099861ADDGF102991999999999999999999
0035029600999991902081213004+61183+022617FM-12+005199999V0201601N005119999999N0000001N9+01391+99999099901ADDGF107991999999999999999999MW1621
0029029600999991902081220004+61183+022617FM-12+005199999V0201601N002119999999N0000001N9+01171+99999100061ADDGF107991999999999999999999
0029029600999991902081306004+61183+022617FM-12+005199999V0200901N002119999999N0000001N9+01221+99999099941ADDGF108991999999999999999999
0029029600999991902081313004+61183+022617FM-12+005199999V0201401N002119999999N0000001N9+01501+99999099711ADDGF108991999999999999999999
0035029600999991902081320004+61183+022617FM-12+005199999V0202701N004119999999N0000001N9+01171+99999099511ADDGF108991999999999999999999MW1621
0029029600999991902081406004+61183+022617FM-12+005199999V0202701N004119999999N0000001N9+01171+99999099401ADDGF105991999999999999999999
0029029600999991902081413004+61183+022617FM-12+005199999V0202001N003119999999N0000001N9+01561+99999099501ADDGF104991999999999999999999
0029029600999991902081420004+61183+022617FM-12+005199999V0201801N002119999999N0000001N9+01001+99999099541ADDGF101991999999999999999999
0029029600999991902081506004+61183+022617FM-12+005199999V0203601N001019999999N0000001N9+00721+99999099261ADDGF108991999999999999999999
0035029600999991902081513004+61183+022617FM-12+005199999V0202701N005119999999N0000001N9+01331+99999098951ADDGF108991999999999999999999MW1621
0035029600999991902081520004+61183+022617FM-12+005199999V0202501N008719999999N0000001N9+01061+99999098581ADDGF108991999999999999999999MW1621
0035029600999991902081606004+61183+022617FM-12+005199999V0202501N003119999999N0000001N9+01061+99999098601ADDGF108991999999999999999999MW1621
0035029600999991902081613004+61183+022617FM-12+005199999V0203601N007219999999N0000001N9+01221+99999098541ADDGF108991999999999999999999MW1621
0035029600999991902081620004+61183+022617FM-12+005199999V0202001N004119999999N0000001N9+01001+99999099101ADDGF108991999999999999999999MW1621
0029029600999991902081706004+61183+022617FM-12+005199999V0202001N002119999999N0000001N9+01171+99999099341ADDGF101991999999999999999999
0000029600999991902081713004+61183+022617FM-12+005199999V02099999999999999999N0000001N9+01501+99999099671
0029029600999991902081720004+61183+022617FM-12+005199999V02099999999999999999N0000001N9+00721+99999100101ADDGF100991999999999999999999
0029029600999991902081806004+61183+022617FM-12+005199999V0202501N002119999999N0000001N9+00781+99999100481ADDGF101991999999999999999999
0029029600999991902081813004+61183+022617FM-12+005199999V0202301N004119999999N0000001N9+01501+99999100711ADDGF104991999999999999999999
0029029600999991902081820004+61183+022617FM-12+005199999V0201801N002119999999N0000001N9+01001+99999100871ADDGF101991999999999999999999
0029029600999991902081906004+61183+022617FM-12+005199999V0201601N005119999999N0000001N9+01441+99999100961ADDGF101991999999999999999999
0029029600999991902081913004+61183+022617FM-12+005199999V0201801N005119999999N0000001N9+01781+99999100841ADDGF108991999999999999999999
0029029600999991902081920004+61183+022617FM-12+005199999V0200901N004119999999N0000001N9+01281+99999100441ADDGF107991999999999999999999
0035029600999991902082006004+61183+022617FM-12+005199999V0201601N006219999999N0000001N9+01331+99999099301ADDGF108991999999999999999999MW1621
0029029600999991902082013004+61183+022617FM-12+005199999V0201801N006219999999N0000001N9+01671+99999099321ADDGF107991999999999999999999
0029029600999991902082020004+61183+022617FM-12+005199999V0201801N004119999999N0000001N9+01111+99999099561ADDGF102991999999999999999999
0029029600999991902082106004+61183+022617FM-12+005199999V0202001N003119999999N0000001N9+01171+99999099581ADDGF108991999999999999999999
0029029600999991902082113004+61183+022617FM-12+005199999V0202701N004119999999N0000001N9+01441+99999099631ADDGF103991999999999999999999
0029029600999991902082120004+61183+022617FM-12+005199999V0202301N003119999999N0000001N9+00721+99999099921ADDGF101991999999999999999999
0029029600999991902082206004+61183+022617FM-12+005199999V0202501N006219999999N0000001N9+01001+99999100031ADDGF102991999999999999999999
0035029600999991902082213004+61183+022617FM-12+005199999V0201101N008219999999N0000001N9+01221+99999100351ADDGF107991999999999999999999MW1621
0035029600999991902082220004+61183+022617FM-12+005199999V0202701N002119999999N0000001N9+00721+99999100661ADDGF108991999999999999999999MW1621
0029029600999991902082306004+61183+022617FM-12+005199999V0202501N003119999999N0000001N9+01001+99999100871ADDGF107991999999999999999999
0029029600999991902082313004+61183+022617FM-12+005199999V0202701N004119999999N0000001N9+01331+99999101191ADDGF105991999999999999999999
0029029600999991902082320004+61183+022617FM-12+005199999V0202301N001019999999N0000001N9+00561+99999101351ADDGF101991999999999999999999
0029029600999991902082406004+61183+022617FM-12+005199999V0201801N002119999999N0000001N9+00831+99999101341ADDGF100991999999999999999999
0029029600999991902082413004+61183+022617FM-12+005199999V0202001N005119999999N0000001N9+01781+99999101381ADDGF102991999999999999999999
0029029600999991902082420004+61183+022617FM-12+005199999V0202001N002119999999N0000001N9+00781+99999101381ADDGF101991999999999999999999
0035029600999991902082506004+61183+022617FM-12+005199999V0201801N003119999999N0000001N9+01061+99999101311ADDGF108991999999999999999999MW1621
0029029600999991902082513004+61183+022617FM-12+005199999V0201601N004119999999N0000001N9+01561+99999101161ADDGF108991999999999999999999
0035029600999991902082520004+61183+022617FM-12+005199999V0201401N003119999999N0000001N9+01171+99999100901ADDGF108991999999999999999999MW1621
0035029600999991902082606004+61183+022617FM-12+005199999V0201401N004119999999N0000001N9+01111+99999100161ADDGF108991999999999999999999MW1621
0035029600999991902082613004+61183+022617FM-12+005199999V0202301N004119999999N0000001N9+01561+99999100151ADDGF108991999999999999999999MW1621
0035029600999991902082620004+61183+022617FM-12+005199999V0202501N005119999999N0000001N9+01221+99999100471ADDGF108991999999999999999999MW1621
0029029600999991902082706004+61183+022617FM-12+005199999V0203201N005119999999N0000001N9+01221+99999101121ADDGF108991999999999999999999
0029029600999991902082713004+61183+022617FM-12+005199999V0203401N002119999999N0000001N9+01721+99999101421ADDGF104991999999999999999999
0029029600999991902082720004+61183+022617FM-12+005199999V0203401N002119999999N0000001N9+01281+99999101591ADDGF106991999999999999999999
0029029600999991902082806004+61183+022617FM-12+005199999V0200201N004119999999N0000001N9+01331+99999101481ADDGF107991999999999999999999
0029029600999991902082813004+61183+022617FM-12+005199999V0200901N005119999999N0000001N9+01831+99999101311ADDGF108991999999999999999999
0029029600999991902082820004+61183+022617FM-12+005199999V0200701N002119999999N0000001N9+01061+99999101181ADDGF108991999999999999999999
0029029600999991902082906004+61183+022617FM-12+005199999V0200701N005119999999N0000001N9+01111+99999101021ADDGF106991999999999999999999
0029029600999991902082913004+61183+022617FM-12+005199999V0200901N004119999999N0000001N9+01441+99999100941ADDGF106991999999999999999999
0029029600999991902082920004+61183+022617FM-12+005199999V0200701N003119999999N0000001N9+01061+99999100961ADDGF108991999999999999999999
0029029600999991902083006004+61183+022617FM-12+005199999V0200701N004119999999N0000001N9+00941+99999101111ADDGF108991999999999999999999
0029029600999991902083013004+61183+022617FM-12+005199999V0201401N002119999999N0000001N9+01441+99999101181ADDGF107991999999999999999999
0029029600999991902083020004+61183+022617FM-12+005199999V0201401N001019999999N0000001N9+00721+99999101191ADDGF102991999999999999999999
0029029600999991902083106004+61183+022617FM-12+005199999V0200901N004119999999N0000001N9+00781+99999101141ADDGF103991999999999999999999
0029029600999991902083113004+61183+022617FM-12+005199999V0200901N006219999999N0000001N9+01391+99999101031ADDGF107991999999999999999999
0029029600999991902083120004+61183+022617FM-12+005199999V0200901N005119999999N0000001N9+00941+99999101081ADDGF108991999999999999999999
0035029600999991902090106004+61183+022617FM-12+005199999V0200901N004119999999N0000001N9+00891+99999100941ADDGF108991999999999999999999MW1621
0035029600999991902090113004+61183+022617FM-12+005199999V0201401N005119999999N0000001N9+01061+99999100801ADDGF108991999999999999999999MW1621
0029029600999991902090120004+61183+022617FM-12+005199999V0201601N003119999999N0000001N9+01061+99999100681ADDGF106991999999999999999999
0029029600999991902090206004+61183+022617FM-12+005199999V0202701N005119999999N0000001N9+01001+99999100761ADDGF108991999999999999999999
0029029600999991902090213004+61183+022617FM-12+005199999V0203201N005119999999N0000001N9+01501+99999101121ADDGF104991999999999999999999
0029029600999991902090220004+61183+022617FM-12+005199999V0202701N004119999999N0000001N9+00891+99999101401ADDGF106991999999999999999999
