0029029500999991902070306004+61483+021350FM-12+000699999V0203601N009819999999N0000001N9+00781+99999100821ADDGF102991999999999999999999
0029029500999991902010106004+61483+021350FM-12+000699999V0201401N009819999999N0000001N9-00221+99999099941ADDGF108991999999999999999999
0029029500999991902010113004+61483+021350FM-12+000699999V0201401N008219999999N0000001N9-00281+99999099711ADDGF108991999999999999999999
0029029500999991902010120004+61483+021350FM-12+000699999V0201401N011819999999N0000001N9-00441+99999099351ADDGF108991999999999999999999
0029029500999991902010206004+61483+021350FM-12+000699999V0201401N004119999999N0000001N9-00781+99999099381ADDGF108991999999999999999999
0029029500999991902010213004+61483+021350FM-12+000699999V0200901N004119999999N0000001N9-00941+99999099741ADDGF108991999999999999999999
0029029500999991902010220004+61483+021350FM-12+000699999V0200901N006219999999N0000001N9-01111+99999100031ADDGF108991999999999999999999
0029029500999991902010306004+61483+021350FM-12+000699999V0201401N004119999999N0000001N9-01281+99999100481ADDGF108991999999999999999999
0029029500999991902010313004+61483+021350FM-12+000699999V0201401N004119999999N0000001N9-01441+99999100871ADDGF107991999999999999999999
0029029500999991902010320004+61483+021350FM-12+000699999V0201401N004119999999N0000001N9-01391+99999101041ADDGF108991999999999999999999
0029029500999991902010406004+61483+021350FM-12+000699999V0201601N013919999999N0000001N9-01171+99999099541ADDGF108991999999999999999999
0029029500999991902010413004+61483+021350FM-12+000699999V0202701N013919999999N0000001N9-00061+99999098351ADDGF108991999999999999999999
0029029500999991902010420004+61483+021350FM-12+000699999V0202501N008219999999N0000001N9-00061+99999098231ADDGF100991999999999999999999
0029029500999991902010506004+61483+021350FM-12+000699999V0202501N006219999999N0000001N9+00001+99999097701ADDGF108991999999999999999999
0029029500999991902010513004+61483+021350FM-12+000699999V0202301N002119999999N0000001N9+00001+99999097911ADDGF106991999999999999999999
0029029500999991902010520004+61483+021350FM-12+000699999V0203401N015919999999N0000001N9-00391+99999098541ADDGF108991999999999999999999
0029029500999991902010606004+61483+021350FM-12+000699999V0200901N002119999999N0000001N9-01001+99999099121ADDGF101991999999999999999999
0029029500999991902010613004+61483+021350FM-12+000699999V0201401N006219999999N0000001N9-01171+99999098981ADDGF106991999999999999999999
0029029500999991902010620004+61483+021350FM-12+000699999V0201101N008219999999N0000001N9-01391+99999099601ADDGF102991999999999999999999
0029029500999991902010706004+61483+021350FM-12+000699999V0201801N008219999999N0000001N9-00891+99999100281ADDGF108991999999999999999999
0029029500999991902010713004+61483+021350FM-12+000699999V0202001N013919999999N0000001N9-00111+99999099601ADDGF108991999999999999999999
0029029500999991902010720004+61483+021350FM-12+000699999V0202501N015919999999N0000001N9+00061+99999099541ADDGF102991999999999999999999
0029029500999991902010806004+61483+021350FM-12+000699999V0202701N013919999999N0000001N9+00061+99999099991ADDGF102991999999999999999999
0029029500999991902010813004+61483+021350FM-12+000699999V0202301N006219999999N0000001N9+00001+99999099791ADDGF108991999999999999999999
0029029500999991902010820004+61483+021350FM-12+000699999V0202701N013919999999N0000001N9+00221+99999999999ADDGF102991999999999999999999
0029029500999991902010906004+61483+021350FM-12+000699999V0203201N006219999999N0000001N9+00111+99999100101ADDGF108991999999999999999999
0029029500999991902010913004+61483+021350FM-12+000699999V0202901N004119999999N0000001N9+00001+99999100121ADDGF108991999999999999999999
0029029500999991902010920004+61483+021350FM-12+000699999V0200901N004119999999N0000001N9-00391+99999100061ADDGF108991999999999999999999
0029029500999991902011006004+61483+021350FM-12+000699999V0202301N015919999999N0000001N9+00111+99999098042ADDGF108991999999999999999999
0029029500999991902011013004+61483+021350FM-12+000699999V0202701N015919999999N0000001N9+00111+99999098151ADDGF107991999999999999999999
0029029500999991902011020004+61483+021350FM-12+000699999V0202701N009819999999N0000001N9+00001+99999098201ADDGF100991999999999999999999
0029029500999991902011106004+61483+021350FM-12+000699999V0200501N008219999999N0000001N9-00501+99999098191ADDGF108991999999999999999999
0029029500999991902011113004+61483+021350FM-12+000699999V0200201N013919999999N0000001N9-00671+99999098741ADDGF108991999999999999999999
0029029500999991902011120004+61483+021350FM-12+000699999V0200501N011819999999N0000001N9-00781+99999099841ADDGF100991999999999999999999
0029029500999991902011206004+61483+021350FM-12+000699999V0201401N002119999999N0000001N9-01281+99999100441ADDGF105991999999999999999999
0029029500999991902011213004+61483+021350FM-12+000699999V0202901N004119999999N0000001N9-00831+99999100521ADDGF105991999999999999999999
0029029500999991902011220004+61483+021350FM-12+000699999V0201401N006219999999N0000001N9-00941+99999100191ADDGF102991999999999999999999
0029029500999991902011306004+61483+021350FM-12+000699999V0201401N008219999999N0000001N9-00781+99999099181ADDGF108991999999999999999999
0029029500999991902011313004+61483+021350FM-12+000699999V0201401N004119999999N0000001N9-00501+99999099161ADDGF108991999999999999999999
0029029500999991902011320004+61483+021350FM-12+000699999V0201401N004119999999N0000001N9-00561+99999099421ADDGF108991999999999999999999
0029029500999991902011406004+61483+021350FM-12+000699999V0200501N015919999999N0000001N9-00891+99999100341ADDGF108991999999999999999999
0029029500999991902011413004+61483+021350FM-12+000699999V0200201N018019999999N0000001N9-00941+99999101081ADDGF102991999999999999999999
0029029500999991902011420004+61483+021350FM-12+000699999V0200501N009819999999N0000001N9-01171+99999101901ADDGF102991999999999999999999
0029029500999991902011506004+61483+021350FM-12+000699999V0201801N004119999999N0000001N9-01721+99999102151ADDGF100991999999999999999999
0029029500999991902011513004+61483+021350FM-12+000699999V0201801N011819999999N0000001N9-01111+99999101631ADDGF108991999999999999999999
0029029500999991902011520004+61483+021350FM-12+000699999V0201801N024219999999N0000001N9-00281+99999099621ADDGF108991999999999999999999
0029029500999991902011606004+61483+021350FM-12+000699999V0202901N013919999999N0000001N9+00111+99999097462ADDGF108991999999999999999999
0029029500999991902011613004+61483+021350FM-12+000699999V0203201N027819999999N0000001N9+00171+99999098191ADDGF106991999999999999999999
0029029500999991902011620004+61483+021350FM-12+000699999V0203401N027819999999N0000001N9-00061+99999099351ADDGF100991999999999999999999
0029029500999991902011706004+61483+021350FM-12+000699999V0203401N018019999999N0000001N9-00111+99999100071ADDGF106991999999999999999999
0029029500999991902011713004+61483+021350FM-12+000699999V0203601N008219999999N0000001N9-00171+99999100301ADDGF106991999999999999999999
0029029500999991902011720004+61483+021350FM-12+000699999V0200701N002119999999N0000001N9-00831+99999100521ADDGF100991999999999999999999
0029029500999991902011806004+61483+021350FM-12+000699999V0200501N008219999999N0000001N9-01001+99999100741ADDGF106991999999999999999999
0029029500999991902011813004+61483+021350FM-12+000699999V0200201N011819999999N0000001N9-00941+99999101441ADDGF102991999999999999999999
0029029500999991902011820004+61483+021350FM-12+000699999V0200501N011819999999N0000001N9-01111+99999102041ADDGF100991999999999999999999
0029029500999991902011906004+61483+021350FM-12+000699999V0201601N004119999999N0000001N9-01941+99999102181ADDGF102991999999999999999999
0029029500999991902011913004+61483+021350FM-12+000699999V0201801N011819999999N0000001N9-01111+99999101561ADDGF108991999999999999999999
0029029500999991902011920004+61483+021350FM-12+000699999V0201601N013919999999N0000001N9-00721+99999100461ADDGF108991999999999999999999
0029029500999991902012006004+61483+021350FM-12+000699999V0202301N013919999999N0000001N9+00061+99999098481ADDGF108991999999999999999999
0029029500999991902012013004+61483+021350FM-12+000699999V0202901N011819999999N0000001N9+00111+99999097841ADDGF108991999999999999999999
0029029500999991902012020004+61483+021350FM-12+000699999V0203201N015919999999N0000001N9+00111+99999097791ADDGF108991999999999999999999
0029029500999991902012106004+61483+021350FM-12+000699999V0202701N011819999999N0000001N9+00001+99999098081ADDGF108991999999999999999999
0029029500999991902012113004+61483+021350FM-12+000699999V0203601N011819999999N0000001N9-00941+99999099421ADDGF102991999999999999999999
0029029500999991902012120004+61483+021350FM-12+000699999V0200501N008219999999N0000001N9-01171+99999100361ADDGF107991999999999999999999
0029029500999991902012206004+61483+021350FM-12+000699999V0200501N008219999999N0000001N9-01391+99999101321ADDGF108991999999999999999999
0029029500999991902012213004+61483+021350FM-12+000699999V0201401N002119999999N0000001N9-01561+99999101521ADDGF102991999999999999999999
0029029500999991902012220004+61483+021350FM-12+000699999V0201801N013919999999N0000001N9-01221+99999101081ADDGF108991999999999999999999
0029029500999991902012306004+61483+021350FM-12+000699999V0202701N008219999999N0000001N9-00111+99999100871ADDGF108991999999999999999999
0029029500999991902012313004+61483+021350FM-12+000699999V0202501N002119999999N0000001N9-00061+99999100861ADDGF108991999999999999999999
0029029500999991902012320004+61483+021350FM-12+000699999V0202001N013919999999N0000001N9-00221+99999100281ADDGF108991999999999999999999
0029029500999991902012406004+61483+021350FM-12+000699999V0202301N002119999999N0000001N9-00061+99999099841ADDGF108991999999999999999999
0029029500999991902012413004+61483+021350FM-12+000699999V0202001N006219999999N0000001N9+00001+99999099781ADDGF106991999999999999999999
0029029500999991902012420004+61483+021350FM-12+000699999V0202301N013919999999N0000001N9+00111+99999099661ADDGF108991999999999999999999
0029029500999991902012506004+61483+021350FM-12+000699999V0202001N009819999999N0000001N9+00061+99999099321ADDGF108991999999999999999999
0029029500999991902012513004+61483+021350FM-12+000699999V0201801N008219999999N0000001N9+00111+99999098941ADDGF108991999999999999999999
0029029500999991902012520004+61483+021350FM-12+000699999V0202301N011819999999N0000001N9+00061+99999098781ADDGF108991999999999999999999
0029029500999991902012606004+61483+021350FM-12+000699999V0201801N013919999999N0000001N9+00061+99999098361ADDGF108991999999999999999999
0029029500999991902012613004+61483+021350FM-12+000699999V0201801N009819999999N0000001N9+00111+99999098431ADDGF108991999999999999999999
0029029500999991902012620004+61483+021350FM-12+000699999V0202301N009819999999N0000001N9-00111+99999098441ADDGF103991999999999999999999
0029029500999991902012706004+61483+021350FM-12+000699999V0201801N008219999999N0000001N9-00281+99999098541ADDGF102991999999999999999999
0029029500999991902012713004+61483+021350FM-12+000699999V0202001N006219999999N0000001N9-00061+99999098711ADDGF108991999999999999999999
0029029500999991902012720004+61483+021350FM-12+000699999V0202301N006219999999N0000001N9-00111+99999099101ADDGF108991999999999999999999
0029029500999991902012806004+61483+021350FM-12+000699999V0202001N006219999999N0000001N9-00221+99999098861ADDGF108991999999999999999999
0029029500999991902012813004+61483+021350FM-12+000699999V0202301N008219999999N0000001N9-00391+99999099201ADDGF102991999999999999999999
0029029500999991902012820004+61483+021350FM-12+000699999V0201401N006219999999N0000001N9-00941+99999099861ADDGF100991999999999999999999
0029029500999991902012906004+61483+021350FM-12+000699999V0201401N004119999999N0000001N9-00561+99999100181ADDGF108991999999999999999999
0029029500999991902012913004+61483+021350FM-12+000699999V0201401N002119999999N0000001N9-00501+99999100681ADDGF100991999999999999999999
0029029500999991902012920004+61483+021350FM-12+000699999V0200701N002119999999N0000001N9-00671+99999101481ADDGF108991999999999999999999
0029029500999991902013006004+61483+021350FM-12+000699999V0200501N004119999999N0000001N9-01111+99999102301ADDGF108991999999999999999999
0029029500999991902013013004+61483+021350FM-12+000699999V0201401N004119999999N0000001N9-01171+99999102661ADDGF100991999999999999999999
0029029500999991902013020004+61483+021350FM-12+000699999V0200501N006219999999N0000001N9-01331+99999103191ADDGF100991999999999999999999
0029029500999991902013106004+61483+021350FM-12+000699999V0200701N002119999999N0000001N9-01111+99999103661ADDGF108991999999999999999999
0029029500999991902013113004+61483+021350FM-12+000699999V0201401N006219999999N0000001N9-00781+99999104001ADDGF104991999999999999999999
0029029500999991902013120004+61483+021350FM-12+000699999V0201401N002119999999N0000001N9-01111+99999104281ADDGF104991999999999999999999
0029029500999991902020106004+61483+021350FM-12+000699999V0202301N011819999999N0000001N9-00061+99999103741ADDGF108991999999999999999999
0029029500999991902020113004+61483+021350FM-12+000699999V0202301N006219999999N0000001N9-00061+99999103551ADDGF108991999999999999999999
0029029500999991902020120004+61483+021350FM-12+000699999V0202301N008219999999N0000001N9-00111+99999103391ADDGF106991999999999999999999
0029029500999991902020206004+61483+021350FM-12+000699999V0203201N013919999999N0000001N9+00001+99999102921ADDGF100991999999999999999999
0029029500999991902020213004+61483+021350FM-12+000699999V0202901N006219999999N0000001N9+00001+99999102661ADDGF104991999999999999999999
0029029500999991902020220004+61483+021350FM-12+000699999V0202701N006219999999N0000001N9+00001+99999102191ADDGF108991999999999999999999
0029029500999991902020306004+61483+021350FM-12+000699999V0203601N008219999999N0000001N9-00281+99999101591ADDGF104991999999999999999999
0029029500999991902020313004+61483+021350FM-12+000699999V0203601N009819999999N0000001N9-00441+99999101711ADDGF102991999999999999999999
0029029500999991902020320004+61483+021350FM-12+000699999V0209991C000019999999N0000001N9-00671+99999101511ADDGF102991999999999999999999
0029029500999991902020406004+61483+021350FM-12+000699999V0200701N004119999999N0000001N9-01001+99999100721ADDGF107991999999999999999999
0029029500999991902020413004+61483+021350FM-12+000699999V0200701N004119999999N0000001N9-01331+99999100761ADDGF100991999999999999999999
0029029500999991902020420004+61483+021350FM-12+000699999V0200501N006219999999N0000001N9-01611+99999100991ADDGF100991999999999999999999
0029029500999991902020506004+61483+021350FM-12+000699999V0201801N006219999999N0000001N9-02171+99999101041ADDGF108991999999999999999999
0029029500999991902020513004+61483+021350FM-12+000699999V0202701N004119999999N0000001N9-00831+99999101151ADDGF101991999999999999999999
0029029500999991902020520004+61483+021350FM-12+000699999V0201401N004119999999N0000001N9-01441+99999101141ADDGF105991999999999999999999
0029029500999991902020606004+61483+021350FM-12+000699999V0201801N008219999999N0000001N9-00781+99999101081ADDGF108991999999999999999999
0029029500999991902020613004+61483+021350FM-12+000699999V0201801N008219999999N0000001N9-00501+99999100951ADDGF108991999999999999999999
0029029500999991902020620004+61483+021350FM-12+000699999V0201801N013919999999N0000001N9-00501+99999100501ADDGF108991999999999999999999
0029029500999991902020706004+61483+021350FM-12+000699999V0201601N009819999999N0000001N9-00331+99999099681ADDGF108991999999999999999999
0029029500999991902020713004+61483+021350FM-12+000699999V0201601N009819999999N0000001N9-00221+99999099301ADDGF108991999999999999999999
0029029500999991902020720004+61483+021350FM-12+000699999V0201601N006219999999N0000001N9-00781+99999098941ADDGF108991999999999999999999
0029029500999991902020806004+61483+021350FM-12+000699999V0200901N002119999999N0000001N9-00831+99999098791ADDGF108991999999999999999999
0029029500999991902020813004+61483+021350FM-12+000699999V0201401N002119999999N0000001N9-00721+99999098861ADDGF108991999999999999999999
0029029500999991902020820004+61483+021350FM-12+000699999V0201401N004119999999N0000001N9-00891+99999098951ADDGF108991999999999999999999
0029029500999991902020906004+61483+021350FM-12+000699999V0201801N009819999999N0000001N9-00501+99999098991ADDGF108991999999999999999999
0029029500999991902020913004+61483+021350FM-12+000699999V0203201N009819999999N0000001N9-01061+99999099141ADDGF108991999999999999999999
0029029500999991902020920004+61483+021350FM-12+000699999V0200201N013919999999N0000001N9-01331+99999099351ADDGF108991999999999999999999
0029029500999991902021006004+61483+021350FM-12+000699999V0202501N002119999999N0000001N9-01331+99999099681ADDGF108991999999999999999999
0029029500999991902021013004+61483+021350FM-12+000699999V0201401N002119999999N0000001N9-01221+99999099791ADDGF108991999999999999999999
0029029500999991902021020004+61483+021350FM-12+000699999V0200901N002119999999N0000001N9-01221+99999099871ADDGF108991999999999999999999
0029029500999991902021106004+61483+021350FM-12+000699999V0200701N004119999999N0000001N9-01441+99999099881ADDGF108991999999999999999999
0029029500999991902021113004+61483+021350FM-12+000699999V0200501N006219999999N0000001N9-01171+99999100031ADDGF108991999999999999999999
0029029500999991902021120004+61483+021350FM-12+000699999V0202301N006219999999N0000001N9-01111+99999100381ADDGF108991999999999999999999
0029029500999991902021206004+61483+021350FM-12+000699999V0201401N006219999999N0000001N9-01221+99999100201ADDGF108991999999999999999999
0029029500999991902021213004+61483+021350FM-12+000699999V0201601N009819999999N0000001N9-00281+99999099621ADDGF108991999999999999999999
0029029500999991902021220004+61483+021350FM-12+000699999V0202301N011819999999N0000001N9-00721+99999099591ADDGF108991999999999999999999
0029029500999991902021306004+61483+021350FM-12+000699999V0201601N004119999999N0000001N9-01501+99999099791ADDGF108991999999999999999999
0029029500999991902021313004+61483+021350FM-12+000699999V0201401N002119999999N0000001N9-00831+99999099871ADDGF108991999999999999999999
0029029500999991902021320004+61483+021350FM-12+000699999V0202701N006219999999N0000001N9-01221+99999100201ADDGF100991999999999999999999
0029029500999991902021406004+61483+021350FM-12+000699999V0202301N006219999999N0000001N9-01331+99999100621ADDGF100991999999999999999999
0029029500999991902021413004+61483+021350FM-12+000699999V0202301N008219999999N0000001N9-00831+99999100721ADDGF100991999999999999999999
0029029500999991902021420004+61483+021350FM-12+000699999V0202301N006219999999N0000001N9-00941+99999100821ADDGF100991999999999999999999
0029029500999991902021506004+61483+021350FM-12+000699999V0203201N011819999999N0000001N9-00671+99999101121ADDGF108991999999999999999999
0029029500999991902021513004+61483+021350FM-12+000699999V0202001N002119999999N0000001N9-00671+99999101391ADDGF102991999999999999999999
0029029500999991902021520004+61483+021350FM-12+000699999V0202001N008219999999N0000001N9-00561+99999101081ADDGF108991999999999999999999
0029029500999991902021606004+61483+021350FM-12+000699999V0202301N008219999999N0000001N9-00281+99999100981ADDGF107991999999999999999999
0029029500999991902021613004+61483+021350FM-12+000699999V0202501N015919999999N0000001N9+00061+99999100831ADDGF108991999999999999999999
0029029500999991902021620004+61483+021350FM-12+000699999V0202501N018019999999N0000001N9+00001+99999100681ADDGF108991999999999999999999
0029029500999991902021706004+61483+021350FM-12+000699999V0202501N018019999999N0000001N9+00061+99999101021ADDGF108991999999999999999999
0029029500999991902021713004+61483+021350FM-12+000699999V0202901N006219999999N0000001N9+00111+99999101881ADDGF108991999999999999999999
0029029500999991902021720004+61483+021350FM-12+000699999V0200501N004119999999N0000001N9-00281+99999102511ADDGF108991999999999999999999
0029029500999991902021806004+61483+021350FM-12+000699999V0201601N004119999999N0000001N9-01001+99999103061ADDGF103991999999999999999999
0029029500999991902021813004+61483+021350FM-12+000699999V0201601N004119999999N0000001N9-00281+99999103101ADDGF105991999999999999999999
0029029500999991902021820004+61483+021350FM-12+000699999V0201801N008219999999N0000001N9-00391+99999102951ADDGF108991999999999999999999
0029029500999991902021906004+61483+021350FM-12+000699999V0200901N002119999999N0000001N9-00501+99999102961ADDGF108991999999999999999999
0029029500999991902021913004+61483+021350FM-12+000699999V0201101N006219999999N0000001N9-00441+99999103101ADDGF108991999999999999999999
0029029500999991902021920004+61483+021350FM-12+000699999V0201801N002119999999N0000001N9-00671+99999103311ADDGF108991999999999999999999
0029029500999991902022006004+61483+021350FM-12+000699999V0202301N006219999999N0000001N9-00721+99999103021ADDGF108991999999999999999999
0029029500999991902022013004+61483+021350FM-12+000699999V0202301N009819999999N0000001N9-00391+99999102661ADDGF108991999999999999999999
0029029500999991902022020004+61483+021350FM-12+000699999V0201801N006219999999N0000001N9-00671+99999102461ADDGF106991999999999999999999
0029029500999991902022106004+61483+021350FM-12+000699999V0202301N008219999999N0000001N9-00441+99999102151ADDGF108991999999999999999999
0029029500999991902022113004+61483+021350FM-12+000699999V0202301N006219999999N0000001N9-00221+99999102041ADDGF101991999999999999999999
0029029500999991902022120004+61483+021350FM-12+000699999V0201801N008219999999N0000001N9-00721+99999101791ADDGF100991999999999999999999
0029029500999991902022206004+61483+021350FM-12+000699999V0202501N013919999999N0000001N9-00391+99999101391ADDGF108991999999999999999999
0029029500999991902022213004+61483+021350FM-12+000699999V0202501N008219999999N0000001N9+00001+99999101561ADDGF105991999999999999999999
0029029500999991902022220004+61483+021350FM-12+000699999V0202301N008219999999N0000001N9-00281+99999101661ADDGF103991999999999999999999
0029029500999991902022306004+61483+021350FM-12+000699999V0202301N006219999999N0000001N9-00281+99999101911ADDGF108991999999999999999999
0029029500999991902022313004+61483+021350FM-12+000699999V0202001N009819999999N0000001N9+00001+99999101991ADDGF108991999999999999999999
0029029500999991902022320004+61483+021350FM-12+000699999V0202001N011819999999N0000001N9-00331+99999102141ADDGF108991999999999999999999
0029029500999991902022406004+61483+021350FM-12+000699999V0202301N011819999999N0000001N9-00391+99999101941ADDGF108991999999999999999999
0029029500999991902022413004+61483+021350FM-12+000699999V0202301N009819999999N0000001N9+00001+99999101831ADDGF108991999999999999999999
0029029500999991902022420004+61483+021350FM-12+000699999V0201801N004119999999N0000001N9-00501+99999101741ADDGF104991999999999999999999
0029029500999991902022506004+61483+021350FM-12+000699999V0201601N004119999999N0000001N9-00891+99999101781ADDGF102991999999999999999999
0029029500999991902022513004+61483+021350FM-12+000699999V0201801N006219999999N0000001N9-00061+99999101881ADDGF108991999999999999999999
0029029500999991902022520004+61483+021350FM-12+000699999V0201801N004119999999N0000001N9-00281+99999101941ADDGF103991999999999999999999
0029029500999991902022606004+61483+021350FM-12+000699999V0200901N002119999999N0000001N9-00501+99999102031ADDGF108991999999999999999999
0029029500999991902022613004+61483+021350FM-12+000699999V0201401N004119999999N0000001N9-00281+99999102121ADDGF108991999999999999999999
0029029500999991902022620004+61483+021350FM-12+000699999V0201101N004119999999N0000001N9-00781+99999102071ADDGF100991999999999999999999
0029029500999991902022706004+61483+021350FM-12+000699999V0201401N008219999999N0000001N9-00721+99999101871ADDGF108991999999999999999999
0029029500999991902022713004+61483+021350FM-12+000699999V0201401N008219999999N0000001N9-00221+99999101761ADDGF108991999999999999999999
0029029500999991902022720004+61483+021350FM-12+000699999V0201401N009819999999N0000001N9-00391+99999101561ADDGF108991999999999999999999
0029029500999991902022806004+61483+021350FM-12+000699999V0201601N008219999999N0000001N9-00221+99999101261ADDGF108991999999999999999999
0029029500999991902022813004+61483+021350FM-12+000699999V0201401N008219999999N0000001N9-00171+99999101121ADDGF108991999999999999999999
0000029500999991902022820004+61483+021350FM-12+000699999V02099999999999999999N0000001N9-00221+99999100961
0029029500999991902030106004+61483+021350FM-12+000699999V0201401N002119999999N0000001N9+00001+99999100991ADDGF108991999999999999999999
0029029500999991902030113004+61483+021350FM-12+000699999V0201401N004119999999N0000001N9+00061+99999101021ADDGF108991999999999999999999
0029029500999991902030120004+61483+021350FM-12+000699999V0201401N004119999999N0000001N9+00061+99999101071ADDGF108991999999999999999999
0029029500999991902030206004+61483+021350FM-12+000699999V0200901N002119999999N0000001N9+00001+99999101101ADDGF108991999999999999999999
0029029500999991902030213004+61483+021350FM-12+000699999V0200501N006219999999N0000001N9+00001+99999101281ADDGF108991999999999999999999
0029029500999991902030220004+61483+021350FM-12+000699999V0200701N008219999999N0000001N9-00221+99999101511ADDGF108991999999999999999999
0029029500999991902030306004+61483+021350FM-12+000699999V0200701N008219999999N0000001N9-00441+99999101751ADDGF108991999999999999999999
0029029500999991902030313004+61483+021350FM-12+000699999V0200701N006219999999N0000001N9-00561+99999101981ADDGF104991999999999999999999
0029029500999991902030320004+61483+021350FM-12+000699999V0200701N002119999999N0000001N9-00501+99999102141ADDGF108991999999999999999999
0029029500999991902030406004+61483+021350FM-12+000699999V0200901N002119999999N0000001N9-00611+99999102261ADDGF108991999999999999999999
0029029500999991902030413004+61483+021350FM-12+000699999V0201401N004119999999N0000001N9-00391+99999102431ADDGF108991999999999999999999
0029029500999991902030420004+61483+021350FM-12+000699999V0201401N004119999999N0000001N9-00721+99999102481ADDGF108991999999999999999999
0029029500999991902030506004+61483+021350FM-12+000699999V0201601N006219999999N0000001N9-00891+99999102271ADDGF108991999999999999999999
0029029500999991902030513004+61483+021350FM-12+000699999V0201401N009819999999N0000001N9-00281+99999101841ADDGF108991999999999999999999
0029029500999991902030520004+61483+021350FM-12+000699999V0201801N013919999999N0000001N9-00281+99999101241ADDGF108991999999999999999999
0029029500999991902030606004+61483+021350FM-12+000699999V0202301N008219999999N0000001N9+00001+99999100481ADDGF108991999999999999999999
0029029500999991902030613004+61483+021350FM-12+000699999V0202701N004119999999N0000001N9+00001+99999100431ADDGF108991999999999999999999
0029029500999991902030620004+61483+021350FM-12+000699999V0202301N002119999999N0000001N9-00171+99999100181ADDGF108991999999999999999999
0029029500999991902030706004+61483+021350FM-12+000699999V0202301N006219999999N0000001N9+00001+99999099871ADDGF108991999999999999999999
0029029500999991902030713004+61483+021350FM-12+000699999V0202001N004119999999N0000001N9+00221+99999099741ADDGF108991999999999999999999
0029029500999991902030720004+61483+021350FM-12+000699999V0200701N009819999999N0000001N9-00221+99999099641ADDGF108991999999999999999999
0029029500999991902030806004+61483+021350FM-12+000699999V0200701N008219999999N0000001N9-01001+99999100041ADDGF108991999999999999999999
0029029500999991902030813004+61483+021350FM-12+000699999V0200701N008219999999N0000001N9-00831+99999100181ADDGF108991999999999999999999
0029029500999991902030820004+61483+021350FM-12+000699999V0200701N008219999999N0000001N9-01281+99999100221ADDGF108991999999999999999999
0029029500999991902030906004+61483+021350FM-12+000699999V0200501N006219999999N0000001N9-01721+99999100071ADDGF106991999999999999999999
0029029500999991902030913004+61483+021350FM-12+000699999V0200201N004119999999N0000001N9-01221+99999100041ADDGF103991999999999999999999
0029029500999991902030920004+61483+021350FM-12+000699999V0200701N006219999999N0000001N9-01891+99999100201ADDGF100991999999999999999999
0029029500999991902031006004+61483+021350FM-12+000699999V0201801N002119999999N0000001N9-02171+99999100341ADDGF103991999999999999999999
0029029500999991902031013004+61483+021350FM-12+000699999V0202501N006219999999N0000001N9-00721+99999100201ADDGF103991999999999999999999
0029029500999991902031020004+61483+021350FM-12+000699999V0202301N004119999999N0000001N9-00891+99999100111ADDGF102991999999999999999999
0029029500999991902031106004+61483+021350FM-12+000699999V0200701N004119999999N0000001N9-01281+99999100521ADDGF104991999999999999999999
0029029500999991902031113004+61483+021350FM-12+000699999V0200501N004119999999N0000001N9-00891+99999100991ADDGF100991999999999999999999
0029029500999991902031120004+61483+021350FM-12+000699999V0200501N006219999999N0000001N9-01891+99999101471ADDGF102991999999999999999999
0029029500999991902031206004+61483+021350FM-12+000699999V0201401N002119999999N0000001N9-02441+99999102041ADDGF103991999999999999999999
0029029500999991902031213004+61483+021350FM-12+000699999V0202301N006219999999N0000001N9-00831+99999102101ADDGF106991999999999999999999
0029029500999991902031220004+61483+021350FM-12+000699999V0202301N011819999999N0000001N9-01001+99999101831ADDGF108991999999999999999999
0029029500999991902031306004+61483+021350FM-12+000699999V0202701N002119999999N0000001N9-00671+99999101781ADDGF105991999999999999999999
0029029500999991902031313004+61483+021350FM-12+000699999V0202301N002119999999N0000001N9-00171+99999102071ADDGF102991999999999999999999
0029029500999991902031320004+61483+021350FM-12+000699999V0202001N006219999999N0000001N9-01001+99999101981ADDGF100991999999999999999999
0029029500999991902031406004+61483+021350FM-12+000699999V0202301N013919999999N0000001N9-00281+99999101421ADDGF108991999999999999999999
0029029500999991902031413004+61483+021350FM-12+000699999V0202301N015919999999N0000001N9-00171+99999101081ADDGF108991999999999999999999
0029029500999991902031420004+61483+021350FM-12+000699999V0202301N013919999999N0000001N9-00281+99999100791ADDGF100991999999999999999999
0029029500999991902031506004+61483+021350FM-12+000699999V0202301N009819999999N0000001N9-00111+99999100441ADDGF108991999999999999999999
0029029500999991902031513004+61483+021350FM-12+000699999V0202001N006219999999N0000001N9-00221+99999100271ADDGF103991999999999999999999
0029029500999991902031520004+61483+021350FM-12+000699999V0201801N006219999999N0000001N9-00281+99999100181ADDGF107991999999999999999999
0029029500999991902031606004+61483+021350FM-12+000699999V0202001N006219999999N0000001N9-00171+99999100151ADDGF108991999999999999999999
0029029500999991902031613004+61483+021350FM-12+000699999V0202301N006219999999N0000001N9+00171+99999100181ADDGF108991999999999999999999
0029029500999991902031620004+61483+021350FM-12+000699999V0202301N006219999999N0000001N9-00061+99999100141ADDGF108991999999999999999999
0029029500999991902031706004+61483+021350FM-12+000699999V0203401N008219999999N0000001N9-00611+99999100201ADDGF100991999999999999999999
0029029500999991902031713004+61483+021350FM-12+000699999V0203201N009819999999N0000001N9-00281+99999100161ADDGF100991999999999999999999
0029029500999991902031720004+61483+021350FM-12+000699999V0203601N009819999999N0000001N9-00501+99999100111ADDGF108991999999999999999999
0029029500999991902031806004+61483+021350FM-12+000699999V0203601N008219999999N0000001N9-00781+99999100471ADDGF108991999999999999999999
0029029500999991902031813004+61483+021350FM-12+000699999V0203401N008219999999N0000001N9-00561+99999100841ADDGF102991999999999999999999
0029029500999991902031820004+61483+021350FM-12+000699999V0202701N002119999999N0000001N9-00781+99999100911ADDGF108991999999999999999999
0029029500999991902031906004+61483+021350FM-12+000699999V0201601N009819999999N0000001N9-00441+99999100111ADDGF108991999999999999999999
0029029500999991902031913004+61483+021350FM-12+000699999V0202301N008219999999N0000001N9+00171+99999099191ADDGF108991999999999999999999
0029029500999991902031920004+61483+021350FM-12+000699999V0203601N002119999999N0000001N9-00391+99999099111ADDGF104991999999999999999999
0029029500999991902032006004+61483+021350FM-12+000699999V0200201N002119999999N0000001N9-00671+99999099381ADDGF108991999999999999999999
0029029500999991902032013004+61483+021350FM-12+000699999V0200701N006219999999N0000001N9-00331+99999099271ADDGF108991999999999999999999
0029029500999991902032020004+61483+021350FM-12+000699999V0200901N011819999999N0000001N9-00671+99999098641ADDGF108991999999999999999999
0029029500999991902032106004+61483+021350FM-12+000699999V0200701N008219999999N0000001N9-01171+99999099031ADDGF108991999999999999999999
0029029500999991902032113004+61483+021350FM-12+000699999V0200501N009819999999N0000001N9-01171+99999099661ADDGF108991999999999999999999
0029029500999991902032120004+61483+021350FM-12+000699999V0200701N008219999999N0000001N9-01391+99999100061ADDGF108991999999999999999999
0029029500999991902032206004+61483+021350FM-12+000699999V0201401N004119999999N0000001N9-01171+99999100101ADDGF108991999999999999999999
0029029500999991902032213004+61483+021350FM-12+000699999V0200701N006219999999N0000001N9-00561+99999100161ADDGF108991999999999999999999
0029029500999991902032220004+61483+021350FM-12+000699999V0200901N008219999999N0000001N9-00671+99999100121ADDGF108991999999999999999999
0029029500999991902032306004+61483+021350FM-12+000699999V0201401N002119999999N0000001N9-00561+99999100551ADDGF108991999999999999999999
0029029500999991902032313004+61483+021350FM-12+000699999V0202301N002119999999N0000001N9-00111+99999101041ADDGF108991999999999999999999
0029029500999991902032320004+61483+021350FM-12+000699999V0201401N004119999999N0000001N9-00281+99999101241ADDGF108991999999999999999999
0029029500999991902032406004+61483+021350FM-12+000699999V0200701N009819999999N0000001N9-00331+99999100921ADDGF108991999999999999999999
0029029500999991902032413004+61483+021350FM-12+000699999V0201601N009819999999N0000001N9+00221+99999100421ADDGF108991999999999999999999
0029029500999991902032420004+61483+021350FM-12+000699999V0201601N006219999999N0000001N9+00171+99999100351ADDGF108991999999999999999999
0029029500999991902032506004+61483+021350FM-12+000699999V0209991C000019999999N0000001N9+00061+99999100391ADDGF108991999999999999999999
0029029500999991902032513004+61483+021350FM-12+000699999V0201601N002119999999N0000001N9+00221+99999100301ADDGF108991999999999999999999
0029029500999991902032520004+61483+021350FM-12+000699999V0201601N006219999999N0000001N9+00111+99999100061ADDGF108991999999999999999999
0029029500999991902032606004+61483+021350FM-12+000699999V0201601N008219999999N0000001N9+00001+99999099821ADDGF108991999999999999999999
0029029500999991902032613004+61483+021350FM-12+000699999V0202001N011819999999N0000001N9+00061+99999100081ADDGF108991999999999999999999
0029029500999991902032620004+61483+021350FM-12+000699999V0202301N006219999999N0000001N9-00171+99999100351ADDGF108991999999999999999999
0029029500999991902032706004+61483+021350FM-12+000699999V0203601N006219999999N0000001N9-00221+99999100181ADDGF108991999999999999999999
0029029500999991902032713004+61483+021350FM-12+000699999V0203601N009819999999N0000001N9-00111+99999100201ADDGF108991999999999999999999
0029029500999991902032720004+61483+021350FM-12+000699999V0200201N006219999999N0000001N9-00331+99999100471ADDGF108991999999999999999999
0029029500999991902032806004+61483+021350FM-12+000699999V0200201N008219999999N0000001N9-00611+99999100911ADDGF108991999999999999999999
0029029500999991902032813004+61483+021350FM-12+000699999V0200201N006219999999N0000001N9-00391+99999101101ADDGF108991999999999999999999
0029029500999991902032820004+61483+021350FM-12+000699999V0203601N002119999999N0000001N9-00501+99999101001ADDGF108991999999999999999999
0029029500999991902032906004+61483+021350FM-12+000699999V0203601N002119999999N0000001N9-00501+99999100631ADDGF108991999999999999999999
0029029500999991902032913004+61483+021350FM-12+000699999V0203201N002119999999N0000001N9-00111+99999100441ADDGF108991999999999999999999
0029029500999991902032920004+61483+021350FM-12+000699999V0202001N006219999999N0000001N9-00721+99999100261ADDGF100991999999999999999999
0029029500999991902033006004+61483+021350FM-12+000699999V0201601N004119999999N0000001N9-00941+99999100321ADDGF103991999999999999999999
0029029500999991902033013004+61483+021350FM-12+000699999V0201601N004119999999N0000001N9+00171+99999100401ADDGF108991999999999999999999
0029029500999991902033020004+61483+021350FM-12+000699999V0201401N004119999999N0000001N9-00281+99999100711ADDGF108991999999999999999999
0029029500999991902033106004+61483+021350FM-12+000699999V0201401N002119999999N0000001N9-00221+99999100821ADDGF108991999999999999999999
0029029500999991902033113004+61483+021350FM-12+000699999V0203201N002119999999N0000001N9-00061+99999100831ADDGF102991999999999999999999
0029029500999991902033120004+61483+021350FM-12+000699999V0200501N004119999999N0000001N9-00671+99999100741ADDGF100991999999999999999999
0029029500999991902040106004+61483+021350FM-12+000699999V0201401N004119999999N0000001N9-01001+99999100701ADDGF103991999999999999999999
0029029500999991902040113004+61483+021350FM-12+000699999V0203601N004119999999N0000001N9-00111+99999100521ADDGF102991999999999999999999
0029029500999991902040120004+61483+021350FM-12+000699999V0200501N002119999999N0000001N9-00721+99999100341ADDGF101991999999999999999999
0029029500999991902040206004+61483+021350FM-12+000699999V0209991C000019999999N0000001N9-00391+99999100061ADDGF108991999999999999999999
0029029500999991902040213004+61483+021350FM-12+000699999V0203201N002119999999N0000001N9+00001+99999999999ADDGF108991999999999999999999
0029029500999991902040220004+61483+021350FM-12+000699999V0203201N002119999999N0000001N9-00281+99999100081ADDGF108991999999999999999999
0029029500999991902040306004+61483+021350FM-12+000699999V0200201N004119999999N0000001N9-00501+99999100461ADDGF108991999999999999999999
0029029500999991902040313004+61483+021350FM-12+000699999V0202701N004119999999N0000001N9-00221+99999100741ADDGF103991999999999999999999
0029029500999991902040320004+61483+021350FM-12+000699999V0201601N004119999999N0000001N9-00611+99999100911ADDGF108991999999999999999999
0029029500999991902040406004+61483+021350FM-12+000699999V0201601N006219999999N0000001N9-00561+99999100911ADDGF106991999999999999999999
0029029500999991902040413004+61483+021350FM-12+000699999V0202301N004119999999N0000001N9+00331+99999100921ADDGF106991999999999999999999
0029029500999991902040420004+61483+021350FM-12+000699999V0200701N004119999999N0000001N9-00221+99999100901ADDGF108991999999999999999999
0029029500999991902040506004+61483+021350FM-12+000699999V0200701N006219999999N0000001N9-00721+99999100921ADDGF100991999999999999999999
0029029500999991902040513004+61483+021350FM-12+000699999V0200501N008219999999N0000001N9-00061+99999100861ADDGF102991999999999999999999
0029029500999991902040520004+61483+021350FM-12+000699999V0200501N006219999999N0000001N9-00721+99999100821ADDGF100991999999999999999999
0029029500999991902040606004+61483+021350FM-12+000699999V0202701N004119999999N0000001N9-00331+99999100701ADDGF108991999999999999999999
0029029500999991902040613004+61483+021350FM-12+000699999V0203201N006219999999N0000001N9+00001+99999100761ADDGF108991999999999999999999
0029029500999991902040620004+61483+021350FM-12+000699999V0202501N006219999999N0000001N9-00561+99999100741ADDGF102991999999999999999999
0029029500999991902040706004+61483+021350FM-12+000699999V0209991C000019999999N0000001N9-00831+99999101121ADDGF101991999999999999999999
0029029500999991902040713004+61483+021350FM-12+000699999V0203201N004119999999N0000001N9-00281+99999101511ADDGF101991999999999999999999
0029029500999991902040720004+61483+021350FM-12+000699999V0200501N006219999999N0000001N9-00831+99999101661ADDGF100991999999999999999999
0029029500999991902040806004+61483+021350FM-12+000699999V0202501N002119999999N0000001N9-01171+99999101781ADDGF103991999999999999999999
0029029500999991902040813004+61483+021350FM-12+000699999V0202901N006219999999N0000001N9-00331+99999101761ADDGF102991999999999999999999
0029029500999991902040820004+61483+021350FM-12+000699999V0203601N002119999999N0000001N9-00891+99999101621ADDGF100991999999999999999999
0029029500999991902040906004+61483+021350FM-12+000699999V0209991C000019999999N0000001N9-01281+99999101681ADDGF100991999999999999999999
0029029500999991902040913004+61483+021350FM-12+000699999V0203401N002119999999N0000001N9-00281+99999102041ADDGF101991999999999999999999
0029029500999991902040920004+61483+021350FM-12+000699999V0200201N002119999999N0000001N9-01001+99999102311ADDGF100991999999999999999999
0029029500999991902041006004+61483+021350FM-12+000699999V0200501N002119999999N0000001N9-01281+99999102711ADDGF100991999999999999999999
0029029500999991902041013004+61483+021350FM-12+000699999V0203201N002119999999N0000001N9-00221+99999102981ADDGF100991999999999999999999
0029029500999991902041020004+61483+021350FM-12+000699999V0209991C000019999999N0000001N9-00831+99999103161ADDGF100991999999999999999999
0029029500999991902041106004+61483+021350FM-12+000699999V0201601N004119999999N0000001N9-00721+99999103281ADDGF108991999999999999999999
0029029500999991902041113004+61483+021350FM-12+000699999V0202001N006219999999N0000001N9+00171+99999103361ADDGF108991999999999999999999
0029029500999991902041120004+61483+021350FM-12+000699999V0202001N006219999999N0000001N9-00501+99999103151ADDGF100991999999999999999999
0029029500999991902041206004+61483+021350FM-12+000699999V0202501N004119999999N0000001N9-00561+99999102941ADDGF100991999999999999999999
0029029500999991902041213004+61483+021350FM-12+000699999V0202301N004119999999N0000001N9+00001+99999102951ADDGF102991999999999999999999
0029029500999991902041220004+61483+021350FM-12+000699999V0209991C000019999999N0000001N9-00441+99999102781ADDGF100991999999999999999999
0029029500999991902041306004+61483+021350FM-12+000699999V0209991C000019999999N0000001N9-00891+99999102791ADDGF100991999999999999999999
0029029500999991902041313004+61483+021350FM-12+000699999V0203601N004119999999N0000001N9+00061+99999102841ADDGF101991999999999999999999
0029029500999991902041320004+61483+021350FM-12+000699999V0200501N004119999999N0000001N9-00501+99999102831ADDGF100991999999999999999999
0029029500999991902041406004+61483+021350FM-12+000699999V0200501N002119999999N0000001N9-00501+99999102981ADDGF102991999999999999999999
0029029500999991902041413004+61483+021350FM-12+000699999V0203201N002119999999N0000001N9+00111+99999103071ADDGF100991999999999999999999
0029029500999991902041420004+61483+021350FM-12+000699999V0209991C000019999999N0000001N9-00281+99999103101ADDGF100991999999999999999999
0029029500999991902041506004+61483+021350FM-12+000699999V0201801N002119999999N0000001N9-00441+99999103261ADDGF100991999999999999999999
0029029500999991902041513004+61483+021350FM-12+000699999V0202001N004119999999N0000001N9+00281+99999103241ADDGF100991999999999999999999
0029029500999991902041520004+61483+021350FM-12+000699999V0201601N006219999999N0000001N9-00391+99999103071ADDGF102991999999999999999999
0029029500999991902041606004+61483+021350FM-12+000699999V0202001N008219999999N0000001N9-00221+99999103041ADDGF103991999999999999999999
0029029500999991902041613004+61483+021350FM-12+000699999V0202001N009819999999N0000001N9+00281+99999102841ADDGF102991999999999999999999
0029029500999991902041620004+61483+021350FM-12+000699999V0202001N009819999999N0000001N9-00111+99999102661ADDGF102991999999999999999999
0029029500999991902041706004+61483+021350FM-12+000699999V0202001N008219999999N0000001N9-00171+99999102441ADDGF100991999999999999999999
0029029500999991902041713004+61483+021350FM-12+000699999V0202001N008219999999N0000001N9+00501+99999102401ADDGF100991999999999999999999
0029029500999991902041720004+61483+021350FM-12+000699999V0201601N008219999999N0000001N9-00061+99999102241ADDGF100991999999999999999999
0029029500999991902041806004+61483+021350FM-12+000699999V0201601N008219999999N0000001N9+00061+99999101941ADDGF100991999999999999999999
0029029500999991902041813004+61483+021350FM-12+000699999V0201601N004119999999N0000001N9+00721+99999101751ADDGF103991999999999999999999
0029029500999991902041820004+61483+021350FM-12+000699999V0201801N002119999999N0000001N9+00001+99999101541ADDGF104991999999999999999999
0029029500999991902041906004+61483+021350FM-12+000699999V0201801N002119999999N0000001N9+00221+99999101541ADDGF108991999999999999999999
0029029500999991902041913004+61483+021350FM-12+000699999V0202901N002119999999N0000001N9+00221+99999101871ADDGF108991999999999999999999
0029029500999991902041920004+61483+021350FM-12+000699999V0201801N002119999999N0000001N9-00221+99999102081ADDGF106991999999999999999999
0029029500999991902042006004+61483+021350FM-12+000699999V0200501N006219999999N0000001N9-00061+99999102271ADDGF101991999999999999999999
0029029500999991902042013004+61483+021350FM-12+000699999V0203401N009819999999N0000001N9+00171+99999102471ADDGF101991999999999999999999
0029029500999991902042020004+61483+021350FM-12+000699999V0200501N006219999999N0000001N9-00111+99999102741ADDGF100991999999999999999999
0029029500999991902042106004+61483+021350FM-12+000699999V0200501N004119999999N0000001N9-00281+99999102801ADDGF100991999999999999999999
0029029500999991902042113004+61483+021350FM-12+000699999V0203401N002119999999N0000001N9+00171+99999102801ADDGF100991999999999999999999
0029029500999991902042120004+61483+021350FM-12+000699999V0200701N004119999999N0000001N9-00061+99999102821ADDGF100991999999999999999999
0029029500999991902042206004+61483+021350FM-12+000699999V0201101N004119999999N0000001N9-00111+99999102911ADDGF100991999999999999999999
0029029500999991902042213004+61483+021350FM-12+000699999V0203401N002119999999N0000001N9+00171+99999102801ADDGF100991999999999999999999
0029029500999991902042220004+61483+021350FM-12+000699999V0200501N004119999999N0000001N9-00391+99999102681ADDGF100991999999999999999999
0029029500999991902042306004+61483+021350FM-12+000699999V0201601N002119999999N0000001N9-00171+99999102641ADDGF100991999999999999999999
0029029500999991902042313004+61483+021350FM-12+000699999V0202301N004119999999N0000001N9+00281+99999102551ADDGF100991999999999999999999
0029029500999991902042320004+61483+021350FM-12+000699999V0202001N004119999999N0000001N9-00221+99999102381ADDGF108991999999999999999999
0029029500999991902042406004+61483+021350FM-12+000699999V0202001N008219999999N0000001N9+00061+99999102021ADDGF108991999999999999999999
0029029500999991902042413004+61483+021350FM-12+000699999V0202701N004119999999N0000001N9+00171+99999102061ADDGF101991999999999999999999
0029029500999991902042420004+61483+021350FM-12+000699999V0200201N002119999999N0000001N9-00171+99999102231ADDGF102991999999999999999999
0029029500999991902042506004+61483+021350FM-12+000699999V0200701N004119999999N0000001N9-00111+99999102311ADDGF100991999999999999999999
0029029500999991902042513004+61483+021350FM-12+000699999V0203601N004119999999N0000001N9+00171+99999102341ADDGF101991999999999999999999
0029029500999991902042520004+61483+021350FM-12+000699999V0200501N002119999999N0000001N9-00281+99999102181ADDGF102991999999999999999999
0029029500999991902042606004+61483+021350FM-12+000699999V0200501N002119999999N0000001N9-00171+99999101991ADDGF108991999999999999999999
0029029500999991902042613004+61483+021350FM-12+000699999V0200501N008219999999N0000001N9+00171+99999101981ADDGF101991999999999999999999
0029029500999991902042620004+61483+021350FM-12+000699999V0200701N006219999999N0000001N9-00391+99999102241ADDGF100991999999999999999999
0029029500999991902042706004+61483+021350FM-12+000699999V0200501N006219999999N0000001N9-00501+99999102341ADDGF100991999999999999999999
0029029500999991902042713004+61483+021350FM-12+000699999V0203601N008219999999N0000001N9-00061+99999102231ADDGF100991999999999999999999
0029029500999991902042720004+61483+021350FM-12+000699999V0200501N002119999999N0000001N9-00611+99999102311ADDGF100991999999999999999999
0029029500999991902042806004+61483+021350FM-12+000699999V0200501N002119999999N0000001N9-00501+99999102301ADDGF100991999999999999999999
0029029500999991902042813004+61483+021350FM-12+000699999V0203201N004119999999N0000001N9+00001+99999102191ADDGF101991999999999999999999
0029029500999991902042820004+61483+021350FM-12+000699999V0200501N004119999999N0000001N9-00331+99999101991ADDGF106991999999999999999999
0029029500999991902042906004+61483+021350FM-12+000699999V0200501N004119999999N0000001N9-00171+99999101801ADDGF103991999999999999999999
0029029500999991902042913004+61483+021350FM-12+000699999V0203401N006219999999N0000001N9+00061+99999101591ADDGF102991999999999999999999
0029029500999991902042920004+61483+021350FM-12+000699999V0200501N004119999999N0000001N9-00331+99999101341ADDGF101991999999999999999999
0029029500999991902043006004+61483+021350FM-12+000699999V0200501N002119999999N0000001N9-00061+99999100991ADDGF104991999999999999999999
0029029500999991902043013004+61483+021350FM-12+000699999V0203401N002119999999N0000001N9+00171+99999100741ADDGF102991999999999999999999
0029029500999991902043020004+61483+021350FM-12+000699999V0200501N004119999999N0000001N9-00281+99999100481ADDGF102991999999999999999999
0029029500999991902050106004+61483+021350FM-12+000699999V0200501N002119999999N0000001N9-00221+99999100271ADDGF101991999999999999999999
0029029500999991902050113004+61483+021350FM-12+000699999V0203601N004119999999N0000001N9+00171+99999100141ADDGF102991999999999999999999
0029029500999991902050120004+61483+021350FM-12+000699999V0200501N004119999999N0000001N9-00221+99999100101ADDGF100991999999999999999999
0029029500999991902050206004+61483+021350FM-12+000699999V0200901N004119999999N0000001N9+00061+99999100121ADDGF108991999999999999999999
0029029500999991902050213004+61483+021350FM-12+000699999V0201101N006219999999N0000001N9+00331+99999100181ADDGF108991999999999999999999
0029029500999991902050220004+61483+021350FM-12+000699999V0200901N002119999999N0000001N9+00111+99999100321ADDGF108991999999999999999999
0029029500999991902050306004+61483+021350FM-12+000699999V0201101N002119999999N0000001N9+00221+99999100511ADDGF108991999999999999999999
0029029500999991902050313004+61483+021350FM-12+000699999V0203401N004119999999N0000001N9+00221+99999100751ADDGF108991999999999999999999
0029029500999991902050320004+61483+021350FM-12+000699999V0200701N004119999999N0000001N9+00111+99999100741ADDGF108991999999999999999999
0029029500999991902050406004+61483+021350FM-12+000699999V0201101N004119999999N0000001N9+00391+99999100721ADDGF108991999999999999999999
0029029500999991902050413004+61483+021350FM-12+000699999V0200701N006219999999N0000001N9+00721+99999100721ADDGF102991999999999999999999
0029029500999991902050420004+61483+021350FM-12+000699999V0201401N002119999999N0000001N9+00331+99999100681ADDGF105991999999999999999999
0029029500999991902050506004+61483+021350FM-12+000699999V0200701N004119999999N0000001N9+00441+99999100721ADDGF106991999999999999999999
0029029500999991902050513004+61483+021350FM-12+000699999V0203601N002119999999N0000001N9+00281+99999100861ADDGF108991999999999999999999
0029029500999991902050520004+61483+021350FM-12+000699999V0200701N004119999999N0000001N9+00281+99999101031ADDGF107991999999999999999999
0029029500999991902050606004+61483+021350FM-12+000699999V0200501N006219999999N0000001N9+00111+99999101181ADDGF102991999999999999999999
0029029500999991902050613004+61483+021350FM-12+000699999V0201601N008219999999N0000001N9+00391+99999101391ADDGF108991999999999999999999
0029029500999991902050620004+61483+021350FM-12+000699999V0200701N006219999999N0000001N9+00221+99999101521ADDGF104991999999999999999999
0029029500999991902050706004+61483+021350FM-12+000699999V0200501N008219999999N0000001N9+00061+99999101671ADDGF100991999999999999999999
0029029500999991902050713004+61483+021350FM-12+000699999V0200501N009819999999N0000001N9+00281+99999101541ADDGF106991999999999999999999
0029029500999991902050720004+61483+021350FM-12+000699999V0203601N011819999999N0000001N9+00001+99999101361ADDGF108991999999999999999999
0029029500999991902050806004+61483+021350FM-12+000699999V0203401N013919999999N0000001N9+00001+99999100911ADDGF108991999999999999999999
0029029500999991902050813004+61483+021350FM-12+000699999V0200501N011819999999N0000001N9+00281+99999100991ADDGF108991999999999999999999
0029029500999991902050820004+61483+021350FM-12+000699999V0200501N009819999999N0000001N9+00061+99999101351ADDGF108991999999999999999999
0029029500999991902050906004+61483+021350FM-12+000699999V0200701N009819999999N0000001N9+00111+99999101631ADDGF108991999999999999999999
0029029500999991902050913004+61483+021350FM-12+000699999V0200501N008219999999N0000001N9+00441+99999101801ADDGF107991999999999999999999
0029029500999991902050920004+61483+021350FM-12+000699999V0200701N011819999999N0000001N9+00171+99999101831ADDGF108991999999999999999999
0029029500999991902051006004+61483+021350FM-12+000699999V0200701N008219999999N0000001N9+00221+99999101671ADDGF108991999999999999999999
0029029500999991902051013004+61483+021350FM-12+000699999V0200701N008219999999N0000001N9+00671+99999101511ADDGF108991999999999999999999
0029029500999991902051020004+61483+021350FM-12+000699999V0200701N004119999999N0000001N9+00221+99999101441ADDGF107991999999999999999999
0029029500999991902051106004+61483+021350FM-12+000699999V0200501N008219999999N0000001N9+00171+99999101111ADDGF108991999999999999999999
0029029500999991902051113004+61483+021350FM-12+000699999V0200201N006219999999N0000001N9+00441+99999100961ADDGF106991999999999999999999
0029029500999991902051120004+61483+021350FM-12+000699999V0203601N006219999999N0000001N9+00171+99999100921ADDGF107991999999999999999999
0029029500999991902051206004+61483+021350FM-12+000699999V0202701N004119999999N0000001N9+00221+99999100831ADDGF105991999999999999999999
0029029500999991902051213004+61483+021350FM-12+000699999V0202501N006219999999N0000001N9+00281+99999100921ADDGF106991999999999999999999
0029029500999991902051220004+61483+021350FM-12+000699999V0202701N004119999999N0000001N9-00061+99999100941ADDGF108991999999999999999999
0029029500999991902051306004+61483+021350FM-12+000699999V0202701N002119999999N0000001N9-00061+99999101041ADDGF108991999999999999999999
0029029500999991902051313004+61483+021350FM-12+000699999V0203201N006219999999N0000001N9+00111+99999101121ADDGF108991999999999999999999
0029029500999991902051320004+61483+021350FM-12+000699999V0203401N004119999999N0000001N9-00061+99999101121ADDGF108991999999999999999999
0029029500999991902051406004+61483+021350FM-12+000699999V0201401N002119999999N0000001N9+00111+99999101191ADDGF101991999999999999999999
0029029500999991902051413004+61483+021350FM-12+000699999V0201601N009819999999N0000001N9+00941+99999101111ADDGF108991999999999999999999
0029029500999991902051420004+61483+021350FM-12+000699999V0201401N015919999999N0000001N9+00611+99999101061ADDGF108991999999999999999999
0029029500999991902051506004+61483+021350FM-12+000699999V0201601N006219999999N0000001N9+00441+99999100871ADDGF108991999999999999999999
0029029500999991902051513004+61483+021350FM-12+000699999V0202001N004119999999N0000001N9+00781+99999101081ADDGF108991999999999999999999
0029029500999991902051520004+61483+021350FM-12+000699999V0203601N004119999999N0000001N9+00391+99999100991ADDGF108991999999999999999999
0029029500999991902051606004+61483+021350FM-12+000699999V0202301N006219999999N0000001N9+00331+99999100301ADDGF108991999999999999999999
0029029500999991902051613004+61483+021350FM-12+000699999V0202001N006219999999N0000001N9+00781+99999100821ADDGF108991999999999999999999
0029029500999991902051620004+61483+021350FM-12+000699999V0201601N004119999999N0000001N9+00391+99999100801ADDGF106991999999999999999999
0029029500999991902051706004+61483+021350FM-12+000699999V0200501N004119999999N0000001N9+00281+99999100431ADDGF108991999999999999999999
0029029500999991902051713004+61483+021350FM-12+000699999V0203401N004119999999N0000001N9+00441+99999100231ADDGF108991999999999999999999
0029029500999991902051720004+61483+021350FM-12+000699999V0201401N004119999999N0000001N9+00611+99999100201ADDGF108991999999999999999999
0029029500999991902051806004+61483+021350FM-12+000699999V0201401N006219999999N0000001N9+00721+99999100241ADDGF108991999999999999999999
0029029500999991902051813004+61483+021350FM-12+000699999V0201401N011819999999N0000001N9+01281+99999100281ADDGF106991999999999999999999
0029029500999991902051820004+61483+021350FM-12+000699999V0200901N006219999999N0000001N9+00831+99999100281ADDGF106991999999999999999999
0029029500999991902051906004+61483+021350FM-12+000699999V0201101N009819999999N0000001N9+00941+99999100181ADDGF100991999999999999999999
0029029500999991902051913004+61483+021350FM-12+000699999V0200901N013919999999N0000001N9+01281+99999100241ADDGF100991999999999999999999
0029029500999991902051920004+61483+021350FM-12+000699999V0200901N006219999999N0000001N9+00781+99999100361ADDGF102991999999999999999999
0029029500999991902052006004+61483+021350FM-12+000699999V0200701N002119999999N0000001N9+00721+99999100661ADDGF100991999999999999999999
0029029500999991902052013004+61483+021350FM-12+000699999V0203601N009819999999N0000001N9+00611+99999100701ADDGF100991999999999999999999
0029029500999991902052020004+61483+021350FM-12+000699999V0200201N008219999999N0000001N9+00561+99999100781ADDGF102991999999999999999999
0029029500999991902052106004+61483+021350FM-12+000699999V0200501N004119999999N0000001N9+00501+99999100911ADDGF102991999999999999999999
0029029500999991902052113004+61483+021350FM-12+000699999V0202901N004119999999N0000001N9+00611+99999101321ADDGF102991999999999999999999
0029029500999991902052120004+61483+021350FM-12+000699999V0203401N002119999999N0000001N9+00441+99999101601ADDGF102991999999999999999999
0029029500999991902052206004+61483+021350FM-12+000699999V0200501N002119999999N0000001N9+00721+99999101881ADDGF102991999999999999999999
0029029500999991902052213004+61483+021350FM-12+000699999V0203601N009819999999N0000001N9+00671+99999102031ADDGF102991999999999999999999
0029029500999991902052220004+61483+021350FM-12+000699999V0203601N002119999999N0000001N9+00441+99999101961ADDGF100991999999999999999999
0029029500999991902052306004+61483+021350FM-12+000699999V0200901N002119999999N0000001N9+00891+99999102121ADDGF102991999999999999999999
0029029500999991902052313004+61483+021350FM-12+000699999V0203401N008219999999N0000001N9+00781+99999101921ADDGF102991999999999999999999
0029029500999991902052320004+61483+021350FM-12+000699999V0203601N006219999999N0000001N9+00561+99999101541ADDGF100991999999999999999999
0029029500999991902052406004+61483+021350FM-12+000699999V0201801N004119999999N0000001N9+00721+99999101121ADDGF105991999999999999999999
0029029500999991902052413004+61483+021350FM-12+000699999V0202301N008219999999N0000001N9+00891+99999100961ADDGF106991999999999999999999
0029029500999991902052420004+61483+021350FM-12+000699999V0202501N006219999999N0000001N9+00561+99999100961ADDGF103991999999999999999999
0029029500999991902052506004+61483+021350FM-12+000699999V0202901N004119999999N0000001N9+00501+99999101321ADDGF102991999999999999999999
0029029500999991902052513004+61483+021350FM-12+000699999V0202001N006219999999N0000001N9+01001+99999101361ADDGF104991999999999999999999
0029029500999991902052520004+61483+021350FM-12+000699999V0201601N008219999999N0000001N9+00891+99999100701ADDGF108991999999999999999999
0029029500999991902052606004+61483+021350FM-12+000699999V0202001N008219999999N0000001N9+00611+99999100021ADDGF108991999999999999999999
0029029500999991902052613004+61483+021350FM-12+000699999V0202301N006219999999N0000001N9+00781+99999999999ADDGF102991999999999999999999
0029029500999991902052620004+61483+021350FM-12+000699999V0202501N008219999999N0000001N9+00561+99999099991ADDGF106991999999999999999999
0029029500999991902052706004+61483+021350FM-12+000699999V0202701N008219999999N0000001N9+00501+99999100261ADDGF100991999999999999999999
0029029500999991902052713004+61483+021350FM-12+000699999V0202001N006219999999N0000001N9+00831+99999100381ADDGF106991999999999999999999
0029029500999991902052720004+61483+021350FM-12+000699999V0201801N006219999999N0000001N9+00721+99999100101ADDGF108991999999999999999999
0029029500999991902052806004+61483+021350FM-12+000699999V0202501N008219999999N0000001N9+00561+99999100061ADDGF108991999999999999999999
0029029500999991902052813004+61483+021350FM-12+000699999V0201801N004119999999N0000001N9+00891+99999100321ADDGF108991999999999999999999
0029029500999991902052820004+61483+021350FM-12+000699999V0201801N009819999999N0000001N9+00831+99999100341ADDGF108991999999999999999999
0029029500999991902052906004+61483+021350FM-12+000699999V0202001N009819999999N0000001N9+01001+99999100461ADDGF108991999999999999999999
0029029500999991902052913004+61483+021350FM-12+000699999V0202301N013919999999N0000001N9+01281+99999100701ADDGF108991999999999999999999
0029029500999991902052920004+61483+021350FM-12+000699999V0202301N009819999999N0000001N9+00721+99999100751ADDGF102991999999999999999999
0029029500999991902053006004+61483+021350FM-12+000699999V0202501N009819999999N0000001N9+00721+99999101511ADDGF102991999999999999999999
0029029500999991902053013004+61483+021350FM-12+000699999V0202301N004119999999N0000001N9+00831+99999102101ADDGF106991999999999999999999
0029029500999991902053020004+61483+021350FM-12+000699999V0203401N002119999999N0000001N9+00611+99999102311ADDGF108991999999999999999999
0029029500999991902053106004+61483+021350FM-12+000699999V0200701N002119999999N0000001N9+00831+99999102501ADDGF108991999999999999999999
0029029500999991902053113004+61483+021350FM-12+000699999V0201101N009819999999N0000001N9+01171+99999102181ADDGF108991999999999999999999
0029029500999991902053120004+61483+021350FM-12+000699999V0201101N002119999999N0000001N9+00941+99999101901ADDGF108991999999999999999999
0029029500999991902060106004+61483+021350FM-12+000699999V0200501N011819999999N0000001N9+00561+99999102021ADDGF108991999999999999999999
0029029500999991902060113004+61483+021350FM-12+000699999V0203601N009819999999N0000001N9+00671+99999102181ADDGF103991999999999999999999
0029029500999991902060120004+61483+021350FM-12+000699999V0203601N008219999999N0000001N9+00671+99999102181ADDGF103991999999999999999999
0029029500999991902060206004+61483+021350FM-12+000699999V0200501N004119999999N0000001N9+00781+99999102581ADDGF100991999999999999999999
0029029500999991902060213004+61483+021350FM-12+000699999V0203201N008219999999N0000001N9+00891+99999102671ADDGF100991999999999999999999
0029029500999991902060220004+61483+021350FM-12+000699999V0202501N006219999999N0000001N9+00721+99999102541ADDGF100991999999999999999999
0029029500999991902060306004+61483+021350FM-12+000699999V0202501N009819999999N0000001N9+00671+99999102271ADDGF103991999999999999999999
0029029500999991902060313004+61483+021350FM-12+000699999V0202901N008219999999N0000001N9+00831+99999102071ADDGF102991999999999999999999
0029029500999991902060320004+61483+021350FM-12+000699999V0202901N004119999999N0000001N9+00671+99999102241ADDGF101991999999999999999999
0029029500999991902060406004+61483+021350FM-12+000699999V0202301N002119999999N0000001N9+01111+99999102351ADDGF106991999999999999999999
0029029500999991902060413004+61483+021350FM-12+000699999V0202001N004119999999N0000001N9+01441+99999102081ADDGF104991999999999999999999
0029029500999991902060420004+61483+021350FM-12+000699999V0201801N013919999999N0000001N9+01281+99999101161ADDGF107991999999999999999999
0029029500999991902060506004+61483+021350FM-12+000699999V0203201N013919999999N0000001N9+00721+99999100861ADDGF101991999999999999999999
0029029500999991902060513004+61483+021350FM-12+000699999V0203201N011819999999N0000001N9+00781+99999100791ADDGF102991999999999999999999
0029029500999991902060520004+61483+021350FM-12+000699999V0200201N006219999999N0000001N9+00721+99999100741ADDGF101991999999999999999999
0029029500999991902060606004+61483+021350FM-12+000699999V0200501N008219999999N0000001N9+00611+99999100681ADDGF108991999999999999999999
0029029500999991902060613004+61483+021350FM-12+000699999V0203601N013919999999N0000001N9+00721+99999100561ADDGF106991999999999999999999
0029029500999991902060620004+61483+021350FM-12+000699999V0200701N008219999999N0000001N9+00611+99999100401ADDGF100991999999999999999999
0029029500999991902060706004+61483+021350FM-12+000699999V0200701N006219999999N0000001N9+00501+99999100521ADDGF106991999999999999999999
0029029500999991902060713004+61483+021350FM-12+000699999V0203601N009819999999N0000001N9+00671+99999100601ADDGF103991999999999999999999
0029029500999991902060720004+61483+021350FM-12+000699999V0209991C000019999999N0000001N9+00721+99999100461ADDGF106991999999999999999999
0029029500999991902060806004+61483+021350FM-12+000699999V0202701N002119999999N0000001N9+00561+99999100391ADDGF108991999999999999999999
0029029500999991902060813004+61483+021350FM-12+000699999V0203201N002119999999N0000001N9+00891+99999100471ADDGF108991999999999999999999
0029029500999991902060820004+61483+021350FM-12+000699999V0209991C000019999999N0000001N9+00721+99999100421ADDGF107991999999999999999999
0029029500999991902060906004+61483+021350FM-12+000699999V0200701N006219999999N0000001N9+01001+99999100191ADDGF108991999999999999999999
0029029500999991902060913004+61483+021350FM-12+000699999V0200901N006219999999N0000001N9+00781+99999099951ADDGF108991999999999999999999
0029029500999991902060920004+61483+021350FM-12+000699999V0200701N008219999999N0000001N9+00611+99999099541ADDGF108991999999999999999999
0029029500999991902061006004+61483+021350FM-12+000699999V0202501N006219999999N0000001N9+00671+99999099341ADDGF108991999999999999999999
0029029500999991902061013004+61483+021350FM-12+000699999V0203201N009819999999N0000001N9+00561+99999099991ADDGF108991999999999999999999
0029029500999991902061020004+61483+021350FM-12+000699999V0202001N002119999999N0000001N9+00611+99999100361ADDGF101991999999999999999999
0029029500999991902061106004+61483+021350FM-12+000699999V0201401N006219999999N0000001N9+00611+99999100431ADDGF108991999999999999999999
0029029500999991902061113004+61483+021350FM-12+000699999V0201401N002119999999N0000001N9+00721+99999100341ADDGF108991999999999999999999
0029029500999991902061120004+61483+021350FM-12+000699999V0203201N002119999999N0000001N9+00561+99999100391ADDGF108991999999999999999999
0029029500999991902061206004+61483+021350FM-12+000699999V0209991C000019999999N0000001N9+00721+99999100871ADDGF108991999999999999999999
0029029500999991902061213004+61483+021350FM-12+000699999V0202001N004119999999N0000001N9+00561+99999101261ADDGF108991999999999999999999
0029029500999991902061220004+61483+021350FM-12+000699999V0209991C000019999999N0000001N9+00831+99999101311ADDGF102991999999999999999999
0029029500999991902061306004+61483+021350FM-12+000699999V0201801N006219999999N0000001N9+01001+99999101461ADDGF102991999999999999999999
0029029500999991902061313004+61483+021350FM-12+000699999V0202501N006219999999N0000001N9+01171+99999101541ADDGF101991999999999999999999
0029029500999991902061320004+61483+021350FM-12+000699999V0209991C000019999999N0000001N9+01171+99999101471ADDGF102991999999999999999999
0029029500999991902061406004+61483+021350FM-12+000699999V0200701N002119999999N0000001N9+01221+99999101501ADDGF103991999999999999999999
0029029500999991902061413004+61483+021350FM-12+000699999V0203601N006219999999N0000001N9+01171+99999101261ADDGF108991999999999999999999
0029029500999991902061420004+61483+021350FM-12+000699999V0200901N004119999999N0000001N9+01281+99999100961ADDGF108991999999999999999999
0029029500999991902061506004+61483+021350FM-12+000699999V0200201N009819999999N0000001N9+01001+99999100031ADDGF108991999999999999999999
0029029500999991902061513004+61483+021350FM-12+000699999V0200201N006219999999N0000001N9+00891+99999099831ADDGF108991999999999999999999
0029029500999991902061520004+61483+021350FM-12+000699999V0203601N006219999999N0000001N9+00781+99999099991ADDGF108991999999999999999999
0029029500999991902061606004+61483+021350FM-12+000699999V0203601N006219999999N0000001N9+00831+99999100041ADDGF108991999999999999999999
0029029500999991902061613004+61483+021350FM-12+000699999V0200201N004119999999N0000001N9+00831+99999100271ADDGF108991999999999999999999
0029029500999991902061620004+61483+021350FM-12+000699999V0200201N004119999999N0000001N9+00781+99999100381ADDGF108991999999999999999999
0029029500999991902061706004+61483+021350FM-12+000699999V0203601N008219999999N0000001N9+00671+99999100361ADDGF108991999999999999999999
0029029500999991902061713004+61483+021350FM-12+000699999V0203601N013919999999N0000001N9+00671+99999100601ADDGF106991999999999999999999
0029029500999991902061720004+61483+021350FM-12+000699999V0203401N009819999999N0000001N9+00501+99999100961ADDGF103991999999999999999999
0029029500999991902061806004+61483+021350FM-12+000699999V0203201N002119999999N0000001N9+00611+99999101271ADDGF107991999999999999999999
0029029500999991902061813004+61483+021350FM-12+000699999V0202301N004119999999N0000001N9+01001+99999101461ADDGF100991999999999999999999
0029029500999991902061820004+61483+021350FM-12+000699999V0201801N002119999999N0000001N9+01001+99999101481ADDGF100991999999999999999999
0029029500999991902061906004+61483+021350FM-12+000699999V0201601N006219999999N0000001N9+01061+99999101631ADDGF101991999999999999999999
0029029500999991902061913004+61483+021350FM-12+000699999V0202301N009819999999N0000001N9+01281+99999101701ADDGF100991999999999999999999
0029029500999991902061920004+61483+021350FM-12+000699999V0202001N002119999999N0000001N9+01001+99999101661ADDGF102991999999999999999999
0029029500999991902062006004+61483+021350FM-12+000699999V0200901N004119999999N0000001N9+01501+99999101701ADDGF102991999999999999999999
0029029500999991902062013004+61483+021350FM-12+000699999V0203601N008219999999N0000001N9+01001+99999101481ADDGF102991999999999999999999
0029029500999991902062020004+61483+021350FM-12+000699999V0200201N006219999999N0000001N9+00781+99999101401ADDGF102991999999999999999999
0029029500999991902062106004+61483+021350FM-12+000699999V0203601N008219999999N0000001N9+00781+99999101261ADDGF106991999999999999999999
0029029500999991902062113004+61483+021350FM-12+000699999V0200701N008219999999N0000001N9+01781+99999101081ADDGF106991999999999999999999
0029029500999991902062120004+61483+021350FM-12+000699999V0200201N008219999999N0000001N9+01171+99999100961ADDGF108991999999999999999999
0029029500999991902062206004+61483+021350FM-12+000699999V0200501N006219999999N0000001N9+01111+99999100991ADDGF108991999999999999999999
0029029500999991902062213004+61483+021350FM-12+000699999V0200701N006219999999N0000001N9+01281+99999101121ADDGF108991999999999999999999
0029029500999991902062220004+61483+021350FM-12+000699999V0200501N006219999999N0000001N9+01001+99999101261ADDGF108991999999999999999999
0029029500999991902062306004+61483+021350FM-12+000699999V0200501N004119999999N0000001N9+01001+99999101191ADDGF108991999999999999999999
0029029500999991902062313004+61483+021350FM-12+000699999V0200501N006219999999N0000001N9+01391+99999101261ADDGF108991999999999999999999
0029029500999991902062320004+61483+021350FM-12+000699999V0200501N004119999999N0000001N9+01001+99999101521ADDGF106991999999999999999999
0029029500999991902062406004+61483+021350FM-12+000699999V0200501N004119999999N0000001N9+01111+99999101741ADDGF106991999999999999999999
0029029500999991902062413004+61483+021350FM-12+000699999V0203601N006219999999N0000001N9+00941+99999101831ADDGF102991999999999999999999
0029029500999991902062420004+61483+021350FM-12+000699999V0200501N004119999999N0000001N9+00941+99999101981ADDGF100991999999999999999999
0029029500999991902062506004+61483+021350FM-12+000699999V0209991C000019999999N0000001N9+01001+99999102141ADDGF101991999999999999999999
0029029500999991902062513004+61483+021350FM-12+000699999V0202901N002119999999N0000001N9+01001+99999102181ADDGF101991999999999999999999
0029029500999991902062520004+61483+021350FM-12+000699999V0203601N004119999999N0000001N9+01061+99999102081ADDGF102991999999999999999999
0029029500999991902062606004+61483+021350FM-12+000699999V0200501N002119999999N0000001N9+01111+99999102261ADDGF100991999999999999999999
0029029500999991902062613004+61483+021350FM-12+000699999V0203201N004119999999N0000001N9+01221+99999102301ADDGF108991999999999999999999
0029029500999991902062620004+61483+021350FM-12+000699999V0200501N002119999999N0000001N9+00831+99999102121ADDGF108991999999999999999999
0029029500999991902062706004+61483+021350FM-12+000699999V0203601N002119999999N0000001N9+00941+99999102191ADDGF104991999999999999999999
0029029500999991902062713004+61483+021350FM-12+000699999V0202501N002119999999N0000001N9+01221+99999102201ADDGF108991999999999999999999
0029029500999991902062720004+61483+021350FM-12+000699999V0202001N002119999999N0000001N9+01001+99999101961ADDGF108991999999999999999999
0029029500999991902062806004+61483+021350FM-12+000699999V0202301N004119999999N0000001N9+01111+99999101511ADDGF100991999999999999999999
0029029500999991902062813004+61483+021350FM-12+000699999V0202501N004119999999N0000001N9+01501+99999101101ADDGF108991999999999999999999
0029029500999991902062820004+61483+021350FM-12+000699999V0203201N006219999999N0000001N9+01281+99999100751ADDGF106991999999999999999999
0029029500999991902062906004+61483+021350FM-12+000699999V0203401N013919999999N0000001N9+00941+99999100721ADDGF102991999999999999999999
0029029500999991902062913004+61483+021350FM-12+000699999V0203401N009819999999N0000001N9+01001+99999100991ADDGF100991999999999999999999
0029029500999991902062920004+61483+021350FM-12+000699999V0203201N008219999999N0000001N9+00891+99999101101ADDGF102991999999999999999999
0029029500999991902063006004+61483+021350FM-12+000699999V0203201N008219999999N0000001N9+00781+99999101351ADDGF102991999999999999999999
0029029500999991902063013004+61483+021350FM-12+000699999V0202901N006219999999N0000001N9+01001+99999101461ADDGF104991999999999999999999
0029029500999991902063020004+61483+021350FM-12+000699999V0201401N002119999999N0000001N9+00721+99999101181ADDGF104991999999999999999999
0029029500999991902070106004+61483+021350FM-12+000699999V0201801N009819999999N0000001N9+01281+99999100121ADDGF106991999999999999999999
0029029500999991902070113004+61483+021350FM-12+000699999V0202001N011819999999N0000001N9+01331+99999099941ADDGF108991999999999999999999
0029029500999991902070120004+61483+021350FM-12+000699999V0203201N004119999999N0000001N9+00721+99999099941ADDGF106991999999999999999999
0029029500999991902070206004+61483+021350FM-12+000699999V0203401N002119999999N0000001N9+00721+99999099801ADDGF108991999999999999999999
0029029500999991902070213004+61483+021350FM-12+000699999V0203401N011819999999N0000001N9+00891+99999100071ADDGF106991999999999999999999
0029029500999991902070220004+61483+021350FM-12+000699999V0203401N009819999999N0000001N9+00781+99999100391ADDGF105991999999999999999999
0029029500999991902070313004+61483+021350FM-12+000699999V0203401N008219999999N0000001N9+00891+99999101111ADDGF102991999999999999999999
0029029500999991902070320004+61483+021350FM-12+000699999V0202701N006219999999N0000001N9+00831+99999101311ADDGF102991999999999999999999
0029029500999991902070406004+61483+021350FM-12+000699999V0202701N002119999999N0000001N9+00941+99999101261ADDGF102991999999999999999999
0000029500999991902070413004+61483+021350FM-12+000699999V02099999999999999999N0000001N9+01561+99999101381
0029029500999991902070420004+61483+021350FM-12+000699999V0201801N006219999999N0000001N9+01171+99999101071ADDGF103991999999999999999999
0029029500999991902070506004+61483+021350FM-12+000699999V0201601N008219999999N0000001N9+01061+99999100381ADDGF108991999999999999999999
0029029500999991902070513004+61483+021350FM-12+000699999V0201801N006219999999N0000001N9+01281+99999100351ADDGF108991999999999999999999
0029029500999991902070520004+61483+021350FM-12+000699999V0201601N002119999999N0000001N9+01001+99999100151ADDGF108991999999999999999999
0029029500999991902070606004+61483+021350FM-12+000699999V0200501N002119999999N0000001N9+00891+99999100561ADDGF108991999999999999999999
0029029500999991902070613004+61483+021350FM-12+000699999V0203201N004119999999N0000001N9+01111+99999100821ADDGF108991999999999999999999
0029029500999991902070620004+61483+021350FM-12+000699999V0203401N006219999999N0000001N9+00891+99999100921ADDGF107991999999999999999999
0029029500999991902070706004+61483+021350FM-12+000699999V0203401N006219999999N0000001N9+01001+99999100881ADDGF105991999999999999999999
0029029500999991902070713004+61483+021350FM-12+000699999V0203201N006219999999N0000001N9+01111+99999100711ADDGF103991999999999999999999
0029029500999991902070720004+61483+021350FM-12+000699999V0203201N006219999999N0000001N9+00941+99999100481ADDGF108991999999999999999999
0029029500999991902070806004+61483+021350FM-12+000699999V0200201N004119999999N0000001N9+00941+99999100401ADDGF102991999999999999999999
0029029500999991902070813004+61483+021350FM-12+000699999V0203401N009819999999N0000001N9+01001+99999100421ADDGF102991999999999999999999
0029029500999991902070820004+61483+021350FM-12+000699999V0203601N004119999999N0000001N9+00781+99999100421ADDGF106991999999999999999999
0029029500999991902070906004+61483+021350FM-12+000699999V0209991C000019999999N0000001N9+01001+99999100361ADDGF108991999999999999999999
0029029500999991902070913004+61483+021350FM-12+000699999V0203401N004119999999N0000001N9+00831+99999100481ADDGF108991999999999999999999
0029029500999991902070920004+61483+021350FM-12+000699999V0200201N004119999999N0000001N9+00781+99999100511ADDGF105991999999999999999999
0029029500999991902071006004+61483+021350FM-12+000699999V0209991C000019999999N0000001N9+00941+99999100481ADDGF108991999999999999999999
0029029500999991902071013004+61483+021350FM-12+000699999V0203201N004119999999N0000001N9+01171+99999100341ADDGF106991999999999999999999
0029029500999991902071020004+61483+021350FM-12+000699999V0200701N004119999999N0000001N9+01111+99999100181ADDGF105991999999999999999999
0029029500999991902071106004+61483+021350FM-12+000699999V0200701N004119999999N0000001N9+01061+99999099961ADDGF108991999999999999999999
0029029500999991902071113004+61483+021350FM-12+000699999V0201101N002119999999N0000001N9+01441+99999099911ADDGF108991999999999999999999
0029029500999991902071120004+61483+021350FM-12+000699999V0200701N004119999999N0000001N9+01061+99999100081ADDGF108991999999999999999999
0029029500999991902071206004+61483+021350FM-12+000699999V0200501N006219999999N0000001N9+01061+99999099701ADDGF108991999999999999999999
0029029500999991902071213004+61483+021350FM-12+000699999V0203601N004119999999N0000001N9+01061+99999099621ADDGF108991999999999999999999
0029029500999991902071220004+61483+021350FM-12+000699999V0203601N011819999999N0000001N9+00781+99999099671ADDGF108991999999999999999999
0029029500999991902071306004+61483+021350FM-12+000699999V0202701N006219999999N0000001N9+00831+99999100281ADDGF104991999999999999999999
0029029500999991902071313004+61483+021350FM-12+000699999V0202301N002119999999N0000001N9+01221+99999100831ADDGF106991999999999999999999
0029029500999991902071320004+61483+021350FM-12+000699999V0201801N002119999999N0000001N9+00941+99999100821ADDGF107991999999999999999999
0029029500999991902071406004+61483+021350FM-12+000699999V0200501N002119999999N0000001N9+00941+99999100701ADDGF108991999999999999999999
0029029500999991902071413004+61483+021350FM-12+000699999V0203601N006219999999N0000001N9+00831+99999100751ADDGF108991999999999999999999
0029029500999991902071420004+61483+021350FM-12+000699999V0203601N004119999999N0000001N9+00781+99999101081ADDGF103991999999999999999999
0029029500999991902071506004+61483+021350FM-12+000699999V0203401N006219999999N0000001N9+00891+99999101341ADDGF100991999999999999999999
0029029500999991902071513004+61483+021350FM-12+000699999V0203401N008219999999N0000001N9+01001+99999101521ADDGF100991999999999999999999
0029029500999991902071520004+61483+021350FM-12+000699999V0203401N006219999999N0000001N9+00891+99999101481ADDGF100991999999999999999999
0029029500999991902071606004+61483+021350FM-12+000699999V0203401N002119999999N0000001N9+00891+99999101301ADDGF102991999999999999999999
0029029500999991902071613004+61483+021350FM-12+000699999V0203401N008219999999N0000001N9+01111+99999100961ADDGF103991999999999999999999
0029029500999991902071620004+61483+021350FM-12+000699999V0209991C000019999999N0000001N9+01111+99999100831ADDGF107991999999999999999999
0029029500999991902071706004+61483+021350FM-12+000699999V0203401N002119999999N0000001N9+01001+99999100881ADDGF108991999999999999999999
0029029500999991902071713004+61483+021350FM-12+000699999V0203401N006219999999N0000001N9+01221+99999100831ADDGF107991999999999999999999
0029029500999991902071720004+61483+021350FM-12+000699999V0209991C000019999999N0000001N9+01001+99999100831ADDGF107991999999999999999999
0029029500999991902071806004+61483+021350FM-12+000699999V0202701N002119999999N0000001N9+01111+99999100781ADDGF107991999999999999999999
0000029500999991902071813004+61483+021350FM-12+000699999V02099999999999999999N0000001N9+01611+99999100701
0029029500999991902071820004+61483+021350FM-12+000699999V0203601N006219999999N0000001N9+01061+99999100641ADDGF104991999999999999999999
0029029500999991902071906004+61483+021350FM-12+000699999V0203601N002119999999N0000001N9+01111+99999100471ADDGF103991999999999999999999
0029029500999991902071913004+61483+021350FM-12+000699999V0203401N008219999999N0000001N9+01281+99999100381ADDGF103991999999999999999999
0029029500999991902071920004+61483+021350FM-12+000699999V0203601N002119999999N0000001N9+01111+99999100261ADDGF103991999999999999999999
0029029500999991902072006004+61483+021350FM-12+000699999V0200201N006219999999N0000001N9+01001+99999100121ADDGF106991999999999999999999
0029029500999991902072013004+61483+021350FM-12+000699999V0203401N004119999999N0000001N9+01171+99999100301ADDGF106991999999999999999999
0029029500999991902072020004+61483+021350FM-12+000699999V0201801N002119999999N0000001N9+01001+99999100391ADDGF108991999999999999999999
0029029500999991902072106004+61483+021350FM-12+000699999V0202001N008219999999N0000001N9+01111+99999100431ADDGF108991999999999999999999
0029029500999991902072113004+61483+021350FM-12+000699999V0202001N004119999999N0000001N9+01501+99999100621ADDGF107991999999999999999999
0029029500999991902072120004+61483+021350FM-12+000699999V0202301N002119999999N0000001N9+01111+99999100721ADDGF107991999999999999999999
0029029500999991902072206004+61483+021350FM-12+000699999V0200501N002119999999N0000001N9+01001+99999100821ADDGF108991999999999999999999
0029029500999991902072213004+61483+021350FM-12+000699999V0203201N004119999999N0000001N9+01221+99999100901ADDGF102991999999999999999999
0029029500999991902072220004+61483+021350FM-12+000699999V0209991C000019999999N0000001N9+01111+99999100881ADDGF102991999999999999999999
0029029500999991902072306004+61483+021350FM-12+000699999V0203201N002119999999N0000001N9+01171+99999100861ADDGF106991999999999999999999
0029029500999991902072313004+61483+021350FM-12+000699999V0203201N004119999999N0000001N9+01391+99999100871ADDGF106991999999999999999999
0029029500999991902072320004+61483+021350FM-12+000699999V0209991C000019999999N0000001N9+01061+99999100941ADDGF103991999999999999999999
0029029500999991902072406004+61483+021350FM-12+000699999V0202001N002119999999N0000001N9+01331+99999101191ADDGF108991999999999999999999
0029029500999991902072413004+61483+021350FM-12+000699999V0203201N002119999999N0000001N9+01391+99999101201ADDGF104991999999999999999999
0029029500999991902072420004+61483+021350FM-12+000699999V0209991C000019999999N0000001N9+01221+99999101191ADDGF102991999999999999999999
0029029500999991902072506004+61483+021350FM-12+000699999V0201801N002119999999N0000001N9+01331+99999101221ADDGF108991999999999999999999
0029029500999991902072513004+61483+021350FM-12+000699999V0202501N004119999999N0000001N9+01561+99999101241ADDGF101991999999999999999999
0029029500999991902072520004+61483+021350FM-12+000699999V0202001N008219999999N0000001N9+01331+99999101151ADDGF102991999999999999999999
0029029500999991902072606004+61483+021350FM-12+000699999V0202301N006219999999N0000001N9+01391+99999101161ADDGF106991999999999999999999
0029029500999991902072613004+61483+021350FM-12+000699999V0202301N009819999999N0000001N9+01501+99999101261ADDGF100991999999999999999999
0029029500999991902072620004+61483+021350FM-12+000699999V0202301N004119999999N0000001N9+01281+99999101311ADDGF100991999999999999999999
0029029500999991902072706004+61483+021350FM-12+000699999V0201601N006219999999N0000001N9+01281+99999101141ADDGF106991999999999999999999
0029029500999991902072713004+61483+021350FM-12+000699999V0201401N008219999999N0000001N9+02061+99999100561ADDGF104991999999999999999999
0029029500999991902072720004+61483+021350FM-12+000699999V0201401N009819999999N0000001N9+01391+99999099991ADDGF108991999999999999999999
0029029500999991902072806004+61483+021350FM-12+000699999V0202301N008219999999N0000001N9+01331+99999099701ADDGF108991999999999999999999
0029029500999991902072813004+61483+021350FM-12+000699999V0202301N011819999999N0000001N9+01781+99999099721ADDGF105991999999999999999999
0029029500999991902072820004+61483+021350FM-12+000699999V0202301N009819999999N0000001N9+01391+99999099721ADDGF108991999999999999999999
0029029500999991902072906004+61483+021350FM-12+000699999V0202301N009819999999N0000001N9+01221+99999099681ADDGF108991999999999999999999
0029029500999991902072913004+61483+021350FM-12+000699999V0202301N008219999999N0000001N9+01061+99999099961ADDGF108991999999999999999999
0029029500999991902072920004+61483+021350FM-12+000699999V0202501N008219999999N0000001N9+01221+99999100081ADDGF108991999999999999999999
0029029500999991902073006004+61483+021350FM-12+000699999V0202701N008219999999N0000001N9+01221+99999100341ADDGF108991999999999999999999
0029029500999991902073013004+61483+021350FM-12+000699999V0202301N006219999999N0000001N9+01561+99999100631ADDGF108991999999999999999999
0029029500999991902073020004+61483+021350FM-12+000699999V0202301N002119999999N0000001N9+01171+99999100681ADDGF107991999999999999999999
0029029500999991902073106004+61483+021350FM-12+000699999V0202501N002119999999N0000001N9+01281+99999100671ADDGF108991999999999999999999
0029029500999991902073113004+61483+021350FM-12+000699999V0202701N002119999999N0000001N9+01441+99999100791ADDGF106991999999999999999999
0029029500999991902073120004+61483+021350FM-12+000699999V0202701N002119999999N0000001N9+01171+99999100871ADDGF106991999999999999999999
0029029500999991902080106004+61483+021350FM-12+000699999V0200701N004119999999N0000001N9+01171+99999100831ADDGF102991999999999999999999
0029029500999991902080113004+61483+021350FM-12+000699999V0203401N009819999999N0000001N9+01391+99999100951ADDGF102991999999999999999999
0029029500999991902080120004+61483+021350FM-12+000699999V0203601N006219999999N0000001N9+01281+99999100981ADDGF102991999999999999999999
0029029500999991902080206004+61483+021350FM-12+000699999V0203601N006219999999N0000001N9+01331+99999101001ADDGF102991999999999999999999
0029029500999991902080213004+61483+021350FM-12+000699999V0203201N009819999999N0000001N9+01331+99999101161ADDGF101991999999999999999999
0029029500999991902080220004+61483+021350FM-12+000699999V0203201N006219999999N0000001N9+01281+99999101191ADDGF101991999999999999999999
0029029500999991902080306004+61483+021350FM-12+000699999V0209991C000019999999N0000001N9+01331+99999101241ADDGF102991999999999999999999
0029029500999991902080313004+61483+021350FM-12+000699999V0203201N006219999999N0000001N9+01561+99999101271ADDGF102991999999999999999999
0029029500999991902080320004+61483+021350FM-12+000699999V0203601N004119999999N0000001N9+01391+99999101111ADDGF104991999999999999999999
0029029500999991902080406004+61483+021350FM-12+000699999V0201101N004119999999N0000001N9+01501+99999101021ADDGF108991999999999999999999
0029029500999991902080413004+61483+021350FM-12+000699999V0200701N002119999999N0000001N9+01671+99999100901ADDGF108991999999999999999999
0029029500999991902080420004+61483+021350FM-12+000699999V0200901N002119999999N0000001N9+01281+99999100781ADDGF108991999999999999999999
0029029500999991902080506004+61483+021350FM-12+000699999V0201801N004119999999N0000001N9+01281+99999100661ADDGF108991999999999999999999
0029029500999991902080513004+61483+021350FM-12+000699999V0202301N006219999999N0000001N9+01721+99999100661ADDGF105991999999999999999999
0029029500999991902080520004+61483+021350FM-12+000699999V0201401N006219999999N0000001N9+01221+99999100751ADDGF108991999999999999999999
0029029500999991902080606004+61483+021350FM-12+000699999V0201401N006219999999N0000001N9+01221+99999100701ADDGF108991999999999999999999
0029029500999991902080613004+61483+021350FM-12+000699999V0201601N002119999999N0000001N9+01561+99999100721ADDGF108991999999999999999999
0029029500999991902080620004+61483+021350FM-12+000699999V0201601N004119999999N0000001N9+01281+99999100671ADDGF108991999999999999999999
0029029500999991902080706004+61483+021350FM-12+000699999V0201801N004119999999N0000001N9+01561+99999100721ADDGF108991999999999999999999
0029029500999991902080713004+61483+021350FM-12+000699999V0202701N008219999999N0000001N9+01501+99999100801ADDGF107991999999999999999999
0029029500999991902080720004+61483+021350FM-12+000699999V0202501N002119999999N0000001N9+01221+99999100801ADDGF107991999999999999999999
0029029500999991902080806004+61483+021350FM-12+000699999V0201601N002119999999N0000001N9+01331+99999100801ADDGF108991999999999999999999
0029029500999991902080813004+61483+021350FM-12+000699999V0202301N002119999999N0000001N9+01891+99999100791ADDGF102991999999999999999999
0029029500999991902080820004+61483+021350FM-12+000699999V0209991C000019999999N0000001N9+01221+99999100901ADDGF102991999999999999999999
0029029500999991902080906004+61483+021350FM-12+000699999V0201601N002119999999N0000001N9+01331+99999100841ADDGF102991999999999999999999
0029029500999991902080913004+61483+021350FM-12+000699999V0201401N001019999999N0000001N9+01831+99999100721ADDGF108991999999999999999999
0029029500999991902080920004+61483+021350FM-12+000699999V0200901N009819999999N0000001N9+01331+99999100271ADDGF108991999999999999999999
0029029500999991902081006004+61483+021350FM-12+000699999V0202001N009819999999N0000001N9+01391+99999100061ADDGF106991999999999999999999
0029029500999991902081013004+61483+021350FM-12+000699999V0202001N009819999999N0000001N9+01671+99999100111ADDGF105991999999999999999999
0029029500999991902081020004+61483+021350FM-12+000699999V0201801N008219999999N0000001N9+01221+99999100111ADDGF108991999999999999999999
0029029500999991902081106004+61483+021350FM-12+000699999V0201801N011819999999N0000001N9+01391+99999100151ADDGF108991999999999999999999
0029029500999991902081113004+61483+021350FM-12+000699999V0201601N008219999999N0000001N9+01281+99999100271ADDGF108991999999999999999999
0029029500999991902081120004+61483+021350FM-12+000699999V0201601N008219999999N0000001N9+01171+99999100151ADDGF108991999999999999999999
0029029500999991902081206004+61483+021350FM-12+000699999V0201601N009819999999N0000001N9+01221+99999100201ADDGF108991999999999999999999
0029029500999991902081213004+61483+021350FM-12+000699999V0201601N009819999999N0000001N9+01281+99999100261ADDGF108991999999999999999999
0029029500999991902081220004+61483+021350FM-12+000699999V0201601N009819999999N0000001N9+01221+99999100441ADDGF106991999999999999999999
0029029500999991902081306004+61483+021350FM-12+000699999V0201401N004119999999N0000001N9+01171+99999100421ADDGF108991999999999999999999
0029029500999991902081313004+61483+021350FM-12+000699999V0200201N002119999999N0000001N9+01391+99999100241ADDGF108991999999999999999999
0029029500999991902081320004+61483+021350FM-12+000699999V0203201N006219999999N0000001N9+01221+99999100101ADDGF108991999999999999999999
0029029500999991902081406004+61483+021350FM-12+000699999V0202001N009819999999N0000001N9+01391+99999099821ADDGF108991999999999999999999
0000029500999991902081413004+61483+021350FM-12+000699999V02099999999999999999N0000001N9+01441+99999099941
0029029500999991902081420004+61483+021350FM-12+000699999V0201601N004119999999N0000001N9+01281+99999099941ADDGF103991999999999999999999
0029029500999991902081506004+61483+021350FM-12+000699999V0201401N002119999999N0000001N9+01001+99999099821ADDGF108991999999999999999999
0029029500999991902081513004+61483+021350FM-12+000699999V0203401N009819999999N0000001N9+01331+99999099621ADDGF108991999999999999999999
0029029500999991902081520004+61483+021350FM-12+000699999V0203201N015919999999N0000001N9+01171+99999099231ADDGF108991999999999999999999
0029029500999991902081606004+61483+021350FM-12+000699999V0202701N015919999999N0000001N9+01171+99999099021ADDGF108991999999999999999999
0029029500999991902081613004+61483+021350FM-12+000699999V0202501N020119999999N0000001N9+01221+99999099281ADDGF108991999999999999999999
0029029500999991902081620004+61483+021350FM-12+000699999V0202501N020119999999N0000001N9+01111+99999099561ADDGF108991999999999999999999
0029029500999991902081706004+61483+021350FM-12+000699999V0202501N009819999999N0000001N9+01061+99999099861ADDGF108991999999999999999999
0029029500999991902081713004+61483+021350FM-12+000699999V0202501N009819999999N0000001N9+01221+99999100161ADDGF108991999999999999999999
0029029500999991902081720004+61483+021350FM-12+000699999V0202701N006219999999N0000001N9+01061+99999100441ADDGF105991999999999999999999
0029029500999991902081806004+61483+021350FM-12+000699999V0202001N004119999999N0000001N9+01281+99999100901ADDGF102991999999999999999999
0029029500999991902081813004+61483+021350FM-12+000699999V0202301N004119999999N0000001N9+01561+99999101101ADDGF102991999999999999999999
0029029500999991902081820004+61483+021350FM-12+000699999V0201801N006219999999N0000001N9+01331+99999101221ADDGF101991999999999999999999
0029029500999991902081906004+61483+021350FM-12+000699999V0201601N008219999999N0000001N9+01281+99999101301ADDGF107991999999999999999999
0029029500999991902081913004+61483+021350FM-12+000699999V0202001N006219999999N0000001N9+01781+99999101221ADDGF108991999999999999999999
0029029500999991902081920004+61483+021350FM-12+000699999V0201401N006219999999N0000001N9+01331+99999100881ADDGF108991999999999999999999
0029029500999991902082006004+61483+021350FM-12+000699999V0201401N009819999999N0000001N9+01331+99999099621ADDGF108991999999999999999999
0029029500999991902082013004+61483+021350FM-12+000699999V0202301N009819999999N0000001N9+01561+99999099681ADDGF107991999999999999999999
0029029500999991902082020004+61483+021350FM-12+000699999V0201801N013919999999N0000001N9+01331+99999099841ADDGF108991999999999999999999
0029029500999991902082106004+61483+021350FM-12+000699999V0202501N006219999999N0000001N9+01061+99999100101ADDGF106991999999999999999999
0029029500999991902082113004+61483+021350FM-12+000699999V0202901N006219999999N0000001N9+01221+99999100181ADDGF103991999999999999999999
0029029500999991902082120004+61483+021350FM-12+000699999V0202901N009819999999N0000001N9+01111+99999100321ADDGF102991999999999999999999
0029029500999991902082206004+61483+021350FM-12+000699999V0202701N015919999999N0000001N9+00891+99999100471ADDGF108991999999999999999999
0029029500999991902082213004+61483+021350FM-12+000699999V0202901N018019999999N0000001N9+01111+99999100821ADDGF108991999999999999999999
0029029500999991902082220004+61483+021350FM-12+000699999V0202901N015919999999N0000001N9+01111+99999101071ADDGF108991999999999999999999
0029029500999991902082306004+61483+021350FM-12+000699999V0203201N011819999999N0000001N9+01001+99999101351ADDGF106991999999999999999999
0029029500999991902082313004+61483+021350FM-12+000699999V0202901N008219999999N0000001N9+01111+99999101671ADDGF104991999999999999999999
0029029500999991902082320004+61483+021350FM-12+000699999V0202301N004119999999N0000001N9+00941+99999101761ADDGF100991999999999999999999
0029029500999991902082406004+61483+021350FM-12+000699999V0202301N008219999999N0000001N9+01171+99999101741ADDGF100991999999999999999999
0029029500999991902082413004+61483+021350FM-12+000699999V0202301N006219999999N0000001N9+01561+99999101781ADDGF102991999999999999999999
0029029500999991902082420004+61483+021350FM-12+000699999V0202301N009819999999N0000001N9+01221+99999101721ADDGF104991999999999999999999
0029029500999991902082506004+61483+021350FM-12+000699999V0202001N009819999999N0000001N9+01331+99999101631ADDGF108991999999999999999999
0029029500999991902082513004+61483+021350FM-12+000699999V0201601N006219999999N0000001N9+01501+99999101521ADDGF108991999999999999999999
0029029500999991902082520004+61483+021350FM-12+000699999V0201401N008219999999N0000001N9+01221+99999101231ADDGF108991999999999999999999
0029029500999991902082606004+61483+021350FM-12+000699999V0201601N009819999999N0000001N9+01221+99999100591ADDGF108991999999999999999999
0029029500999991902082613004+61483+021350FM-12+000699999V0202901N008219999999N0000001N9+01171+99999100621ADDGF108991999999999999999999
0029029500999991902082620004+61483+021350FM-12+000699999V0203201N011819999999N0000001N9+01171+99999100961ADDGF108991999999999999999999
0029029500999991902082706004+61483+021350FM-12+000699999V0203401N006219999999N0000001N9+01281+99999101641ADDGF108991999999999999999999
0029029500999991902082713004+61483+021350FM-12+000699999V0203201N006219999999N0000001N9+01331+99999101961ADDGF102991999999999999999999
0029029500999991902082720004+61483+021350FM-12+000699999V0200201N004119999999N0000001N9+01221+99999102021ADDGF101991999999999999999999
0029029500999991902082806004+61483+021350FM-12+000699999V0201401N004119999999N0000001N9+01281+99999101991ADDGF107991999999999999999999
0029029500999991902082813004+61483+021350FM-12+000699999V0200901N006219999999N0000001N9+01781+99999101801ADDGF106991999999999999999999
0029029500999991902082820004+61483+021350FM-12+000699999V0200901N006219999999N0000001N9+01281+99999101621ADDGF107991999999999999999999
0029029500999991902082906004+61483+021350FM-12+000699999V0200701N008219999999N0000001N9+01111+99999101521ADDGF106991999999999999999999
0029029500999991902082913004+61483+021350FM-12+000699999V0200901N006219999999N0000001N9+01671+99999101471ADDGF106991999999999999999999
0029029500999991902082920004+61483+021350FM-12+000699999V0201101N004119999999N0000001N9+01221+99999101461ADDGF108991999999999999999999
0029029500999991902083006004+61483+021350FM-12+000699999V0200901N004119999999N0000001N9+00941+99999101601ADDGF108991999999999999999999
0029029500999991902083013004+61483+021350FM-12+000699999V0201401N006219999999N0000001N9+01391+99999101671ADDGF107991999999999999999999
0029029500999991902083020004+61483+021350FM-12+000699999V0201401N006219999999N0000001N9+01111+99999101631ADDGF106991999999999999999999
0029029500999991902083106004+61483+021350FM-12+000699999V0201401N008219999999N0000001N9+00941+99999101581ADDGF106991999999999999999999
0029029500999991902083113004+61483+021350FM-12+000699999V0201601N011819999999N0000001N9+01501+99999101421ADDGF108991999999999999999999
0029029500999991902083120004+61483+021350FM-12+000699999V0201401N013919999999N0000001N9+01001+99999101441ADDGF108991999999999999999999
0029029500999991902090106004+61483+021350FM-12+000699999V0201401N013919999999N0000001N9+00941+99999101261ADDGF108991999999999999999999
0029029500999991902090113004+61483+021350FM-12+000699999V0201801N004119999999N0000001N9+01441+99999101261ADDGF108991999999999999999999
0029029500999991902090120004+61483+021350FM-12+000699999V0202701N004119999999N0000001N9+01001+99999101261ADDGF105991999999999999999999
0029029500999991902090206004+61483+021350FM-12+000699999V0203601N006219999999N0000001N9+01111+99999101421ADDGF106991999999999999999999
0029029500999991902090213004+61483+021350FM-12+000699999V0203201N006219999999N0000001N9+01171+99999101681ADDGF108991999999999999999999
0029029500999991902090220004+61483+021350FM-12+000699999V0209991C000019999999N0000001N9+00891+99999101701ADDGF101991999999999999999999
0029029500999991902090306004+61483+021350FM-12+000699999V0201401N006219999999N0000001N9+00781+99999101901ADDGF108991999999999999999999
0029029500999991902090313004+61483+021350FM-12+000699999V0201801N008219999999N0000001N9+01611+99999101961ADDGF103991999999999999999999
0029029500999991902090320004+61483+021350FM-12+000699999V0201801N009819999999N0000001N9+01331+99999101681ADDGF108991999999999999999999
0029029500999991902090406004+61483+021350FM-12+000699999V0202301N013919999999N0000001N9+01391+99999101121ADDGF108991999999999999999999
0029029500999991902090413004+61483+021350FM-12+000699999V0202301N020119999999N0000001N9+01501+99999100991ADDGF108991999999999999999999
0029029500999991902090420004+61483+021350FM-12+000699999V0202301N018019999999N0000001N9+01331+99999100721ADDGF108991999999999999999999
