0029029810999991901010113004+59500+020350FM-12+002699999V0202701N002119999999N0000001N9-00721+99999102671ADDGF105991999999999999999999
0029029810999991901010106004+59500+020350FM-12+002699999V0200501N002119999999N0000001N9-01061+99999102641ADDGF102991999999999999999999
0029029810999991901010120004+59500+020350FM-12+002699999V0202701N007219999999N0000001N9-00831+99999102671ADDGF105991999999999999999999
0029029810999991901010206004+59500+020350FM-12+002699999V0202701N008219999999N0000001N9-00501+99999102511ADDGF103991999999999999999999
0029029810999991901010213004+59500+020350FM-12+002699999V0202701N011819999999N0000001N9-00221+99999102441ADDGF105991999999999999999999
0029029810999991901010220004+59500+020350FM-12+002699999V0202701N009819999999N0000001N9-00111+99999102481ADDGF105991999999999999999999
0029029810999991901010306004+59500+020350FM-12+002699999V0202501N009819999999N0000001N9-00221+99999102591ADDGF105991999999999999999999
0029029810999991901010313004+59500+020350FM-12+002699999V0202501N013919999999N0000001N9-00221+99999102431ADDGF105991999999999999999999
0035029810999991901010320004+59500+020350FM-12+002699999V0202501N009819999999N0000001N9-00221+99999102231ADDGF108991999999999999999999MW1721
0029029810999991901010406004+59500+020350FM-12+002699999V0202301N006219999999N0000001N9-00171+99999102241ADDGF104991999999999999999999
0029029810999991901010413004+59500+020350FM-12+002699999V0202701N005119999999N0000001N9-00171+99999102471ADDGF105991999999999999999999
0029029810999991901010420004+59500+020350FM-12+002699999V0202501N003119999999N0000001N9-00171+99999102711ADDGF106991999999999999999999
0029029810999991901010506004+59500+020350FM-12+002699999V0202701N005119999999N0000001N9+00001+99999102881ADDGF108991999999999999999999
0029029810999991901010513004+59500+020350FM-12+002699999V0202501N014919999999N0000001N9+00111+99999103231ADDGF106991999999999999999999
0029029810999991901010520004+59500+020350FM-12+002699999V0202701N008219999999N0000001N9+00111+99999103311ADDGF108991999999999999999999
0029029810999991901010606004+59500+020350FM-12+002699999V0202701N003119999999N0000001N9+00001+99999103361ADDGF108991999999999999999999
0029029810999991901010613004+59500+020350FM-12+002699999V0202701N005119999999N0000001N9-00061+99999103391ADDGF108991999999999999999999
0029029810999991901010620004+59500+020350FM-12+002699999V0202701N004119999999N0000001N9-00061+99999103631ADDGF106991999999999999999999
0029029810999991901010706004+59500+020350FM-12+002699999V0202701N003119999999N0000001N9-00111+99999103321ADDGF108991999999999999999999
0029029810999991901010713004+59500+020350FM-12+002699999V0203201N004119999999N0000001N9-00061+99999103461ADDGF108991999999999999999999
0029029810999991901010720004+59500+020350FM-12+002699999V0202701N002119999999N0000001N9-00061+99999103551ADDGF108991999999999999999999
0035029810999991901010806004+59500+020350FM-12+002699999V0202001N006219999999N0000001N9-00111+99999103501ADDGF108991999999999999999999MW1701
0029029810999991901010813004+59500+020350FM-12+002699999V0202701N003119999999N0000001N9-00171+99999103601ADDGF108991999999999999999999
0035029810999991901010820004+59500+020350FM-12+002699999V0202301N006219999999N0000001N9-00171+99999103361ADDGF108991999999999999999999MW1701
0029029810999991901010906004+59500+020350FM-12+002699999V0202301N009819999999N0000001N9+00061+99999102881ADDGF108991999999999999999999
0029029810999991901010913004+59500+020350FM-12+002699999V0202301N009819999999N0000001N9+00061+99999102681ADDGF106991999999999999999999
0029029810999991901010920004+59500+020350FM-12+002699999V0202301N008719999999N0000001N9+00061+99999102441ADDGF108991999999999999999999
0029029810999991901011006004+59500+020350FM-12+002699999V0202501N008219999999N0000001N9+00061+99999102361ADDGF108991999999999999999999
0029029810999991901011013004+59500+020350FM-12+002699999V0202301N009819999999N0000001N9+00061+99999102261ADDGF106991999999999999999999
0029029810999991901011020004+59500+020350FM-12+002699999V0202301N008719999999N0000001N9+00111+99999102041ADDGF106991999999999999999999
0029029810999991901011106004+59500+020350FM-12+002699999V0203201N008219999999N0000001N9-00111+99999101981ADDGF106991999999999999999999
0029029810999991901011113004+59500+020350FM-12+002699999V0202901N008719999999N0000001N9-00221+99999101981ADDGF106991999999999999999999
0029029810999991901011120004+59500+020350FM-12+002699999V0202701N002119999999N0000001N9-00111+99999102001ADDGF104991999999999999999999
0029029810999991901011206004+59500+020350FM-12+002699999V0203201N008219999999N0000001N9-00111+99999101981ADDGF102991999999999999999999
0029029810999991901011213004+59500+020350FM-12+002699999V0203201N013919999999N0000001N9+00111+99999102231ADDGF102991999999999999999999
0029029810999991901011220004+59500+020350FM-12+002699999V0203401N008219999999N0000001N9+00111+99999102621ADDGF100991999999999999999999
0029029810999991901011306004+59500+020350FM-12+002699999V0203201N008719999999N0000001N9+00111+99999102861ADDGF102991999999999999999999
0029029810999991901011313004+59500+020350FM-12+002699999V0203201N008219999999N0000001N9+00061+99999102871ADDGF101991999999999999999999
0029029810999991901011320004+59500+020350FM-12+002699999V0203201N007219999999N0000001N9+00171+99999102981ADDGF102991999999999999999999
0029029810999991901011406004+59500+020350FM-12+002699999V0203201N006219999999N0000001N9+00061+99999103041ADDGF103991999999999999999999
0029029810999991901011413004+59500+020350FM-12+002699999V0202901N004119999999N0000001N9-00061+99999103241ADDGF100991999999999999999999
0029029810999991901011420004+59500+020350FM-12+002699999V0202701N005119999999N0000001N9-00281+99999103221ADDGF106991999999999999999999
0029029810999991901011506004+59500+020350FM-12+002699999V0202701N006219999999N0000001N9-00111+99999102871ADDGF103991999999999999999999
0029029810999991901011513004+59500+020350FM-12+002699999V0202901N008219999999N0000001N9-00221+99999102741ADDGF106991999999999999999999
0029029810999991901011520004+59500+020350FM-12+002699999V0202701N009819999999N0000001N9-00171+99999102421ADDGF106991999999999999999999
0029029810999991901011606004+59500+020350FM-12+002699999V0202901N007219999999N0000001N9-00111+99999102031ADDGF102991999999999999999999
0029029810999991901011613004+59500+020350FM-12+002699999V0203201N008219999999N0000001N9-00061+99999101821ADDGF102991999999999999999999
0029029810999991901011620004+59500+020350FM-12+002699999V0203201N008219999999N0000001N9+00111+99999101721ADDGF102991999999999999999999
0029029810999991901011706004+59500+020350FM-12+002699999V0202901N005119999999N0000001N9+00001+99999101631ADDGF102991999999999999999999
0029029810999991901011713004+59500+020350FM-12+002699999V0203201N003119999999N0000001N9+00001+99999101821ADDGF100991999999999999999999
0029029810999991901011720004+59500+020350FM-12+002699999V0202701N005119999999N0000001N9+00001+99999101761ADDGF100991999999999999999999
0029029810999991901011806004+59500+020350FM-12+002699999V0202701N008219999999N0000001N9-00221+99999101561ADDGF100991999999999999999999
0029029810999991901011813004+59500+020350FM-12+002699999V0202701N006219999999N0000001N9-00281+99999101631ADDGF106991999999999999999999
0029029810999991901011820004+59500+020350FM-12+002699999V0202501N006219999999N0000001N9-00111+99999101671ADDGF106991999999999999999999
0029029810999991901011906004+59500+020350FM-12+002699999V0202501N006219999999N0000001N9+00111+99999101281ADDGF108991999999999999999999
0029029810999991901011913004+59500+020350FM-12+002699999V0202301N008219999999N0000001N9+00111+99999100911ADDGF106991999999999999999999
0035029810999991901011920004+59500+020350FM-12+002699999V0202301N008719999999N0000001N9+00111+99999100781ADDGF108991999999999999999999MW1741
0035029810999991901012006004+59500+020350FM-12+002699999V0202501N006219999999N0000001N9+00111+99999100551ADDGF108991999999999999999999MW1701
0029029810999991901012013004+59500+020350FM-12+002699999V0202001N007219999999N0000001N9+00221+99999100061ADDGF108991999999999999999999
0029029810999991901012020004+59500+020350FM-12+002699999V0201401N010819999999N0000001N9+00061+99999098861ADDGF108991999999999999999999
0029029810999991901012106004+59500+020350FM-12+002699999V0202701N005119999999N0000001N9+00061+99999098021ADDGF108991999999999999999999
0029029810999991901012113004+59500+020350FM-12+002699999V0203601N013919999999N0000001N9-00111+99999098461ADDGF108991999999999999999999
0029029810999991901012120004+59500+020350FM-12+002699999V0203601N010819999999N0000001N9+00001+99999099671ADDGF108991999999999999999999
0029029810999991901012206004+59500+020350FM-12+002699999V0202001N009819999999N0000001N9+00171+99999099431ADDGF108991999999999999999999
0029029810999991901012213004+59500+020350FM-12+002699999V0202501N010819999999N0000001N9+00391+99999098341ADDGF102991999999999999999999
0029029810999991901012220004+59500+020350FM-12+002699999V0202701N013919999999N0000001N9+00441+99999098401ADDGF102991999999999999999999
0029029810999991901012306004+59500+020350FM-12+002699999V0202901N018019999999N0000001N9+00281+99999098681ADDGF102991999999999999999999
0029029810999991901012313004+59500+020350FM-12+002699999V0202901N018019999999N0000001N9+00391+99999099741ADDGF100991999999999999999999
0029029810999991901012320004+59500+020350FM-12+002699999V0202901N012919999999N0000001N9+00281+99999100671ADDGF100991999999999999999999
0029029810999991901012406004+59500+020350FM-12+002699999V0202701N010819999999N0000001N9+00281+99999101431ADDGF103991999999999999999999
0029029810999991901012413004+59500+020350FM-12+002699999V0202701N008219999999N0000001N9+00221+99999101351ADDGF102991999999999999999999
0029029810999991901012420004+59500+020350FM-12+002699999V0202301N009819999999N0000001N9+00331+99999101071ADDGF104991999999999999999999
0029029810999991901012506004+59500+020350FM-12+002699999V0202301N009819999999N0000001N9+00111+99999100151ADDGF106991999999999999999999
0029029810999991901012513004+59500+020350FM-12+002699999V0202301N003119999999N0000001N9+00171+99999099271ADDGF106991999999999999999999
0029029810999991901012520004+59500+020350FM-12+002699999V0202301N019019999999N0000001N9+00281+99999098821ADDGF100991999999999999999999
0029029810999991901012606004+59500+020350FM-12+002699999V0202501N023119999999N0000001N9+00221+99999098581ADDGF103991999999999999999999
0029029810999991901012613004+59500+020350FM-12+002699999V0202301N010819999999N0000001N9+00221+99999098521ADDGF105991999999999999999999
0029029810999991901012620004+59500+020350FM-12+002699999V0202301N014919999999N0000001N9+00111+99999098461ADDGF102991999999999999999999
0029029810999991901012706004+59500+020350FM-12+002699999V0202701N002119999999N0000001N9-00061+99999097941ADDGF106991999999999999999999
0035029810999991901012713004+59500+020350FM-12+002699999V0201801N002119999999N0000001N9-00111+99999097561ADDGF106991999999999999999999MW1721
0029029810999991901012720004+59500+020350FM-12+002699999V0202301N003119999999N0000001N9-00061+99999097081ADDGF104991999999999999999999
0035029810999991901012806004+59500+020350FM-12+002699999V0200501N010819999999N0000001N9-00111+99999096511ADDGF108991999999999999999999MW1721
0035029810999991901012813004+59500+020350FM-12+002699999V0200201N015919999999N0000001N9-00221+99999096681ADDGF108991999999999999999999MW1721
0029029810999991901012820004+59500+020350FM-12+002699999V0203401N009819999999N0000001N9-00171+99999096981ADDGF106991999999999999999999
0029029810999991901012906004+59500+020350FM-12+002699999V0203201N014919999999N0000001N9-00221+99999097121ADDGF106991999999999999999999
0029029810999991901012913004+59500+020350FM-12+002699999V0202901N008719999999N0000001N9-00281+99999097791ADDGF105991999999999999999999
0029029810999991901012920004+59500+020350FM-12+002699999V0202501N007219999999N0000001N9-00441+99999098141ADDGF106991999999999999999999
0029029810999991901013006004+59500+020350FM-12+002699999V0202301N004119999999N0000001N9-00221+99999098351ADDGF106991999999999999999999
0035029810999991901013013004+59500+020350FM-12+002699999V0201801N004119999999N0000001N9-00061+99999098191ADDGF105991999999999999999999MW1721
0029029810999991901013020004+59500+020350FM-12+002699999V0201801N004119999999N0000001N9-00061+99999098201ADDGF105991999999999999999999
0029029810999991901013106004+59500+020350FM-12+002699999V0203401N008719999999N0000001N9-00221+99999098101ADDGF108991999999999999999999
0029029810999991901013113004+59500+020350FM-12+002699999V0202701N008719999999N0000001N9-00331+99999098981ADDGF105991999999999999999999
0029029810999991901013120004+59500+020350FM-12+002699999V0202501N005119999999N0000001N9-00441+99999099521ADDGF106991999999999999999999
0029029810999991901020106004+59500+020350FM-12+002699999V0202301N008719999999N0000001N9-00061+99999099791ADDGF106991999999999999999999
0029029810999991901020113004+59500+020350FM-12+002699999V0202301N013919999999N0000001N9+00171+99999099601ADDGF105991999999999999999999
0029029810999991901020120004+59500+020350FM-12+002699999V0202301N012919999999N0000001N9+00111+99999099511ADDGF105991999999999999999999
0029029810999991901020206004+59500+020350FM-12+002699999V0202701N012919999999N0000001N9-00441+99999099961ADDGF103991999999999999999999
0029029810999991901020213004+59500+020350FM-12+002699999V0202701N008719999999N0000001N9-00501+99999100361ADDGF104991999999999999999999
0029029810999991901020220004+59500+020350FM-12+002699999V0202701N007219999999N0000001N9-00331+99999100561ADDGF102991999999999999999999
0029029810999991901020306004+59500+020350FM-12+002699999V0202901N002119999999N0000001N9-00281+99999100101ADDGF106991999999999999999999
0029029810999991901020313004+59500+020350FM-12+002699999V0202701N004119999999N0000001N9-00331+99999099781ADDGF106991999999999999999999
0029029810999991901020320004+59500+020350FM-12+002699999V0202701N007219999999N0000001N9+00001+99999099701ADDGF106991999999999999999999
0035029810999991901020406004+59500+020350FM-12+002699999V0202501N009819999999N0000001N9-00061+99999099781ADDGF108991999999999999999999MW1721
0029029810999991901020413004+59500+020350FM-12+002699999V0202701N006219999999N0000001N9+00001+99999100111ADDGF106991999999999999999999
0029029810999991901020420004+59500+020350FM-12+002699999V0201801N007219999999N0000001N9+00061+99999100061ADDGF101991999999999999999999
0035029810999991901020506004+59500+020350FM-12+002699999V0201601N008719999999N0000001N9+00001+99999099831ADDGF108991999999999999999999MW1721
0029029810999991901020513004+59500+020350FM-12+002699999V0202301N004119999999N0000001N9+00171+99999099761ADDGF106991999999999999999999
0029029810999991901020520004+59500+020350FM-12+002699999V0202501N003119999999N0000001N9+00061+99999099781ADDGF105991999999999999999999
0029029810999991901020606004+59500+020350FM-12+002699999V0203601N007219999999N0000001N9-00111+99999100321ADDGF107991999999999999999999
0029029810999991901020613004+59500+020350FM-12+002699999V0200201N009819999999N0000001N9-00221+99999100481ADDGF104991999999999999999999
0029029810999991901020620004+59500+020350FM-12+002699999V0203601N005119999999N0000001N9-00281+99999100511ADDGF106991999999999999999999
0029029810999991901020706004+59500+020350FM-12+002699999V0202901N009819999999N0000001N9-00221+99999100221ADDGF102991999999999999999999
0029029810999991901020713004+59500+020350FM-12+002699999V0202701N008719999999N0000001N9-00281+99999100521ADDGF104991999999999999999999
0029029810999991901020720004+59500+020350FM-12+002699999V0202301N010819999999N0000001N9-00171+99999100261ADDGF102991999999999999999999
0029029810999991901020806004+59500+020350FM-12+002699999V0203201N015919999999N0000001N9-00061+99999100671ADDGF101991999999999999999999
0029029810999991901020813004+59500+020350FM-12+002699999V0203201N008719999999N0000001N9+00001+99999101311ADDGF102991999999999999999999
0029029810999991901020820004+59500+020350FM-12+002699999V0203201N004119999999N0000001N9-00061+99999101661ADDGF102991999999999999999999
0029029810999991901020906004+59500+020350FM-12+002699999V0202301N012919999999N0000001N9+00111+99999100381ADDGF106991999999999999999999
0029029810999991901020913004+59500+020350FM-12+002699999V0202701N011819999999N0000001N9+00001+99999099561ADDGF106991999999999999999999
0029029810999991901020920004+59500+020350FM-12+002699999V0203401N001019999999N0000001N9+00001+99999099591ADDGF108991999999999999999999
0029029810999991901021006004+59500+020350FM-12+002699999V0203601N013919999999N0000001N9-00561+99999099881ADDGF106991999999999999999999
0029029810999991901021013004+59500+020350FM-12+002699999V0203201N018019999999N0000001N9-00501+99999099671ADDGF106991999999999999999999
0029029810999991901021020004+59500+020350FM-12+002699999V0203201N020119999999N0000001N9-00281+99999099321ADDGF106991999999999999999999
0035029810999991901021106004+59500+020350FM-12+002699999V0203601N007219999999N0000001N9-01001+99999099671ADDGF108991999999999999999999MW1721
0029029810999991901021113004+59500+020350FM-12+002699999V0200201N018019999999N0000001N9-00941+99999100161ADDGF104991999999999999999999
0029029810999991901021120004+59500+020350FM-12+002699999V0200501N003119999999N0000001N9-00831+99999100441ADDGF104991999999999999999999
0029029810999991901021206004+59500+020350FM-12+002699999V0203601N008219999999N0000001N9-00721+99999100481ADDGF106991999999999999999999
0029029810999991901021213004+59500+020350FM-12+002699999V0200201N008719999999N0000001N9-00891+99999100841ADDGF104991999999999999999999
0029029810999991901021220004+59500+020350FM-12+002699999V0200501N011819999999N0000001N9-00941+99999101321ADDGF106991999999999999999999
0029029810999991901021306004+59500+020350FM-12+002699999V0200201N008219999999N0000001N9-00781+99999101701ADDGF106991999999999999999999
0029029810999991901021313004+59500+020350FM-12+002699999V0203601N003119999999N0000001N9-00671+99999102061ADDGF104991999999999999999999
0029029810999991901021320004+59500+020350FM-12+002699999V0203201N004119999999N0000001N9-00561+99999102041ADDGF104991999999999999999999
0029029810999991901021406004+59500+020350FM-12+002699999V0203201N004119999999N0000001N9-00501+99999102441ADDGF105991999999999999999999
0029029810999991901021413004+59500+020350FM-12+002699999V0200501N005119999999N0000001N9-00561+99999102561ADDGF103991999999999999999999
0029029810999991901021420004+59500+020350FM-12+002699999V0200701N008719999999N0000001N9-00721+99999102631ADDGF104991999999999999999999
0029029810999991901021506004+59500+020350FM-12+002699999V0200501N005119999999N0000001N9-00891+99999102351ADDGF102991999999999999999999
0029029810999991901021513004+59500+020350FM-12+002699999V0200201N002119999999N0000001N9-00891+99999102281ADDGF102991999999999999999999
0029029810999991901021520004+59500+020350FM-12+002699999V0202501N006219999999N0000001N9-00781+99999101761ADDGF102991999999999999999999
0029029810999991901021606004+59500+020350FM-12+002699999V0202301N012919999999N0000001N9-00281+99999100761ADDGF106991999999999999999999
0029029810999991901021613004+59500+020350FM-12+002699999V0202701N003119999999N0000001N9-00331+99999100621ADDGF105991999999999999999999
0029029810999991901021620004+59500+020350FM-12+002699999V0200201N002119999999N0000001N9-00111+99999100831ADDGF106991999999999999999999
0029029810999991901021706004+59500+020350FM-12+002699999V0200201N004119999999N0000001N9-00441+99999101721ADDGF108991999999999999999999
0029029810999991901021713004+59500+020350FM-12+002699999V0203601N014919999999N0000001N9-00561+99999102071ADDGF106991999999999999999999
0029029810999991901021720004+59500+020350FM-12+002699999V0200201N006219999999N0000001N9-00781+99999102621ADDGF106991999999999999999999
0029029810999991901021806004+59500+020350FM-12+002699999V0200501N002119999999N0000001N9-00611+99999102601ADDGF107991999999999999999999
0035029810999991901021813004+59500+020350FM-12+002699999V0201101N003119999999N0000001N9-00501+99999102721ADDGF106991999999999999999999MW1901
0029029810999991901021820004+59500+020350FM-12+002699999V0201401N006219999999N0000001N9-00721+99999102841ADDGF108991999999999999999999
0029029810999991901021906004+59500+020350FM-12+002699999V0201401N007219999999N0000001N9-00671+99999102661ADDGF108991999999999999999999
0029029810999991901021913004+59500+020350FM-12+002699999V0201401N008719999999N0000001N9-00501+99999102741ADDGF106991999999999999999999
0029029810999991901021920004+59500+020350FM-12+002699999V0200501N005119999999N0000001N9-00501+99999102541ADDGF106991999999999999999999
0029029810999991901022006004+59500+020350FM-12+002699999V0209991C000019999999N0000001N9-00391+99999102201ADDGF108991999999999999999999
0029029810999991901022013004+59500+020350FM-12+002699999V0202701N003119999999N0000001N9-00561+99999102021ADDGF104991999999999999999999
0029029810999991901022020004+59500+020350FM-12+002699999V0202901N005119999999N0000001N9-00561+99999101781ADDGF108991999999999999999999
0029029810999991901022106004+59500+020350FM-12+002699999V0202701N007219999999N0000001N9-00441+99999101471ADDGF107991999999999999999999
0029029810999991901022113004+59500+020350FM-12+002699999V0202501N008719999999N0000001N9-00331+99999101321ADDGF106991999999999999999999
0029029810999991901022120004+59500+020350FM-12+002699999V0202501N009819999999N0000001N9-00171+99999100831ADDGF108991999999999999999999
0029029810999991901022206004+59500+020350FM-12+002699999V0203601N014919999999N0000001N9-00331+99999100541ADDGF108991999999999999999999
0029029810999991901022213004+59500+020350FM-12+002699999V0200201N003119999999N0000001N9-00561+99999100781ADDGF104991999999999999999999
0029029810999991901022220004+59500+020350FM-12+002699999V0201801N007219999999N0000001N9-00331+99999100081ADDGF106991999999999999999999
0029029810999991901022306004+59500+020350FM-12+002699999V0202501N013919999999N0000001N9-00111+99999098501ADDGF108991999999999999999999
0035029810999991901022313004+59500+020350FM-12+002699999V0203601N008719999999N0000001N9+00001+99999097791ADDGF108991999999999999999999MW1721
0035029810999991901022320004+59500+020350FM-12+002699999V0200201N028819999999N0000001N9-00831+99999097751ADDGF108991999999999999999999MW1721
0029029810999991901022406004+59500+020350FM-12+002699999V0203201N020119999999N0000001N9-00891+99999098301ADDGF108991999999999999999999
0029029810999991901022413004+59500+020350FM-12+002699999V0203401N022119999999N0000001N9-00781+99999098461ADDGF106991999999999999999999
0029029810999991901022420004+59500+020350FM-12+002699999V0203601N022119999999N0000001N9-00781+99999098761ADDGF106991999999999999999999
0029029810999991901022506004+59500+020350FM-12+002699999V0203201N017019999999N0000001N9-00941+99999099231ADDGF106991999999999999999999
0029029810999991901022513004+59500+020350FM-12+002699999V0202701N015919999999N0000001N9-00331+99999099191ADDGF104991999999999999999999
0029029810999991901022520004+59500+020350FM-12+002699999V0202701N018019999999N0000001N9-00111+99999099431ADDGF105991999999999999999999
0029029810999991901022606004+59500+020350FM-12+002699999V0203401N004119999999N0000001N9-00391+99999100431ADDGF103991999999999999999999
0029029810999991901022613004+59500+020350FM-12+002699999V0202301N003119999999N0000001N9-00061+99999100801ADDGF102991999999999999999999
0029029810999991901022620004+59500+020350FM-12+002699999V0202301N010819999999N0000001N9-00171+99999100551ADDGF105991999999999999999999
0029029810999991901022706004+59500+020350FM-12+002699999V0202301N010819999999N0000001N9+00001+99999099561ADDGF108991999999999999999999
0029029810999991901022713004+59500+020350FM-12+002699999V0202701N008219999999N0000001N9+00061+99999099241ADDGF108991999999999999999999
0029029810999991901022720004+59500+020350FM-12+002699999V0202301N006219999999N0000001N9+00061+99999099591ADDGF108991999999999999999999
0029029810999991901022806004+59500+020350FM-12+002699999V0203201N002119999999N0000001N9-00061+99999098901ADDGF108991999999999999999999
0029029810999991901022813004+59500+020350FM-12+002699999V0203201N011819999999N0000001N9-00441+99999099431ADDGF106991999999999999999999
0029029810999991901022820004+59500+020350FM-12+002699999V0203601N010819999999N0000001N9-00441+99999099841ADDGF106991999999999999999999
0029029810999991901030106004+59500+020350FM-12+002699999V0200501N008719999999N0000001N9-00671+99999100471ADDGF108991999999999999999999
0029029810999991901030113004+59500+020350FM-12+002699999V0200701N008719999999N0000001N9-00671+99999100821ADDGF106991999999999999999999
0029029810999991901030120004+59500+020350FM-12+002699999V0200701N010819999999N0000001N9-00561+99999101061ADDGF102991999999999999999999
0029029810999991901030206004+59500+020350FM-12+002699999V0200901N009819999999N0000001N9-00561+99999101181ADDGF108991999999999999999999
0029029810999991901030213004+59500+020350FM-12+002699999V0200901N008219999999N0000001N9-00611+99999101361ADDGF106991999999999999999999
0029029810999991901030220004+59500+020350FM-12+002699999V0200901N011819999999N0000001N9-00611+99999101421ADDGF106991999999999999999999
0029029810999991901030306004+59500+020350FM-12+002699999V0200701N010819999999N0000001N9-00831+99999101061ADDGF106991999999999999999999
0029029810999991901030313004+59500+020350FM-12+002699999V0200501N009819999999N0000001N9-00891+99999101001ADDGF106991999999999999999999
0029029810999991901030320004+59500+020350FM-12+002699999V0200501N006219999999N0000001N9-00611+99999101001ADDGF106991999999999999999999
0029029810999991901030406004+59500+020350FM-12+002699999V0200901N008219999999N0000001N9-00111+99999100981ADDGF108991999999999999999999
0029029810999991901030413004+59500+020350FM-12+002699999V0201401N009819999999N0000001N9-00171+99999101161ADDGF106991999999999999999999
0029029810999991901030420004+59500+020350FM-12+002699999V0201401N006219999999N0000001N9-00061+99999101221ADDGF106991999999999999999999
0029029810999991901030506004+59500+020350FM-12+002699999V0201401N005119999999N0000001N9+00001+99999101181ADDGF106991999999999999999999
0029029810999991901030513004+59500+020350FM-12+002699999V0202001N007219999999N0000001N9+00061+99999101081ADDGF108991999999999999999999
0029029810999991901030520004+59500+020350FM-12+002699999V0202001N011819999999N0000001N9+00111+99999100821ADDGF106991999999999999999999
0029029810999991901030606004+59500+020350FM-12+002699999V0201801N012919999999N0000001N9+00111+99999100141ADDGF108991999999999999999999
0035029810999991901030613004+59500+020350FM-12+002699999V0201801N019019999999N0000001N9+00061+99999099821ADDGF108991999999999999999999MW1701
0029029810999991901030620004+59500+020350FM-12+002699999V0202301N007219999999N0000001N9+00061+99999099741ADDGF106991999999999999999999
0029029810999991901030706004+59500+020350FM-12+002699999V0201801N008719999999N0000001N9-00111+99999100031ADDGF108991999999999999999999
0029029810999991901030713004+59500+020350FM-12+002699999V0201801N009819999999N0000001N9+00171+99999100341ADDGF106991999999999999999999
0029029810999991901030720004+59500+020350FM-12+002699999V0201601N006219999999N0000001N9+00001+99999100581ADDGF108991999999999999999999
0029029810999991901030806004+59500+020350FM-12+002699999V0201401N005119999999N0000001N9-00061+99999100951ADDGF108991999999999999999999
0029029810999991901030813004+59500+020350FM-12+002699999V0200701N004119999999N0000001N9-00171+99999101441ADDGF108991999999999999999999
0029029810999991901030820004+59500+020350FM-12+002699999V0201601N004119999999N0000001N9-00221+99999101761ADDGF108991999999999999999999
0029029810999991901030906004+59500+020350FM-12+002699999V0203201N002119999999N0000001N9-00171+99999101841ADDGF106991999999999999999999
0029029810999991901030913004+59500+020350FM-12+002699999V0202301N009819999999N0000001N9-00111+99999102161ADDGF106991999999999999999999
0029029810999991901030920004+59500+020350FM-12+002699999V0202301N015919999999N0000001N9+00001+99999101111ADDGF108991999999999999999999
0029029810999991901031006004+59500+020350FM-12+002699999V0202501N011819999999N0000001N9+00111+99999100471ADDGF106991999999999999999999
0029029810999991901031013004+59500+020350FM-12+002699999V0202501N011819999999N0000001N9+00171+99999100511ADDGF106991999999999999999999
0029029810999991901031020004+59500+020350FM-12+002699999V0202701N009819999999N0000001N9+00281+99999100791ADDGF104991999999999999999999
0035029810999991901031106004+59500+020350FM-12+002699999V0202501N008719999999N0000001N9+00171+99999100471ADDGF108991999999999999999999MW1701
0029029810999991901031113004+59500+020350FM-12+002699999V0202301N010819999999N0000001N9+00171+99999999999ADDGF106991999999999999999999
0029029810999991901031120004+59500+020350FM-12+002699999V0202301N011819999999N0000001N9+00221+99999099941ADDGF106991999999999999999999
0029029810999991901031206004+59500+020350FM-12+002699999V0203601N007219999999N0000001N9+00001+99999100621ADDGF103991999999999999999999
0029029810999991901031213004+59500+020350FM-12+002699999V0203401N003119999999N0000001N9+00061+99999100921ADDGF101991999999999999999999
0029029810999991901031220004+59500+020350FM-12+002699999V0202701N006219999999N0000001N9+00111+99999101201ADDGF100991999999999999999999
0029029810999991901031306004+59500+020350FM-12+002699999V0202501N006219999999N0000001N9+00061+99999101701ADDGF102991999999999999999999
0029029810999991901031313004+59500+020350FM-12+002699999V0202301N010819999999N0000001N9+00171+99999101511ADDGF102991999999999999999999
0029029810999991901031320004+59500+020350FM-12+002699999V0202501N009819999999N0000001N9+00111+99999101741ADDGF102991999999999999999999
0029029810999991901031406004+59500+020350FM-12+002699999V0203401N006219999999N0000001N9+00171+99999102231ADDGF101991999999999999999999
0029029810999991901031413004+59500+020350FM-12+002699999V0200901N007219999999N0000001N9+00221+99999102591ADDGF102991999999999999999999
0029029810999991901031420004+59500+020350FM-12+002699999V0201401N009819999999N0000001N9+00061+99999102741ADDGF100991999999999999999999
0029029810999991901031506004+59500+020350FM-12+002699999V0201401N011819999999N0000001N9+00001+99999102641ADDGF101991999999999999999999
0029029810999991901031513004+59500+020350FM-12+002699999V0201401N011819999999N0000001N9+00221+99999102401ADDGF100991999999999999999999
0029029810999991901031520004+59500+020350FM-12+002699999V0201401N009819999999N0000001N9+00111+99999102221ADDGF101991999999999999999999
0029029810999991901031606004+59500+020350FM-12+002699999V0201601N008719999999N0000001N9+00061+99999101631ADDGF106991999999999999999999
0035029810999991901031613004+59500+020350FM-12+002699999V0201801N006219999999N0000001N9+00171+99999101141ADDGF108991999999999999999999MW1701
0029029810999991901031620004+59500+020350FM-12+002699999V0201801N005119999999N0000001N9+00061+99999100791ADDGF108991999999999999999999
0029029810999991901031706004+59500+020350FM-12+002699999V0202301N003119999999N0000001N9+00061+99999100241ADDGF108991999999999999999999
0029029810999991901031713004+59500+020350FM-12+002699999V0202501N003119999999N0000001N9+00061+99999100041ADDGF106991999999999999999999
0029029810999991901031720004+59500+020350FM-12+002699999V0203201N009819999999N0000001N9-00061+99999100081ADDGF108991999999999999999999
0029029810999991901031806004+59500+020350FM-12+002699999V0200201N007219999999N0000001N9-00221+99999100341ADDGF106991999999999999999999
0029029810999991901031813004+59500+020350FM-12+002699999V0200201N008219999999N0000001N9-00061+99999100501ADDGF102991999999999999999999
0029029810999991901031820004+59500+020350FM-12+002699999V0200201N008219999999N0000001N9-00171+99999100681ADDGF101991999999999999999999
0029029810999991901031906004+59500+020350FM-12+002699999V0200201N007219999999N0000001N9-00221+99999100721ADDGF102991999999999999999999
0029029810999991901031913004+59500+020350FM-12+002699999V0200201N003119999999N0000001N9-00221+99999100801ADDGF102991999999999999999999
0029029810999991901031920004+59500+020350FM-12+002699999V0202701N003119999999N0000001N9-00111+99999100711ADDGF101991999999999999999999
0029029810999991901032006004+59500+020350FM-12+002699999V0203401N008219999999N0000001N9-00061+99999100681ADDGF106991999999999999999999
0029029810999991901032013004+59500+020350FM-12+002699999V0200201N007219999999N0000001N9-00111+99999101151ADDGF101991999999999999999999
0029029810999991901032020004+59500+020350FM-12+002699999V0203601N007219999999N0000001N9-00171+99999101391ADDGF100991999999999999999999
0029029810999991901032106004+59500+020350FM-12+002699999V0200501N008219999999N0000001N9-00281+99999101621ADDGF101991999999999999999999
0029029810999991901032113004+59500+020350FM-12+002699999V0200201N007219999999N0000001N9-00331+99999101721ADDGF101991999999999999999999
0029029810999991901032120004+59500+020350FM-12+002699999V0203601N005119999999N0000001N9-00221+99999101711ADDGF100991999999999999999999
0035029810999991901032206004+59500+020350FM-12+002699999V0200501N001019999999N0000001N9-00111+99999101821ADDGF101991999999999999999999MW1481
0029029810999991901032213004+59500+020350FM-12+002699999V0203201N002119999999N0000001N9+00001+99999102141ADDGF101991999999999999999999
0029029810999991901032220004+59500+020350FM-12+002699999V0203201N004119999999N0000001N9+00001+99999102191ADDGF100991999999999999999999
0035029810999991901032306004+59500+020350FM-12+002699999V0203201N005119999999N0000001N9+00061+99999102121ADDGF102991999999999999999999MW1481
0029029810999991901032313004+59500+020350FM-12+002699999V0202901N005119999999N0000001N9+00171+99999102021ADDGF102991999999999999999999
0029029810999991901032320004+59500+020350FM-12+002699999V0202501N004119999999N0000001N9+00331+99999101751ADDGF100991999999999999999999
0035029810999991901032406004+59500+020350FM-12+002699999V0202701N006219999999N0000001N9+00001+99999100791ADDGF102991999999999999999999MW1701
0029029810999991901032413004+59500+020350FM-12+002699999V0202501N010819999999N0000001N9+00061+99999099881ADDGF104991999999999999999999
0029029810999991901032420004+59500+020350FM-12+002699999V0202701N008719999999N0000001N9+00061+99999099361ADDGF106991999999999999999999
0029029810999991901032506004+59500+020350FM-12+002699999V0200501N023119999999N0000001N9-00561+99999099261ADDGF108991999999999999999999
0029029810999991901032513004+59500+020350FM-12+002699999V0200201N014919999999N0000001N9-00831+99999099901ADDGF104991999999999999999999
0029029810999991901032520004+59500+020350FM-12+002699999V0203601N008719999999N0000001N9-00781+99999100121ADDGF102991999999999999999999
0029029810999991901032606004+59500+020350FM-12+002699999V0202701N012919999999N0000001N9-00501+99999099741ADDGF104991999999999999999999
0029029810999991901032613004+59500+020350FM-12+002699999V0202901N008219999999N0000001N9-00501+99999099991ADDGF102991999999999999999999
0029029810999991901032620004+59500+020350FM-12+002699999V0203401N006219999999N0000001N9-00671+99999100421ADDGF102991999999999999999999
0029029810999991901032706004+59500+020350FM-12+002699999V0201401N001019999999N0000001N9-00611+99999100711ADDGF103991999999999999999999
0029029810999991901032713004+59500+020350FM-12+002699999V0201401N011819999999N0000001N9-00501+99999100791ADDGF103991999999999999999999
0035029810999991901032720004+59500+020350FM-12+002699999V0201401N020119999999N0000001N9-00391+99999100481ADDGF108991999999999999999999MW1741
0029029810999991901032806004+59500+020350FM-12+002699999V0201801N011819999999N0000001N9-00221+99999100511ADDGF105991999999999999999999
0029029810999991901032813004+59500+020350FM-12+002699999V0201401N010819999999N0000001N9-00331+99999100761ADDGF105991999999999999999999
0029029810999991901032820004+59500+020350FM-12+002699999V0200901N012919999999N0000001N9-00441+99999100781ADDGF106991999999999999999999
0029029810999991901032906004+59500+020350FM-12+002699999V0201101N008219999999N0000001N9-00391+99999100881ADDGF106991999999999999999999
0029029810999991901032913004+59500+020350FM-12+002699999V0201401N006219999999N0000001N9-00331+99999101141ADDGF105991999999999999999999
0029029810999991901032920004+59500+020350FM-12+002699999V0200901N011819999999N0000001N9-00281+99999101241ADDGF106991999999999999999999
0029029810999991901033006004+59500+020350FM-12+002699999V0201401N009819999999N0000001N9-00221+99999101151ADDGF106991999999999999999999
0029029810999991901033013004+59500+020350FM-12+002699999V0201401N005119999999N0000001N9-00221+99999101231ADDGF105991999999999999999999
0029029810999991901033020004+59500+020350FM-12+002699999V0200901N003119999999N0000001N9-00391+99999101471ADDGF106991999999999999999999
0029029810999991901033106004+59500+020350FM-12+002699999V0201401N008219999999N0000001N9-00281+99999101501ADDGF104991999999999999999999
0029029810999991901033113004+59500+020350FM-12+002699999V0201401N019019999999N0000001N9-00171+99999100991ADDGF106991999999999999999999
0035029810999991901033120004+59500+020350FM-12+002699999V0201801N018019999999N0000001N9+00111+99999100441ADDGF108991999999999999999999MW1741
0029029810999991901040106004+59500+020350FM-12+002699999V0202001N022119999999N0000001N9+00221+99999099881ADDGF108991999999999999999999
0035029810999991901040113004+59500+020350FM-12+002699999V0201801N012919999999N0000001N9+00281+99999099751ADDGF108991999999999999999999MW1621
0029029810999991901040120004+59500+020350FM-12+002699999V0202301N012919999999N0000001N9+00221+99999099911ADDGF108991999999999999999999
0029029810999991901040206004+59500+020350FM-12+002699999V0202301N009819999999N0000001N9+00171+99999100391ADDGF104991999999999999999999
0035029810999991901040213004+59500+020350FM-12+002699999V0202301N012919999999N0000001N9+00391+99999100741ADDGF102991999999999999999999MW1051
0029029810999991901040220004+59500+020350FM-12+002699999V0202301N010819999999N0000001N9+00281+99999100991ADDGF102991999999999999999999
0029029810999991901040306004+59500+020350FM-12+002699999V0202701N005119999999N0000001N9+00171+99999101841ADDGF102991999999999999999999
0029029810999991901040313004+59500+020350FM-12+002699999V0202301N009819999999N0000001N9+00221+99999101941ADDGF106991999999999999999999
0029029810999991901040320004+59500+020350FM-12+002699999V0201801N014919999999N0000001N9+00281+99999101071ADDGF106991999999999999999999
0029029810999991901040406004+59500+020350FM-12+002699999V0202301N014919999999N0000001N9+00281+99999099741ADDGF108991999999999999999999
0035029810999991901040413004+59500+020350FM-12+002699999V0201801N011819999999N0000001N9+00171+99999098871ADDGF108991999999999999999999MW1621
0035029810999991901040420004+59500+020350FM-12+002699999V0202301N014919999999N0000001N9+00281+99999097551ADDGF108991999999999999999999MW1621
0029029810999991901040506004+59500+020350FM-12+002699999V0202501N013919999999N0000001N9+00061+99999097911ADDGF106991999999999999999999
0029029810999991901040513004+59500+020350FM-12+002699999V0202501N006219999999N0000001N9+00221+99999098401ADDGF102991999999999999999999
0029029810999991901040520004+59500+020350FM-12+002699999V0203201N008219999999N0000001N9+00281+99999099221ADDGF102991999999999999999999
0029029810999991901040606004+59500+020350FM-12+002699999V0203201N012919999999N0000001N9+00001+99999099831ADDGF102991999999999999999999
0035029810999991901040613004+59500+020350FM-12+002699999V0202301N013919999999N0000001N9+00111+99999099831ADDGF108991999999999999999999MW1741
0029029810999991901040620004+59500+020350FM-12+002699999V0203201N008219999999N0000001N9-00061+99999099981ADDGF102991999999999999999999
0029029810999991901040706004+59500+020350FM-12+002699999V0203201N008219999999N0000001N9+00111+99999100071ADDGF102991999999999999999999
0029029810999991901040713004+59500+020350FM-12+002699999V0203201N008719999999N0000001N9+00111+99999100501ADDGF102991999999999999999999
0029029810999991901040720004+59500+020350FM-12+002699999V0202701N003119999999N0000001N9+00281+99999100831ADDGF102991999999999999999999
0029029810999991901040806004+59500+020350FM-12+002699999V0202301N005119999999N0000001N9+00391+99999101231ADDGF101991999999999999999999
0029029810999991901040813004+59500+020350FM-12+002699999V0201801N012919999999N0000001N9+00281+99999101321ADDGF101991999999999999999999
0029029810999991901040820004+59500+020350FM-12+002699999V0201801N011819999999N0000001N9+00171+99999100701ADDGF105991999999999999999999
0029029810999991901040906004+59500+020350FM-12+002699999V0202301N008719999999N0000001N9+00111+99999100241ADDGF108991999999999999999999
0029029810999991901040913004+59500+020350FM-12+002699999V0201801N010819999999N0000001N9+00171+99999099981ADDGF108991999999999999999999
0029029810999991901040920004+59500+020350FM-12+002699999V0202001N011819999999N0000001N9+00281+99999099181ADDGF106991999999999999999999
0029029810999991901041006004+59500+020350FM-12+002699999V0202501N014919999999N0000001N9+00221+99999099181ADDGF106991999999999999999999
0029029810999991901041013004+59500+020350FM-12+002699999V0202501N008219999999N0000001N9+00331+99999099481ADDGF102991999999999999999999
0029029810999991901041020004+59500+020350FM-12+002699999V0202501N008719999999N0000001N9+00281+99999099541ADDGF102991999999999999999999
0029029810999991901041106004+59500+020350FM-12+002699999V0202301N003119999999N0000001N9+00281+99999099421ADDGF106991999999999999999999
0029029810999991901041113004+59500+020350FM-12+002699999V0202301N003119999999N0000001N9+00281+99999099551ADDGF108991999999999999999999
0029029810999991901041120004+59500+020350FM-12+002699999V0202301N003119999999N0000001N9+00281+99999099751ADDGF106991999999999999999999
0029029810999991901041206004+59500+020350FM-12+002699999V0202701N005119999999N0000001N9+00221+99999099941ADDGF104991999999999999999999
0029029810999991901041213004+59500+020350FM-12+002699999V0209991C000019999999N0000001N9+00281+99999100301ADDGF102991999999999999999999
0029029810999991901041220004+59500+020350FM-12+002699999V0200901N003119999999N0000001N9-00111+99999100501ADDGF108991999999999999999999
0029029810999991901041306004+59500+020350FM-12+002699999V0200501N013919999999N0000001N9+00001+99999100311ADDGF106991999999999999999999
0029029810999991901041313004+59500+020350FM-12+002699999V0200501N013919999999N0000001N9+00061+99999100481ADDGF106991999999999999999999
0029029810999991901041320004+59500+020350FM-12+002699999V0200501N010819999999N0000001N9+00221+99999100441ADDGF105991999999999999999999
0029029810999991901041406004+59500+020350FM-12+002699999V0200501N012919999999N0000001N9+00061+99999100111ADDGF106991999999999999999999
0035029810999991901041413004+59500+020350FM-12+002699999V0200201N012919999999N0000001N9+00221+99999099671ADDGF106991999999999999999999MW1701
0029029810999991901041420004+59500+020350FM-12+002699999V0200501N011819999999N0000001N9+00111+99999099711ADDGF106991999999999999999999
0029029810999991901041506004+59500+020350FM-12+002699999V0200501N011819999999N0000001N9-00171+99999099561ADDGF106991999999999999999999
0035029810999991901041513004+59500+020350FM-12+002699999V0203601N007219999999N0000001N9-00171+99999099551ADDGF106991999999999999999999MW1741
0029029810999991901041520004+59500+020350FM-12+002699999V0203601N004119999999N0000001N9-00111+99999099561ADDGF106991999999999999999999
0035029810999991901041606004+59500+020350FM-12+002699999V0201401N011819999999N0000001N9-00061+99999099601ADDGF106991999999999999999999MW1741
0029029810999991901041613004+59500+020350FM-12+002699999V0201601N009819999999N0000001N9+00281+99999099671ADDGF106991999999999999999999
0029029810999991901041620004+59500+020350FM-12+002699999V0201801N002119999999N0000001N9+00171+99999100191ADDGF102991999999999999999999
0029029810999991901041706004+59500+020350FM-12+002699999V0200201N009819999999N0000001N9+00061+99999100021ADDGF108991999999999999999999
0029029810999991901041713004+59500+020350FM-12+002699999V0203201N008219999999N0000001N9+00061+99999100041ADDGF108991999999999999999999
0029029810999991901041720004+59500+020350FM-12+002699999V0203201N011819999999N0000001N9-00061+99999100701ADDGF106991999999999999999999
0029029810999991901041806004+59500+020350FM-12+002699999V0203201N008719999999N0000001N9-00061+99999100921ADDGF108991999999999999999999
0029029810999991901041813004+59500+020350FM-12+002699999V0202701N004119999999N0000001N9+00221+99999101021ADDGF102991999999999999999999
0029029810999991901041820004+59500+020350FM-12+002699999V0202301N005119999999N0000001N9+00171+99999101081ADDGF102991999999999999999999
0029029810999991901041906004+59500+020350FM-12+002699999V0202701N004119999999N0000001N9+00221+99999101541ADDGF101991999999999999999999
0029029810999991901041913004+59500+020350FM-12+002699999V0202301N003119999999N0000001N9+00441+99999101801ADDGF102991999999999999999999
0029029810999991901041920004+59500+020350FM-12+002699999V0202301N003119999999N0000001N9+00171+99999101791ADDGF102991999999999999999999
0029029810999991901042006004+59500+020350FM-12+002699999V0202701N002119999999N0000001N9+00391+99999102151ADDGF102991999999999999999999
0029029810999991901042013004+59500+020350FM-12+002699999V0202901N004119999999N0000001N9+00221+99999101901ADDGF103991999999999999999999
0029029810999991901042020004+59500+020350FM-12+002699999V0203201N006219999999N0000001N9+00391+99999101921ADDGF108991999999999999999999
0029029810999991901042106004+59500+020350FM-12+002699999V0203201N008719999999N0000001N9-00061+99999101991ADDGF106991999999999999999999
0029029810999991901042113004+59500+020350FM-12+002699999V0203201N009819999999N0000001N9+00061+99999102151ADDGF102991999999999999999999
0029029810999991901042120004+59500+020350FM-12+002699999V0203201N003119999999N0000001N9-00061+99999102181ADDGF108991999999999999999999
0029029810999991901042206004+59500+020350FM-12+002699999V0202901N001019999999N0000001N9-00171+99999102301ADDGF108991999999999999999999
0029029810999991901042213004+59500+020350FM-12+002699999V0202001N007219999999N0000001N9+00281+99999102421ADDGF108991999999999999999999
0029029810999991901042220004+59500+020350FM-12+002699999V0201801N008719999999N0000001N9+00171+99999102431ADDGF104991999999999999999999
0029029810999991901042306004+59500+020350FM-12+002699999V0202301N008719999999N0000001N9+00331+99999102351ADDGF102991999999999999999999
0029029810999991901042313004+59500+020350FM-12+002699999V0202001N007219999999N0000001N9+00441+99999102341ADDGF100991999999999999999999
0029029810999991901042320004+59500+020350FM-12+002699999V0209991C000019999999N0000001N9+00391+99999102401ADDGF100991999999999999999999
0029029810999991901042406004+59500+020350FM-12+002699999V0200501N006219999999N0000001N9+00331+99999102681ADDGF102991999999999999999999
0029029810999991901042413004+59500+020350FM-12+002699999V0200501N003119999999N0000001N9+00221+99999102961ADDGF100991999999999999999999
0029029810999991901042420004+59500+020350FM-12+002699999V0203201N007219999999N0000001N9+00281+99999102951ADDGF100991999999999999999999
0029029810999991901042506004+59500+020350FM-12+002699999V0200501N004119999999N0000001N9+00281+99999102801ADDGF101991999999999999999999
0029029810999991901042513004+59500+020350FM-12+002699999V0209991C000019999999N0000001N9+00221+99999102631ADDGF100991999999999999999999
0029029810999991901042520004+59500+020350FM-12+002699999V0200901N004119999999N0000001N9+00281+99999102501ADDGF102991999999999999999999
0029029810999991901042606004+59500+020350FM-12+002699999V0200501N009819999999N0000001N9+00281+99999102561ADDGF102991999999999999999999
0029029810999991901042613004+59500+020350FM-12+002699999V0200501N008719999999N0000001N9+00331+99999102711ADDGF102991999999999999999999
0029029810999991901042620004+59500+020350FM-12+002699999V0200901N009819999999N0000001N9+00221+99999102711ADDGF101991999999999999999999
0029029810999991901042706004+59500+020350FM-12+002699999V0200501N007219999999N0000001N9+00281+99999102761ADDGF102991999999999999999999
0029029810999991901042713004+59500+020350FM-12+002699999V0200701N006219999999N0000001N9+00331+99999102921ADDGF102991999999999999999999
0029029810999991901042720004+59500+020350FM-12+002699999V0200901N006219999999N0000001N9+00441+99999102831ADDGF102991999999999999999999
0029029810999991901042806004+59500+020350FM-12+002699999V0200901N007219999999N0000001N9+00441+99999102841ADDGF100991999999999999999999
0029029810999991901042813004+59500+020350FM-12+002699999V0200901N008219999999N0000001N9+00441+99999102701ADDGF100991999999999999999999
0029029810999991901042820004+59500+020350FM-12+002699999V0200901N004119999999N0000001N9+00501+99999102441ADDGF100991999999999999999999
0029029810999991901042906004+59500+020350FM-12+002699999V0200901N008719999999N0000001N9+00501+99999102271ADDGF102991999999999999999999
0029029810999991901042913004+59500+020350FM-12+002699999V0200901N002119999999N0000001N9+00721+99999102271ADDGF100991999999999999999999
0029029810999991901042920004+59500+020350FM-12+002699999V0200501N006219999999N0000001N9+00941+99999102141ADDGF101991999999999999999999
0029029810999991901043006004+59500+020350FM-12+002699999V0200901N003119999999N0000001N9+01111+99999102151ADDGF100991999999999999999999
0029029810999991901043013004+59500+020350FM-12+002699999V0200701N005119999999N0000001N9+00561+99999102361ADDGF100991999999999999999999
0029029810999991901043020004+59500+020350FM-12+002699999V0200701N007219999999N0000001N9+00391+99999102421ADDGF101991999999999999999999
0029029810999991901050106004+59500+020350FM-12+002699999V0200501N007219999999N0000001N9+00441+99999102511ADDGF100991999999999999999999
0029029810999991901050113004+59500+020350FM-12+002699999V0200501N003119999999N0000001N9+00721+99999102621ADDGF100991999999999999999999
0029029810999991901050120004+59500+020350FM-12+002699999V0209991C000019999999N0000001N9+00561+99999102471ADDGF100991999999999999999999
0029029810999991901050206004+59500+020350FM-12+002699999V0209991C000019999999N0000001N9+00671+99999102441ADDGF100991999999999999999999
0029029810999991901050213004+59500+020350FM-12+002699999V0209991C000019999999N0000001N9+01671+99999102511ADDGF100991999999999999999999
0029029810999991901050220004+59500+020350FM-12+002699999V0209991C000019999999N0000001N9+00781+99999102151ADDGF101991999999999999999999
0029029810999991901050306004+59500+020350FM-12+002699999V0202701N005119999999N0000001N9+00501+99999101681ADDGF102991999999999999999999
0029029810999991901050313004+59500+020350FM-12+002699999V0203201N008719999999N0000001N9+00721+99999101631ADDGF102991999999999999999999
0029029810999991901050320004+59500+020350FM-12+002699999V0202901N009819999999N0000001N9+00441+99999101221ADDGF105991999999999999999999
0029029810999991901050406004+59500+020350FM-12+002699999V0203201N009819999999N0000001N9+00331+99999100901ADDGF103991999999999999999999
0029029810999991901050413004+59500+020350FM-12+002699999V0203401N020119999999N0000001N9+00171+99999101231ADDGF101991999999999999999999
0029029810999991901050420004+59500+020350FM-12+002699999V0203201N010819999999N0000001N9+00171+99999101201ADDGF101991999999999999999999
0029029810999991901050506004+59500+020350FM-12+002699999V0203401N009819999999N0000001N9+00061+99999101071ADDGF102991999999999999999999
0029029810999991901050513004+59500+020350FM-12+002699999V0203201N009819999999N0000001N9+00061+99999100831ADDGF106991999999999999999999
0029029810999991901050520004+59500+020350FM-12+002699999V0203201N008719999999N0000001N9-00061+99999100631ADDGF102991999999999999999999
0029029810999991901050606004+59500+020350FM-12+002699999V0203201N002119999999N0000001N9+00281+99999100321ADDGF106991999999999999999999
0029029810999991901050613004+59500+020350FM-12+002699999V0200201N006219999999N0000001N9+00001+99999100231ADDGF107991999999999999999999
0029029810999991901050620004+59500+020350FM-12+002699999V0203201N006219999999N0000001N9+00061+99999100241ADDGF102991999999999999999999
0029029810999991901050706004+59500+020350FM-12+002699999V0200501N005119999999N0000001N9+00001+99999100521ADDGF107991999999999999999999
0035029810999991901050713004+59500+020350FM-12+002699999V0201401N005119999999N0000001N9+00061+99999100921ADDGF106991999999999999999999MW1721
0029029810999991901050720004+59500+020350FM-12+002699999V0201101N003119999999N0000001N9+00111+99999101281ADDGF107991999999999999999999
0029029810999991901050806004+59500+020350FM-12+002699999V0200901N009819999999N0000001N9+00221+99999101881ADDGF102991999999999999999999
0029029810999991901050813004+59500+020350FM-12+002699999V0200501N009819999999N0000001N9+00281+99999102141ADDGF102991999999999999999999
0029029810999991901050820004+59500+020350FM-12+002699999V0200501N013919999999N0000001N9+00331+99999102081ADDGF106991999999999999999999
0029029810999991901050906004+59500+020350FM-12+002699999V0200701N014919999999N0000001N9+00331+99999102121ADDGF107991999999999999999999
0029029810999991901050913004+59500+020350FM-12+002699999V0200701N013919999999N0000001N9+00391+99999102201ADDGF105991999999999999999999
0029029810999991901050920004+59500+020350FM-12+002699999V0200701N011819999999N0000001N9+00391+99999102311ADDGF108991999999999999999999
0029029810999991901051006004+59500+020350FM-12+002699999V0200901N009819999999N0000001N9+00441+99999102401ADDGF102991999999999999999999
0029029810999991901051013004+59500+020350FM-12+002699999V0200901N010819999999N0000001N9+00561+99999102461ADDGF106991999999999999999999
0029029810999991901051020004+59500+020350FM-12+002699999V0200901N009819999999N0000001N9+00561+99999102501ADDGF106991999999999999999999
0048029810999991901051106004+59500+020350FM-12+002699999V0201401N007219999999N0000001N9+00891+99999102781ADDGF106991999999999999999999EQDQ01+000742PRSWM1
0029029810999991901051113004+59500+020350FM-12+002699999V0201101N007219999999N0000001N9+00891+99999102921ADDGF102991999999999999999999
0029029810999991901051120004+59500+020350FM-12+002699999V0201101N008219999999N0000001N9+00781+99999102981ADDGF101991999999999999999999
0029029810999991901051206004+59500+020350FM-12+002699999V0201401N005119999999N0000001N9+00891+99999103231ADDGF102991999999999999999999
0029029810999991901051213004+59500+020350FM-12+002699999V0209991C000019999999N0000001N9+01441+99999103271ADDGF102991999999999999999999
0029029810999991901051220004+59500+020350FM-12+002699999V0200701N005119999999N0000001N9+00941+99999103141ADDGF102991999999999999999999
0029029810999991901051306004+59500+020350FM-12+002699999V0209991C000019999999N0000001N9+01171+99999103021ADDGF102991999999999999999999
0029029810999991901051313004+59500+020350FM-12+002699999V0209991C000019999999N0000001N9+01171+99999102911ADDGF102991999999999999999999
0029029810999991901051320004+59500+020350FM-12+002699999V0209991C000019999999N0000001N9+01061+99999102701ADDGF102991999999999999999999
0029029810999991901051406004+59500+020350FM-12+002699999V0200501N004119999999N0000001N9+01111+99999102581ADDGF102991999999999999999999
0029029810999991901051413004+59500+020350FM-12+002699999V0200901N002119999999N0000001N9+01061+99999102471ADDGF100991999999999999999999
0029029810999991901051420004+59500+020350FM-12+002699999V0209991C000019999999N0000001N9+01001+99999102101ADDGF101991999999999999999999
0029029810999991901051506004+59500+020350FM-12+002699999V0203601N005119999999N0000001N9+01111+99999101721ADDGF102991999999999999999999
0029029810999991901051513004+59500+020350FM-12+002699999V0203201N002119999999N0000001N9+01221+99999101561ADDGF102991999999999999999999
0029029810999991901051520004+59500+020350FM-12+002699999V0203201N007219999999N0000001N9+00941+99999101321ADDGF102991999999999999999999
0035029810999991901051606004+59500+020350FM-12+002699999V0203401N008219999999N0000001N9+00671+99999101081ADDGF105991999999999999999999MW1621
0035029810999991901051613004+59500+020350FM-12+002699999V0202701N007219999999N0000001N9+00501+99999100821ADDGF106991999999999999999999MW1621
0035029810999991901051620004+59500+020350FM-12+002699999V0201401N008219999999N0000001N9+00561+99999100191ADDGF108991999999999999999999MW1621
0035029810999991901051706004+59500+020350FM-12+002699999V0202901N009819999999N0000001N9+00221+99999099591ADDGF108991999999999999999999MW1721
0035029810999991901051713004+59500+020350FM-12+002699999V0202501N006219999999N0000001N9+00281+99999099991ADDGF106991999999999999999999MW1621
0029029810999991901051720004+59500+020350FM-12+002699999V0202501N012919999999N0000001N9+00331+99999099941ADDGF108991999999999999999999
0029029810999991901051806004+59500+020350FM-12+002699999V0202701N017019999999N0000001N9+00221+99999999999ADDGF108991999999999999999999
0029029810999991901051813004+59500+020350FM-12+002699999V0202701N011819999999N0000001N9+00281+99999100581ADDGF108991999999999999999999
0029029810999991901051820004+59500+020350FM-12+002699999V0201601N004119999999N0000001N9+00221+99999100641ADDGF104991999999999999999999
0029029810999991901051906004+59500+020350FM-12+002699999V0202001N007219999999N0000001N9+00561+99999100441ADDGF106991999999999999999999
0029029810999991901051913004+59500+020350FM-12+002699999V0201801N004119999999N0000001N9+00671+99999100641ADDGF106991999999999999999999
0029029810999991901051920004+59500+020350FM-12+002699999V0203401N004119999999N0000001N9+00441+99999101111ADDGF104991999999999999999999
0029029810999991901052006004+59500+020350FM-12+002699999V0203201N005119999999N0000001N9+00501+99999101761ADDGF101991999999999999999999
0029029810999991901052013004+59500+020350FM-12+002699999V0203201N009819999999N0000001N9+00441+99999102321ADDGF101991999999999999999999
0029029810999991901052020004+59500+020350FM-12+002699999V0203201N008219999999N0000001N9+00441+99999102721ADDGF101991999999999999999999
0029029810999991901052106004+59500+020350FM-12+002699999V0203601N003119999999N0000001N9+00611+99999103391ADDGF100991999999999999999999
0029029810999991901052113004+59500+020350FM-12+002699999V0202301N004119999999N0000001N9+00781+99999103561ADDGF102991999999999999999999
0029029810999991901052120004+59500+020350FM-12+002699999V0202301N007219999999N0000001N9+00561+99999103521ADDGF102991999999999999999999
0029029810999991901052206004+59500+020350FM-12+002699999V0202301N004119999999N0000001N9+00671+99999103671ADDGF102991999999999999999999
0029029810999991901052213004+59500+020350FM-12+002699999V0202301N006219999999N0000001N9+00831+99999103621ADDGF106991999999999999999999
0029029810999991901052220004+59500+020350FM-12+002699999V0202301N004119999999N0000001N9+00831+99999103271ADDGF104991999999999999999999
0029029810999991901052306004+59500+020350FM-12+002699999V0209991C000019999999N0000001N9+01281+99999103031ADDGF103991999999999999999999
0029029810999991901052313004+59500+020350FM-12+002699999V0209991C000019999999N0000001N9+01061+99999102961ADDGF102991999999999999999999
0029029810999991901052320004+59500+020350FM-12+002699999V0203201N006219999999N0000001N9+01061+99999102761ADDGF102991999999999999999999
0029029810999991901052406004+59500+020350FM-12+002699999V0203201N006219999999N0000001N9+00721+99999102711ADDGF107991999999999999999999
0029029810999991901052413004+59500+020350FM-12+002699999V0203201N004119999999N0000001N9+00831+99999102801ADDGF102991999999999999999999
0029029810999991901052420004+59500+020350FM-12+002699999V0209991C000019999999N0000001N9+00671+99999102581ADDGF101991999999999999999999
0029029810999991901052506004+59500+020350FM-12+002699999V0202501N007219999999N0000001N9+00941+99999102351ADDGF101991999999999999999999
0029029810999991901052513004+59500+020350FM-12+002699999V0202901N005119999999N0000001N9+00941+99999102311ADDGF104991999999999999999999
0029029810999991901052520004+59500+020350FM-12+002699999V0209991C000019999999N0000001N9+00941+99999102121ADDGF102991999999999999999999
0029029810999991901052606004+59500+020350FM-12+002699999V0202001N004119999999N0000001N9+01111+99999101861ADDGF101991999999999999999999
0029029810999991901052613004+59500+020350FM-12+002699999V0202301N003119999999N0000001N9+01171+99999101661ADDGF100991999999999999999999
0029029810999991901052620004+59500+020350FM-12+002699999V0202301N008719999999N0000001N9+01061+99999101221ADDGF102991999999999999999999
0029029810999991901052706004+59500+020350FM-12+002699999V0203201N006219999999N0000001N9+01061+99999101041ADDGF101991999999999999999999
0029029810999991901052713004+59500+020350FM-12+002699999V0203201N006219999999N0000001N9+00891+99999101281ADDGF102991999999999999999999
0029029810999991901052720004+59500+020350FM-12+002699999V0209991C000019999999N0000001N9+00891+99999101061ADDGF101991999999999999999999
0029029810999991901052806004+59500+020350FM-12+002699999V0202001N008719999999N0000001N9+00941+99999100961ADDGF103991999999999999999999
0029029810999991901052813004+59500+020350FM-12+002699999V0201801N009819999999N0000001N9+01111+99999100791ADDGF106991999999999999999999
0029029810999991901052820004+59500+020350FM-12+002699999V0202001N008719999999N0000001N9+00941+99999100511ADDGF106991999999999999999999
0029029810999991901052906004+59500+020350FM-12+002699999V0202501N007219999999N0000001N9+01001+99999100311ADDGF106991999999999999999999
0029029810999991901052913004+59500+020350FM-12+002699999V0203201N009819999999N0000001N9+00781+99999100511ADDGF107991999999999999999999
0029029810999991901052920004+59500+020350FM-12+002699999V0203201N009819999999N0000001N9+00671+99999100561ADDGF107991999999999999999999
0029029810999991901053006004+59500+020350FM-12+002699999V0200501N006219999999N0000001N9+00781+99999100871ADDGF102991999999999999999999
0029029810999991901053013004+59500+020350FM-12+002699999V0209991C000019999999N0000001N9+01001+99999101231ADDGF101991999999999999999999
0029029810999991901053020004+59500+020350FM-12+002699999V0201801N001019999999N0000001N9+00781+99999101301ADDGF102991999999999999999999
0029029810999991901053106004+59500+020350FM-12+002699999V0202701N004119999999N0000001N9+01061+99999101321ADDGF106991999999999999999999
0029029810999991901053113004+59500+020350FM-12+002699999V0201601N006219999999N0000001N9+01061+99999101281ADDGF103991999999999999999999
0048029810999991901053120004+59500+020350FM-12+002699999V0201601N008719999999N0000001N9+00781+99999101191ADDGF108991999999999999999999EQDQ01+000702PRSWM1
0029029810999991901060106004+59500+020350FM-12+002699999V0201801N007219999999N0000001N9+01061+99999100961ADDGF106991999999999999999999
0029029810999991901060113004+59500+020350FM-12+002699999V0201801N008219999999N0000001N9+01061+99999100961ADDGF108991999999999999999999
0029029810999991901060120004+59500+020350FM-12+002699999V0202001N009819999999N0000001N9+00831+99999100921ADDGF108991999999999999999999
0029029810999991901060206004+59500+020350FM-12+002699999V0202001N007219999999N0000001N9+01111+99999101101ADDGF103991999999999999999999
0035029810999991901060213004+59500+020350FM-12+002699999V0201401N008219999999N0000001N9+00941+99999100761ADDGF108991999999999999999999MW1621
0029029810999991901060220004+59500+020350FM-12+002699999V0202001N006219999999N0000001N9+01061+99999100401ADDGF108991999999999999999999
0029029810999991901060306004+59500+020350FM-12+002699999V0202301N010819999999N0000001N9+00891+99999101221ADDGF102991999999999999999999
0029029810999991901060313004+59500+020350FM-12+002699999V0202001N011819999999N0000001N9+01111+99999101401ADDGF106991999999999999999999
0029029810999991901060320004+59500+020350FM-12+002699999V0202001N010819999999N0000001N9+01001+99999101361ADDGF101991999999999999999999
0029029810999991901060406004+59500+020350FM-12+002699999V0203201N008219999999N0000001N9+00941+99999101551ADDGF101991999999999999999999
0029029810999991901060413004+59500+020350FM-12+002699999V0202701N004119999999N0000001N9+01111+99999101761ADDGF102991999999999999999999
0029029810999991901060420004+59500+020350FM-12+002699999V0203601N005119999999N0000001N9+01061+99999101741ADDGF103991999999999999999999
0029029810999991901060506004+59500+020350FM-12+002699999V0203201N005119999999N0000001N9+00891+99999101751ADDGF107991999999999999999999
0029029810999991901060513004+59500+020350FM-12+002699999V0202701N002119999999N0000001N9+01111+99999101821ADDGF106991999999999999999999
0029029810999991901060520004+59500+020350FM-12+002699999V0209991C000019999999N0000001N9+01111+99999101781ADDGF102991999999999999999999
0029029810999991901060606004+59500+020350FM-12+002699999V0209991C000019999999N0000001N9+01501+99999101661ADDGF102991999999999999999999
0029029810999991901060613004+59500+020350FM-12+002699999V0209991C000019999999N0000001N9+01891+99999101601ADDGF102991999999999999999999
0029029810999991901060620004+59500+020350FM-12+002699999V0200901N004119999999N0000001N9+01441+99999101591ADDGF103991999999999999999999
0029029810999991901060706004+59500+020350FM-12+002699999V0203401N007219999999N0000001N9+01331+99999101641ADDGF101991999999999999999999
0029029810999991901060713004+59500+020350FM-12+002699999V0203601N009819999999N0000001N9+01391+99999101641ADDGF104991999999999999999999
0029029810999991901060720004+59500+020350FM-12+002699999V0203601N008219999999N0000001N9+01281+99999101641ADDGF107991999999999999999999
0029029810999991901060806004+59500+020350FM-12+002699999V0200901N008219999999N0000001N9+01281+99999101551ADDGF106991999999999999999999
0029029810999991901060813004+59500+020350FM-12+002699999V0200901N008719999999N0000001N9+01331+99999101661ADDGF103991999999999999999999
0029029810999991901060820004+59500+020350FM-12+002699999V0200901N010819999999N0000001N9+01391+99999101631ADDGF106991999999999999999999
0029029810999991901060906004+59500+020350FM-12+002699999V0201401N006219999999N0000001N9+01671+99999101521ADDGF103991999999999999999999
0029029810999991901060913004+59500+020350FM-12+002699999V0201101N008719999999N0000001N9+01721+99999101391ADDGF102991999999999999999999
0029029810999991901060920004+59500+020350FM-12+002699999V0202301N001019999999N0000001N9+01331+99999101181ADDGF108991999999999999999999
0029029810999991901061006004+59500+020350FM-12+002699999V0201801N004119999999N0000001N9+01171+99999100981ADDGF108991999999999999999999
0029029810999991901061013004+59500+020350FM-12+002699999V0201801N008219999999N0000001N9+01171+99999100961ADDGF108991999999999999999999
0029029810999991901061020004+59500+020350FM-12+002699999V0201601N009819999999N0000001N9+00941+99999100871ADDGF108991999999999999999999
0035029810999991901061106004+59500+020350FM-12+002699999V0201401N008219999999N0000001N9+01111+99999100401ADDGF108991999999999999999999MW1621
0029029810999991901061113004+59500+020350FM-12+002699999V0201401N006219999999N0000001N9+01331+99999099831ADDGF108991999999999999999999
0029029810999991901061120004+59500+020350FM-12+002699999V0201801N008719999999N0000001N9+01111+99999099461ADDGF107991999999999999999999
0029029810999991901061206004+59500+020350FM-12+002699999V0202001N018019999999N0000001N9+00891+99999099301ADDGF102991999999999999999999
0029029810999991901061213004+59500+020350FM-12+002699999V0201801N021119999999N0000001N9+00941+99999099241ADDGF102991999999999999999999
0029029810999991901061220004+59500+020350FM-12+002699999V0201801N014919999999N0000001N9+00831+99999099271ADDGF102991999999999999999999
0029029810999991901061306004+59500+020350FM-12+002699999V0201801N007219999999N0000001N9+00941+99999099511ADDGF103991999999999999999999
0029029810999991901061313004+59500+020350FM-12+002699999V0201601N008219999999N0000001N9+00941+99999099561ADDGF106991999999999999999999
0035029810999991901061320004+59500+020350FM-12+002699999V0200701N008219999999N0000001N9+00781+99999099181ADDGF107991999999999999999999MW1621
0029029810999991901061406004+59500+020350FM-12+002699999V0209991C000019999999N0000001N9+00891+99999098361ADDGF106991999999999999999999
0029029810999991901061413004+59500+020350FM-12+002699999V0202901N009819999999N0000001N9+00781+99999099821ADDGF102991999999999999999999
0029029810999991901061420004+59500+020350FM-12+002699999V0202001N009819999999N0000001N9+00831+99999100221ADDGF102991999999999999999999
0029029810999991901061506004+59500+020350FM-12+002699999V0202001N008719999999N0000001N9+00941+99999100441ADDGF102991999999999999999999
0029029810999991901061513004+59500+020350FM-12+002699999V0201801N008719999999N0000001N9+01171+99999100561ADDGF102991999999999999999999
0029029810999991901061520004+59500+020350FM-12+002699999V0201401N005119999999N0000001N9+00941+99999100311ADDGF102991999999999999999999
0029029810999991901061606004+59500+020350FM-12+002699999V0203201N004119999999N0000001N9+00831+99999100071ADDGF108991999999999999999999
0029029810999991901061613004+59500+020350FM-12+002699999V0209991C000019999999N0000001N9+01111+99999100391ADDGF106991999999999999999999
0029029810999991901061620004+59500+020350FM-12+002699999V0209991C000019999999N0000001N9+00831+99999100631ADDGF108991999999999999999999
0029029810999991901061706004+59500+020350FM-12+002699999V0203401N004119999999N0000001N9+01061+99999100801ADDGF102991999999999999999999
0029029810999991901061713004+59500+020350FM-12+002699999V0200901N003119999999N0000001N9+01001+99999101021ADDGF108991999999999999999999
0029029810999991901061720004+59500+020350FM-12+002699999V0209991C000019999999N0000001N9+00891+99999101191ADDGF108991999999999999999999
0029029810999991901061806004+59500+020350FM-12+002699999V0200701N007219999999N0000001N9+01111+99999101221ADDGF107991999999999999999999
0029029810999991901061813004+59500+020350FM-12+002699999V0200501N009819999999N0000001N9+01221+99999101231ADDGF108991999999999999999999
0029029810999991901061820004+59500+020350FM-12+002699999V0203201N003119999999N0000001N9+01111+99999101181ADDGF108991999999999999999999
0029029810999991901061906004+59500+020350FM-12+002699999V0200501N002119999999N0000001N9+01061+99999101031ADDGF108991999999999999999999
0029029810999991901061913004+59500+020350FM-12+002699999V0201801N006219999999N0000001N9+01281+99999101301ADDGF107991999999999999999999
0029029810999991901061920004+59500+020350FM-12+002699999V0201801N006219999999N0000001N9+00941+99999101521ADDGF108991999999999999999999
0029029810999991901062006004+59500+020350FM-12+002699999V0201801N008219999999N0000001N9+00941+99999101801ADDGF108991999999999999999999
0029029810999991901062013004+59500+020350FM-12+002699999V0201801N008719999999N0000001N9+01171+99999102121ADDGF102991999999999999999999
0029029810999991901062020004+59500+020350FM-12+002699999V0202001N006219999999N0000001N9+01061+99999102271ADDGF103991999999999999999999
0029029810999991901062106004+59500+020350FM-12+002699999V0209991C000019999999N0000001N9+00941+99999102301ADDGF107991999999999999999999
0029029810999991901062113004+59500+020350FM-12+002699999V0209991C000019999999N0000001N9+01611+99999102191ADDGF106991999999999999999999
0029029810999991901062120004+59500+020350FM-12+002699999V0209991C000019999999N0000001N9+01331+99999101921ADDGF106991999999999999999999
0029029810999991901062206004+59500+020350FM-12+002699999V0203601N006219999999N0000001N9+01501+99999101801ADDGF105991999999999999999999
0029029810999991901062213004+59500+020350FM-12+002699999V0200501N002119999999N0000001N9+01501+99999101871ADDGF102991999999999999999999
0029029810999991901062220004+59500+020350FM-12+002699999V0200501N004119999999N0000001N9+01561+99999101881ADDGF106991999999999999999999
0029029810999991901062306004+59500+020350FM-12+002699999V0203401N007219999999N0000001N9+01561+99999101941ADDGF103991999999999999999999
0029029810999991901062313004+59500+020350FM-12+002699999V0203601N004119999999N0000001N9+01671+99999101911ADDGF106991999999999999999999
0029029810999991901062320004+59500+020350FM-12+002699999V0200501N006219999999N0000001N9+01781+99999101901ADDGF102991999999999999999999
0029029810999991901062406004+59500+020350FM-12+002699999V0200901N007219999999N0000001N9+01561+99999101761ADDGF101991999999999999999999
0029029810999991901062413004+59500+020350FM-12+002699999V0200901N005119999999N0000001N9+01501+99999101821ADDGF101991999999999999999999
0029029810999991901062420004+59500+020350FM-12+002699999V0200901N007219999999N0000001N9+01501+99999101661ADDGF102991999999999999999999
0029029810999991901062506004+59500+020350FM-12+002699999V0200701N004119999999N0000001N9+01561+99999101481ADDGF101991999999999999999999
0029029810999991901062513004+59500+020350FM-12+002699999V0200901N002119999999N0000001N9+01721+99999101481ADDGF106991999999999999999999
0029029810999991901062520004+59500+020350FM-12+002699999V0201401N003119999999N0000001N9+01561+99999101311ADDGF108991999999999999999999
0029029810999991901062606004+59500+020350FM-12+002699999V0200901N006219999999N0000001N9+01721+99999101101ADDGF104991999999999999999999
0029029810999991901062613004+59500+020350FM-12+002699999V0201801N009819999999N0000001N9+01611+99999101041ADDGF108991999999999999999999
0029029810999991901062620004+59500+020350FM-12+002699999V0201801N011819999999N0000001N9+01171+99999101181ADDGF106991999999999999999999
0029029810999991901062706004+59500+020350FM-12+002699999V0201601N011819999999N0000001N9+01281+99999101121ADDGF107991999999999999999999
0035029810999991901062713004+59500+020350FM-12+002699999V0201401N011819999999N0000001N9+01221+99999101071ADDGF108991999999999999999999MW1621
0029029810999991901062720004+59500+020350FM-12+002699999V0201401N006219999999N0000001N9+01061+99999100741ADDGF108991999999999999999999
0029029810999991901062806004+59500+020350FM-12+002699999V0202001N004119999999N0000001N9+01111+99999100921ADDGF108991999999999999999999
0029029810999991901062813004+59500+020350FM-12+002699999V0202001N002119999999N0000001N9+01561+99999101271ADDGF108991999999999999999999
0029029810999991901062820004+59500+020350FM-12+002699999V0209991C000019999999N0000001N9+01221+99999101361ADDGF104991999999999999999999
0029029810999991901062906004+59500+020350FM-12+002699999V0209991C000019999999N0000001N9+01561+99999101601ADDGF103991999999999999999999
0029029810999991901062913004+59500+020350FM-12+002699999V0202701N003119999999N0000001N9+01501+99999101881ADDGF102991999999999999999999
0029029810999991901062920004+59500+020350FM-12+002699999V0203201N003119999999N0000001N9+01441+99999101991ADDGF106991999999999999999999
0029029810999991901063006004+59500+020350FM-12+002699999V0203201N008219999999N0000001N9+01281+99999102111ADDGF107991999999999999999999
0029029810999991901063013004+59500+020350FM-12+002699999V0209991C000019999999N0000001N9+01501+99999102071ADDGF102991999999999999999999
0029029810999991901063020004+59500+020350FM-12+002699999V0202901N001019999999N0000001N9+01391+99999101801ADDGF107991999999999999999999
0029029810999991901070106004+59500+020350FM-12+002699999V0203401N004119999999N0000001N9+01331+99999101511ADDGF107991999999999999999999
0029029810999991901070113004+59500+020350FM-12+002699999V0203201N006219999999N0000001N9+01441+99999101381ADDGF104991999999999999999999
0029029810999991901070120004+59500+020350FM-12+002699999V0203201N009819999999N0000001N9+01331+99999101161ADDGF102991999999999999999999
0029029810999991901070206004+59500+020350FM-12+002699999V0203401N008219999999N0000001N9+01441+99999100901ADDGF101991999999999999999999
0029029810999991901070213004+59500+020350FM-12+002699999V0203201N009819999999N0000001N9+01441+99999100751ADDGF102991999999999999999999
0029029810999991901070220004+59500+020350FM-12+002699999V0203201N010819999999N0000001N9+01391+99999100721ADDGF102991999999999999999999
0029029810999991901070306004+59500+020350FM-12+002699999V0203401N012919999999N0000001N9+01281+99999100661ADDGF102991999999999999999999
0029029810999991901070313004+59500+020350FM-12+002699999V0203201N010819999999N0000001N9+01331+99999100671ADDGF102991999999999999999999
0029029810999991901070320004+59500+020350FM-12+002699999V0203201N011819999999N0000001N9+01281+99999100601ADDGF102991999999999999999999
0029029810999991901070406004+59500+020350FM-12+002699999V0203201N010819999999N0000001N9+01221+99999100461ADDGF107991999999999999999999
0029029810999991901070413004+59500+020350FM-12+002699999V0203201N013919999999N0000001N9+01331+99999100441ADDGF106991999999999999999999
0029029810999991901070420004+59500+020350FM-12+002699999V0203201N011819999999N0000001N9+01281+99999100381ADDGF104991999999999999999999
0029029810999991901070506004+59500+020350FM-12+002699999V0203201N009819999999N0000001N9+01331+99999100601ADDGF102991999999999999999999
0029029810999991901070513004+59500+020350FM-12+002699999V0202901N010819999999N0000001N9+01441+99999100661ADDGF105991999999999999999999
0029029810999991901070520004+59500+020350FM-12+002699999V0202901N008719999999N0000001N9+01391+99999100711ADDGF102991999999999999999999
0029029810999991901070606004+59500+020350FM-12+002699999V0203601N005119999999N0000001N9+01441+99999100841ADDGF102991999999999999999999
0029029810999991901070613004+59500+020350FM-12+002699999V0202901N008219999999N0000001N9+01671+99999101021ADDGF100991999999999999999999
0029029810999991901070620004+59500+020350FM-12+002699999V0202501N009819999999N0000001N9+01561+99999100951ADDGF102991999999999999999999
0029029810999991901070706004+59500+020350FM-12+002699999V0203201N007219999999N0000001N9+01561+99999100881ADDGF108991999999999999999999
0029029810999991901070713004+59500+020350FM-12+002699999V0202901N011819999999N0000001N9+01441+99999100981ADDGF105991999999999999999999
0029029810999991901070720004+59500+020350FM-12+002699999V0202901N003119999999N0000001N9+01611+99999101031ADDGF108991999999999999999999
0029029810999991901070806004+59500+020350FM-12+002699999V0202901N008219999999N0000001N9+01441+99999101041ADDGF108991999999999999999999
0029029810999991901070813004+59500+020350FM-12+002699999V0202701N006219999999N0000001N9+01561+99999100981ADDGF107991999999999999999999
0029029810999991901070820004+59500+020350FM-12+002699999V0203201N011819999999N0000001N9+01561+99999100941ADDGF102991999999999999999999
0029029810999991901070906004+59500+020350FM-12+002699999V0203201N011819999999N0000001N9+01501+99999101151ADDGF102991999999999999999999
0029029810999991901070913004+59500+020350FM-12+002699999V0203601N006219999999N0000001N9+01561+99999101521ADDGF101991999999999999999999
0029029810999991901070920004+59500+020350FM-12+002699999V0203201N003119999999N0000001N9+01561+99999101641ADDGF102991999999999999999999
0029029810999991901071006004+59500+020350FM-12+002699999V0203601N006219999999N0000001N9+01671+99999101701ADDGF102991999999999999999999
0029029810999991901071013004+59500+020350FM-12+002699999V0203201N004119999999N0000001N9+01831+99999101711ADDGF102991999999999999999999
0029029810999991901071020004+59500+020350FM-12+002699999V0202501N005119999999N0000001N9+02001+99999101621ADDGF102991999999999999999999
0029029810999991901071106004+59500+020350FM-12+002699999V0202301N008219999999N0000001N9+01781+99999101561ADDGF105991999999999999999999
0029029810999991901071113004+59500+020350FM-12+002699999V0202301N010819999999N0000001N9+01891+99999101361ADDGF103991999999999999999999
0029029810999991901071120004+59500+020350FM-12+002699999V0202001N009819999999N0000001N9+01671+99999101221ADDGF103991999999999999999999
0029029810999991901071206004+59500+020350FM-12+002699999V0209991C000019999999N0000001N9+01611+99999101221ADDGF106991999999999999999999
0029029810999991901071213004+59500+020350FM-12+002699999V0203201N002119999999N0000001N9+01831+99999101271ADDGF100991999999999999999999
0029029810999991901071220004+59500+020350FM-12+002699999V0203601N004119999999N0000001N9+01891+99999101231ADDGF102991999999999999999999
0029029810999991901071306004+59500+020350FM-12+002699999V0209991C000019999999N0000001N9+01941+99999101241ADDGF102991999999999999999999
0029029810999991901071313004+59500+020350FM-12+002699999V0201801N001019999999N0000001N9+02281+99999101241ADDGF101991999999999999999999
0029029810999991901071320004+59500+020350FM-12+002699999V0201801N004119999999N0000001N9+01831+99999101061ADDGF102991999999999999999999
0029029810999991901071406004+59500+020350FM-12+002699999V0201801N009819999999N0000001N9+01831+99999100841ADDGF104991999999999999999999
0029029810999991901071413004+59500+020350FM-12+002699999V0202001N007219999999N0000001N9+01781+99999100921ADDGF108991999999999999999999
0029029810999991901071420004+59500+020350FM-12+002699999V0209991C000019999999N0000001N9+01721+99999100941ADDGF104991999999999999999999
0029029810999991901071506004+59500+020350FM-12+002699999V0200701N006219999999N0000001N9+01441+99999101121ADDGF108991999999999999999999
0029029810999991901071513004+59500+020350FM-12+002699999V0201101N002119999999N0000001N9+01721+99999101241ADDGF108991999999999999999999
0029029810999991901071520004+59500+020350FM-12+002699999V0200701N004119999999N0000001N9+01781+99999101161ADDGF103991999999999999999999
0029029810999991901071606004+59500+020350FM-12+002699999V0201401N003119999999N0000001N9+01721+99999101141ADDGF108991999999999999999999
0029029810999991901071613004+59500+020350FM-12+002699999V0202301N004119999999N0000001N9+01721+99999101321ADDGF106991999999999999999999
0029029810999991901071620004+59500+020350FM-12+002699999V0203201N005119999999N0000001N9+01721+99999101431ADDGF108991999999999999999999
0029029810999991901071706004+59500+020350FM-12+002699999V0203201N003119999999N0000001N9+01831+99999101641ADDGF102991999999999999999999
0029029810999991901071713004+59500+020350FM-12+002699999V0203401N003119999999N0000001N9+01831+99999101911ADDGF106991999999999999999999
0029029810999991901071720004+59500+020350FM-12+002699999V0209991C000019999999N0000001N9+01721+99999102041ADDGF101991999999999999999999
0029029810999991901071806004+59500+020350FM-12+002699999V0209991C000019999999N0000001N9+02281+99999102221ADDGF104991999999999999999999
0029029810999991901071813004+59500+020350FM-12+002699999V0202301N002119999999N0000001N9+02501+99999102431ADDGF106991999999999999999999
0029029810999991901071820004+59500+020350FM-12+002699999V0202701N002119999999N0000001N9+01941+99999102441ADDGF106991999999999999999999
0029029810999991901071906004+59500+020350FM-12+002699999V0209991C000019999999N0000001N9+02221+99999102661ADDGF102991999999999999999999
0029029810999991901071913004+59500+020350FM-12+002699999V0209991C000019999999N0000001N9+02441+99999102671ADDGF101991999999999999999999
0029029810999991901071920004+59500+020350FM-12+002699999V0209991C000019999999N0000001N9+02171+99999102471ADDGF102991999999999999999999
0029029810999991901072006004+59500+020350FM-12+002699999V0209991C000019999999N0000001N9+02221+99999102541ADDGF101991999999999999999999
0029029810999991901072013004+59500+020350FM-12+002699999V0209991C000019999999N0000001N9+02941+99999102501ADDGF103991999999999999999999
0029029810999991901072020004+59500+020350FM-12+002699999V0202501N002119999999N0000001N9+02391+99999102351ADDGF102991999999999999999999
0029029810999991901072106004+59500+020350FM-12+002699999V0202301N002119999999N0000001N9+02331+99999102391ADDGF102991999999999999999999
0029029810999991901072113004+59500+020350FM-12+002699999V0202301N001019999999N0000001N9+02611+99999102281ADDGF101991999999999999999999
0029029810999991901072120004+59500+020350FM-12+002699999V0209991C000019999999N0000001N9+02281+99999102081ADDGF102991999999999999999999
0029029810999991901072206004+59500+020350FM-12+002699999V0209991C000019999999N0000001N9+02611+99999101941ADDGF101991999999999999999999
0029029810999991901072213004+59500+020350FM-12+002699999V0209991C000019999999N0000001N9+02721+99999101871ADDGF105991999999999999999999
0029029810999991901072220004+59500+020350FM-12+002699999V0209991C000019999999N0000001N9+02331+99999101621ADDGF102991999999999999999999
0029029810999991901072306004+59500+020350FM-12+002699999V0209991C000019999999N0000001N9+02501+99999101441ADDGF102991999999999999999999
0029029810999991901072313004+59500+020350FM-12+002699999V0201401N002119999999N0000001N9+02501+99999101351ADDGF101991999999999999999999
0029029810999991901072320004+59500+020350FM-12+002699999V0201101N010819999999N0000001N9+02221+99999101271ADDGF102991999999999999999999
0029029810999991901072406004+59500+020350FM-12+002699999V0201401N007219999999N0000001N9+02171+99999101271ADDGF102991999999999999999999
0029029810999991901072413004+59500+020350FM-12+002699999V0201401N008219999999N0000001N9+02221+99999101391ADDGF101991999999999999999999
0029029810999991901072420004+59500+020350FM-12+002699999V0201101N008719999999N0000001N9+02111+99999101361ADDGF101991999999999999999999
0029029810999991901072506004+59500+020350FM-12+002699999V0201401N008719999999N0000001N9+02171+99999101551ADDGF101991999999999999999999
0029029810999991901072513004+59500+020350FM-12+002699999V0201101N011819999999N0000001N9+02171+99999101631ADDGF100991999999999999999999
0029029810999991901072520004+59500+020350FM-12+002699999V0201101N008219999999N0000001N9+02061+99999101621ADDGF101991999999999999999999
0029029810999991901072606004+59500+020350FM-12+002699999V0201401N008219999999N0000001N9+02171+99999101661ADDGF101991999999999999999999
0029029810999991901072613004+59500+020350FM-12+002699999V0200901N008219999999N0000001N9+02111+99999101701ADDGF101991999999999999999999
0029029810999991901072620004+59500+020350FM-12+002699999V0200901N005119999999N0000001N9+02061+99999101551ADDGF103991999999999999999999
0029029810999991901072706004+59500+020350FM-12+002699999V0201401N001019999999N0000001N9+02441+99999101381ADDGF104991999999999999999999
0029029810999991901072713004+59500+020350FM-12+002699999V0200901N004119999999N0000001N9+02171+99999101341ADDGF106991999999999999999999
0029029810999991901072720004+59500+020350FM-12+002699999V0201101N006219999999N0000001N9+02171+99999101221ADDGF106991999999999999999999
0029029810999991901072806004+59500+020350FM-12+002699999V0201101N008719999999N0000001N9+02171+99999101141ADDGF103991999999999999999999
0029029810999991901072813004+59500+020350FM-12+002699999V0201401N005119999999N0000001N9+02221+99999101241ADDGF103991999999999999999999
0029029810999991901072820004+59500+020350FM-12+002699999V0202001N003119999999N0000001N9+02111+99999101281ADDGF106991999999999999999999
0029029810999991901072906004+59500+020350FM-12+002699999V0202301N007219999999N0000001N9+02221+99999101551ADDGF104991999999999999999999
0029029810999991901072913004+59500+020350FM-12+002699999V0201801N009819999999N0000001N9+02281+99999101561ADDGF103991999999999999999999
0029029810999991901072920004+59500+020350FM-12+002699999V0202001N009819999999N0000001N9+02061+99999101311ADDGF104991999999999999999999
0029029810999991901073006004+59500+020350FM-12+002699999V0202301N006219999999N0000001N9+02111+99999101341ADDGF107991999999999999999999
0029029810999991901073013004+59500+020350FM-12+002699999V0202301N008219999999N0000001N9+02111+99999101421ADDGF103991999999999999999999
0029029810999991901073020004+59500+020350FM-12+002699999V0202501N009819999999N0000001N9+02061+99999101241ADDGF102991999999999999999999
0029029810999991901073106004+59500+020350FM-12+002699999V0202301N009819999999N0000001N9+02171+99999100981ADDGF106991999999999999999999
0029029810999991901073113004+59500+020350FM-12+002699999V0203601N011819999999N0000001N9+02111+99999101141ADDGF103991999999999999999999
0029029810999991901073120004+59500+020350FM-12+002699999V0203601N011819999999N0000001N9+01891+99999101441ADDGF102991999999999999999999
0029029810999991901080106004+59500+020350FM-12+002699999V0203601N006219999999N0000001N9+01941+99999101561ADDGF106991999999999999999999
0029029810999991901080113004+59500+020350FM-12+002699999V0200501N001019999999N0000001N9+01891+99999101601ADDGF102991999999999999999999
0029029810999991901080120004+59500+020350FM-12+002699999V0209991C000019999999N0000001N9+01831+99999101421ADDGF102991999999999999999999
0029029810999991901080206004+59500+020350FM-12+002699999V0201401N006219999999N0000001N9+02111+99999101181ADDGF101991999999999999999999
0029029810999991901080213004+59500+020350FM-12+002699999V0201801N010819999999N0000001N9+02221+99999100721ADDGF101991999999999999999999
0029029810999991901080220004+59500+020350FM-12+002699999V0202001N012919999999N0000001N9+02001+99999100521ADDGF102991999999999999999999
0029029810999991901080306004+59500+020350FM-12+002699999V0203201N008219999999N0000001N9+01781+99999100681ADDGF106991999999999999999999
0029029810999991901080313004+59500+020350FM-12+002699999V0202301N001019999999N0000001N9+02001+99999100981ADDGF104991999999999999999999
0029029810999991901080320004+59500+020350FM-12+002699999V0203401N008219999999N0000001N9+01611+99999101271ADDGF103991999999999999999999
0035029810999991901080406004+59500+020350FM-12+002699999V0201801N002119999999N0000001N9+01831+99999101361ADDGF108991999999999999999999MW1621
0029029810999991901080413004+59500+020350FM-12+002699999V0201601N008219999999N0000001N9+01781+99999101161ADDGF103991999999999999999999
0029029810999991901080420004+59500+020350FM-12+002699999V0202301N008219999999N0000001N9+01891+99999100841ADDGF108991999999999999999999
0029029810999991901080506004+59500+020350FM-12+002699999V0202301N019019999999N0000001N9+01561+99999100261ADDGF108991999999999999999999
0029029810999991901080513004+59500+020350FM-12+002699999V0202301N014919999999N0000001N9+01831+99999100311ADDGF106991999999999999999999
0029029810999991901080520004+59500+020350FM-12+002699999V0202301N018019999999N0000001N9+01831+99999100181ADDGF107991999999999999999999
0029029810999991901080606004+59500+020350FM-12+002699999V0202301N008219999999N0000001N9+01611+99999100201ADDGF102991999999999999999999
0029029810999991901080613004+59500+020350FM-12+002699999V0202301N009819999999N0000001N9+01781+99999100221ADDGF106991999999999999999999
0029029810999991901080620004+59500+020350FM-12+002699999V0202001N006219999999N0000001N9+01721+99999100261ADDGF104991999999999999999999
0029029810999991901080706004+59500+020350FM-12+002699999V0201401N003119999999N0000001N9+01781+99999100281ADDGF107991999999999999999999
0029029810999991901080713004+59500+020350FM-12+002699999V0209991C000019999999N0000001N9+02061+99999100351ADDGF106991999999999999999999
0029029810999991901080720004+59500+020350FM-12+002699999V0202701N002119999999N0000001N9+01781+99999100441ADDGF102991999999999999999999
0029029810999991901080806004+59500+020350FM-12+002699999V0202301N003119999999N0000001N9+01831+99999100521ADDGF105991999999999999999999
0029029810999991901080813004+59500+020350FM-12+002699999V0202301N006219999999N0000001N9+01831+99999100621ADDGF106991999999999999999999
0029029810999991901080820004+59500+020350FM-12+002699999V0202301N007219999999N0000001N9+01671+99999100601ADDGF102991999999999999999999
0029029810999991901080906004+59500+020350FM-12+002699999V0202901N004119999999N0000001N9+01721+99999100701ADDGF107991999999999999999999
0029029810999991901080913004+59500+020350FM-12+002699999V0203201N005119999999N0000001N9+01781+99999101041ADDGF102991999999999999999999
0029029810999991901080920004+59500+020350FM-12+002699999V0203401N006219999999N0000001N9+01721+99999101471ADDGF101991999999999999999999
0029029810999991901081006004+59500+020350FM-12+002699999V0203401N002119999999N0000001N9+01831+99999101911ADDGF101991999999999999999999
0029029810999991901081013004+59500+020350FM-12+002699999V0201801N002119999999N0000001N9+02171+99999102001ADDGF102991999999999999999999
0029029810999991901081020004+59500+020350FM-12+002699999V0201801N004119999999N0000001N9+01781+99999102021ADDGF102991999999999999999999
0029029810999991901081106004+59500+020350FM-12+002699999V0201801N007219999999N0000001N9+02061+99999102071ADDGF103991999999999999999999
0029029810999991901081113004+59500+020350FM-12+002699999V0202001N005119999999N0000001N9+02171+99999102061ADDGF102991999999999999999999
0029029810999991901081120004+59500+020350FM-12+002699999V0202001N004119999999N0000001N9+01781+99999102041ADDGF101991999999999999999999
0029029810999991901081206004+59500+020350FM-12+002699999V0209991C000019999999N0000001N9+02281+99999102161ADDGF102991999999999999999999
0029029810999991901081213004+59500+020350FM-12+002699999V0200901N003119999999N0000001N9+02001+99999102081ADDGF100991999999999999999999
0029029810999991901081220004+59500+020350FM-12+002699999V0200501N006219999999N0000001N9+01941+99999102001ADDGF101991999999999999999999
0029029810999991901081306004+59500+020350FM-12+002699999V0200701N006219999999N0000001N9+02001+99999101981ADDGF102991999999999999999999
0029029810999991901081313004+59500+020350FM-12+002699999V0200701N007219999999N0000001N9+02061+99999102041ADDGF102991999999999999999999
0029029810999991901081320004+59500+020350FM-12+002699999V0200501N008719999999N0000001N9+02441+99999102071ADDGF102991999999999999999999
0029029810999991901081406004+59500+020350FM-12+002699999V0200901N008719999999N0000001N9+02001+99999102161ADDGF102991999999999999999999
0029029810999991901081413004+59500+020350FM-12+002699999V0200901N010819999999N0000001N9+02061+99999102181ADDGF102991999999999999999999
0029029810999991901081420004+59500+020350FM-12+002699999V0200901N013919999999N0000001N9+02061+99999102031ADDGF102991999999999999999999
0029029810999991901081506004+59500+020350FM-12+002699999V0200901N013919999999N0000001N9+01941+99999101721ADDGF108991999999999999999999
0029029810999991901081513004+59500+020350FM-12+002699999V0200901N011819999999N0000001N9+02061+99999101541ADDGF107991999999999999999999
0035029810999991901081520004+59500+020350FM-12+002699999V0201401N007219999999N0000001N9+02061+99999101301ADDGF106991999999999999999999MW1621
0029029810999991901081606004+59500+020350FM-12+002699999V0201801N005119999999N0000001N9+02111+99999101261ADDGF102991999999999999999999
0029029810999991901081613004+59500+020350FM-12+002699999V0201801N004119999999N0000001N9+02281+99999101401ADDGF103991999999999999999999
0029029810999991901081620004+59500+020350FM-12+002699999V0201801N002119999999N0000001N9+02001+99999101401ADDGF102991999999999999999999
0029029810999991901081706004+59500+020350FM-12+002699999V0201101N006219999999N0000001N9+02061+99999101351ADDGF108991999999999999999999
0029029810999991901081713004+59500+020350FM-12+002699999V0202001N008219999999N0000001N9+02281+99999101381ADDGF108991999999999999999999
0029029810999991901081720004+59500+020350FM-12+002699999V0203201N008719999999N0000001N9+01941+99999101481ADDGF106991999999999999999999
0029029810999991901081806004+59500+020350FM-12+002699999V0203201N008719999999N0000001N9+01831+99999101511ADDGF106991999999999999999999
0029029810999991901081813004+59500+020350FM-12+002699999V0203201N010819999999N0000001N9+01721+99999101791ADDGF105991999999999999999999
0029029810999991901081820004+59500+020350FM-12+002699999V0202901N003119999999N0000001N9+01831+99999101821ADDGF102991999999999999999999
0029029810999991901081906004+59500+020350FM-12+002699999V0202701N010819999999N0000001N9+01781+99999101631ADDGF102991999999999999999999
0029029810999991901081913004+59500+020350FM-12+002699999V0202501N012919999999N0000001N9+01891+99999101471ADDGF104991999999999999999999
0029029810999991901081920004+59500+020350FM-12+002699999V0202501N007219999999N0000001N9+01941+99999101281ADDGF103991999999999999999999
0029029810999991901082006004+59500+020350FM-12+002699999V0209991C000019999999N0000001N9+02281+99999101061ADDGF103991999999999999999999
0029029810999991901082013004+59500+020350FM-12+002699999V0201801N005119999999N0000001N9+02001+99999100991ADDGF106991999999999999999999
0035029810999991901082020004+59500+020350FM-12+002699999V0203401N004119999999N0000001N9+01721+99999101161ADDGF106991999999999999999999MW1131
0029029810999991901082106004+59500+020350FM-12+002699999V0203601N010819999999N0000001N9+01721+99999101391ADDGF102991999999999999999999
0029029810999991901082113004+59500+020350FM-12+002699999V0203601N010819999999N0000001N9+01721+99999101591ADDGF102991999999999999999999
0029029810999991901082120004+59500+020350FM-12+002699999V0203601N009819999999N0000001N9+01561+99999101751ADDGF103991999999999999999999
0029029810999991901082206004+59500+020350FM-12+002699999V0203201N004119999999N0000001N9+01781+99999101801ADDGF102991999999999999999999
0029029810999991901082213004+59500+020350FM-12+002699999V0202701N005119999999N0000001N9+01781+99999101711ADDGF106991999999999999999999
0029029810999991901082220004+59500+020350FM-12+002699999V0202301N008219999999N0000001N9+01781+99999101261ADDGF102991999999999999999999
0029029810999991901082306004+59500+020350FM-12+002699999V0202501N009819999999N0000001N9+01671+99999100391ADDGF107991999999999999999999
0035029810999991901082313004+59500+020350FM-12+002699999V0203201N014919999999N0000001N9+01561+99999100401ADDGF107991999999999999999999MW1621
0029029810999991901082320004+59500+020350FM-12+002699999V0203401N019019999999N0000001N9+01721+99999100381ADDGF108991999999999999999999
0029029810999991901082406004+59500+020350FM-12+002699999V0203401N013919999999N0000001N9+01501+99999100401ADDGF107991999999999999999999
0029029810999991901082413004+59500+020350FM-12+002699999V0203201N018019999999N0000001N9+01391+99999100601ADDGF103991999999999999999999
0029029810999991901082420004+59500+020350FM-12+002699999V0203401N013919999999N0000001N9+01441+99999100741ADDGF102991999999999999999999
0029029810999991901082506004+59500+020350FM-12+002699999V0203401N010819999999N0000001N9+01391+99999100881ADDGF104991999999999999999999
0029029810999991901082513004+59500+020350FM-12+002699999V0203201N008219999999N0000001N9+01391+99999100921ADDGF104991999999999999999999
0029029810999991901082520004+59500+020350FM-12+002699999V0202301N006219999999N0000001N9+01561+99999100711ADDGF108991999999999999999999
0029029810999991901082606004+59500+020350FM-12+002699999V0202501N008719999999N0000001N9+01611+99999100471ADDGF102991999999999999999999
0029029810999991901082613004+59500+020350FM-12+002699999V0202301N011819999999N0000001N9+01781+99999100461ADDGF102991999999999999999999
0029029810999991901082620004+59500+020350FM-12+002699999V0201801N008719999999N0000001N9+01671+99999100341ADDGF102991999999999999999999
0029029810999991901082706004+59500+020350FM-12+002699999V0201601N011819999999N0000001N9+01781+99999100071ADDGF106991999999999999999999
0029029810999991901082713004+59500+020350FM-12+002699999V0201401N015919999999N0000001N9+01781+99999099781ADDGF106991999999999999999999
0035029810999991901082720004+59500+020350FM-12+002699999V0202301N011819999999N0000001N9+01501+99999099561ADDGF108991999999999999999999MW1621
0029029810999991901082806004+59500+020350FM-12+002699999V0202701N005119999999N0000001N9+01561+99999099721ADDGF106991999999999999999999
0029029810999991901082813004+59500+020350FM-12+002699999V0202301N008719999999N0000001N9+01611+99999099841ADDGF102991999999999999999999
0029029810999991901082820004+59500+020350FM-12+002699999V0202501N008219999999N0000001N9+01561+99999099871ADDGF102991999999999999999999
0029029810999991901082906004+59500+020350FM-12+002699999V0209991C000019999999N0000001N9+01891+99999099791ADDGF102991999999999999999999
0029029810999991901082913004+59500+020350FM-12+002699999V0201801N002119999999N0000001N9+01721+99999099861ADDGF102991999999999999999999
0029029810999991901082920004+59500+020350FM-12+002699999V0200901N003119999999N0000001N9+01611+99999099901ADDGF104991999999999999999999
0029029810999991901083006004+59500+020350FM-12+002699999V0202701N008719999999N0000001N9+01441+99999100061ADDGF107991999999999999999999
0035029810999991901083013004+59500+020350FM-12+002699999V0202701N002119999999N0000001N9+01331+99999100261ADDGF106991999999999999999999MW1601
0029029810999991901083106004+59500+020350FM-12+002699999V0200501N008219999999N0000001N9+01561+99999100311ADDGF104991999999999999999999
0029029810999991901083113004+59500+020350FM-12+002699999V0203601N002119999999N0000001N9+01561+99999100301ADDGF103991999999999999999999
0029029810999991901083120004+59500+020350FM-12+002699999V0203601N004119999999N0000001N9+01441+99999100111ADDGF107991999999999999999999
0029029810999991901090106004+59500+020350FM-12+002699999V0200701N010819999999N0000001N9+01441+99999099591ADDGF104991999999999999999999
0029029810999991901090113004+59500+020350FM-12+002699999V0200501N011819999999N0000001N9+01331+99999099551ADDGF105991999999999999999999
0035029810999991901090120004+59500+020350FM-12+002699999V0200701N013919999999N0000001N9+01171+99999099591ADDGF105991999999999999999999MW1901
0029029810999991901090206004+59500+020350FM-12+002699999V0200201N011819999999N0000001N9+01111+99999100191ADDGF105991999999999999999999
0029029810999991901090213004+59500+020350FM-12+002699999V0203601N011819999999N0000001N9+01111+99999100441ADDGF105991999999999999999999
0029029810999991901090220004+59500+020350FM-12+002699999V0203601N014919999999N0000001N9+01001+99999100711ADDGF105991999999999999999999
0029029810999991901090306004+59500+020350FM-12+002699999V0203601N011819999999N0000001N9+00941+99999100921ADDGF104991999999999999999999
0029029810999991901090313004+59500+020350FM-12+002699999V0203601N010819999999N0000001N9+01001+99999101311ADDGF106991999999999999999999
0029029810999991901090320004+59500+020350FM-12+002699999V0200201N013919999999N0000001N9+01061+99999101621ADDGF106991999999999999999999
0029029810999991901090406004+59500+020350FM-12+002699999V0200201N009819999999N0000001N9+00941+99999102031ADDGF106991999999999999999999
