0029029810999991902010106004+59500+020350FM-12+002699999V0202301N008719999999N0000001N9+00281+99999099591ADDGF106991999999999999999999
0029029810999991902010113004+59500+020350FM-12+002699999V0202301N008219999999N0000001N9+00281+99999099471ADDGF108991999999999999999999
0035029810999991902010120004+59500+020350FM-12+002699999V0200701N008719999999N0000001N9+00061+99999098551ADDGF108991999999999999999999MW1721
0029029810999991902010206004+59500+020350FM-12+002699999V0202901N009819999999N0000001N9+00111+99999099001ADDGF108991999999999999999999
0029029810999991902010213004+59500+020350FM-12+002699999V0203201N004119999999N0000001N9+00061+99999099271ADDGF108991999999999999999999
0029029810999991902010220004+59500+020350FM-12+002699999V0200901N009819999999N0000001N9-00111+99999099441ADDGF108991999999999999999999
0029029810999991902010306004+59500+020350FM-12+002699999V0200701N010819999999N0000001N9-00611+99999099951ADDGF108991999999999999999999
0029029810999991902010313004+59500+020350FM-12+002699999V0200201N011819999999N0000001N9-00781+99999100401ADDGF108991999999999999999999
0029029810999991902010320004+59500+020350FM-12+002699999V0203601N006219999999N0000001N9-00831+99999100821ADDGF108991999999999999999999
0035029810999991902010406004+59500+020350FM-12+002699999V0201801N024219999999N0000001N9-00061+99999099391ADDGF108991999999999999999999MW1721
0029029810999991902010413004+59500+020350FM-12+002699999V0202701N015919999999N0000001N9+00281+99999098481ADDGF108991999999999999999999
0029029810999991902010420004+59500+020350FM-12+002699999V0202701N018019999999N0000001N9+00281+99999098431ADDGF100991999999999999999999
0029029810999991902010506004+59500+020350FM-12+002699999V0202701N011819999999N0000001N9+00221+99999097751ADDGF101991999999999999999999
0029029810999991902010513004+59500+020350FM-12+002699999V0202701N017019999999N0000001N9+00171+99999097951ADDGF106991999999999999999999
0029029810999991902010520004+59500+020350FM-12+002699999V0203201N014919999999N0000001N9+00111+99999098391ADDGF102991999999999999999999
0029029810999991902010606004+59500+020350FM-12+002699999V0202901N012919999999N0000001N9+00001+99999099121ADDGF102991999999999999999999
0029029810999991902010613004+59500+020350FM-12+002699999V0201801N012919999999N0000001N9+00111+99999098471ADDGF106991999999999999999999
0029029810999991902010620004+59500+020350FM-12+002699999V0200701N011819999999N0000001N9+00061+99999099021ADDGF104991999999999999999999
0029029810999991902010706004+59500+020350FM-12+002699999V0202001N005119999999N0000001N9-00061+99999100391ADDGF108991999999999999999999
0029029810999991902010713004+59500+020350FM-12+002699999V0202301N015919999999N0000001N9+00171+99999099861ADDGF104991999999999999999999
0029029810999991902010720004+59500+020350FM-12+002699999V0203201N011819999999N0000001N9+00281+99999099861ADDGF101991999999999999999999
0029029810999991902010806004+59500+020350FM-12+002699999V0202901N010819999999N0000001N9+00221+99999100281ADDGF102991999999999999999999
0035029810999991902010813004+59500+020350FM-12+002699999V0202301N015919999999N0000001N9+00281+99999099901ADDGF108991999999999999999999MW1621
0029029810999991902010820004+59500+020350FM-12+002699999V0202901N010819999999N0000001N9+00281+99999100271ADDGF102991999999999999999999
0029029810999991902010906004+59500+020350FM-12+002699999V0202301N009819999999N0000001N9+00221+99999100191ADDGF106991999999999999999999
0029029810999991902010913004+59500+020350FM-12+002699999V0202701N010819999999N0000001N9+00281+99999099961ADDGF107991999999999999999999
0029029810999991902010920004+59500+020350FM-12+002699999V0202301N007219999999N0000001N9+00281+99999099871ADDGF108991999999999999999999
0029029810999991902011006004+59500+020350FM-12+002699999V0202301N021119999999N0000001N9+00221+99999098431ADDGF102991999999999999999999
0029029810999991902011013004+59500+020350FM-12+002699999V0202701N020119999999N0000001N9+00331+99999098511ADDGF102991999999999999999999
0000029810999991902011020004+59500+020350FM-12+002699999V0202501N012919999999N0000001N9+00221+99999098471
0029029810999991902011106004+59500+020350FM-12+002699999V0202701N015919999999N0000001N9+00061+99999098221ADDGF101991999999999999999999
0029029810999991902011113004+59500+020350FM-12+002699999V0203201N013919999999N0000001N9+00061+99999098591ADDGF107991999999999999999999
0029029810999991902011120004+59500+020350FM-12+002699999V0203601N017019999999N0000001N9-00171+99999099641ADDGF108991999999999999999999
0029029810999991902011206004+59500+020350FM-12+002699999V0203201N010819999999N0000001N9-00171+99999100471ADDGF102991999999999999999999
0029029810999991902011213004+59500+020350FM-12+002699999V0202901N005119999999N0000001N9-00171+99999100711ADDGF106991999999999999999999
0029029810999991902011220004+59500+020350FM-12+002699999V0201801N011819999999N0000001N9-00111+99999100031ADDGF108991999999999999999999
0029029810999991902011306004+59500+020350FM-12+002699999V0202701N005119999999N0000001N9-00061+99999098781ADDGF107991999999999999999999
0029029810999991902011313004+59500+020350FM-12+002699999V0202901N008719999999N0000001N9-00331+99999098921ADDGF108991999999999999999999
0029029810999991902011320004+59500+020350FM-12+002699999V0202901N009819999999N0000001N9-00281+99999099271ADDGF102991999999999999999999
0035029810999991902011406004+59500+020350FM-12+002699999V0203601N012919999999N0000001N9-00221+99999099911ADDGF108991999999999999999999MW1901
0029029810999991902011413004+59500+020350FM-12+002699999V0203601N018019999999N0000001N9-00501+99999100801ADDGF108991999999999999999999
0029029810999991902011420004+59500+020350FM-12+002699999V0203601N012919999999N0000001N9-00561+99999101701ADDGF104991999999999999999999
0029029810999991902011506004+59500+020350FM-12+002699999V0203201N005119999999N0000001N9-00391+99999102111ADDGF106991999999999999999999
0029029810999991902011513004+59500+020350FM-12+002699999V0202301N011819999999N0000001N9-00281+99999101671ADDGF107991999999999999999999
0035029810999991902011520004+59500+020350FM-12+002699999V0202001N026819999999N0000001N9-00111+99999999999ADDGF108991999999999999999999MW1721
0029029810999991902011606004+59500+020350FM-12+002699999V0202901N015919999999N0000001N9+00281+99999097591ADDGF104991999999999999999999
0029029810999991902011613004+59500+020350FM-12+002699999V0203201N026219999999N0000001N9+00281+99999098271ADDGF104991999999999999999999
0029029810999991902011620004+59500+020350FM-12+002699999V0203401N026819999999N0000001N9-00171+99999099431ADDGF101991999999999999999999
0029029810999991902011706004+59500+020350FM-12+002699999V0203201N021119999999N0000001N9+00001+99999100181ADDGF104991999999999999999999
0029029810999991902011713004+59500+020350FM-12+002699999V0203201N010819999999N0000001N9+00001+99999100401ADDGF107991999999999999999999
0035029810999991902011720004+59500+020350FM-12+002699999V0203401N003119999999N0000001N9-00171+99999100421ADDGF108991999999999999999999MW1721
0029029810999991902011806004+59500+020350FM-12+002699999V0203601N008719999999N0000001N9-00171+99999100471ADDGF108991999999999999999999
0029029810999991902011813004+59500+020350FM-12+002699999V0203601N019019999999N0000001N9-00671+99999101231ADDGF106991999999999999999999
0029029810999991902011820004+59500+020350FM-12+002699999V0203601N017019999999N0000001N9-00671+99999101861ADDGF106991999999999999999999
0029029810999991902011906004+59500+020350FM-12+002699999V0209991C000019999999N0000001N9-00611+99999102181ADDGF106991999999999999999999
0035029810999991902011913004+59500+020350FM-12+002699999V0202001N014919999999N0000001N9-00501+99999101541ADDGF108991999999999999999999MW1721
0035029810999991902011920004+59500+020350FM-12+002699999V0202501N013919999999N0000001N9-00061+99999100461ADDGF108991999999999999999999MW1721
0035029810999991902012006004+59500+020350FM-12+002699999V0202301N015919999999N0000001N9+00221+99999098861ADDGF108991999999999999999999MW1621
0029029810999991902012013004+59500+020350FM-12+002699999V0202501N010819999999N0000001N9+00221+99999097981ADDGF107991999999999999999999
0029029810999991902012020004+59500+020350FM-12+002699999V0202901N011819999999N0000001N9+00221+99999098121ADDGF102991999999999999999999
0029029810999991902012106004+59500+020350FM-12+002699999V0202701N022119999999N0000001N9+00061+99999098511ADDGF108991999999999999999999
0029029810999991902012113004+59500+020350FM-12+002699999V0203201N019019999999N0000001N9+00061+99999098761ADDGF107991999999999999999999
0029029810999991902012120004+59500+020350FM-12+002699999V0203201N013919999999N0000001N9+00111+99999100201ADDGF102991999999999999999999
0029029810999991902012206004+59500+020350FM-12+002699999V0200501N008719999999N0000001N9-00221+99999101071ADDGF106991999999999999999999
0029029810999991902012213004+59500+020350FM-12+002699999V0201601N002119999999N0000001N9-00561+99999101361ADDGF106991999999999999999999
0029029810999991902012220004+59500+020350FM-12+002699999V0201801N015919999999N0000001N9-00061+99999101031ADDGF108991999999999999999999
0029029810999991902012306004+59500+020350FM-12+002699999V0202701N004119999999N0000001N9+00061+99999100881ADDGF107991999999999999999999
0029029810999991902012313004+59500+020350FM-12+002699999V0202501N005119999999N0000001N9+00061+99999100921ADDGF107991999999999999999999
0029029810999991902012320004+59500+020350FM-12+002699999V0202501N014919999999N0000001N9+00061+99999100441ADDGF108991999999999999999999
0029029810999991902012406004+59500+020350FM-12+002699999V0202301N010819999999N0000001N9+00221+99999100041ADDGF108991999999999999999999
0029029810999991902012413004+59500+020350FM-12+002699999V0202501N011819999999N0000001N9+00221+99999099951ADDGF106991999999999999999999
0029029810999991902012420004+59500+020350FM-12+002699999V0202501N010819999999N0000001N9+00221+99999099831ADDGF108991999999999999999999
0029029810999991902012506004+59500+020350FM-12+002699999V0201801N011819999999N0000001N9+00221+99999099001ADDGF108991999999999999999999
0029029810999991902012513004+59500+020350FM-12+002699999V0201801N013919999999N0000001N9+00221+99999098781ADDGF108991999999999999999999
0029029810999991902012520004+59500+020350FM-12+002699999V0202001N012919999999N0000001N9+00111+99999098591ADDGF108991999999999999999999
0029029810999991902012606004+59500+020350FM-12+002699999V0201801N017019999999N0000001N9+00171+99999098181ADDGF108991999999999999999999
0029029810999991902012613004+59500+020350FM-12+002699999V0202001N008719999999N0000001N9+00111+99999098281ADDGF108991999999999999999999
0029029810999991902012620004+59500+020350FM-12+002699999V0202001N011819999999N0000001N9+00111+99999098481ADDGF107991999999999999999999
0035029810999991902012706004+59500+020350FM-12+002699999V0203601N001019999999N0000001N9+00001+99999098281ADDGF108991999999999999999999MW1721
0029029810999991902012713004+59500+020350FM-12+002699999V0202301N010819999999N0000001N9+00001+99999098831ADDGF106991999999999999999999
0035029810999991902012720004+59500+020350FM-12+002699999V0201801N011819999999N0000001N9+00111+99999098981ADDGF108991999999999999999999MW1721
0029029810999991902012806004+59500+020350FM-12+002699999V0202501N013919999999N0000001N9-00061+99999098881ADDGF105991999999999999999999
0029029810999991902012813004+59500+020350FM-12+002699999V0202501N006219999999N0000001N9-00221+99999099351ADDGF106991999999999999999999
0035029810999991902012820004+59500+020350FM-12+002699999V0201401N007219999999N0000001N9-00111+99999099551ADDGF108991999999999999999999MW1721
0029029810999991902012906004+59500+020350FM-12+002699999V0201801N003119999999N0000001N9-00061+99999099741ADDGF108991999999999999999999
0029029810999991902012913004+59500+020350FM-12+002699999V0200701N008719999999N0000001N9-00061+99999100201ADDGF106991999999999999999999
0029029810999991902012920004+59500+020350FM-12+002699999V0200501N011819999999N0000001N9-00111+99999100781ADDGF108991999999999999999999
0035029810999991902013006004+59500+020350FM-12+002699999V0200501N014919999999N0000001N9-00441+99999101711ADDGF108991999999999999999999MW1721
0029029810999991902013013004+59500+020350FM-12+002699999V0200201N011819999999N0000001N9-00501+99999102391ADDGF108991999999999999999999
0029029810999991902013020004+59500+020350FM-12+002699999V0203601N014919999999N0000001N9-00331+99999103031ADDGF108991999999999999999999
0029029810999991902013106004+59500+020350FM-12+002699999V0203601N014919999999N0000001N9-00221+99999103701ADDGF101991999999999999999999
0029029810999991902013113004+59500+020350FM-12+002699999V0203601N007219999999N0000001N9-00171+99999103961ADDGF105991999999999999999999
0029029810999991902013120004+59500+020350FM-12+002699999V0203601N003119999999N0000001N9-00331+99999104301ADDGF102991999999999999999999
0029029810999991902020106004+59500+020350FM-12+002699999V0202501N006219999999N0000001N9-00111+99999104161ADDGF108991999999999999999999
0029029810999991902020113004+59500+020350FM-12+002699999V0202301N012919999999N0000001N9-00061+99999103961ADDGF108991999999999999999999
0029029810999991902020120004+59500+020350FM-12+002699999V0202501N008219999999N0000001N9+00061+99999103741ADDGF108991999999999999999999
0029029810999991902020206004+59500+020350FM-12+002699999V0202701N006219999999N0000001N9+00001+99999103271ADDGF107991999999999999999999
0029029810999991902020213004+59500+020350FM-12+002699999V0202701N007219999999N0000001N9+00001+99999102911ADDGF104991999999999999999999
0029029810999991902020220004+59500+020350FM-12+002699999V0202901N007219999999N0000001N9+00001+99999102401ADDGF102991999999999999999999
0029029810999991902020306004+59500+020350FM-12+002699999V0202901N008219999999N0000001N9-00061+99999101391ADDGF106991999999999999999999
0029029810999991902020313004+59500+020350FM-12+002699999V0203401N012919999999N0000001N9-00171+99999101561ADDGF102991999999999999999999
0029029810999991902020320004+59500+020350FM-12+002699999V0203601N006219999999N0000001N9-00171+99999101581ADDGF102991999999999999999999
0029029810999991902020406004+59500+020350FM-12+002699999V0202901N012919999999N0000001N9-00171+99999101881ADDGF103991999999999999999999
0035029810999991902020413004+59500+020350FM-12+002699999V0203201N002119999999N0000001N9-00331+99999100121ADDGF108991999999999999999999MW1721
0029029810999991902020420004+59500+020350FM-12+002699999V0200201N013919999999N0000001N9-00671+99999100641ADDGF104991999999999999999999
0029029810999991902020506004+59500+020350FM-12+002699999V0200501N002119999999N0000001N9-00781+99999101061ADDGF101991999999999999999999
0029029810999991902020513004+59500+020350FM-12+002699999V0202701N009819999999N0000001N9-00561+99999101231ADDGF103991999999999999999999
0029029810999991902020520004+59500+020350FM-12+002699999V0202701N008219999999N0000001N9-00501+99999101281ADDGF102991999999999999999999
0029029810999991902020606004+59500+020350FM-12+002699999V0202301N010819999999N0000001N9-00111+99999101071ADDGF104991999999999999999999
0035029810999991902020613004+59500+020350FM-12+002699999V0201801N017019999999N0000001N9-00111+99999100591ADDGF108991999999999999999999MW1721
0029029810999991902020620004+59500+020350FM-12+002699999V0201801N013919999999N0000001N9-00111+99999100231ADDGF108991999999999999999999
0029029810999991902020706004+59500+020350FM-12+002699999V0201601N017019999999N0000001N9-00111+99999099231ADDGF108991999999999999999999
0029029810999991902020713004+59500+020350FM-12+002699999V0202701N005119999999N0000001N9-00221+99999098901ADDGF108991999999999999999999
0029029810999991902020720004+59500+020350FM-12+002699999V0202901N006219999999N0000001N9-00281+99999098681ADDGF108991999999999999999999
0035029810999991902020806004+59500+020350FM-12+002699999V0202301N006219999999N0000001N9-00281+99999098591ADDGF108991999999999999999999MW1721
0029029810999991902020813004+59500+020350FM-12+002699999V0202501N011819999999N0000001N9-00171+99999098671ADDGF106991999999999999999999
0029029810999991902020820004+59500+020350FM-12+002699999V0202701N007219999999N0000001N9+00001+99999099031ADDGF108991999999999999999999
0029029810999991902020906004+59500+020350FM-12+002699999V0202701N002119999999N0000001N9-00501+99999098901ADDGF108991999999999999999999
0029029810999991902020913004+59500+020350FM-12+002699999V0203601N010819999999N0000001N9-00501+99999098901ADDGF108991999999999999999999
0029029810999991902020920004+59500+020350FM-12+002699999V0203201N011819999999N0000001N9-00721+99999099221ADDGF108991999999999999999999
0035029810999991902021006004+59500+020350FM-12+002699999V0200701N002119999999N0000001N9-00671+99999099421ADDGF108991999999999999999999MW1701
0035029810999991902021013004+59500+020350FM-12+002699999V0201401N008719999999N0000001N9-00331+99999099281ADDGF107991999999999999999999MW1701
0035029810999991902021020004+59500+020350FM-12+002699999V0201401N008219999999N0000001N9-00281+99999099231ADDGF104991999999999999999999MW1701
0035029810999991902021106004+59500+020350FM-12+002699999V0202301N013919999999N0000001N9-00671+99999099301ADDGF108991999999999999999999MW1721
0035029810999991902021113004+59500+020350FM-12+002699999V0203201N010819999999N0000001N9-00611+99999099841ADDGF108991999999999999999999MW1721
0029029810999991902021120004+59500+020350FM-12+002699999V0202301N001019999999N0000001N9-00671+99999100261ADDGF108991999999999999999999
0029029810999991902021206004+59500+020350FM-12+002699999V0202001N015919999999N0000001N9+00001+99999099841ADDGF108991999999999999999999
0029029810999991902021213004+59500+020350FM-12+002699999V0202301N017019999999N0000001N9-00111+99999099591ADDGF102991999999999999999999
0029029810999991902021220004+59500+020350FM-12+002699999V0202701N020119999999N0000001N9-00111+99999099641ADDGF103991999999999999999999
0029029810999991902021306004+59500+020350FM-12+002699999V0202301N013919999999N0000001N9-00111+99999099781ADDGF108991999999999999999999
0029029810999991902021313004+59500+020350FM-12+002699999V0202701N014919999999N0000001N9-00171+99999099781ADDGF102991999999999999999999
0029029810999991902021320004+59500+020350FM-12+002699999V0202901N008719999999N0000001N9-00501+99999100341ADDGF102991999999999999999999
0029029810999991902021406004+59500+020350FM-12+002699999V0202701N008219999999N0000001N9-00781+99999100841ADDGF101991999999999999999999
0029029810999991902021413004+59500+020350FM-12+002699999V0202501N011819999999N0000001N9-00441+99999100981ADDGF100991999999999999999999
0029029810999991902021420004+59500+020350FM-12+002699999V0202501N012919999999N0000001N9-00331+99999101041ADDGF100991999999999999999999
0029029810999991902021506004+59500+020350FM-12+002699999V0202901N008719999999N0000001N9-00501+99999101271ADDGF101991999999999999999999
0029029810999991902021513004+59500+020350FM-12+002699999V0202301N007219999999N0000001N9-00281+99999101561ADDGF104991999999999999999999
0029029810999991902021520004+59500+020350FM-12+002699999V0202301N014919999999N0000001N9-00061+99999101271ADDGF101991999999999999999999
0029029810999991902021606004+59500+020350FM-12+002699999V0202501N017019999999N0000001N9+00061+99999101241ADDGF108991999999999999999999
0029029810999991902021613004+59500+020350FM-12+002699999V0202301N020119999999N0000001N9+00061+99999101321ADDGF107991999999999999999999
0029029810999991902021620004+59500+020350FM-12+002699999V0202301N022119999999N0000001N9+00061+99999101301ADDGF107991999999999999999999
0029029810999991902021706004+59500+020350FM-12+002699999V0202501N018019999999N0000001N9+00001+99999101541ADDGF108991999999999999999999
0029029810999991902021713004+59500+020350FM-12+002699999V0202501N013919999999N0000001N9+00061+99999101861ADDGF107991999999999999999999
0029029810999991902021720004+59500+020350FM-12+002699999V0202701N004119999999N0000001N9+00001+99999102391ADDGF104991999999999999999999
0035029810999991902021806004+59500+020350FM-12+002699999V0201401N008719999999N0000001N9-00061+99999102831ADDGF104991999999999999999999MW1481
0029029810999991902021813004+59500+020350FM-12+002699999V0201801N006219999999N0000001N9+00001+99999102961ADDGF103991999999999999999999
0029029810999991902021820004+59500+020350FM-12+002699999V0201801N008219999999N0000001N9-00281+99999102941ADDGF107991999999999999999999
0029029810999991902021906004+59500+020350FM-12+002699999V0209991C000019999999N0000001N9-00281+99999102831ADDGF106991999999999999999999
0029029810999991902021913004+59500+020350FM-12+002699999V0200901N001019999999N0000001N9-00331+99999102961ADDGF108991999999999999999999
0029029810999991902021920004+59500+020350FM-12+002699999V0200901N004119999999N0000001N9-00331+99999103101ADDGF108991999999999999999999
0029029810999991902022006004+59500+020350FM-12+002699999V0209991C000019999999N0000001N9-00391+99999103101ADDGF108991999999999999999999
0029029810999991902022013004+59500+020350FM-12+002699999V0202301N008219999999N0000001N9-00331+99999102921ADDGF105991999999999999999999
0029029810999991902022020004+59500+020350FM-12+002699999V0202301N012919999999N0000001N9-00221+99999102641ADDGF108991999999999999999999
0029029810999991902022106004+59500+020350FM-12+002699999V0202301N012919999999N0000001N9-00061+99999102261ADDGF102991999999999999999999
0029029810999991902022113004+59500+020350FM-12+002699999V0202301N013919999999N0000001N9-00061+99999102141ADDGF102991999999999999999999
0029029810999991902022120004+59500+020350FM-12+002699999V0202301N012919999999N0000001N9-00111+99999102021ADDGF101991999999999999999999
0029029810999991902022206004+59500+020350FM-12+002699999V0202301N015919999999N0000001N9-00331+99999101741ADDGF106991999999999999999999
0029029810999991902022213004+59500+020350FM-12+002699999V0202301N013919999999N0000001N9-00221+99999101801ADDGF108991999999999999999999
0029029810999991902022220004+59500+020350FM-12+002699999V0202701N012919999999N0000001N9-00171+99999101871ADDGF108991999999999999999999
0029029810999991902022306004+59500+020350FM-12+002699999V0202301N008719999999N0000001N9-00281+99999102021ADDGF108991999999999999999999
0029029810999991902022313004+59500+020350FM-12+002699999V0202301N008719999999N0000001N9-00171+99999102161ADDGF108991999999999999999999
0029029810999991902022320004+59500+020350FM-12+002699999V0202301N006219999999N0000001N9-00281+99999102191ADDGF108991999999999999999999
0029029810999991902022406004+59500+020350FM-12+002699999V0202301N009819999999N0000001N9-00281+99999102001ADDGF108991999999999999999999
0029029810999991902022413004+59500+020350FM-12+002699999V0202301N009819999999N0000001N9-00281+99999101841ADDGF108991999999999999999999
0029029810999991902022420004+59500+020350FM-12+002699999V0202301N009819999999N0000001N9-00331+99999101761ADDGF108991999999999999999999
0029029810999991902022506004+59500+020350FM-12+002699999V0202301N007219999999N0000001N9-00281+99999101681ADDGF108991999999999999999999
0029029810999991902022513004+59500+020350FM-12+002699999V0202301N003119999999N0000001N9-00171+99999101681ADDGF107991999999999999999999
0029029810999991902022520004+59500+020350FM-12+002699999V0201401N003119999999N0000001N9-00111+99999101741ADDGF102991999999999999999999
0029029810999991902022606004+59500+020350FM-12+002699999V0200901N007219999999N0000001N9-00111+99999101671ADDGF102991999999999999999999
0029029810999991902022613004+59500+020350FM-12+002699999V0200701N009819999999N0000001N9-00221+99999101521ADDGF103991999999999999999999
0029029810999991902022620004+59500+020350FM-12+002699999V0201101N009819999999N0000001N9-00281+99999101441ADDGF107991999999999999999999
0035029810999991902022706004+59500+020350FM-12+002699999V0201401N013919999999N0000001N9-00171+99999101301ADDGF108991999999999999999999MW1701
0029029810999991902022713004+59500+020350FM-12+002699999V0201401N013919999999N0000001N9-00061+99999101261ADDGF106991999999999999999999
0035029810999991902022720004+59500+020350FM-12+002699999V0201601N008719999999N0000001N9-00061+99999101121ADDGF108991999999999999999999MW1701
0029029810999991902022806004+59500+020350FM-12+002699999V0201401N009819999999N0000001N9-00061+99999100791ADDGF108991999999999999999999
0029029810999991902022813004+59500+020350FM-12+002699999V0201801N012919999999N0000001N9+00001+99999100641ADDGF108991999999999999999999
0029029810999991902022820004+59500+020350FM-12+002699999V0202001N007219999999N0000001N9+00061+99999100641ADDGF108991999999999999999999
0029029810999991902030106004+59500+020350FM-12+002699999V0201801N004119999999N0000001N9+00061+99999100751ADDGF108991999999999999999999
0029029810999991902030113004+59500+020350FM-12+002699999V0201801N006219999999N0000001N9+00061+99999100791ADDGF108991999999999999999999
0029029810999991902030120004+59500+020350FM-12+002699999V0201601N004119999999N0000001N9+00061+99999100821ADDGF108991999999999999999999
0029029810999991902030206004+59500+020350FM-12+002699999V0201801N002119999999N0000001N9-00061+99999100821ADDGF108991999999999999999999
0029029810999991902030213004+59500+020350FM-12+002699999V0200901N004119999999N0000001N9-00061+99999100911ADDGF108991999999999999999999
0029029810999991902030220004+59500+020350FM-12+002699999V0200901N005119999999N0000001N9-00061+99999101081ADDGF108991999999999999999999
0029029810999991902030306004+59500+020350FM-12+002699999V0200901N001019999999N0000001N9-00061+99999101271ADDGF108991999999999999999999
0029029810999991902030313004+59500+020350FM-12+002699999V0200901N004119999999N0000001N9-00111+99999101551ADDGF108991999999999999999999
0029029810999991902030320004+59500+020350FM-12+002699999V0200501N005119999999N0000001N9-00281+99999101871ADDGF108991999999999999999999
0029029810999991902030406004+59500+020350FM-12+002699999V0203601N002119999999N0000001N9-00441+99999102181ADDGF108991999999999999999999
0029029810999991902030413004+59500+020350FM-12+002699999V0209991C000019999999N0000001N9-00561+99999102341ADDGF108991999999999999999999
0029029810999991902030420004+59500+020350FM-12+002699999V0200901N003119999999N0000001N9-00561+99999102391ADDGF108991999999999999999999
0029029810999991902030506004+59500+020350FM-12+002699999V0201601N008219999999N0000001N9-00171+99999101981ADDGF108991999999999999999999
0029029810999991902030513004+59500+020350FM-12+002699999V0201801N015919999999N0000001N9+00001+99999101511ADDGF108991999999999999999999
0029029810999991902030520004+59500+020350FM-12+002699999V0202001N008219999999N0000001N9+00061+99999101121ADDGF108991999999999999999999
0035029810999991902030606004+59500+020350FM-12+002699999V0202301N012919999999N0000001N9+00061+99999100581ADDGF108991999999999999999999MW1621
0029029810999991902030613004+59500+020350FM-12+002699999V0202301N009819999999N0000001N9+00061+99999100381ADDGF108991999999999999999999
0029029810999991902030620004+59500+020350FM-12+002699999V0202701N008719999999N0000001N9+00111+99999100151ADDGF108991999999999999999999
0029029810999991902030706004+59500+020350FM-12+002699999V0202001N004119999999N0000001N9+00061+99999099671ADDGF108991999999999999999999
0035029810999991902030713004+59500+020350FM-12+002699999V0202301N002119999999N0000001N9+00001+99999099461ADDGF108991999999999999999999MW1721
0029029810999991902030720004+59500+020350FM-12+002699999V0203401N011819999999N0000001N9-00221+99999099431ADDGF108991999999999999999999
0035029810999991902030806004+59500+020350FM-12+002699999V0200501N014919999999N0000001N9-00441+99999099231ADDGF108991999999999999999999MW1721
0035029810999991902030813004+59500+020350FM-12+002699999V0203601N012919999999N0000001N9-00721+99999099641ADDGF108991999999999999999999MW1721
0035029810999991902030820004+59500+020350FM-12+002699999V0203601N008219999999N0000001N9-00831+99999099671ADDGF108991999999999999999999MW1721
0035029810999991902030906004+59500+020350FM-12+002699999V0200201N008719999999N0000001N9-01061+99999099381ADDGF108991999999999999999999MW1721
0029029810999991902030913004+59500+020350FM-12+002699999V0203601N008719999999N0000001N9-01171+99999099541ADDGF106991999999999999999999
0029029810999991902030920004+59500+020350FM-12+002699999V0203601N009819999999N0000001N9-00941+99999099801ADDGF108991999999999999999999
0029029810999991902031006004+59500+020350FM-12+002699999V0203601N007219999999N0000001N9-01001+99999100191ADDGF102991999999999999999999
0029029810999991902031013004+59500+020350FM-12+002699999V0202501N006219999999N0000001N9-00781+99999100311ADDGF101991999999999999999999
0029029810999991902031020004+59500+020350FM-12+002699999V0202701N007219999999N0000001N9-00281+99999100121ADDGF102991999999999999999999
0029029810999991902031106004+59500+020350FM-12+002699999V0203201N004119999999N0000001N9-00171+99999099871ADDGF106991999999999999999999
0029029810999991902031113004+59500+020350FM-12+002699999V0200501N009819999999N0000001N9-00721+99999100561ADDGF104991999999999999999999
0029029810999991902031120004+59500+020350FM-12+002699999V0200501N011819999999N0000001N9-00831+99999101021ADDGF102991999999999999999999
0029029810999991902031206004+59500+020350FM-12+002699999V0200201N008219999999N0000001N9-01221+99999101681ADDGF102991999999999999999999
0029029810999991902031213004+59500+020350FM-12+002699999V0200901N001019999999N0000001N9-01111+99999102071ADDGF106991999999999999999999
0029029810999991902031220004+59500+020350FM-12+002699999V0202301N007219999999N0000001N9-01001+99999101991ADDGF102991999999999999999999
0029029810999991902031306004+59500+020350FM-12+002699999V0202301N011819999999N0000001N9-00501+99999101761ADDGF106991999999999999999999
0029029810999991902031313004+59500+020350FM-12+002699999V0202701N006219999999N0000001N9-00171+99999101991ADDGF103991999999999999999999
0029029810999991902031320004+59500+020350FM-12+002699999V0202301N008219999999N0000001N9-00171+99999102061ADDGF103991999999999999999999
0029029810999991902031406004+59500+020350FM-12+002699999V0202301N018019999999N0000001N9-00281+99999101751ADDGF108991999999999999999999
0029029810999991902031413004+59500+020350FM-12+002699999V0202301N023119999999N0000001N9-00061+99999101341ADDGF107991999999999999999999
0029029810999991902031420004+59500+020350FM-12+002699999V0202301N015919999999N0000001N9-00061+99999101021ADDGF108991999999999999999999
0029029810999991902031506004+59500+020350FM-12+002699999V0202301N013919999999N0000001N9+00001+99999100511ADDGF108991999999999999999999
0029029810999991902031513004+59500+020350FM-12+002699999V0202001N008719999999N0000001N9+00061+99999100231ADDGF107991999999999999999999
0029029810999991902031520004+59500+020350FM-12+002699999V0201801N008219999999N0000001N9-00061+99999100041ADDGF102991999999999999999999
0029029810999991902031606004+59500+020350FM-12+002699999V0201801N004119999999N0000001N9+00061+99999099791ADDGF105991999999999999999999
0029029810999991902031613004+59500+020350FM-12+002699999V0201801N004119999999N0000001N9+00111+99999999999ADDGF107991999999999999999999
0029029810999991902031620004+59500+020350FM-12+002699999V0202301N005119999999N0000001N9+00061+99999100141ADDGF108991999999999999999999
0029029810999991902031706004+59500+020350FM-12+002699999V0203201N014919999999N0000001N9-00111+99999100121ADDGF102991999999999999999999
0029029810999991902031713004+59500+020350FM-12+002699999V0203201N012919999999N0000001N9-00171+99999100161ADDGF102991999999999999999999
0029029810999991902031720004+59500+020350FM-12+002699999V0203201N013919999999N0000001N9+00061+99999099991ADDGF102991999999999999999999
0029029810999991902031806004+59500+020350FM-12+002699999V0203401N011819999999N0000001N9-00281+99999100361ADDGF108991999999999999999999
0029029810999991902031813004+59500+020350FM-12+002699999V0203201N009819999999N0000001N9-00281+99999100721ADDGF105991999999999999999999
0029029810999991902031820004+59500+020350FM-12+002699999V0209991C000019999999N0000001N9-00331+99999100871ADDGF102991999999999999999999
0029029810999991902031906004+59500+020350FM-12+002699999V0201801N013919999999N0000001N9+00001+99999999999ADDGF108991999999999999999999
0029029810999991902031913004+59500+020350FM-12+002699999V0202001N018019999999N0000001N9+00171+99999099381ADDGF108991999999999999999999
0029029810999991902031920004+59500+020350FM-12+002699999V0202301N013919999999N0000001N9+00171+99999099101ADDGF104991999999999999999999
0029029810999991902032006004+59500+020350FM-12+002699999V0202301N009819999999N0000001N9+00111+99999099161ADDGF108991999999999999999999
0035029810999991902032013004+59500+020350FM-12+002699999V0201601N011819999999N0000001N9+00061+99999098781ADDGF108991999999999999999999MW1721
0029029810999991902032020004+59500+020350FM-12+002699999V0202301N011819999999N0000001N9+00171+99999098401ADDGF108991999999999999999999
0029029810999991902032106004+59500+020350FM-12+002699999V0203201N007219999999N0000001N9-00221+99999098881ADDGF108991999999999999999999
0035029810999991902032113004+59500+020350FM-12+002699999V0203601N008219999999N0000001N9-00501+99999099321ADDGF108991999999999999999999MW1721
0029029810999991902032120004+59500+020350FM-12+002699999V0203601N006219999999N0000001N9-00781+99999099761ADDGF108991999999999999999999
0035029810999991902032206004+59500+020350FM-12+002699999V0200701N007219999999N0000001N9-00281+99999099701ADDGF108991999999999999999999MW1741
0029029810999991902032213004+59500+020350FM-12+002699999V0200501N008219999999N0000001N9-00111+99999099481ADDGF108991999999999999999999
0029029810999991902032220004+59500+020350FM-12+002699999V0203601N004119999999N0000001N9-00281+99999099791ADDGF108991999999999999999999
0029029810999991902032306004+59500+020350FM-12+002699999V0203601N004119999999N0000001N9-00331+99999100441ADDGF108991999999999999999999
0029029810999991902032313004+59500+020350FM-12+002699999V0209991C000019999999N0000001N9-00061+99999100871ADDGF108991999999999999999999
0029029810999991902032320004+59500+020350FM-12+002699999V0200901N010819999999N0000001N9-00111+99999100901ADDGF108991999999999999999999
0029029810999991902032406004+59500+020350FM-12+002699999V0200901N012919999999N0000001N9-00061+99999099941ADDGF108991999999999999999999
0029029810999991902032413004+59500+020350FM-12+002699999V0201401N011819999999N0000001N9+00221+99999099941ADDGF108991999999999999999999
0029029810999991902032420004+59500+020350FM-12+002699999V0201801N005119999999N0000001N9+00111+99999100151ADDGF107991999999999999999999
0029029810999991902032506004+59500+020350FM-12+002699999V0200201N006219999999N0000001N9+00001+99999999999ADDGF108991999999999999999999
0029029810999991902032513004+59500+020350FM-12+002699999V0201401N007219999999N0000001N9+00111+99999099741ADDGF108991999999999999999999
0035029810999991902032520004+59500+020350FM-12+002699999V0201101N008219999999N0000001N9+00061+99999099521ADDGF108991999999999999999999MW1621
0029029810999991902032606004+59500+020350FM-12+002699999V0202301N010819999999N0000001N9-00171+99999099721ADDGF108991999999999999999999
0029029810999991902032613004+59500+020350FM-12+002699999V0201801N001019999999N0000001N9+00171+99999100111ADDGF106991999999999999999999
0029029810999991902032620004+59500+020350FM-12+002699999V0200501N003119999999N0000001N9-00171+99999100111ADDGF108991999999999999999999
0029029810999991902032706004+59500+020350FM-12+002699999V0203201N006219999999N0000001N9-00221+99999099941ADDGF108991999999999999999999
0029029810999991902032713004+59500+020350FM-12+002699999V0202701N006219999999N0000001N9-00061+99999100141ADDGF108991999999999999999999
0029029810999991902032720004+59500+020350FM-12+002699999V0202701N004119999999N0000001N9-00171+99999100431ADDGF108991999999999999999999
0029029810999991902032806004+59500+020350FM-12+002699999V0203401N007219999999N0000001N9-00221+99999100711ADDGF108991999999999999999999
0029029810999991902032813004+59500+020350FM-12+002699999V0203401N006219999999N0000001N9-00331+99999100941ADDGF108991999999999999999999
0029029810999991902032820004+59500+020350FM-12+002699999V0203401N007219999999N0000001N9-00441+99999100871ADDGF108991999999999999999999
0029029810999991902032906004+59500+020350FM-12+002699999V0203201N008219999999N0000001N9-00441+99999100501ADDGF108991999999999999999999
0029029810999991902032913004+59500+020350FM-12+002699999V0202301N008219999999N0000001N9-00221+99999100351ADDGF102991999999999999999999
0029029810999991902032920004+59500+020350FM-12+002699999V0201801N005119999999N0000001N9-00171+99999100111ADDGF102991999999999999999999
0029029810999991902033006004+59500+020350FM-12+002699999V0201401N009819999999N0000001N9-00061+99999099671ADDGF107991999999999999999999
0029029810999991902033013004+59500+020350FM-12+002699999V0201101N010819999999N0000001N9-00061+99999099881ADDGF106991999999999999999999
0029029810999991902033020004+59500+020350FM-12+002699999V0200901N015919999999N0000001N9-00171+99999100111ADDGF103991999999999999999999
0029029810999991902033106004+59500+020350FM-12+002699999V0200501N008719999999N0000001N9-00331+99999100361ADDGF102991999999999999999999
0029029810999991902033113004+59500+020350FM-12+002699999V0200201N009819999999N0000001N9-00221+99999100391ADDGF102991999999999999999999
0029029810999991902033120004+59500+020350FM-12+002699999V0203601N009819999999N0000001N9-00171+99999100421ADDGF101991999999999999999999
0029029810999991902040106004+59500+020350FM-12+002699999V0203201N004119999999N0000001N9-00221+99999100311ADDGF103991999999999999999999
0029029810999991902040113004+59500+020350FM-12+002699999V0203401N002119999999N0000001N9-00111+99999100271ADDGF106991999999999999999999
0029029810999991902040120004+59500+020350FM-12+002699999V0209991C000019999999N0000001N9-00281+99999100161ADDGF102991999999999999999999
0029029810999991902040206004+59500+020350FM-12+002699999V0201101N004119999999N0000001N9-00171+99999099621ADDGF107991999999999999999999
0035029810999991902040213004+59500+020350FM-12+002699999V0200501N008219999999N0000001N9-00111+99999099461ADDGF108991999999999999999999MW1701
0035029810999991902040220004+59500+020350FM-12+002699999V0200201N008719999999N0000001N9-00171+99999099781ADDGF108991999999999999999999MW1701
0029029810999991902040306004+59500+020350FM-12+002699999V0203201N007219999999N0000001N9-00281+99999100341ADDGF107991999999999999999999
0029029810999991902040313004+59500+020350FM-12+002699999V0202701N005119999999N0000001N9-00221+99999100711ADDGF102991999999999999999999
0029029810999991902040320004+59500+020350FM-12+002699999V0202301N008219999999N0000001N9-00111+99999100791ADDGF101991999999999999999999
0029029810999991902040406004+59500+020350FM-12+002699999V0201601N007219999999N0000001N9-00061+99999100661ADDGF108991999999999999999999
0029029810999991902040413004+59500+020350FM-12+002699999V0200901N008719999999N0000001N9-00111+99999100431ADDGF108991999999999999999999
0029029810999991902040420004+59500+020350FM-12+002699999V0200901N017019999999N0000001N9-00281+99999100281ADDGF103991999999999999999999
0029029810999991902040506004+59500+020350FM-12+002699999V0200201N015919999999N0000001N9-00331+99999100111ADDGF104991999999999999999999
0029029810999991902040513004+59500+020350FM-12+002699999V0203601N015919999999N0000001N9-00171+99999100391ADDGF106991999999999999999999
0029029810999991902040520004+59500+020350FM-12+002699999V0203601N012919999999N0000001N9-00171+99999100621ADDGF102991999999999999999999
0029029810999991902040606004+59500+020350FM-12+002699999V0202701N007219999999N0000001N9-00111+99999100721ADDGF103991999999999999999999
0029029810999991902040613004+59500+020350FM-12+002699999V0202701N007219999999N0000001N9+00001+99999100791ADDGF101991999999999999999999
0029029810999991902040620004+59500+020350FM-12+002699999V0202901N005119999999N0000001N9+00171+99999100791ADDGF108991999999999999999999
0029029810999991902040706004+59500+020350FM-12+002699999V0203201N008219999999N0000001N9-00111+99999101001ADDGF101991999999999999999999
0029029810999991902040713004+59500+020350FM-12+002699999V0203601N003119999999N0000001N9+00001+99999101271ADDGF101991999999999999999999
0029029810999991902040720004+59500+020350FM-12+002699999V0200501N005119999999N0000001N9-00171+99999101391ADDGF101991999999999999999999
0029029810999991902040806004+59500+020350FM-12+002699999V0200901N006219999999N0000001N9-00221+99999101481ADDGF102991999999999999999999
0029029810999991902040813004+59500+020350FM-12+002699999V0203601N003119999999N0000001N9-00281+99999101551ADDGF104991999999999999999999
0035029810999991902040820004+59500+020350FM-12+002699999V0203201N004119999999N0000001N9-00391+99999101351ADDGF108991999999999999999999MW1721
0029029810999991902040906004+59500+020350FM-12+002699999V0202701N002119999999N0000001N9-00221+99999101471ADDGF102991999999999999999999
0029029810999991902040913004+59500+020350FM-12+002699999V0202301N002119999999N0000001N9+00061+99999101711ADDGF106991999999999999999999
0029029810999991902040920004+59500+020350FM-12+002699999V0201101N003119999999N0000001N9-00171+99999102081ADDGF102991999999999999999999
0029029810999991902041006004+59500+020350FM-12+002699999V0201401N003119999999N0000001N9+00001+99999102561ADDGF102991999999999999999999
0029029810999991902041013004+59500+020350FM-12+002699999V0202001N005119999999N0000001N9+00171+99999102871ADDGF102991999999999999999999
0029029810999991902041020004+59500+020350FM-12+002699999V0201801N004119999999N0000001N9-00061+99999103031ADDGF102991999999999999999999
0029029810999991902041106004+59500+020350FM-12+002699999V0201801N005119999999N0000001N9+00221+99999103281ADDGF102991999999999999999999
0029029810999991902041113004+59500+020350FM-12+002699999V0201801N005119999999N0000001N9+00221+99999103341ADDGF100991999999999999999999
0029029810999991902041120004+59500+020350FM-12+002699999V0201801N001019999999N0000001N9-00061+99999103271ADDGF100991999999999999999999
0029029810999991902041206004+59500+020350FM-12+002699999V0201801N001019999999N0000001N9+00061+99999103071ADDGF100991999999999999999999
0029029810999991902041213004+59500+020350FM-12+002699999V0209991C000019999999N0000001N9+00331+99999103021ADDGF101991999999999999999999
0029029810999991902041220004+59500+020350FM-12+002699999V0209991C000019999999N0000001N9-00111+99999102781ADDGF102991999999999999999999
0029029810999991902041306004+59500+020350FM-12+002699999V0200501N005119999999N0000001N9+00061+99999102701ADDGF102991999999999999999999
0029029810999991902041313004+59500+020350FM-12+002699999V0200501N004119999999N0000001N9+00111+99999102741ADDGF102991999999999999999999
0029029810999991902041320004+59500+020350FM-12+002699999V0200501N005119999999N0000001N9+00171+99999102681ADDGF101991999999999999999999
0029029810999991902041406004+59500+020350FM-12+002699999V0200201N004119999999N0000001N9+00111+99999102821ADDGF102991999999999999999999
0029029810999991902041413004+59500+020350FM-12+002699999V0200701N002119999999N0000001N9+00281+99999103021ADDGF101991999999999999999999
0029029810999991902041420004+59500+020350FM-12+002699999V0209991C000019999999N0000001N9+00221+99999103161ADDGF101991999999999999999999
0029029810999991902041506004+59500+020350FM-12+002699999V0201401N002119999999N0000001N9+00221+99999103341ADDGF100991999999999999999999
0029029810999991902041513004+59500+020350FM-12+002699999V0201801N003119999999N0000001N9+00501+99999103381ADDGF100991999999999999999999
0029029810999991902041520004+59500+020350FM-12+002699999V0201801N004119999999N0000001N9+00061+99999103261ADDGF102991999999999999999999
0029029810999991902041606004+59500+020350FM-12+002699999V0201801N005119999999N0000001N9+00221+99999103191ADDGF104991999999999999999999
0029029810999991902041613004+59500+020350FM-12+002699999V0201801N006219999999N0000001N9+00441+99999103031ADDGF102991999999999999999999
0029029810999991902041620004+59500+020350FM-12+002699999V0201801N008219999999N0000001N9+00221+99999102781ADDGF102991999999999999999999
0029029810999991902041706004+59500+020350FM-12+002699999V0201801N006219999999N0000001N9+00281+99999102421ADDGF100991999999999999999999
0029029810999991902041713004+59500+020350FM-12+002699999V0201601N007219999999N0000001N9+00331+99999102311ADDGF101991999999999999999999
0029029810999991902041720004+59500+020350FM-12+002699999V0201401N004119999999N0000001N9+00281+99999101981ADDGF101991999999999999999999
0029029810999991902041806004+59500+020350FM-12+002699999V0201401N005119999999N0000001N9+00281+99999101581ADDGF104991999999999999999999
0029029810999991902041813004+59500+020350FM-12+002699999V0201401N008219999999N0000001N9+00331+99999101341ADDGF107991999999999999999999
0035029810999991902041820004+59500+020350FM-12+002699999V0201801N002119999999N0000001N9+00221+99999101261ADDGF108991999999999999999999MW1601
0029029810999991902041906004+59500+020350FM-12+002699999V0202701N006219999999N0000001N9+00171+99999101421ADDGF108991999999999999999999
0029029810999991902041913004+59500+020350FM-12+002699999V0202901N006219999999N0000001N9+00281+99999101801ADDGF102991999999999999999999
0029029810999991902041920004+59500+020350FM-12+002699999V0202701N005119999999N0000001N9+00501+99999102001ADDGF102991999999999999999999
0029029810999991902042006004+59500+020350FM-12+002699999V0203201N007219999999N0000001N9+00221+99999102261ADDGF102991999999999999999999
0029029810999991902042013004+59500+020350FM-12+002699999V0203201N007219999999N0000001N9+00221+99999102351ADDGF102991999999999999999999
0029029810999991902042020004+59500+020350FM-12+002699999V0203401N009819999999N0000001N9+00171+99999102551ADDGF101991999999999999999999
0029029810999991902042106004+59500+020350FM-12+002699999V0203601N008219999999N0000001N9+00111+99999102661ADDGF100991999999999999999999
0029029810999991902042113004+59500+020350FM-12+002699999V0203601N008219999999N0000001N9+00221+99999102621ADDGF100991999999999999999999
0029029810999991902042120004+59500+020350FM-12+002699999V0203601N008219999999N0000001N9+00221+99999102631ADDGF101991999999999999999999
0029029810999991902042206004+59500+020350FM-12+002699999V0200701N006219999999N0000001N9+00171+99999102681ADDGF101991999999999999999999
0029029810999991902042213004+59500+020350FM-12+002699999V0200201N004119999999N0000001N9+00061+99999102511ADDGF101991999999999999999999
0029029810999991902042220004+59500+020350FM-12+002699999V0203601N005119999999N0000001N9+00111+99999102461ADDGF102991999999999999999999
0029029810999991902042306004+59500+020350FM-12+002699999V0200901N002119999999N0000001N9+00221+99999102511ADDGF102991999999999999999999
0029029810999991902042313004+59500+020350FM-12+002699999V0209991C000019999999N0000001N9+00221+99999102551ADDGF101991999999999999999999
0029029810999991902042320004+59500+020350FM-12+002699999V0209991C000019999999N0000001N9+00111+99999102341ADDGF102991999999999999999999
0029029810999991902042406004+59500+020350FM-12+002699999V0202301N004119999999N0000001N9+00171+99999102001ADDGF106991999999999999999999
0029029810999991902042413004+59500+020350FM-12+002699999V0202001N005119999999N0000001N9+00441+99999101821ADDGF106991999999999999999999
0029029810999991902042420004+59500+020350FM-12+002699999V0209991C000019999999N0000001N9+00111+99999101941ADDGF102991999999999999999999
0029029810999991902042506004+59500+020350FM-12+002699999V0203601N005119999999N0000001N9+00111+99999102081ADDGF105991999999999999999999
0029029810999991902042513004+59500+020350FM-12+002699999V0203601N004119999999N0000001N9+00221+99999102101ADDGF102991999999999999999999
0029029810999991902042520004+59500+020350FM-12+002699999V0203401N006219999999N0000001N9+00171+99999101911ADDGF102991999999999999999999
0029029810999991902042606004+59500+020350FM-12+002699999V0203601N008219999999N0000001N9+00061+99999101561ADDGF102991999999999999999999
0029029810999991902042613004+59500+020350FM-12+002699999V0203601N007219999999N0000001N9+00111+99999101621ADDGF102991999999999999999999
0029029810999991902042620004+59500+020350FM-12+002699999V0203601N008219999999N0000001N9+00061+99999101841ADDGF102991999999999999999999
0029029810999991902042706004+59500+020350FM-12+002699999V0200201N008219999999N0000001N9-00061+99999102001ADDGF102991999999999999999999
0029029810999991902042713004+59500+020350FM-12+002699999V0203601N008219999999N0000001N9-00061+99999102141ADDGF101991999999999999999999
0029029810999991902042720004+59500+020350FM-12+002699999V0203601N008719999999N0000001N9-00171+99999102101ADDGF102991999999999999999999
0029029810999991902042806004+59500+020350FM-12+002699999V0203601N004119999999N0000001N9+00061+99999102031ADDGF102991999999999999999999
0029029810999991902042813004+59500+020350FM-12+002699999V0209991C000019999999N0000001N9+00281+99999102001ADDGF102991999999999999999999
0029029810999991902042820004+59500+020350FM-12+002699999V0202501N003119999999N0000001N9-00061+99999101791ADDGF103991999999999999999999
0029029810999991902042906004+59500+020350FM-12+002699999V0201801N006219999999N0000001N9+00221+99999101441ADDGF106991999999999999999999
0029029810999991902042913004+59500+020350FM-12+002699999V0201801N002119999999N0000001N9+00331+99999101241ADDGF106991999999999999999999
0029029810999991902042920004+59500+020350FM-12+002699999V0209991C000019999999N0000001N9+00061+99999101041ADDGF104991999999999999999999
0029029810999991902043006004+59500+020350FM-12+002699999V0200501N001019999999N0000001N9+00281+99999100761ADDGF103991999999999999999999
0029029810999991902043013004+59500+020350FM-12+002699999V0209991C000019999999N0000001N9+00501+99999100541ADDGF103991999999999999999999
0029029810999991902043020004+59500+020350FM-12+002699999V0201801N002119999999N0000001N9+00001+99999100231ADDGF104991999999999999999999
0029029810999991902050106004+59500+020350FM-12+002699999V0201401N007219999999N0000001N9+00171+99999099791ADDGF106991999999999999999999
0029029810999991902050113004+59500+020350FM-12+002699999V0200901N008219999999N0000001N9+00221+99999999999ADDGF106991999999999999999999
0035029810999991902050120004+59500+020350FM-12+002699999V0200901N012919999999N0000001N9+00111+99999099581ADDGF108991999999999999999999MW1621
0029029810999991902050206004+59500+020350FM-12+002699999V0201801N003119999999N0000001N9+00441+99999099521ADDGF108991999999999999999999
0029029810999991902050213004+59500+020350FM-12+002699999V0201801N002119999999N0000001N9+00501+99999099711ADDGF108991999999999999999999
0029029810999991902050220004+59500+020350FM-12+002699999V0200901N002119999999N0000001N9+00281+99999099991ADDGF108991999999999999999999
0029029810999991902050306004+59500+020350FM-12+002699999V0203601N006219999999N0000001N9+00171+99999100281ADDGF108991999999999999999999
0029029810999991902050313004+59500+020350FM-12+002699999V0200201N003119999999N0000001N9+00221+99999100461ADDGF108991999999999999999999
0029029810999991902050320004+59500+020350FM-12+002699999V0200701N003119999999N0000001N9+00281+99999100501ADDGF108991999999999999999999
0029029810999991902050406004+59500+020350FM-12+002699999V0200201N008219999999N0000001N9+00111+99999100271ADDGF106991999999999999999999
0029029810999991902050413004+59500+020350FM-12+002699999V0201101N005119999999N0000001N9+00281+99999100111ADDGF108991999999999999999999
0029029810999991902050420004+59500+020350FM-12+002699999V0200701N002119999999N0000001N9+00111+99999100341ADDGF108991999999999999999999
0029029810999991902050506004+59500+020350FM-12+002699999V0200501N003119999999N0000001N9+00331+99999100441ADDGF106991999999999999999999
0029029810999991902050513004+59500+020350FM-12+002699999V0200901N002119999999N0000001N9+00221+99999100591ADDGF108991999999999999999999
0029029810999991902050520004+59500+020350FM-12+002699999V0203601N002119999999N0000001N9+00441+99999100781ADDGF106991999999999999999999
0029029810999991902050606004+59500+020350FM-12+002699999V0200501N004119999999N0000001N9+00331+99999100861ADDGF102991999999999999999999
0029029810999991902050613004+59500+020350FM-12+002699999V0200501N004119999999N0000001N9+00501+99999101071ADDGF102991999999999999999999
0029029810999991902050620004+59500+020350FM-12+002699999V0200201N003119999999N0000001N9+00331+99999101121ADDGF106991999999999999999999
0029029810999991902050706004+59500+020350FM-12+002699999V0203601N008219999999N0000001N9+00331+99999101161ADDGF104991999999999999999999
0029029810999991902050713004+59500+020350FM-12+002699999V0203401N015919999999N0000001N9+00331+99999101151ADDGF104991999999999999999999
0029029810999991902050720004+59500+020350FM-12+002699999V0203401N014919999999N0000001N9+00171+99999101071ADDGF105991999999999999999999
0035029810999991902050806004+59500+020350FM-12+002699999V0203201N015919999999N0000001N9+00001+99999100591ADDGF108991999999999999999999MW1721
0035029810999991902050813004+59500+020350FM-12+002699999V0203201N010819999999N0000001N9+00061+99999100721ADDGF106991999999999999999999MW1721
0029029810999991902050820004+59500+020350FM-12+002699999V0203201N008719999999N0000001N9+00061+99999100881ADDGF106991999999999999999999
0035029810999991902050906004+59500+020350FM-12+002699999V0203601N011819999999N0000001N9+00111+99999101081ADDGF106991999999999999999999MW1721
0029029810999991902050913004+59500+020350FM-12+002699999V0200501N008719999999N0000001N9+00221+99999101271ADDGF106991999999999999999999
0029029810999991902050920004+59500+020350FM-12+002699999V0200201N007219999999N0000001N9+00171+99999101321ADDGF106991999999999999999999
0029029810999991902051006004+59500+020350FM-12+002699999V0200201N012919999999N0000001N9+00111+99999101101ADDGF106991999999999999999999
0029029810999991902051013004+59500+020350FM-12+002699999V0200201N007219999999N0000001N9+00221+99999101031ADDGF106991999999999999999999
0029029810999991902051020004+59500+020350FM-12+002699999V0200501N003119999999N0000001N9+00221+99999100921ADDGF106991999999999999999999
0029029810999991902051106004+59500+020350FM-12+002699999V0200501N008219999999N0000001N9+00171+99999100671ADDGF106991999999999999999999
0029029810999991902051113004+59500+020350FM-12+002699999V0203401N005119999999N0000001N9+00281+99999100701ADDGF104991999999999999999999
0029029810999991902051120004+59500+020350FM-12+002699999V0203601N004119999999N0000001N9+00171+99999100621ADDGF106991999999999999999999
0029029810999991902051206004+59500+020350FM-12+002699999V0203601N006219999999N0000001N9+00111+99999100631ADDGF106991999999999999999999
0029029810999991902051213004+59500+020350FM-12+002699999V0200501N002119999999N0000001N9+00281+99999100741ADDGF102991999999999999999999
0029029810999991902051220004+59500+020350FM-12+002699999V0209991C000019999999N0000001N9+00221+99999100711ADDGF106991999999999999999999
0035029810999991902051306004+59500+020350FM-12+002699999V0209991C000019999999N0000001N9+00281+99999100601ADDGF104991999999999999999999MW1621
0029029810999991902051313004+59500+020350FM-12+002699999V0209991C000019999999N0000001N9+00671+99999100951ADDGF104991999999999999999999
0029029810999991902051320004+59500+020350FM-12+002699999V0201101N007219999999N0000001N9+00171+99999100751ADDGF105991999999999999999999
0029029810999991902051406004+59500+020350FM-12+002699999V0201401N009819999999N0000001N9+00331+99999100601ADDGF108991999999999999999999
0029029810999991902051413004+59500+020350FM-12+002699999V0201401N008719999999N0000001N9+00391+99999100621ADDGF106991999999999999999999
0035029810999991902051420004+59500+020350FM-12+002699999V0201401N011819999999N0000001N9+00391+99999100381ADDGF108991999999999999999999MW1621
0029029810999991902051506004+59500+020350FM-12+002699999V0201801N008219999999N0000001N9+00281+99999100621ADDGF108991999999999999999999
0029029810999991902051513004+59500+020350FM-12+002699999V0201601N006219999999N0000001N9+00501+99999100831ADDGF106991999999999999999999
0029029810999991902051520004+59500+020350FM-12+002699999V0209991C000019999999N0000001N9+00391+99999100741ADDGF104991999999999999999999
0029029810999991902051606004+59500+020350FM-12+002699999V0202301N003119999999N0000001N9+00391+99999100501ADDGF106991999999999999999999
0029029810999991902051613004+59500+020350FM-12+002699999V0201801N008219999999N0000001N9+00441+99999100581ADDGF108991999999999999999999
0029029810999991902051620004+59500+020350FM-12+002699999V0201401N007219999999N0000001N9+00171+99999100341ADDGF101991999999999999999999
0029029810999991902051706004+59500+020350FM-12+002699999V0201401N011819999999N0000001N9+00281+99999099951ADDGF106991999999999999999999
0029029810999991902051713004+59500+020350FM-12+002699999V0201101N011819999999N0000001N9+00331+99999099751ADDGF106991999999999999999999
0029029810999991902051720004+59500+020350FM-12+002699999V0201401N006219999999N0000001N9+00331+99999099821ADDGF105991999999999999999999
0035029810999991902051806004+59500+020350FM-12+002699999V0200901N009819999999N0000001N9+00441+99999099591ADDGF105991999999999999999999MW1641
0035029810999991902051813004+59500+020350FM-12+002699999V0200901N014919999999N0000001N9+00501+99999099521ADDGF102991999999999999999999MW1621
0035029810999991902051820004+59500+020350FM-12+002699999V0200901N011819999999N0000001N9+00501+99999099441ADDGF106991999999999999999999MW1621
0029029810999991902051906004+59500+020350FM-12+002699999V0200701N007219999999N0000001N9+00331+99999099501ADDGF106991999999999999999999
0029029810999991902051913004+59500+020350FM-12+002699999V0200901N017019999999N0000001N9+00331+99999099561ADDGF106991999999999999999999
0029029810999991902051920004+59500+020350FM-12+002699999V0200901N018019999999N0000001N9+00331+99999099701ADDGF106991999999999999999999
0029029810999991902052006004+59500+020350FM-12+002699999V0200901N011819999999N0000001N9+00171+99999100151ADDGF106991999999999999999999
0029029810999991902052013004+59500+020350FM-12+002699999V0200901N004119999999N0000001N9+00281+99999100501ADDGF106991999999999999999999
0029029810999991902052020004+59500+020350FM-12+002699999V0203201N008219999999N0000001N9+00501+99999100541ADDGF105991999999999999999999
0029029810999991902052106004+59500+020350FM-12+002699999V0200501N002119999999N0000001N9+00441+99999100791ADDGF104991999999999999999999
0029029810999991902052113004+59500+020350FM-12+002699999V0202301N002119999999N0000001N9+00611+99999101191ADDGF101991999999999999999999
0029029810999991902052120004+59500+020350FM-12+002699999V0209991C000019999999N0000001N9+00561+99999101401ADDGF101991999999999999999999
0029029810999991902052206004+59500+020350FM-12+002699999V0209991C000019999999N0000001N9+00611+99999101641ADDGF101991999999999999999999
0029029810999991902052213004+59500+020350FM-12+002699999V0203201N005119999999N0000001N9+00781+99999101881ADDGF101991999999999999999999
0029029810999991902052220004+59500+020350FM-12+002699999V0203601N009819999999N0000001N9+00501+99999101991ADDGF102991999999999999999999
0029029810999991902052306004+59500+020350FM-12+002699999V0203601N009819999999N0000001N9+00441+99999101911ADDGF102991999999999999999999
0029029810999991902052313004+59500+020350FM-12+002699999V0203201N009819999999N0000001N9+00501+99999101681ADDGF103991999999999999999999
0029029810999991902052320004+59500+020350FM-12+002699999V0203201N004119999999N0000001N9+00611+99999101441ADDGF102991999999999999999999
0029029810999991902052406004+59500+020350FM-12+002699999V0202501N004119999999N0000001N9+00501+99999101101ADDGF104991999999999999999999
0029029810999991902052413004+59500+020350FM-12+002699999V0202301N008219999999N0000001N9+00561+99999101001ADDGF106991999999999999999999
0029029810999991902052420004+59500+020350FM-12+002699999V0202301N009819999999N0000001N9+00561+99999100991ADDGF106991999999999999999999
0029029810999991902052506004+59500+020350FM-12+002699999V0209991C000019999999N0000001N9+01221+99999101301ADDGF102991999999999999999999
0029029810999991902052513004+59500+020350FM-12+002699999V0201601N006219999999N0000001N9+00671+99999101161ADDGF105991999999999999999999
0029029810999991902052520004+59500+020350FM-12+002699999V0202001N008719999999N0000001N9+00561+99999100591ADDGF106991999999999999999999
0029029810999991902052606004+59500+020350FM-12+002699999V0202301N009819999999N0000001N9+00671+99999100071ADDGF103991999999999999999999
0029029810999991902052613004+59500+020350FM-12+002699999V0202701N008719999999N0000001N9+00561+99999099951ADDGF105991999999999999999999
0029029810999991902052620004+59500+020350FM-12+002699999V0202301N008219999999N0000001N9+00611+99999100081ADDGF105991999999999999999999
0029029810999991902052706004+59500+020350FM-12+002699999V0202701N007219999999N0000001N9+00611+99999100341ADDGF102991999999999999999999
0029029810999991902052713004+59500+020350FM-12+002699999V0202001N006219999999N0000001N9+00671+99999100301ADDGF105991999999999999999999
0029029810999991902052720004+59500+020350FM-12+002699999V0202301N008719999999N0000001N9+00611+99999100071ADDGF108991999999999999999999
0029029810999991902052806004+59500+020350FM-12+002699999V0202301N008719999999N0000001N9+00671+99999100071ADDGF108991999999999999999999
0029029810999991902052813004+59500+020350FM-12+002699999V0202701N010819999999N0000001N9+00721+99999100351ADDGF106991999999999999999999
0029029810999991902052820004+59500+020350FM-12+002699999V0201801N011819999999N0000001N9+00671+99999100391ADDGF105991999999999999999999
0029029810999991902052906004+59500+020350FM-12+002699999V0202301N012919999999N0000001N9+00781+99999100521ADDGF106991999999999999999999
0035029810999991902052913004+59500+020350FM-12+002699999V0201801N011819999999N0000001N9+00891+99999100631ADDGF105991999999999999999999MW1621
0029029810999991902052920004+59500+020350FM-12+002699999V0202301N005119999999N0000001N9+00671+99999100841ADDGF103991999999999999999999
0029029810999991902053006004+59500+020350FM-12+002699999V0202301N005119999999N0000001N9+01221+99999101881ADDGF106991999999999999999999
0029029810999991902053013004+59500+020350FM-12+002699999V0209991C000019999999N0000001N9+01111+99999102021ADDGF106991999999999999999999
0029029810999991902053020004+59500+020350FM-12+002699999V0200901N006219999999N0000001N9+00781+99999102081ADDGF105991999999999999999999
0029029810999991902053106004+59500+020350FM-12+002699999V0200501N008719999999N0000001N9+00721+99999101991ADDGF104991999999999999999999
0029029810999991902053113004+59500+020350FM-12+002699999V0201101N013919999999N0000001N9+00721+99999101821ADDGF105991999999999999999999
0029029810999991902053120004+59500+020350FM-12+002699999V0202301N006219999999N0000001N9+01001+99999101681ADDGF105991999999999999999999
0029029810999991902060106004+59500+020350FM-12+002699999V0203601N010819999999N0000001N9+00561+99999101501ADDGF103991999999999999999999
0029029810999991902060113004+59500+020350FM-12+002699999V0203601N014919999999N0000001N9+00561+99999101781ADDGF106991999999999999999999
0035029810999991902060120004+59500+020350FM-12+002699999V0203601N008219999999N0000001N9+00501+99999102001ADDGF106991999999999999999999MW1621
0029029810999991902060206004+59500+020350FM-12+002699999V0203601N006219999999N0000001N9+00671+99999102461ADDGF102991999999999999999999
0029029810999991902060213004+59500+020350FM-12+002699999V0203601N004119999999N0000001N9+00831+99999102681ADDGF100991999999999999999999
0029029810999991902060220004+59500+020350FM-12+002699999V0209991C000019999999N0000001N9+00891+99999102711ADDGF100991999999999999999999
0029029810999991902060306004+59500+020350FM-12+002699999V0202301N009819999999N0000001N9+00721+99999102461ADDGF100991999999999999999999
0029029810999991902060313004+59500+020350FM-12+002699999V0202301N008219999999N0000001N9+00721+99999102191ADDGF101991999999999999999999
0029029810999991902060320004+59500+020350FM-12+002699999V0202501N004119999999N0000001N9+00781+99999102191ADDGF100991999999999999999999
0029029810999991902060406004+59500+020350FM-12+002699999V0209991C000019999999N0000001N9+01331+99999102341ADDGF100991999999999999999999
0029029810999991902060413004+59500+020350FM-12+002699999V0202301N003119999999N0000001N9+01061+99999102101ADDGF100991999999999999999999
0029029810999991902060420004+59500+020350FM-12+002699999V0202301N006219999999N0000001N9+01001+99999101461ADDGF100991999999999999999999
0029029810999991902060506004+59500+020350FM-12+002699999V0203201N005119999999N0000001N9+00941+99999100711ADDGF100991999999999999999999
0029029810999991902060513004+59500+020350FM-12+002699999V0203201N003119999999N0000001N9+00781+99999100761ADDGF101991999999999999999999
0029029810999991902060520004+59500+020350FM-12+002699999V0203601N004119999999N0000001N9+01001+99999100561ADDGF102991999999999999999999
0029029810999991902060606004+59500+020350FM-12+002699999V0200901N007219999999N0000001N9+00671+99999100301ADDGF106991999999999999999999
0035029810999991902060613004+59500+020350FM-12+002699999V0200501N007219999999N0000001N9+00671+99999100161ADDGF106991999999999999999999MW1621
0029029810999991902060620004+59500+020350FM-12+002699999V0203601N007219999999N0000001N9+00561+99999099861ADDGF106991999999999999999999
0029029810999991902060706004+59500+020350FM-12+002699999V0200501N004119999999N0000001N9+00721+99999100031ADDGF104991999999999999999999
0029029810999991902060713004+59500+020350FM-12+002699999V0201101N003119999999N0000001N9+00721+99999100261ADDGF105991999999999999999999
0029029810999991902060720004+59500+020350FM-12+002699999V0200901N004119999999N0000001N9+00611+99999100041ADDGF105991999999999999999999
0029029810999991902060806004+59500+020350FM-12+002699999V0200901N007219999999N0000001N9+00611+99999100021ADDGF107991999999999999999999
0029029810999991902060813004+59500+020350FM-12+002699999V0200901N004119999999N0000001N9+00671+99999999999ADDGF104991999999999999999999
0029029810999991902060820004+59500+020350FM-12+002699999V0200501N006219999999N0000001N9+00721+99999099911ADDGF104991999999999999999999
0035029810999991902060906004+59500+020350FM-12+002699999V0200501N011819999999N0000001N9+00671+99999099441ADDGF108991999999999999999999MW1621
0035029810999991902060913004+59500+020350FM-12+002699999V0200701N017019999999N0000001N9+00561+99999099151ADDGF108991999999999999999999MW1621
0029029810999991902060920004+59500+020350FM-12+002699999V0201601N012919999999N0000001N9+00501+99999098821ADDGF108991999999999999999999
0029029810999991902061006004+59500+020350FM-12+002699999V0202501N010819999999N0000001N9+00501+99999099541ADDGF108991999999999999999999
0029029810999991902061013004+59500+020350FM-12+002699999V0202301N003119999999N0000001N9+00721+99999999999ADDGF104991999999999999999999
0029029810999991902061020004+59500+020350FM-12+002699999V0201801N005119999999N0000001N9+00671+99999100041ADDGF104991999999999999999999
0029029810999991902061106004+59500+020350FM-12+002699999V0201401N005119999999N0000001N9+00611+99999099951ADDGF108991999999999999999999
0029029810999991902061113004+59500+020350FM-12+002699999V0201801N006219999999N0000001N9+00611+99999100041ADDGF108991999999999999999999
0029029810999991902061120004+59500+020350FM-12+002699999V0202301N008219999999N0000001N9+00671+99999100161ADDGF101991999999999999999999
0029029810999991902061206004+59500+020350FM-12+002699999V0201101N004119999999N0000001N9+00561+99999100841ADDGF108991999999999999999999
0029029810999991902061213004+59500+020350FM-12+002699999V0201101N002119999999N0000001N9+00831+99999101061ADDGF104991999999999999999999
0029029810999991902061220004+59500+020350FM-12+002699999V0202001N004119999999N0000001N9+00831+99999101151ADDGF104991999999999999999999
0029029810999991902061306004+59500+020350FM-12+002699999V0201801N004119999999N0000001N9+01061+99999101301ADDGF102991999999999999999999
0029029810999991902061313004+59500+020350FM-12+002699999V0201801N002119999999N0000001N9+01111+99999101401ADDGF104991999999999999999999
0035029810999991902061320004+59500+020350FM-12+002699999V0200501N004119999999N0000001N9+00941+99999101261ADDGF104991999999999999999999MW1641
0029029810999991902061406004+59500+020350FM-12+002699999V0200901N005119999999N0000001N9+00891+99999100881ADDGF106991999999999999999999
0029029810999991902061413004+59500+020350FM-12+002699999V0200501N011819999999N0000001N9+01001+99999100761ADDGF106991999999999999999999
0029029810999991902061420004+59500+020350FM-12+002699999V0203601N013919999999N0000001N9+00891+99999100341ADDGF108991999999999999999999
0029029810999991902061506004+59500+020350FM-12+002699999V0203401N011819999999N0000001N9+00781+99999099441ADDGF108991999999999999999999
0029029810999991902061513004+59500+020350FM-12+002699999V0203201N009819999999N0000001N9+00781+99999099441ADDGF108991999999999999999999
0029029810999991902061520004+59500+020350FM-12+002699999V0202901N009819999999N0000001N9+00611+99999099061ADDGF108991999999999999999999
0029029810999991902061606004+59500+020350FM-12+002699999V0203201N002119999999N0000001N9+00611+99999099801ADDGF108991999999999999999999
0029029810999991902061613004+59500+020350FM-12+002699999V0203601N007219999999N0000001N9+00721+99999099961ADDGF108991999999999999999999
0029029810999991902061620004+59500+020350FM-12+002699999V0200501N003119999999N0000001N9+00671+99999099961ADDGF108991999999999999999999
0029029810999991902061706004+59500+020350FM-12+002699999V0203201N010819999999N0000001N9+00671+99999100121ADDGF108991999999999999999999
0029029810999991902061713004+59500+020350FM-12+002699999V0203201N010819999999N0000001N9+00671+99999100481ADDGF106991999999999999999999
0029029810999991902061720004+59500+020350FM-12+002699999V0203201N009819999999N0000001N9+00671+99999100861ADDGF104991999999999999999999
0029029810999991902061806004+59500+020350FM-12+002699999V0202701N002119999999N0000001N9+00721+99999101321ADDGF102991999999999999999999
0029029810999991902061813004+59500+020350FM-12+002699999V0202301N004119999999N0000001N9+00891+99999101391ADDGF102991999999999999999999
0029029810999991902061820004+59500+020350FM-12+002699999V0201801N006219999999N0000001N9+00891+99999101421ADDGF102991999999999999999999
0029029810999991902061906004+59500+020350FM-12+002699999V0201801N006219999999N0000001N9+01111+99999101501ADDGF102991999999999999999999
0029029810999991902061913004+59500+020350FM-12+002699999V0201801N002119999999N0000001N9+01331+99999101591ADDGF101991999999999999999999
0029029810999991902061920004+59500+020350FM-12+002699999V0200901N001019999999N0000001N9+01111+99999101501ADDGF102991999999999999999999
0029029810999991902062006004+59500+020350FM-12+002699999V0200501N006219999999N0000001N9+00891+99999101221ADDGF106991999999999999999999
0029029810999991902062013004+59500+020350FM-12+002699999V0200501N009819999999N0000001N9+00941+99999101141ADDGF104991999999999999999999
0029029810999991902062020004+59500+020350FM-12+002699999V0200501N008719999999N0000001N9+01221+99999100981ADDGF105991999999999999999999
0029029810999991902062106004+59500+020350FM-12+002699999V0203601N008219999999N0000001N9+01061+99999100591ADDGF105991999999999999999999
0029029810999991902062113004+59500+020350FM-12+002699999V0203601N009819999999N0000001N9+01001+99999100361ADDGF106991999999999999999999
0029029810999991902062120004+59500+020350FM-12+002699999V0203601N009819999999N0000001N9+01001+99999100441ADDGF106991999999999999999999
0029029810999991902062206004+59500+020350FM-12+002699999V0203601N008719999999N0000001N9+00781+99999100561ADDGF108991999999999999999999
0029029810999991902062213004+59500+020350FM-12+002699999V0203601N005119999999N0000001N9+00941+99999100711ADDGF108991999999999999999999
0029029810999991902062220004+59500+020350FM-12+002699999V0203201N010819999999N0000001N9+00941+99999100671ADDGF108991999999999999999999
0035029810999991902062306004+59500+020350FM-12+002699999V0203601N010819999999N0000001N9+00781+99999100711ADDGF108991999999999999999999MW1621
0029029810999991902062313004+59500+020350FM-12+002699999V0203601N013919999999N0000001N9+00941+99999100741ADDGF106991999999999999999999
0029029810999991902062320004+59500+020350FM-12+002699999V0203601N011819999999N0000001N9+01001+99999100961ADDGF106991999999999999999999
0029029810999991902062406004+59500+020350FM-12+002699999V0203601N009819999999N0000001N9+00781+99999101281ADDGF104991999999999999999999
0029029810999991902062413004+59500+020350FM-12+002699999V0203601N011819999999N0000001N9+01111+99999101501ADDGF105991999999999999999999
0029029810999991902062420004+59500+020350FM-12+002699999V0203401N009819999999N0000001N9+01001+99999101721ADDGF102991999999999999999999
0029029810999991902062506004+59500+020350FM-12+002699999V0203601N006219999999N0000001N9+01001+99999102031ADDGF102991999999999999999999
0029029810999991902062513004+59500+020350FM-12+002699999V0202301N004119999999N0000001N9+01061+99999102141ADDGF102991999999999999999999
0029029810999991902062520004+59500+020350FM-12+002699999V0202301N007219999999N0000001N9+01001+99999102041ADDGF102991999999999999999999
0029029810999991902062606004+59500+020350FM-12+002699999V0203601N006219999999N0000001N9+01111+99999102181ADDGF102991999999999999999999
0029029810999991902062613004+59500+020350FM-12+002699999V0203201N004119999999N0000001N9+01111+99999102261ADDGF102991999999999999999999
0029029810999991902062620004+59500+020350FM-12+002699999V0202301N005119999999N0000001N9+01171+99999102061ADDGF106991999999999999999999
0029029810999991902062706004+59500+020350FM-12+002699999V0203601N005119999999N0000001N9+01061+99999102071ADDGF106991999999999999999999
0029029810999991902062713004+59500+020350FM-12+002699999V0203201N003119999999N0000001N9+01111+99999102161ADDGF104991999999999999999999
0029029810999991902062720004+59500+020350FM-12+002699999V0202301N006219999999N0000001N9+01001+99999101871ADDGF105991999999999999999999
0029029810999991902062806004+59500+020350FM-12+002699999V0209991C000019999999N0000001N9+01441+99999101321ADDGF101991999999999999999999
0029029810999991902062813004+59500+020350FM-12+002699999V0209991C000019999999N0000001N9+01441+99999101031ADDGF101991999999999999999999
0029029810999991902062820004+59500+020350FM-12+002699999V0202301N005119999999N0000001N9+01441+99999100481ADDGF104991999999999999999999
0029029810999991902062906004+59500+020350FM-12+002699999V0203201N008719999999N0000001N9+01001+99999100781ADDGF104991999999999999999999
0029029810999991902062913004+59500+020350FM-12+002699999V0203201N009819999999N0000001N9+01061+99999101031ADDGF102991999999999999999999
0029029810999991902062920004+59500+020350FM-12+002699999V0203201N008219999999N0000001N9+01061+99999101181ADDGF102991999999999999999999
0029029810999991902063006004+59500+020350FM-12+002699999V0203201N007219999999N0000001N9+00891+99999101321ADDGF102991999999999999999999
0029029810999991902063013004+59500+020350FM-12+002699999V0202701N002119999999N0000001N9+01001+99999101401ADDGF104991999999999999999999
0029029810999991902063020004+59500+020350FM-12+002699999V0201601N007219999999N0000001N9+01001+99999100981ADDGF104991999999999999999999
0029029810999991902070106004+59500+020350FM-12+002699999V0201601N011819999999N0000001N9+01281+99999100071ADDGF104991999999999999999999
0029029810999991902070113004+59500+020350FM-12+002699999V0202001N013919999999N0000001N9+01221+99999099791ADDGF104991999999999999999999
0029029810999991902070120004+59500+020350FM-12+002699999V0203601N005119999999N0000001N9+00831+99999099601ADDGF104991999999999999999999
0029029810999991902070206004+59500+020350FM-12+002699999V0203601N008219999999N0000001N9+00941+99999099511ADDGF106991999999999999999999
0029029810999991902070213004+59500+020350FM-12+002699999V0203401N007219999999N0000001N9+00941+99999099911ADDGF102991999999999999999999
0029029810999991902070220004+59500+020350FM-12+002699999V0203201N007219999999N0000001N9+00891+99999100181ADDGF103991999999999999999999
0029029810999991902070306004+59500+020350FM-12+002699999V0203201N011819999999N0000001N9+01281+99999100681ADDGF101991999999999999999999
0029029810999991902070313004+59500+020350FM-12+002699999V0203201N009819999999N0000001N9+01001+99999100951ADDGF101991999999999999999999
0029029810999991902070320004+59500+020350FM-12+002699999V0203201N005119999999N0000001N9+00941+99999101261ADDGF102991999999999999999999
0029029810999991902070406004+59500+020350FM-12+002699999V0202501N002119999999N0000001N9+01111+99999101441ADDGF101991999999999999999999
0029029810999991902070413004+59500+020350FM-12+002699999V0202001N005119999999N0000001N9+01281+99999101391ADDGF102991999999999999999999
0029029810999991902070420004+59500+020350FM-12+002699999V0201801N007219999999N0000001N9+01171+99999100991ADDGF102991999999999999999999
0035029810999991902070506004+59500+020350FM-12+002699999V0202001N008219999999N0000001N9+01061+99999100271ADDGF106991999999999999999999MW1621
0029029810999991902070513004+59500+020350FM-12+002699999V0201801N009819999999N0000001N9+01061+99999099861ADDGF108991999999999999999999
0029029810999991902070520004+59500+020350FM-12+002699999V0203201N009819999999N0000001N9+00831+99999099911ADDGF108991999999999999999999
0029029810999991902070606004+59500+020350FM-12+002699999V0203201N010819999999N0000001N9+00781+99999100231ADDGF106991999999999999999999
0029029810999991902070613004+59500+020350FM-12+002699999V0203201N009819999999N0000001N9+01061+99999100701ADDGF108991999999999999999999
0029029810999991902070620004+59500+020350FM-12+002699999V0203201N009819999999N0000001N9+00831+99999100861ADDGF108991999999999999999999
0029029810999991902070706004+59500+020350FM-12+002699999V0202901N003119999999N0000001N9+01001+99999100741ADDGF103991999999999999999999
0029029810999991902070713004+59500+020350FM-12+002699999V0202301N002119999999N0000001N9+01221+99999100511ADDGF104991999999999999999999
0029029810999991902070720004+59500+020350FM-12+002699999V0202901N003119999999N0000001N9+01061+99999100321ADDGF108991999999999999999999
0029029810999991902070806004+59500+020350FM-12+002699999V0203201N006219999999N0000001N9+00891+99999100101ADDGF106991999999999999999999
0029029810999991902070813004+59500+020350FM-12+002699999V0203601N010819999999N0000001N9+01111+99999100241ADDGF102991999999999999999999
0029029810999991902070820004+59500+020350FM-12+002699999V0203201N009819999999N0000001N9+01001+99999100301ADDGF102991999999999999999999
0029029810999991902070906004+59500+020350FM-12+002699999V0202901N006219999999N0000001N9+00891+99999100101ADDGF108991999999999999999999
0029029810999991902070913004+59500+020350FM-12+002699999V0203201N006219999999N0000001N9+00831+99999100321ADDGF106991999999999999999999
0029029810999991902070920004+59500+020350FM-12+002699999V0203401N006219999999N0000001N9+01061+99999100361ADDGF104991999999999999999999
0029029810999991902071006004+59500+020350FM-12+002699999V0203201N002119999999N0000001N9+01111+99999100181ADDGF102991999999999999999999
0029029810999991902071013004+59500+020350FM-12+002699999V0200901N003119999999N0000001N9+01111+99999099991ADDGF106991999999999999999999
0029029810999991902071020004+59500+020350FM-12+002699999V0200701N008719999999N0000001N9+01061+99999099641ADDGF106991999999999999999999
0035029810999991902071106004+59500+020350FM-12+002699999V0200901N015919999999N0000001N9+01001+99999098981ADDGF108991999999999999999999MW1621
0029029810999991902071113004+59500+020350FM-12+002699999V0201401N009819999999N0000001N9+01111+99999099201ADDGF106991999999999999999999
0029029810999991902071120004+59500+020350FM-12+002699999V0201401N005119999999N0000001N9+01061+99999099441ADDGF106991999999999999999999
0035029810999991902071206004+59500+020350FM-12+002699999V0203401N006219999999N0000001N9+01061+99999099221ADDGF108991999999999999999999MW1621
0029029810999991902071213004+59500+020350FM-12+002699999V0203201N011819999999N0000001N9+00891+99999099351ADDGF106991999999999999999999
0035029810999991902071220004+59500+020350FM-12+002699999V0203201N014919999999N0000001N9+00831+99999099721ADDGF106991999999999999999999MW1621
0029029810999991902071306004+59500+020350FM-12+002699999V0202701N007219999999N0000001N9+01001+99999100481ADDGF102991999999999999999999
0029029810999991902071313004+59500+020350FM-12+002699999V0202301N008219999999N0000001N9+01221+99999100741ADDGF105991999999999999999999
0029029810999991902071320004+59500+020350FM-12+002699999V0202301N007219999999N0000001N9+01061+99999100751ADDGF106991999999999999999999
0035029810999991902071406004+59500+020350FM-12+002699999V0202001N008219999999N0000001N9+01061+99999100351ADDGF108991999999999999999999MW1621
0029029810999991902071413004+59500+020350FM-12+002699999V0203201N009819999999N0000001N9+00941+99999100481ADDGF108991999999999999999999
0029029810999991902071420004+59500+020350FM-12+002699999V0203201N009819999999N0000001N9+00941+99999100871ADDGF105991999999999999999999
0029029810999991902071506004+59500+020350FM-12+002699999V0203201N008219999999N0000001N9+01001+99999101221ADDGF102991999999999999999999
0029029810999991902071513004+59500+020350FM-12+002699999V0203201N012919999999N0000001N9+01001+99999101351ADDGF102991999999999999999999
0029029810999991902071520004+59500+020350FM-12+002699999V0203201N007219999999N0000001N9+01001+99999101311ADDGF101991999999999999999999
0029029810999991902071606004+59500+020350FM-12+002699999V0203401N005119999999N0000001N9+01111+99999101031ADDGF101991999999999999999999
0029029810999991902071613004+59500+020350FM-12+002699999V0202901N004119999999N0000001N9+01221+99999100751ADDGF102991999999999999999999
0029029810999991902071620004+59500+020350FM-12+002699999V0202701N003119999999N0000001N9+01331+99999100661ADDGF104991999999999999999999
0029029810999991902071706004+59500+020350FM-12+002699999V0203201N003119999999N0000001N9+01281+99999100621ADDGF103991999999999999999999
0029029810999991902071713004+59500+020350FM-12+002699999V0202701N004119999999N0000001N9+01221+99999100671ADDGF102991999999999999999999
0029029810999991902071720004+59500+020350FM-12+002699999V0202701N002119999999N0000001N9+01171+99999100631ADDGF103991999999999999999999
0029029810999991902071806004+59500+020350FM-12+002699999V0209991C000019999999N0000001N9+01501+99999100621ADDGF104991999999999999999999
0029029810999991902071813004+59500+020350FM-12+002699999V0202301N003119999999N0000001N9+01331+99999100521ADDGF103991999999999999999999
0029029810999991902071820004+59500+020350FM-12+002699999V0201801N002119999999N0000001N9+01281+99999100421ADDGF104991999999999999999999
0029029810999991902071906004+59500+020350FM-12+002699999V0202301N004119999999N0000001N9+01281+99999100311ADDGF106991999999999999999999
0029029810999991902071913004+59500+020350FM-12+002699999V0202301N003119999999N0000001N9+01331+99999100281ADDGF108991999999999999999999
0029029810999991902071920004+59500+020350FM-12+002699999V0202301N002119999999N0000001N9+01001+99999100281ADDGF108991999999999999999999
0035029810999991902072006004+59500+020350FM-12+002699999V0202701N005119999999N0000001N9+01061+99999100021ADDGF108991999999999999999999MW1621
0029029810999991902072013004+59500+020350FM-12+002699999V0202501N004119999999N0000001N9+01171+99999100231ADDGF106991999999999999999999
0029029810999991902072020004+59500+020350FM-12+002699999V0202301N010819999999N0000001N9+01281+99999100321ADDGF104991999999999999999999
0029029810999991902072106004+59500+020350FM-12+002699999V0202301N007219999999N0000001N9+01331+99999100341ADDGF104991999999999999999999
0029029810999991902072113004+59500+020350FM-12+002699999V0202301N008219999999N0000001N9+01331+99999100521ADDGF106991999999999999999999
0029029810999991902072120004+59500+020350FM-12+002699999V0202001N008219999999N0000001N9+01281+99999100621ADDGF104991999999999999999999
0029029810999991902072206004+59500+020350FM-12+002699999V0202301N006219999999N0000001N9+01281+99999100641ADDGF106991999999999999999999
0029029810999991902072213004+59500+020350FM-12+002699999V0209991C000019999999N0000001N9+01611+99999100701ADDGF108991999999999999999999
0029029810999991902072220004+59500+020350FM-12+002699999V0202301N002119999999N0000001N9+01001+99999100681ADDGF108991999999999999999999
0029029810999991902072306004+59500+020350FM-12+002699999V0209991C000019999999N0000001N9+01171+99999100631ADDGF108991999999999999999999
0029029810999991902072313004+59500+020350FM-12+002699999V0202001N002119999999N0000001N9+01391+99999100621ADDGF106991999999999999999999
0029029810999991902072320004+59500+020350FM-12+002699999V0201801N004119999999N0000001N9+01171+99999100841ADDGF108991999999999999999999
0029029810999991902072406004+59500+020350FM-12+002699999V0201801N004119999999N0000001N9+01501+99999100911ADDGF106991999999999999999999
0029029810999991902072413004+59500+020350FM-12+002699999V0201801N003119999999N0000001N9+01281+99999100981ADDGF104991999999999999999999
0029029810999991902072420004+59500+020350FM-12+002699999V0201801N004119999999N0000001N9+01331+99999101071ADDGF106991999999999999999999
0029029810999991902072506004+59500+020350FM-12+002699999V0201801N006219999999N0000001N9+01331+99999100961ADDGF108991999999999999999999
0029029810999991902072513004+59500+020350FM-12+002699999V0202001N007219999999N0000001N9+01561+99999101061ADDGF106991999999999999999999
0029029810999991902072520004+59500+020350FM-12+002699999V0202001N006219999999N0000001N9+01331+99999101041ADDGF102991999999999999999999
0029029810999991902072606004+59500+020350FM-12+002699999V0202701N008219999999N0000001N9+01221+99999101031ADDGF104991999999999999999999
0029029810999991902072613004+59500+020350FM-12+002699999V0202301N007219999999N0000001N9+01331+99999101281ADDGF101991999999999999999999
0029029810999991902072620004+59500+020350FM-12+002699999V0202001N006219999999N0000001N9+01331+99999101241ADDGF104991999999999999999999
0029029810999991902072706004+59500+020350FM-12+002699999V0201601N007219999999N0000001N9+01501+99999100741ADDGF104991999999999999999999
0029029810999991902072713004+59500+020350FM-12+002699999V0201401N008219999999N0000001N9+01501+99999100111ADDGF106991999999999999999999
0029029810999991902072720004+59500+020350FM-12+002699999V0202001N008719999999N0000001N9+01441+99999099551ADDGF106991999999999999999999
0029029810999991902072806004+59500+020350FM-12+002699999V0202301N010819999999N0000001N9+01501+99999099631ADDGF104991999999999999999999
0029029810999991902072813004+59500+020350FM-12+002699999V0202301N017019999999N0000001N9+01441+99999099711ADDGF105991999999999999999999
0029029810999991902072820004+59500+020350FM-12+002699999V0202301N013919999999N0000001N9+01281+99999099721ADDGF105991999999999999999999
0029029810999991902072906004+59500+020350FM-12+002699999V0202301N018019999999N0000001N9+01061+99999099641ADDGF105991999999999999999999
0029029810999991902072913004+59500+020350FM-12+002699999V0202301N007219999999N0000001N9+01171+99999099921ADDGF106991999999999999999999
0029029810999991902072920004+59500+020350FM-12+002699999V0202701N008219999999N0000001N9+01111+99999100301ADDGF106991999999999999999999
0029029810999991902073006004+59500+020350FM-12+002699999V0202301N006219999999N0000001N9+01221+99999100441ADDGF106991999999999999999999
0029029810999991902073013004+59500+020350FM-12+002699999V0202301N005119999999N0000001N9+01281+99999100511ADDGF104991999999999999999999
0029029810999991902073020004+59500+020350FM-12+002699999V0202301N006219999999N0000001N9+01221+99999100481ADDGF103991999999999999999999
0029029810999991902073106004+59500+020350FM-12+002699999V0202301N004119999999N0000001N9+01111+99999100541ADDGF106991999999999999999999
0029029810999991902073113004+59500+020350FM-12+002699999V0202301N007219999999N0000001N9+01331+99999100631ADDGF104991999999999999999999
0029029810999991902073120004+59500+020350FM-12+002699999V0202301N005119999999N0000001N9+01171+99999100741ADDGF104991999999999999999999
0029029810999991902080106004+59500+020350FM-12+002699999V0209991C000019999999N0000001N9+01501+99999100601ADDGF103991999999999999999999
0029029810999991902080113004+59500+020350FM-12+002699999V0203201N004119999999N0000001N9+01281+99999100761ADDGF104991999999999999999999
0029029810999991902080120004+59500+020350FM-12+002699999V0203201N008219999999N0000001N9+01221+99999100881ADDGF104991999999999999999999
0029029810999991902080206004+59500+020350FM-12+002699999V0203201N008219999999N0000001N9+01281+99999100941ADDGF102991999999999999999999
0029029810999991902080213004+59500+020350FM-12+002699999V0203201N008219999999N0000001N9+01221+99999101181ADDGF102991999999999999999999
0029029810999991902080220004+59500+020350FM-12+002699999V0202701N004119999999N0000001N9+01221+99999101121ADDGF104991999999999999999999
0029029810999991902080306004+59500+020350FM-12+002699999V0209991C000019999999N0000001N9+01501+99999100911ADDGF102991999999999999999999
0029029810999991902080313004+59500+020350FM-12+002699999V0209991C000019999999N0000001N9+01441+99999101021ADDGF102991999999999999999999
0029029810999991902080320004+59500+020350FM-12+002699999V0200201N001019999999N0000001N9+01281+99999101001ADDGF104991999999999999999999
0029029810999991902080406004+59500+020350FM-12+002699999V0203201N003119999999N0000001N9+01331+99999100761ADDGF106991999999999999999999
0029029810999991902080413004+59500+020350FM-12+002699999V0202701N003119999999N0000001N9+01441+99999100751ADDGF102991999999999999999999
0029029810999991902080420004+59500+020350FM-12+002699999V0202301N004119999999N0000001N9+01221+99999100711ADDGF103991999999999999999999
0029029810999991902080506004+59500+020350FM-12+002699999V0202301N004119999999N0000001N9+01331+99999100511ADDGF106991999999999999999999
0029029810999991902080513004+59500+020350FM-12+002699999V0202301N006219999999N0000001N9+01441+99999100441ADDGF102991999999999999999999
0029029810999991902080520004+59500+020350FM-12+002699999V0202301N006219999999N0000001N9+01281+99999100471ADDGF105991999999999999999999
0029029810999991902080606004+59500+020350FM-12+002699999V0202301N004119999999N0000001N9+01561+99999100421ADDGF103991999999999999999999
0029029810999991902080613004+59500+020350FM-12+002699999V0202301N006219999999N0000001N9+01331+99999100511ADDGF104991999999999999999999
0029029810999991902080620004+59500+020350FM-12+002699999V0202301N007219999999N0000001N9+01331+99999100551ADDGF105991999999999999999999
0029029810999991902080706004+59500+020350FM-12+002699999V0202701N004119999999N0000001N9+01281+99999100711ADDGF104991999999999999999999
0029029810999991902080713004+59500+020350FM-12+002699999V0202301N003119999999N0000001N9+01561+99999100781ADDGF105991999999999999999999
0029029810999991902080720004+59500+020350FM-12+002699999V0202301N003119999999N0000001N9+01281+99999100661ADDGF106991999999999999999999
0029029810999991902080806004+59500+020350FM-12+002699999V0209991C000019999999N0000001N9+01561+99999100581ADDGF104991999999999999999999
0029029810999991902080813004+59500+020350FM-12+002699999V0209991C000019999999N0000001N9+01721+99999100661ADDGF102991999999999999999999
0029029810999991902080820004+59500+020350FM-12+002699999V0202001N004119999999N0000001N9+01331+99999100671ADDGF102991999999999999999999
0029029810999991902080906004+59500+020350FM-12+002699999V0201601N006219999999N0000001N9+01561+99999100381ADDGF102991999999999999999999
0035029810999991902080913004+59500+020350FM-12+002699999V0201101N012919999999N0000001N9+01501+99999100121ADDGF106991999999999999999999MW1621
0029029810999991902080920004+59500+020350FM-12+002699999V0202301N008719999999N0000001N9+01331+99999099801ADDGF104991999999999999999999
0029029810999991902081006004+59500+020350FM-12+002699999V0202001N010819999999N0000001N9+01441+99999099821ADDGF104991999999999999999999
0029029810999991902081013004+59500+020350FM-12+002699999V0202001N015919999999N0000001N9+01281+99999099901ADDGF104991999999999999999999
0029029810999991902081020004+59500+020350FM-12+002699999V0202301N011819999999N0000001N9+01281+99999099921ADDGF104991999999999999999999
0029029810999991902081106004+59500+020350FM-12+002699999V0202001N007219999999N0000001N9+01331+99999099991ADDGF104991999999999999999999
0035029810999991902081113004+59500+020350FM-12+002699999V0201801N008719999999N0000001N9+01281+99999099901ADDGF106991999999999999999999MW1601
0029029810999991902081120004+59500+020350FM-12+002699999V0202001N008219999999N0000001N9+01221+99999099831ADDGF104991999999999999999999
0029029810999991902081206004+59500+020350FM-12+002699999V0201801N011819999999N0000001N9+01281+99999099741ADDGF105991999999999999999999
0029029810999991902081213004+59500+020350FM-12+002699999V0201801N008719999999N0000001N9+01331+99999100021ADDGF104991999999999999999999
0029029810999991902081220004+59500+020350FM-12+002699999V0201801N007219999999N0000001N9+01221+99999100121ADDGF103991999999999999999999
0029029810999991902081306004+59500+020350FM-12+002699999V0201801N002119999999N0000001N9+01281+99999099991ADDGF104991999999999999999999
0029029810999991902081313004+59500+020350FM-12+002699999V0209991C000019999999N0000001N9+01721+99999099991ADDGF102991999999999999999999
0029029810999991902081320004+59500+020350FM-12+002699999V0209991C000019999999N0000001N9+01221+99999099951ADDGF102991999999999999999999
0029029810999991902081406004+59500+020350FM-12+002699999V0202301N004119999999N0000001N9+01281+99999099761ADDGF103991999999999999999999
0029029810999991902081413004+59500+020350FM-12+002699999V0202301N004119999999N0000001N9+01331+99999099831ADDGF102991999999999999999999
0029029810999991902081420004+59500+020350FM-12+002699999V0202301N006219999999N0000001N9+01281+99999099751ADDGF102991999999999999999999
0029029810999991902081506004+59500+020350FM-12+002699999V0202301N004119999999N0000001N9+01391+99999099421ADDGF106991999999999999999999
0029029810999991902081513004+59500+020350FM-12+002699999V0203201N003119999999N0000001N9+01281+99999099421ADDGF105991999999999999999999
0029029810999991902081520004+59500+020350FM-12+002699999V0203201N007219999999N0000001N9+01221+99999099431ADDGF104991999999999999999999
0029029810999991902081606004+59500+020350FM-12+002699999V0202701N007219999999N0000001N9+01221+99999099361ADDGF106991999999999999999999
0029029810999991902081613004+59500+020350FM-12+002699999V0202501N006219999999N0000001N9+01221+99999099601ADDGF102991999999999999999999
0029029810999991902081620004+59500+020350FM-12+002699999V0202501N006219999999N0000001N9+01331+99999099681ADDGF103991999999999999999999
0029029810999991902081706004+59500+020350FM-12+002699999V0203201N003119999999N0000001N9+01281+99999099801ADDGF103991999999999999999999
0029029810999991902081713004+59500+020350FM-12+002699999V0203201N003119999999N0000001N9+01221+99999100111ADDGF102991999999999999999999
0029029810999991902081720004+59500+020350FM-12+002699999V0200701N004119999999N0000001N9+01221+99999100431ADDGF102991999999999999999999
0029029810999991902081806004+59500+020350FM-12+002699999V0202001N005119999999N0000001N9+01331+99999100761ADDGF106991999999999999999999
0029029810999991902081813004+59500+020350FM-12+002699999V0202301N005119999999N0000001N9+01501+99999100941ADDGF102991999999999999999999
0029029810999991902081820004+59500+020350FM-12+002699999V0201801N010819999999N0000001N9+01331+99999101121ADDGF102991999999999999999999
0029029810999991902081906004+59500+020350FM-12+002699999V0201801N008719999999N0000001N9+01331+99999101101ADDGF106991999999999999999999
0029029810999991902081913004+59500+020350FM-12+002699999V0201601N009819999999N0000001N9+01441+99999100941ADDGF106991999999999999999999
0035029810999991902081920004+59500+020350FM-12+002699999V0201601N009819999999N0000001N9+01331+99999100441ADDGF106991999999999999999999MW1601
0029029810999991902082006004+59500+020350FM-12+002699999V0202301N015919999999N0000001N9+01441+99999099421ADDGF104991999999999999999999
0029029810999991902082013004+59500+020350FM-12+002699999V0202301N011819999999N0000001N9+01331+99999099761ADDGF104991999999999999999999
0029029810999991902082020004+59500+020350FM-12+002699999V0202301N008719999999N0000001N9+01331+99999099911ADDGF102991999999999999999999
0029029810999991902082106004+59500+020350FM-12+002699999V0202501N006219999999N0000001N9+01281+99999099881ADDGF104991999999999999999999
0029029810999991902082113004+59500+020350FM-12+002699999V0202701N006219999999N0000001N9+01221+99999100151ADDGF103991999999999999999999
0029029810999991902082120004+59500+020350FM-12+002699999V0202701N004119999999N0000001N9+01221+99999100441ADDGF102991999999999999999999
0029029810999991902082206004+59500+020350FM-12+002699999V0202901N009819999999N0000001N9+01061+99999100741ADDGF103991999999999999999999
0029029810999991902082213004+59500+020350FM-12+002699999V0202501N007219999999N0000001N9+01221+99999101121ADDGF102991999999999999999999
0029029810999991902082220004+59500+020350FM-12+002699999V0202301N005119999999N0000001N9+01281+99999101261ADDGF103991999999999999999999
0029029810999991902082306004+59500+020350FM-12+002699999V0202701N006219999999N0000001N9+01061+99999101561ADDGF102991999999999999999999
0029029810999991902082313004+59500+020350FM-12+002699999V0202701N003119999999N0000001N9+01111+99999101791ADDGF101991999999999999999999
0029029810999991902082320004+59500+020350FM-12+002699999V0202701N009819999999N0000001N9+01331+99999101791ADDGF101991999999999999999999
0029029810999991902082406004+59500+020350FM-12+002699999V0202301N004119999999N0000001N9+01441+99999101701ADDGF101991999999999999999999
0029029810999991902082413004+59500+020350FM-12+002699999V0202301N007219999999N0000001N9+01331+99999101781ADDGF102991999999999999999999
0029029810999991902082420004+59500+020350FM-12+002699999V0201801N009819999999N0000001N9+01281+99999101661ADDGF104991999999999999999999
0029029810999991902082506004+59500+020350FM-12+002699999V0201601N008219999999N0000001N9+01331+99999101481ADDGF106991999999999999999999
0029029810999991902082513004+59500+020350FM-12+002699999V0201401N008719999999N0000001N9+01441+99999101201ADDGF106991999999999999999999
0029029810999991902082520004+59500+020350FM-12+002699999V0201601N009819999999N0000001N9+01441+99999100821ADDGF106991999999999999999999
0029029810999991902082606004+59500+020350FM-12+002699999V0202501N009819999999N0000001N9+01331+99999100441ADDGF106991999999999999999999
0029029810999991902082613004+59500+020350FM-12+002699999V0202301N008719999999N0000001N9+01391+99999100831ADDGF106991999999999999999999
0029029810999991902082620004+59500+020350FM-12+002699999V0202701N004119999999N0000001N9+01331+99999101201ADDGF103991999999999999999999
0029029810999991902082706004+59500+020350FM-12+002699999V0203201N007219999999N0000001N9+01221+99999101641ADDGF106991999999999999999999
0029029810999991902082713004+59500+020350FM-12+002699999V0203201N007219999999N0000001N9+01281+99999101881ADDGF104991999999999999999999
0029029810999991902082720004+59500+020350FM-12+002699999V0200501N006219999999N0000001N9+01221+99999101831ADDGF102991999999999999999999
0029029810999991902082806004+59500+020350FM-12+002699999V0200901N010819999999N0000001N9+01331+99999101501ADDGF106991999999999999999999
0029029810999991902082813004+59500+020350FM-12+002699999V0200901N010819999999N0000001N9+01331+99999101231ADDGF106991999999999999999999
0035029810999991902082820004+59500+020350FM-12+002699999V0200901N007219999999N0000001N9+01331+99999100991ADDGF108991999999999999999999MW1601
0029029810999991902082906004+59500+020350FM-12+002699999V0201401N006219999999N0000001N9+01281+99999100861ADDGF108991999999999999999999
0029029810999991902082913004+59500+020350FM-12+002699999V0200901N009819999999N0000001N9+01331+99999100831ADDGF106991999999999999999999
0035029810999991902082920004+59500+020350FM-12+002699999V0200901N010819999999N0000001N9+01221+99999100871ADDGF108991999999999999999999MW1641
0029029810999991902083006004+59500+020350FM-12+002699999V0200901N008719999999N0000001N9+01171+99999101221ADDGF104991999999999999999999
0029029810999991902083013004+59500+020350FM-12+002699999V0200901N010819999999N0000001N9+01061+99999101351ADDGF104991999999999999999999
0029029810999991902083106004+59500+020350FM-12+002699999V0201401N015919999999N0000001N9+01221+99999100881ADDGF106991999999999999999999
0029029810999991902083113004+59500+020350FM-12+002699999V0201401N011819999999N0000001N9+01331+99999100871ADDGF106991999999999999999999
0035029810999991902083120004+59500+020350FM-12+002699999V0201401N010819999999N0000001N9+01281+99999100901ADDGF108991999999999999999999MW1621
0029029810999991902090106004+59500+020350FM-12+002699999V0202701N003119999999N0000001N9+01171+99999101031ADDGF105991999999999999999999
0029029810999991902090113004+59500+020350FM-12+002699999V0202301N006219999999N0000001N9+01281+99999101101ADDGF107991999999999999999999
0029029810999991902090120004+59500+020350FM-12+002699999V0202701N006219999999N0000001N9+01281+99999101081ADDGF104991999999999999999999
0029029810999991902090206004+59500+020350FM-12+002699999V0202701N002119999999N0000001N9+01331+99999101321ADDGF101991999999999999999999
0029029810999991902090213004+59500+020350FM-12+002699999V0202701N001019999999N0000001N9+01501+99999101601ADDGF104991999999999999999999
0029029810999991902090220004+59500+020350FM-12+002699999V0201401N002119999999N0000001N9+01171+99999101721ADDGF102991999999999999999999
0029029810999991902090306004+59500+020350FM-12+002699999V0201801N006219999999N0000001N9+01331+99999101861ADDGF106991999999999999999999
0029029810999991902090313004+59500+020350FM-12+002699999V0201801N008719999999N0000001N9+01391+99999101801ADDGF107991999999999999999999
0029029810999991902090320004+59500+020350FM-12+002699999V0201801N012919999999N0000001N9+01391+99999101541ADDGF108991999999999999999999
0029029810999991902090406004+59500+020350FM-12+002699999V0201801N011819999999N0000001N9+01501+99999101281ADDGF107991999999999999999999
