0029029070999991901010106004+64333+023450FM-12+000599999V0202701N015919999999N0000001N9-00781+99999102001ADDGF108991999999999999999999
0029029070999991901010113004+64333+023450FM-12+000599999V0202901N008219999999N0000001N9-00721+99999102001ADDGF104991999999999999999999
0029029070999991901010120004+64333+023450FM-12+000599999V0209991C000019999999N0000001N9-00941+99999102001ADDGF108991999999999999999999
0029029070999991901010206004+64333+023450FM-12+000599999V0201801N008219999999N0000001N9-00611+99999101831ADDGF108991999999999999999999
0029029070999991901010213004+64333+023450FM-12+000599999V0201801N009819999999N0000001N9-00561+99999101761ADDGF108991999999999999999999
0029029070999991901010220004+64333+023450FM-12+000599999V0201801N009819999999N0000001N9-00281+99999101751ADDGF108991999999999999999999
0029029070999991901010306004+64333+023450FM-12+000599999V0202001N009819999999N0000001N9-00671+99999101701ADDGF106991999999999999999999
0029029070999991901010313004+64333+023450FM-12+000599999V0202301N011819999999N0000001N9-00331+99999101741ADDGF108991999999999999999999
0029029070999991901010320004+64333+023450FM-12+000599999V0202301N011819999999N0000001N9-00281+99999101741ADDGF108991999999999999999999
0029029070999991901010406004+64333+023450FM-12+000599999V0209991C000019999999N0000001N9-00331+99999102311ADDGF108991999999999999999999
0029029070999991901010413004+64333+023450FM-12+000599999V0202301N008219999999N0000001N9-00441+99999102261ADDGF108991999999999999999999
0029029070999991901010420004+64333+023450FM-12+000599999V0202001N011819999999N0000001N9-00391+99999102231ADDGF108991999999999999999999
0029029070999991901010506004+64333+023450FM-12+000599999V0202701N004119999999N0000001N9+00001+99999101821ADDGF104991999999999999999999
0029029070999991901010513004+64333+023450FM-12+000599999V0202701N002119999999N0000001N9+00061+99999102591ADDGF104991999999999999999999
0029029070999991901010520004+64333+023450FM-12+000599999V0202301N004119999999N0000001N9+00001+99999102671ADDGF104991999999999999999999
0029029070999991901010606004+64333+023450FM-12+000599999V0202701N006219999999N0000001N9+00061+99999102751ADDGF103991999999999999999999
0029029070999991901010613004+64333+023450FM-12+000599999V0202701N006219999999N0000001N9+00061+99999102981ADDGF100991999999999999999999
0029029070999991901010620004+64333+023450FM-12+000599999V0203201N002119999999N0000001N9-00111+99999103191ADDGF100991999999999999999999
0029029070999991901010706004+64333+023450FM-12+000599999V0209991C000019999999N0000001N9-00331+99999103341ADDGF100991999999999999999999
0029029070999991901010713004+64333+023450FM-12+000599999V0209991C000019999999N0000001N9-00501+99999103321ADDGF100991999999999999999999
0029029070999991901010720004+64333+023450FM-12+000599999V0202001N009819999999N0000001N9-00441+99999103321ADDGF100991999999999999999999
0029029070999991901010806004+64333+023450FM-12+000599999V0202301N009819999999N0000001N9-00281+99999103221ADDGF108991999999999999999999
0029029070999991901010813004+64333+023450FM-12+000599999V0202301N011819999999N0000001N9-00331+99999103201ADDGF108991999999999999999999
0035029070999991901010820004+64333+023450FM-12+000599999V0202301N013919999999N0000001N9-00331+99999102991ADDGF108991999999999999999999MW1701
0029029070999991901010906004+64333+023450FM-12+000599999V0209991C000019999999N0000001N9-00501+99999102871ADDGF108991999999999999999999
0029029070999991901010913004+64333+023450FM-12+000599999V0209991C000019999999N0000001N9-00331+99999102661ADDGF108991999999999999999999
0029029070999991901010920004+64333+023450FM-12+000599999V0201801N009819999999N0000001N9-00281+99999102391ADDGF108991999999999999999999
0029029070999991901011006004+64333+023450FM-12+000599999V0202301N009819999999N0000001N9-00441+99999101601ADDGF100991999999999999999999
0029029070999991901011013004+64333+023450FM-12+000599999V0202301N011819999999N0000001N9-00441+99999101481ADDGF100991999999999999999999
0029029070999991901011020004+64333+023450FM-12+000599999V0202301N013919999999N0000001N9-00441+99999101381ADDGF100991999999999999999999
0029029070999991901011106004+64333+023450FM-12+000599999V0202501N006219999999N0000001N9-00391+99999101061ADDGF100991999999999999999999
0029029070999991901011113004+64333+023450FM-12+000599999V0202701N008219999999N0000001N9-00501+99999101141ADDGF100991999999999999999999
0029029070999991901011120004+64333+023450FM-12+000599999V0209991C000019999999N0000001N9-00441+99999101261ADDGF100991999999999999999999
0029029070999991901011206004+64333+023450FM-12+000599999V0202701N004119999999N0000001N9-00391+99999101311ADDGF104991999999999999999999
0029029070999991901011213004+64333+023450FM-12+000599999V0203201N008219999999N0000001N9-00331+99999102071ADDGF103991999999999999999999
0029029070999991901011220004+64333+023450FM-12+000599999V0202901N009819999999N0000001N9-00221+99999102191ADDGF100991999999999999999999
0029029070999991901011306004+64333+023450FM-12+000599999V0203201N004119999999N0000001N9+00001+99999101661ADDGF100991999999999999999999
0029029070999991901011313004+64333+023450FM-12+000599999V0203201N008219999999N0000001N9-00061+99999102351ADDGF100991999999999999999999
0029029070999991901011320004+64333+023450FM-12+000599999V0203201N004119999999N0000001N9-00171+99999102321ADDGF100991999999999999999999
0029029070999991901011406004+64333+023450FM-12+000599999V0209991C000019999999N0000001N9-00441+99999102721ADDGF100991999999999999999999
0029029070999991901011413004+64333+023450FM-12+000599999V0202301N009819999999N0000001N9-00391+99999102551ADDGF100991999999999999999999
0029029070999991901011420004+64333+023450FM-12+000599999V0202301N011819999999N0000001N9-00331+99999102261ADDGF100991999999999999999999
0029029070999991901011506004+64333+023450FM-12+000599999V0202301N013919999999N0000001N9-00061+99999101831ADDGF108991999999999999999999
0029029070999991901011513004+64333+023450FM-12+000599999V0202301N013919999999N0000001N9+00171+99999101541ADDGF108991999999999999999999
0035029070999991901011520004+64333+023450FM-12+000599999V0202301N015919999999N0000001N9+00221+99999101321ADDGF108991999999999999999999MW1721
0029029070999991901011606004+64333+023450FM-12+000599999V0209991C000019999999N0000001N9+00281+99999101121ADDGF103991999999999999999999
0029029070999991901011613004+64333+023450FM-12+000599999V0202701N004119999999N0000001N9+00281+99999101271ADDGF102991999999999999999999
0029029070999991901011620004+64333+023450FM-12+000599999V0202701N006219999999N0000001N9+00111+99999101391ADDGF100991999999999999999999
0029029070999991901011706004+64333+023450FM-12+000599999V0209991C000019999999N0000001N9-00171+99999101401ADDGF102991999999999999999999
0029029070999991901011713004+64333+023450FM-12+000599999V0209991C000019999999N0000001N9-00281+99999101391ADDGF104991999999999999999999
0029029070999991901011720004+64333+023450FM-12+000599999V0202001N008219999999N0000001N9-00561+99999101381ADDGF108991999999999999999999
0029029070999991901011806004+64333+023450FM-12+000599999V0209991C000019999999N0000001N9-00441+99999101001ADDGF108991999999999999999999
0029029070999991901011813004+64333+023450FM-12+000599999V0202701N004119999999N0000001N9-00441+99999101151ADDGF108991999999999999999999
0029029070999991901011820004+64333+023450FM-12+000599999V0209991C000019999999N0000001N9-00671+99999101261ADDGF108991999999999999999999
0029029070999991901011906004+64333+023450FM-12+000599999V0202301N004119999999N0000001N9-00441+99999100711ADDGF108991999999999999999999
0029029070999991901011913004+64333+023450FM-12+000599999V0202001N006219999999N0000001N9-00391+99999100361ADDGF108991999999999999999999
0035029070999991901011920004+64333+023450FM-12+000599999V0202001N008219999999N0000001N9-00221+99999100151ADDGF108991999999999999999999MW1721
0029029070999991901012006004+64333+023450FM-12+000599999V0202501N004119999999N0000001N9-00221+99999100061ADDGF108991999999999999999999
0029029070999991901012013004+64333+023450FM-12+000599999V0202701N006219999999N0000001N9-00221+99999099991ADDGF108991999999999999999999
0029029070999991901012020004+64333+023450FM-12+000599999V0209991C000019999999N0000001N9-00391+99999099721ADDGF108991999999999999999999
0029029070999991901012106004+64333+023450FM-12+000599999V0200701N008219999999N0000001N9-00171+99999099141ADDGF108991999999999999999999
0029029070999991901012113004+64333+023450FM-12+000599999V0200701N006219999999N0000001N9-00171+99999099271ADDGF108991999999999999999999
0029029070999991901012120004+64333+023450FM-12+000599999V0209991C000019999999N0000001N9-00221+99999099561ADDGF108991999999999999999999
0035029070999991901012206004+64333+023450FM-12+000599999V0202001N015919999999N0000001N9-00171+99999098721ADDGF108991999999999999999999MW1721
0035029070999991901012213004+64333+023450FM-12+000599999V0202301N020119999999N0000001N9-00061+99999097391ADDGF108991999999999999999999MW1721
0029029070999991901012220004+64333+023450FM-12+000599999V0202501N027819999999N0000001N9-00061+99999096661ADDGF104991999999999999999999
0029029070999991901012306004+64333+023450FM-12+000599999V0202501N015919999999N0000001N9+00001+99999096261ADDGF106991999999999999999999
0029029070999991901012313004+64333+023450FM-12+000599999V0202901N020119999999N0000001N9+00111+99999098671ADDGF106991999999999999999999
0029029070999991901012320004+64333+023450FM-12+000599999V0202901N020119999999N0000001N9+00001+99999099821ADDGF100991999999999999999999
0029029070999991901012406004+64333+023450FM-12+000599999V0202301N015919999999N0000001N9-00061+99999100201ADDGF104991999999999999999999
0029029070999991901012413004+64333+023450FM-12+000599999V0202501N015919999999N0000001N9+00171+99999100301ADDGF104991999999999999999999
0029029070999991901012420004+64333+023450FM-12+000599999V0202301N009819999999N0000001N9+00061+99999100181ADDGF100991999999999999999999
0029029070999991901012506004+64333+023450FM-12+000599999V0201801N013919999999N0000001N9+00061+99999099201ADDGF108991999999999999999999
0029029070999991901012513004+64333+023450FM-12+000599999V0202001N015919999999N0000001N9+00061+99999098861ADDGF108991999999999999999999
0029029070999991901012520004+64333+023450FM-12+000599999V0202001N015919999999N0000001N9+00001+99999098671ADDGF108991999999999999999999
0035029070999991901012606004+64333+023450FM-12+000599999V0202301N015919999999N0000001N9-00061+99999097261ADDGF108991999999999999999999MW1721
0035029070999991901012613004+64333+023450FM-12+000599999V0202301N011819999999N0000001N9-00111+99999097541ADDGF108991999999999999999999MW1721
0029029070999991901012620004+64333+023450FM-12+000599999V0202301N020119999999N0000001N9-00221+99999098001ADDGF100991999999999999999999
0029029070999991901012706004+64333+023450FM-12+000599999V0201601N004119999999N0000001N9-00561+99999098121ADDGF104991999999999999999999
0029029070999991901012713004+64333+023450FM-12+000599999V0201101N006219999999N0000001N9-00281+99999098071ADDGF104991999999999999999999
0029029070999991901012720004+64333+023450FM-12+000599999V0200701N006219999999N0000001N9-00281+99999097881ADDGF104991999999999999999999
0029029070999991901012806004+64333+023450FM-12+000599999V0200701N011819999999N0000001N9-00281+99999098001ADDGF108991999999999999999999
0029029070999991901012813004+64333+023450FM-12+000599999V0200701N011819999999N0000001N9-00281+99999097991ADDGF108991999999999999999999
0029029070999991901012820004+64333+023450FM-12+000599999V0200501N015919999999N0000001N9-00391+99999097761ADDGF108991999999999999999999
0035029070999991901012906004+64333+023450FM-12+000599999V0200501N009819999999N0000001N9-00281+99999097351ADDGF108991999999999999999999MW1721
0029029070999991901012913004+64333+023450FM-12+000599999V0200501N008219999999N0000001N9-00171+99999097341ADDGF108991999999999999999999
0029029070999991901012920004+64333+023450FM-12+000599999V0200501N009819999999N0000001N9-00111+99999097741ADDGF108991999999999999999999
0029029070999991901013006004+64333+023450FM-12+000599999V0200901N009819999999N0000001N9-00331+99999098231ADDGF108991999999999999999999
0029029070999991901013013004+64333+023450FM-12+000599999V0201401N006219999999N0000001N9-00331+99999098671ADDGF104991999999999999999999
0029029070999991901013020004+64333+023450FM-12+000599999V0200901N008219999999N0000001N9-00441+99999098951ADDGF105991999999999999999999
0029029070999991901013106004+64333+023450FM-12+000599999V0209991C000019999999N0000001N9-00781+99999099271ADDGF104991999999999999999999
0029029070999991901013113004+64333+023450FM-12+000599999V0209991C000019999999N0000001N9-00611+99999099281ADDGF108991999999999999999999
0029029070999991901013120004+64333+023450FM-12+000599999V0203601N004119999999N0000001N9-00671+99999099281ADDGF104991999999999999999999
0029029070999991901020106004+64333+023450FM-12+000599999V0202301N011819999999N0000001N9-00781+99999099671ADDGF103991999999999999999999
0029029070999991901020113004+64333+023450FM-12+000599999V0202301N013919999999N0000001N9-00671+99999099721ADDGF102991999999999999999999
0029029070999991901020120004+64333+023450FM-12+000599999V0202301N009819999999N0000001N9-00831+99999100021ADDGF100991999999999999999999
0029029070999991901020206004+64333+023450FM-12+000599999V0209991C000019999999N0000001N9-00561+99999099791ADDGF108991999999999999999999
0029029070999991901020213004+64333+023450FM-12+000599999V0202301N006219999999N0000001N9-00221+99999099721ADDGF108991999999999999999999
0029029070999991901020220004+64333+023450FM-12+000599999V0202301N020119999999N0000001N9-00331+99999099641ADDGF104991999999999999999999
0029029070999991901020306004+64333+023450FM-12+000599999V0202301N004119999999N0000001N9-00441+99999099661ADDGF104991999999999999999999
0035029070999991901020313004+64333+023450FM-12+000599999V0202301N004119999999N0000001N9-00331+99999099551ADDGF108991999999999999999999MW1701
0035029070999991901020320004+64333+023450FM-12+000599999V0201801N002119999999N0000001N9-00781+99999099501ADDGF106991999999999999999999MW1701
0035029070999991901020406004+64333+023450FM-12+000599999V0201801N004119999999N0000001N9-00611+99999099941ADDGF108991999999999999999999MW1701
0029029070999991901020413004+64333+023450FM-12+000599999V0202301N002119999999N0000001N9-00611+99999999999ADDGF108991999999999999999999
0029029070999991901020420004+64333+023450FM-12+000599999V0209991C000019999999N0000001N9-00831+99999100191ADDGF104991999999999999999999
0035029070999991901020506004+64333+023450FM-12+000599999V0202001N013919999999N0000001N9-00281+99999100191ADDGF108991999999999999999999MW1701
0029029070999991901020513004+64333+023450FM-12+000599999V0202001N011819999999N0000001N9-00331+99999100161ADDGF106991999999999999999999
0029029070999991901020520004+64333+023450FM-12+000599999V0202001N009819999999N0000001N9-00441+99999100181ADDGF108991999999999999999999
0029029070999991901020606004+64333+023450FM-12+000599999V0209991C000019999999N0000001N9-01611+99999100521ADDGF100991999999999999999999
0029029070999991901020613004+64333+023450FM-12+000599999V0202701N004119999999N0000001N9-01281+99999100081ADDGF100991999999999999999999
0029029070999991901020620004+64333+023450FM-12+000599999V0202301N011819999999N0000001N9-01221+99999099921ADDGF106991999999999999999999
0029029070999991901020706004+64333+023450FM-12+000599999V0203601N009819999999N0000001N9-01111+99999099901ADDGF102991999999999999999999
0029029070999991901020713004+64333+023450FM-12+000599999V0203601N006219999999N0000001N9-01221+99999099911ADDGF104991999999999999999999
0029029070999991901020720004+64333+023450FM-12+000599999V0209991C000019999999N0000001N9-01221+99999099901ADDGF108991999999999999999999
0029029070999991901020806004+64333+023450FM-12+000599999V0203201N009819999999N0000001N9-01221+99999100551ADDGF100991999999999999999999
0029029070999991901020813004+64333+023450FM-12+000599999V0203201N006219999999N0000001N9-01171+99999100711ADDGF100991999999999999999999
0029029070999991901020820004+64333+023450FM-12+000599999V0202501N008219999999N0000001N9-01171+99999100791ADDGF100991999999999999999999
0035029070999991901020906004+64333+023450FM-12+000599999V0202501N027819999999N0000001N9-01111+99999098841ADDGF108991999999999999999999MW1721
0035029070999991901020913004+64333+023450FM-12+000599999V0203201N027819999999N0000001N9-01061+99999099141ADDGF108991999999999999999999MW1721
0029029070999991901020920004+64333+023450FM-12+000599999V0203401N011819999999N0000001N9-01331+99999099541ADDGF100991999999999999999999
0029029070999991901021006004+64333+023450FM-12+000599999V0203201N009819999999N0000001N9-01061+99999099351ADDGF104991999999999999999999
0029029070999991901021013004+64333+023450FM-12+000599999V0203201N009819999999N0000001N9-01171+99999099321ADDGF104991999999999999999999
0029029070999991901021020004+64333+023450FM-12+000599999V0203201N013919999999N0000001N9-01831+99999099601ADDGF104991999999999999999999
0029029070999991901021106004+64333+023450FM-12+000599999V0209991C000019999999N0000001N9-01501+99999100111ADDGF106991999999999999999999
0029029070999991901021113004+64333+023450FM-12+000599999V0203201N008219999999N0000001N9-01281+99999100201ADDGF100991999999999999999999
0029029070999991901021120004+64333+023450FM-12+000599999V0202901N011819999999N0000001N9-01221+99999100241ADDGF100991999999999999999999
0029029070999991901021206004+64333+023450FM-12+000599999V0203601N008219999999N0000001N9-01281+99999100991ADDGF100991999999999999999999
0029029070999991901021213004+64333+023450FM-12+000599999V0203601N006219999999N0000001N9-01281+99999101321ADDGF100991999999999999999999
0029029070999991901021220004+64333+023450FM-12+000599999V0203601N004119999999N0000001N9-01281+99999101581ADDGF100991999999999999999999
0029029070999991901021306004+64333+023450FM-12+000599999V0203401N008219999999N0000001N9-01221+99999101741ADDGF100991999999999999999999
0029029070999991901021313004+64333+023450FM-12+000599999V0203201N006219999999N0000001N9-01171+99999101791ADDGF100991999999999999999999
0029029070999991901021320004+64333+023450FM-12+000599999V0200201N004119999999N0000001N9-01001+99999101861ADDGF108991999999999999999999
0029029070999991901021406004+64333+023450FM-12+000599999V0209991C000019999999N0000001N9-01831+99999102841ADDGF100991999999999999999999
0029029070999991901021413004+64333+023450FM-12+000599999V0209991C000019999999N0000001N9-01781+99999103001ADDGF100991999999999999999999
0029029070999991901021420004+64333+023450FM-12+000599999V0209991C000019999999N0000001N9-02111+99999103191ADDGF100991999999999999999999
0029029070999991901021506004+64333+023450FM-12+000599999V0201801N008219999999N0000001N9-02501+99999102791ADDGF100991999999999999999999
0029029070999991901021513004+64333+023450FM-12+000599999V0201801N009819999999N0000001N9-02001+99999101951ADDGF100991999999999999999999
0029029070999991901021520004+64333+023450FM-12+000599999V0202001N015919999999N0000001N9-01781+99999100941ADDGF108991999999999999999999
0029029070999991901021606004+64333+023450FM-12+000599999V0201601N009819999999N0000001N9-01061+99999100881ADDGF108991999999999999999999
0029029070999991901021613004+64333+023450FM-12+000599999V0200901N006219999999N0000001N9-01171+99999101321ADDGF108991999999999999999999
0035029070999991901021620004+64333+023450FM-12+000599999V0200501N011819999999N0000001N9-01331+99999101801ADDGF108991999999999999999999MW1721
0029029070999991901021706004+64333+023450FM-12+000599999V0203601N002119999999N0000001N9-01561+99999102421ADDGF100991999999999999999999
0029029070999991901021713004+64333+023450FM-12+000599999V0209991C000019999999N0000001N9-01221+99999102701ADDGF100991999999999999999999
0029029070999991901021720004+64333+023450FM-12+000599999V0209991C000019999999N0000001N9-01221+99999102761ADDGF100991999999999999999999
0029029070999991901021806004+64333+023450FM-12+000599999V0202301N011819999999N0000001N9-00941+99999102681ADDGF107991999999999999999999
0029029070999991901021813004+64333+023450FM-12+000599999V0202001N011819999999N0000001N9-00941+99999102901ADDGF108991999999999999999999
0029029070999991901021820004+64333+023450FM-12+000599999V0202001N011819999999N0000001N9-00891+99999103141ADDGF108991999999999999999999
0029029070999991901021906004+64333+023450FM-12+000599999V0201801N011819999999N0000001N9-01441+99999102941ADDGF104991999999999999999999
0035029070999991901021913004+64333+023450FM-12+000599999V0202001N011819999999N0000001N9-00781+99999102821ADDGF108991999999999999999999MW1721
0035029070999991901021920004+64333+023450FM-12+000599999V0202001N013919999999N0000001N9-00831+99999102601ADDGF108991999999999999999999MW1721
0029029070999991901022006004+64333+023450FM-12+000599999V0202001N009819999999N0000001N9-00891+99999102001ADDGF108991999999999999999999
0029029070999991901022013004+64333+023450FM-12+000599999V0202301N013919999999N0000001N9-00611+99999101721ADDGF108991999999999999999999
0029029070999991901022020004+64333+023450FM-12+000599999V0202001N011819999999N0000001N9-00721+99999101471ADDGF108991999999999999999999
0029029070999991901022106004+64333+023450FM-12+000599999V0202301N011819999999N0000001N9-00671+99999100881ADDGF108991999999999999999999
0035029070999991901022113004+64333+023450FM-12+000599999V0202001N011819999999N0000001N9-00441+99999100461ADDGF108991999999999999999999MW1721
0035029070999991901022120004+64333+023450FM-12+000599999V0203601N015919999999N0000001N9-00891+99999100311ADDGF108991999999999999999999MW1721
0035029070999991901022206004+64333+023450FM-12+000599999V0203601N015919999999N0000001N9-01561+99999100841ADDGF100991999999999999999999MW1701
0029029070999991901022213004+64333+023450FM-12+000599999V0203601N006219999999N0000001N9-01391+99999100791ADDGF105991999999999999999999
0029029070999991901022220004+64333+023450FM-12+000599999V0200501N004119999999N0000001N9-01721+99999100201ADDGF105991999999999999999999
0029029070999991901022306004+64333+023450FM-12+000599999V0200501N015919999999N0000001N9-01561+99999099221ADDGF103991999999999999999999
0029029070999991901022313004+64333+023450FM-12+000599999V0200501N015919999999N0000001N9-01441+99999099201ADDGF106991999999999999999999
0029029070999991901022320004+64333+023450FM-12+000599999V0200501N015919999999N0000001N9-01561+99999098871ADDGF106991999999999999999999
0035029070999991901022406004+64333+023450FM-12+000599999V0200501N020119999999N0000001N9-01721+99999098421ADDGF108991999999999999999999MW1721
0035029070999991901022413004+64333+023450FM-12+000599999V0200501N027819999999N0000001N9-01561+99999098431ADDGF108991999999999999999999MW1721
0029029070999991901022420004+64333+023450FM-12+000599999V0203601N020119999999N0000001N9-01671+99999098781ADDGF100991999999999999999999
0029029070999991901022506004+64333+023450FM-12+000599999V0202701N002119999999N0000001N9-01831+99999098421ADDGF100991999999999999999999
0029029070999991901022513004+64333+023450FM-12+000599999V0203201N002119999999N0000001N9-01221+99999098271ADDGF101991999999999999999999
0029029070999991901022520004+64333+023450FM-12+000599999V0202701N011819999999N0000001N9-01061+99999098431ADDGF101991999999999999999999
0029029070999991901022606004+64333+023450FM-12+000599999V0203201N008219999999N0000001N9-01501+99999099961ADDGF100991999999999999999999
0029029070999991901022613004+64333+023450FM-12+000599999V0202701N006219999999N0000001N9-01111+99999100361ADDGF102991999999999999999999
0029029070999991901022620004+64333+023450FM-12+000599999V0202301N008219999999N0000001N9-01111+99999100281ADDGF106991999999999999999999
0029029070999991901022706004+64333+023450FM-12+000599999V0201801N002119999999N0000001N9-01061+99999099711ADDGF108991999999999999999999
0029029070999991901022713004+64333+023450FM-12+000599999V0201401N002119999999N0000001N9-00721+99999099711ADDGF108991999999999999999999
0029029070999991901022720004+64333+023450FM-12+000599999V0201101N009819999999N0000001N9-00781+99999099741ADDGF108991999999999999999999
0029029070999991901022806004+64333+023450FM-12+000599999V0200201N011819999999N0000001N9-01781+99999100231ADDGF100991999999999999999999
0029029070999991901022813004+64333+023450FM-12+000599999V0200201N009819999999N0000001N9-01561+99999100621ADDGF100991999999999999999999
0029029070999991901022820004+64333+023450FM-12+000599999V0203601N006219999999N0000001N9-01671+99999100951ADDGF100991999999999999999999
0029029070999991901030106004+64333+023450FM-12+000599999V0203601N004119999999N0000001N9-01941+99999101201ADDGF100991999999999999999999
0029029070999991901030113004+64333+023450FM-12+000599999V0203601N002119999999N0000001N9-01501+99999101861ADDGF100991999999999999999999
0029029070999991901030120004+64333+023450FM-12+000599999V0209991C000019999999N0000001N9-01721+99999102001ADDGF100991999999999999999999
0029029070999991901030206004+64333+023450FM-12+000599999V0209991C000019999999N0000001N9-02001+99999102281ADDGF100991999999999999999999
0029029070999991901030213004+64333+023450FM-12+000599999V0209991C000019999999N0000001N9-01331+99999102281ADDGF100991999999999999999999
0029029070999991901030220004+64333+023450FM-12+000599999V0209991C000019999999N0000001N9-01671+99999102261ADDGF100991999999999999999999
0029029070999991901030306004+64333+023450FM-12+000599999V0200201N008219999999N0000001N9-01891+99999101991ADDGF108991999999999999999999
0029029070999991901030313004+64333+023450FM-12+000599999V0200201N009819999999N0000001N9-01061+99999102001ADDGF108991999999999999999999
0029029070999991901030320004+64333+023450FM-12+000599999V0200501N008219999999N0000001N9-00671+99999101751ADDGF104991999999999999999999
0029029070999991901030406004+64333+023450FM-12+000599999V0209991C000019999999N0000001N9-00561+99999101741ADDGF106991999999999999999999
0029029070999991901030413004+64333+023450FM-12+000599999V0209991C000019999999N0000001N9-00281+99999101781ADDGF108991999999999999999999
0029029070999991901030420004+64333+023450FM-12+000599999V0209991C000019999999N0000001N9-00221+99999101781ADDGF106991999999999999999999
0035029070999991901030506004+64333+023450FM-12+000599999V0201801N008219999999N0000001N9-00501+99999101361ADDGF108991999999999999999999MW1721
0035029070999991901030513004+64333+023450FM-12+000599999V0201801N008219999999N0000001N9-00281+99999101191ADDGF108991999999999999999999MW1721
0029029070999991901030520004+64333+023450FM-12+000599999V0201801N011819999999N0000001N9-00171+99999100901ADDGF108991999999999999999999
0029029070999991901030606004+64333+023450FM-12+000599999V0201801N011819999999N0000001N9-00061+99999100311ADDGF108991999999999999999999
0029029070999991901030613004+64333+023450FM-12+000599999V0201801N011819999999N0000001N9+00221+99999100121ADDGF108991999999999999999999
0029029070999991901030620004+64333+023450FM-12+000599999V0201601N013919999999N0000001N9+00111+99999100021ADDGF108991999999999999999999
0029029070999991901030706004+64333+023450FM-12+000599999V0201801N009819999999N0000001N9-00171+99999100521ADDGF108991999999999999999999
0029029070999991901030713004+64333+023450FM-12+000599999V0202001N009819999999N0000001N9+00001+99999100661ADDGF108991999999999999999999
0029029070999991901030720004+64333+023450FM-12+000599999V0201601N008219999999N0000001N9-00061+99999101061ADDGF108991999999999999999999
0029029070999991901030806004+64333+023450FM-12+000599999V0201601N008219999999N0000001N9-00111+99999101401ADDGF108991999999999999999999
0029029070999991901030813004+64333+023450FM-12+000599999V0202001N009819999999N0000001N9-00061+99999101501ADDGF108991999999999999999999
0029029070999991901030820004+64333+023450FM-12+000599999V0202301N011819999999N0000001N9-00061+99999101681ADDGF108991999999999999999999
0029029070999991901030906004+64333+023450FM-12+000599999V0202001N015919999999N0000001N9-00331+99999100881ADDGF108991999999999999999999
0029029070999991901030913004+64333+023450FM-12+000599999V0202001N020119999999N0000001N9-00111+99999100181ADDGF108991999999999999999999
0035029070999991901030920004+64333+023450FM-12+000599999V0202001N027819999999N0000001N9-00111+99999099521ADDGF108991999999999999999999MW1721
0029029070999991901031006004+64333+023450FM-12+000599999V0202501N013919999999N0000001N9-00061+99999099341ADDGF100991999999999999999999
0029029070999991901031013004+64333+023450FM-12+000599999V0202501N009819999999N0000001N9+00001+99999099351ADDGF100991999999999999999999
0029029070999991901031020004+64333+023450FM-12+000599999V0202701N009819999999N0000001N9-00281+99999099781ADDGF100991999999999999999999
0035029070999991901031106004+64333+023450FM-12+000599999V0202001N011819999999N0000001N9-00171+99999099471ADDGF108991999999999999999999MW1701
0029029070999991901031113004+64333+023450FM-12+000599999V0202001N015919999999N0000001N9+00221+99999098871ADDGF104991999999999999999999
0029029070999991901031120004+64333+023450FM-12+000599999V0202301N027819999999N0000001N9+00171+99999098501ADDGF101991999999999999999999
0029029070999991901031206004+64333+023450FM-12+000599999V0202701N011819999999N0000001N9-00331+99999099781ADDGF100991999999999999999999
0029029070999991901031213004+64333+023450FM-12+000599999V0202701N008219999999N0000001N9-00061+99999099991ADDGF100991999999999999999999
0029029070999991901031220004+64333+023450FM-12+000599999V0202701N004119999999N0000001N9-00441+99999100601ADDGF100991999999999999999999
0029029070999991901031306004+64333+023450FM-12+000599999V0202301N015919999999N0000001N9-00441+99999100741ADDGF108991999999999999999999
0029029070999991901031313004+64333+023450FM-12+000599999V0202501N020119999999N0000001N9+00171+99999100641ADDGF100991999999999999999999
0029029070999991901031320004+64333+023450FM-12+000599999V0203601N009819999999N0000001N9-00441+99999101321ADDGF100991999999999999999999
0029029070999991901031406004+64333+023450FM-12+000599999V0209991C000019999999N0000001N9-00671+99999102671ADDGF100991999999999999999999
0029029070999991901031413004+64333+023450FM-12+000599999V0209991C000019999999N0000001N9-00171+99999102951ADDGF100991999999999999999999
0029029070999991901031420004+64333+023450FM-12+000599999V0201801N006219999999N0000001N9-00111+99999102941ADDGF108991999999999999999999
0029029070999991901031506004+64333+023450FM-12+000599999V0202301N009819999999N0000001N9+00001+99999102791ADDGF108991999999999999999999
0029029070999991901031513004+64333+023450FM-12+000599999V0202001N011819999999N0000001N9+00061+99999102501ADDGF104991999999999999999999
0029029070999991901031520004+64333+023450FM-12+000599999V0202001N011819999999N0000001N9-00281+99999102201ADDGF100991999999999999999999
0029029070999991901031606004+64333+023450FM-12+000599999V0202001N013919999999N0000001N9-00501+99999101341ADDGF102991999999999999999999
0029029070999991901031613004+64333+023450FM-12+000599999V0202301N011819999999N0000001N9-00061+99999101061ADDGF102991999999999999999999
0029029070999991901031620004+64333+023450FM-12+000599999V0202001N011819999999N0000001N9-00111+99999100661ADDGF108991999999999999999999
0029029070999991901031706004+64333+023450FM-12+000599999V0209991C000019999999N0000001N9-00281+99999100341ADDGF100991999999999999999999
0029029070999991901031713004+64333+023450FM-12+000599999V0209991C000019999999N0000001N9-00441+99999100271ADDGF100991999999999999999999
0029029070999991901031720004+64333+023450FM-12+000599999V0209991C000019999999N0000001N9-01001+99999100321ADDGF100991999999999999999999
0029029070999991901031806004+64333+023450FM-12+000599999V0209991C000019999999N0000001N9-01001+99999100701ADDGF100991999999999999999999
0029029070999991901031813004+64333+023450FM-12+000599999V0209991C000019999999N0000001N9-00501+99999100901ADDGF100991999999999999999999
0029029070999991901031820004+64333+023450FM-12+000599999V0209991C000019999999N0000001N9-00501+99999100951ADDGF108991999999999999999999
0029029070999991901031906004+64333+023450FM-12+000599999V0202001N006219999999N0000001N9-01391+99999100721ADDGF100991999999999999999999
0029029070999991901031913004+64333+023450FM-12+000599999V0202001N011819999999N0000001N9-00441+99999100201ADDGF104991999999999999999999
0029029070999991901031920004+64333+023450FM-12+000599999V0202301N011819999999N0000001N9-00391+99999099791ADDGF108991999999999999999999
0029029070999991901032006004+64333+023450FM-12+000599999V0203401N013919999999N0000001N9-00561+99999100151ADDGF108991999999999999999999
0029029070999991901032013004+64333+023450FM-12+000599999V0203401N013919999999N0000001N9-00331+99999100981ADDGF104991999999999999999999
0029029070999991901032020004+64333+023450FM-12+000599999V0203401N013919999999N0000001N9-00671+99999101351ADDGF100991999999999999999999
0029029070999991901032106004+64333+023450FM-12+000599999V0203201N002119999999N0000001N9-01221+99999101641ADDGF100991999999999999999999
0029029070999991901032113004+64333+023450FM-12+000599999V0202301N006219999999N0000001N9-00611+99999101601ADDGF103991999999999999999999
0029029070999991901032120004+64333+023450FM-12+000599999V0202301N006219999999N0000001N9-00831+99999101341ADDGF100991999999999999999999
0029029070999991901032206004+64333+023450FM-12+000599999V0209991C000019999999N0000001N9-00781+99999101831ADDGF106991999999999999999999
0029029070999991901032213004+64333+023450FM-12+000599999V0202301N004119999999N0000001N9-00281+99999101601ADDGF101991999999999999999999
0029029070999991901032220004+64333+023450FM-12+000599999V0202301N006219999999N0000001N9-00281+99999101561ADDGF102991999999999999999999
0029029070999991901032306004+64333+023450FM-12+000599999V0202501N006219999999N0000001N9-00171+99999101351ADDGF104991999999999999999999
0029029070999991901032313004+64333+023450FM-12+000599999V0202501N011819999999N0000001N9+00171+99999101061ADDGF103991999999999999999999
0029029070999991901032320004+64333+023450FM-12+000599999V0202501N011819999999N0000001N9+00001+99999100801ADDGF108991999999999999999999
0029029070999991901032406004+64333+023450FM-12+000599999V0202301N009819999999N0000001N9-00111+99999099911ADDGF108991999999999999999999
0035029070999991901032413004+64333+023450FM-12+000599999V0203601N011819999999N0000001N9-00611+99999099951ADDGF108991999999999999999999MW1721
0035029070999991901032420004+64333+023450FM-12+000599999V0200201N008219999999N0000001N9-01171+99999100281ADDGF100991999999999999999999MW1001
0029029070999991901032506004+64333+023450FM-12+000599999V0203601N002119999999N0000001N9-01561+99999100311ADDGF100991999999999999999999
0029029070999991901032513004+64333+023450FM-12+000599999V0209991C000019999999N0000001N9-01111+99999100221ADDGF100991999999999999999999
0029029070999991901032520004+64333+023450FM-12+000599999V0209991C000019999999N0000001N9-01331+99999100021ADDGF100991999999999999999999
0029029070999991901032606004+64333+023450FM-12+000599999V0209991C000019999999N0000001N9-01781+99999099991ADDGF108991999999999999999999
0035029070999991901032613004+64333+023450FM-12+000599999V0203601N002119999999N0000001N9-00941+99999100141ADDGF108991999999999999999999MW1721
0029029070999991901032620004+64333+023450FM-12+000599999V0209991C000019999999N0000001N9-01171+99999100141ADDGF108991999999999999999999
0029029070999991901032706004+64333+023450FM-12+000599999V0203601N002119999999N0000001N9-02001+99999100421ADDGF101991999999999999999999
0029029070999991901032713004+64333+023450FM-12+000599999V0203201N002119999999N0000001N9-01001+99999100911ADDGF108991999999999999999999
0029029070999991901032720004+64333+023450FM-12+000599999V0209991C000019999999N0000001N9-01561+99999101281ADDGF100991999999999999999999
0029029070999991901032806004+64333+023450FM-12+000599999V0202001N008219999999N0000001N9-01831+99999101471ADDGF100991999999999999999999
0029029070999991901032813004+64333+023450FM-12+000599999V0202301N006219999999N0000001N9-00891+99999101431ADDGF100991999999999999999999
0029029070999991901032820004+64333+023450FM-12+000599999V0209991C000019999999N0000001N9-01721+99999101241ADDGF100991999999999999999999
0029029070999991901032906004+64333+023450FM-12+000599999V0202301N004119999999N0000001N9-01721+99999101161ADDGF100991999999999999999999
0029029070999991901032913004+64333+023450FM-12+000599999V0202301N006219999999N0000001N9-00721+99999101231ADDGF100991999999999999999999
0029029070999991901032920004+64333+023450FM-12+000599999V0209991C000019999999N0000001N9-00891+99999101391ADDGF101991999999999999999999
0029029070999991901033006004+64333+023450FM-12+000599999V0202301N008219999999N0000001N9-01171+99999101741ADDGF100991999999999999999999
0029029070999991901033013004+64333+023450FM-12+000599999V0209991C000019999999N0000001N9-00561+99999101991ADDGF100991999999999999999999
0029029070999991901033020004+64333+023450FM-12+000599999V0209991C000019999999N0000001N9-01111+99999101911ADDGF100991999999999999999999
0029029070999991901033106004+64333+023450FM-12+000599999V0209991C000019999999N0000001N9-01561+99999101871ADDGF100991999999999999999999
0029029070999991901033113004+64333+023450FM-12+000599999V0201401N004119999999N0000001N9-00391+99999101511ADDGF106991999999999999999999
0029029070999991901033120004+64333+023450FM-12+000599999V0201401N008219999999N0000001N9-00561+99999101321ADDGF105991999999999999999999
0035029070999991901040106004+64333+023450FM-12+000599999V0201601N009819999999N0000001N9-00331+99999100061ADDGF108991999999999999999999MW1721
0035029070999991901040113004+64333+023450FM-12+000599999V0201801N009819999999N0000001N9+00111+99999099721ADDGF108991999999999999999999MW1601
0035029070999991901040120004+64333+023450FM-12+000599999V0201601N009819999999N0000001N9+00061+99999099321ADDGF108991999999999999999999MW1721
0029029070999991901040206004+64333+023450FM-12+000599999V0202301N020119999999N0000001N9+00171+99999099521ADDGF102991999999999999999999
0029029070999991901040213004+64333+023450FM-12+000599999V0202301N011819999999N0000001N9+00171+99999100111ADDGF108991999999999999999999
0029029070999991901040220004+64333+023450FM-12+000599999V0202301N008219999999N0000001N9+00001+99999100591ADDGF108991999999999999999999
0029029070999991901040306004+64333+023450FM-12+000599999V0202701N004119999999N0000001N9-00391+99999101481ADDGF100991999999999999999999
0029029070999991901040313004+64333+023450FM-12+000599999V0202701N004119999999N0000001N9+00001+99999101431ADDGF102991999999999999999999
0029029070999991901040320004+64333+023450FM-12+000599999V0209991C000019999999N0000001N9-00061+99999101381ADDGF108991999999999999999999
0035029070999991901040406004+64333+023450FM-12+000599999V0202001N015919999999N0000001N9+00111+99999099361ADDGF108991999999999999999999MW1601
0029029070999991901040413004+64333+023450FM-12+000599999V0202001N013919999999N0000001N9+00281+99999098961ADDGF106991999999999999999999
0035029070999991901040420004+64333+023450FM-12+000599999V0201401N008219999999N0000001N9+00171+99999098321ADDGF108991999999999999999999MW1621
0029029070999991901040506004+64333+023450FM-12+000599999V0201801N008219999999N0000001N9+00061+99999097481ADDGF108991999999999999999999
0029029070999991901040513004+64333+023450FM-12+000599999V0201601N008219999999N0000001N9+00171+99999098121ADDGF106991999999999999999999
0029029070999991901040520004+64333+023450FM-12+000599999V0201601N006219999999N0000001N9+00061+99999098281ADDGF108991999999999999999999
0029029070999991901040606004+64333+023450FM-12+000599999V0202701N008219999999N0000001N9-00111+99999098791ADDGF101991999999999999999999
0029029070999991901040613004+64333+023450FM-12+000599999V0202301N009819999999N0000001N9+00001+99999099361ADDGF101991999999999999999999
0029029070999991901040620004+64333+023450FM-12+000599999V0202301N006219999999N0000001N9-00221+99999099511ADDGF106991999999999999999999
0029029070999991901040706004+64333+023450FM-12+000599999V0209991C000019999999N0000001N9-00441+99999099861ADDGF100991999999999999999999
0029029070999991901040713004+64333+023450FM-12+000599999V0209991C000019999999N0000001N9-00061+99999100341ADDGF100991999999999999999999
0029029070999991901040720004+64333+023450FM-12+000599999V0209991C000019999999N0000001N9-00391+99999100911ADDGF100991999999999999999999
0029029070999991901040806004+64333+023450FM-12+000599999V0209991C000019999999N0000001N9-00501+99999101161ADDGF100991999999999999999999
0029029070999991901040813004+64333+023450FM-12+000599999V0209991C000019999999N0000001N9+00221+99999101271ADDGF100991999999999999999999
0029029070999991901040820004+64333+023450FM-12+000599999V0201401N006219999999N0000001N9+00061+99999100911ADDGF106991999999999999999999
0035029070999991901040906004+64333+023450FM-12+000599999V0201801N008219999999N0000001N9+00001+99999100191ADDGF108991999999999999999999MW1721
0029029070999991901040913004+64333+023450FM-12+000599999V0201801N008219999999N0000001N9+00221+99999100041ADDGF108991999999999999999999
0029029070999991901040920004+64333+023450FM-12+000599999V0201801N009819999999N0000001N9+00171+99999099841ADDGF108991999999999999999999
0029029070999991901041006004+64333+023450FM-12+000599999V0209991C000019999999N0000001N9+00111+99999098991ADDGF108991999999999999999999
0029029070999991901041013004+64333+023450FM-12+000599999V0209991C000019999999N0000001N9+00331+99999099261ADDGF108991999999999999999999
0029029070999991901041020004+64333+023450FM-12+000599999V0202701N006219999999N0000001N9+00221+99999099311ADDGF108991999999999999999999
0029029070999991901041106004+64333+023450FM-12+000599999V0202301N009819999999N0000001N9+00001+99999099561ADDGF104991999999999999999999
0029029070999991901041113004+64333+023450FM-12+000599999V0202701N004119999999N0000001N9+00281+99999099671ADDGF108991999999999999999999
0029029070999991901041120004+64333+023450FM-12+000599999V0209991C000019999999N0000001N9-00061+99999099841ADDGF108991999999999999999999
0029029070999991901041206004+64333+023450FM-12+000599999V0203401N006219999999N0000001N9-00061+99999100281ADDGF108991999999999999999999
0029029070999991901041213004+64333+023450FM-12+000599999V0203601N009819999999N0000001N9-00111+99999100711ADDGF108991999999999999999999
0029029070999991901041220004+64333+023450FM-12+000599999V0203601N011819999999N0000001N9-00171+99999101001ADDGF108991999999999999999999
0029029070999991901041306004+64333+023450FM-12+000599999V0200201N008219999999N0000001N9-00111+99999101321ADDGF108991999999999999999999
0029029070999991901041313004+64333+023450FM-12+000599999V0200201N008219999999N0000001N9+00001+99999101591ADDGF102991999999999999999999
0029029070999991901041320004+64333+023450FM-12+000599999V0200201N006219999999N0000001N9-00281+99999101631ADDGF101991999999999999999999
0029029070999991901041406004+64333+023450FM-12+000599999V0200501N008219999999N0000001N9-00281+99999101521ADDGF100991999999999999999999
0029029070999991901041413004+64333+023450FM-12+000599999V0200501N011819999999N0000001N9-00281+99999101311ADDGF100991999999999999999999
0029029070999991901041420004+64333+023450FM-12+000599999V0200501N011819999999N0000001N9-00281+99999101121ADDGF100991999999999999999999
0029029070999991901041506004+64333+023450FM-12+000599999V0200701N015919999999N0000001N9-00561+99999100661ADDGF101991999999999999999999
0029029070999991901041513004+64333+023450FM-12+000599999V0200501N015919999999N0000001N9-00501+99999100471ADDGF101991999999999999999999
0029029070999991901041520004+64333+023450FM-12+000599999V0200501N011819999999N0000001N9-00501+99999100281ADDGF101991999999999999999999
0029029070999991901041606004+64333+023450FM-12+000599999V0203601N009819999999N0000001N9-00611+99999100521ADDGF104991999999999999999999
0029029070999991901041613004+64333+023450FM-12+000599999V0203601N004119999999N0000001N9-00441+99999100721ADDGF104991999999999999999999
0029029070999991901041620004+64333+023450FM-12+000599999V0203601N004119999999N0000001N9-00611+99999100961ADDGF104991999999999999999999
0029029070999991901041706004+64333+023450FM-12+000599999V0209991C000019999999N0000001N9-00391+99999101231ADDGF104991999999999999999999
0029029070999991901041713004+64333+023450FM-12+000599999V0200201N008219999999N0000001N9+00001+99999101071ADDGF108991999999999999999999
0035029070999991901041720004+64333+023450FM-12+000599999V0200501N009819999999N0000001N9+00001+99999100511ADDGF108991999999999999999999MW1721
0029029070999991901041806004+64333+023450FM-12+000599999V0201801N009819999999N0000001N9+00061+99999100401ADDGF108991999999999999999999
0029029070999991901041813004+64333+023450FM-12+000599999V0202301N011819999999N0000001N9+00061+99999100701ADDGF108991999999999999999999
0029029070999991901041820004+64333+023450FM-12+000599999V0202301N006219999999N0000001N9-00061+99999100911ADDGF108991999999999999999999
0029029070999991901041906004+64333+023450FM-12+000599999V0209991C000019999999N0000001N9-00061+99999101041ADDGF104991999999999999999999
0029029070999991901041913004+64333+023450FM-12+000599999V0209991C000019999999N0000001N9+00001+99999101501ADDGF104991999999999999999999
0029029070999991901041920004+64333+023450FM-12+000599999V0209991C000019999999N0000001N9-00281+99999101831ADDGF105991999999999999999999
0029029070999991901042006004+64333+023450FM-12+000599999V0209991C000019999999N0000001N9-00111+99999102041ADDGF108991999999999999999999
0029029070999991901042013004+64333+023450FM-12+000599999V0200201N006219999999N0000001N9-00061+99999102261ADDGF104991999999999999999999
0029029070999991901042020004+64333+023450FM-12+000599999V0200201N004119999999N0000001N9-00171+99999102381ADDGF100991999999999999999999
0029029070999991901042106004+64333+023450FM-12+000599999V0203201N008219999999N0000001N9-00111+99999102551ADDGF104991999999999999999999
0029029070999991901042113004+64333+023450FM-12+000599999V0203201N006219999999N0000001N9-00061+99999102471ADDGF108991999999999999999999
0029029070999991901042120004+64333+023450FM-12+000599999V0209991C000019999999N0000001N9-00171+99999102401ADDGF108991999999999999999999
0029029070999991901042206004+64333+023450FM-12+000599999V0202501N008219999999N0000001N9+00001+99999102471ADDGF108991999999999999999999
0029029070999991901042213004+64333+023450FM-12+000599999V0202301N008219999999N0000001N9+00171+99999102431ADDGF108991999999999999999999
0029029070999991901042220004+64333+023450FM-12+000599999V0202301N008219999999N0000001N9+00001+99999102381ADDGF108991999999999999999999
0029029070999991901042306004+64333+023450FM-12+000599999V0202501N004119999999N0000001N9+00171+99999102351ADDGF103991999999999999999999
0029029070999991901042313004+64333+023450FM-12+000599999V0203601N008219999999N0000001N9+00111+99999102791ADDGF100991999999999999999999
0029029070999991901042320004+64333+023450FM-12+000599999V0209991C000019999999N0000001N9-00111+99999102671ADDGF103991999999999999999999
0029029070999991901042406004+64333+023450FM-12+000599999V0209991C000019999999N0000001N9-00171+99999103681ADDGF100991999999999999999999
0029029070999991901042413004+64333+023450FM-12+000599999V0209991C000019999999N0000001N9+00171+99999103631ADDGF100991999999999999999999
0029029070999991901042420004+64333+023450FM-12+000599999V0209991C000019999999N0000001N9-00111+99999103601ADDGF100991999999999999999999
0029029070999991901042506004+64333+023450FM-12+000599999V0202301N004119999999N0000001N9+00111+99999103301ADDGF104991999999999999999999
0029029070999991901042513004+64333+023450FM-12+000599999V0209991C000019999999N0000001N9+00281+99999103281ADDGF103991999999999999999999
0029029070999991901042520004+64333+023450FM-12+000599999V0209991C000019999999N0000001N9-00111+99999103281ADDGF102991999999999999999999
0029029070999991901042606004+64333+023450FM-12+000599999V0209991C000019999999N0000001N9+00001+99999103551ADDGF100991999999999999999999
0029029070999991901042613004+64333+023450FM-12+000599999V0203601N004119999999N0000001N9+00221+99999103551ADDGF100991999999999999999999
0029029070999991901042620004+64333+023450FM-12+000599999V0209991C000019999999N0000001N9+00221+99999103551ADDGF100991999999999999999999
0029029070999991901042706004+64333+023450FM-12+000599999V0209991C000019999999N0000001N9+00061+99999103281ADDGF100991999999999999999999
0029029070999991901042713004+64333+023450FM-12+000599999V0202301N006219999999N0000001N9+00281+99999103201ADDGF100991999999999999999999
0029029070999991901042720004+64333+023450FM-12+000599999V0202301N008219999999N0000001N9+00001+99999103121ADDGF100991999999999999999999
0029029070999991901042806004+64333+023450FM-12+000599999V0202301N009819999999N0000001N9+00111+99999102941ADDGF100991999999999999999999
0029029070999991901042813004+64333+023450FM-12+000599999V0202301N011819999999N0000001N9+00331+99999102661ADDGF100991999999999999999999
0029029070999991901042820004+64333+023450FM-12+000599999V0202301N008219999999N0000001N9+00001+99999102591ADDGF100991999999999999999999
0029029070999991901042906004+64333+023450FM-12+000599999V0203601N002119999999N0000001N9+00111+99999102721ADDGF100991999999999999999999
0029029070999991901042913004+64333+023450FM-12+000599999V0203601N004119999999N0000001N9+00221+99999102741ADDGF100991999999999999999999
0029029070999991901042920004+64333+023450FM-12+000599999V0200201N004119999999N0000001N9+00171+99999102801ADDGF100991999999999999999999
0029029070999991901043006004+64333+023450FM-12+000599999V0209991C000019999999N0000001N9+00111+99999102821ADDGF100991999999999999999999
0029029070999991901043013004+64333+023450FM-12+000599999V0209991C000019999999N0000001N9+00281+99999102831ADDGF100991999999999999999999
0029029070999991901043020004+64333+023450FM-12+000599999V0209991C000019999999N0000001N9+00171+99999102841ADDGF100991999999999999999999
0029029070999991901050106004+64333+023450FM-12+000599999V0202301N004119999999N0000001N9+00111+99999102841ADDGF100991999999999999999999
0029029070999991901050113004+64333+023450FM-12+000599999V0209991C000019999999N0000001N9+00441+99999102841ADDGF100991999999999999999999
0029029070999991901050120004+64333+023450FM-12+000599999V0209991C000019999999N0000001N9+00171+99999102711ADDGF100991999999999999999999
0029029070999991901050206004+64333+023450FM-12+000599999V0202301N006219999999N0000001N9+00061+99999102431ADDGF102991999999999999999999
0029029070999991901050213004+64333+023450FM-12+000599999V0209991C000019999999N0000001N9+00501+99999102201ADDGF100991999999999999999999
0029029070999991901050220004+64333+023450FM-12+000599999V0209991C000019999999N0000001N9+00061+99999102121ADDGF100991999999999999999999
0029029070999991901050306004+64333+023450FM-12+000599999V0203201N008219999999N0000001N9+00221+99999101711ADDGF106991999999999999999999
0029029070999991901050313004+64333+023450FM-12+000599999V0202901N006219999999N0000001N9+00391+99999101561ADDGF106991999999999999999999
0029029070999991901050320004+64333+023450FM-12+000599999V0203601N011819999999N0000001N9+00171+99999101321ADDGF107991999999999999999999
0029029070999991901050406004+64333+023450FM-12+000599999V0203601N015919999999N0000001N9-00111+99999101551ADDGF100991999999999999999999
0029029070999991901050413004+64333+023450FM-12+000599999V0203601N015919999999N0000001N9+00001+99999101521ADDGF100991999999999999999999
0029029070999991901050420004+64333+023450FM-12+000599999V0203601N011819999999N0000001N9-00221+99999101471ADDGF104991999999999999999999
0029029070999991901050506004+64333+023450FM-12+000599999V0203601N015919999999N0000001N9-00281+99999100911ADDGF104991999999999999999999
0029029070999991901050513004+64333+023450FM-12+000599999V0203601N015919999999N0000001N9+00001+99999100781ADDGF104991999999999999999999
0029029070999991901050520004+64333+023450FM-12+000599999V0203601N015919999999N0000001N9-00171+99999100631ADDGF108991999999999999999999
0029029070999991901050606004+64333+023450FM-12+000599999V0203601N013919999999N0000001N9-00221+99999100341ADDGF108991999999999999999999
0029029070999991901050613004+64333+023450FM-12+000599999V0203601N013919999999N0000001N9-00111+99999100311ADDGF108991999999999999999999
0029029070999991901050620004+64333+023450FM-12+000599999V0203601N013919999999N0000001N9-00111+99999100261ADDGF108991999999999999999999
0029029070999991901050706004+64333+023450FM-12+000599999V0203601N011819999999N0000001N9-00221+99999100381ADDGF100991999999999999999999
0029029070999991901050713004+64333+023450FM-12+000599999V0203601N013919999999N0000001N9+00001+99999100901ADDGF100991999999999999999999
0029029070999991901050720004+64333+023450FM-12+000599999V0209991C000019999999N0000001N9-00061+99999101481ADDGF101991999999999999999999
0029029070999991901050806004+64333+023450FM-12+000599999V0209991C000019999999N0000001N9-00061+99999102471ADDGF100991999999999999999999
0029029070999991901050813004+64333+023450FM-12+000599999V0209991C000019999999N0000001N9+00331+99999102981ADDGF100991999999999999999999
0029029070999991901050820004+64333+023450FM-12+000599999V0209991C000019999999N0000001N9-00171+99999103181ADDGF101991999999999999999999
0029029070999991901050906004+64333+023450FM-12+000599999V0201401N004119999999N0000001N9+00171+99999103431ADDGF100991999999999999999999
0029029070999991901050913004+64333+023450FM-12+000599999V0209991C000019999999N0000001N9+00441+99999103421ADDGF100991999999999999999999
0029029070999991901050920004+64333+023450FM-12+000599999V0209991C000019999999N0000001N9+00061+99999103421ADDGF102991999999999999999999
0029029070999991901051006004+64333+023450FM-12+000599999V0200901N006219999999N0000001N9+00171+99999103591ADDGF100991999999999999999999
0029029070999991901051013004+64333+023450FM-12+000599999V0209991C000019999999N0000001N9+00331+99999103421ADDGF100991999999999999999999
0029029070999991901051020004+64333+023450FM-12+000599999V0209991C000019999999N0000001N9+00331+99999103311ADDGF100991999999999999999999
0029029070999991901051106004+64333+023450FM-12+000599999V0209991C000019999999N0000001N9+00331+99999103401ADDGF100991999999999999999999
0029029070999991901051113004+64333+023450FM-12+000599999V0209991C000019999999N0000001N9+00721+99999103441ADDGF103991999999999999999999
0029029070999991901051120004+64333+023450FM-12+000599999V0209991C000019999999N0000001N9+00331+99999103541ADDGF104991999999999999999999
0029029070999991901051206004+64333+023450FM-12+000599999V0209991C000019999999N0000001N9+00721+99999103711ADDGF104991999999999999999999
0029029070999991901051213004+64333+023450FM-12+000599999V0209991C000019999999N0000001N9+00721+99999103551ADDGF104991999999999999999999
0029029070999991901051220004+64333+023450FM-12+000599999V0209991C000019999999N0000001N9+00561+99999103521ADDGF103991999999999999999999
0029029070999991901051306004+64333+023450FM-12+000599999V0209991C000019999999N0000001N9+00721+99999103391ADDGF100991999999999999999999
0029029070999991901051313004+64333+023450FM-12+000599999V0209991C000019999999N0000001N9+00891+99999103241ADDGF100991999999999999999999
0029029070999991901051320004+64333+023450FM-12+000599999V0209991C000019999999N0000001N9+00831+99999103191ADDGF100991999999999999999999
0029029070999991901051406004+64333+023450FM-12+000599999V0209991C000019999999N0000001N9+00671+99999103141ADDGF100991999999999999999999
0029029070999991901051413004+64333+023450FM-12+000599999V0209991C000019999999N0000001N9+00501+99999102861ADDGF108991999999999999999999
0029029070999991901051420004+64333+023450FM-12+000599999V0209991C000019999999N0000001N9+00671+99999102481ADDGF102991999999999999999999
0029029070999991901051506004+64333+023450FM-12+000599999V0209991C000019999999N0000001N9+00671+99999102071ADDGF100991999999999999999999
0029029070999991901051513004+64333+023450FM-12+000599999V0209991C000019999999N0000001N9+00831+99999101741ADDGF103991999999999999999999
0029029070999991901051520004+64333+023450FM-12+000599999V0203601N011819999999N0000001N9+00391+99999101671ADDGF106991999999999999999999
0029029070999991901051606004+64333+023450FM-12+000599999V0203601N009819999999N0000001N9+00221+99999101351ADDGF102991999999999999999999
0029029070999991901051613004+64333+023450FM-12+000599999V0203401N008219999999N0000001N9+00331+99999100801ADDGF104991999999999999999999
0029029070999991901051620004+64333+023450FM-12+000599999V0209991C000019999999N0000001N9+00171+99999100071ADDGF106991999999999999999999
0029029070999991901051706004+64333+023450FM-12+000599999V0200201N008219999999N0000001N9+00111+99999099741ADDGF108991999999999999999999
0035029070999991901051713004+64333+023450FM-12+000599999V0200201N011819999999N0000001N9+00171+99999099781ADDGF108991999999999999999999MW1621
0035029070999991901051720004+64333+023450FM-12+000599999V0200201N013919999999N0000001N9+00171+99999099781ADDGF108991999999999999999999MW1621
0029029070999991901051806004+64333+023450FM-12+000599999V0209991C000019999999N0000001N9+00171+99999100321ADDGF101991999999999999999999
0029029070999991901051813004+64333+023450FM-12+000599999V0200201N002119999999N0000001N9+00281+99999100201ADDGF100991999999999999999999
0029029070999991901051820004+64333+023450FM-12+000599999V0200201N004119999999N0000001N9+00061+99999100041ADDGF104991999999999999999999
0029029070999991901051906004+64333+023450FM-12+000599999V0202501N009819999999N0000001N9+00171+99999100201ADDGF106991999999999999999999
0029029070999991901051913004+64333+023450FM-12+000599999V0202001N009819999999N0000001N9+00331+99999100741ADDGF104991999999999999999999
0029029070999991901051920004+64333+023450FM-12+000599999V0202501N006219999999N0000001N9+00171+99999101001ADDGF106991999999999999999999
0035029070999991901052006004+64333+023450FM-12+000599999V0203601N009819999999N0000001N9+00111+99999101961ADDGF104991999999999999999999MW1721
0029029070999991901052013004+64333+023450FM-12+000599999V0202701N004119999999N0000001N9+00501+99999102391ADDGF100991999999999999999999
0029029070999991901052020004+64333+023450FM-12+000599999V0202701N006219999999N0000001N9+00171+99999102821ADDGF102991999999999999999999
0029029070999991901052106004+64333+023450FM-12+000599999V0202301N002119999999N0000001N9+00221+99999103061ADDGF105991999999999999999999
0029029070999991901052113004+64333+023450FM-12+000599999V0202301N004119999999N0000001N9+00441+99999103061ADDGF104991999999999999999999
0029029070999991901052120004+64333+023450FM-12+000599999V0202301N004119999999N0000001N9+00391+99999103061ADDGF103991999999999999999999
0029029070999991901052206004+64333+023450FM-12+000599999V0202301N009819999999N0000001N9+00331+99999103141ADDGF106991999999999999999999
0029029070999991901052213004+64333+023450FM-12+000599999V0202301N011819999999N0000001N9+00501+99999103061ADDGF106991999999999999999999
0029029070999991901052220004+64333+023450FM-12+000599999V0202301N009819999999N0000001N9+00331+99999102911ADDGF104991999999999999999999
0029029070999991901052306004+64333+023450FM-12+000599999V0202701N004119999999N0000001N9+00331+99999103021ADDGF100991999999999999999999
0029029070999991901052313004+64333+023450FM-12+000599999V0202301N004119999999N0000001N9+00501+99999102751ADDGF104991999999999999999999
0029029070999991901052320004+64333+023450FM-12+000599999V0202001N002119999999N0000001N9+00331+99999102581ADDGF106991999999999999999999
0029029070999991901052406004+64333+023450FM-12+000599999V0202701N004119999999N0000001N9+00331+99999102741ADDGF100991999999999999999999
0029029070999991901052413004+64333+023450FM-12+000599999V0202301N006219999999N0000001N9+00501+99999102601ADDGF100991999999999999999999
0029029070999991901052420004+64333+023450FM-12+000599999V0202301N009819999999N0000001N9+00331+99999102071ADDGF100991999999999999999999
0029029070999991901052506004+64333+023450FM-12+000599999V0203401N006219999999N0000001N9+00331+99999101901ADDGF100991999999999999999999
0029029070999991901052513004+64333+023450FM-12+000599999V0209991C000019999999N0000001N9+00561+99999101831ADDGF100991999999999999999999
0029029070999991901052520004+64333+023450FM-12+000599999V0201801N004119999999N0000001N9+00331+99999101761ADDGF100991999999999999999999
0029029070999991901052606004+64333+023450FM-12+000599999V0201801N002119999999N0000001N9+00501+99999101321ADDGF102991999999999999999999
0029029070999991901052613004+64333+023450FM-12+000599999V0202301N006219999999N0000001N9+00611+99999101101ADDGF105991999999999999999999
0029029070999991901052620004+64333+023450FM-12+000599999V0202301N006219999999N0000001N9+00391+99999100991ADDGF106991999999999999999999
0029029070999991901052706004+64333+023450FM-12+000599999V0200501N006219999999N0000001N9+00331+99999101321ADDGF102991999999999999999999
0029029070999991901052713004+64333+023450FM-12+000599999V0200501N002119999999N0000001N9+00391+99999101321ADDGF102991999999999999999999
0029029070999991901052720004+64333+023450FM-12+000599999V0209991C000019999999N0000001N9+00281+99999101241ADDGF108991999999999999999999
0029029070999991901052806004+64333+023450FM-12+000599999V0202701N002119999999N0000001N9+00331+99999100911ADDGF103991999999999999999999
0029029070999991901052813004+64333+023450FM-12+000599999V0203201N004119999999N0000001N9+00441+99999100701ADDGF104991999999999999999999
0029029070999991901052820004+64333+023450FM-12+000599999V0202701N002119999999N0000001N9+00281+99999100071ADDGF104991999999999999999999
0029029070999991901052906004+64333+023450FM-12+000599999V0203601N015919999999N0000001N9+00221+99999100881ADDGF100991999999999999999999
0029029070999991901052913004+64333+023450FM-12+000599999V0203601N013919999999N0000001N9+00331+99999101101ADDGF100991999999999999999999
0029029070999991901052920004+64333+023450FM-12+000599999V0203601N009819999999N0000001N9+00281+99999101231ADDGF101991999999999999999999
0029029070999991901053006004+64333+023450FM-12+000599999V0209991C000019999999N0000001N9+00441+99999101471ADDGF104991999999999999999999
0029029070999991901053013004+64333+023450FM-12+000599999V0202501N004119999999N0000001N9+00501+99999101281ADDGF103991999999999999999999
0029029070999991901053020004+64333+023450FM-12+000599999V0202501N002119999999N0000001N9+00331+99999101271ADDGF102991999999999999999999
0000029070999991901053106004+64333+023450FM-12+000599999V02099999999999999999N0000001N9+00441+99999101431
0000029070999991901053113004+64333+023450FM-12+000599999V02099999999999999999N0000001N9+00671+99999101461
0000029070999991901053120004+64333+023450FM-12+000599999V02099999999999999999N0000001N9+00441+99999101301
0035029070999991901060106004+64333+023450FM-12+000599999V0201801N009819999999N0000001N9+00561+99999100801ADDGF108991999999999999999999MW1601
0029029070999991901060113004+64333+023450FM-12+000599999V0202301N011819999999N0000001N9+00501+99999100621ADDGF104991999999999999999999
0029029070999991901060120004+64333+023450FM-12+000599999V0202301N011819999999N0000001N9+00441+99999100681ADDGF103991999999999999999999
0029029070999991901060206004+64333+023450FM-12+000599999V0209991C000019999999N0000001N9+00611+99999100921ADDGF103991999999999999999999
0029029070999991901060213004+64333+023450FM-12+000599999V0209991C000019999999N0000001N9+00941+99999100781ADDGF104991999999999999999999
0029029070999991901060220004+64333+023450FM-12+000599999V0201601N006219999999N0000001N9+00671+99999100721ADDGF105991999999999999999999
0035029070999991901060306004+64333+023450FM-12+000599999V0202301N009819999999N0000001N9+00441+99999100641ADDGF104991999999999999999999MW1621
0029029070999991901060313004+64333+023450FM-12+000599999V0202301N008219999999N0000001N9+00611+99999100781ADDGF105991999999999999999999
0029029070999991901060320004+64333+023450FM-12+000599999V0209991C000019999999N0000001N9+00441+99999101001ADDGF107991999999999999999999
0035029070999991901060406004+64333+023450FM-12+000599999V0202901N008219999999N0000001N9+00501+99999101351ADDGF108991999999999999999999MW1621
0029029070999991901060413004+64333+023450FM-12+000599999V0209991C000019999999N0000001N9+00671+99999101711ADDGF100991999999999999999999
0029029070999991901060420004+64333+023450FM-12+000599999V0202701N002119999999N0000001N9+00611+99999102041ADDGF100991999999999999999999
0029029070999991901060506004+64333+023450FM-12+000599999V0200901N001019999999N0000001N9+00941+99999102281ADDGF100991999999999999999999
0029029070999991901060513004+64333+023450FM-12+000599999V0209991C000019999999N0000001N9+01281+99999102141ADDGF100991999999999999999999
0029029070999991901060520004+64333+023450FM-12+000599999V0201401N002119999999N0000001N9+01221+99999102111ADDGF104991999999999999999999
0029029070999991901060606004+64333+023450FM-12+000599999V0201801N004119999999N0000001N9+00941+99999101981ADDGF105991999999999999999999
0029029070999991901060613004+64333+023450FM-12+000599999V0209991C000019999999N0000001N9+00891+99999101821ADDGF103991999999999999999999
0029029070999991901060620004+64333+023450FM-12+000599999V0209991C000019999999N0000001N9+00781+99999101761ADDGF105991999999999999999999
0029029070999991901060706004+64333+023450FM-12+000599999V0209991C000019999999N0000001N9+00721+99999102101ADDGF100991999999999999999999
0029029070999991901060713004+64333+023450FM-12+000599999V0209991C000019999999N0000001N9+01001+99999102221ADDGF100991999999999999999999
0029029070999991901060720004+64333+023450FM-12+000599999V0209991C000019999999N0000001N9+00721+99999102311ADDGF100991999999999999999999
0029029070999991901060806004+64333+023450FM-12+000599999V0209991C000019999999N0000001N9+00721+99999102351ADDGF100991999999999999999999
0029029070999991901060813004+64333+023450FM-12+000599999V0209991C000019999999N0000001N9+01001+99999102341ADDGF100991999999999999999999
0029029070999991901060820004+64333+023450FM-12+000599999V0209991C000019999999N0000001N9+00891+99999102341ADDGF100991999999999999999999
0029029070999991901060906004+64333+023450FM-12+000599999V0203601N002119999999N0000001N9+01001+99999102081ADDGF100991999999999999999999
0029029070999991901060913004+64333+023450FM-12+000599999V0200501N006219999999N0000001N9+01171+99999101921ADDGF100991999999999999999999
0029029070999991901060920004+64333+023450FM-12+000599999V0200901N004119999999N0000001N9+01281+99999101541ADDGF100991999999999999999999
0029029070999991901061006004+64333+023450FM-12+000599999V0201601N006219999999N0000001N9+01561+99999101261ADDGF100991999999999999999999
0029029070999991901061013004+64333+023450FM-12+000599999V0202701N006219999999N0000001N9+01171+99999101141ADDGF108991999999999999999999
0029029070999991901061020004+64333+023450FM-12+000599999V0209991C000019999999N0000001N9+01171+99999101061ADDGF108991999999999999999999
0029029070999991901061106004+64333+023450FM-12+000599999V0209991C000019999999N0000001N9+00941+99999100881ADDGF106991999999999999999999
0029029070999991901061113004+64333+023450FM-12+000599999V0203601N008219999999N0000001N9+00941+99999100461ADDGF104991999999999999999999
0029029070999991901061120004+64333+023450FM-12+000599999V0201801N002119999999N0000001N9+01061+99999099781ADDGF108991999999999999999999
0029029070999991901061206004+64333+023450FM-12+000599999V0202301N009819999999N0000001N9+01001+99999099141ADDGF103991999999999999999999
0029029070999991901061213004+64333+023450FM-12+000599999V0202001N013919999999N0000001N9+00891+99999099031ADDGF108991999999999999999999
0029029070999991901061220004+64333+023450FM-12+000599999V0201401N011819999999N0000001N9+00721+99999099031ADDGF108991999999999999999999
0035029070999991901061306004+64333+023450FM-12+000599999V0209991C000019999999N0000001N9+00721+99999099311ADDGF108991999999999999999999MW1621
0035029070999991901061313004+64333+023450FM-12+000599999V0209991C000019999999N0000001N9+00941+99999099671ADDGF103991999999999999999999MW1621
0029029070999991901061320004+64333+023450FM-12+000599999V0202701N009819999999N0000001N9+00501+99999099761ADDGF106991999999999999999999
0029029070999991901061406004+64333+023450FM-12+000599999V0202701N009819999999N0000001N9+00671+99999099311ADDGF100991999999999999999999
0029029070999991901061413004+64333+023450FM-12+000599999V0203201N008219999999N0000001N9+00781+99999099201ADDGF100991999999999999999999
0029029070999991901061420004+64333+023450FM-12+000599999V0202701N009819999999N0000001N9+00561+99999099631ADDGF105991999999999999999999
0029029070999991901061506004+64333+023450FM-12+000599999V0202701N008219999999N0000001N9+00611+99999100231ADDGF100991999999999999999999
0029029070999991901061513004+64333+023450FM-12+000599999V0202301N011819999999N0000001N9+00781+99999100361ADDGF104991999999999999999999
0029029070999991901061520004+64333+023450FM-12+000599999V0209991C000019999999N0000001N9+00671+99999100671ADDGF100991999999999999999999
0029029070999991901061606004+64333+023450FM-12+000599999V0209991C000019999999N0000001N9+00671+99999100941ADDGF100991999999999999999999
0029029070999991901061613004+64333+023450FM-12+000599999V0200201N002119999999N0000001N9+00781+99999101071ADDGF100991999999999999999999
0029029070999991901061620004+64333+023450FM-12+000599999V0209991C000019999999N0000001N9+00671+99999101141ADDGF100991999999999999999999
0029029070999991901061706004+64333+023450FM-12+000599999V0209991C000019999999N0000001N9+00781+99999101471ADDGF100991999999999999999999
0029029070999991901061713004+64333+023450FM-12+000599999V0209991C000019999999N0000001N9+01111+99999101671ADDGF100991999999999999999999
0029029070999991901061720004+64333+023450FM-12+000599999V0209991C000019999999N0000001N9+00831+99999101941ADDGF100991999999999999999999
0029029070999991901061806004+64333+023450FM-12+000599999V0200201N006219999999N0000001N9+01001+99999102271ADDGF100991999999999999999999
0029029070999991901061813004+64333+023450FM-12+000599999V0200201N011819999999N0000001N9+01111+99999102221ADDGF100991999999999999999999
0029029070999991901061820004+64333+023450FM-12+000599999V0200201N006219999999N0000001N9+01001+99999102101ADDGF100991999999999999999999
0029029070999991901061906004+64333+023450FM-12+000599999V0200201N004119999999N0000001N9+01001+99999101991ADDGF108991999999999999999999
0035029070999991901061913004+64333+023450FM-12+000599999V0200201N009819999999N0000001N9+01111+99999101881ADDGF108991999999999999999999MW1621
0035029070999991901061920004+64333+023450FM-12+000599999V0200201N002119999999N0000001N9+00941+99999101821ADDGF108991999999999999999999MW1621
0029029070999991901062006004+64333+023450FM-12+000599999V0202301N004119999999N0000001N9+01001+99999101981ADDGF108991999999999999999999
0029029070999991901062013004+64333+023450FM-12+000599999V0209991C000019999999N0000001N9+01221+99999102081ADDGF108991999999999999999999
0029029070999991901062020004+64333+023450FM-12+000599999V0202001N008219999999N0000001N9+01001+99999102111ADDGF106991999999999999999999
0029029070999991901062106004+64333+023450FM-12+000599999V0202301N011819999999N0000001N9+00831+99999102121ADDGF104991999999999999999999
0029029070999991901062113004+64333+023450FM-12+000599999V0202301N009819999999N0000001N9+01061+99999102311ADDGF100991999999999999999999
0029029070999991901062120004+64333+023450FM-12+000599999V0202001N006219999999N0000001N9+00831+99999102231ADDGF100991999999999999999999
0029029070999991901062206004+64333+023450FM-12+000599999V0209991C000019999999N0000001N9+01001+99999102301ADDGF100991999999999999999999
0029029070999991901062213004+64333+023450FM-12+000599999V0209991C000019999999N0000001N9+01331+99999102201ADDGF102991999999999999999999
0029029070999991901062220004+64333+023450FM-12+000599999V0209991C000019999999N0000001N9+01171+99999102201ADDGF105991999999999999999999
0029029070999991901062306004+64333+023450FM-12+000599999V0209991C000019999999N0000001N9+01281+99999102321ADDGF100991999999999999999999
0029029070999991901062313004+64333+023450FM-12+000599999V0209991C000019999999N0000001N9+01611+99999102271ADDGF100991999999999999999999
0029029070999991901062320004+64333+023450FM-12+000599999V0209991C000019999999N0000001N9+01561+99999102231ADDGF100991999999999999999999
0029029070999991901062406004+64333+023450FM-12+000599999V0209991C000019999999N0000001N9+01721+99999102381ADDGF100991999999999999999999
0029029070999991901062413004+64333+023450FM-12+000599999V0209991C000019999999N0000001N9+02001+99999102281ADDGF100991999999999999999999
0029029070999991901062420004+64333+023450FM-12+000599999V0209991C000019999999N0000001N9+01831+99999102221ADDGF100991999999999999999999
0029029070999991901062506004+64333+023450FM-12+000599999V0201601N006219999999N0000001N9+01721+99999102151ADDGF100991999999999999999999
0029029070999991901062513004+64333+023450FM-12+000599999V0200201N006219999999N0000001N9+01941+99999101781ADDGF100991999999999999999999
0029029070999991901062520004+64333+023450FM-12+000599999V0201801N004119999999N0000001N9+01441+99999101501ADDGF105991999999999999999999
0029029070999991901062606004+64333+023450FM-12+000599999V0202501N004119999999N0000001N9+01501+99999101591ADDGF102991999999999999999999
0029029070999991901062613004+64333+023450FM-12+000599999V0203201N002119999999N0000001N9+01781+99999101551ADDGF104991999999999999999999
0029029070999991901062620004+64333+023450FM-12+000599999V0203601N006219999999N0000001N9+01441+99999101361ADDGF105991999999999999999999
0035029070999991901062706004+64333+023450FM-12+000599999V0209991C000019999999N0000001N9+01331+99999101341ADDGF108991999999999999999999MW1621
0029029070999991901062713004+64333+023450FM-12+000599999V0202501N013919999999N0000001N9+01281+99999101471ADDGF104991999999999999999999
0029029070999991901062720004+64333+023450FM-12+000599999V0202301N008219999999N0000001N9+01111+99999101321ADDGF101991999999999999999999
0029029070999991901062806004+64333+023450FM-12+000599999V0202501N002119999999N0000001N9+01111+99999100881ADDGF104991999999999999999999
0029029070999991901062813004+64333+023450FM-12+000599999V0202701N002119999999N0000001N9+01281+99999100881ADDGF105991999999999999999999
0035029070999991901062820004+64333+023450FM-12+000599999V0202901N011819999999N0000001N9+01001+99999100921ADDGF108991999999999999999999MW1621
0029029070999991901062906004+64333+023450FM-12+000599999V0203401N013919999999N0000001N9+01001+99999101791ADDGF101991999999999999999999
0029029070999991901062913004+64333+023450FM-12+000599999V0203601N009819999999N0000001N9+01111+99999102101ADDGF101991999999999999999999
0029029070999991901062920004+64333+023450FM-12+000599999V0202701N006219999999N0000001N9+00941+99999102201ADDGF102991999999999999999999
0029029070999991901063006004+64333+023450FM-12+000599999V0201801N008219999999N0000001N9+01061+99999102321ADDGF103991999999999999999999
0029029070999991901063013004+64333+023450FM-12+000599999V0202301N006219999999N0000001N9+01281+99999102031ADDGF108991999999999999999999
0029029070999991901063020004+64333+023450FM-12+000599999V0202301N002119999999N0000001N9+01171+99999101911ADDGF103991999999999999999999
0029029070999991901070106004+64333+023450FM-12+000599999V0203201N006219999999N0000001N9+01111+99999101641ADDGF102991999999999999999999
0029029070999991901070113004+64333+023450FM-12+000599999V0203201N004119999999N0000001N9+01281+99999101591ADDGF100991999999999999999999
0029029070999991901070120004+64333+023450FM-12+000599999V0202501N006219999999N0000001N9+01111+99999101581ADDGF101991999999999999999999
0029029070999991901070206004+64333+023450FM-12+000599999V0203601N009819999999N0000001N9+01111+99999101241ADDGF103991999999999999999999
0029029070999991901070213004+64333+023450FM-12+000599999V0203601N011819999999N0000001N9+01111+99999101241ADDGF101991999999999999999999
0029029070999991901070220004+64333+023450FM-12+000599999V0203601N009819999999N0000001N9+01171+99999101271ADDGF100991999999999999999999
0029029070999991901070306004+64333+023450FM-12+000599999V0200201N009819999999N0000001N9+01111+99999101471ADDGF100991999999999999999999
0029029070999991901070313004+64333+023450FM-12+000599999V0200201N013919999999N0000001N9+01171+99999101391ADDGF100991999999999999999999
0029029070999991901070320004+64333+023450FM-12+000599999V0200201N011819999999N0000001N9+01221+99999101151ADDGF102991999999999999999999
0029029070999991901070406004+64333+023450FM-12+000599999V0200201N013919999999N0000001N9+01111+99999100991ADDGF103991999999999999999999
0029029070999991901070413004+64333+023450FM-12+000599999V0200201N015919999999N0000001N9+01221+99999100841ADDGF101991999999999999999999
0029029070999991901070420004+64333+023450FM-12+000599999V0200201N009819999999N0000001N9+01331+99999100711ADDGF100991999999999999999999
0029029070999991901070506004+64333+023450FM-12+000599999V0200201N009819999999N0000001N9+01221+99999100901ADDGF100991999999999999999999
0029029070999991901070513004+64333+023450FM-12+000599999V0203601N009819999999N0000001N9+01281+99999100951ADDGF100991999999999999999999
0029029070999991901070520004+64333+023450FM-12+000599999V0203201N006219999999N0000001N9+01281+99999100961ADDGF102991999999999999999999
0029029070999991901070606004+64333+023450FM-12+000599999V0209991C000019999999N0000001N9+01501+99999100901ADDGF103991999999999999999999
0029029070999991901070613004+64333+023450FM-12+000599999V0203201N002119999999N0000001N9+01611+99999100901ADDGF100991999999999999999999
0029029070999991901070620004+64333+023450FM-12+000599999V0200201N006219999999N0000001N9+01331+99999101111ADDGF101991999999999999999999
0029029070999991901070706004+64333+023450FM-12+000599999V0209991C000019999999N0000001N9+01391+99999101221ADDGF100991999999999999999999
0029029070999991901070713004+64333+023450FM-12+000599999V0209991C000019999999N0000001N9+01721+99999101201ADDGF105991999999999999999999
0029029070999991901070720004+64333+023450FM-12+000599999V0209991C000019999999N0000001N9+01561+99999101141ADDGF102991999999999999999999
0029029070999991901070806004+64333+023450FM-12+000599999V0203201N011819999999N0000001N9+01331+99999100911ADDGF108991999999999999999999
0029029070999991901070813004+64333+023450FM-12+000599999V0203401N013919999999N0000001N9+01441+99999100831ADDGF106991999999999999999999
0029029070999991901070820004+64333+023450FM-12+000599999V0203601N009819999999N0000001N9+01391+99999100671ADDGF106991999999999999999999
0035029070999991901070906004+64333+023450FM-12+000599999V0203601N013919999999N0000001N9+01331+99999101681ADDGF100991999999999999999999MW1621
0029029070999991901070913004+64333+023450FM-12+000599999V0203201N008219999999N0000001N9+01671+99999101751ADDGF100991999999999999999999
0029029070999991901070920004+64333+023450FM-12+000599999V0202701N006219999999N0000001N9+01501+99999101761ADDGF100991999999999999999999
0029029070999991901071006004+64333+023450FM-12+000599999V0201801N008219999999N0000001N9+01331+99999101761ADDGF100991999999999999999999
0029029070999991901071013004+64333+023450FM-12+000599999V0209991C000019999999N0000001N9+01781+99999101831ADDGF103991999999999999999999
0029029070999991901071020004+64333+023450FM-12+000599999V0209991C000019999999N0000001N9+01611+99999101721ADDGF102991999999999999999999
0029029070999991901071106004+64333+023450FM-12+000599999V0201801N006219999999N0000001N9+01721+99999101351ADDGF104991999999999999999999
0029029070999991901071113004+64333+023450FM-12+000599999V0203601N009819999999N0000001N9+01671+99999101311ADDGF102991999999999999999999
0029029070999991901071120004+64333+023450FM-12+000599999V0203401N002119999999N0000001N9+01611+99999101441ADDGF104991999999999999999999
0029029070999991901071206004+64333+023450FM-12+000599999V0203601N009819999999N0000001N9+01501+99999101701ADDGF101991999999999999999999
0029029070999991901071213004+64333+023450FM-12+000599999V0203601N011819999999N0000001N9+01441+99999101801ADDGF101991999999999999999999
0029029070999991901071220004+64333+023450FM-12+000599999V0200201N009819999999N0000001N9+01501+99999101661ADDGF102991999999999999999999
0029029070999991901071306004+64333+023450FM-12+000599999V0209991C000019999999N0000001N9+01561+99999101511ADDGF102991999999999999999999
0029029070999991901071313004+64333+023450FM-12+000599999V0200201N004119999999N0000001N9+01781+99999101341ADDGF102991999999999999999999
0029029070999991901071320004+64333+023450FM-12+000599999V0200501N006219999999N0000001N9+01611+99999101081ADDGF108991999999999999999999
0029029070999991901071406004+64333+023450FM-12+000599999V0203601N006219999999N0000001N9+01781+99999101181ADDGF108991999999999999999999
0035029070999991901071413004+64333+023450FM-12+000599999V0209991C000019999999N0000001N9+01671+99999101181ADDGF106991999999999999999999MW1601
0029029070999991901071420004+64333+023450FM-12+000599999V0202301N004119999999N0000001N9+01721+99999101161ADDGF101991999999999999999999
0029029070999991901071506004+64333+023450FM-12+000599999V0202901N009819999999N0000001N9+01561+99999101421ADDGF100991999999999999999999
0029029070999991901071513004+64333+023450FM-12+000599999V0202701N008219999999N0000001N9+01611+99999101631ADDGF102991999999999999999999
0029029070999991901071520004+64333+023450FM-12+000599999V0202501N006219999999N0000001N9+01501+99999101661ADDGF101991999999999999999999
0029029070999991901071606004+64333+023450FM-12+000599999V0201601N004119999999N0000001N9+01671+99999101921ADDGF103991999999999999999999
0035029070999991901071613004+64333+023450FM-12+000599999V0200201N006219999999N0000001N9+01611+99999102071ADDGF108991999999999999999999MW1601
0029029070999991901071620004+64333+023450FM-12+000599999V0200701N011819999999N0000001N9+01561+99999101991ADDGF108991999999999999999999
0029029070999991901071706004+64333+023450FM-12+000599999V0201101N006219999999N0000001N9+01611+99999101841ADDGF105991999999999999999999
0029029070999991901071713004+64333+023450FM-12+000599999V0209991C000019999999N0000001N9+01891+99999101841ADDGF104991999999999999999999
0029029070999991901071720004+64333+023450FM-12+000599999V0202001N011819999999N0000001N9+01441+99999101991ADDGF106991999999999999999999
0029029070999991901071806004+64333+023450FM-12+000599999V0202301N013919999999N0000001N9+01561+99999102181ADDGF108991999999999999999999
0029029070999991901071813004+64333+023450FM-12+000599999V0202301N011819999999N0000001N9+01781+99999102301ADDGF105991999999999999999999
0029029070999991901071820004+64333+023450FM-12+000599999V0202701N009819999999N0000001N9+01671+99999102391ADDGF104991999999999999999999
0029029070999991901071906004+64333+023450FM-12+000599999V0202301N006219999999N0000001N9+01721+99999102711ADDGF100991999999999999999999
0029029070999991901071913004+64333+023450FM-12+000599999V0209991C000019999999N0000001N9+02001+99999102781ADDGF101991999999999999999999
0029029070999991901071920004+64333+023450FM-12+000599999V0209991C000019999999N0000001N9+01941+99999102781ADDGF100991999999999999999999
0029029070999991901072006004+64333+023450FM-12+000599999V0202701N006219999999N0000001N9+01831+99999102841ADDGF101991999999999999999999
0029029070999991901072013004+64333+023450FM-12+000599999V0202301N004119999999N0000001N9+02111+99999102711ADDGF100991999999999999999999
0029029070999991901072020004+64333+023450FM-12+000599999V0201801N002119999999N0000001N9+01781+99999102541ADDGF102991999999999999999999
0029029070999991901072106004+64333+023450FM-12+000599999V0202701N006219999999N0000001N9+01781+99999102511ADDGF100991999999999999999999
0029029070999991901072113004+64333+023450FM-12+000599999V0203601N006219999999N0000001N9+02001+99999102501ADDGF101991999999999999999999
0029029070999991901072120004+64333+023450FM-12+000599999V0209991C000019999999N0000001N9+01831+99999102511ADDGF101991999999999999999999
0029029070999991901072206004+64333+023450FM-12+000599999V0200701N006219999999N0000001N9+01781+99999102461ADDGF100991999999999999999999
0029029070999991901072213004+64333+023450FM-12+000599999V0203601N006219999999N0000001N9+02061+99999102151ADDGF100991999999999999999999
0029029070999991901072220004+64333+023450FM-12+000599999V0209991C000019999999N0000001N9+01941+99999101841ADDGF100991999999999999999999
0029029070999991901072306004+64333+023450FM-12+000599999V0209991C000019999999N0000001N9+01831+99999101761ADDGF100991999999999999999999
0035029070999991901072313004+64333+023450FM-12+000599999V0209991C000019999999N0000001N9+02391+99999101521ADDGF100991999999999999999999MW1051
0029029070999991901072320004+64333+023450FM-12+000599999V0201601N006219999999N0000001N9+02221+99999101461ADDGF103991999999999999999999
0029029070999991901072406004+64333+023450FM-12+000599999V0202301N011819999999N0000001N9+02001+99999101661ADDGF100991999999999999999999
0035029070999991901072413004+64333+023450FM-12+000599999V0202701N008219999999N0000001N9+02221+99999101721ADDGF100991999999999999999999MW1051
0029029070999991901072420004+64333+023450FM-12+000599999V0201801N004119999999N0000001N9+01941+99999101781ADDGF103991999999999999999999
0029029070999991901072506004+64333+023450FM-12+000599999V0202301N004119999999N0000001N9+02001+99999101991ADDGF102991999999999999999999
0029029070999991901072513004+64333+023450FM-12+000599999V0202301N008219999999N0000001N9+02221+99999101921ADDGF101991999999999999999999
0029029070999991901072520004+64333+023450FM-12+000599999V0202301N009819999999N0000001N9+02061+99999101921ADDGF101991999999999999999999
0029029070999991901072606004+64333+023450FM-12+000599999V0202301N009819999999N0000001N9+02001+99999101941ADDGF100991999999999999999999
0029029070999991901072613004+64333+023450FM-12+000599999V0202301N009819999999N0000001N9+02111+99999101841ADDGF100991999999999999999999
0029029070999991901072620004+64333+023450FM-12+000599999V0202301N009819999999N0000001N9+01941+99999101781ADDGF101991999999999999999999
0029029070999991901072706004+64333+023450FM-12+000599999V0202301N011819999999N0000001N9+01941+99999101661ADDGF100991999999999999999999
0029029070999991901072713004+64333+023450FM-12+000599999V0202301N009819999999N0000001N9+02061+99999101481ADDGF100991999999999999999999
0029029070999991901072720004+64333+023450FM-12+000599999V0202501N004119999999N0000001N9+01941+99999101461ADDGF101991999999999999999999
0029029070999991901072806004+64333+023450FM-12+000599999V0201801N006219999999N0000001N9+01941+99999101621ADDGF100991999999999999999999
0029029070999991901072813004+64333+023450FM-12+000599999V0202301N004119999999N0000001N9+02281+99999101661ADDGF100991999999999999999999
0029029070999991901072820004+64333+023450FM-12+000599999V0209991C000019999999N0000001N9+02061+99999101661ADDGF102991999999999999999999
0029029070999991901072906004+64333+023450FM-12+000599999V0202001N006219999999N0000001N9+02001+99999101601ADDGF100991999999999999999999
0029029070999991901072913004+64333+023450FM-12+000599999V0202301N011819999999N0000001N9+02171+99999101521ADDGF100991999999999999999999
0029029070999991901072920004+64333+023450FM-12+000599999V0202301N011819999999N0000001N9+02061+99999101391ADDGF104991999999999999999999
0029029070999991901073006004+64333+023450FM-12+000599999V0202301N008219999999N0000001N9+01891+99999101041ADDGF108991999999999999999999
0029029070999991901073013004+64333+023450FM-12+000599999V0202901N008219999999N0000001N9+01941+99999101121ADDGF106991999999999999999999
0029029070999991901073020004+64333+023450FM-12+000599999V0202501N009819999999N0000001N9+01941+99999101001ADDGF102991999999999999999999
0035029070999991901073106004+64333+023450FM-12+000599999V0203201N011819999999N0000001N9+01721+99999100781ADDGF108991999999999999999999MW1641
0029029070999991901073113004+64333+023450FM-12+000599999V0202901N013919999999N0000001N9+01941+99999100821ADDGF101991999999999999999999
0029029070999991901073120004+64333+023450FM-12+000599999V0203401N013919999999N0000001N9+01721+99999101421ADDGF105991999999999999999999
0029029070999991901080106004+64333+023450FM-12+000599999V0201401N006219999999N0000001N9+01501+99999101701ADDGF104991999999999999999999
0029029070999991901080113004+64333+023450FM-12+000599999V0202301N008219999999N0000001N9+01831+99999101591ADDGF105991999999999999999999
0029029070999991901080120004+64333+023450FM-12+000599999V0202301N009819999999N0000001N9+01721+99999101401ADDGF105991999999999999999999
0029029070999991901080206004+64333+023450FM-12+000599999V0202501N008219999999N0000001N9+01831+99999101261ADDGF108991999999999999999999
0029029070999991901080213004+64333+023450FM-12+000599999V0209991C000019999999N0000001N9+02111+99999101031ADDGF105991999999999999999999
0029029070999991901080220004+64333+023450FM-12+000599999V0200901N009819999999N0000001N9+01891+99999100501ADDGF108991999999999999999999
0029029070999991901080306004+64333+023450FM-12+000599999V0202501N013919999999N0000001N9+01331+99999100301ADDGF100991999999999999999999
0029029070999991901080313004+64333+023450FM-12+000599999V0202301N013919999999N0000001N9+01671+99999100591ADDGF100991999999999999999999
0029029070999991901080320004+64333+023450FM-12+000599999V0202701N008219999999N0000001N9+01561+99999101111ADDGF100991999999999999999999
0029029070999991901080406004+64333+023450FM-12+000599999V0202301N008219999999N0000001N9+01501+99999101321ADDGF102991999999999999999999
0029029070999991901080413004+64333+023450FM-12+000599999V0202301N006219999999N0000001N9+01891+99999101191ADDGF101991999999999999999999
0029029070999991901080420004+64333+023450FM-12+000599999V0201801N009819999999N0000001N9+01721+99999100831ADDGF104991999999999999999999
0029029070999991901080506004+64333+023450FM-12+000599999V0202001N015919999999N0000001N9+01611+99999099991ADDGF108991999999999999999999
0029029070999991901080513004+64333+023450FM-12+000599999V0202301N015919999999N0000001N9+01561+99999099641ADDGF108991999999999999999999
0035029070999991901080520004+64333+023450FM-12+000599999V0202301N015919999999N0000001N9+01561+99999099861ADDGF100991999999999999999999MW1621
0029029070999991901080606004+64333+023450FM-12+000599999V0201801N009819999999N0000001N9+01441+99999099871ADDGF106991999999999999999999
0029029070999991901080613004+64333+023450FM-12+000599999V0202301N013919999999N0000001N9+01671+99999099961ADDGF102991999999999999999999
0029029070999991901080620004+64333+023450FM-12+000599999V0202301N013919999999N0000001N9+01561+99999100191ADDGF106991999999999999999999
0029029070999991901080706004+64333+023450FM-12+000599999V0203601N008219999999N0000001N9+01441+99999100871ADDGF103991999999999999999999
0029029070999991901080713004+64333+023450FM-12+000599999V0200501N006219999999N0000001N9+01561+99999100981ADDGF103991999999999999999999
0029029070999991901080720004+64333+023450FM-12+000599999V0200501N011819999999N0000001N9+01501+99999100861ADDGF106991999999999999999999
0029029070999991901080806004+64333+023450FM-12+000599999V0200501N006219999999N0000001N9+01561+99999100911ADDGF106991999999999999999999
0029029070999991901080813004+64333+023450FM-12+000599999V0200201N008219999999N0000001N9+01721+99999100841ADDGF104991999999999999999999
0029029070999991901080820004+64333+023450FM-12+000599999V0200501N006219999999N0000001N9+01671+99999100821ADDGF106991999999999999999999
0035029070999991901080906004+64333+023450FM-12+000599999V0200701N006219999999N0000001N9+01441+99999100961ADDGF108991999999999999999999MW1621
0035029070999991901080913004+64333+023450FM-12+000599999V0200501N009819999999N0000001N9+01561+99999101181ADDGF108991999999999999999999MW1621
0029029070999991901080920004+64333+023450FM-12+000599999V0209991C000019999999N0000001N9+01441+99999101561ADDGF108991999999999999999999
0029029070999991901081006004+64333+023450FM-12+000599999V0202001N006219999999N0000001N9+01501+99999101961ADDGF101991999999999999999999
0029029070999991901081013004+64333+023450FM-12+000599999V0202301N004119999999N0000001N9+02001+99999102031ADDGF101991999999999999999999
0029029070999991901081020004+64333+023450FM-12+000599999V0201801N004119999999N0000001N9+01781+99999102041ADDGF101991999999999999999999
0029029070999991901081106004+64333+023450FM-12+000599999V0201801N013919999999N0000001N9+01831+99999101861ADDGF100991999999999999999999
0029029070999991901081113004+64333+023450FM-12+000599999V0202001N013919999999N0000001N9+01941+99999101821ADDGF104991999999999999999999
0029029070999991901081120004+64333+023450FM-12+000599999V0202701N002119999999N0000001N9+01671+99999102061ADDGF108991999999999999999999
0029029070999991901081206004+64333+023450FM-12+000599999V0200501N013919999999N0000001N9+01501+99999102431ADDGF107991999999999999999999
0029029070999991901081213004+64333+023450FM-12+000599999V0200501N013919999999N0000001N9+01611+99999102511ADDGF102991999999999999999999
0029029070999991901081220004+64333+023450FM-12+000599999V0200501N009819999999N0000001N9+01501+99999102401ADDGF101991999999999999999999
0029029070999991901081306004+64333+023450FM-12+000599999V0200501N004119999999N0000001N9+01561+99999102791ADDGF100991999999999999999999
0029029070999991901081313004+64333+023450FM-12+000599999V0200501N011819999999N0000001N9+01721+99999102741ADDGF100991999999999999999999
0029029070999991901081320004+64333+023450FM-12+000599999V0200501N006219999999N0000001N9+01781+99999102721ADDGF100991999999999999999999
0029029070999991901081406004+64333+023450FM-12+000599999V0209991C000019999999N0000001N9+01561+99999102791ADDGF100991999999999999999999
0029029070999991901081413004+64333+023450FM-12+000599999V0209991C000019999999N0000001N9+01671+99999102641ADDGF100991999999999999999999
0029029070999991901081420004+64333+023450FM-12+000599999V0209991C000019999999N0000001N9+01671+99999102641ADDGF100991999999999999999999
0029029070999991901081506004+64333+023450FM-12+000599999V0200901N002119999999N0000001N9+01781+99999102551ADDGF100991999999999999999999
0029029070999991901081513004+64333+023450FM-12+000599999V0200201N004119999999N0000001N9+02001+99999102351ADDGF100991999999999999999999
0029029070999991901081520004+64333+023450FM-12+000599999V0200201N002119999999N0000001N9+01781+99999102161ADDGF100991999999999999999999
0029029070999991901081606004+64333+023450FM-12+000599999V0201401N006219999999N0000001N9+01831+99999101981ADDGF103991999999999999999999
0035029070999991901081613004+64333+023450FM-12+000599999V0200501N004119999999N0000001N9+02171+99999101791ADDGF104991999999999999999999MW1051
0035029070999991901081620004+64333+023450FM-12+000599999V0200901N008219999999N0000001N9+01941+99999101721ADDGF108991999999999999999999MW1171
0029029070999991901081706004+64333+023450FM-12+000599999V0201601N004119999999N0000001N9+01831+99999101751ADDGF104991999999999999999999
0035029070999991901081713004+64333+023450FM-12+000599999V0209991C000019999999N0000001N9+02171+99999101751ADDGF100991999999999999999999MW1051
0029029070999991901081720004+64333+023450FM-12+000599999V0200901N004119999999N0000001N9+01831+99999101721ADDGF104991999999999999999999
0029029070999991901081806004+64333+023450FM-12+000599999V0202001N009819999999N0000001N9+01831+99999101671ADDGF102991999999999999999999
0035029070999991901081813004+64333+023450FM-12+000599999V0202001N009819999999N0000001N9+01831+99999101671ADDGF108991999999999999999999MW1621
0029029070999991901081820004+64333+023450FM-12+000599999V0202501N008219999999N0000001N9+01781+99999101581ADDGF100991999999999999999999
0029029070999991901081906004+64333+023450FM-12+000599999V0203201N004119999999N0000001N9+01721+99999101431ADDGF102991999999999999999999
0029029070999991901081913004+64333+023450FM-12+000599999V0209991C000019999999N0000001N9+01891+99999101161ADDGF103991999999999999999999
0029029070999991901081920004+64333+023450FM-12+000599999V0202301N011819999999N0000001N9+01611+99999100841ADDGF106991999999999999999999
0029029070999991901082006004+64333+023450FM-12+000599999V0202501N013919999999N0000001N9+01441+99999101001ADDGF102991999999999999999999
0029029070999991901082013004+64333+023450FM-12+000599999V0202701N006219999999N0000001N9+01561+99999101311ADDGF102991999999999999999999
0029029070999991901082020004+64333+023450FM-12+000599999V0203601N002119999999N0000001N9+01391+99999101461ADDGF106991999999999999999999
0029029070999991901082106004+64333+023450FM-12+000599999V0200201N011819999999N0000001N9+01391+99999101701ADDGF106991999999999999999999
0029029070999991901082113004+64333+023450FM-12+000599999V0200201N009819999999N0000001N9+01391+99999101871ADDGF100991999999999999999999
0029029070999991901082120004+64333+023450FM-12+000599999V0209991C000019999999N0000001N9+01331+99999101831ADDGF105991999999999999999999
0029029070999991901082206004+64333+023450FM-12+000599999V0202901N011819999999N0000001N9+01501+99999101461ADDGF108991999999999999999999
0029029070999991901082213004+64333+023450FM-12+000599999V0202501N011819999999N0000001N9+01611+99999101261ADDGF108991999999999999999999
0029029070999991901082220004+64333+023450FM-12+000599999V0202701N013919999999N0000001N9+01611+99999100901ADDGF104991999999999999999999
0029029070999991901082306004+64333+023450FM-12+000599999V0202701N006219999999N0000001N9+01611+99999100661ADDGF105991999999999999999999
0029029070999991901082313004+64333+023450FM-12+000599999V0203201N006219999999N0000001N9+01721+99999100621ADDGF102991999999999999999999
0029029070999991901082320004+64333+023450FM-12+000599999V0203201N004119999999N0000001N9+01611+99999100551ADDGF108991999999999999999999
0029029070999991901082406004+64333+023450FM-12+000599999V0203401N011819999999N0000001N9+01441+99999100511ADDGF106991999999999999999999
0029029070999991901082413004+64333+023450FM-12+000599999V0203601N011819999999N0000001N9+01501+99999100671ADDGF100991999999999999999999
0029029070999991901082420004+64333+023450FM-12+000599999V0203401N008219999999N0000001N9+01501+99999100711ADDGF101991999999999999999999
0029029070999991901082506004+64333+023450FM-12+000599999V0203601N006219999999N0000001N9+01391+99999100551ADDGF100991999999999999999999
0029029070999991901082513004+64333+023450FM-12+000599999V0203601N006219999999N0000001N9+01441+99999100711ADDGF100991999999999999999999
0029029070999991901082520004+64333+023450FM-12+000599999V0202701N002119999999N0000001N9+01281+99999100681ADDGF102991999999999999999999
0029029070999991901082606004+64333+023450FM-12+000599999V0201601N008219999999N0000001N9+01221+99999100591ADDGF103991999999999999999999
0029029070999991901082613004+64333+023450FM-12+000599999V0201801N006219999999N0000001N9+01501+99999100621ADDGF104991999999999999999999
0029029070999991901082620004+64333+023450FM-12+000599999V0201401N006219999999N0000001N9+01441+99999100671ADDGF103991999999999999999999
0029029070999991901082706004+64333+023450FM-12+000599999V0201401N009819999999N0000001N9+01331+99999100781ADDGF108991999999999999999999
0029029070999991901082713004+64333+023450FM-12+000599999V0201101N009819999999N0000001N9+01611+99999100591ADDGF108991999999999999999999
0029029070999991901082720004+64333+023450FM-12+000599999V0201101N011819999999N0000001N9+01561+99999100551ADDGF108991999999999999999999
0029029070999991901082806004+64333+023450FM-12+000599999V0201401N009819999999N0000001N9+01671+99999100161ADDGF105991999999999999999999
0029029070999991901082813004+64333+023450FM-12+000599999V0202001N008219999999N0000001N9+01831+99999100071ADDGF106991999999999999999999
0035029070999991901082820004+64333+023450FM-12+000599999V0201801N009819999999N0000001N9+01561+99999100081ADDGF108991999999999999999999MW1621
0029029070999991901082906004+64333+023450FM-12+000599999V0200901N013919999999N0000001N9+01331+99999100161ADDGF108991999999999999999999
0029029070999991901082913004+64333+023450FM-12+000599999V0200901N011819999999N0000001N9+01611+99999100361ADDGF101991999999999999999999
0029029070999991901082920004+64333+023450FM-12+000599999V0200901N013919999999N0000001N9+01331+99999100581ADDGF101991999999999999999999
0029029070999991901083006004+64333+023450FM-12+000599999V0200901N008219999999N0000001N9+01001+99999100871ADDGF104991999999999999999999
0029029070999991901083013004+64333+023450FM-12+000599999V0203601N004119999999N0000001N9+01331+99999100921ADDGF103991999999999999999999
0029029070999991901083020004+64333+023450FM-12+000599999V0200201N008219999999N0000001N9+01221+99999100861ADDGF102991999999999999999999
0029029070999991901083106004+64333+023450FM-12+000599999V0200201N013919999999N0000001N9+01171+99999100791ADDGF106991999999999999999999
0029029070999991901083113004+64333+023450FM-12+000599999V0200201N009819999999N0000001N9+01061+99999100791ADDGF104991999999999999999999
0029029070999991901083120004+64333+023450FM-12+000599999V0200201N013919999999N0000001N9+01061+99999100741ADDGF103991999999999999999999
0029029070999991901090106004+64333+023450FM-12+000599999V0200701N009819999999N0000001N9+00781+99999100751ADDGF104991999999999999999999
0029029070999991901090113004+64333+023450FM-12+000599999V0200201N013919999999N0000001N9+01001+99999100721ADDGF104991999999999999999999
0029029070999991901090120004+64333+023450FM-12+000599999V0200201N015919999999N0000001N9+00831+99999100681ADDGF104991999999999999999999
0035029070999991901090206004+64333+023450FM-12+000599999V0200701N015919999999N0000001N9+00561+99999100821ADDGF106991999999999999999999MW1621
0035029070999991901090213004+64333+023450FM-12+000599999V0200501N020119999999N0000001N9+00721+99999100751ADDGF108991999999999999999999MW1621
0029029070999991901090220004+64333+023450FM-12+000599999V0200501N020119999999N0000001N9+00891+99999100921ADDGF105991999999999999999999
0029029070999991901090306004+64333+023450FM-12+000599999V0200201N015919999999N0000001N9+00721+99999101551ADDGF106991999999999999999999
0029029070999991901090313004+64333+023450FM-12+000599999V0203601N013919999999N0000001N9+00891+99999101801ADDGF108991999999999999999999
0029029070999991901090320004+64333+023450FM-12+000599999V0200201N011819999999N0000001N9+01001+99999101991ADDGF104991999999999999999999
