0029029720999991901123013004+60450+022267FM-12+001499999V0202301N009319999999N0000001N9-00171+99999100871ADDGF108991999999999999999999
0029029720999991901123020004+60450+022267FM-12+001499999V0201401N006719999999N0000001N9-00061+99999100711ADDGF108991999999999999999999
0029029720999991901123006004+60450+022267FM-12+001499999V0209991C000019999999N0000001N9-00111+99999100871ADDGF108991999999999999999999
0029029720999991901122920004+60450+022267FM-12+001499999V0209991C000019999999N0000001N9-00221+99999100831ADDGF108991999999999999999999
0029029720999991901122913004+60450+022267FM-12+001499999V0201101N001019999999N0000001N9-00391+99999100681ADDGF108991999999999999999999
0029029720999991901122906004+60450+022267FM-12+001499999V0201101N004619999999N0000001N9-00611+99999100631ADDGF108991999999999999999999
0029029720999991901122820004+60450+022267FM-12+001499999V0200901N002619999999N0000001N9-01111+99999100781ADDGF108991999999999999999999
0029029720999991901122813004+60450+022267FM-12+001499999V0202501N002619999999N0000001N9-01221+99999100591ADDGF100991999999999999999999
0029029720999991901122806004+60450+022267FM-12+001499999V0209991C000019999999N0000001N9-01111+99999100321ADDGF108991999999999999999999
0029029720999991901122720004+60450+022267FM-12+001499999V0200701N009319999999N0000001N9-01111+99999100161ADDGF108991999999999999999999
0029029720999991901122713004+60450+022267FM-12+001499999V0200501N004619999999N0000001N9-00941+99999100081ADDGF108991999999999999999999
0029029720999991901122706004+60450+022267FM-12+001499999V0200901N015419999999N0000001N9-01391+99999100031ADDGF108991999999999999999999
0029029720999991901122620004+60450+022267FM-12+001499999V0200901N012319999999N0000001N9-00941+99999100301ADDGF108991999999999999999999
0029029720999991901122613004+60450+022267FM-12+001499999V0200901N015419999999N0000001N9-01061+99999100401ADDGF108991999999999999999999
0029029720999991901122606004+60450+022267FM-12+001499999V0200901N012319999999N0000001N9-01281+99999100431ADDGF108991999999999999999999
0029029720999991901122520004+60450+022267FM-12+001499999V0200901N012319999999N0000001N9-01221+99999100601ADDGF108991999999999999999999
0029029720999991901122513004+60450+022267FM-12+001499999V0200901N012319999999N0000001N9-01221+99999100831ADDGF106991999999999999999999
0029029720999991901122506004+60450+022267FM-12+001499999V0200901N009319999999N0000001N9-01061+99999100901ADDGF108991999999999999999999
0029029720999991901122420004+60450+022267FM-12+001499999V0200901N006719999999N0000001N9-01561+99999101361ADDGF101991999999999999999999
0029029720999991901122413004+60450+022267FM-12+001499999V0200901N006719999999N0000001N9-01221+99999101681ADDGF100991999999999999999999
0029029720999991901122406004+60450+022267FM-12+001499999V0200501N009319999999N0000001N9-02061+99999101871ADDGF100991999999999999999999
0029029720999991901122320004+60450+022267FM-12+001499999V0200501N006719999999N0000001N9-02061+99999102111ADDGF100991999999999999999999
0029029720999991901122313004+60450+022267FM-12+001499999V0200501N009319999999N0000001N9-01721+99999101911ADDGF100991999999999999999999
0029029720999991901122306004+60450+022267FM-12+001499999V0200501N006719999999N0000001N9-01561+99999101671ADDGF102991999999999999999999
0029029720999991901122220004+60450+022267FM-12+001499999V0200501N006719999999N0000001N9-00891+99999101471ADDGF108991999999999999999999
0029029720999991901122213004+60450+022267FM-12+001499999V0200501N006719999999N0000001N9-00331+99999101141ADDGF108991999999999999999999
0029029720999991901122206004+60450+022267FM-12+001499999V0209991C000019999999N0000001N9-00281+99999100981ADDGF108991999999999999999999
0029029720999991901122120004+60450+022267FM-12+001499999V0200501N004619999999N0000001N9-00171+99999100951ADDGF108991999999999999999999
0029029720999991901122113004+60450+022267FM-12+001499999V0200501N006719999999N0000001N9-00111+99999100991ADDGF108991999999999999999999
0029029720999991901122106004+60450+022267FM-12+001499999V0209991C000019999999N0000001N9-00111+99999101101ADDGF108991999999999999999999
0029029720999991901122020004+60450+022267FM-12+001499999V0200701N002619999999N0000001N9-00171+99999101301ADDGF108991999999999999999999
0029029720999991901122006004+60450+022267FM-12+001499999V0209991C000019999999N0000001N9-00281+99999101121ADDGF108991999999999999999999
0029029720999991901121920004+60450+022267FM-12+001499999V0200501N009319999999N0000001N9-00391+99999100721ADDGF108991999999999999999999
0029029720999991901121906004+60450+022267FM-12+001499999V0200501N015419999999N0000001N9-00501+99999100551ADDGF108991999999999999999999
0029029720999991901121820004+60450+022267FM-12+001499999V0200901N006719999999N0000001N9-00781+99999101321ADDGF100991999999999999999999
0029029720999991901121806004+60450+022267FM-12+001499999V0203201N002619999999N0000001N9-01171+99999101221ADDGF108991999999999999999999
0029029720999991901121720004+60450+022267FM-12+001499999V0200901N001019999999N0000001N9-00891+99999100801ADDGF108991999999999999999999
0029029720999991901121713004+60450+022267FM-12+001499999V0203201N009319999999N0000001N9-00671+99999100501ADDGF108991999999999999999999
0029029720999991901121706004+60450+022267FM-12+001499999V0203401N001019999999N0000001N9-01001+99999100201ADDGF108991999999999999999999
0029029720999991901121620004+60450+022267FM-12+001499999V0200201N004619999999N0000001N9-00781+99999099631ADDGF108991999999999999999999
0029029720999991901121613004+60450+022267FM-12+001499999V0200201N006719999999N0000001N9-00671+99999099261ADDGF108991999999999999999999
0029029720999991901121606004+60450+022267FM-12+001499999V0200501N012319999999N0000001N9-00831+99999099021ADDGF108991999999999999999999
0029029720999991901121520004+60450+022267FM-12+001499999V0200201N015419999999N0000001N9-00831+99999099301ADDGF108991999999999999999999
0029029720999991901121513004+60450+022267FM-12+001499999V0200201N015419999999N0000001N9-00891+99999099711ADDGF108991999999999999999999
0029029720999991901121506004+60450+022267FM-12+001499999V0200501N015419999999N0000001N9-00891+99999100661ADDGF108991999999999999999999
0029029720999991901121420004+60450+022267FM-12+001499999V0200501N004619999999N0000001N9-01441+99999101551ADDGF108991999999999999999999
0029029720999991901121413004+60450+022267FM-12+001499999V0200501N001019999999N0000001N9-01221+99999101701ADDGF107991999999999999999999
0029029720999991901121406004+60450+022267FM-12+001499999V0209991C000019999999N0000001N9-01111+99999101711ADDGF108991999999999999999999
0029029720999991901121320004+60450+022267FM-12+001499999V0209991C000019999999N0000001N9-01611+99999101261ADDGF100991999999999999999999
0029029720999991901121313004+60450+022267FM-12+001499999V0209991C000019999999N0000001N9-01331+99999100981ADDGF100991999999999999999999
0029029720999991901121306004+60450+022267FM-12+001499999V0209991C000019999999N0000001N9-01391+99999100541ADDGF108991999999999999999999
0029029720999991901121220004+60450+022267FM-12+001499999V0209991C000019999999N0000001N9-01501+99999099991ADDGF100991999999999999999999
0029029720999991901121213004+60450+022267FM-12+001499999V0200501N004619999999N0000001N9-01001+99999099701ADDGF108991999999999999999999
0029029720999991901121206004+60450+022267FM-12+001499999V0200501N001019999999N0000001N9-01001+99999099161ADDGF108991999999999999999999
0029029720999991901121120004+60450+022267FM-12+001499999V0200501N004619999999N0000001N9-01001+99999098801ADDGF108991999999999999999999
0029029720999991901121113004+60450+022267FM-12+001499999V0200501N006719999999N0000001N9-01111+99999098431ADDGF108991999999999999999999
0029029720999991901121106004+60450+022267FM-12+001499999V0200501N001019999999N0000001N9-01391+99999098141ADDGF108991999999999999999999
0029029720999991901121020004+60450+022267FM-12+001499999V0200501N004619999999N0000001N9-01221+99999097991ADDGF103991999999999999999999
0029029720999991901121013004+60450+022267FM-12+001499999V0200501N009319999999N0000001N9-01111+99999097831ADDGF108991999999999999999999
0029029720999991901121006004+60450+022267FM-12+001499999V0209991C000019999999N0000001N9-01001+99999097661ADDGF108991999999999999999999
0029029720999991901120920004+60450+022267FM-12+001499999V0200701N004619999999N0000001N9-00391+99999097671ADDGF108991999999999999999999
0029029720999991901120913004+60450+022267FM-12+001499999V0200501N006719999999N0000001N9-00061+99999097701ADDGF108991999999999999999999
0029029720999991901120906004+60450+022267FM-12+001499999V0200501N002619999999N0000001N9-00061+99999097991ADDGF108991999999999999999999
0029029720999991901120820004+60450+022267FM-12+001499999V0202301N002619999999N0000001N9+00061+99999098511ADDGF108991999999999999999999
0029029720999991901120813004+60450+022267FM-12+001499999V0209991C000019999999N0000001N9+00111+99999098721ADDGF108991999999999999999999
0029029720999991901120806004+60450+022267FM-12+001499999V0209991C000019999999N0000001N9+00171+99999098521ADDGF108991999999999999999999
0029029720999991901120720004+60450+022267FM-12+001499999V0202001N015419999999N0000001N9+00221+99999098791ADDGF108991999999999999999999
0029029720999991901120713004+60450+022267FM-12+001499999V0201601N009319999999N0000001N9+00281+99999099631ADDGF108991999999999999999999
0029029720999991901120706004+60450+022267FM-12+001499999V0201401N006719999999N0000001N9+00001+99999100321ADDGF108991999999999999999999
0029029720999991901120620004+60450+022267FM-12+001499999V0202301N004619999999N0000001N9+00111+99999100951ADDGF108991999999999999999999
0029029720999991901120613004+60450+022267FM-12+001499999V0201801N009319999999N0000001N9+00111+99999101101ADDGF108991999999999999999999
0029029720999991901120606004+60450+022267FM-12+001499999V0209991C000019999999N0000001N9+00111+99999101241ADDGF108991999999999999999999
0029029720999991901120520004+60450+022267FM-12+001499999V0202501N004619999999N0000001N9-00061+99999101281ADDGF108991999999999999999999
0029029720999991901120513004+60450+022267FM-12+001499999V0202301N012319999999N0000001N9-00111+99999101381ADDGF108991999999999999999999
0029029720999991901120506004+60450+022267FM-12+001499999V0202301N012319999999N0000001N9-00221+99999101511ADDGF108991999999999999999999
0029029720999991901120420004+60450+022267FM-12+001499999V0209991C000019999999N0000001N9-01671+99999101921ADDGF100991999999999999999999
0029029720999991901120413004+60450+022267FM-12+001499999V0209991C000019999999N0000001N9-01061+99999101761ADDGF102991999999999999999999
0029029720999991901120406004+60450+022267FM-12+001499999V0203601N004619999999N0000001N9-01061+99999101421ADDGF108991999999999999999999
0029029720999991901120320004+60450+022267FM-12+001499999V0203401N004619999999N0000001N9-00831+99999100671ADDGF107991999999999999999999
0029029720999991901120313004+60450+022267FM-12+001499999V0203601N009319999999N0000001N9-00441+99999099761ADDGF108991999999999999999999
0029029720999991901120306004+60450+022267FM-12+001499999V0201101N015419999999N0000001N9-00281+99999099241ADDGF108991999999999999999999
0029029720999991901120220004+60450+022267FM-12+001499999V0201801N019019999999N0000001N9-00221+99999099641ADDGF108991999999999999999999
0029029720999991901120213004+60450+022267FM-12+001499999V0201801N006719999999N0000001N9-00221+99999100561ADDGF108991999999999999999999
0029029720999991901120206004+60450+022267FM-12+001499999V0201101N004619999999N0000001N9-01111+99999101021ADDGF100991999999999999999999
0029029720999991901120120004+60450+022267FM-12+001499999V0201101N002619999999N0000001N9-00721+99999100671ADDGF106991999999999999999999
0029029720999991901120113004+60450+022267FM-12+001499999V0201101N002619999999N0000001N9-00941+99999100201ADDGF103991999999999999999999
0029029720999991901120106004+60450+022267FM-12+001499999V0200901N004619999999N0000001N9-01171+99999099781ADDGF107991999999999999999999
0029029720999991901113020004+60450+022267FM-12+001499999V0200701N001019999999N0000001N9-01501+99999099761ADDGF100991999999999999999999
0029029720999991901113013004+60450+022267FM-12+001499999V0203201N001019999999N0000001N9-01001+99999099791ADDGF100991999999999999999999
0029029720999991901113006004+60450+022267FM-12+001499999V0209991C000019999999N0000001N9-01281+99999099661ADDGF100991999999999999999999
0029029720999991901112920004+60450+022267FM-12+001499999V0202901N009319999999N0000001N9-00671+99999099661ADDGF100991999999999999999999
0029029720999991901112913004+60450+022267FM-12+001499999V0203201N019019999999N0000001N9-00441+99999099381ADDGF108991999999999999999999
0029029720999991901112906004+60450+022267FM-12+001499999V0203201N004619999999N0000001N9-00611+99999099351ADDGF100991999999999999999999
0029029720999991901112820004+60450+022267FM-12+001499999V0203201N004619999999N0000001N9-00501+99999098781ADDGF106991999999999999999999
0029029720999991901112813004+60450+022267FM-12+001499999V0203201N002619999999N0000001N9-00391+99999098231ADDGF107991999999999999999999
0029029720999991901112806004+60450+022267FM-12+001499999V0209991C000019999999N0000001N9-00281+99999098041ADDGF108991999999999999999999
0029029720999991901112720004+60450+022267FM-12+001499999V0202301N009319999999N0000001N9+00061+99999098791ADDGF108991999999999999999999
0029029720999991901112713004+60450+022267FM-12+001499999V0202501N019019999999N0000001N9+00171+99999099751ADDGF108991999999999999999999
0029029720999991901112706004+60450+022267FM-12+001499999V0202301N015419999999N0000001N9+00111+99999100901ADDGF108991999999999999999999
0029029720999991901112620004+60450+022267FM-12+001499999V0209991C000019999999N0000001N9-00561+99999101941ADDGF107991999999999999999999
0029029720999991901112613004+60450+022267FM-12+001499999V0203201N006719999999N0000001N9-00061+99999101521ADDGF101991999999999999999999
0029029720999991901112606004+60450+022267FM-12+001499999V0203601N015419999999N0000001N9+00221+99999100741ADDGF108991999999999999999999
0029029720999991901112520004+60450+022267FM-12+001499999V0202701N004619999999N0000001N9+00221+99999100221ADDGF108991999999999999999999
0029029720999991901112513004+60450+022267FM-12+001499999V0202701N012319999999N0000001N9+00061+99999100761ADDGF108991999999999999999999
0029029720999991901112506004+60450+022267FM-12+001499999V0202301N015419999999N0000001N9+00111+99999101461ADDGF108991999999999999999999
0029029720999991901112420004+60450+022267FM-12+001499999V0203401N002619999999N0000001N9-01171+99999102441ADDGF107991999999999999999999
0029029720999991901112413004+60450+022267FM-12+001499999V0209991C000019999999N0000001N9-00611+99999102151ADDGF100991999999999999999999
0029029720999991901112406004+60450+022267FM-12+001499999V0203401N002619999999N0000001N9-00331+99999101671ADDGF108991999999999999999999
0029029720999991901112320004+60450+022267FM-12+001499999V0202701N002619999999N0000001N9+00111+99999100961ADDGF108991999999999999999999
0029029720999991901112313004+60450+022267FM-12+001499999V0209991C000019999999N0000001N9-00331+99999101041ADDGF107991999999999999999999
0029029720999991901112306004+60450+022267FM-12+001499999V0203201N001019999999N0000001N9-01001+99999100821ADDGF108991999999999999999999
0029029720999991901112220004+60450+022267FM-12+001499999V0203201N002619999999N0000001N9-00891+99999099871ADDGF108991999999999999999999
0029029720999991901112213004+60450+022267FM-12+001499999V0203201N006719999999N0000001N9-00561+99999098861ADDGF106991999999999999999999
0029029720999991901112206004+60450+022267FM-12+001499999V0202701N012319999999N0000001N9-00281+99999098471ADDGF106991999999999999999999
0029029720999991901112120004+60450+022267FM-12+001499999V0209991C000019999999N0000001N9-00331+99999098521ADDGF108991999999999999999999
0029029720999991901112113004+60450+022267FM-12+001499999V0202701N009319999999N0000001N9-00281+99999098661ADDGF106991999999999999999999
0029029720999991901112106004+60450+022267FM-12+001499999V0202501N009319999999N0000001N9-00281+99999098551ADDGF101991999999999999999999
0029029720999991901112020004+60450+022267FM-12+001499999V0203201N012319999999N0000001N9-00281+99999098201ADDGF107991999999999999999999
0029029720999991901112013004+60450+022267FM-12+001499999V0203201N009319999999N0000001N9-00331+99999097341ADDGF108991999999999999999999
0029029720999991901112006004+60450+022267FM-12+001499999V0202701N015419999999N0000001N9+00001+99999096481ADDGF108991999999999999999999
0029029720999991901111920004+60450+022267FM-12+001499999V0201801N022619999999N0000001N9-00171+99999097241ADDGF108991999999999999999999
0029029720999991901111913004+60450+022267FM-12+001499999V0201601N019019999999N0000001N9-00111+99999099321ADDGF108991999999999999999999
0029029720999991901111906004+60450+022267FM-12+001499999V0200901N002619999999N0000001N9-01061+99999100441ADDGF108991999999999999999999
0029029720999991901111820004+60450+022267FM-12+001499999V0209991C000019999999N0000001N9-01001+99999100441ADDGF100991999999999999999999
0029029720999991901111813004+60450+022267FM-12+001499999V0200201N002619999999N0000001N9-00281+99999099951ADDGF108991999999999999999999
0029029720999991901111806004+60450+022267FM-12+001499999V0209991C000019999999N0000001N9-00391+99999099631ADDGF108991999999999999999999
0029029720999991901111720004+60450+022267FM-12+001499999V0202901N012319999999N0000001N9-00111+99999099071ADDGF100991999999999999999999
0029029720999991901111713004+60450+022267FM-12+001499999V0202701N022619999999N0000001N9-00061+99999098391ADDGF108991999999999999999999
0029029720999991901111706004+60450+022267FM-12+001499999V0202501N019019999999N0000001N9+00001+99999098641ADDGF108991999999999999999999
0029029720999991901111620004+60450+022267FM-12+001499999V0202701N009319999999N0000001N9-00171+99999099661ADDGF107991999999999999999999
0029029720999991901111613004+60450+022267FM-12+001499999V0202701N004619999999N0000001N9-00221+99999099751ADDGF106991999999999999999999
0029029720999991901111606004+60450+022267FM-12+001499999V0209991C000019999999N0000001N9-00501+99999099541ADDGF108991999999999999999999
0029029720999991901111520004+60450+022267FM-12+001499999V0202701N012319999999N0000001N9-00671+99999098581ADDGF108991999999999999999999
0029029720999991901111513004+60450+022267FM-12+001499999V0202701N009319999999N0000001N9-00281+99999097321ADDGF108991999999999999999999
0029029720999991901111506004+60450+022267FM-12+001499999V0200901N001019999999N0000001N9+00331+99999097101ADDGF108991999999999999999999
0029029720999991901111420004+60450+022267FM-12+001499999V0201101N015419999999N0000001N9-00441+99999098541ADDGF108991999999999999999999
0029029720999991901111413004+60450+022267FM-12+001499999V0201101N006719999999N0000001N9-00391+99999099751ADDGF108991999999999999999999
0029029720999991901111406004+60450+022267FM-12+001499999V0209991C000019999999N0000001N9-00671+99999100181ADDGF108991999999999999999999
0029029720999991901111320004+60450+022267FM-12+001499999V0200701N002619999999N0000001N9-00891+99999100351ADDGF102991999999999999999999
0029029720999991901111313004+60450+022267FM-12+001499999V0200701N006719999999N0000001N9-00671+99999100341ADDGF108991999999999999999999
0029029720999991901111306004+60450+022267FM-12+001499999V0200901N001019999999N0000001N9-01061+99999100381ADDGF108991999999999999999999
0029029720999991901111220004+60450+022267FM-12+001499999V0203201N001019999999N0000001N9-00941+99999100191ADDGF100991999999999999999999
0029029720999991901111213004+60450+022267FM-12+001499999V0203201N002619999999N0000001N9-00281+99999099841ADDGF108991999999999999999999
0029029720999991901111206004+60450+022267FM-12+001499999V0203201N002619999999N0000001N9-00671+99999099561ADDGF107991999999999999999999
0029029720999991901111120004+60450+022267FM-12+001499999V0203401N001019999999N0000001N9-01171+99999099481ADDGF100991999999999999999999
0029029720999991901111113004+60450+022267FM-12+001499999V0203201N006719999999N0000001N9-00561+99999099101ADDGF100991999999999999999999
0029029720999991901111106004+60450+022267FM-12+001499999V0203201N006719999999N0000001N9-00281+99999098861ADDGF108991999999999999999999
0029029720999991901111020004+60450+022267FM-12+001499999V0203201N004619999999N0000001N9-00061+99999099341ADDGF108991999999999999999999
0029029720999991901111013004+60450+022267FM-12+001499999V0202901N012319999999N0000001N9+00171+99999099511ADDGF108991999999999999999999
0029029720999991901111006004+60450+022267FM-12+001499999V0202501N009319999999N0000001N9-00111+99999099801ADDGF108991999999999999999999
0029029720999991901110920004+60450+022267FM-12+001499999V0203401N004619999999N0000001N9-00331+99999100041ADDGF103991999999999999999999
0029029720999991901110913004+60450+022267FM-12+001499999V0203401N012319999999N0000001N9-00111+99999099511ADDGF107991999999999999999999
0029029720999991901110906004+60450+022267FM-12+001499999V0203201N015419999999N0000001N9-00281+99999098601ADDGF107991999999999999999999
0029029720999991901110820004+60450+022267FM-12+001499999V0203201N009319999999N0000001N9-00331+99999098151ADDGF108991999999999999999999
0029029720999991901110813004+60450+022267FM-12+001499999V0203201N015419999999N0000001N9-00221+99999097781ADDGF108991999999999999999999
0029029720999991901110806004+60450+022267FM-12+001499999V0203201N012319999999N0000001N9+00001+99999097761ADDGF108991999999999999999999
0029029720999991901110720004+60450+022267FM-12+001499999V0202901N006719999999N0000001N9+00001+99999098901ADDGF100991999999999999999999
0029029720999991901110713004+60450+022267FM-12+001499999V0203201N012319999999N0000001N9+00111+99999098521ADDGF108991999999999999999999
0029029720999991901110706004+60450+022267FM-12+001499999V0203201N006719999999N0000001N9+00221+99999098361ADDGF108991999999999999999999
0029029720999991901110620004+60450+022267FM-12+001499999V0202701N009319999999N0000001N9+00501+99999098901ADDGF100991999999999999999999
0029029720999991901110613004+60450+022267FM-12+001499999V0202901N006719999999N0000001N9+00561+99999099441ADDGF108991999999999999999999
0029029720999991901110606004+60450+022267FM-12+001499999V0202501N015419999999N0000001N9+00561+99999100221ADDGF108991999999999999999999
0029029720999991901110520004+60450+022267FM-12+001499999V0202701N006719999999N0000001N9+00501+99999101391ADDGF108991999999999999999999
0029029720999991901110513004+60450+022267FM-12+001499999V0202701N006719999999N0000001N9+00671+99999101841ADDGF102991999999999999999999
0029029720999991901110506004+60450+022267FM-12+001499999V0202901N009319999999N0000001N9+00441+99999101911ADDGF102991999999999999999999
0029029720999991901110420004+60450+022267FM-12+001499999V0202701N002619999999N0000001N9+00221+99999102241ADDGF106991999999999999999999
0029029720999991901110413004+60450+022267FM-12+001499999V0202701N002619999999N0000001N9+00281+99999102321ADDGF108991999999999999999999
0029029720999991901110406004+60450+022267FM-12+001499999V0209991C000019999999N0000001N9-00221+99999102161ADDGF100991999999999999999999
0029029720999991901110320004+60450+022267FM-12+001499999V0202901N006719999999N0000001N9+00671+99999101561ADDGF108991999999999999999999
0029029720999991901110313004+60450+022267FM-12+001499999V0202901N009319999999N0000001N9+00781+99999101781ADDGF101991999999999999999999
0029029720999991901110306004+60450+022267FM-12+001499999V0202901N004619999999N0000001N9+00501+99999101801ADDGF100991999999999999999999
0029029720999991901110220004+60450+022267FM-12+001499999V0202701N006719999999N0000001N9+00501+99999102221ADDGF100991999999999999999999
0029029720999991901110213004+60450+022267FM-12+001499999V0203201N004619999999N0000001N9+00781+99999102321ADDGF107991999999999999999999
0029029720999991901110206004+60450+022267FM-12+001499999V0202701N006719999999N0000001N9+00501+99999102481ADDGF108991999999999999999999
0029029720999991901110120004+60450+022267FM-12+001499999V0202701N002619999999N0000001N9+00501+99999102711ADDGF103991999999999999999999
0029029720999991901110113004+60450+022267FM-12+001499999V0203401N004619999999N0000001N9+00891+99999102641ADDGF108991999999999999999999
0029029720999991901110106004+60450+022267FM-12+001499999V0209991C000019999999N0000001N9+00611+99999102561ADDGF101991999999999999999999
0029029720999991901103120004+60450+022267FM-12+001499999V0203201N004619999999N0000001N9+00561+99999102421ADDGF100991999999999999999999
0029029720999991901103113004+60450+022267FM-12+001499999V0203201N004619999999N0000001N9+00611+99999102681ADDGF108991999999999999999999
0029029720999991901103106004+60450+022267FM-12+001499999V0209991C000019999999N0000001N9+00721+99999102701ADDGF101991999999999999999999
0029029720999991901103020004+60450+022267FM-12+001499999V0203401N004619999999N0000001N9+00221+99999102241ADDGF101991999999999999999999
0029029720999991901103013004+60450+022267FM-12+001499999V0203201N009319999999N0000001N9+00611+99999101821ADDGF107991999999999999999999
0029029720999991901103006004+60450+022267FM-12+001499999V0203201N009319999999N0000001N9+00501+99999100841ADDGF106991999999999999999999
0029029720999991901102920004+60450+022267FM-12+001499999V0202901N009319999999N0000001N9+00611+99999099961ADDGF107991999999999999999999
0029029720999991901102913004+60450+022267FM-12+001499999V0202701N006719999999N0000001N9+00611+99999099641ADDGF108991999999999999999999
0029029720999991901102906004+60450+022267FM-12+001499999V0202001N019019999999N0000001N9+01111+99999099121ADDGF108991999999999999999999
0029029720999991901102820004+60450+022267FM-12+001499999V0202301N015419999999N0000001N9+01061+99999099641ADDGF108991999999999999999999
0029029720999991901102813004+60450+022267FM-12+001499999V0202301N019019999999N0000001N9+01061+99999999999ADDGF108991999999999999999999
0029029720999991901102806004+60450+022267FM-12+001499999V0202301N015419999999N0000001N9+01001+99999100201ADDGF108991999999999999999999
0029029720999991901102720004+60450+022267FM-12+001499999V0202301N019019999999N0000001N9+00891+99999100991ADDGF108991999999999999999999
0029029720999991901102713004+60450+022267FM-12+001499999V0202301N012319999999N0000001N9+00941+99999101511ADDGF108991999999999999999999
0029029720999991901102706004+60450+022267FM-12+001499999V0209991C000019999999N0000001N9+00831+99999101631ADDGF108991999999999999999999
0029029720999991901102620004+60450+022267FM-12+001499999V0201801N004619999999N0000001N9+00891+99999101841ADDGF108991999999999999999999
0029029720999991901102613004+60450+022267FM-12+001499999V0201401N004619999999N0000001N9+00831+99999101921ADDGF108991999999999999999999
0029029720999991901102606004+60450+022267FM-12+001499999V0201401N009319999999N0000001N9+00781+99999101901ADDGF108991999999999999999999
0029029720999991901102520004+60450+022267FM-12+001499999V0202001N004619999999N0000001N9+00891+99999102111ADDGF108991999999999999999999
0029029720999991901102513004+60450+022267FM-12+001499999V0202001N015419999999N0000001N9+01001+99999102121ADDGF108991999999999999999999
0029029720999991901102506004+60450+022267FM-12+001499999V0201401N009319999999N0000001N9+00831+99999102021ADDGF108991999999999999999999
0029029720999991901102420004+60450+022267FM-12+001499999V0201801N012319999999N0000001N9+01001+99999101901ADDGF108991999999999999999999
0029029720999991901102413004+60450+022267FM-12+001499999V0201601N012319999999N0000001N9+00891+99999101981ADDGF108991999999999999999999
0029029720999991901102406004+60450+022267FM-12+001499999V0209991C000019999999N0000001N9+00781+99999101991ADDGF108991999999999999999999
0029029720999991901102320004+60450+022267FM-12+001499999V0200901N002619999999N0000001N9+00441+99999102031ADDGF102991999999999999999999
0029029720999991901102313004+60450+022267FM-12+001499999V0201601N009319999999N0000001N9+00941+99999102101ADDGF102991999999999999999999
0029029720999991901102306004+60450+022267FM-12+001499999V0201601N004619999999N0000001N9+00781+99999101961ADDGF102991999999999999999999
0029029720999991901102220004+60450+022267FM-12+001499999V0201601N006719999999N0000001N9+00941+99999101781ADDGF108991999999999999999999
0029029720999991901102213004+60450+022267FM-12+001499999V0201801N012319999999N0000001N9+00941+99999101661ADDGF108991999999999999999999
0029029720999991901102206004+60450+022267FM-12+001499999V0201601N015419999999N0000001N9+00831+99999101481ADDGF108991999999999999999999
0029029720999991901102120004+60450+022267FM-12+001499999V0201801N009319999999N0000001N9+00891+99999101641ADDGF108991999999999999999999
0029029720999991901102113004+60450+022267FM-12+001499999V0201401N006719999999N0000001N9+00781+99999101821ADDGF108991999999999999999999
0029029720999991901102106004+60450+022267FM-12+001499999V0201601N015419999999N0000001N9+00941+99999101751ADDGF108991999999999999999999
0029029720999991901102020004+60450+022267FM-12+001499999V0201801N009319999999N0000001N9+00721+99999101951ADDGF108991999999999999999999
0029029720999991901102013004+60450+022267FM-12+001499999V0201401N009319999999N0000001N9+00781+99999102031ADDGF108991999999999999999999
0029029720999991901102006004+60450+022267FM-12+001499999V0201401N009319999999N0000001N9+00781+99999102031ADDGF108991999999999999999999
0029029720999991901101920004+60450+022267FM-12+001499999V0201601N006719999999N0000001N9+00721+99999102071ADDGF100991999999999999999999
0029029720999991901101913004+60450+022267FM-12+001499999V0201601N009319999999N0000001N9+00891+99999102041ADDGF108991999999999999999999
0029029720999991901101906004+60450+022267FM-12+001499999V0201401N009319999999N0000001N9+00891+99999101881ADDGF108991999999999999999999
0029029720999991901101820004+60450+022267FM-12+001499999V0201401N015419999999N0000001N9+00831+99999101861ADDGF108991999999999999999999
0029029720999991901101813004+60450+022267FM-12+001499999V0201401N012319999999N0000001N9+00941+99999101871ADDGF108991999999999999999999
0029029720999991901101806004+60450+022267FM-12+001499999V0201401N012319999999N0000001N9+00941+99999101961ADDGF108991999999999999999999
0029029720999991901101720004+60450+022267FM-12+001499999V0201401N012319999999N0000001N9+00941+99999101991ADDGF108991999999999999999999
0029029720999991901101713004+60450+022267FM-12+001499999V0201401N015419999999N0000001N9+00831+99999102081ADDGF108991999999999999999999
0029029720999991901101706004+60450+022267FM-12+001499999V0201101N015419999999N0000001N9+00891+99999102121ADDGF108991999999999999999999
0029029720999991901101620004+60450+022267FM-12+001499999V0201601N006719999999N0000001N9+01001+99999102071ADDGF108991999999999999999999
0029029720999991901101613004+60450+022267FM-12+001499999V0201401N009319999999N0000001N9+01061+99999101901ADDGF108991999999999999999999
0029029720999991901101606004+60450+022267FM-12+001499999V0201601N004619999999N0000001N9+00941+99999101671ADDGF108991999999999999999999
0029029720999991901101520004+60450+022267FM-12+001499999V0200901N012319999999N0000001N9+00831+99999101901ADDGF108991999999999999999999
0029029720999991901101513004+60450+022267FM-12+001499999V0200901N012319999999N0000001N9+00831+99999102041ADDGF108991999999999999999999
0029029720999991901101506004+60450+022267FM-12+001499999V0201101N015419999999N0000001N9+00781+99999102071ADDGF108991999999999999999999
0029029720999991901101420004+60450+022267FM-12+001499999V0200901N009319999999N0000001N9+00721+99999102081ADDGF100991999999999999999999
0029029720999991901101413004+60450+022267FM-12+001499999V0200501N012319999999N0000001N9+00831+99999102081ADDGF108991999999999999999999
0029029720999991901101406004+60450+022267FM-12+001499999V0200901N012319999999N0000001N9+00781+99999102101ADDGF108991999999999999999999
0029029720999991901101320004+60450+022267FM-12+001499999V0200501N006719999999N0000001N9+00561+99999102301ADDGF102991999999999999999999
0029029720999991901101313004+60450+022267FM-12+001499999V0200701N012319999999N0000001N9+01171+99999102391ADDGF101991999999999999999999
0029029720999991901101306004+60450+022267FM-12+001499999V0200501N006719999999N0000001N9+00441+99999102521ADDGF108991999999999999999999
0029029720999991901101220004+60450+022267FM-12+001499999V0200501N002619999999N0000001N9+00501+99999102501ADDGF100991999999999999999999
0029029720999991901101213004+60450+022267FM-12+001499999V0200501N004619999999N0000001N9+00941+99999102391ADDGF108991999999999999999999
0029029720999991901101206004+60450+022267FM-12+001499999V0209991C000019999999N0000001N9+00331+99999102101ADDGF108991999999999999999999
0029029720999991901101120004+60450+022267FM-12+001499999V0201401N001019999999N0000001N9+00831+99999101861ADDGF108991999999999999999999
0029029720999991901101113004+60450+022267FM-12+001499999V0201801N009319999999N0000001N9+01171+99999101741ADDGF107991999999999999999999
0029029720999991901101106004+60450+022267FM-12+001499999V0201401N004619999999N0000001N9+00891+99999101661ADDGF100991999999999999999999
0029029720999991901101020004+60450+022267FM-12+001499999V0209991C000019999999N0000001N9+00561+99999101601ADDGF100991999999999999999999
0029029720999991901101013004+60450+022267FM-12+001499999V0201801N006719999999N0000001N9+01221+99999101181ADDGF106991999999999999999999
0029029720999991901101006004+60450+022267FM-12+001499999V0201101N006719999999N0000001N9+00561+99999100661ADDGF102991999999999999999999
0029029720999991901100920004+60450+022267FM-12+001499999V0202001N012319999999N0000001N9+01001+99999099711ADDGF107991999999999999999999
0029029720999991901100913004+60450+022267FM-12+001499999V0202301N015419999999N0000001N9+01061+99999098641ADDGF108991999999999999999999
0029029720999991901100906004+60450+022267FM-12+001499999V0202301N012319999999N0000001N9+00781+99999097661ADDGF108991999999999999999999
0029029720999991901100820004+60450+022267FM-12+001499999V0202301N019019999999N0000001N9+00831+99999097351ADDGF108991999999999999999999
0029029720999991901100813004+60450+022267FM-12+001499999V0201801N022619999999N0000001N9+00891+99999096881ADDGF108991999999999999999999
0029029720999991901100806004+60450+022267FM-12+001499999V0201601N022619999999N0000001N9+00891+99999096461ADDGF108991999999999999999999
0029029720999991901100720004+60450+022267FM-12+001499999V0201601N019019999999N0000001N9+00941+99999096631ADDGF106991999999999999999999
0029029720999991901100713004+60450+022267FM-12+001499999V0201401N012319999999N0000001N9+01171+99999097441ADDGF108991999999999999999999
0029029720999991901100706004+60450+022267FM-12+001499999V0201401N009319999999N0000001N9+01111+99999097751ADDGF108991999999999999999999
0029029720999991901100620004+60450+022267FM-12+001499999V0201801N012319999999N0000001N9+00941+99999097801ADDGF108991999999999999999999
0029029720999991901100613004+60450+022267FM-12+001499999V0201401N009319999999N0000001N9+01281+99999097951ADDGF108991999999999999999999
0029029720999991901100606004+60450+022267FM-12+001499999V0201401N009319999999N0000001N9+01391+99999098261ADDGF108991999999999999999999
0029029720999991901100520004+60450+022267FM-12+001499999V0201401N004619999999N0000001N9+01281+99999099711ADDGF108991999999999999999999
0029029720999991901100513004+60450+022267FM-12+001499999V0201801N009319999999N0000001N9+01561+99999100151ADDGF108991999999999999999999
0029029720999991901100506004+60450+022267FM-12+001499999V0202001N009319999999N0000001N9+01221+99999100431ADDGF108991999999999999999999
0029029720999991901100420004+60450+022267FM-12+001499999V0200901N006719999999N0000001N9+01281+99999100861ADDGF108991999999999999999999
0029029720999991901100413004+60450+022267FM-12+001499999V0201601N006719999999N0000001N9+01441+99999101231ADDGF108991999999999999999999
0029029720999991901100406004+60450+022267FM-12+001499999V0209991C000019999999N0000001N9+01281+99999101541ADDGF108991999999999999999999
0029029720999991901100320004+60450+022267FM-12+001499999V0201401N004619999999N0000001N9+01281+99999101961ADDGF108991999999999999999999
0029029720999991901100313004+60450+022267FM-12+001499999V0201401N009319999999N0000001N9+01331+99999102161ADDGF108991999999999999999999
0029029720999991901100306004+60450+022267FM-12+001499999V0201401N004619999999N0000001N9+01281+99999102201ADDGF108991999999999999999999
0029029720999991901100220004+60450+022267FM-12+001499999V0200701N004619999999N0000001N9+01221+99999102361ADDGF108991999999999999999999
0029029720999991901100213004+60450+022267FM-12+001499999V0200701N004619999999N0000001N9+01281+99999102301ADDGF108991999999999999999999
0029029720999991901100206004+60450+022267FM-12+001499999V0200701N002619999999N0000001N9+01061+99999102041ADDGF108991999999999999999999
0029029720999991901100120004+60450+022267FM-12+001499999V0200701N004619999999N0000001N9+01111+99999102041ADDGF108991999999999999999999
0029029720999991901100113004+60450+022267FM-12+001499999V0200901N006719999999N0000001N9+01221+99999102041ADDGF108991999999999999999999
0029029720999991901100106004+60450+022267FM-12+001499999V0200701N004619999999N0000001N9+00831+99999101991ADDGF108991999999999999999999
0029029720999991901093020004+60450+022267FM-12+001499999V0201801N004619999999N0000001N9+01221+99999101941ADDGF100991999999999999999999
0029029720999991901093013004+60450+022267FM-12+001499999V0201801N012319999999N0000001N9+01721+99999101871ADDGF101991999999999999999999
0029029720999991901093006004+60450+022267FM-12+001499999V0201801N006719999999N0000001N9+01391+99999101921ADDGF108991999999999999999999
0029029720999991901092920004+60450+022267FM-12+001499999V0202001N004619999999N0000001N9+01331+99999101861ADDGF105991999999999999999999
0029029720999991901092913004+60450+022267FM-12+001499999V0202701N012319999999N0000001N9+01671+99999101661ADDGF108991999999999999999999
0029029720999991901092906004+60450+022267FM-12+001499999V0202701N004619999999N0000001N9+01611+99999101541ADDGF107991999999999999999999
0029029720999991901092820004+60450+022267FM-12+001499999V0202301N012319999999N0000001N9+01561+99999101301ADDGF108991999999999999999999
0029029720999991901092813004+60450+022267FM-12+001499999V0202301N015419999999N0000001N9+01671+99999101351ADDGF108991999999999999999999
0029029720999991901092806004+60450+022267FM-12+001499999V0202001N012319999999N0000001N9+01281+99999101321ADDGF107991999999999999999999
0029029720999991901092720004+60450+022267FM-12+001499999V0209991C000019999999N0000001N9+01331+99999101561ADDGF108991999999999999999999
0029029720999991901092713004+60450+022267FM-12+001499999V0202001N009319999999N0000001N9+01831+99999101661ADDGF100991999999999999999999
0029029720999991901092706004+60450+022267FM-12+001499999V0201601N001019999999N0000001N9+00831+99999101721ADDGF108991999999999999999999
0029029720999991901092620004+60450+022267FM-12+001499999V0202301N006719999999N0000001N9+01171+99999101911ADDGF108991999999999999999999
0029029720999991901092613004+60450+022267FM-12+001499999V0202301N009319999999N0000001N9+01721+99999102081ADDGF100991999999999999999999
0029029720999991901092606004+60450+022267FM-12+001499999V0209991C000019999999N0000001N9+00941+99999102041ADDGF108991999999999999999999
0029029720999991901092520004+60450+022267FM-12+001499999V0201801N002619999999N0000001N9+01171+99999102161ADDGF100991999999999999999999
0029029720999991901092513004+60450+022267FM-12+001499999V0202301N004619999999N0000001N9+02001+99999102301ADDGF100991999999999999999999
0029029720999991901092506004+60450+022267FM-12+001499999V0209991C000019999999N0000001N9+01441+99999102261ADDGF108991999999999999999999
0029029720999991901092420004+60450+022267FM-12+001499999V0201601N002619999999N0000001N9+01281+99999102361ADDGF100991999999999999999999
0029029720999991901092413004+60450+022267FM-12+001499999V0201801N009319999999N0000001N9+02111+99999102501ADDGF100991999999999999999999
0029029720999991901092406004+60450+022267FM-12+001499999V0200901N001019999999N0000001N9+01331+99999102391ADDGF100991999999999999999999
0029029720999991901092320004+60450+022267FM-12+001499999V0201401N002619999999N0000001N9+01281+99999102441ADDGF100991999999999999999999
0029029720999991901092313004+60450+022267FM-12+001499999V0201801N006719999999N0000001N9+01941+99999102461ADDGF100991999999999999999999
0029029720999991901092306004+60450+022267FM-12+001499999V0200901N006719999999N0000001N9+01111+99999102511ADDGF108991999999999999999999
0029029720999991901092220004+60450+022267FM-12+001499999V0201401N002619999999N0000001N9+01171+99999102401ADDGF100991999999999999999999
0029029720999991901092213004+60450+022267FM-12+001499999V0201401N006719999999N0000001N9+01721+99999102361ADDGF108991999999999999999999
0029029720999991901092206004+60450+022267FM-12+001499999V0200901N009319999999N0000001N9+01331+99999102221ADDGF108991999999999999999999
0029029720999991901092120004+60450+022267FM-12+001499999V0201801N006719999999N0000001N9+01391+99999101861ADDGF108991999999999999999999
0029029720999991901092113004+60450+022267FM-12+001499999V0202001N009319999999N0000001N9+01721+99999101621ADDGF108991999999999999999999
0029029720999991901092106004+60450+022267FM-12+001499999V0201801N006719999999N0000001N9+01391+99999101341ADDGF107991999999999999999999
0029029720999991901092020004+60450+022267FM-12+001499999V0201801N001019999999N0000001N9+01391+99999101271ADDGF108991999999999999999999
0029029720999991901092013004+60450+022267FM-12+001499999V0201801N009319999999N0000001N9+01721+99999101161ADDGF105991999999999999999999
0029029720999991901092006004+60450+022267FM-12+001499999V0209991C000019999999N0000001N9+01331+99999101061ADDGF108991999999999999999999
0029029720999991901091920004+60450+022267FM-12+001499999V0209991C000019999999N0000001N9+01171+99999101151ADDGF100991999999999999999999
0029029720999991901091913004+60450+022267FM-12+001499999V0202001N006719999999N0000001N9+01561+99999101071ADDGF108991999999999999999999
0029029720999991901091906004+60450+022267FM-12+001499999V0201801N009319999999N0000001N9+01281+99999100961ADDGF108991999999999999999999
0029029720999991901091820004+60450+022267FM-12+001499999V0202301N001019999999N0000001N9+01331+99999100671ADDGF108991999999999999999999
0029029720999991901091813004+60450+022267FM-12+001499999V0201801N006719999999N0000001N9+01441+99999100481ADDGF108991999999999999999999
0029029720999991901091806004+60450+022267FM-12+001499999V0201101N009319999999N0000001N9+01281+99999100421ADDGF108991999999999999999999
0029029720999991901091720004+60450+022267FM-12+001499999V0201101N002619999999N0000001N9+01441+99999100861ADDGF108991999999999999999999
0029029720999991901091713004+60450+022267FM-12+001499999V0201401N004619999999N0000001N9+01561+99999101101ADDGF108991999999999999999999
0029029720999991901091706004+60450+022267FM-12+001499999V0200901N009319999999N0000001N9+01331+99999101061ADDGF108991999999999999999999
0029029720999991901091620004+60450+022267FM-12+001499999V0201401N006719999999N0000001N9+01281+99999101041ADDGF108991999999999999999999
0029029720999991901091613004+60450+022267FM-12+001499999V0201101N009319999999N0000001N9+01331+99999101081ADDGF108991999999999999999999
0029029720999991901091606004+60450+022267FM-12+001499999V0200701N009319999999N0000001N9+01281+99999101041ADDGF108991999999999999999999
0029029720999991901091520004+60450+022267FM-12+001499999V0200701N004619999999N0000001N9+01171+99999101121ADDGF108991999999999999999999
0029029720999991901091513004+60450+022267FM-12+001499999V0200501N012319999999N0000001N9+01281+99999101191ADDGF108991999999999999999999
0029029720999991901091506004+60450+022267FM-12+001499999V0200901N009319999999N0000001N9+01171+99999101351ADDGF108991999999999999999999
0029029720999991901091420004+60450+022267FM-12+001499999V0200701N004619999999N0000001N9+01111+99999101591ADDGF107991999999999999999999
0029029720999991901091413004+60450+022267FM-12+001499999V0200901N004619999999N0000001N9+01611+99999101801ADDGF108991999999999999999999
0029029720999991901091406004+60450+022267FM-12+001499999V0209991C000019999999N0000001N9+01171+99999101861ADDGF108991999999999999999999
0029029720999991901091320004+60450+022267FM-12+001499999V0209991C000019999999N0000001N9+01061+99999101941ADDGF100991999999999999999999
0029029720999991901091313004+60450+022267FM-12+001499999V0202001N006719999999N0000001N9+01721+99999101841ADDGF102991999999999999999999
0029029720999991901091306004+60450+022267FM-12+001499999V0209991C000019999999N0000001N9+00561+99999101921ADDGF108991999999999999999999
0029029720999991901091220004+60450+022267FM-12+001499999V0209991C000019999999N0000001N9+00891+99999101961ADDGF100991999999999999999999
0029029720999991901091213004+60450+022267FM-12+001499999V0202901N004619999999N0000001N9+01721+99999101941ADDGF100991999999999999999999
0029029720999991901091206004+60450+022267FM-12+001499999V0209991C000019999999N0000001N9+00561+99999102001ADDGF106991999999999999999999
0029029720999991901091120004+60450+022267FM-12+001499999V0209991C000019999999N0000001N9+00941+99999102111ADDGF100991999999999999999999
0029029720999991901091113004+60450+022267FM-12+001499999V0203601N006719999999N0000001N9+01781+99999102001ADDGF100991999999999999999999
0029029720999991901091106004+60450+022267FM-12+001499999V0209991C000019999999N0000001N9+01171+99999102111ADDGF100991999999999999999999
0029029720999991901091020004+60450+022267FM-12+001499999V0209991C000019999999N0000001N9+00941+99999102111ADDGF100991999999999999999999
0029029720999991901091013004+60450+022267FM-12+001499999V0201801N004619999999N0000001N9+01721+99999102121ADDGF104991999999999999999999
0029029720999991901091006004+60450+022267FM-12+001499999V0209991C000019999999N0000001N9+00941+99999102321ADDGF108991999999999999999999
0029029720999991901090920004+60450+022267FM-12+001499999V0209991C000019999999N0000001N9+01001+99999102441ADDGF100991999999999999999999
0029029720999991901090913004+60450+022267FM-12+001499999V0201801N002619999999N0000001N9+01721+99999102431ADDGF108991999999999999999999
0029029720999991901090906004+60450+022267FM-12+001499999V0209991C000019999999N0000001N9+01001+99999102561ADDGF108991999999999999999999
0029029720999991901090820004+60450+022267FM-12+001499999V0209991C000019999999N0000001N9+00891+99999102661ADDGF100991999999999999999999
0029029720999991901090813004+60450+022267FM-12+001499999V0200201N002619999999N0000001N9+01611+99999102631ADDGF107991999999999999999999
0029029720999991901090806004+60450+022267FM-12+001499999V0200501N004619999999N0000001N9+00781+99999102661ADDGF108991999999999999999999
0029029720999991901090720004+60450+022267FM-12+001499999V0203201N001019999999N0000001N9+00831+99999102541ADDGF100991999999999999999999
0029029720999991901090713004+60450+022267FM-12+001499999V0203201N002619999999N0000001N9+01561+99999102261ADDGF100991999999999999999999
0029029720999991901090706004+60450+022267FM-12+001499999V0209991C000019999999N0000001N9+00781+99999102241ADDGF101991999999999999999999
0029029720999991901090620004+60450+022267FM-12+001499999V0203601N001019999999N0000001N9+00721+99999102141ADDGF100991999999999999999999
0029029720999991901090613004+60450+022267FM-12+001499999V0203601N002619999999N0000001N9+01391+99999102061ADDGF102991999999999999999999
0000029720999991901090606004+60450+022267FM-12+001499999V0200201N006719999999N0000001N9+00781+99999102061
0029029720999991901090520004+60450+022267FM-12+001499999V0209991C000019999999N0000001N9+00941+99999102041ADDGF108991999999999999999999
0029029720999991901090513004+60450+022267FM-12+001499999V0200201N006719999999N0000001N9+01221+99999101911ADDGF108991999999999999999999
0029029720999991901090506004+60450+022267FM-12+001499999V0203601N002619999999N0000001N9+00671+99999101921ADDGF107991999999999999999999
0029029720999991901090420004+60450+022267FM-12+001499999V0203201N002619999999N0000001N9+00781+99999101841ADDGF101991999999999999999999
0029029720999991901090413004+60450+022267FM-12+001499999V0203601N004619999999N0000001N9+01281+99999101981ADDGF108991999999999999999999
0029029720999991901090406004+60450+022267FM-12+001499999V0209991C000019999999N0000001N9+00781+99999101881ADDGF100991999999999999999999
0029029720999991901090320004+60450+022267FM-12+001499999V0203201N002619999999N0000001N9+00781+99999101521ADDGF108991999999999999999999
0029029720999991901090313004+60450+022267FM-12+001499999V0200201N006719999999N0000001N9+01111+99999101191ADDGF108991999999999999999999
0029029720999991901090306004+60450+022267FM-12+001499999V0203601N006719999999N0000001N9+00781+99999100701ADDGF108991999999999999999999
0029029720999991901090220004+60450+022267FM-12+001499999V0203201N004619999999N0000001N9+00721+99999100421ADDGF108991999999999999999999
0029029720999991901090213004+60450+022267FM-12+001499999V0203601N012319999999N0000001N9+01171+99999100241ADDGF108991999999999999999999
0029029720999991901090206004+60450+022267FM-12+001499999V0203601N009319999999N0000001N9+00721+99999999999ADDGF101991999999999999999999
0029029720999991901090120004+60450+022267FM-12+001499999V0200501N006719999999N0000001N9+00831+99999099861ADDGF108991999999999999999999
0029029720999991901090113004+60450+022267FM-12+001499999V0203601N009319999999N0000001N9+01111+99999099751ADDGF108991999999999999999999
0029029720999991901090106004+60450+022267FM-12+001499999V0203601N004619999999N0000001N9+00781+99999099781ADDGF108991999999999999999999
0029029720999991901083120004+60450+022267FM-12+001499999V0209991C000019999999N0000001N9+01221+99999100021ADDGF108991999999999999999999
0029029720999991901083113004+60450+022267FM-12+001499999V0203201N009319999999N0000001N9+01721+99999100191ADDGF104991999999999999999999
0029029720999991901083106004+60450+022267FM-12+001499999V0203601N002619999999N0000001N9+01391+99999100321ADDGF103991999999999999999999
0029029720999991901083020004+60450+022267FM-12+001499999V0209991C000019999999N0000001N9+01281+99999100061ADDGF108991999999999999999999
0029029720999991901083013004+60450+022267FM-12+001499999V0202301N006719999999N0000001N9+01891+99999100241ADDGF104991999999999999999999
0029029720999991901083006004+60450+022267FM-12+001499999V0201601N006719999999N0000001N9+01281+99999099881ADDGF108991999999999999999999
0029029720999991901082920004+60450+022267FM-12+001499999V0203201N006719999999N0000001N9+01171+99999099841ADDGF108991999999999999999999
0029029720999991901082913004+60450+022267FM-12+001499999V0203201N004619999999N0000001N9+01561+99999099761ADDGF108991999999999999999999
0029029720999991901082906004+60450+022267FM-12+001499999V0209991C000019999999N0000001N9+01501+99999099681ADDGF107991999999999999999999
0029029720999991901082820004+60450+022267FM-12+001499999V0209991C000019999999N0000001N9+01331+99999099801ADDGF108991999999999999999999
0029029720999991901082813004+60450+022267FM-12+001499999V0202501N004619999999N0000001N9+01721+99999099701ADDGF108991999999999999999999
0029029720999991901082806004+60450+022267FM-12+001499999V0200901N002619999999N0000001N9+01721+99999099601ADDGF108991999999999999999999
0029029720999991901082720004+60450+022267FM-12+001499999V0201401N015419999999N0000001N9+01891+99999099821ADDGF108991999999999999999999
0029029720999991901082713004+60450+022267FM-12+001499999V0201401N015419999999N0000001N9+02111+99999100201ADDGF107991999999999999999999
0029029720999991901082706004+60450+022267FM-12+001499999V0200901N009319999999N0000001N9+01781+99999100341ADDGF100991999999999999999999
0029029720999991901082620004+60450+022267FM-12+001499999V0201601N004619999999N0000001N9+01501+99999100381ADDGF108991999999999999999999
0029029720999991901082613004+60450+022267FM-12+001499999V0202501N006719999999N0000001N9+01831+99999100461ADDGF108991999999999999999999
0029029720999991901082606004+60450+022267FM-12+001499999V0201401N002619999999N0000001N9+01441+99999100351ADDGF108991999999999999999999
0029029720999991901082520004+60450+022267FM-12+001499999V0203201N002619999999N0000001N9+00941+99999100601ADDGF101991999999999999999999
0029029720999991901082513004+60450+022267FM-12+001499999V0202701N012319999999N0000001N9+01611+99999100591ADDGF104991999999999999999999
0029029720999991901082506004+60450+022267FM-12+001499999V0203401N006719999999N0000001N9+01441+99999100561ADDGF102991999999999999999999
0029029720999991901082420004+60450+022267FM-12+001499999V0203201N009319999999N0000001N9+01221+99999100441ADDGF108991999999999999999999
0029029720999991901082413004+60450+022267FM-12+001499999V0203601N012319999999N0000001N9+01561+99999100201ADDGF108991999999999999999999
0029029720999991901082406004+60450+022267FM-12+001499999V0203201N009319999999N0000001N9+01611+99999100071ADDGF100991999999999999999999
0029029720999991901082320004+60450+022267FM-12+001499999V0203201N009319999999N0000001N9+01331+99999999999ADDGF103991999999999999999999
0029029720999991901082313004+60450+022267FM-12+001499999V0202701N009319999999N0000001N9+01561+99999100101ADDGF107991999999999999999999
0029029720999991901082306004+60450+022267FM-12+001499999V0201801N006719999999N0000001N9+01891+99999100271ADDGF106991999999999999999999
0029029720999991901082220004+60450+022267FM-12+001499999V0209991C000019999999N0000001N9+01391+99999101191ADDGF100991999999999999999999
0029029720999991901082213004+60450+022267FM-12+001499999V0202901N009319999999N0000001N9+01941+99999101551ADDGF108991999999999999999999
0029029720999991901082206004+60450+022267FM-12+001499999V0209991C000019999999N0000001N9+01721+99999101701ADDGF100991999999999999999999
0029029720999991901082120004+60450+022267FM-12+001499999V0203201N004619999999N0000001N9+01331+99999101561ADDGF100991999999999999999999
0029029720999991901082113004+60450+022267FM-12+001499999V0203201N009319999999N0000001N9+02061+99999101351ADDGF105991999999999999999999
0029029720999991901082106004+60450+022267FM-12+001499999V0203601N002619999999N0000001N9+01561+99999101261ADDGF100991999999999999999999
0029029720999991901082020004+60450+022267FM-12+001499999V0200201N004619999999N0000001N9+01281+99999101021ADDGF101991999999999999999999
0029029720999991901082013004+60450+022267FM-12+001499999V0201801N002619999999N0000001N9+01831+99999100991ADDGF108991999999999999999999
0029029720999991901082006004+60450+022267FM-12+001499999V0209991C000019999999N0000001N9+01831+99999101061ADDGF103991999999999999999999
0029029720999991901081920004+60450+022267FM-12+001499999V0203201N009319999999N0000001N9+01561+99999101301ADDGF103991999999999999999999
0029029720999991901081913004+60450+022267FM-12+001499999V0202501N012319999999N0000001N9+02111+99999101221ADDGF108991999999999999999999
0029029720999991901081906004+60450+022267FM-12+001499999V0203201N004619999999N0000001N9+02111+99999101501ADDGF100991999999999999999999
0029029720999991901081820004+60450+022267FM-12+001499999V0203201N009319999999N0000001N9+01671+99999101511ADDGF100991999999999999999999
0029029720999991901081813004+60450+022267FM-12+001499999V0203201N006719999999N0000001N9+02221+99999101521ADDGF107991999999999999999999
0029029720999991901081806004+60450+022267FM-12+001499999V0209991C000019999999N0000001N9+01831+99999101401ADDGF108991999999999999999999
0029029720999991901081720004+60450+022267FM-12+001499999V0201101N004619999999N0000001N9+02001+99999101471ADDGF108991999999999999999999
0029029720999991901081713004+60450+022267FM-12+001499999V0201801N009319999999N0000001N9+02671+99999101461ADDGF108991999999999999999999
0029029720999991901081706004+60450+022267FM-12+001499999V0200901N002619999999N0000001N9+02331+99999101421ADDGF100991999999999999999999
0029029720999991901081620004+60450+022267FM-12+001499999V0201801N004619999999N0000001N9+02061+99999101381ADDGF108991999999999999999999
0029029720999991901081613004+60450+022267FM-12+001499999V0201801N006719999999N0000001N9+02671+99999101361ADDGF100991999999999999999999
0029029720999991901081606004+60450+022267FM-12+001499999V0201101N009319999999N0000001N9+02171+99999101351ADDGF108991999999999999999999
0029029720999991901081520004+60450+022267FM-12+001499999V0200901N009319999999N0000001N9+02171+99999101581ADDGF108991999999999999999999
0029029720999991901081513004+60450+022267FM-12+001499999V0200701N012319999999N0000001N9+02671+99999101721ADDGF108991999999999999999999
0029029720999991901081506004+60450+022267FM-12+001499999V0200501N006719999999N0000001N9+02111+99999101911ADDGF100991999999999999999999
0029029720999991901081420004+60450+022267FM-12+001499999V0209991C000019999999N0000001N9+02061+99999102161ADDGF100991999999999999999999
0029029720999991901081413004+60450+022267FM-12+001499999V0200701N006719999999N0000001N9+02781+99999102191ADDGF102991999999999999999999
0029029720999991901081406004+60450+022267FM-12+001499999V0200701N006719999999N0000001N9+02331+99999102311ADDGF100991999999999999999999
0029029720999991901081320004+60450+022267FM-12+001499999V0209991C000019999999N0000001N9+02111+99999102101ADDGF100991999999999999999999
0029029720999991901081313004+60450+022267FM-12+001499999V0201601N009319999999N0000001N9+02831+99999102031ADDGF100991999999999999999999
0029029720999991901081306004+60450+022267FM-12+001499999V0209991C000019999999N0000001N9+02171+99999102001ADDGF100991999999999999999999
0029029720999991901081220004+60450+022267FM-12+001499999V0209991C000019999999N0000001N9+01941+99999102031ADDGF100991999999999999999999
0029029720999991901081213004+60450+022267FM-12+001499999V0202701N004619999999N0000001N9+02611+99999102071ADDGF100991999999999999999999
0029029720999991901081206004+60450+022267FM-12+001499999V0209991C000019999999N0000001N9+02171+99999102081ADDGF100991999999999999999999
0029029720999991901081120004+60450+022267FM-12+001499999V0202301N001019999999N0000001N9+01721+99999101911ADDGF100991999999999999999999
0029029720999991901081113004+60450+022267FM-12+001499999V0202301N009319999999N0000001N9+02391+99999101941ADDGF100991999999999999999999
0029029720999991901081106004+60450+022267FM-12+001499999V0201101N001019999999N0000001N9+02111+99999101991ADDGF102991999999999999999999
0029029720999991901081020004+60450+022267FM-12+001499999V0203201N001019999999N0000001N9+01781+99999101901ADDGF100991999999999999999999
0029029720999991901081013004+60450+022267FM-12+001499999V0202701N004619999999N0000001N9+02391+99999101821ADDGF105991999999999999999999
0029029720999991901081006004+60450+022267FM-12+001499999V0203601N001019999999N0000001N9+01891+99999101791ADDGF100991999999999999999999
0029029720999991901080920004+60450+022267FM-12+001499999V0203201N006719999999N0000001N9+01441+99999101301ADDGF100991999999999999999999
0029029720999991901080913004+60450+022267FM-12+001499999V0202501N004619999999N0000001N9+01831+99999100871ADDGF107991999999999999999999
0029029720999991901080906004+60450+022267FM-12+001499999V0201101N001019999999N0000001N9+02111+99999100621ADDGF104991999999999999999999
0029029720999991901080820004+60450+022267FM-12+001499999V0202301N009319999999N0000001N9+01721+99999100541ADDGF106991999999999999999999
0029029720999991901080813004+60450+022267FM-12+001499999V0202501N006719999999N0000001N9+02171+99999100471ADDGF105991999999999999999999
0029029720999991901080806004+60450+022267FM-12+001499999V0209991C000019999999N0000001N9+01611+99999100501ADDGF108991999999999999999999
0029029720999991901080720004+60450+022267FM-12+001499999V0200501N004619999999N0000001N9+01501+99999100321ADDGF103991999999999999999999
0029029720999991901080713004+60450+022267FM-12+001499999V0201401N006719999999N0000001N9+02001+99999100231ADDGF108991999999999999999999
0029029720999991901080706004+60450+022267FM-12+001499999V0200701N006719999999N0000001N9+01441+99999100261ADDGF108991999999999999999999
0029029720999991901080620004+60450+022267FM-12+001499999V0202301N006719999999N0000001N9+01611+99999100241ADDGF108991999999999999999999
0029029720999991901080613004+60450+022267FM-12+001499999V0202001N012319999999N0000001N9+02061+99999100111ADDGF104991999999999999999999
0029029720999991901080606004+60450+022267FM-12+001499999V0202001N009319999999N0000001N9+01781+99999100101ADDGF108991999999999999999999
0029029720999991901080520004+60450+022267FM-12+001499999V0202001N009319999999N0000001N9+01721+99999100231ADDGF108991999999999999999999
0029029720999991901080513004+60450+022267FM-12+001499999V0202001N015419999999N0000001N9+02001+99999100181ADDGF108991999999999999999999
0029029720999991901080506004+60450+022267FM-12+001499999V0201801N015419999999N0000001N9+01891+99999100321ADDGF108991999999999999999999
0029029720999991901080420004+60450+022267FM-12+001499999V0201801N004619999999N0000001N9+01891+99999100831ADDGF108991999999999999999999
0029029720999991901080413004+60450+022267FM-12+001499999V0201801N006719999999N0000001N9+02111+99999101151ADDGF108991999999999999999999
0029029720999991901080406004+60450+022267FM-12+001499999V0209991C000019999999N0000001N9+01941+99999101281ADDGF104991999999999999999999
0029029720999991901080320004+60450+022267FM-12+001499999V0203201N009319999999N0000001N9+01501+99999101101ADDGF107991999999999999999999
0029029720999991901080313004+60450+022267FM-12+001499999V0203201N012319999999N0000001N9+02111+99999100801ADDGF106991999999999999999999
0029029720999991901080306004+60450+022267FM-12+001499999V0209991C000019999999N0000001N9+02001+99999100471ADDGF107991999999999999999999
0029029720999991901080220004+60450+022267FM-12+001499999V0201601N012319999999N0000001N9+02061+99999100501ADDGF104991999999999999999999
0029029720999991901080213004+60450+022267FM-12+001499999V0201601N012319999999N0000001N9+02611+99999100861ADDGF107991999999999999999999
0029029720999991901080206004+60450+022267FM-12+001499999V0201601N006719999999N0000001N9+02281+99999101191ADDGF100991999999999999999999
0029029720999991901080120004+60450+022267FM-12+001499999V0203201N002619999999N0000001N9+01831+99999101351ADDGF100991999999999999999999
0029029720999991901080113004+60450+022267FM-12+001499999V0202501N002619999999N0000001N9+02561+99999101351ADDGF100991999999999999999999
0029029720999991901080106004+60450+022267FM-12+001499999V0209991C000019999999N0000001N9+02111+99999101391ADDGF102991999999999999999999
0029029720999991901073120004+60450+022267FM-12+001499999V0203201N004619999999N0000001N9+01781+99999101231ADDGF106991999999999999999999
0029029720999991901073113004+60450+022267FM-12+001499999V0202901N015419999999N0000001N9+02561+99999100901ADDGF106991999999999999999999
0029029720999991901073106004+60450+022267FM-12+001499999V0201801N006719999999N0000001N9+02171+99999100861ADDGF108991999999999999999999
0029029720999991901073020004+60450+022267FM-12+001499999V0203201N004619999999N0000001N9+02111+99999101301ADDGF101991999999999999999999
0029029720999991901073013004+60450+022267FM-12+001499999V0202301N015419999999N0000001N9+02611+99999101201ADDGF107991999999999999999999
0029029720999991901073006004+60450+022267FM-12+001499999V0202301N004619999999N0000001N9+02441+99999101231ADDGF107991999999999999999999
0029029720999991901072920004+60450+022267FM-12+001499999V0201601N002619999999N0000001N9+02111+99999101351ADDGF101991999999999999999999
0029029720999991901072913004+60450+022267FM-12+001499999V0201801N009319999999N0000001N9+02671+99999101501ADDGF101991999999999999999999
0029029720999991901072906004+60450+022267FM-12+001499999V0201801N009319999999N0000001N9+02391+99999101461ADDGF107991999999999999999999
0029029720999991901072820004+60450+022267FM-12+001499999V0202301N004619999999N0000001N9+02331+99999101271ADDGF100991999999999999999999
0029029720999991901072813004+60450+022267FM-12+001499999V0202001N012319999999N0000001N9+03001+99999101191ADDGF100991999999999999999999
0029029720999991901072806004+60450+022267FM-12+001499999V0200501N002619999999N0000001N9+02501+99999101271ADDGF100991999999999999999999
0029029720999991901072720004+60450+022267FM-12+001499999V0202301N001019999999N0000001N9+02221+99999101301ADDGF105991999999999999999999
0029029720999991901072713004+60450+022267FM-12+001499999V0202301N004619999999N0000001N9+02781+99999101301ADDGF108991999999999999999999
0029029720999991901072706004+60450+022267FM-12+001499999V0209991C000019999999N0000001N9+02391+99999101361ADDGF107991999999999999999999
0029029720999991901072620004+60450+022267FM-12+001499999V0203601N001019999999N0000001N9+02221+99999101681ADDGF102991999999999999999999
0029029720999991901072613004+60450+022267FM-12+001499999V0201101N009319999999N0000001N9+02781+99999101641ADDGF100991999999999999999999
0029029720999991901072606004+60450+022267FM-12+001499999V0209991C000019999999N0000001N9+02561+99999101741ADDGF100991999999999999999999
0029029720999991901072520004+60450+022267FM-12+001499999V0209991C000019999999N0000001N9+02221+99999101661ADDGF100991999999999999999999
0029029720999991901072513004+60450+022267FM-12+001499999V0201601N006719999999N0000001N9+02781+99999101581ADDGF100991999999999999999999
0029029720999991901072506004+60450+022267FM-12+001499999V0200901N006719999999N0000001N9+02501+99999101601ADDGF100991999999999999999999
0029029720999991901072420004+60450+022267FM-12+001499999V0200901N004619999999N0000001N9+02221+99999101481ADDGF100991999999999999999999
0029029720999991901072413004+60450+022267FM-12+001499999V0201801N012319999999N0000001N9+02441+99999101441ADDGF100991999999999999999999
0029029720999991901072406004+60450+022267FM-12+001499999V0201101N012319999999N0000001N9+02441+99999101421ADDGF100991999999999999999999
0029029720999991901072320004+60450+022267FM-12+001499999V0200901N006719999999N0000001N9+02221+99999101391ADDGF102991999999999999999999
0029029720999991901072313004+60450+022267FM-12+001499999V0201801N009319999999N0000001N9+02831+99999101361ADDGF101991999999999999999999
0029029720999991901072306004+60450+022267FM-12+001499999V0200901N006719999999N0000001N9+02501+99999101421ADDGF102991999999999999999999
0029029720999991901072220004+60450+022267FM-12+001499999V0202701N004619999999N0000001N9+02331+99999101551ADDGF102991999999999999999999
0029029720999991901072213004+60450+022267FM-12+001499999V0200201N001019999999N0000001N9+03171+99999101681ADDGF101991999999999999999999
0029029720999991901072206004+60450+022267FM-12+001499999V0209991C000019999999N0000001N9+02721+99999101861ADDGF100991999999999999999999
0029029720999991901072120004+60450+022267FM-12+001499999V0203201N002619999999N0000001N9+02561+99999101941ADDGF100991999999999999999999
0029029720999991901072113004+60450+022267FM-12+001499999V0202501N006719999999N0000001N9+03111+99999102121ADDGF100991999999999999999999
0029029720999991901072106004+60450+022267FM-12+001499999V0209991C000019999999N0000001N9+02561+99999102261ADDGF100991999999999999999999
0029029720999991901072020004+60450+022267FM-12+001499999V0209991C000019999999N0000001N9+02441+99999102261ADDGF106991999999999999999999
0029029720999991901072013004+60450+022267FM-12+001499999V0203401N002619999999N0000001N9+03111+99999102301ADDGF102991999999999999999999
0029029720999991901072006004+60450+022267FM-12+001499999V0209991C000019999999N0000001N9+02501+99999102401ADDGF100991999999999999999999
0029029720999991901071920004+60450+022267FM-12+001499999V0203601N001019999999N0000001N9+02331+99999102321ADDGF102991999999999999999999
0029029720999991901071913004+60450+022267FM-12+001499999V0202701N006719999999N0000001N9+02781+99999102471ADDGF100991999999999999999999
0029029720999991901071906004+60450+022267FM-12+001499999V0200501N004619999999N0000001N9+02391+99999102511ADDGF100991999999999999999999
0029029720999991901071820004+60450+022267FM-12+001499999V0209991C000019999999N0000001N9+02111+99999102311ADDGF102991999999999999999999
0029029720999991901071813004+60450+022267FM-12+001499999V0202701N012319999999N0000001N9+02781+99999102221ADDGF108991999999999999999999
0029029720999991901071806004+60450+022267FM-12+001499999V0209991C000019999999N0000001N9+02281+99999102061ADDGF104991999999999999999999
0029029720999991901071720004+60450+022267FM-12+001499999V0203601N001019999999N0000001N9+01831+99999101841ADDGF100991999999999999999999
0029029720999991901071713004+60450+022267FM-12+001499999V0203201N009319999999N0000001N9+02441+99999101661ADDGF102991999999999999999999
0029029720999991901071706004+60450+022267FM-12+001499999V0209991C000019999999N0000001N9+01831+99999101511ADDGF101991999999999999999999
0029029720999991901071620004+60450+022267FM-12+001499999V0209991C000019999999N0000001N9+02171+99999101271ADDGF106991999999999999999999
0029029720999991901071613004+60450+022267FM-12+001499999V0202001N012319999999N0000001N9+02781+99999101111ADDGF105991999999999999999999
0029029720999991901071606004+60450+022267FM-12+001499999V0201401N009319999999N0000001N9+02391+99999101141ADDGF102991999999999999999999
0029029720999991901071520004+60450+022267FM-12+001499999V0200901N006719999999N0000001N9+02061+99999101121ADDGF106991999999999999999999
0029029720999991901071513004+60450+022267FM-12+001499999V0200501N002619999999N0000001N9+02781+99999101071ADDGF107991999999999999999999
0029029720999991901071506004+60450+022267FM-12+001499999V0200201N006719999999N0000001N9+02111+99999101101ADDGF107991999999999999999999
0029029720999991901071420004+60450+022267FM-12+001499999V0202701N004619999999N0000001N9+02391+99999100941ADDGF102991999999999999999999
0029029720999991901071413004+60450+022267FM-12+001499999V0202301N012319999999N0000001N9+02501+99999100921ADDGF108991999999999999999999
0029029720999991901071406004+60450+022267FM-12+001499999V0201801N006719999999N0000001N9+01891+99999100951ADDGF101991999999999999999999
0029029720999991901071320004+60450+022267FM-12+001499999V0209991C000019999999N0000001N9+01941+99999101031ADDGF100991999999999999999999
0029029720999991901071313004+60450+022267FM-12+001499999V0202701N006719999999N0000001N9+02671+99999101101ADDGF100991999999999999999999
0029029720999991901071306004+60450+022267FM-12+001499999V0209991C000019999999N0000001N9+02331+99999101021ADDGF100991999999999999999999
0029029720999991901071220004+60450+022267FM-12+001499999V0203601N002619999999N0000001N9+02281+99999101121ADDGF103991999999999999999999
0029029720999991901071213004+60450+022267FM-12+001499999V0203601N002619999999N0000001N9+02891+99999101001ADDGF104991999999999999999999
0029029720999991901071206004+60450+022267FM-12+001499999V0200201N004619999999N0000001N9+02111+99999101121ADDGF102991999999999999999999
0029029720999991901071120004+60450+022267FM-12+001499999V0201801N006719999999N0000001N9+01831+99999101241ADDGF103991999999999999999999
0029029720999991901071113004+60450+022267FM-12+001499999V0202301N012319999999N0000001N9+02561+99999101481ADDGF100991999999999999999999
0029029720999991901071106004+60450+022267FM-12+001499999V0201801N002619999999N0000001N9+02501+99999101501ADDGF100991999999999999999999
0029029720999991901071020004+60450+022267FM-12+001499999V0200201N001019999999N0000001N9+02281+99999101441ADDGF100991999999999999999999
0029029720999991901071013004+60450+022267FM-12+001499999V0203601N004619999999N0000001N9+02831+99999101401ADDGF101991999999999999999999
0029029720999991901071006004+60450+022267FM-12+001499999V0203601N004619999999N0000001N9+02171+99999101581ADDGF100991999999999999999999
0029029720999991901070920004+60450+022267FM-12+001499999V0203601N002619999999N0000001N9+01831+99999101471ADDGF100991999999999999999999
0029029720999991901070913004+60450+022267FM-12+001499999V0203201N006719999999N0000001N9+02671+99999101301ADDGF104991999999999999999999
0029029720999991901070906004+60450+022267FM-12+001499999V0200201N004619999999N0000001N9+01561+99999101001ADDGF108991999999999999999999
0029029720999991901070820004+60450+022267FM-12+001499999V0203201N012319999999N0000001N9+01561+99999100721ADDGF100991999999999999999999
0029029720999991901070813004+60450+022267FM-12+001499999V0203201N012319999999N0000001N9+01781+99999100741ADDGF108991999999999999999999
0029029720999991901070806004+60450+022267FM-12+001499999V0202901N015419999999N0000001N9+01721+99999100791ADDGF108991999999999999999999
0029029720999991901070720004+60450+022267FM-12+001499999V0203201N006719999999N0000001N9+02111+99999100821ADDGF108991999999999999999999
0029029720999991901070713004+60450+022267FM-12+001499999V0203601N006719999999N0000001N9+02611+99999100721ADDGF103991999999999999999999
0029029720999991901070706004+60450+022267FM-12+001499999V0202301N006719999999N0000001N9+02171+99999100751ADDGF102991999999999999999999
0029029720999991901070620004+60450+022267FM-12+001499999V0209991C000019999999N0000001N9+01671+99999100831ADDGF100991999999999999999999
0029029720999991901070613004+60450+022267FM-12+001499999V0203201N009319999999N0000001N9+02561+99999100741ADDGF102991999999999999999999
0029029720999991901070606004+60450+022267FM-12+001499999V0203201N006719999999N0000001N9+01941+99999100741ADDGF100991999999999999999999
0029029720999991901070520004+60450+022267FM-12+001499999V0203601N002619999999N0000001N9+01831+99999100481ADDGF107991999999999999999999
0029029720999991901070513004+60450+022267FM-12+001499999V0200201N012319999999N0000001N9+02221+99999100351ADDGF102991999999999999999999
0029029720999991901070506004+60450+022267FM-12+001499999V0203601N006719999999N0000001N9+01831+99999100401ADDGF101991999999999999999999
0029029720999991901070420004+60450+022267FM-12+001499999V0200201N006719999999N0000001N9+01611+99999100241ADDGF108991999999999999999999
0029029720999991901070413004+60450+022267FM-12+001499999V0200201N012319999999N0000001N9+01941+99999100041ADDGF103991999999999999999999
0029029720999991901070406004+60450+022267FM-12+001499999V0203601N006719999999N0000001N9+01221+99999100191ADDGF108991999999999999999999
0029029720999991901070320004+60450+022267FM-12+001499999V0203601N004619999999N0000001N9+01441+99999100441ADDGF108991999999999999999999
0029029720999991901070313004+60450+022267FM-12+001499999V0200501N012319999999N0000001N9+01671+99999100441ADDGF107991999999999999999999
0029029720999991901070306004+60450+022267FM-12+001499999V0203601N006719999999N0000001N9+01561+99999100511ADDGF100991999999999999999999
0029029720999991901070220004+60450+022267FM-12+001499999V0203601N004619999999N0000001N9+01391+99999100601ADDGF101991999999999999999999
0029029720999991901070213004+60450+022267FM-12+001499999V0200201N009319999999N0000001N9+01891+99999100561ADDGF107991999999999999999999
0029029720999991901070206004+60450+022267FM-12+001499999V0200201N009319999999N0000001N9+01721+99999100791ADDGF100991999999999999999999
0029029720999991901070120004+60450+022267FM-12+001499999V0203601N004619999999N0000001N9+01391+99999101021ADDGF102991999999999999999999
0029029720999991901070113004+60450+022267FM-12+001499999V0203201N006719999999N0000001N9+01611+99999101181ADDGF108991999999999999999999
0029029720999991901070106004+60450+022267FM-12+001499999V0203601N006719999999N0000001N9+01501+99999101341ADDGF105991999999999999999999
0029029720999991901063020004+60450+022267FM-12+001499999V0203401N006719999999N0000001N9+01501+99999101671ADDGF108991999999999999999999
0029029720999991901063013004+60450+022267FM-12+001499999V0203201N009319999999N0000001N9+01831+99999101801ADDGF106991999999999999999999
0029029720999991901063006004+60450+022267FM-12+001499999V0200201N006719999999N0000001N9+01891+99999101941ADDGF100991999999999999999999
0029029720999991901062920004+60450+022267FM-12+001499999V0203601N004619999999N0000001N9+01611+99999101791ADDGF105991999999999999999999
0029029720999991901062913004+60450+022267FM-12+001499999V0203601N006719999999N0000001N9+01831+99999101631ADDGF108991999999999999999999
0029029720999991901062906004+60450+022267FM-12+001499999V0203201N009319999999N0000001N9+01781+99999101431ADDGF108991999999999999999999
0029029720999991901062820004+60450+022267FM-12+001499999V0203201N006719999999N0000001N9+01441+99999101191ADDGF108991999999999999999999
0029029720999991901062813004+60450+022267FM-12+001499999V0202701N009319999999N0000001N9+01721+99999101081ADDGF106991999999999999999999
0029029720999991901062806004+60450+022267FM-12+001499999V0202701N006719999999N0000001N9+01501+99999100601ADDGF108991999999999999999999
0029029720999991901062720004+60450+022267FM-12+001499999V0200901N006719999999N0000001N9+01171+99999101041ADDGF108991999999999999999999
0029029720999991901062713004+60450+022267FM-12+001499999V0201801N012319999999N0000001N9+01671+99999101311ADDGF108991999999999999999999
0029029720999991901062706004+60450+022267FM-12+001499999V0202301N012319999999N0000001N9+01391+99999101261ADDGF108991999999999999999999
0029029720999991901062620004+60450+022267FM-12+001499999V0202001N012319999999N0000001N9+01441+99999101221ADDGF108991999999999999999999
0029029720999991901062613004+60450+022267FM-12+001499999V0202301N012319999999N0000001N9+02391+99999101031ADDGF106991999999999999999999
0029029720999991901062606004+60450+022267FM-12+001499999V0200901N002619999999N0000001N9+02281+99999101191ADDGF104991999999999999999999
0029029720999991901062520004+60450+022267FM-12+001499999V0209991C000019999999N0000001N9+02061+99999101341ADDGF100991999999999999999999
0029029720999991901062513004+60450+022267FM-12+001499999V0202001N009319999999N0000001N9+02611+99999101421ADDGF102991999999999999999999
0029029720999991901062506004+60450+022267FM-12+001499999V0200901N006719999999N0000001N9+02281+99999101561ADDGF108991999999999999999999
0029029720999991901062420004+60450+022267FM-12+001499999V0201401N004619999999N0000001N9+02221+99999101751ADDGF101991999999999999999999
0029029720999991901062413004+60450+022267FM-12+001499999V0201401N012319999999N0000001N9+02671+99999101791ADDGF100991999999999999999999
0029029720999991901062406004+60450+022267FM-12+001499999V0200901N006719999999N0000001N9+02441+99999101801ADDGF100991999999999999999999
0029029720999991901062320004+60450+022267FM-12+001499999V0201801N004619999999N0000001N9+02111+99999101791ADDGF101991999999999999999999
0029029720999991901062313004+60450+022267FM-12+001499999V0200501N004619999999N0000001N9+02781+99999101781ADDGF108991999999999999999999
0029029720999991901062306004+60450+022267FM-12+001499999V0209991C000019999999N0000001N9+01891+99999101961ADDGF108991999999999999999999
0029029720999991901062220004+60450+022267FM-12+001499999V0209991C000019999999N0000001N9+01891+99999101791ADDGF105991999999999999999999
0029029720999991901062213004+60450+022267FM-12+001499999V0200501N002619999999N0000001N9+02391+99999101791ADDGF108991999999999999999999
0029029720999991901062206004+60450+022267FM-12+001499999V0200201N006719999999N0000001N9+01941+99999101801ADDGF108991999999999999999999
0029029720999991901062120004+60450+022267FM-12+001499999V0203401N002619999999N0000001N9+01781+99999101881ADDGF107991999999999999999999
0029029720999991901062113004+60450+022267FM-12+001499999V0202701N006719999999N0000001N9+02001+99999102041ADDGF108991999999999999999999
0029029720999991901062106004+60450+022267FM-12+001499999V0201601N002619999999N0000001N9+01721+99999102201ADDGF106991999999999999999999
0029029720999991901062020004+60450+022267FM-12+001499999V0201801N004619999999N0000001N9+01391+99999102161ADDGF105991999999999999999999
0029029720999991901062013004+60450+022267FM-12+001499999V0202001N009319999999N0000001N9+01671+99999102071ADDGF100991999999999999999999
0029029720999991901062006004+60450+022267FM-12+001499999V0201601N009319999999N0000001N9+01721+99999101801ADDGF108991999999999999999999
0029029720999991901061920004+60450+022267FM-12+001499999V0201801N006719999999N0000001N9+01221+99999101511ADDGF108991999999999999999999
0029029720999991901061913004+60450+022267FM-12+001499999V0201801N006719999999N0000001N9+01611+99999101261ADDGF108991999999999999999999
0029029720999991901061906004+60450+022267FM-12+001499999V0200701N004619999999N0000001N9+01671+99999100981ADDGF108991999999999999999999
0029029720999991901061820004+60450+022267FM-12+001499999V0200501N012319999999N0000001N9+01501+99999101141ADDGF108991999999999999999999
0029029720999991901061813004+60450+022267FM-12+001499999V0200901N012319999999N0000001N9+02111+99999101231ADDGF108991999999999999999999
0029029720999991901061806004+60450+022267FM-12+001499999V0200501N006719999999N0000001N9+01941+99999101301ADDGF108991999999999999999999
0029029720999991901061720004+60450+022267FM-12+001499999V0202501N001019999999N0000001N9+01501+99999101191ADDGF108991999999999999999999
0029029720999991901061713004+60450+022267FM-12+001499999V0201401N006719999999N0000001N9+01941+99999100941ADDGF106991999999999999999999
0029029720999991901061706004+60450+022267FM-12+001499999V0201101N009319999999N0000001N9+01941+99999100781ADDGF102991999999999999999999
0029029720999991901061620004+60450+022267FM-12+001499999V0209991C000019999999N0000001N9+01331+99999100561ADDGF108991999999999999999999
0029029720999991901061613004+60450+022267FM-12+001499999V0200901N002619999999N0000001N9+01331+99999100351ADDGF108991999999999999999999
0029029720999991901061606004+60450+022267FM-12+001499999V0209991C000019999999N0000001N9+01001+99999100111ADDGF108991999999999999999999
0029029720999991901061520004+60450+022267FM-12+001499999V0201401N002619999999N0000001N9+01171+99999100391ADDGF102991999999999999999999
0029029720999991901061513004+60450+022267FM-12+001499999V0202301N009319999999N0000001N9+01671+99999100501ADDGF100991999999999999999999
0029029720999991901061506004+60450+022267FM-12+001499999V0202001N009319999999N0000001N9+01501+99999100341ADDGF100991999999999999999999
0029029720999991901061420004+60450+022267FM-12+001499999V0201801N009319999999N0000001N9+01001+99999100041ADDGF102991999999999999999999
0029029720999991901061413004+60450+022267FM-12+001499999V0202701N015419999999N0000001N9+01111+99999099261ADDGF108991999999999999999999
0029029720999991901061406004+60450+022267FM-12+001499999V0202001N009319999999N0000001N9+01111+99999098301ADDGF106991999999999999999999
0029029720999991901061320004+60450+022267FM-12+001499999V0200901N006719999999N0000001N9+01061+99999099321ADDGF108991999999999999999999
0029029720999991901061313004+60450+022267FM-12+001499999V0202301N009319999999N0000001N9+01281+99999099561ADDGF106991999999999999999999
0029029720999991901061306004+60450+022267FM-12+001499999V0202001N015419999999N0000001N9+01061+99999099431ADDGF102991999999999999999999
0029029720999991901061220004+60450+022267FM-12+001499999V0201801N015419999999N0000001N9+00941+99999099241ADDGF100991999999999999999999
0029029720999991901061213004+60450+022267FM-12+001499999V0202301N022619999999N0000001N9+01281+99999099341ADDGF108991999999999999999999
0029029720999991901061206004+60450+022267FM-12+001499999V0202001N019019999999N0000001N9+01061+99999099341ADDGF108991999999999999999999
0029029720999991901061120004+60450+022267FM-12+001499999V0201801N012319999999N0000001N9+01331+99999099481ADDGF108991999999999999999999
0029029720999991901061113004+60450+022267FM-12+001499999V0201401N009319999999N0000001N9+01781+99999099831ADDGF108991999999999999999999
0029029720999991901061106004+60450+022267FM-12+001499999V0201601N006719999999N0000001N9+01441+99999100511ADDGF108991999999999999999999
0029029720999991901061020004+60450+022267FM-12+001499999V0201801N009319999999N0000001N9+01331+99999100901ADDGF108991999999999999999999
0029029720999991901061013004+60450+022267FM-12+001499999V0201801N012319999999N0000001N9+02111+99999101021ADDGF108991999999999999999999
0029029720999991901061006004+60450+022267FM-12+001499999V0201401N006719999999N0000001N9+01561+99999100961ADDGF108991999999999999999999
0029029720999991901060920004+60450+022267FM-12+001499999V0201101N009319999999N0000001N9+02111+99999101241ADDGF102991999999999999999999
0029029720999991901060913004+60450+022267FM-12+001499999V0201801N012319999999N0000001N9+02391+99999101511ADDGF103991999999999999999999
0029029720999991901060906004+60450+022267FM-12+001499999V0201401N009319999999N0000001N9+02061+99999101701ADDGF108991999999999999999999
0029029720999991901060820004+60450+022267FM-12+001499999V0209991C000019999999N0000001N9+02111+99999101791ADDGF100991999999999999999999
0029029720999991901060813004+60450+022267FM-12+001499999V0201801N009319999999N0000001N9+02501+99999101701ADDGF107991999999999999999999
0029029720999991901060806004+60450+022267FM-12+001499999V0200901N009319999999N0000001N9+02501+99999101711ADDGF101991999999999999999999
0029029720999991901060720004+60450+022267FM-12+001499999V0209991C000019999999N0000001N9+02061+99999101621ADDGF102991999999999999999999
0029029720999991901060713004+60450+022267FM-12+001499999V0200501N004619999999N0000001N9+02331+99999101601ADDGF108991999999999999999999
0029029720999991901060706004+60450+022267FM-12+001499999V0209991C000019999999N0000001N9+01891+99999101601ADDGF106991999999999999999999
0029029720999991901060620004+60450+022267FM-12+001499999V0203401N001019999999N0000001N9+01611+99999101581ADDGF102991999999999999999999
0029029720999991901060613004+60450+022267FM-12+001499999V0202901N009319999999N0000001N9+02281+99999101551ADDGF100991999999999999999999
0029029720999991901060606004+60450+022267FM-12+001499999V0209991C000019999999N0000001N9+01941+99999101561ADDGF100991999999999999999999
0029029720999991901060520004+60450+022267FM-12+001499999V0201401N002619999999N0000001N9+01721+99999101801ADDGF102991999999999999999999
0029029720999991901060513004+60450+022267FM-12+001499999V0201401N009319999999N0000001N9+02171+99999101751ADDGF108991999999999999999999
0029029720999991901060506004+60450+022267FM-12+001499999V0200901N006719999999N0000001N9+02061+99999101701ADDGF100991999999999999999999
0029029720999991901060420004+60450+022267FM-12+001499999V0203601N004619999999N0000001N9+01281+99999101661ADDGF101991999999999999999999
0029029720999991901060413004+60450+022267FM-12+001499999V0203201N012319999999N0000001N9+02001+99999101551ADDGF100991999999999999999999
0029029720999991901060406004+60450+022267FM-12+001499999V0203601N006719999999N0000001N9+01891+99999101321ADDGF100991999999999999999999
0029029720999991901060320004+60450+022267FM-12+001499999V0202301N009319999999N0000001N9+01281+99999101231ADDGF101991999999999999999999
0029029720999991901060313004+60450+022267FM-12+001499999V0203201N012319999999N0000001N9+01831+99999101231ADDGF100991999999999999999999
0029029720999991901060306004+60450+022267FM-12+001499999V0202701N009319999999N0000001N9+01331+99999101021ADDGF108991999999999999999999
0029029720999991901060220004+60450+022267FM-12+001499999V0201401N004619999999N0000001N9+01221+99999100561ADDGF108991999999999999999999
0029029720999991901060213004+60450+022267FM-12+001499999V0201801N004619999999N0000001N9+01441+99999100941ADDGF108991999999999999999999
0029029720999991901060206004+60450+022267FM-12+001499999V0202301N004619999999N0000001N9+01671+99999100981ADDGF101991999999999999999999
0029029720999991901060120004+60450+022267FM-12+001499999V0201801N006719999999N0000001N9+01221+99999100871ADDGF108991999999999999999999
0029029720999991901060113004+60450+022267FM-12+001499999V0202301N009319999999N0000001N9+01611+99999100961ADDGF108991999999999999999999
0029029720999991901060106004+60450+022267FM-12+001499999V0201801N012319999999N0000001N9+01221+99999100961ADDGF108991999999999999999999
0029029720999991901053120004+60450+022267FM-12+001499999V0201401N009319999999N0000001N9+01111+99999101201ADDGF108991999999999999999999
0029029720999991901053113004+60450+022267FM-12+001499999V0202301N012319999999N0000001N9+01611+99999101341ADDGF101991999999999999999999
0029029720999991901053106004+60450+022267FM-12+001499999V0201801N012319999999N0000001N9+01111+99999101281ADDGF108991999999999999999999
0029029720999991901053020004+60450+022267FM-12+001499999V0203201N004619999999N0000001N9+01061+99999101241ADDGF108991999999999999999999
0029029720999991901053013004+60450+022267FM-12+001499999V0203601N006719999999N0000001N9+01561+99999101021ADDGF107991999999999999999999
0029029720999991901053006004+60450+022267FM-12+001499999V0200901N004619999999N0000001N9+01441+99999100901ADDGF101991999999999999999999
0029029720999991901052920004+60450+022267FM-12+001499999V0200501N006719999999N0000001N9+01061+99999100741ADDGF101991999999999999999999
0029029720999991901052913004+60450+022267FM-12+001499999V0203601N012319999999N0000001N9+01891+99999100191ADDGF100991999999999999999999
0029029720999991901052906004+60450+022267FM-12+001499999V0203201N004619999999N0000001N9+01441+99999100041ADDGF108991999999999999999999
0029029720999991901052820004+60450+022267FM-12+001499999V0201801N004619999999N0000001N9+01281+99999100401ADDGF101991999999999999999999
0029029720999991901052813004+60450+022267FM-12+001499999V0202701N012319999999N0000001N9+01891+99999100711ADDGF100991999999999999999999
0029029720999991901052806004+60450+022267FM-12+001499999V0202301N009319999999N0000001N9+01561+99999100861ADDGF100991999999999999999999
0029029720999991901052720004+60450+022267FM-12+001499999V0200501N001019999999N0000001N9+01061+99999101031ADDGF100991999999999999999999
0029029720999991901052713004+60450+022267FM-12+001499999V0203201N012319999999N0000001N9+01561+99999100951ADDGF101991999999999999999999
0029029720999991901052706004+60450+022267FM-12+001499999V0203201N004619999999N0000001N9+01561+99999100991ADDGF100991999999999999999999
0029029720999991901052620004+60450+022267FM-12+001499999V0203201N009319999999N0000001N9+01111+99999101141ADDGF100991999999999999999999
0029029720999991901052613004+60450+022267FM-12+001499999V0203201N015419999999N0000001N9+01441+99999101461ADDGF100991999999999999999999
0029029720999991901052606004+60450+022267FM-12+001499999V0203201N012319999999N0000001N9+01501+99999101641ADDGF100991999999999999999999
0029029720999991901052520004+60450+022267FM-12+001499999V0203201N004619999999N0000001N9+01061+99999102001ADDGF100991999999999999999999
0029029720999991901052513004+60450+022267FM-12+001499999V0203201N012319999999N0000001N9+01721+99999102071ADDGF106991999999999999999999
0029029720999991901052506004+60450+022267FM-12+001499999V0203401N009319999999N0000001N9+01671+99999102201ADDGF101991999999999999999999
0029029720999991901052420004+60450+022267FM-12+001499999V0203201N004619999999N0000001N9+00891+99999102501ADDGF100991999999999999999999
0029029720999991901052413004+60450+022267FM-12+001499999V0203201N009319999999N0000001N9+01561+99999102521ADDGF106991999999999999999999
0029029720999991901052406004+60450+022267FM-12+001499999V0203601N006719999999N0000001N9+01171+99999102561ADDGF108991999999999999999999
0029029720999991901052320004+60450+022267FM-12+001499999V0203201N006719999999N0000001N9+01221+99999102721ADDGF101991999999999999999999
0029029720999991901052313004+60450+022267FM-12+001499999V0202701N006719999999N0000001N9+02061+99999102751ADDGF106991999999999999999999
0029029720999991901052306004+60450+022267FM-12+001499999V0209991C000019999999N0000001N9+01611+99999103021ADDGF101991999999999999999999
0029029720999991901052220004+60450+022267FM-12+001499999V0202701N004619999999N0000001N9+01001+99999103221ADDGF107991999999999999999999
0029029720999991901052213004+60450+022267FM-12+001499999V0202301N026819999999N0000001N9+01611+99999103421ADDGF108991999999999999999999
0029029720999991901052206004+60450+022267FM-12+001499999V0202301N009319999999N0000001N9+01171+99999103541ADDGF101991999999999999999999
0029029720999991901052120004+60450+022267FM-12+001499999V0203201N002619999999N0000001N9+00781+99999103461ADDGF100991999999999999999999
0029029720999991901052113004+60450+022267FM-12+001499999V0202701N012319999999N0000001N9+01391+99999103221ADDGF106991999999999999999999
0029029720999991901052106004+60450+022267FM-12+001499999V0209991C000019999999N0000001N9+00561+99999103201ADDGF100991999999999999999999
0029029720999991901052020004+60450+022267FM-12+001499999V0203401N009319999999N0000001N9+00611+99999102561ADDGF100991999999999999999999
0029029720999991901052013004+60450+022267FM-12+001499999V0203601N012319999999N0000001N9+01061+99999102041ADDGF100991999999999999999999
0029029720999991901052006004+60450+022267FM-12+001499999V0203601N006719999999N0000001N9+01061+99999101591ADDGF100991999999999999999999
0029029720999991901051920004+60450+022267FM-12+001499999V0203601N009319999999N0000001N9+00781+99999100981ADDGF108991999999999999999999
0029029720999991901051913004+60450+022267FM-12+001499999V0202501N009319999999N0000001N9+01221+99999100591ADDGF106991999999999999999999
0029029720999991901051906004+60450+022267FM-12+001499999V0202001N004619999999N0000001N9+00721+99999100421ADDGF108991999999999999999999
0029029720999991901051820004+60450+022267FM-12+001499999V0202701N012319999999N0000001N9+00281+99999100501ADDGF108991999999999999999999
0029029720999991901051813004+60450+022267FM-12+001499999V0202701N019019999999N0000001N9+00501+99999100021ADDGF108991999999999999999999
0029029720999991901051806004+60450+022267FM-12+001499999V0202901N006719999999N0000001N9+00331+99999099481ADDGF108991999999999999999999
0029029720999991901051720004+60450+022267FM-12+001499999V0202001N012319999999N0000001N9+00441+99999099721ADDGF108991999999999999999999
0029029720999991901051713004+60450+022267FM-12+001499999V0202501N015419999999N0000001N9+00671+99999099641ADDGF108991999999999999999999
0029029720999991901051706004+60450+022267FM-12+001499999V0202901N009319999999N0000001N9+00391+99999099281ADDGF108991999999999999999999
0029029720999991901051620004+60450+022267FM-12+001499999V0203201N002619999999N0000001N9+00831+99999100111ADDGF108991999999999999999999
0029029720999991901051613004+60450+022267FM-12+001499999V0203401N012319999999N0000001N9+01561+99999100541ADDGF101991999999999999999999
0029029720999991901051606004+60450+022267FM-12+001499999V0203601N006719999999N0000001N9+01441+99999100901ADDGF102991999999999999999999
0029029720999991901051520004+60450+022267FM-12+001499999V0209991C000019999999N0000001N9+01391+99999101271ADDGF108991999999999999999999
0029029720999991901051513004+60450+022267FM-12+001499999V0201801N002619999999N0000001N9+01781+99999101391ADDGF108991999999999999999999
0029029720999991901051506004+60450+022267FM-12+001499999V0209991C000019999999N0000001N9+02001+99999101761ADDGF100991999999999999999999
0029029720999991901051420004+60450+022267FM-12+001499999V0203401N004619999999N0000001N9+01611+99999102081ADDGF101991999999999999999999
0029029720999991901051413004+60450+022267FM-12+001499999V0202701N009319999999N0000001N9+02171+99999102401ADDGF100991999999999999999999
0029029720999991901051406004+60450+022267FM-12+001499999V0200901N004619999999N0000001N9+01831+99999102591ADDGF108991999999999999999999
0029029720999991901051320004+60450+022267FM-12+001499999V0209991C000019999999N0000001N9+01721+99999102661ADDGF108991999999999999999999
0029029720999991901051313004+60450+022267FM-12+001499999V0203201N006719999999N0000001N9+02061+99999102711ADDGF107991999999999999999999
0029029720999991901051306004+60450+022267FM-12+001499999V0200201N001019999999N0000001N9+01781+99999102941ADDGF100991999999999999999999
0029029720999991901051220004+60450+022267FM-12+001499999V0209991C000019999999N0000001N9+01331+99999103161ADDGF101991999999999999999999
0029029720999991901051213004+60450+022267FM-12+001499999V0202501N009319999999N0000001N9+02561+99999103141ADDGF106991999999999999999999
0029029720999991901051206004+60450+022267FM-12+001499999V0201401N002619999999N0000001N9+02001+99999103301ADDGF101991999999999999999999
0029029720999991901051120004+60450+022267FM-12+001499999V0201101N006719999999N0000001N9+01721+99999103111ADDGF100991999999999999999999
0029029720999991901051113004+60450+022267FM-12+001499999V0201801N012319999999N0000001N9+02331+99999102941ADDGF102991999999999999999999
0029029720999991901051106004+60450+022267FM-12+001499999V0201401N006719999999N0000001N9+01501+99999102911ADDGF108991999999999999999999
0029029720999991901051020004+60450+022267FM-12+001499999V0201101N009319999999N0000001N9+01281+99999102711ADDGF108991999999999999999999
0029029720999991901051013004+60450+022267FM-12+001499999V0201401N012319999999N0000001N9+01891+99999102641ADDGF108991999999999999999999
0029029720999991901051006004+60450+022267FM-12+001499999V0200901N009319999999N0000001N9+01171+99999102641ADDGF108991999999999999999999
0029029720999991901050920004+60450+022267FM-12+001499999V0200901N009319999999N0000001N9+01001+99999102631ADDGF108991999999999999999999
0029029720999991901050913004+60450+022267FM-12+001499999V0201401N019019999999N0000001N9+01391+99999102541ADDGF108991999999999999999999
0029029720999991901050906004+60450+022267FM-12+001499999V0200901N012319999999N0000001N9+00721+99999102511ADDGF108991999999999999999999
0029029720999991901050820004+60450+022267FM-12+001499999V0201101N009319999999N0000001N9+00441+99999102521ADDGF100991999999999999999999
0029029720999991901050813004+60450+022267FM-12+001499999V0200901N012319999999N0000001N9+00941+99999102161ADDGF100991999999999999999999
0029029720999991901050806004+60450+022267FM-12+001499999V0201401N002619999999N0000001N9+00501+99999101961ADDGF100991999999999999999999
0029029720999991901050720004+60450+022267FM-12+001499999V0203601N006719999999N0000001N9-00061+99999101351ADDGF100991999999999999999999
0029029720999991901050713004+60450+022267FM-12+001499999V0203401N009319999999N0000001N9+00331+99999100741ADDGF108991999999999999999999
0029029720999991901050706004+60450+022267FM-12+001499999V0200201N009319999999N0000001N9+00281+99999100311ADDGF100991999999999999999999
0029029720999991901050620004+60450+022267FM-12+001499999V0203401N009319999999N0000001N9-00061+99999100041ADDGF108991999999999999999999
0029029720999991901050613004+60450+022267FM-12+001499999V0203401N015419999999N0000001N9+00501+99999099991ADDGF101991999999999999999999
0029029720999991901050606004+60450+022267FM-12+001499999V0203601N012319999999N0000001N9+00221+99999100161ADDGF100991999999999999999999
0029029720999991901050520004+60450+022267FM-12+001499999V0203601N006719999999N0000001N9-00171+99999100361ADDGF100991999999999999999999
0029029720999991901050513004+60450+022267FM-12+001499999V0200201N015419999999N0000001N9+00221+99999100521ADDGF108991999999999999999999
0029029720999991901050506004+60450+022267FM-12+001499999V0203601N012319999999N0000001N9+00061+99999100841ADDGF100991999999999999999999
0029029720999991901050420004+60450+022267FM-12+001499999V0203601N012319999999N0000001N9+00111+99999101031ADDGF100991999999999999999999
0029029720999991901050413004+60450+022267FM-12+001499999V0203601N019019999999N0000001N9+00611+99999100871ADDGF101991999999999999999999
0029029720999991901050406004+60450+022267FM-12+001499999V0203601N015419999999N0000001N9+00561+99999100741ADDGF108991999999999999999999
0029029720999991901050320004+60450+022267FM-12+001499999V0203201N012319999999N0000001N9+00671+99999101041ADDGF107991999999999999999999
0029029720999991901050313004+60450+022267FM-12+001499999V0200201N019019999999N0000001N9+01111+99999101241ADDGF104991999999999999999999
0029029720999991901050306004+60450+022267FM-12+001499999V0202901N004619999999N0000001N9+00941+99999101521ADDGF108991999999999999999999
0029029720999991901050220004+60450+022267FM-12+001499999V0202701N009319999999N0000001N9+00891+99999102081ADDGF100991999999999999999999
0029029720999991901050213004+60450+022267FM-12+001499999V0202901N009319999999N0000001N9+01501+99999102311ADDGF100991999999999999999999
0029029720999991901050206004+60450+022267FM-12+001499999V0209991C000019999999N0000001N9+01001+99999102361ADDGF100991999999999999999999
0029029720999991901050120004+60450+022267FM-12+001499999V0202501N004619999999N0000001N9+00781+99999102441ADDGF100991999999999999999999
0029029720999991901050113004+60450+022267FM-12+001499999V0202301N012319999999N0000001N9+01611+99999102431ADDGF100991999999999999999999
0029029720999991901050106004+60450+022267FM-12+001499999V0201401N002619999999N0000001N9+01061+99999102561ADDGF100991999999999999999999
0029029720999991901043020004+60450+022267FM-12+001499999V0201401N004619999999N0000001N9+00941+99999102431ADDGF100991999999999999999999
0029029720999991901043013004+60450+022267FM-12+001499999V0202501N009319999999N0000001N9+01941+99999102191ADDGF104991999999999999999999
0029029720999991901043006004+60450+022267FM-12+001499999V0209991C000019999999N0000001N9+01331+99999102201ADDGF100991999999999999999999
0029029720999991901042920004+60450+022267FM-12+001499999V0203201N004619999999N0000001N9+01061+99999102141ADDGF100991999999999999999999
0029029720999991901042913004+60450+022267FM-12+001499999V0202001N004619999999N0000001N9+01941+99999102191ADDGF102991999999999999999999
0029029720999991901042906004+60450+022267FM-12+001499999V0200501N001019999999N0000001N9+01441+99999102351ADDGF100991999999999999999999
0029029720999991901042820004+60450+022267FM-12+001499999V0203601N002619999999N0000001N9+00891+99999102511ADDGF100991999999999999999999
0029029720999991901042813004+60450+022267FM-12+001499999V0200701N004619999999N0000001N9+01721+99999102661ADDGF100991999999999999999999
0029029720999991901042806004+60450+022267FM-12+001499999V0209991C000019999999N0000001N9+01391+99999102821ADDGF100991999999999999999999
0029029720999991901042720004+60450+022267FM-12+001499999V0209991C000019999999N0000001N9+01171+99999102821ADDGF100991999999999999999999
0029029720999991901042713004+60450+022267FM-12+001499999V0201401N009319999999N0000001N9+01441+99999102821ADDGF100991999999999999999999
